S02400006275696C642F64656275672F77696E646F772D6170702D7468726561642E733337B0
S3150800600000120020758000083D200808F91F0B08BB
S31508006010354608083D2008083D2008083D200808A0
S315080060203D2008083D2008083D2008085162000860
S315080060303D2008080C530C08F16100089550080823
S31508006040217E00083D2008083D2008083D20080854
S315080060503D2008083D2008083D2008083D2008087E
S315080060603D2008083D2008083D20080881780308D7
S315080060703D2008083D2008083D2008083D2008085E
S315080060803D2008083D2008083D2008083D2008084E
S315080060903D200808558700083D2008083D200808C7
S315080060A03D200808D1880008AD8800083D2008086A
S315080060B03D200808751108086D1B0808CB510C0807
S315080060C0C7510C0845130808D7510C08CF510C08BE
S315080060D0451B0808D3510C08AD1B0808111C0808F5
S315080060E03D2008083D2008083D2008083D200808EE
S315080060F0314608083D2008083D2008083D200808C4
S315080061003D2008083D2008083D2008083D200808CD
S315080061103D2008083D2008083D2008083D200808BD
S315080061203D2008083D2008083D2008083D200808AD
S315080061303D2008083D2008083D2008083D2008089D
S315080061403D20080899BA00083D2008087347080842
S315080061505DF907083D200808634E0C08694E0C08CF
S315080061603D2008083D2008083D2008083D2008086D
S31508006170013800D0FCE7704700000000000000006E
S315080061800B4A1168086806C881F30B88022181F357
S315080061901488203080F30988BFF36F8F4FF0000012
S315080061A080F31188104700BFAFF30080AFF300807B
S315080061B094510120000000000000000000000000CB
S315080061C007480068006880F3088862B661B6BFF3BE
S315080061D04F8FBFF36F8F02DF00BF00BFAFF30080A2
S315080061E008ED00E0000000000000000000000000CC
S315080061F0EFF30980EFF30B82734620E9FC0F104A90
S31508006200116808604FF0300080F31188BFF34F8F94
S31508006210BFF36F8F0FF0A2F94FF0000080F31188DB
S31508006220074A11680868B0E8FC0F82F30B8880F308
S3150800623009881847AFF30080AFF30080AFF30080FA
S31508006240945101200000000000000000000000003A
S315080062501EF0040F0CBFEFF30880EFF30980044922
S31508006260084700BFAFF30080AFF30080AFF30080AC
S3150800627035400108000000002DE9F04F2DED028B96
S31508006280DFF8E8918FB0B9F800309B0706D440F2E2
S31508006290A5616F4B6F4A70485DF0C6FEDFF8D0B156
S315080062A0DBF8003023B940F2A6616C4B694AF2E785
S315080062B06B4C0DF1200894E8070088E807009B88D6
S315080062C0684D8DF817300123B9F800200DF1170134
S315080062D01A462868BEF071F99DF81720DBF80010F9
S315080062E0023A0023096892B20C3428680DF12C0A88
S315080062F0BEF063F994E807008AE80700DBF8003087
S315080063001B681C7814F0200421D02868BDF071FFA2
S31508006310002870D02868BDF06CFF04460D985DF023
S315080063206FF9064620460F465DF06AF902460B46A7
S3150800633043A1D1E900015DF007FB02460B46304652
S3150800634039465DF021F85DF06FFC0D900124286850
S31508006350BDF06BFF9DF81730002850D0981DC0007F
S315080063605DF05EF938A3D3E900235DF0C3F941EC8B
S31508006370180B2868BDF059FF03900D985DF040F999
S31508006380039B064618460F465DF03AF902460B4649
S3150800639051EC180B5DF0D8FA02460B4630463946E2
S315080063A05CF0F2FF5DF040FC0D90B9F80020DBF8D8
S315080063B0003012F02002286827D00D9A02F5FA72EA
S315080063C00D9293F8202099798DF82220264A434683
S315080063D01278CDF800A08DF823202246BDF082FC65
S315080063E020B102200CF078F852F074FB0FB0BDEC27
S315080063F0028BBDE8F08F0D9BC0330D93A6E70D9871
S31508006400063300EB43130D93CFE79D6999797DB168
S31508006410DB69154E2B4436780693ADF81C20CDE97A
S31508006420008A224606AB8DF82360BDF066FCD7E7E6
S3150800643053462246BDF040FCD2E700BFAFF30080CA
S315080064400000000060E366410000000080842E41E1
S31508006450A0960C089F990C0821950C08C6960C085E
S3150800646084980C08004E012062190020B6FA012013
S315080064700451012000000000F7B5814B1C8814F078
S31508006480010440F0F68041F60B2280277D4D7E4BB5
S315080064906FF07F01C5E9003405F11003AB607B4B53
S315080064A07B489A8010221C60B4F079FC794B1F70E7
S315080064B0794B1B6ADB0706D44FF48661774B784A1B
S315080064C078485DF0B1FD2146284672F03DF804464D
S315080064D020B940F23441744B714AF1E773F038FC45
S315080064E020B14FF48761714B6D4AE9E74FF001110E
S315080064F02046BEF04AF820B140F23C416B4B684A50
S31508006500DEE702212046BDF055FE20B140F23F41AC
S31508006510664B634AD4E72046654973F0DDF920B136
S3150800652040F24241614B5E4ACAE701212046BEF06D
S31508006530E2F920B140F247415C4B594AC0E70121D4
S315080065402046BEF0EFF9064620B140F24A41574BC5
S31508006550534AB5E7014638225648B4F020FC3B4674
S315080065603246204605F11401BEF03DF8802804D0D5
S3150800657040F25141504B4A4AA2E7504D0120BDF026
S3150800658096FB3DA3D3E900232C602046CDE90023E2
S315080065904FF0FF324FF0FF33BDF0C5FE014620B184
S315080065A04FF46471414B464A8AE738480BF018FEA7
S315080065B0012108460BF088FE01212868BDF044FD3C
S315080065C0044620B140F2E341384B3E4A78E701469B
S315080065D04FF408723C48B4F0E2FB3C4A3C4B02F1EB
S315080065E088011A60996202F5887102F5CC729C805E
S315080065F09A679C85374AA3F854401965A3F87C40E6
S31508006600354B6FF063001A609C80344A344B1A602D
S31508006610344A9C801470344A5A6115F095F90B2057
S315080066200BF098FD314B186020B940F2FB41304B16
S31508006630244A45E705F088F920460BF09FFE082214
S3150800664028681146BDF08AFE044620B14FF4A061C1
S31508006650284B1C4A34E70CF019FF274B27481C70B7
S31508006660274B1C70274B1C7003B0BDE8F04084F024
S315080066704DBE03B0F0BD00BF0BE020FFE2030000F3
S31508006680B6FA01200C4E012005260108044E012009
S31508006690EF060220E00602200080E00F70970C0843
S315080066A014990C0821950C0889970C0881940C08F4
S315080066B0249A0C08AC4E012098970C08004E01202D
S315080066C007990C0890990C08E44E0120EC4E01201D
S315080066D02021002000070220F8200020850702203C
S315080066E0C02100207F070220E8210020A84E0120B3
S315080066F0D0970C08EB970C08E30602206F980C0855
S3150800670084070220830702202DE9F3411F46204B08
S31508006710044683424FF000038B410E46154611D2BC
S3150800672019A3D3E900235DF0EFFA1A490246284671
S3150800673087F0A5FB14A3D3E90023204631465DF074
S31508006740E3FA144614484FF47A78B4FBF0F200FBE7
S3150800675012444EF66020B4FBF0F300FB1344B4FB7E
S31508006760F8F628460D49009687F089FB47B1284672
S3150800677008FB16420A4902B0BDE8F04187F07FBB24
S3150800678002B0BDE8F08100BF005C260500000000ED
S31508006790FF5B26050CD70C0880EE3600E78E0D0841
S315080067A012D70C08000000002DE9F04F2DED028BE2
S315080067B0804600680C4691461D468DB030B90327C1
S315080067C038460DB0BDEC028BBDE8F08F0668766CD6
S315080067D0B0472D2807460CD00028F1D09C4A9D4B7F
S315080067E00221A52808BF13460D209B4AA8F012FFD0
S315080067F0E6E76378202B01D10027E1E7974BD8F825
S315080068000000049358B1036822461B6C04A99847F4
S31508006810074630B1049803689B689847D0E7032772
S31508006820F8E78F4B8F4E05934FF48973EE40F64386
S31508006830EB40DB43102D06F0010688BF0126082D24
S3150800684003F0010388BF01239FED7F8B6FF0010BD7
S315080068500193049805A90368DB689847002840F067
S31508006860EC808DF80E0005980DF10E010368DB68C3
S3150800687098470746002843D19DF80E30402B03D091
S31508006880802B01D003273BE062789A42E1D10123AD
S3150800689005988DF80F3003680DF10F015B6998476D
S315080068A0074668BB9DF80F30082B17D8002BD0D0A9
S315080068B0013B072BCDD801A252F823F00D69000839
S315080068C0E768000853680008096900085368000863
S315080068D0536800085368000813690008102BB8D1DC
S315080068E0002EB6D102E06B1E012BB2D80023059804
S315080068F00693036806A95B6A9847824668B1074605
S3150800690005A895F0D9FD85E7042DEFD0012DA0D176
S31508006910ECE7019B002B9CD1E8E7069B002B46D0B1
S315080069208DED088B05985146036808AA9B6A984717
S3150800693007460028E4D1DDE90830591E40F1FF3248
S315080069408B456FF0100171EB020210D39DF80E20F3
S31508006950402A97D1D4E90212904208BF8B4226D02A
S31508006960069B0AF1010A53457FF673AFD8E74FF045
S31508006970FF31C21C994277EB020231D39DF80E20F3
S31508006980402A7FF47FAF1F0C04F1100104F11C00AC
S315080069909BB28842E4D051F8042B002AF9D0B7EB11
S315080069A0124FF6D1002BF4D092B29342F1D80023BD
S315080069B005980793036807A99B6B9847074600281D
S315080069C09ED1079B002B36D082460598CDF820A08D
S315080069D003683946DB6B08AA984758B107468FE71C
S315080069E013F5803F70F1FF32FFF44CAF9DF80E208F
S315080069F0802AAEE7089BD90704D5D9F8002009995B
S31508006A00914212D19A0705D5BDF82810B9F8042085
S31508006A1091420AD15B070ED5D8F80400B9F80420CC
S31508006A2003680B999B68984728B9079B0137BB42AF
S31508006A307FF60FAFC9E7002762E702210D200A4A51
S31508006A40A8F0E8FDA5275BE70000000000000000AD
S31508006A5090F90C08A50F0E0864F90C0830140020EC
S31508006A60341400201601010081F90C08000000000A
S31508006A702DE9F04F2DED028B884204460D469046CF
S31508006A801E4697B00AD1034601211D202E4A17B08B
S31508006A90BDEC028BBDE8F04FA8F0BCBD9FED288B7E
S31508006AA00DF10C092A21484605AF42F0E5FB99E8A5
S31508006AB0030087E80300DFF894A0DFF894B0BDF878
S31508006AC01400BDF81630834234D042F06FFC337898
S31508006AD081468DF824408DF825508DF826808DF84E
S31508006AE028300BB173680B9309AB0893CDF81CA03B
S31508006AF03BF094FF00230E938DF840308DF851300B
S31508006B002A23ADF830904FF001090D930CAA6B4675
S31508006B1007A98DED128B8DF850909BF07CFB0346F0
S31508006B2020B15A4649461D20A8F074FD38469FF004
S31508006B3066FEC4E717B0BDEC028BBDE8F08F00BF58
S31508006B400000000000000000901F0D087C200D08C2
S31508006B50D01F0D08000000002DE9F04F2DED028B27
S31508006B609FED318B9DB00DF108092A21054604AC2D
S31508006B70484616461F46DDF8A48042F07DFB99E894
S31508006B80030084E80300DFF8A8A0DFF8A8B0BDF882
S31508006B901000BDF8123083423ED042F007FC289B15
S31508006BA081461B78CDE90A6708958DF830301BB108
S31508006BB0289B5B788DF8313098F800308DF838309E
S31508006BC01BB1D8E90223CDE9102308AB0793CDF80A
S31508006BD018A03BF023FF00232A228DF858308DF8A1
S31508006BE069300223ADF848904FF00109CDE9132327
S31508006BF006A96B4612AA8DED188B8DF868909BF046
S31508006C000AFB034620B15A4649461D20A8F002FD54
S31508006C1020469FF0F4FDBAE71DB0BDEC028BBDE837
S31508006C20F08F00BFAFF300800000000000000000F6
S31508006C30A4200D0827200D082DE9F04F2DED028B15
S31508006C409FED658B83ED008B17460026C1B09946EC
S31508006C50D0E90623CDE9002304468A4697F8202082
S31508006C601CA926A80F969BF0CFF903238DED188B48
S31508006C705B4DCDE912662868ADF86830149616960D
S31508006C80036810A95B699847002840F08D800126A3
S31508006C90109B0A93119B0B9300234FF0030BCDE92E
S31508006CA01333ADF848300A9B4FF0FF3218930B9B0D
S31508006CB021681CA819938DF85860ADF868B0A7F03C
S31508006CC038FA97E807003B8C0DF1480888E8070072
S31508006CD0ADF868305146D4E906232046CDE932237B
S31508006CE0D4E90A23CDE930230FAB42463BF050FFE7
S31508006CF005460346002866D1204697F820200F99B6
S31508006D003CF0A0F80546034600285CD143465246A7
S31508006D10204626A99BF098F905460346002852D135
S31508006D20E368229A20461344E360D4E90623C9E9B6
S31508006D3000233BF093FF0A9B9DF858C0A3620B9B68
S31508006D402848E362284B84F82060BCF1000F18BF7E
S31508006D5003461898139F08901998D9F80020CDE98A
S31508006D6006309DF86810BDF8485014983E0CBFB21E
S31508006D70CDE90021D9F8043059461C4ACDE90470FA
S31508006D80CDE902561A20A8F045FC3CF045FC4146E0
S31508006D90E26800F5CE603FF009F80546284641B09E
S31508006DA0BDEC028BBDE8F08F29680CA80B68DB6880
S31508006DB09847D4E90C310C9AD31A0A930D9B63EBC6
S31508006DC001030B9368E701211A20094AA8F022FC5F
S31508006DD0E4E700BFAFF300800000000000000000F9
S31508006DE078150020EE330D08EA330D08F4330D0844
S31508006DF07C340D08000000002DE9F04F2DED028BC4
S31508006E00083089B00E469146DDF86080A8F025FC6A
S31508006E100446002800F0A1806D4614AB0FCB85E828
S31508006E200F0000259FED508B4FF0010B41F2A45A3D
S31508006E3004AF87E80F004E4BC4E90355236003F1FE
S31508006E402C02C4E905554833A3604A4B04F1480CA3
S31508006E5062600FCB84ED0E8BC4E90755C4E90C5567
S31508006E6084F8245084F840508CE80F00424B1022D6
S31508006E70236604F17803C4E91E3304F1A003C4E9C8
S31508006E8028333E4B2946C4F8D030C4E91955C4E91D
S31508006E90355584F858B0A4F85AA0E56584F86C50BE
S31508006EA06467C4F89850C4F8C050C4F8DC5004F1BC
S31508006EB0E000B3F074FF84F8F0B0A4F8F2A0C4F8C8
S31508006EC0F45004F1F800A9F026F94AF6C873C82266
S31508006ED084ED428B84ED448BC4E9462304F598730C
S31508006EE0C4E94C3384F80051A4F80451C4F8285175
S31508006EF084F82C51C4F850513368E36073682361F1
S31508006F00B3686361F368A3613369E36173692362F4
S31508006F10337E84F824302BB1D6E9070104F128031F
S31508006F2083E80300304695F0AFFFB0B9B9F1000F1A
S31508006F3013D0B8F1000F10D003CF3B78C4F83090C7
S31508006F4084F84030012384F8283104F10803A0634B
S31508006F50E163C4F8C880C4F8DC30204609B0BDEC4B
S31508006F60028BBDE8F08F00BF0000000000000000A3
S31508006F70183F0D087C7E0120D83E0D08043F0D08F9
S31508006F802DE9F04F2DED028B9946002300240025AC
S31508006F90CDB08DF8C83049938DF828319C4BCDE992
S31508006FA02E45CDE93045CDE934450C934FF6FF74AF
S31508006FB00123DFF874A2064688461746CDF8D8A0FE
S31508006FC0ADF820410D936AB1054600F53E74A54219
S31508006FD000F00C81284696F02FF8002800F008816A
S31508006FE09835F4E7A2F074FB044630B9AC24204681
S31508006FF04DB0BDEC028BBDE8F08F06F53E75284610
S3150800700094F0F4FDB4F868308DF8C880ADF82031F6
S3150800701094ED028B6A3420212046B4F029F8CDE994
S315080070200C407C4B4FF4C8710E93002309A8CDE998
S3150800703009330F930B93CDF870A098F06FFA099B5C
S3150800704053B90B240BA895F03CFE0AA895F039FE17
S3150800705009A895F036FECAE74FF4C8710AA898F051
S315080070605DFA0A9B002BECD04FF4C8710BA898F078
S3150800707055FA0B990029E4D0099B0A9A10934FF404
S31508007080C8733046CDE91223CDE9141310AA414638
S315080070901193A2F07AFB08B10446D3E7414630467D
S315080070A012AAA2F054FB0028F6D14146304614AA8B
S315080070B0A2F02AFB0028EFD1109B0DF1B80A16930F
S315080070C0119B0DF1700B1793129B8DED008B189386
S315080070D0139BCDE905AB1993149B1AAA1A93159B12
S315080070E018A91B9336AB079330AB049334AB0393C1
S315080070F00EAB029316A845F08FFF0028CCD10BA83B
S3150800710095F0DFFD0AA895F0DCFD09A895F0D9FDF4
S31508007110B9F1000F13D1D6F8940300285AD00368A2
S315080071209B689847D6F894331A6800284AD0546959
S3150800713041465A461846A04798B1044657E7D9F833
S31508007140003048465B699847036859465B6A984722
S3150800715008B9C5244BE79DF86031CDF824918DF820
S31508007160283151462846A2F090FD0028E5D1284648
S315080071700CA9A2F07AFA2B7C77B302211120264AB1
S31508007180A8F048FAD5E90012AB69CDE901210093C8
S3150800719002211120EB69214AA8F03CFA0F9906F55D
S315080071A0697048F08DF9034620B1012111201C4A67
S315080071B0A8F030FA27B196F8B233013386F8B2331D
S315080071C0002414E741461846D26890470028C8D1DB
S315080071D010240CE703240AE7D5E900121120CDE9AB
S315080071E0002102210F4AA8F015FAD7E70B24FEE67C
S315080071F0BDF864319FED048BADF820318DF8C88059
S315080072000FE700BFAFF30080000000000000000099
S31508007210A0A80C081C8C0D08488B0D08688B0D0857
S31508007220E08B0D08AB8B0D08F0C40D0800000000BC
S315080072302DE9F0478AB00DF10D0301931523064693
S3150800724000934FF48072002308460C46A7F06EF9A7
S31508007250D8B9B37B0122009320460023A7F0EDF8A6
S3150800726098B9F37B0222009320460023A7F0E5F89D
S3150800727058B90DF10E0301931623032200932046F5
S315080072800023A7F053F9054610B10AB0BDE8F08708
S3150800729037464FF010090DF1180810220021404614
S315080072A0B3F07DFD0DF10F03019315234FF48072A2
S315080072B0009320460023A7F039F90028E5D1F27B90
S315080072C0EBB29A4250D997ED047BC446B7F818A09A
S315080072D007F11A0307F12A0E624618685968083337
S315080072E003C273459446F7D18DED007B0422002333
S315080072F02046A7F07DF80028C7D10522002320469E
S31508007300CDF800A0A7F099F80028BED14046494616
S3150800731006228DE8030000232046CDE90489A7F05C
S31508007320C1F90028B1D120469DF90F10A7F02DF913
S31508007330013530370028A8D1032DAED120469DF956
S315080073400E10A7F022F900289FD1F3880722009390
S3150800735020460023A7F071F8002896D120469DF90B
S315080073600D10A7F012F990E782469FED017BBBE767
S315080073700000000000000000054B186803689969C2
S3150800738001A3D3E90023084700E0373B015D03006A
S3150800739078150020000000002A2110B57248ADF5C6
S315080073A0956D029152F0FCFE08B1B3F048FC0290CC
S315080073B002A96D4852F0AEFD0028F6D1029B2A2B91
S315080073C0F3D167A3D3E900236848CDE9082352F02F
S315080073D0FFFE0028E9D100220023644808A9CDE968
S315080073E0082352F0BBFD0028DFD1DDE9080240F68C
S315080073F0FA035F499A4208BF8842D6D101215D48FF
S315080074008DF8071052F0B4FE0028CED18DF807008B
S315080074100DF10701574852F055FD0028C5D19DF8D2
S315080074200730002BC1D0504852F0C8FC0028BCD108
S315080074304D4803A952F06EFD40F20124A042B4D192
S315080074404D494E48AAF013FE0028AED140224B48BB
S3150800745004AB0AA952F0AAFD0028A6D1049B0E2B5C
S31508007460A3D10F2244490AA8B3F062FC00289CD194
S3150800747043494248AAF0FBFD002896D104AB4022B6
S315080074803E480AA952F092FD049B03438DD19DF80C
S315080074902810002989D13948AAF0E9FD002884D1A5
S315080074A04022364805AB1AA952F080FDA0427FF467
S315080074B07CAFF1223349344852F0BCFE00287FF4F1
S315080074C074AF4FF40072304806AB2AA952F0BCFDDF
S315080074D000287FF46AAF069AF12A7FF466AF294935
S315080074E02AA8B3F025FC024600287FF45EAF0146C1
S315080074F0254852F09FFE00287FF457AF4FF40072DC
S31508007500214807ABAAA952F09FFDA0427FF44DAFD0
S31508007510164852F05FFC00283FF447AF154852F072
S3150800752059FC00283FF441AF174852F053FC002895
S315080075307FF43BAF52F0A8FC00287FF436AF0B4827
S3150800754052F048FC00283FF430AF0A4852F042FC9B
S3150800755000287FF42AAF0DF5956D10BDAFF30080B6
S31508007560316EE595FA0800000573080001720800F7
S31508007570316EE59506730800A6DA0D080273080051
S31508007580A5DA0D08B4D90D0802720800000000003B
S31508007590002370B5404C05468AB0E36318B10088ED
S315080075A0236065F00BFD3D48BCF0EDFD3C4E3D4BC0
S315080075B0304633603C4B736065F0D2FE002130469E
S315080075C070F0C2FF32A3D3E90023A062C4E9062300
S315080075D0B7F060FAD4E90623194310434FF0FF3396
S315080075E0C4E90601CDE900014FF0FF32A06ABCF0FC
S315080075F09AFE02224FF0FF31A06ABCF0AFFE0120CE
S3150800760065F042FA4FF4007300222849A06ABCF0DC
S31508007610EAFFB0F5007F38D100239422CDE907337D
S3150800762009933C23CDE9033205939623A06A03A95F
S31508007630069371F0A5FB35B3287C65F04FFF054628
S31508007640F0B9A06ABDF0A9F965F0F0FE65F0FEF99B
S3150800765020B14FF48070002162F05EFA65F006FAF8
S3150800766020B14FF40060002162F056FAB7F0D7F95E
S315080076700120BCF01CFB0E4A0E49A06AB7F0FEF9C1
S3150800768028460AB070BDFF20D7E70725F8E700BFF0
S315080076900DD5015520000000983A0120690345ECF4
S315080076A054F5012015D2060848F5012048F30120B3
S315080076B025EA0B0865EA0B0810B5054C237833B99B
S315080076C0044B13B1044800E000BF0123237010BD2A
S315080076D00040012000000000105B0E0808B5034BAF
S315080076E01BB10349034800E000BF08BD00000000C5
S315080076F004400120105B0E08A3F5803A704700BFCE
S31508007700174B002B08BF134B9D46FFF7F5FF0021CB
S315080077108B460F461348144A121AB3F040FB0E4B19
S31508007720002B00D098470D4B002B00D0984700201F
S31508007730002104000D000D48002802D00C48B3F0C3
S3150800774085FA5CF0B7FE200029005AF093FC5CF03D
S315080077509DFC00BF000008000000000000000000BB
S3150800776000120020041C002000C602204DAC0B08A5
S31508007770000000002DE9F043044689B0214E01AD12
S31508007780884617460FCE0FC596E8070085E8070016
S315080077901D4E01213A20D4F80090D6F8205702F061
S315080077A01BF96068012102F017F9617B207B002331
S315080077B0042203F02BFB0422617A207A002303F0CB
S315080077C025FB0123484601A98DF81230CDF80C8017
S315080077D0ADF8147003F0F8FC0020627A237A05F0FD
S315080077E0040543EA0243C6F83837627B237B45F033
S315080077F0180543EA0243C6F83437C6F8205709B0D5
S31508007800BDE8F083C0520C0800C003504022024B6A
S31508007810C3F8A020704700BF00F0035013B5044614
S3150800782009F040FD00230122247BCDE900326400E3
S31508007830B0FBF4F1024A03487CF02FFF02B010BDFA
S315080078400D7800081C400120F7B54FF48076104CDF
S31508007850054604F58053C3F8A060407B09F04AFF4B
S3150800786004230C4F02220DF106013846ADF8063006
S315080078707AF0CEFA38467AF0DCFAA87B09F03AFFB5
S31508007880002004F50054C4F8A06003B0F0BD00BFA2
S3150800789000C003500412002070B506463546012183
S315080078A03A2002F099F8B16800220F48FFF762FF04
S315080078B00E4C002304220821022003F0A7FA002315
S315080078C004220621022003F0A1FA0FCD0FC40122DB
S315080078D02B6830462360064B1A70FFF79FFF304629
S315080078E0FFF7B2FF002070BD041200203C400120C3
S315080078F0A0FD01202DE9F74F14464FF48072068843
S315080079009846037901345E43254BA4B2C3F8A020F8
S315080079100546407B0F4609F0EDFE230243F00103BE
S31508007920022220480DF10601ADF806304FF0000995
S315080079307AF06EFA01342402DFF868B0F610A4B2C1
S3150800794008F1FF3AC14511D116487AF072FAA87BB8
S3150800795009F0D0FE4FF48072134B1248C3F8A020EA
S315080079607AF06CFA002003B0BDE8F08F394632464B
S3150800797058467AF04DFACA450CBF4FF6FF7344F0E5
S31508007980FF03022258460DF1060104F58074ADF88E
S31508007990063037447AF03CFA09F10109A4B2D1E776
S315080079A000D003500412002000E00350034B0448A3
S315080079B01B78002B08BF0020704700BFA0FD0120E0
S315080079C03C40012030B5064D87B001AC0FCD0FC441
S315080079D02B6801A82360FFF75FFF07B030BD00BF23
S315080079E0DC520C082DE9F043434D89B001AC0FCDAC
S315080079F00FC495E80700012584E8070001213A200D
S31508007A0001F0EAFF3D4F0121292001F0E5FF3C4B3B
S31508007A10384601A903938DF8125003F0D5FB2B467F
S31508007A2029460422022003F0F1F902212A460846D3
S31508007A30002303F0EBF92B4604220321022003F06E
S31508007A40E5F904222B461146022003F0DFF92D4CF6
S31508007A502D4B1026C4F834374FF00213C4F83037CC
S31508007A60A3F58033C4F838371C2304F50059C4F845
S31508007A7020374FF4487009F03DFE04F5805814206D
S31508007A80C9F8A06009F036FE2320C8F8A06009F0FE
S31508007A9031FEB9213846C9F8A0607AF0D5FD002331
S31508007AA029461A460220C8F8A06003F0AFF9002359
S31508007AB002211A46084603F0A9F92B46002203219B
S31508007AC0022003F0A3F92B4600220421022003F02A
S31508007AD09DF9384603F056FB00212920C4F83417CF
S31508007AE0C4F83017C4F83817C4F8201701F074FF23
S31508007AF009B0BDE8F08300BFF0520C0800C005507D
S31508007B0000127A0000C0035002000300BFF34F8F33
S31508007B100549064BCA6802F4E0621343CB60BFF31B
S31508007B204F8F00BFFDE700BF00ED00E00400FA0537
S31508007B304FF000639A6A02F17841B1F5C04F03D25B
S31508007B401168074A914203D0002303708360704787
S31508007B50012202709A6A926842609B6A9B69F5E7FD
S31508007B6007B0CD5E08B54FF00053024A1A60FFF71A
S31508007B70CDFF00BF02020FF073B54F4B04461A78CB
S31508007B801AB102221A7002B070BDCDE9002200288F
S31508007B90F9D001261E707AF065FC484D484B1860EE
S31508007BA076F016FC2B785BB900F0A4FE40B9454880
S31508007BB00823454A454900686FF090FF00B92E70C2
S31508007BC0434B5A6E62619B6E424AA3614FF48043EF
S31508007BD09366414B5968E16140499960196E216085
S31508007BE0596E6160D3F87011A160196CE160596C27
S31508007BF021613B49086C1864496C59640121516636
S31508007C001B6E9C0441D5374AD368D807FCD4364B3B
S31508007C101A68531C3ED04FF480139340334A1366B8
S31508007C204FF400730426314C266623667AF069F908
S31508007C3001300DD07AF065F940F20113984207D069
S31508007C404FF4005323664FF480432366C4F87061EB
S31508007C500823264C684623664FF4805323664FF064
S31508007C60006323664FF4002301A963667AF0F0F8EF
S31508007C70009B2366019B63662B78002B83D0124BEF
S31508007C801A6822665B6863667DE7194AD368D9076E
S31508007C90FCD4BCE7174B1B78002BC1D14FF40072FC
S31508007CA00C4B5A6603F5A6235B68002BB8D14FF434
S31508007CB080120E4B1A66B3E7A3FD0120A1FD012031
S31508007CC07840012028120020704001200071080029
S31508007CD000800050009000500080004455CEAC0053
S31508007CE000C0005400000440141200200090004414
S31508007CF000000450A2FD012070B5224D04462E78DE
S31508007D00012E02D001232B7070BD0028FCD07AF01A
S31508007D10F8F801300BD07AF0F4F840F201139842E3
S31508007D2005D0194B194A5E66D368DE07FCD422686B
S31508007D30174B1A6662685A66A268C3F87021E26829
S31508007D401A6422695A64E269D00744BF00229A601D
S31508007D50104B1A68013207D10F4A127822B90F4917
S31508007D604968C90748BF1A6062690D4B5A66A26915
S31508007D709A6676F035FB0B4B18687AF079FB002388
S31508007D80C1E700BFA3FD01200090004000000440A9
S31508007D900080004414120020A2FD012000C00550F6
S31508007DA0008000507840012070B54FF00064A36A47
S31508007DB003F17842B2F5C04F21D21A68124B9A42A3
S31508007DC01DD1124E337813F0FD0F1BD11048FFF763
S31508007DD0D3FE01254FF480330E4A0F49C2F880516D
S31508007DE0CB6015600D4A1361A36ADB6998470446A0
S31508007DF00748FFF781FF04B93570204670BD4FF478
S31508007E008174FAE70024F8E707B0CD5EA2FD0120E9
S31508007E105040012000E100E000A00044009000442A
S31508007E2013B51F4B1B7803B9FEE700231D4CCDE99C
S31508007E3000336A4608231C4920686FF04FFEF0B9E4
S31508007E401A4AD2F84031D2F840211F2B4FF00103CD
S31508007E5010D9203A9340019A1343019308236A469E
S31508007E60114920686FF0F0FD4FF00053104A1A6070
S31508007E70FFF74CFE9340009A13430093EEE70D4B31
S31508007E809842F1D1094AD2F84031D2F840211F2B45
S31508007E904FF0010302D9203A9340DEE79340ECE71E
S31508007EA0A3FD01202812002000710800008000446C
S31508007EB00B020FF00BE000F038B54FF00065AB6A27
S31508007EC0044603F17842B2F5C04F12D21B6B03F198
S31508007ED07843B3F5C04F0CD20648FFF74DFEAB6AA0
S31508007EE020461B6B5B689847BDE838400148FFF79A
S31508007EF003BF38BD7C40012013B54FF000640190E4
S31508007F00A36A03F17842B2F5C04F15D21B6B03F191
S31508007F107843B3F5C04F0FD20948FFF72DFEA36A81
S31508007F2001211B6B01A89B69984704460448FFF783
S31508007F30E3FE204602B010BD4FF48174F9E700BF96
S31508007F407C40012037B54FF00065CDE90021AB6ACA
S31508007F50044603F17840B0F5C04F12D21B6B83B1CB
S31508007F600948FFF709FEDDE90021AB6A20461B6BCD
S31508007F705B6A984704460448FFF7BEFE204603B0EE
S31508007F8030BD4FF40174F9E77C40012037B54FF056
S31508007F9000650191AB6A044603F17842B2F5C04F19
S31508007FA015D21B6B03F17843B3F5C04F0FD20948BE
S31508007FB0FFF7E2FDAB6A20461B6B01999B6A98475F
S31508007FC004460448FFF798FE204603B030BD4FF438
S31508007FD00174F9E77C40012037B54FF00065CDE91B
S31508007FE00021AB6A044603F17840B0F5C04F16D2BB
S31508007FF01B6B03F17843B3F5C04F10D20948FFF75E
S31508008000BBFDDDE90021AB6A20461B6B9B6B9847DD
S3150800801004460448FFF770FE204603B030BD40F220
S315080080200114F9E77C40012037B54FF0006501914E
S31508008030AB6A044603F17842B2F5C04F15D21B6B02
S3150800804003F17843B3F5C04F0FD20948FFF794FD03
S31508008050AB6A20461B6B0199DB6B984704460448BC
S31508008060FFF74AFE204603B030BD40F20114F9E797
S315080080707C40012008B500F02DF8124B12498B42BE
S3150800808012D30020114B12498B4218D3FFF738FB45
S31508008090186850F82240586840F82240013298681B
S315080080A08242F5D30C33EAE70022F8E71C6844F865
S315080080B0220001325C68A242F8D30833E4E70022C2
S315080080C0F8E700BF185B0E08245B0E08245B0E0851
S315080080D0245B0E084FF480414FF0FF3010B5114B6A
S315080080E0114A9A60D3F8882042F47002C3F88820AF
S315080080F00E4A91660E4901F5005210660D48506603
S315080081000220C3F8D000BFF34F8FBFF36F8F01244F
S315080081104FF440330848C0F88041D36004600B61CF
S3150800812010BD00BF00ED00E00060000800900050A0
S3150800813000800044F7FF370000E100E0014B1868B3
S31508008140704700BF1C120020014B1860704700BF23
S315080081501C120020084B1B6F03F00703022B04D0E8
S31508008160032B05D0012B05D0FEE7044B1868704792
S31508008170034BFBE703487047008000501C120020A1
S3150800818020120020002D310108B5FFF7E3FF054B4B
S315080081901B6FC3F303330133B0FBF3F0024B1860D4
S315080081A008BD00BF00800050181200200048704724
S315080081B000B4C404014B1868704700BF20120020A1
S315080081C0054B1860054B1B6F03F00703032B01D102
S315080081D0FFF7DABF704700BF20120020008000506A
S315080081E000487047002D31014FF0B4439868C0F33A
S315080081F004400C2822D8DFE800F00921212121219A
S31508008200071719211B1D1F000F4870479B6803F0AD
S315080082104073B3F1807F13D0B3F1007F12D00B4ABD
S31508008220002B08BF10467047094870470948704731
S315080082300948704709487047094870470020704741
S315080082400848704708487047405DC60000093D0069
S315080082500024F400C0EA210180BA8C010048E80134
S31508008260005A620280841E0040420F00014B1868C3
S31508008270704700BF2412002010B40A681378022B36
S3150800828011D014203023147913FB040307481B5814
S315080082905079C340DB4303F00103137008465DF8C9
S315080082A0044B5AF08DBD5DF8044B704730C003503F
S315080082B037B50468012105463A2001F08DFB0023F5
S315080082C001226179207902F0A1FD14223023217957
S315080082D013FB01230E4A9B586279D340DB4303F014
S315080082E001032370A379022B0ED100F089FA2A46DE
S315080082F00849607900F0AEFA0123024661792079CF
S31508008300CDE9003302F02AFD002003B030BD00BFDE
S3150800831030C003507982000802681378022B24D0F3
S3150800832014213023107913FB001310495B58517937
S31508008330CB40917903F00103012912D1508843EA11
S3150800834040034FF6E07063F03F039BB2834202D1CD
S315080083501170538070474FF6DF718B42F9D10021B7
S31508008360F6E711B983F001031370704730C0035064
S3150800837010B5012243780178847830209A40054B5D
S3150800838000FB01331CB903F501531A6010BD03F550
S315080083908253FAE700C0035010B5012243780178EA
S315080083A0847830209A40054B00FB01331CB903F54D
S315080083B082531A6010BD03F50153FAE700C0035053
S315080083C00122437801789A4030235943014B5A5089
S315080083D0704700BF40F00350102130230246007852
S315080083E013FB0013054950785B58C34003F001009E
S315080083F093780BB980F00100704700BF30C0035076
S315080084002DE9F04F9A46554B85B01B7806460F4620
S315080084101546DDF83C909DF844B0DDF85080002BF9
S3150800842000F08C80072A00F28B800E9B002B00F050
S315080084308780B9F1000F00F08380129BB3F5006FB7
S315080084407EDC012802D1109B002B79D0444B03EB2C
S3150800845005131B7B002B75D0424C10220021684661
S31508008460B2F09DFC04EB45141022002F58D1394672
S315080084702046B2F094FC43F210036380BBF1000F70
S3150800848003D1E37843F00303E370364A0E9B02EB0D
S31508008490451CCCE90193129BCDF800A0013BC3F320
S315080084A00A009DF84C30690103F003039B0643EA72
S315080084B0001E53582C48012E00EA03004EEA00031A
S315080084C0535041D113230CF1100ECCF80C309CE814
S315080084D00F008EE80F006FF00301DCF81C20109BDC
S315080084E061F39F02012FCCF81C20CCF8143003D17D
S315080084F0CCF81890CCF804300027194A290102EB69
S31508008500051342F80180159A28465A60694622469C
S315080085109F605E7302F0FAFC384605B0BDE8F08F3E
S3150800852000212046B2F03BFC4FF444736380BBF154
S31508008530000FAAD1E37843F03003A5E70B48ECE730
S315080085400B48EAE70B48E8E7B8F1000FD4D19CF8E6
S31508008550023068F304138CF80230CDE7A4FD01203D
S315080085609C4001201C4101200F80FFF3028000F08F
S31508008570018000F0078000F038B5124B05461B78DD
S31508008580DBB1E0B179F06EFF0F4A00231146147B88
S3150800859054B92B6001251A0101EB03131D738C5086
S315080085A079F066FF204638BD0133082B02F1100228
S315080085B0EDD179F05DFF0548F5E70548F3E705488D
S315080085C0F1E700BFA4FD01209C400120048000F0D3
S315080085D0028000F0018000F0154B13B518680023DF
S315080085E001908DF8043079F03DFF124B1C7824B1C8
S315080085F079F03EFF104802B010BD01221A7079F0DA
S3150800860037FF0E4B01A81C731C7783F82C4083F8A0
S315080086103C4083F84C4083F85C4083F86C4083F810
S315080086207C4008238DF8073002F03EFC2046E2E73E
S315080086305C530C08A4FD0120038000F09C40012037
S3150800864008B50A4A12785AB107280BD8084A02EB25
S3150800865000131B7B43B1002102F018FC002008BD63
S315080086600448FCE70448FAE70448F8E7A4FD0120B3
S315080086709C400120028000F0018000F0078000F095
S3150800868008B50A4A12785AB107280BD8084A02EBE5
S3150800869000131B7B43B1012102F0F8FB002008BD43
S315080086A00448FCE70448FAE70448F8E7A4FD012073
S315080086B09C400120028000F0018000F0078000F055
S315080086C00D4B1B7893B1072812D889B10B4B03EBD6
S315080086D000131B7B73B10A4BDA6A012303FA00F015
S315080086E010401ABF00200B70087070470548704785
S315080086F00548704705487047A4FD01209C400120A5
S3150800870000000450028000F0018000F0078000F0AD
S3150800871010B50B4A0C46127862B107280CD859B125
S31508008720084A02EB00131B7B43B102F037FC2060BA
S31508008730002010BD0448FCE70448FAE70448F8E7B7
S31508008740A4FD01209C400120028000F0018000F079
S31508008750078000F02DE9F843174B1F6D5B6D1F402E
S3150800876000D5FEE701260025144CDFF85480DFF813
S315080087705490374217D0C8F8506023689BB1A16857
S31508008780284601316268A1609847637B012B0AD1AC
S3150800879048B909EB45131A7B60F341021A731A7F2D
S315080087A060F341021A770135082D4FEA460604F1AF
S315080087B01004DED1BDE8F883000004509C40012077
S315080087C0002004501C41012070B5044601250B4EBB
S315080087D004B970BD94FAA4F0B0FA80F005FA00F373
S315080087E006EB001224EA03045368002BF0D0117B31
S315080087F011B191689847EBE79847E9E71C420120D1
S3150800880008B5192001F09AFE28B14FF00072074BFF
S31508008810C3F880211A601A2001F090FE28B14FF0A3
S315080088208062024BC3F880211A6008BD00E100E0AF
S3150800883038B505460C4679F015FE0022044B03EBC5
S3150800884005135C601A73BDE8384079F011BE00BFA5
S315080088501C420120F8B505460F46164679F002FE79
S31508008860104B05F0FC02D3F824140023EC1804F08E
S315080088700304144321FA04FC1CF0010F07D001334A
S31508008880042BF3D1FF2479F0F3FD2046F8BDFF2C25
S31508008890F9D00122044B03EB0413C3E901761A73DA
S315080088A0F1E700BF00C003501C420120074BD3F874
S315080088B02404D3F8202403F50053104000F0553063
S315080088C020F05020C3F82004FFF77EBF00C00350F5
S315080088D0074BD3F82404D3F8202403F5005310409B
S315080088E000F0AA3020F0A020C3F82004FFF76CBFE0
S315080088F000C00350024B1968024B18686EF0CEBFD1
S315080089002C1200202812002037B5920004460D4686
S315080089100192BCF0CDFC431C0BD060B92946204619
S31508008920019AB2F005FA0028044808BF002003B0EF
S3150800893030BD0348FBE70348F9E700BF10E000F045
S3150800894021E000F024E000F010B50446BCF0A8FCD5
S31508008950431C10D088B902F0DBFB234620F0030045
S315080089602044984201D1002010BD53F8042B01324F
S31508008970F7D00348F8E70348F6E70348F4E700BFEB
S315080089800EE000F021E000F024E000F038B141B13B
S31508008990013AB2F5006F044838BF00207047034813
S315080089A070470148704700BF037000F0027000F07E
S315080089B038B504460D4679F055FDA3889BB223B910
S315080089C02B6079F055FD064838BD142263889BB2A2
S315080089D002FB034408342C6079F04AFD0020F3E7D3
S315080089E00B7000F0F8B5044616460F4679F03AFDC6
S315080089F0A388E2889BB29A42054605D800233360CD
S31508008A0079F036FD1748F8BD1422238807F1100CB3
S31508008A109BB202FB03433A460833174603CF674522
S31508008A20186059603A4603F10803F6D114223868EB
S31508008A301860238828469BB202FB03430833336039
S31508008A402388E2889BB20133B3FBF2F102FB1133B0
S31508008A509BB22380A38801339BB2A38079F008FDDB
S31508008A600020D0E70A7000F090F83530022B0DD1BF
S31508008A7014223023417F90F8210013FB0123044A76
S31508008A809B5823FA00F000F0010070470020704759
S31508008A9030C00350002313B51D4A52F8044B94F80E
S31508008AA0211081420ED00133042BF6D102B010BD3D
S31508008AB00028FBD19DF80730002BF7D0A068FFF7F8
S31508008AC0BFFDF3E794F83530022BEFD12046FFF7C8
S31508008AD0CBFF637E2076022BE8D194F8323003F080
S31508008AE0FF02002BE2D1A0680DF107018DF80720DF
S31508008AF0FFF7E6FD237E1BB194F83330002BD7D061
S31508008B000023A06884F83330FFF7BAFDCEE700BF2C
S31508008B100C4B012030B51049104A0B782BB9C2E925
S31508008B200033C2E9023301230B700C4C00232146A3
S31508008B3051F8045B854208D00133042BF8D1002193
S31508008B4054F8043B1BB942F82100002003E0013128
S31508008B500429F5D1024830BDA5FD01200C4B0120A2
S31508008B60027000F010B50446FFF736FD002104F147
S31508008B700800FFF701FD014620B904F10C00FFF7D4
S31508008B80FBFC00B1004810BD0E7000F090F83630BE
S31508008B9053B9042103790A4A03F239135B01D15008
S31508008BA0022203685A617047022B07D10068816C5C
S31508008BB011F0020118BF062179F09DBC704700BF6D
S31508008BC000C0035090F836306BB9012203685A6129
S31508008BD002689369D907FCD504210379074AB93392
S31508008BE05B01D1507047022B07D10068836C9B0745
S31508008BF04CBF0521092179F07EBC704700C003509F
S31508008C0010B590F8363004466BB9042203685A61E9
S31508008C10026893699907FCD523790C4AB9335B0135
S31508008C201021995010BD022BFCD10068836CDB071C
S31508008C304CBF0521062179F05EFC237941F2944266
S31508008C405B0103F1A04303F57033E9E700C0035065
S31508008C501FB50B460A6891F83610184602290CBF4C
S31508008C60926C9269920604D505B05DF804EB79F02A
S31508008C702CBB039379F012FB0022039B0146CDE936
S31508008C80002203F13C00034A7BF023FD05B05DF8A2
S31508008C9004FB00BF518C0008012370B580F8303002
S31508008CA090F8363004460E4686B0A3B905682435D2
S31508008CB0204679F024FB0D4B326803930023029378
S31508008CC07368616901930123E068009304942B4655
S31508008CD079F025FA07E0022B02D105683C35E7E76B
S31508008CE0002380F8303006B070BD00BF2D90000814
S31508008CF001232DE9F04180F8313090F836300446EA
S31508008D000E4688B05BBB05683C3579F0ABFB04F1D1
S31508008D103C0807460DF11F01404608F047FA40B9DE
S31508008D209DF81F302BB1404608F018FA204679F016
S31508008D30CCFA384679F09CFB204679F0E0FA0D4BE0
S31508008D402A4603930023029373682169019301233A
S31508008D50A06800930494336879F0C7F907E0022BFA
S31508008D6002D105684435D0E7002380F8313008B0D1
S31508008D70BDE8F081798D0008F0B585B0D06A03A901
S31508008D801446FFF715FE0646204679F087FA0025B1
S31508008D9001462346CDE90055164A04F13C007BF00E
S31508008DA098FC154B9E421FD0039B1D619D6079F070
S31508008DB059FB039A0646D76827B1D2E90023294604
S31508008DC02046B847E06A03A979F0B2FAE06A8388D0
S31508008DD09BB263B103A9FFF7EBFD20460399FFF7A2
S31508008DE087FF304679F044FB012005B0F0BD84F8D2
S31508008DF03130F6E7518C00080B7000F0F8B50746DD
S31508008E000D461646FFF7C2FD00286BD1152001F066
S31508008E10A3FB0446FA6A93889BB213B197F83230DB
S31508008E20E3B197F83630F3B93B689C6904F002045D
S31508008E301CB93846FFF7E4FE0024012387F83430CE
S31508008E4097F83630CBB92E44B542386810D18369C5
S31508008E509A06FCD51CB300242046F8BD002CDAD0AF
S31508008E60FFF778FCD6E7022BE3D13B689C6CDDE77D
S31508008E7015F8011B79F0F2FBE6E7022BEAD12E443E
S31508008E80B542386806D142F22003826C33EA020200
S31508008E90FBD1DFE715F8011B79F032FBF0E797F80D
S31508008EA0363053B910213B790F4A03F239135B0167
S31508008EB0D15008223B685A61CEE7022BCCD13868DC
S31508008EC0836CDB074CBF0921214679F014FB42F27B
S31508008ED0944210213B795B0103F1A04303F57033FB
S31508008EE09950B9E70446B7E700C0035010B50446E1
S31508008EF080B190F832302BB9FFF7B6FD10B9A068EB
S31508008F00FFF79EFB002094F832300133DBB284F879
S31508008F10323010BD0048FCE7027000F010B5044678
S31508008F20A0B190F832309BB190F83230012B05D1C0
S31508008F30FFF79AFD10B9A068FFF7A2FB002094F886
S31508008F403230013BDBB284F8323010BD0148FCE711
S31508008F500148FAE7027000F0057000F037B590F89E
S31508008F6035500446022D1DD1012290F82230457E47
S31508008F70817F9A403020164B25B900FB013303F553
S31508008F80015305E0012D07D100FB013303F5825398
S31508008F901A60002003B030BD247E00FB0133002C8C
S31508008FA0F4D1ECE7012DF4D1037E73B911238DF8C2
S31508008FB00730FFF79BFF2A4620460DF10701FFF70A
S31508008FC01DFF2046FFF7AAFFE3E71323EFE700BFDD
S31508008FD000C00350F0B587B005461646FFF7D6FC25
S31508008FE00446F0B90493104BCDE901166A46A86AFF
S31508008FF001A903960593FFF7F5FC044688B995F889
S31508009000303073B92846FFF7DDFD28460099FFF78B
S3150800901043FE95F83530032B03D028462C76FFF708
S315080090209DFF204607B0F0BD017000F073B5906A49
S3150800903001A91446FFF7BCFC0546204679F045F918
S315080090403A4B9D4232D094F83610019B00293CD108
S315080090502068826C12F400722BD0354A99601A6126
S315080090604FF40072236803F500539A6479F0FAF90D
S3150800907001990646CD6835B14A688B682046D31AE9
S315080090800A680969A847A06A01A979F051F9A06A8E
S315080090908588ADB2002D3AD001A9FFF789FC204694
S315080090A00199FFF7F9FD304679F0E2F9012002B09F
S315080090B070BD816CC80526D51E499A60196123685A
S315080090C04FF4807203F50053CFE702291BD12168BC
S315080090D0CA6C12F400720AD0154A1A6100229A6004
S315080090E04FF40072236803F50053DA64BEE7C96CCF
S315080090F0C90508D50F499A60196123684FF480722B
S3150800910003F50053F1E700221A619A60AEE70123DE
S3150800911020462376FFF722FF94F8353084F830503E
S31508009120032BC0D02046FFF731FDBCE70B7000F0DB
S315080091300D7000F00C7000F02DE9F04104468CB07B
S31508009140884F04AE0D460FCF0FC697E80F0086E886
S315080091500F00102200216846B1F021FE002C00F015
S31508009160FE8025B9804E30460CB0BDE8F0816022FD
S3150800917000212046B1F013FE2B6820462360022307
S3150800918084F836302B7C2371FFF7C4FC064600288A
S31508009190E9D12B7F754A84F835302B68934240F025
S315080091A0B88056236362724B23614FF47023636160
S315080091B00123ADF80630002384F8316084F8306066
S315080091C0D5E90912A1620B80A16A3A204B80A16AEF
S315080091D0684E8B8084F83030E2621380E26A01219F
S315080091E05380E26A938084F8313084F8333002235E
S315080091F08DF81D30AB6806936B8AADF82030AB8AC4
S31508009200ADF81E30AB7D8DF81C30AB690993CDF8EF
S315080092102CD000F0E1FB0121606A00F0DDFB2B7920
S31508009220002B00F081800121362000F0D5FBD6F80E
S31508009230203223F0070343F003031022C6F8203236
S315080092402B7C4D4F204607EB4313C3F89424A97B88
S315080092502B7C2A7B07EB431342EA0142C3F8AC2472
S315080092602B7CE97B6A7B253342EA014207EB4313F1
S315080092705A602B7B0121E376AB7BE3776B7B237705
S31508009280EB7B84F820306B7F6377AB7F84F82130E3
S31508009290EB7FA37795F8203084F8223078F08EFF9C
S315080092A0064600287FF45FAF79F0DCF82A7F80460F
S315080092B0032A40D141F2944102202B7C07EB431349
S315080092C058502B7C95F82000E97F07EB431341EAB9
S315080092D0004103F5A5531960297CA87F07EB4117C0
S315080092E041F29C416B7F43EA00437B508DF8002096
S315080092F006238DF810302B79286804A963B379F012
S3150800930008F92046FFF72EFC0646404679F0B0F8E5
S3150800931029E71A4A93427FF425AF57236362184B0D
S3150800932023614FF4801342E7D6F8203223F007036F
S3150800933043F0010381E7022ADAD194F821001149A2
S31508009340FFF776FAFFF75CFA4FF40073204623839B
S31508009350A676FFF703FECBE779F0D7F8D1E70A4EF2
S3150800936001E700BFA0530C08037000F00000015B82
S3150800937001000F000080005000C0035000000A5092
S3150800938001001000958A0008027000F0F0B587B059
S3150800939004461646FFF7FAFA054658BB0493194BD6
S315080093A0CDE90116059394F8363003962BBB23684E
S315080093B09B6903F0020313B92046FFF721FC6A46AE
S315080093C0E06A01A9FFF70EFB054698B994F8313013
S315080093D083B979F047F8E36A06469B889BB233B1AE
S315080093E020460099FFF784FC012384F83430304680
S315080093F079F03EF8284607B0F0BD022BDCD1236889
S315080094009B6CD6E7017000F0044BD3F88420D20693
S31508009410FBD4D3F88400C0F3811070470040005095
S315080094202E4B98424AD022D82D4B984240D014D879
S315080094302C4B984239D00AD82B4B984232D02B4B1A
S3150800944098422FD02A4B98422CD000207047294B9F
S315080094509842FAD1284B186F7047284B98422AD061
S31508009460274B9842F1D1244BD3F880007047254BFF
S3150800947098422BD009D8244B984223D0234B9842A4
S31508009480E3D11D4BD3F88C007047214B984221D06D
S3150800949003F5740303F510539842D6D1164BD3F847
S315080094A098007047144B986D7047134B586E704769
S315080094B0114B586F7047104B986F70470E4BD3F887
S315080094C0840070470C4BD3F8880070470A4BD3F8D2
S315080094D090007047084BD3F8940070470048E8019D
S315080094E00024F400C0CF6A0080841E0000093D00F5
S315080094F040420F00405DC6000080E00FC0EA21012F
S3150800950080BA8C01007E560380D54302006CDC02CB
S315080095100090D00338B5104B0546D3F880300C467A
S3150800952003F00303022B0BD0032B0DD0012B0FD115
S31508009530FEF710FE0E2305B1286004B1236038BD7E
S31508009540FEF752FE0723F6E7FEF7F8FD0623F2E7D5
S3150800955000231846EFE700BF0080005038B5184BC7
S315080095600546D3F820010C4600F00700062805D862
S31508009570DFE800F0230B0F17131B1F000023184604
S3150800958005B1286004B1236038BDFEF7D7FD052371
S31508009590F6E7FEF70FFE0323F2E7FEF725FE07239D
S315080095A0EEE7FEF71DFE0223EAE7FEF7C7FD0623F0
S315080095B0E6E7FEF7FFFD0423E2E70123E0E700BF45
S315080095C00080005038B5174B0546D3F828310C46AD
S315080095D003F00703013B052B20D8DFE803F003134C
S315080095E01B0F0B17FEF7AAFD052305B1286004B16A
S315080095F0236038BDFEF7A2FD0623F6E7FEF7F4FD65
S315080096000723F2E7FEF7D6FD0323EEE7FEF7D2FDC2
S315080096100423EAE7FEF7E4FD0223E6E700231846FB
S31508009620E3E700BF0080005073B50D460021114BDB
S315080096300191D3F88041064604F00304022C13D0A6
S31508009640032C0CD0012C13D101A8FFF787FF102497
S315080096500EB1019B336005B12C6002B070BDFEF7F8
S31508009660C3FD07240190F3E7FEF7BAFD0190EFE783
S315080096700C46EDE700800050002337B50193164BE2
S315080096800546D3F820320C4603F00703042B04D80A
S31508009690DFE803F0200B11161B0000230DB1019A19
S315080096A02A6004B1236003B030BD002101A8FFF78A
S315080096B089FF1223F2E7FEF797FD07230190EDE7EE
S315080096C078F0BFFC0A230190E8E7FEF7CFFD0923EF
S315080096D00190E3E70123E1E70080005038B5104B1D
S315080096E00546D3F840310C4603F00303022B0BD092
S315080096F0032B0DD0012B0FD178F0A3FC0A2305B15B
S31508009700286004B1236038BDFEF7B0FD0923F6E7EB
S3150800971078F09AFC0C23F2E701230020EFE700BF5C
S3150800972000800050002337B50193164B0546D3F841
S3150800973060320C4603F00703013B032B1FD8DFE812
S3150800974003F0020E1914002101A8FFF707FF1023E2
S315080097500DB1019A2A6004B1236003B030BD00211F
S3150800976001A8FFF7BBFF1123F2E7FEF73DFD07232C
S315080097700190EDE7FEF734FD02230190E8E70023A8
S31508009780E6E700BF00800050002337B50193164B6B
S315080097900546D3F894320C4603F00703013B032B26
S315080097A01FD8DFE803F0020E1914002101A8FFF7FD
S315080097B0D5FE10230DB1019A2A6004B1236003B0C7
S315080097C030BD002101A8FFF789FF1123F2E7FEF754
S315080097D00BFD07230190EDE7FEF702FD022301903A
S315080097E0E8E70023E6E700BF0080005038B5144BD1
S315080097F00546D3F800020C4600F00700042804D8F2
S31508009800DFE800F01B0A0E1216000023184605B101
S31508009810286004B1236038BD78F013FC0A23F6E704
S31508009820FEF724FD0923F2E778F00EFC0C23EEE799
S31508009830FEF7AAFC0F23800AE9E70123E7E700BF42
S315080098400080005038B5144B0546D3F808020C467C
S3150800985000F00700042804D8DFE800F01B0A0E12FF
S3150800986016000023184605B1286004B1236038BDE8
S3150800987078F0E7FB0A23F6E7FEF7F8FC0923F2E798
S3150800988078F0E2FB0C23EEE7FEF77EFC0F23800A56
S31508009890E9E70123E7E700BF0080005038B5104B21
S315080098A00546D3F840320C4603F00303022B0BD0CF
S315080098B0032B0DD0012B0FD178F0C3FB0A2305B17A
S315080098C0286004B1236038BDFEF7D0FC0923F6E70B
S315080098D078F0BAFB0C23F2E701230020EFE700BF7C
S315080098E00080005038B5104B0546D3F860310C4659
S315080098F003F00303022B0BD0032B0DD0012B0FD142
S3150800990078F09FFB0A2305B1286004B1236038BDAF
S31508009910FEF7ACFC0923F6E778F096FB0C23F2E792
S3150800992001230020EFE700BF00800050B0F5207F3C
S315080099301FD009D8B0F5007F15D003D868B1B0F5A7
S31508009940C07F0AD000200CE0B0F5607FFAD10B4B3F
S31508009950D3F88000C0F3011003E0084B186FC0F37A
S31508009960033001307047054BD3F89000C0F304600C
S31508009970F7E7024B186FC0F38020F2E7008000502B
S3150800998002464FF48030104B10B598660020FFF75A
S31508009990CDFF504341F671320C4BDC69DA635A68E5
S315080099A004F4803422F4401259B9094988428CBF1C
S315080099B04FF480100020104358600CB10022DA637F
S315080099C010BD0449F2E700BF0090005000000350A4
S315080099D0005A6202002D3101430905D0012B0DD032
S315080099E0022B094B18BF002300F01F0041B103F5F5
S315080099F08053012202FA00F018607047034BF3E720
S31508009A0003F50053F5E700BF6880005064800050F6
S31508009A101FB5002180280446CDE9001100F0A58075
S31508009A2035D85E2846D85E2844D8DFE800F0A24339
S31508009A3043434343434343434343434343434343E8
S31508009A404343434343434343434343434343A2AA12
S31508009A50A2AAB9B9B9B9B9AAC34DD9714DAAAAAAC0
S31508009A604343434343434343AAAAAA79E3AA434346
S31508009A704343434343434343434343B9A2A2A2DE7A
S31508009A804D4DE8885EBE434343434399A200B0F573
S31508009A90B06F00F08F802DD8B0F5207F71D00CD82C
S31508009AA0B0F5C07F65D0B0F5007F65D0B0F5807F92
S31508009AB000F08580009804B010BDB0F5607F6AD0CC
S31508009AC00DD8B0F5407FF5D1FEF75EFB02464FF4A0
S31508009AD02070FFF72BFFB2FBF0F0400847E0B0F527
S31508009AE0806F5DD0B0F5A06FE4D100216846FFF71E
S31508009AF0C3FDDFE7B0F5106F77D016D8B0F5E06F85
S31508009B0078D00AD8B0F5C06F6AD0B0F5D06FD1D189
S31508009B1000216846FFF76AFECCE7B0F5F06FC9D1B9
S31508009B2000216846FFF7DEFEC4E7B0F5406F3CD07B
S31508009B3013D8B0F5206F62D0B0F5286FBAD10021DE
S31508009B40314B0391D3F8703203F00303012B02D192
S31508009B5003A8FFF7C3FD039B3BE0B0F5486FA9D107
S31508009B6000216846FFF710FEA4E7FEF7F3FA009017
S31508009B70A0E7FEF709FBFAE7FEF7ECFA02462046ED
S31508009B8004E0FEF701FB02464FF42070FFF7CEFE15
S31508009B90B2FBF0F0EBE701A8FFF7BCFC019AEEE791
S31508009BA000216846FFF7DAFC84E700216846FFF7DC
S31508009BB009FD7FE700216846FFF736FD7AE74FF093
S31508009BC0E02302911B695B0705D5FEF7DDFA0290D3
S31508009BD0029B00936EE703A902A8FFF77FFDF7E74C
S31508009BE000216846FFF77AFD64E700216846FFF71B
S31508009BF029FE5FE700216846FFF750FE5AE7002175
S31508009C006846FFF78FFD55E70080005008B58020AD
S31508009C10FFF7FEFE034B98429EBF4FF48032024B7D
S31508009C201A6708BD005A620200A000501FB500233B
S31508009C30B0F5807F019300F0C38064D85D2855D8BD
S31508009C404C2807D82D2847D823282BD8019805B0A3
S31508009C505DF804FB4D381028F8D801A353F820F016
S31508009C60B79D00084D9C00084D9C00084D9C0008B7
S31508009C70699D00084D9C00084D9C00083D9E000803
S31508009C80879D00082D9D0008339E00084D9C0008FE
S31508009C904D9C00084D9C00084D9C00084D9C0008F2
S31508009CA0479E000824380928D0D801A353F820F085
S31508009CB0B79D0008B79D0008B79D0008B79D000826
S31508009CC0B79D00084D9C0008AD9D00084D9C0008F6
S31508009CD0499D0008ED9D00083D2800F082803E2839
S31508009CE0B4D1002001A9FFF7D9FDAFE78028ADD18F
S31508009CF05A4B1B6F03F00703013B032BA6D8DFE87B
S31508009D0003F05350878FB0F5F06F6AD021D8B0F5BD
S31508009D10B06F4BD00FD8B0F5607F00F0858095D333
S31508009D20B0F5806F47D0B0F5A06F8FD1002001A99C
S31508009D30FFF7A2FC8AE7B0F5D06F57D0B0F5E06F11
S31508009D40CFD0B0F5C06F81D1002001A9FFF7C6FCBE
S31508009D507CE7B0F5206F71D00BD8B0F5086F4AD004
S31508009D60B0F5106F7FF472AF002001A9FFF76AFD06
S31508009D706CE7B0F5406F5CD0B0F5486F63D0B0F5CE
S31508009D80286F7FF463AF0021344B0391D3F8703208
S31508009D9003F00303012B5BD0022B14BF0B461523DC
S31508009DA000E00523019351E70223FBE7002001A900
S31508009DB0FFF73AFC4AE7002001A9FFF7CFFB45E782
S31508009DC002934FF0E0231B695B0705D5FEF7DCF924
S31508009DD00D230393039BE5E703A902A8FFF77EFC7F
S31508009DE0F8E7002001A9FFF77DFD2FE7002001A96C
S31508009DF0FFF7FCFC2AE7194BD3F8003103F00303FD
S31508009E00022B07D0032B09D0012B0BD1FEF7D2F971
S31508009E100323C7E7FEF72AFA0923C3E778F00FF901
S31508009E200823BFE70123BDE7184601A9FFF772FB20
S31508009E300CE7002001A9FFF7C5FB07E7002001A9E9
S31508009E40FFF770FC02E7002001A9FFF79DFCFDE67D
S31508009E5003A8FFF743FC1123A4E700BF00800050C6
S31508009E6008B5FFF7E3FE092811D00A38012811D8EA
S31508009E704FF48002094B4FF6FF705A6603F5D83344
S31508009E805B6A13F0010F18BF4FF4FA7008BD044B54
S31508009E901888FBE74FF6FF70F8E700BF0090005000
S31508009EA00217002038B504468020FFF7BFFE0328B6
S31508009EB000F08A804FF48012544B4FF0A0615A6626
S31508009EC045F60E03524AC2F88030524B99624FF457
S31508009ED0803103F580539962936DD903FCD4916D53
S31508009EE011F08041FBD1D4E900031B0543EA006366
S31508009EF0E07B0343207B43EA0043607B43EA00336D
S31508009F00A07B43EA801313619069D4E904531B06C6
S31508009F1043EA856300F000400343A07E0343207EA6
S31508009F2043EA0043607E43EA00239361136AE269C9
S31508009F30E57E002A0CBF0020082023F00F031343F8
S31508009F4043EA8503324A03431362E369324D002B21
S31508009F503BD194F82430916A94F82000DB000D4038
S31508009F6043EA401394F821102B4343EA011343F4C0
S31508009F7080339362294B916D33EA0101FBD14FF08F
S31508009F808071244881621369A56823F4700343EA43
S31508009F90055313614FF00043836194F822300BB9DF
S31508009FA01F4B996294F823303BB94FF480321C4B0F
S31508009FB09A62174A936D5B00FCD494F825301BB15E
S31508009FC0134B184AC3F8802038BD022B08D11161FB
S31508009FD0154891614FF408524FF47F4178F002FA20
S31508009FE00B4994F822308A6A94F820001B0615401B
S31508009FF043EA401394F824202B4343EAC20394F817
S3150800A000232043EA02438B62D7E700BF0090005043
S3150800A0100040005A0050005AC7FFFEFE0300010028
S3150800A0200060005AF1A7FFFF3440005A37B5194CB3
S3150800A030A26AA36D13F4803F18BF4FF48031164B04
S3150800A04018BF99624FF080719962144BA56993F90C
S3150800A050003025F47F050344000280B225F47F45CD
S3150800A06083F30803284340EA0340A0610C480192A1
S3150800A07078F0B8F9A36D019A13F4803F07D04FF42E
S3150800A0808031074803B0BDE8304078F0ABB903B07B
S3150800A09030BD00BF0040005A0050005A5E1900202B
S3150800A0A02840005A014B93F9000070475E190020BA
S3150800A0B04FF480300E490F4B8A6A9862886D00F01B
S3150800A0C003000328FAD14FF080709862896D012148
S3150800A0D01965074B996D8907FCD4996D8807FCD5D6
S3150800A0E0996D8907FCD50449044878F07BB900BF07
S3150800A0F00040005A0050005A000001012840005A4A
S3150800A1004FF400011B4A437810B551664FF4D151FC
S3150800A110022402F5B832516217494F2B4C604FF0B2
S3150800A120010428BF4F2301F580514C601169C9030A
S3150800A130FCD4017843EA01235361D0E901131B01DA
S3150800A14043EA0123417B0B43017B43EA41039360C6
S3150800A150C37B817B1B0143EA4113417C0B43017C92
S3150800A16043EA41035360837C13B16FF4D1535362BE
S3150800A17010BD00BF0090005000100250014B18801F
S3150800A180704700BF02170020014B1880704700BFB8
S3150800A190001700204FF4800208B5184B5A660223B0
S3150800A1A0174A5360936813F48033FBD1012822D1F0
S3150800A1B0FEF700F8134B984215D003F5122303F562
S3150800A1C0F863984213D0104B00EB8002400AB3FBA9
S3150800A1D0F0F0520A0A4BDA62012218635A62002228
S3150800A1E0074B5A6008BD45F67A10084AF2E745F665
S3150800A1F01A00074AEEE75362F1E700BF00900050E5
S3150800A2000040025000F0490264666666D8B8050048
S3150800A210BBCF0500B0F5207F10B50C4657D008D83F
S3150800A220B0F5007F48D003D830B3B0F5C07F23D04F
S3150800A23010BDB0F5607FFBD129492A48D1F8FC202A
S3150800A24012F080721EBFD1F8FC3023F08073C1F87B
S3150800A250FC30D0F88030611E23F0300444EA011443
S3150800A260C0F88040002AE3D01D4AD2F8FC3043F0FB
S3150800A2708073C2F8FC30DBE778F0C5F878F0D1F8DF
S3150800A2804FF48031184B174A1967136F611E23F470
S3150800A290704444EA01341467FDF776FF0446FFF775
S3150800A2A0B3F8C0F10201204678F0B5F800F02EF8B0
S3150800A2B0BDE81040FFF7AABC0A4A0139D2F8903027
S3150800A2C023F0F85444EA0164C2F89040B0E7054B1D
S3150800A2D0013C196F21F4806141EA84241C67A7E7D1
S3150800A2E000ED00E0008000500090005008B5012104
S3150800A2F0022000F0A5F978F086F878F092F84FF485
S3150800A3008032014B1A6708BD0090005008B54FF41B
S3150800A310C070FFF77DFBBDE80840044988428CBF42
S3150800A320022101214FF42070FFF774BF80F0FA0272
S3150800A3304FF4C02201212DE9F04105466A4B5A66C1
S3150800A3406A4A03F598335C6851605E6816F002063F
S3150800A350FBD1FFF759F80128286805D1644B9842C4
S3150800A36002D90020BDE8F081624A00231146176829
S3150800A370B84202D35768B84205D90133192B02F1FE
S3150800A3801002F4D1002301EB0313D3E9028028B1AC
S3150800A390FFF746F800F07F0048EA00088020FFF73C
S3150800A3A045FC05285FD178F02EF878F03AF84FF496
S3150800A3B080324D4B4FF4C0701A67FFF7B7FA012881
S3150800A3C006464CD102214FF4C070FFF723FF012740
S3150800A3D04948C16811F00601FBD1D0F808C0C0F899
S3150800A3E00880836808F4F81203F4F8139A424ED1E9
S3150800A3F0AA88EB8843EA0243404AD360AB68032B3A
S3150800A40033D1A2F5A032D2F8003123F0030343F08A
S3150800A4100103C2F800312B7D287B002B6B7D14BF0E
S3150800A42004220022002B18BF40212B694FF0000898
S3150800A43043EA40031343314A0B4393602868FDF708
S3150800A44083FE0722294B1A610122A3F580535A601D
S3150800A450A3F580531C6914F00704FBD01EE00228FC
S3150800A46001D10421AFE70027B2E7092B07D1244A17
S3150800A470D2F8003123F0030343F00203C9E7082B9F
S3150800A480C9D11F4AD2F8003143F00303C1E714F0DB
S3150800A49001044FF00108C0F808C0D2D18020FFF7A8
S3150800A4A0C5FB052817D127B131464FF4C070FFF711
S3150800A4B0B1FEFDF769FE0546FDF740FEFDF73EFED7
S3150800A4C0FEF7A2FFC0F10201284677F0A4FFFFF7C6
S3150800A4D01DFFFFF79BFBB8F1000F7FF442AF631E29
S3150800A4E0584258413EE700BF0090005000E0015036
S3150800A4F0005A6202C0530C080000015000C0015007
S3150800A500008000500028ABBF00F16040054B00F505
S3150800A510614000F00F00ACBF90F80003185C00091A
S3150800A520704700BF14ED00E0034B5868C0F30800FD
S3150800A530003818BF0120704700ED00E0054B4209BE
S3150800A54053F8223000F01F0023FA00F0C04300F051
S3150800A5500100704700E100E0014608B5EFF31083FB
S3150800A560DB0702D50122104608BDFFF7E7FF0246C2
S3150800A5700028F7D10846FFF7C5FF0146EFF3118318
S3150800A58013B1B0EB131FEDD2074B5B68C3F3080397
S3150800A590002BE8D0103B58B2FFF7B4FF88428CBFB7
S3150800A5A000220122DFE700BF00ED00E0024A536BFC
S3150800A5B00342FCD1704700BF00400950044A417865
S3150800A5C0536F23F4407343EA01235367704700BF70
S3150800A5D00040005010B50A4A0446136943F00403C4
S3150800A5E0136106F0E9FB77F046FF30BF77F044FFCA
S3150800A5F006F0F6FB1CB9BDE81040FDF7C5BD10BD59
S3150800A60000ED00E010B5084A0446136943F0040358
S3150800A610136106F0D1FB30BF06F0E2FB1CB9BDE8BA
S3150800A6201040FDF7B1BD10BD00ED00E0034A017909
S3150800A630D36E23F030030B43D366704700400050B7
S3150800A640F8B504461C4BD3F88420D106FBD4D3F8BE
S3150800A6508430C3F381139C422CD0FDF77BFD012C7B
S3150800A660064602D1214677F0D6FE77F0F4FE4FF083
S3150800A6700072124B07465A66204677F000FF4FF4E1
S3150800A68080630D4D621E93402B676B6E9A0103D44F
S3150800A690D5F884309B060AD5384677F0E0FE022CBA
S3150800A6A008D13046BDE8F840002177F0B4BED5F8A9
S3150800A6B08430EAE7F8BD00BF004000500060005053
S3150800A6C007B518B90191FDF745FD0199064B1B78A9
S3150800A6D043B1064B984205D8012003B05DF804EB58
S3150800A6E0FFF7AEBF0220F8E7A6FD0120005A620276
S3150800A6F00278034B012100201A70FFF7E1BF00BF63
S3150800A700A6FD01204FF0004238B5284B28495A6665
S3150800A7104AF6CD334D6C044605F001050B6460BB63
S3150800A7200120FFF743FF4B68DA0708D4002415B168
S3150800A7301F4B204A1A64B9F044FE204638BD1E4B0A
S3150800A740586020461D4C0B6BDB0706D4A04202D18D
S3150800A7504FF0FF34EBE70130F5E7A0424FF0FF3446
S3150800A76018BF0024E3E701320B6B13F0080307D088
S3150800A7708242F8D16FF00104D9E700220F48F3E7C7
S3150800A7808242F7D020210C4A91620121A2F580521B
S3150800A79051600749094A886A800603D49342E9D07A
S3150800A7A00133F8E79342C1D1E4E700BF00900050B7
S3150800A7B0004009503254FFFF0060095040420F0024
S3150800A7C04FF0004238B5164B01465A664AF6CD3365
S3150800A7D0144C154A656C236443780B205B0043F0E0
S3150800A7E00103D363FFF7E2FE63688A7823F4F873FC
S3150800A7F043EA02136360CA784B7943EA0223A360EB
S3150800A8000A798B7943EA022323610878FFF77AFFEE
S3150800A810EB0744BF054B2364B9F0D3FD012038BDCF
S3150800A8200090005000400950004000503254FFFF8D
S3150800A8304FF0004270B5124B04465D6E03F5805327
S3150800A8405A664AF6CD330F4980204E6C0B64FFF7E3
S3150800A850ADFE0B6A23F00F030F2C94BF234343F07E
S3150800A8600F030B62F30744BF074B0B64002DA2BF0F
S3150800A8704FF00042054B5A66B9F0A3FD70BD00BF04
S3150800A88000800050004009503254FFFF00A00050DD
S3150800A8904FF0004270B5104B04465D6E03F58053C9
S3150800A8A05A664AF6CD330D4980204E6C0B64FFF785
S3150800A8B07DFE0B6A23F4F85343EA04230B62F3077D
S3150800A8C044BF074B0B64002DA2BF4FF00042054B57
S3150800A8D05A66B9F076FD70BD0080005000400950F8
S3150800A8E03254FFFF00A0005010B577F0CDFD0423C9
S3150800A8F000F5805100F500520B6113610B6113617D
S3150800A9000B6113610B611361202341F2020103619C
S3150800A9100023C360836041614FF4A021836183658E
S3150800A92041620549C36103628362C3624363036587
S3150800A930D164036310BD00BFFF3F0D03F8B505469C
S3150800A9401446084641B9344B9D422FD0334B9D429D
S3150800A95008BF5720FFF75CF8AB68DE072ED5B0FBBB
S3150800A960F4F46E68013C16F0010625D02821284625
S3150800A97077F086FDAB6C99071AD1AB6CDA0719D458
S3150800A980AB6C13F0020F0CBF00270627284677F09A
S3150800A9907BFD286920F07F4040EA04642C61DEB123
S3150800A9A039462846BDE8F84077F0A5BD5620D1E7D8
S3150800A9B00527EBE70927E9E73746EAE76B68AB6D52
S3150800A9C0AF68DB0707F0E00748BF6400402F1BD0DD
S3150800A9D003D8DFB1202F1BD0F8BD602F1AD0802FE7
S3150800A9E0FAD1012604FB06F34101B1FBF3F30C4A45
S3150800A9F0203B02EAC3022846012177F041FD2A637B
S3150800AA00BDE8F84077F03CBD0626EBE71026E9E7F7
S3150800AA100826E7E70426E5E70000015B00000A5080
S3150800AA20F8FF7F00F8B51E46436804460D461746EC
S3150800AA301BB140F6FF7177F023FD2046FFF754FF60
S3150800AA40E9896B7B62690B43298A22F44C520B43D2
S3150800AA5022F00F0213436361A368297B2A7E23F041
S3150800AA60804323F0E203114319436B691943A1603C
S3150800AA70AB681BB9A36843F00043A360EA69002AE0
S3150800AA806BD0A368127A43EA8253A360EA69A36883
S3150800AA90927A43EA4243A360EB69A2689B8803F46F
S3150800AAA0C0431343A360EA69A368527843EA820362
S3150800AAB0A360EA69A368527B43EAC203A360EA6912
S3150800AAC0A368927B43EA0213A360EA69A3689278B3
S3150800AAD043EA8223A360EA69D37991795B0243EA60
S3150800AAE08123E360EB69674A1B7803F0FD03012BBA
S3150800AAF002BFE36843F00403E360EB691B78023B9B
S3150800AB00012B614B7AD8944276D0604A94420CBFA6
S3150800AB1001224FF0FF3203EB421341F29442022125
S3150800AB209950EB695A7A04F580539A62EB695B7A15
S3150800AB301BB1E36843F40063E360EB69DB7A63B156
S3150800AB40E36843F40043E3604E4B9C4265D1EB69EE
S3150800AB504F4A1B7B03F00F0353673FB197F820302A
S3150800AB6004F58050002B63D001230362002E30D0F9
S3150800AB702B7E04F5805013B14FF40043836596F895
S3150800AB802120404B102A434961D89C425DD03F4B57
S3150800AB909C420CBF01234FF0FF330127CF54768C1C
S3150800ABA03849B6F5006F3C4B5FD88C425BD03749C5
S3150800ABB08C420CBF01214FF0FF3101275F54A36D72
S3150800ABC0324323F4F95323F01E031343A3650123E9
S3150800ABD083650521204677F071FCAA6812B1696879
S3150800ABE0FFF7ACFE2046297877F085FCA36CDB439B
S3150800ABF013F4405FFAD1F8BD00228CE794420AD0DC
S3150800AC00224A94420CBF01224FF0FF3203EB421353
S3150800AC1042F2944283E70022F8E71C4B9C429CD1FF
S3150800AC20EB691B4A1B7B03F00F03C2F8803094E7DD
S3150800AC30E36997F8221097F8212023F009030A43BD
S3150800AC401A4342F00102C26190E70023A5E79C423D
S3150800AC5007D00E4B9C420CBF01234FF0FF3302274F
S3150800AC609CE70023FBE70021A7E78C4207D00749AA
S3150800AC708C420CBF01214FF0FF3102279EE70021CD
S3150800AC80FBE700BF0000015B00C0035000000A504C
S3150800AC9000900350A9FD0120A7FD01202C4B2DE9AA
S3150800ACA0F0419842064612D02A4886420CBF5720E1
S3150800ACB00020FEF7ADFEB16811F0010109D0316937
S3150800ACC0090E0131B0FBF1F10846BDE8F0815620C6
S3150800ACD0EFE7326BB468204B04F0E004402C03EA3B
S3150800ACE0020310D007D854B3202C2CD0B36DDB0741
S3150800ACF048BF4908E8E7602C27D0802CF6D14FF4E6
S3150800AD0080750C461CE080250C464FF0030803F5B9
S3150800AD10807308FB03F800234246194658F0F4FFEF
S3150800AD2002FB04F100FB05F705FB0311A2FB050571
S3150800AD3000234246294458F0E7FF3918D6E710257C
S3150800AD404FF00108E3E72546DBE74025D9E700BFD2
S3150800AD500000015B00000A50F8FF7F00072AF7B5DC
S3150800AD6001F0030614461F464FF003012CD8950040
S3150800AD70A94000FA05F21C48019177F0CCFB01992D
S3150800AD801A4806FA05F277F0C6FB194B19499DF8D9
S3150800AD902000002F08BF1946012303FA04F40C60AB
S3150800ADA0154B1649002808BF0B461C60144B10317A
S3150800ADB0C3F820449DF82400A3F6DC33002808BF16
S3150800ADC00B461C6003B0F0BDA2F10805AD00A94012
S3150800ADD000FA05F20B48019177F09DFB01990A48A4
S3150800ADE006FA05F2CFE700BF00C4035008C40350B3
S3150800ADF010E4035010D4035014D4035014E4035041
S3150800AE0000E0035004C403500CC403502DE9F0417C
S3150800AE1005460F461E4690464AB101233022194C74
S3150800AE208B4002FB00443EB304F5825423600F2195
S3150800AE30072F05EB450388BFA7F108044FEA03135C
S3150800AE40114895BFBC00A40004330C3308FA04F279
S3150800AE50A140184477F05FFBB8F1000F0AD1012131
S3150800AE603020084A01FA07F700FB05223EB102F531
S3150800AE7082521760BDE8F08104F50154D6E702F561
S3150800AE800152F6E700C0035030C00350044A054B90
S3150800AE90002918BF1346012202FA00F0186070470D
S3150800AEA0402004504010045010B5012104462020CB
S3150800AEB0FEF792FD01212120FEF78EFD0122114B9E
S3150800AEC05A60227812069A606178A27842EA0142AC
S3150800AED09A61FF229A6200229A631A644FF000422E
S3150800AEE05A654FF0FF324FF4001103F500531A6507
S3150800AEF0054AC2F88011E3781B01DBB282F81533E4
S3150800AF00116010BD0000045000E100E070B5012595
S3150800AF10C3B29D401E4B0C461D658300096803F1AC
S3150800AF20A04303F58823596030211A4E637B01FB41
S3150800AF3000600366E37AA17A1B0543EA0143217B95
S3150800AF4022F0030243EA4153C365026777F08AFA9F
S3150800AF50736D2B437365237A13B1336C2B433364B8
S3150800AF60637A13B1B36B2B43B3632279A37943EAAC
S3150800AF700243074A93616179E37943EA0143064943
S3150800AF808B61044B55639D64BDE8704077F070BAD9
S3150800AF90002004500000045000100450F8B50125A4
S3150800AFA0C3B204469D4077F05DFA3022094B1E6D08
S3150800AFB05F6B02FB04335C6E77F05AFA3D4206D1AA
S3150800AFC0C4F30A1008B9354200D10130F8BD002093
S3150800AFD0FCE700BF000004504FF48032054B9A6628
S3150800AFE041F6713203F51C33DA63012203F5005387
S3150800AFF0DA6070470090005041F671320121064B25
S3150800B000DA6303F50052D1600022DA634FF4803226
S3150800B010A3F518339A6670470000035001383128A3
S3150800B0209ABF024B185C0020704700BF50550C08A9
S3150800B030021E30B54FF000000CBF1025042547F658
S3150800B0400774084952B9831D51F82330234023B1A8
S3150800B05001308542F6D14FF0FF3030BD00F11603BE
S3150800B060F2E700BF0080035010B5C2F3062304467A
S3150800B07002F0070241B942EA03220B4B42F440228E
S3150800B080063443F8242010BD1846114677F054FAC2
S3150800B09001461846FFF7C2FF034B41EA0020163463
S3150800B0A043F82400EFE700BF00800350014BD3F8B4
S3150800B0B094007047004000504FF48032064B5A66A1
S3150800B0C003F5E6239B69C3F38512827003F03F02FA
S3150800B0D01B0B4270037070470090005040F6B73261
S3150800B0E0064B5B689BB293429FBF4FF47A72B3FBE1
S3150800B0F0F2F3034AD05C88BF002070470080E00F57
S3150800B10082550C08014B986CD96C70470080E00F8B
S3150800B1100120034B9B680A3303F01F0398407047CE
S3150800B1200080E00F2DE9B841154F15460F40FAB9D2
S3150800B130202B20D0402B20D0002B14BF40241024D5
S3150800B140012307F580775F4300233A46194658F0EE
S3150800B150DBFD554300FB04F804FB0351A2FB040482
S3150800B16000233A46214458F0CFFD4044BDE8B88153
S3150800B17080240025E4E71C46E2E780240323E0E771
S3150800B180F8FF7F00012100F5805310B5596040F69D
S3150800B190AA6341F2050243610023094C8360C36533
S3150800B1A0C26000F500520361C361C3649464054C30
S3150800B1B08365A04204BF03654365516010BD00BFA7
S3150800B1C0FFFF010000C0055038B50D46FFF7DAFF4E
S3150800B1D0012200F580535A60A97B2A8A002914BFE8
S3150800B1E04FF480610021836842F0010213430B4348
S3150800B1F083602A7D8368002A14BF4FF0005200221C
S3150800B20013438360AB7C04465BB1194B984202BF7B
S3150800B210EA7CA3F51033C3F8C821C36D43F0800355
S3150800B220C3652B7B204643F48053E360D5E90112BE
S3150800B23077F0F4F96B7B0BB1102363616B7D1BB15F
S3150800B240A36843F48033A360AB7D1BB1A36843F4C2
S3150800B2500043A360EB7D2A7E1B07120503F0E0433B
S3150800B26002F4E0021343A3652B78636138BD00BF7F
S3150800B27000C005500123064A411100F01F0003FAD9
S3150800B28000F052F82130184342F82100704700BFF9
S3150800B2901C4B0120044B1B681BB1044B03600020A8
S3150800B2A070470120704700BF2C4B0120A8FA0120E7
S3150800B2B070B50D4C246884B10C4C85182688B542A7
S3150800B2C00DDC6688CD18B54209DC52B14BB1A080B9
S3150800B2D00020E1802281638170BD0120FCE7042003
S3150800B2E0FAE70520F8E700BF2C4B0120A8FA012051
S3150800B2F02DE9F74F1E46424B90461B68002B79D026
S3150800B300DFF804A1BAF80A20BAF80840531A6343CA
S3150800B3101B1AB34270D300244FF00109BAF806305D
S3150800B3201A4492B25F180192BFB21EB9304603B0F2
S3150800B330BDE8F08F019ABBB293425FD2BAF80850C3
S3150800B340304B2D1AB54228BF354603EB0712BAF81B
S3150800B3500430761B184483B2400703D1610701D134
S3150800B360072D26D81D441B1B191989B2A94205D3D6
S3150800B3703846FFF77FFF01370020D6E74FEAE40E8D
S3150800B38018F80EE04FEAD10C04F0070B01F007019C
S3150800B39012F90C0009FA01F14EFA0BFE49B21EF039
S3150800B3A0010F14BF014320EA010102F80C10013411
S3150800B3B0DAE702EBD3034FEAD50B5A46184608EBF1
S3150800B3C0E401AFF0C5FC25F00702AD1A03461444A4
S3150800B3D0CED0E01009FA05F218F80000D2B2511ED4
S3150800B3E0014013F80B00524202400A4303F80B20AF
S3150800B3F02C44BDE7012699E7032697E7042695E737
S3150800B4002C4B0120ABFD0120A8FA01202DE9F74FAE
S3150800B4100093444B1B68002B7FD04FF0010BDFF8DD
S3150800B4200C910D9FB9F80630B9F80A205D181A4430
S3150800B4301FFA82FAADB21FB9384603B0BDE8F08FDD
S3150800B440ABB29A456BD9384AB9F8084002EB0511F0
S3150800B450241A009ABC4228BF3C46161E18BF01266D
S3150800B460B9F8043076420344072CA7EB04079BB2CD
S3150800B470F6B221D81C44BEB9A34217D2DE0803F09F
S3150800B48007020BFA02F08A5D013322EA00028A55A6
S3150800B4909BB2F1E7D8080E5C03F007020BFA02F23A
S3150800B4A0324301330A549BB2A342F3D32846FFF72B
S3150800B4B0E1FE01350020BEE74FEAD30C01EBD308C5
S3150800B4C013F0070310D00BFA03F211F80CE0D2B20E
S3150800B4D0501E52420EEA000032401043083B01F863
S3150800B4E00C0008F101081C44E20809D03146404620
S3150800B4F00192AFF054FC14F00704019AD6D0904498
