S02A00006275696C642F64656275672F6C696768742D7377697463682D6170702D7468726561642E7333376B
S214000000001000207918000081400700F30C0A0059
S2140000105F5B0700814007008140070081400700C2
S2140000208140070081400700814007002101000051
S21400003081400700C4340B00510100003162070004
S21400004081400700790B07008140070081400700C8
S214000050B90307008B2E0B00872E0B00990B0700A9
S2140000607F2E0B00951D0000ED1E0000814007004E
S214000070B7B40800814007008140070081400700B0
S2140000808140070081400700091F000081400700EB
S214000090814007008140070081400700814007003B
S2140000A0814007008140070081400700814007002B
S2140000B0CD0B0700832E0B00CD900000090C070027
S2140000C08140070015F306008140070081400700C5
S2140000D081400700814007008140070081400700FB
S2140000E081400700814007008140070081400700EB
S2140000F081400700814007008140070081400700DB
S2140001008140070081400700814007000000000092
S214000110013800D0FCE77047000000000000000037
S214000120074B19680868B0E8F04F80F30988BFF3FA
S2140001306F8F4FF0000080F311887047AFF3008098
S2140001405C410120000000000000000000000000EC
S214000150EFF30980BFF36F8F154B1A681EF0100F70
S21400016008BF20ED108A20E9F04F10602DE9090045
S2140001704FF0300080F31188BFF34F8FBFF36F8FBF
S2140001800CF0A2FD4FF0000080F3118809BC19683E
S2140001900868B0E8F04F1EF0100F08BFB0EC108AE9
S2140001A080F30988BFF36F8F704700BFAFF30080FE
S2140001B05C4101200000000000000000000000007C
S2140001C001F0FF01102A2BDB10F0070F08D010F803
S2140001D0013B013A8B422DD010F0070F42B3F6D107
S2140001E0F0B441EA012141EA014122F007047FF020
S2140001F000070023F0E80256083C85EA010586EA77
S214000200010685FA47F5A3FA87F586FA47F6A5FAB2
S21400021087F68EB9EED1F0BC01F0FF0102F00702BE
S21400022032B110F8013B013A83EA010313B1F8D169
S2140002300020704701387047002D06BF354603384A
S214000240073815F0010F07D1013015F4807F02BF83
S214000250013015F4C03F0130F0BC0138704700BFD4
S2140002602DE9F04FDFF8C4912DED028BB9F8003080
S2140002709A078DB006D4664B664A40F227616648F8
S21400028057F020FFDFF8A8B1DBF8003023B9634B46
S214000290604A4FF4C561F2E7614C624D94E807008E
S2140002A00DF1180888E807009B888DF817300123A1
S2140002B0B9F8002028681A460DF11701B2F09BF92C
S2140002C09DF81720DBF8001028680968023A00231A
S2140002D092B20C34B2F08FF994E807000DF1240ABC
S2140002E08AE80700DBF800301B681C7814F020044E
S2140002F021D02868B1F09FFF00286FD02868B1F0A1
S2140003009AFF04460B9857F027FA064620460F46F3
S21400031057F022FA02460B4639A1D1E9000157F000
S214000320BFFB02460B463046394657F0D9F857F021
S21400033027FD0B9001242868B1F08BFF9DF817303D
S21400034000284FD0981DC00057F016FA2EA3D3E908
S214000350002357F07BFA41EC180B2868B1F079FFC0
S21400036003900B9857F0F8F9039B064618460F467D
S21400037057F0F2F902460B4651EC180B57F090FB7B
S21400038002460B463046394657F0AAF857F0F8FCB6
S2140003900B90B9F800302868DBF800109B0627D5CC
S2140003A00B9B03F5FA730B9391F820308DF81A30F7
S2140003B01D4B89791B788DF81B30CDF800A043467D
S2140003C02246B1F08DFD20B1022009F037FD4DF038
S2140003D06BFB0DB0BDEC028BBDE8F08F0B9BC03302
S2140003E00B93A7E70B98063300EB43130B93D0E76A
S2140003F0897953462246B1F05DFDE4E7AFF300800D
S2140004000000000060E366410000000080842E418A
S214000410725D0B003F600B00C95B0B00985D0B0024
S214000420245F0B00E03F012034170020E8E20120A3
S214000430C84001200000000073B56F4B198811F00A
S214000440010140F0D3806D4D6D4BC5E9003105F1DB
S2140004501003AB606B4B41F60B229A80284619605E
S2140004606BF008F8044630B9674B684A40F2BD3175
S214000470674857F027FE6CF0BFFB20B1654B634A18
S21400048040F2C131F4E74FF001112046B2F09BF87C
S21400049020B1604B5D4A40F2C531E9E702212046B3
S2140004A0B1F0B8FE20B15B4B584A4FF47271DFE7EB
S2140004B0594920466CF054F920B1564B534A40F245
S2140004C0CB31D5E701212046B2F018FA20B1514BC6
S2140004D04E4A4FF47471CBE701212046B2F025FA5C
S2140004E0064620B14B4B494A40F2D331C0E701469D
S2140004F03C224A48A8F06EFF8023324605F11101DF
S2140005002046B2F08EF8802804D0454B3F4A40F291
S214000510DA31ADE70120B1F0C8FC35A3D3E90023FA
S214000520404D20462C60CDE900234FF0FF324FF0BF
S214000530FF33B1F01BFF20B1364B3B4A40F2173178
S21400054096E7304809F026FB0121084609F090FBA3
S21400055028680121B1F0ACFD044620B12D4B334A8A
S21400056040F26E4184E7324B324A98801A60324B32
S214000570324A98801A60324B324A98801A606FF07E
S2140005806300314A5A6111F013FB0B2009F0BCFAE4
S2140005902E4B186020B92E4B244A40F28C4167E758
S2140005A004F060FC28682146B1F0B6FF20B1194B74
S2140005B0284A40F219415BE7082228681146B1F044
S2140005C0EDFE044620B1244B184A4FF492614FE7E3
S2140005D00AF044FB214B22481C70224B1C70224B15
S2140005E01C7002B0BDE870407AF011BF02B070BD5A
S2140005F00B6020FFE2030000E8E20120EC3F012050
S214000600319F0000E43F0120285E0B00B45F0B0022
S214000610C95B0B002E5B0B00C4600B008C400120F6
S214000620375E0B00E03F0120A75F0B0030600B0039
S214000630201D002055ED0120F81C0020D5EC0120DF
S214000640481D0020D7ED0120701D002088400120A5
S2140006506F5E0B006D5F0B008A5E0B00CAEC01201C
S2140006600E5F0B00D6ED0120D5ED01200000000046
S2140006702DE9F04F2DED028B804600688DB00C46BC
S21400068091461D4630B9032738460DB0BDEC028BA7
S214000690BDE8F08F0668766CB0472D2807460CD06C
S2140006A00028F1D09E4A9F4B0221A52808BF13467A
S2140006B09D4A0D209EF0E5FCE6E76378202B01D1ED
S2140006C00027E1E7D8F80000984B049358B1036878
S2140006D022461B6C04A99847074630B10498036865
S2140006E09B689847D0E70327F8E7914E914B059310
S2140006F0EE404FF48973102D6FEA060623FA05F3D1
S21400070006F001066FEA030388BF01269FED828B81
S214000710082D03F0010388BF012301936FF0010B3E
S2140007200498036805A9DB689847002840F0ED8028
S2140007308DF80E00059803680DF10E01DB689847EA
S2140007400746002844D19DF80E30402B03D0802B5E
S21400075001D003273CE062789A42E1D10598012354
S2140007608DF80F3003680DF10F015B699847074657
S21400077070BB9DF80F30082B18D8002BD0D0013B4B
S214000780072BCDD801A252F823F000BFDD070000EA
S214000790B707000021070000D90700002107000066
S2140007A02107000021070000E3070000102BB7D147
S2140007B0002EB5D102E06B1E012BB1D805980023A0
S2140007C00693036806A95B6A9847824668B107469F
S2140007D005A88BF05BFE81E7042DEFD0012D9FD19D
S2140007E0ECE7019B002B9BD1E8E7069B002B46D04D
S2140007F08DED088B0598036808AA9B6A51469847B2
S21400080007460028E4D1DDE90830591E40F1FF32E2
S2140008108B456FF0100171EB020210D39DF80E208D
S214000820402A96D1D4E90212904208BF8B4226D0C5
S214000830069B0AF1010A53457FF672AFD8E74FF0E0
S214000840FF31C21C994277EB020231D39DF80E208D
S214000850402A7FF47EAF1F0C04F1100104F11C0047
S2140008609BB28842E4D051F8042B002AF9D0B7EBAB
S214000870124FF6D1002BF4D092B29342F1D80598DD
S21400088000230793036807A99B6B98470746002831
S2140008909ED1079B002B36D082460598CDF820A027
S2140008A0036808AADB6B3946984758B107468FE7B6
S2140008B013F5803F70F1FF32FFF44BAF9DF80E202A
S2140008C0802AAEE7089BD90704D5D9F800200999F5
S2140008D0914212D19A0705D5BDF82810B9F8042020
S2140008E091420AD15B070ED5D8F80400B9F8042067
S2140008F003680B999B68984728B9079B0137BB424A
S2140009007FF60EAFC9E7002762E70B4A02210D20EB
S2140009109EF0B7FBA5275BE7000000000000000084
S2140009208DB90B0075C10C0061B90B0010110020C9
S21400093016010100141100207EB90B000000000013
S2140009402DE9F04F2DED028B884297B004460D46F8
S21400095090461E460AD1304A034601211D2017B094
S214000960BDEC028BBDE8F04F9EF08BBB0DF10C0981
S2140009702A2148463DF02EF899E8030005AF87E89F
S21400098003009FED238BDFF894A0DFF894B0BDF84A
S2140009901400BDF81630834233D03DF057F8337854
S2140009A08DF8244081468DF825508DF826808DF8E8
S2140009B028300BB173680B9309AB0893CDF81CA0D5
S2140009C036F0D4FD00230E9310938DF851302A2371
S2140009D0ADF830900D934FF001096B460CAA07A9AD
S2140009E08DED128B8DF8509091F08CFC034620B163
S2140009F05A4649461D209EF044FB384695F046FE72
S214000A00C5E717B0BDEC028BBDE8F08FAFF30080F2
S214000A1000000000000000008CE10B0078E20B00F4
S214000A20CCE10B00000000002DE9F04F2DED028B0D
S214000A309DB00DF108092A2105464846DDF8A48038
S214000A40DFF8B4A0DFF8B4B016461F463CF0C2FF8D
S214000A5099E8030004AC84E803009FED258BBDF8FD
S214000A601000BDF8123083423DD03CF0EFFF289BCB
S214000A7008951B788DF83030CDE90A6781461BB1A2
S214000A80289B5B788DF8313098F800308DF8383038
S214000A901BB1D8E90223CDE9102308AB0793CDF8A4
S214000AA018A036F063FD002316938DF869302A22CD
S214000AB00223CDE91323ADF848906B464FF00109A9
S214000AC012AA06A98DED188B8DF8689091F01AFC85
S214000AD0034620B15A4649461D209EF0D2FA2046CB
S214000AE095F0D4FDBBE71DB0BDEC028BBDE8F08FE2
S214000AF00000000000000000A0E20B0023E20B0054
S214000B002DE9F04F2DED028BCDB099460023002441
S214000B1000258DF8C83049938DF828319C4BDFF8B6
S214000B2088A20C93CDE92E45CDE93045CDE9344574
S214000B3001234FF6FF7406468846CDF8D8A0ADF8D8
S214000B4020410D9317466AB1054600F53E74A5424E
S214000B5000F00C8128468CF073FA002800F008811B
S214000B609835F4E798F00CFD044630B9AC242046DE
S214000B704DB0BDEC028BBDE8F08F06F53E752846FD
S214000B808AF0F5FDB4F86830ADF820318DF8C880ED
S214000B9094ED028B6A3420212046A8F081FDCDE931
S214000BA00C407C4B0E934FF4C871002309A8CDE986
S214000BB009330F930B93CDF870A08FF054F8099B70
S214000BC053B90B240BA88CF03FF80AA88CF03CF81D
S214000BD009A88CF039F8CAE74FF4C8710AA88FF054
S214000BE042F80A9B002BECD04FF4C8710BA88FF08C
S214000BF03AF80B990029E4D0099B0A9A10934FF40F
S214000C00C873CDE91223CDE9141310AA4146304625
S214000C10119398F035FD08B10446D3E712AA414671
S214000C20304698F00FFD0028F6D114AA414630460B
S214000C3098F0C2FC0028EFD1109B1693119B1793D7
S214000C40129B1893139B1993149B1A93159B1B9333
S214000C5036AB079330AB049334AB0DF1B80A0DF105
S214000C60700B03930EABCDE905AB8DED008B0293B5
S214000C701AAA18A916A841F0FBF80028CCD10BA890
S214000C808BF0E2FF0AA88BF0DFFF09A88BF0DCFFF1
S214000C90B9F1000F13D1D6F8940300285AD0036890
S214000CA09B689847D6F894331A6800284AD0546947
S214000CB041465A461846A04798B1044657E7D9F821
S214000CC0003048465B699847036859465B6A984710
S214000CD008B9C5244BE79DF86031CDF824918DF80E
S214000CE028315146284698F04BFF0028E5D10CA93C
S214000CF0284698F012FC2B7C77B3274A0221112055
S214000D009EF0BFF9D5E90012AB690093CDE9012149
S214000D101120EB69214A02219EF0B3F90F9906F5DE
S214000D20697043F07BFA034620B11D4A0121112069
S214000D309EF0A7F927B196F8B233013386F8B2339E
S214000D40002414E7D2684146184690470028C8D1C8
S214000D5010240CE703240AE7D5E900121120CDE998
S214000D600021104A02219EF08CF9D7E70B24FEE6FC
S214000D70BDF86431ADF820319FED038B8DF8C88047
S214000D800FE700BFAFF30080000000000000000087
S214000D90C2C70C007C440C00A9430C00C9430C00DD
S214000DA041440C000C440C00F0780C0000000000DD
S214000DB010B5ADF5956D2A21714802914AF0CCFD2B
S214000DC008B1A8F060FA029002A96D484AF06EFCDD
S214000DD00028F6D1029B2A2BF3D167A3D3E9002380
S214000DE06848CDE908234AF0D3FD0028E9D100225F
S214000DF00023644808A9CDE908234AF07FFC0028B0
S214000E00DFD1DDE90802604940F6FA039A4208BFDE
S214000E108842D6D101215D488DF807104AF080FD42
S214000E200028CED18DF807000DF1070157484AF08B
S214000E3011FC0028C5D19DF80730002BC1D05048C2
S214000E404AF0D4FB0028BCD14D4803A94AF02EFC3A
S214000E5040F20124A042B4D14D494E489FF0E9FC2F
S214000E600028AED14B4804AB40220AA94AF072FCD7
S214000E700028A6D1049B0E2BA3D145490F220AA811
S214000E80A8F070FA00289CD1434942489FF0D1FC54
S214000E90002896D104AB3F4840220AA94AF05AFCE3
S214000EA0049B03438DD19DF82810002989D1394829
S214000EB09FF0BFFC002884D1364805AB40221AA913
S214000EC04AF048FCA0427FF47CAF34493448F12213
S214000ED04AF098FD00287FF474AF314806AB4FF413
S214000EE000722AA94AF088FC00287FF46AAF069AA6
S214000EF0F12A7FF466AF29492AA8A8F033FA0246F9
S214000F0000287FF45EAF014625484AF07BFD0028A6
S214000F107FF457AF224807AB4FF40072AAA94AF0F5
S214000F206BFCA0427FF44DAF16484AF06BFB0028DE
S214000F303FF447AF15484AF065FB00283FF441AF41
S214000F4017484AF05FFB00287FF43BAF4AF0B8FD35
S214000F5000287FF436AF0B484AF054FB00283FF4D5
S214000F6030AF0A484AF04EFB00287FF42AAF0DF552
S214000F70956D10BDAFF30080316EE595FA08000060
S214000F800573080001720800316EE59506730800C7
S214000F908E800C00027308008D800C009C7F0C0075
S214000FA00272080000000000054B18680368996983
S214000FB001A3D3E90023084700E0373B015D0300A7
S214000FC02C1200200000000070B53F4C8AB0054689
S214000FD020B10023008823605FF0A4FC3B4E3C4811
S214000FE0B1F007F93B4B336030463B4B73605FF024
S214000FF0CDFC002130466AF03DFA31A3D3E9002348
S214001000A062C4E90623ABF0D6FFD4E90623194351
S21400101010434FF0FF33C4E90601CDE900014FF05D
S214001020FF32A06AB1F0A2F902224FF0FF31A06AA7
S214001030B1F0B4F901205FF0D9F82849A06A4FF45E
S21400104000730022B1F0EDFAB0F5007F36D1002330
S214001050CDE90733099394223C23CDE90332059367
S214001060A06A962303A906936AF02AFE25B3287C75
S2140010705FF04AFD0546E0B9A06AB1F091FC5FF06A
S214001080EBFC5FF095F820B14FF4807000215CF027
S21400109093FB5FF09DF820B14FF4006000215CF0F8
S2140010A08BFB0120B0F001FF0D4A0E49A06AABF0A1
S2140010B079FF28460AB070BDFF20D9E70725F8E774
S2140010C009D5015520000000902E0120B4DF012034
S2140010D0690345EC7D000600A8DF0120A8DD01209D
S2140010E04DCF0A008DCF0A0010B5054C237833B9D2
S2140010F0044B13B10448AFF300800123237010BDE6
S214001100183301200000000088F10C0008B5034BDE
S2140011101BB103490348AFF3008008BD0000000080
S2140011201C33012088F10C00A3F5803A704700BFFD
S214001130174B002B08BF134B9D46FFF7F5FF00210A
S2140011408B460F461348144A121AA8F043F90E4B62
S214001150002B00D098470D4B002B00D0984700205E
S214001160002104000D000D48002802D00C48A8F00D
S21400117091F857F0EFF9200029002DF033FC56F0D7
S214001180D3FF00BF000008000000000000000000C1
S21400119000100020341800201869022095920A00DA
S2140011A00000000008B50548012101F093FEA7F0F5
S2140011B03DFBBDE8084000F03BB900BF00350A0023
S2140011C00148012101F086BE00350A002DE9F043F2
S2140011D01F4E0446894690460FCE89B001AD0FC516
S2140011E096E8070085E8070025681A486E6FAF6F17
S2140011F0012101F06FFE6068012101F06BFE617B4A
S214001200207B0023042203F049F8617A207A042226
S214001210002303F043F80123284601A98DF8123075
S214001220CDF80C90ADF8148073F03FFC237CA27BC5
S2140012301B0643EA022307F01F0706F001063B439E
S21400124046F00A060020AB676E6709B0BDE8F0837B
S21400125078340B0000350A00024B4FF40052C3F8F6
S214001260A820704700A0004013B5044607F05CFDB8
S214001270247B00230122CDE900326400034AB0FB40
S214001280F4F1034874F0A2FC02B010BD591200003D
S2140012903433012073B50F4B0F4E4FF48045C3F81F
S2140012A09C500446407B07F035FF042302220DF1D4
S2140012B006013046ADF8063072F0BBFE304672F0DE
S2140012C0C9FEA07B07F026FF044B0020C3F89C5005
S2140012D002B070BD00A000460410002000A000442C
S2140012E070B5064601211248124C01F0F3FDB168B4
S2140012F011480022FFF76AFF002304220E21032074
S21400130002F0CCFF3546002304220D21032002F014
S214001310C5FF0FCD0FC42B682360084B0122304653
S2140013201A70FFF7A1FF3046FFF7B4FF002070BD2C
S21400133000350A00543301200410002094E30120F5
S2140013402DE9F74F984606880379DFF8A4B05E4388
S214001350264B14464FF48042C3F89C200134A4B2B6
S2140013600546407B0F4607F0D5FE230243F00103F7
S2140013701F48ADF8063002220DF10601013472F066
S21400138058FE2402F610A4B24FF0000908F1FF3A06
S214001390C14511D1164872F05DFEA87B07F0BAFE73
S2140013A0144B13484FF48042C3F89C2072F057FE4B
S2140013B0002003B0BDE8F08F39463246584672F03A
S2140013C038FECA4514BF44F0FF034FF6FF730222EF
S2140013D00DF10601584604F58074ADF80630374422
S2140013E072F027FE09F10109A4B2D1E700A0004679
S2140013F00410002000A00044034B04481B78002B78
S21400140008BF0020704700BF94E30120543301203A
S21400141030B5064D0FCD87B001AC0FC42B682360E6
S21400142001A8FFF75DFF07B030BD00BF94340B0086
S2140014302DE9F0433B4D3C4FDFF80091DFF800818B
S2140014400FCD89B001AC0FC495E8070084E807000B
S214001450364C3748012101F03DFD3846012101F0A8
S21400146039FD0125334B039301A920468DF8125010
S21400147073F01BFB2B4604220621022002F00EFF0F
S2140014802A4600230721022002F008FF2B460422EA
S2140014900821022002F002FF042211462B460020FB
S2140014A002F0FCFE244BA3670B23636710264FF461
S2140014B0487007F02FFEC9F80C60142007F02AFECB
S2140014C0C8F80C60232007F025FEC9F80C60B92187
S2140014D0204673F037FB00231A46C8F80C60062136
S2140014E0022002F0DBFE00231A460721022002F04B
S2140014F0D5FE2B4600220821022002F0CFFE002255
S21400150010462B46042102F0C9FE204603F090F94F
S2140015100021A1673846616701F0DCFC09B0BDE830
S214001520F08300BFA8340B00005204000004014002
S21400153000350A0000127A000B0B000B00A00044D6
S21400154000A0004610B50F4BD3F82838A3F17E62F2
S214001550A2F58432B2F5104F0ED219680A4A9142AB
S2140015600AD10A4C227812F0FD0F08D1DB699847A1
S21400157008B90123237010BD4FF48170FBE70020EB
S214001580F9E700BF0000E10F07B0CD5E95E301204C
S2140015904FF000530B4A1A600B4A012393601368FE
S2140015A023F4E06343F480631360BFF34F8F07496F
S2140015B0074BCA6802F4E0621343CB60BFF34F8F59
S2140015C000BFFDE702020FF000500E4000ED00E005
S2140015D00400FA050A4BD3F82828A2F17E63A3F587
S2140015E08433B3F5104F09D2126BA2F17E63A3F5D4
S2140015F08433B3F5104F01D253681847704700BFC5
S2140016000000E10F0B4BD3F82828A2F17E63A3F568
S2140016108433B3F5104F09D2126BA2F17E63A3F5A3
S2140016208433B3F5104F01D2936818474FF4817096
S214001630704700BF0000E10F07B50E4B0190D3F8CE
S2140016402828A2F17E63A3F58433B3F5104F0ED29B
S214001650126BA2F17E63A3F58433B3F5104F06D266
S2140016609369012101A8984703B05DF804FB4FF485
S2140016708170F9E70000E10F10B40A4BD3F8284850
S214001680A4F17E63A3F58433B3F5104F05D2236B24
S2140016901BB15B6A5DF8044B18474FF401705DF8A8
S2140016A0044B70470000E10F0B4BD3F82828A2F13B
S2140016B07E63A3F58433B3F5104F09D2126BA2F103
S2140016C07E63A3F58433B3F5104F01D2936A1847AF
S2140016D04FF40170704700BF0000E10F70B5134B68
S2140016E0D3F82838A3F17E63A3F58433B3F5104FFF
S2140016F0E0B00D4616D24FF4C0726946FFF7BCFF45
S214001700044660B940F2012629466846FFF7CCFF3A
S214001710B042F9D040F20323984218BF0446204650
S21400172060B070BD4FF40174F9E700BF0000E10F30
S21400173010B40D4BD3F82848A4F17E63A3F5843388
S214001740B3F5104F0BD2246BA4F17E63A3F584335C
S214001750B3F5104F03D2A36B5DF8044B184740F265
S21400176001105DF8044B70470000E10F0B4BD3F8F7
S2140017702828A2F17E63A3F58433B3F5104F09D26F
S214001780126BA2F17E63A3F58433B3F5104F01D23A
S214001790D36B184740F20110704700BF0000E10FFE
S2140017A02DE9F0439946334B1746D3F82828A2F183
S2140017B07E63A3F58433B3F5104F91B005460E460D
S2140017C04FD2136BA3F17E63A3F58433B3F5104FAA
S2140017D047D203A8FFF7FEFE079BDC68A3B2002BE8
S2140017E042D001A92846FFF70DFF00BB029B06EB7F
S2140017F009059D423BD8A1B2B6FBF1F401FB146388
S214001800DDF80480D3B1B5FBF1F24C4201FB125275
S21400181004EA060001EB080C62B12C40211A604471
S214001820D1B94A46394608EB0600FFF781FF11B0EA
S214001830BDE8F083A9EB0104E118F0E7B9FBF1F38A
S21400184001FB139308EB060023B14C4204EA09049B
S2140018502144E5E74946E3E7FFF788FF0028E0D0A4
S214001860E5E74FF48170E2E740F20140DFE740F23F
S2140018700240DCE70000E10F08B500F083F8124BE9
S21400188012498B4212D3124B124900208B4218D3B6
S214001890FFF74EFC186850F82240586840F822407F
S2140018A0013298688242F5D30C33EAE70022F8E763
S2140018B01C6844F8220001325C68A242F8D3083360
S2140018C0E4E70022F8E700BF90F10C009CF10C0062
S2140018D09CF10C009CF10C000048704700F0490297
S2140018E0104AD2F8943003F00703023B032B13D8B8
S2140018F0DFE803F00C14020E0B4B1B68D2F8000155
S214001900C0F304200130B3FBF0F07047074BF4E758
S214001910074B1B685B08F1E7054BEEE74FF4004307
S214001920ECE700BF00400E40241000201C100020F2
S2140019302010002008B5FFF7D3FF054BD3F8083179
S214001940C3F308230133B0FBF3F0024B186008BD65
S21400195000400E4018100020014B1868704700BF6A
S2140019601C100020054B1860054BD3F8943003F08C
S2140019700703022B01D1FFF7DDBF70471C100020C4
S21400198000400E40044B054A9A60D3F8882042F483
S2140019907002C3F88820704700ED00E000000000E9
S2140019A0014B1868704700BF2410002037B5046844
S2140019B001210546124801F08DFA0023617920794D
S2140019C0012202F06BFC6179207972F06AFBB0FAB2
S2140019D080F35B092370A379022B0ED100F030FA56
S2140019E0084960792A4600F055FA012361790246D3
S2140019F02079CDE9003302F00BFC002003B030BDA7
S214001A0000350A00BD40070010B50121044609480C
S214001A1001F060FA0848012101F05CFAA37820780A
S214001A206178B3FA83F35B09042202F037FC0020E6
S214001A3010BD00BF4041050000350A002DE9F04FFB
S214001A409A46554B85B01B78DDF83C909DF844B01F
S214001A50DDF8508006460F461546002B00F08B80BA
S214001A60072A00F28A800E9B002B00F08680B9F1D0
S214001A70000F00F08280129BB3F5006F7DDC01281A
S214001A8002D1109B002B78D0444B03EB05131B7B35
S214001A90002B74D0424C102200216846A7F09AFC16
S214001AA004EB45141022002F57D139462046A7F0E4
S214001AB091FC43F210036380BBF1000F03D1E3787F
S214001AC043F00303E370364A0E9BCDF800A002EB0A
S214001AD0451CCCE90193129B013BC3F30A009DF819
S214001AE04C30690103F003039B0643EA001E53587B
S214001AF02C4818404EEA0003012E535041D11323C0
S214001B00CCF80C309CE80F000CF1100E8EE80F009D
S214001B10DCF81C20109BCCF814306FF0030161F346
S214001B209F02012FCCF81C2003D1CCF81890CCF8DB
S214001B3004301A4A290102EB051342F801800027F7
S214001B40159A5A6028469F605E732246694602F0E0
S214001B5015FC384605B0BDE8F08F00212046A7F0FA
S214001B6039FC4FF444736380BBF1000FABD1E378CC
S214001B7043F03003A6E70C48ECE70C48EAE70C48CD
S214001B80E8E7B8F1000FD4D19CF8023068F30413EC
S214001B908CF80230CDE700BF96E3012068330120C1
S214001BA0E83301200F80FFF3028000F0018000F090
S214001BB0078000F038B5124B1B780546DBB1E0B164
S214001BC072F0B2FD0F4A00231146147B54B92B6005
S214001BD01A0101EB031301258C501D7372F0AAFD48
S214001BE0204638BD0133082B02F11002EDD172F009
S214001BF0A1FD0548F5E70548F3E70548F1E700BF0E
S214001C0096E3012068330120048000F0028000F093
S214001C10018000F013B5164B1868019000238DF86C
S214001C20043072F081FD134B1C7824B172F082FDF3
S214001C30114802B010BD01221A7072F07BFD0F4BE6
S214001C401C731C7783F82C4083F83C4083F84C4088
S214001C5083F85C4083F86C4083F87C4004230DEBEB
S214001C6003008DF8073002F05FFB2046E1E700BF77
S214001C7014350B0096E30120038000F06833012042
S214001C8008B50A4A12785AB107280BD8084A02EB58
S214001C9000131B7B43B1002102F03CFB002008BD73
S214001CA00448FCE70448FAE70448F8E796E301200E
S214001CB068330120028000F0018000F0078000F009
S214001CC008B50A4A12785AB107280BD8084A02EB18
S214001CD000131B7B43B1012102F01CFB002008BD52
S214001CE00448FCE70448FAE70448F8E796E30120CE
S214001CF068330120028000F0018000F0078000F0C9
S214001D000D4B1B7893B1072812D889B10B4B03EB08
S214001D1000131B7B73B10A4B1A6A012303FA00F007
S214001D2010401ABF00200B700870704705487047B7
S214001D30054870470548704796E301206833012040
S214001D4000200E40028000F0018000F0078000F0C6
S214001D5010B50B4A12780C4662B107280CD859B158
S214001D60084A02EB00131B7B43B102F055FB2060D0
S214001D70002010BD0448FCE70448FAE70448F8E7EA
S214001D8096E3012068330120028000F0018000F015
S214001D90078000F02DE9F843DFF86480D8F860701B
S214001DA0D8F86C301F4000D5FEE7144CDFF854908E
S214001DB001260025374217D0C8F8686023689BB113
S214001DC0A16862680131A16028469847637B012BB1
S214001DD00AD148B909EB45131A7B60F341021A731E
S214001DE01A7F60F341021A770135082D4FEA46063E
S214001DF004F11004DED1BDE8F88300BF683301208B
S214001E0000200E40E833012070B50C4E0446012534
S214001E1004B970BD94FAA4F0B0FA80F006EB001294
S214001E2005FA00F324EA03045368002BF0D0117B74
S214001E3011B191689847EBE79847E9E7E834012045
S214001E4008B5122001F042FD28B1084B4FF480225D
S214001E50C3F880211A600A2001F038FD28B1034B30
S214001E604FF48062C3F880211A6008BD00E100E0EC
S214001E7038B505460C4672F057FC054B03EB0513C8
S214001E8000225C601A73BDE8384072F053BC00BF95
S214001E90E8340120F8B505460F46164672F044FCB5
S214001EA0104B05F0FC02D3F828140023EC1804F0BD
S214001EB00304144321FA04FC1CF0010F07D001337D
S214001EC0042BF3D1FF2472F035FC2046F8BDFF2C1E
S214001ED0F9D0054B03EB04130122C3E901761A730C
S214001EE0F1E700BF00A00040E8340120054BD3F81E
S214001EF02804D3F81C24104000F05530C3F82404FE
S214001F00FFF782BF00A00040054BD3F82804D3F8A3
S214001F101C24104000F0AA30C3F82404FFF774BF56
S214001F2000A00040024B1968024B186868F024BBFA
S214001F302C1000202810002037B5920004460D46CD
S214001F40019272F06BFD431C0BD060B9019A2946D2
S214001F502046A7F007FA0028044808BF002003B070
S214001F6030BD0348FBE70348F9E700BF10E000F088
S214001F7021E000F024E000F013B5044601A802F0CA
S214001F80F5FB9DF80630238040F201136380074B73
S214001F90D3F8E4301B0E0A33012203F01F0302FAC3
S214001FA003F30020636002B010BD00BF0081E00FA5
S214001FB010B5044602F0E4FA431C17D0C0B90D4B26
S214001FC0D3F8E4301B0E0A3303F01F0201239340BC
S214001FD023F0030320462344984201D1002010BD7D
S214001FE050F8042B0132F7D00348F8E70348F6E729
S214001FF00348F4E70081E00F0EE000F021E000F077
S21400200024E000F008B572F088FB014B186008BDAC
S214002010283D0120014B186872F083BB283D012043
S21400202038B141B1013AB2F5006F044838BF00201C
S2140020307047034870470148704700BF037000F0C0
S214002040027000F038B504460D4672F06DFBA388AA
S2140020509BB223B92B6072F06DFB064838BD6388CF
S21400206014229BB202FB034408342C6072F062FB1D
S2140020700020F3E70B7000F0F8B5044616460F464E
S21400208072F052FBA388E2889BB29A42054605D8B6
S2140020900023336072F04EFB1748F8BD23881422E5
S2140020A09BB202FB034308333A4607F1100C17466F
S2140020B003CF6745186059603A4603F10803F6D126
S2140020C038681860238814229BB202FB0343083347
S2140020D033602388E2889BB20133B3FBF2F102FB44
S2140020E011339BB22380A38801339BB22846A3807A
S2140020F072F020FB0020D0E70A7000F013B51E4AED
S214002100002352F8044B94F8211081420ED001337C
S214002110042BF6D102B010BD0028FBD19DF8073085
S214002120002BF7D0A068FFF7ABFDF3E794F8353047
S214002130022BEFD1204672F02DF9637E2076022B1B
S214002140E8D194F8323003F0FF02002BE2D1A06809
S2140021508DF807200DF10701FFF7D2FD237E1BB196
S21400216094F83330002BD7D00023A06884F833309F
S214002170FFF7A6FDCEE700BFDC3D012030B51049D5
S214002180104A0B782BB9C2E90033C2E902330123A7
S2140021900B700C4C0023214651F8045B854208D096
S2140021A00133042BF8D1002154F8043B1BB942F844
S2140021B02100002003E001310429F5D1024830BD9A
S2140021C097E30120DC3D0120027000F010B50446C4
S2140021D0FFF720FD002104F10800FFF7EBFC0146A5
S2140021E020B904F10C00FFF7E5FC00B1004810BD73
S2140021F00E7000F070B5012380F8303090F836305D
S21400220086B004460E46ABB92046256872F04DF9F6
S2140022100B4B039300230293736801931C35012331
S214002220009332686169E06804942B4672F004F803
S21400223006B070BD012BE7D0002380F83030F7E7FA
S214002240C12C000010B5044680B190F832302BB98E
S21400225072F0A0F810B9A068FFF712FD94F83230BB
S2140022600133DBB284F83230002010BD0048FCE7B2
S214002270027000F010B50446A0B190F832309BB161
S21400228090F83230012B05D172F084F810B9A068AE
S214002290FFF716FD94F83230013BDBB284F832309B
S2140022A0002010BD0148FCE70148FAE7027000F084
S2140022B0057000F0F0B5094F05460C460FCF89B003
S2140022C001AE0FC697E8070086E80700002D00F06D
S2140022D0C3843CB9024E304609B0F0BD3C350B0015
S2140022E0037000F0602200212846A7F073F8284605
S2140022F0FFF744FF06460028EDD1237C85F83530ED
S21400230023682B6085F836002368A64A934240F07F
S2140023109381A54B6B62A54B2B614FF440236B61F9
S214002320D4E906230026AA621680AA6AA048568028
S214002330AA6A9680EB6285F830601E80EB6A5E8043
S214002340EB6A9E8085F8316085F833606368039396
S2140023506389ADF81430A389ADF81230A37B8DF8ED
S21400236010300121E37B8DF8163005278DF81170AB
S21400237000F0B0FD8F48012100F0ACFD686A012135
S21400238000F0A8FD01A920688DF8046072F04FFBEC
S2140023902368617A9A6F22F4F85222F01F020A43E9
S2140023A0217A42EA01229A6722687E49032353670C
S2140023B02A688A4240F05F81227ABA4240F27281ED
S2140023C0911F042940F27081A2F10B01B94240F23C
S2140023D06D81A2F11101062905D9183A072A98BF7E
S2140023E03B4688BFFF23EB76637A042B40F260817E
S2140023F05A1F042A40F25E81A3F10A02052A40F21F
S2140024005B81A3F11002062A40F25881A3F117025D
S214002410072A40F255811F3B18BF4FF0FF33DBB24F
S2140024202B77237A002B58D0012B56D0022B54D072
S214002430032B52D0042B50D0052B4ED0062B00F089
S2140024404981072B00F04881082B00F04781092BB3
S21400245000F046810A2B00F045810B2B00F05081DE
S2140024600C2B00F02F810D2B00F02E810E2B00F090
S2140024702D810F2B00F02C81102B00F02B81112BBF
S21400248000F02481122B00F02381132B00F0228110
S214002490142B00F02181152B00F02081162B00F064
S2140024A01F81172B00F01E81182B00F01D81192BA1
S2140024B000F01C811A2B00F01B811B2B00F01A81E8
S2140024C01C2B00F019811D2B00F018811E2B00F02C
S2140024D017811F2B0CBF0723FF23EB77637A002B94
S2140024E000F0A283012B00F0A183022B00F08A8368
S2140024F0032B00F08983042B00F08883052B00F063
S2140025008783062B00F08683072B00F08583082B35
S21400251000F08483092B00F083830A2B00F0688385
S2140025200B2B00F067830C2B00F066830D2B00F05E
S21400253065830E2B00F064830F2B00F06983102B4D
S21400254000F05C83112B00F05B83122B00F060839D
S214002550132B00F05F83142B00F05E83152B00F026
S2140025605D83162B00F05C83172B00F05B83182B23
S21400257000F05A83192B00F059831A2B00F042837F
S2140025801B2B00F041831C2B00F040831D2B00F01A
S2140025902F831E2B00F02E831F3B18BF4FF0FF33F8
S2140025A0DBB209E0000001400042040001000C001C
S2140025B04041050000350A0085F82030637C6B77C3
S2140025C0A37C85F82130E37CAB77237D85F8223029
S2140025D00121284671F06EFE064600287FF47BAE89
S2140025E072F0A2F8237C032B074640F0238323686F
S2140025F0228CDA672268536E43F00403536622681F
S214002600536F43F03003536723684FF0FF329A64EA
S214002610237C2068032B0CBF0521042172F000FAEE
S21400262023684FF44062DA602846FFF7CFFD06467F
S214002630384672F07FF84EE6B24A934206D1B24B65
S2140026406B62B24B2B614FF4502368E6B04A93425C
S21400265006D1B04B6B62B04B2B614FF460235EE645
S214002660AE4A93427FF436AEAD4B6B62AD4B2B61F8
S2140026704FF4702353E6A3498A4243D1227A052AAF
S21400268010D9911F04290FD9A2F10B0105290DD9E4
S214002690A2F1110106297FF6A6AE183A072A98BFBE
S2140026A005239EE633469EE601239CE602239AE631
S2140026B00023B5E60123B3E60223B1E60323AFE623
S2140026C00523ADE6072308E7082306E7092304E702
S2140026D00A2302E70B2300E70C23FEE60D23FCE6A5
S2140026E00E23FAE60F23F8E60023F6E60123F4E6C7
S2140026F00223F2E60323F0E60423EEE60523ECE6E7
S2140027000623EAE682498A4240F04081227A042A79
S21400271040F20A81531F032B40F20881A2F10903FD
S214002720042B40F20581A2F10E030E2B40F202812B
S2140027301D3A022A94BF0A23FF23EB76637A032B03
S21400274040F2FA801A1F032A40F2F880A3F108022A
S214002750042A40F2F580A3F10D020E2A40F2F28020
S214002760A3F11C02022A40F2EF801F3B18BF4FF075
S214002770FF33DBB22B77237A002B00F0ED80012BA2
S21400278000F0EC80022B00F0EB80032B00F0EA80D8
S214002790042B00F0E980052B00F0F480062B00F0F7
S2140027A0F380072B00F0D280082B00F0D180092B95
S2140027B000F0D4800A2B00F0D3800B2B00F0D280E0
S2140027C00C2B00F0D1800D2B00F0D0800E2B00F0EB
S2140027D0D9800F2B00F0D880102B00F0B980112B79
S2140027E000F0B880122B00F0B780132B00F0B680F4
S2140027F0142B00F0B580152B00F0B480162B00F0DB
S214002800B380172B00F0B280182B00F0B180192B84
S21400281000F0B0801A2B00F0AF801B2B00F0AE80CB
S2140028201C2B00F0AD801D2B00F0AC801E2B00F0A2
S214002830AB801F2B0CBF0223FF23EB77637A002BA2
S21400284000F0D681012B00F0D581022B00F0D48158
S214002850032B00F0D381042B00F0E481052B00F05D
S214002860E381062B00F0E281072B00F0CB81082BDA
S21400287000F0BE81092B00F0BD810A2B00F0BC8160
S2140028800B2B00F0BB810C2B00F0BA810D2B00F057
S214002890C9810E2B00F0C8810F2B00F0B381102BDE
S2140028A000F0B281112B00F0B181122B00F0A08154
S2140028B0132B00F09F81142B00F09E81152B00F047
S2140028C09D81162B00F09C81172B00F0A181182B00
S2140028D000F0A081192B00F09F811A2B00F09E813A
S2140028E01B2B00F09D811C2B00F09C811D2B00F003
S2140028F09B811E2B00F09A811F2B08BF052318BF53
S214002900FF2359E6000401400052040001000D00B8
S214002910000801400062040001000E00000C0140A7
S2140029200072040001000F00334606E7082304E7A0
S214002930012302E73B4600E700231BE7082319E7CD
S214002940012317E7052315E70A2313E7022374E795
S214002950032372E7042370E705236EE706236CE77C
S21400296007236AE7082368E7092366E70A2364E77C
S2140029700B2362E70C2360E70D235EE70E235CE77C
S2140029800F235AE7002358E7012356E7A8498A424F
S2140029907FF4A0AC227A072A1DD9A2F10803012BE6
S2140029A040F2EE80A2F10A03052B40F2EB80A2F182
S2140029B01003012B40F2E880A2F11203052B40F22F
S2140029C0E580A2F11803042B40F2E2801D3A022AA9
S2140029D094BF0A23FF23EB76637A062B40F2DA8055
S2140029E0DA1F012A40F2D880A3F10902052A40F234
S2140029F0D580A3F10F02012A40F2D280A3F1110282
S214002A00052A40F2CF80A3F11702042A40F2CC80B8
S214002A10A3F11C02022A40F2C9801F2B0CBF03231D
S214002A20FF232B77237A002B00F0C680012B00F0C3
S214002A30C580022B00F0C480032B00F0CB80042B53
S214002A4000F0CA80052B00F0C980062B00F0C88075
S214002A50072B00F0C780082B00F0B480092B00F08D
S214002A60B3800A2B00F0A4800B2B00F0A3800C2B65
S214002A7000F0A2800D2B00F0A1800E2B00F0A080AD
S214002A800F2B00F0A780102B00F0AA80112B00F06F
S214002A90A980122B00F0A880132B00F0A780142B1F
S214002AA000F09080152B00F08F80162B00F08E80A3
S214002AB0172B00F08D80182B00F08C80192B00F05F
S214002AC08B801A2B00F08A801B2B00F089801C2B31
S214002AD000F088801D2B00F087801E2B00F086807B
S214002AE01F2B0CBF0223FF23EB77637A002B00F02B
S214002AF08580012B00F08480022B00F08980032B58
S214002B0000F08880042B00F08780052B00F086807C
S214002B10062B00F08580072B00F08880082B71D0EC
S214002B20092B65D00A2B65D00B2B65D00C2B65D0F6
S214002B300D2B65D00E2B6BD00F2B6FD0102B6FD0BC
S214002B40112B6FD0122B6FD0132B6FD0142B59D0A4
S214002B50152B59D0162B59D0172B59D0182B59D0C6
S214002B60192B59D01A2B59D01B2B59D01C2B59D0A6
S214002B701D2B59D01E2B59D01F2B08BF0823BEE68D
S214002B80082328E7012326E7092324E7022322E770
S214002B90052320E7032344E7082342E7012340E711
S214002BA009233EE702233CE705233AE70A2338E7F2
S214002BB0062399E7072397E7082395E7092393E772
S214002BC00A2391E702238FE703238DE704238BE78D
S214002BD0052389E70B2387E70C2385E70D2383E787
S214002BE00E2381E70F237FE700237DE701237BE7A2
S214002BF00623E1E40723DFE40823DDE40923DBE41E
S214002C000A23D9E40323D7E40423D5E40523D3E435
S214002C100B23D1E40C23CFE40D23CDE40E23CBE429
S214002C200F23C9E40023C7E40123C5E40223C3E459
S214002C30000C0140022B7FF4E7AC95F82100084910
S214002C40FFF716F9FFF7FCF84FF400732B83AE7608
S214002C50284671F024FDD7E4024EFFF73CBB00BFC8
S214002C60FD200000027000F0F0B587B0054616465D
S214002C70FFF7D6F90446F0B9CDE901160493A86A21
S214002C800E4B03966A4601A90593FFF7F5F904462D
S214002C9088B995F8303073B9284671F0B2FB0099C0
S214002CA02846FFF7A7FA95F83530032B03D02C7685
S214002CB0284671F0F4FC204607B0F0BD017000F025
S214002CC073B5906A01A91446FFF7BCF9054620467D
S214002CD071F0D1FB354B9D4230D094F83610019BF5
S214002CE0002938D12068026C12F4007229D0304ACC
S214002CF01A61996023684FF400729A6471F014FDAB
S214002D000199CD68064635B14A688B682046D31AC5
S214002D100A680969A847A06A01A971F0DFFBA06AE2
S214002D208588ADB2002D32D001A9FFF78BF9019945
S214002D302046FFF75FFA304671F0FCFC012002B037
S214002D4070BD016CC8051ED51A499A6019612368C2
S214002D504FF48072D1E7012915D12168CA6A12F0B2
S214002D60800207D0124A1A6100229A6023688022E5
S214002D705A63C3E7C96A490605D50E499A601961C0
S214002D8023684022F4E700221A619A60B6E701231E
S214002D902376204671F083FC94F8353084F8305062
S214002DA0032BC8D0204671F04CFBC4E70B7000F034
S214002DB00D7000F00C7000F00C4B984210D90C4BC4
S214002DC0984210D9022201230A490B640A49D1F815
S214002DD0003123F0807343EA0263C1F80031704784
S214002DE000221346F0E70122FBE700BF0048E80197
S214002DF00090D0030000C84300400E4030B50F4B93
S214002E005B680F4B00221C46C9B21D798D4202D169
S214002E101D6885420DD20132052A03F10803F4D15C
S214002E20032206494B6823F0407343EA02634B6073
S214002E3030BD04EBC2025279F3E700BF00000E403B
S214002E4094350B0070B5084C41F67136256C266437
S214002E50FEF742FD0021FFF7D1FFADB2B5421CBF21
S214002E600023236470BD00BF00000E40044BDB6BE4
S214002E705B0604D4034AD2F8C830002BFBD1704757
S214002E8000300E400000C64308B5FFF7EFFF024BC8
S214002E905868C0F3014008BD00300E40044BD3F81C
S214002EA04421D20703D4D3F840211042FBD1704707
S214002EB000400E4070B5064C41F67136256C26640F
S214002EC0FFF79CFFADB2B5421CBF0023236470BD64
S214002ED000000E4038B5C0F30323013B092B16D87B
S214002EE0DFE803F02616151505191C151F23124CCE
S214002EF00023C0F3043513B11846FFF7CFFF04F1E3
S214002F00424404F5801405EBC404A400216038BDD7
S214002F100A4C0023EDE70A4C0123EAE7094C10238C
S214002F20E7E7094C4FF48033E3E7084C0023E0E77B
S214002F30074C0023DDE700BFB0400E40C0400E4007
S214002F40E0400E40E8400E40F0400E4050410E403B
S214002F5000400E40C0F30313013B092B2AD8DFE8DC
S214002F6003F0050B0F1929291F23374B274BD3F8DE
S214002F700001C0F304207047244BD3F81401F8E78F
S214002F80224BD3F80001C0F30060431C0120984098
S214002F90013870471D4BD3F80C01C0F3082070476A
S214002FA01A4BD3F80801F8E7194B984204D0194B8E
S214002FB0984207D000207047144BD3F8203103F016
S214002FC00F03E3E7114BD3F82031C3F30113DDE71A
S214002FD0114B98420CD003F5B01303F5805398427A
S214002FE0E8D10A4BD3F82801C0F30120031DCDE732
S214002FF0064BD3F82831E8E7084B9842DAD1034B62
S214003000D3F8300100F00300704700BF00400E40C8
S2140030108006160080162E0090171A00A0091400CD
S21400302000F00F000138072844D8DFE800F0040F4E
S2140030301943232D4335244BD3F8943003F007036C
S214003040023B052B38D8214AD05C70471E4BD3F87C
S214003050803003F00703013B032B2FD81C4AF3E70D
S214003060194BD3F8843003F00703013B032B25D814
S214003070184AE9E7144BD3F8883003F00703013BFE
S214003080032B1BD8144ADFE70F4B1B6F13F0010FFF
S2140030900CBF0720092070470B4BD3F85C3103F0B8
S2140030A03003202B0CD0302B0CD0102B14BF01205B
S2140030B007207047002070470520704701207047A2
S2140030C0042070470820704700400E4068350B000B
S2140030D06E350B0072350B006E350B0008B50146D9
S2140030E0FFF79EFF1A4B994211D01A4B994212D005
S2140030F0194B994204D1194BD3F8800000F0070011
S2140031000138032821D8DFE800F00A0E1612134B08
S214003110D3F88400F2E7114BD3F88800EEE7BDE859
S214003120084070F0AEBFBDE80840FEF739BCBDE809
S214003130084070F0A9BFFEF7D3FB084BD3F8003168
S214003140C3F300630133D84008BD0020FCE700BF8E
S214003150030020000500240002001E0000400E4070
S21400316000F47813B3F5B01F10B5044674D025D814
S214003170B3F5402F5ED010D8B3F5802F49D005D8D0
S2140031803BB1B3F5003F4FD0002010BDB3F5202F64
S214003190FAD1BDE81040FEF7A3BBB3F5801F00F0E0
S2140031A08480B3F5A01F4DD0B3F5602FECD14A480C
S2140031B0FFF736FF072878D00928E9E7B3F5381F68
S2140031C053D013D8B3F5001F58D00AD8B3F5D01F84
S2140031D056D0B3F5F01FD7D14048BDE81040FFF7F2
S2140031E07DBFB3F5101FCFD13D48F6E7B3F5481FB6
S2140031F04DD0B3F5781F65D0B3F5401FC4D139481C
S214003200FFF76CFF384BD3F82831C3F301230433A0
S21400321020E0FEF765FB344BD3F80C31C3F30823EC
S2140032200133B0FBF3F0B0E7FEF75AFB2E4BD3F8B2
S2140032300831F3E7FEF754FB2B4BD3F81431C3F3F6
S2140032400423EDE72648FFF749FF274BD3F8303134
S21400325003F00303D84098E72048FFF73FFF224BD0
S214003260D3F8203103F00F03F4E71C48FFF736FFCE
S2140032701D4BD3F82031C3F30113EBE71948ACE735
S2140032801848FFF72BFF184BD3F82831F3E71748F9
S214003290FFF7C6FE072808D0082809D004287FF4C0
S2140032A073AFBDE81040FEF757BB114B18686CE7CC
S2140032B0FEF716FB0C4BD3F80031C3F3042303FBD5
S2140032C0000062E7FEF70CFB0146204671F020FA8C
S2140032D0B1FBF0F059E700BF06000E0002001E002A
S2140032E0050024000300200000400E40B800320015
S2140032F04C10002010B5FFF7A5FD094B07225A67B2
S214003300FEF7EEFAFFF758FDFEF714FB0446FFF74C
S214003310BBFD01462046BDE81040FFF7CBBD00BF11
S21400332000400E4008B5FFF77BFE02280ABF024B9E
S2140033304FF6FF70188808BDD4140020014B188083
S214003340704700BFD4140020013810B5032812D8E7
S214003350DFE800F0022E1220214AC1F30801D2F85D
S2140033606838002BFBD11F4A136A23F4FF7323F03F
S21400337001031943116210BD194A01F07F01D2F80A
S2140033806038002BFBD1174A136923F07F031943DB
S2140033901161F0E7124A01F07F01D2F86438002B81
S2140033A0FBD1104A936923F07F0319439161E2E74A
S2140033B00C4AD2F89030536A23F0300343F01003DF
S2140033C05362146B084BC1F3C31003300F2803EA93
S2140033D0040328BF0F20194341EA00711163CAE7AE
S2140033E00020C84300400E4000F8FF0F104A536A02
S2140033F013F0300F18D0202913D0302914D000290C
S2140034000C4B08BF4FF44003D2F8901033EA01018A
S214003410FAD15B0246BFD2F8A000C0F3802001209C
S21400342070474FF40003EFE74FF44003ECE700BFAC
S21400343000400E40FF33E10702280AD129B1064BAF
S2140034404FF48060C3F8A800596612B10220FFF757
S214003450CDBF0120704700BF00400E400428F8B5DD
S21400346045D8314B314F13F800C0314B1B5C002957
S21400347043D0304C022834F8106039D17C6A14F0FE
S214003480300F35D12C4CE46B7C6AE40705D57D6A99
S21400349025F0300545F010057D62244C2666274C45
S2140034A023449B001D68002DFCD002B36444A40096
S2140034B02368002BFCD0022819D1C1B11B4D696AC4
S2140034C011F0010116D001222021FFF7B5FFD5F833
S2140034D09C70012200210220FFF7C0FFC7F30A01FB
S2140034E00220FFF731FF2E662368002BFCD0F8BDC4
S2140034F00021D2E7FFF77AFFE9E7114931F810100B
S2140035003966012101FA03F3D7F890101942FBD16E
S214003510002AECD00124054A04FA0CF4D2F89030C4
S2140035202342FBD1E3E700BF76350B0000400E4098
S2140035307B350B0080350B0000300E408004F21007
S2140035408A350B0010B50446C0B901221146FFF7B4
S21400355085FFFFF777FCB4B90D4B04225A67FEF7D8
S214003560BFF9FFF729FCFEF7E5F90446FFF78CFCE8
S21400357001462046BDE81040FFF79CBC0128E8D174
S21400358002460146E3E7012CE9D1014B0322E5E7B9
S21400359000400E4038B5FEF7DFF90021044600F083
S2140035A0D5FB1248FFF708FC012211460220FFF760
S2140035B055FFFFF747FC0CB1FFF758FC0C4B0222F7
S2140035C05A67FEF78DF9FFF7F7FBFEF7B3F90546E6
S2140035D0FFF75AFC01462846FFF76CFC2CB920463C
S2140035E00121BDE8384000F0B1BB38BD0148E80114
S2140035F000400E40012210B511460320FFF72EFFB3
S214003600FFF720FC084B05225A67FEF769F9FFF71B
S214003610D3FBFEF78FF90446FFF736FC014620463B
S214003620BDE81040FFF746BC00400E40112838B5F4
S2140036300C4615D000F00F000138072869D8DFE8DF
S21400364000F02B0464686283688E5E4D013C092C92
S2140036505FD8DFE804F0775F665E5E6D5E5E5E5C98
S214003660042912D1FEF778F90546A8B100212846AC
S21400367000F06CFB023C0A2C4BD8DFE804F03F3C21
S21400368030364A4A4A4A4A0F4200052904D14E4B70
S2140036901D684E4B9D42E9D80025EBE70320052424
S2140036A001221146FFF7DAFEFFF7CCFB0DB1FFF75C
S2140036B0DDFB474B5C67FEF73DF90446FEF710F965
S2140036C0FFF77AFBFFF7E0FB01462046FFF7F2FB29
S2140036D0FDB928460121BDE8384000F037BB3D481B
S2140036E0FFF76AFB02200446DAE73A48FFF764FB76
S2140036F001240320D4E701200324D1E7002004247A
S214003700CEE70724D0E7344DA0E7344D9EE70423E8
S2140037102B6038BD012211460020FFF79FFE0223D2
S214003720F6E7012211461046FFF798FE0123EFE761
S214003730FEF7D6F8FFF740FB294B0122C3F8082610
S2140037400323E5E70023E3E7072904D00929E0D1AE
S2140037501F4B012201E01E4B00221A67D9E74C1EC0
S214003760072CD6D801A353F824F000BFBF370000BB
S2140037701337000013370000B1370000133700007E
S21400378013370000A33700008D37000003221049CE
S214003790D1F85C3123F0300343EA0213C1F85C3100
S2140037A0B7E7012211460420FFF758FE0122EEE794
S2140037B0012211460220FFF751FE0222E7E700220F
S2140037C0E5E700BF80400E4020100020002D3101AC
S2140037D000400E400148E80188400E4084400E40FC
S2140037E00010C84310B504461120FFF719FC00214D
S2140037F001220220FFF732FE184A217C536A23F08A
S2140038000103022908BF43F001035362144B2178D9
S214003810C3F8A014A188637A43EAC123D362136B6A
S214003820A07A217A03F07F630343E08843EAC0234B
S21400383043EAC11303310F2928BF0F2143EA01735E
S2140038401363A37B617B1B0143EA0133E17B0B43DC
S214003850217B43EA0143536310BD00BF00400E4086
S2140038600000C84338B50E4D01461120FFF7D8FBBF
S214003870AA6B0C4B0C7813401C434B7844EAC324C9
S2140038808B7844EA0364CB7844EA0324AB6BA34208
S21400389005D0002101220846FFF7E0FDAC6338BDE5
S2140038A000400E4080E4FFF80028A7BF00F160400B
S2140038B000F5614000F00F00034BACBF90F800032A
S2140038C0185C4009704700BF14ED00E04209054B44
S2140038D053F8223000F01F0023FA00F0C04300F037
S2140038E00100704700E100E008B50146EFF31083E1
S2140038F0DB0702D50122104608BDFFF7E7FF0246A8
S2140039000028F7D10846FFF7CFFF0146EFF31183F3
S21400391013B1B0EB531FEDD2074B5B68C3F308033C
S214003920002BE8D0103B58B2FFF7BEFF88428CBF92
S21400393000220122DFE700BF00ED00E0034BD86B5A
S21400394080F04000C0F38010704700BF00300E408B
S21400395042EA0323B3F5007F39D016D8B3F5807F4B
S21400396031D007D85BB3012B1ED00022134603606C
S2140039700A60704740F201129342F6D1184BD3F812
S21400398024321A0EC3F30743F1E7B3F5407F22D083
S21400399040F2013293420ED040F201229342E4D12B
S2140039A00F4BD3F8283202E00D4BD3F82432C3F382
S2140039B00722DBB2DBE70A4BD3F82832E1E7084BF5
S2140039C0D3F81C32F3E7064BD3F81C32D9E7044B86
S2140039D0D3F82032EBE7024BD3F82032D1E700BF12
S2140039E00081E00F08B5FFF7A9FF20B1024AD2F820
S2140039F0C830002BFBD108BD0000C64308B5FFF752
S214003A009DFF80B1FFF7EEFF074B19685A68C1F3B8
S214003A100121C2F3014291421A688CBF42F01002A3
S214003A2022F010021A6008BD00300E40064B1B68DC
S214003A30DB0608D5054B1B69C3F30443082B02BFFE
S214003A40034B044A1A60704700300E4000400E4098
S214003A5020100020C0EA210137B5FFF76FFF38B10C
S214003A602E4B1B78C3F10202102393402C4A13619D
S214003A702C492D4DD1F8804145F60E03C1F8803112
S214003A802B6823F0AA03DB05DB0D0B66FFF7AAFF06
S214003A90234B1B68D80604F0010416D5D1F8403134
S214003AA0DA01FBD4214B1B680B61214B1B78052BDD
S214003AB00BD1204B18680190FFF794FF184B019824
S214003AC05968C1F30141FFF7F5F9194B1B78023B22
S214003AD00A2B0AD8DFE803F00616180909090909AF
S214003AE0091B1E000020FFF72DFD2B68DB075EBFBD
S214003AF00C4B02221A661CB10A4B0022C3F8802126
S214003B0003B030BD0120EEE7FFF744FDEDE7FFF719
S214003B1071FDEAE7FFF7EEFBE7E700BF9AE3012057
S214003B2000300E4000400E40EC3D0120F03D0120EC
S214003B3098E301202010002010B50B4C0B4BD4F856
S214003B4090201A601120FFF76BFA094B1870FFF7E8
S214003B5049FF084B084A5B68C3F301431370074BE1
S214003B6022691A6010BD00BF00400E40EC3D0120E7
S214003B7098E3012000300E409AE30120F03D01203A
S214003B80064A4178136823F4407343EA012313601E
S214003B904378022B04BF024B5B6A704700300E402E
S214003BA000400E4010B5044608B1FFF7C5FFFFF70A
S214003BB025FF164A136943F00403136170F005FFEE
S214003BC070F004FF124B1B68DB0618D570F0A5FDDD
S214003BD0AFF04EFC70F0A5FD70F0F9FE04F08CFE20
S214003BE07CB1FFF739FF0A4AD2F84C3123F0004384
S214003BF0C2F84C3144B9BDE81040FDF79BBE30BF5B
S214003C00EAE7FFF713FFEEE710BD00BF00ED00E0A8
S214003C1000300E4038B5044608B1FFF78DFFFFF7B9
S214003C20EDFE1B4B1B4DD3F8802145F60E01D20747
S214003C30C3F8801148BF00224FF42071196648BFB0
S214003C40C3F88021144A136943F00403136170F02B
S214003C50BCFE2B68DB0615D570F05FFDAFF008FCE8
S214003C6070F05FFD04F048FE74B1FFF7F5FED5F87E
S214003C704C3123F00043C5F84C3144B9BDE8384018
S214003C80FDF758BE30BFEDE7FFF7D0FEEFE738BDD3
S214003C9000400E4000300E4000ED00E070B50378A6
S214003CA0124A002B4378946914BF04260026002B82
S214003CB0837814BF02250025002B037924F03F04E7
S214003CC043EA0403C47814BF08210021012C08BF6E
S214003CD043F0010333432B430B439361136841794D
S214003CE023F4403343EA0143136070BD00300E40B6
S214003CF070B504460E46FFF721FE10B3FFF772FEBE
S214003D00104B5B68C3F301439C421AD00E4BD3F8AA
S214003D100031FDF7E5FD022C054602D12146FFF7EE
S214003D20C9F8C4F1020210239340064A13610EB18B
S214003D30FFF758FE2CB921462846BDE87040FFF72D
S214003D40B9B870BD00300E4000400E4013B50246B4
S214003D50FFF7F4FDC8B152B90D4B0191D3F80041FD
S214003D60FDF7BEFDC4F30422019902FB0002094BD5
S214003D701B7843B1084B9A4205D8022002B0BDE832
S214003D801040FFF7B5BF0020F8E702B010BD00BF37
S214003D9000400E4099E30120002D3101034B0278CC
S214003DA01A7001210020FFF7D1BF00BF99E3012060
S214003DB010B5224B4AF6E852596B5A639A6FD207EF
S214003DC0FCD41B6C13F003031EBF1D4A0124C2F86B
S214003DD0B44A834204D110B9194BC3F8B40A10BDD3
S214003DE0032B00D09BB9431E012B10D8134A4FF467
S214003DF00023D362936FDB07FCD4136C23F003031A
S214003E0043F0010313640D4A536A1C03FCD50B4BA5
S214003E109A6FD207FCD41A6C22F0030202431A648B
S214003E209A6F12F00102FBD10038054C18BF012032
S214003E300129C4F8B40A08BF5A63D0E700300E4020
S214003E400000C6432DE9F04F002389B0CDE90233C8
S214003E50CDE90433CDE90633A0F5E163B3F5966FFB
S214003E6004460D46914604D90025284609B0BDE80B
S214003E70F08FB0F5E16F674B8CBF0122002240F057
S214003E80BC80D3F81832C3F30721DBB20791049342
S214003E904FF4167A4FF4966BDFF87C81D8F84C70A6
S214003EA00192C7F301773B4605A902A8FFF750FD2C
S214003EB0D8F8EC60019AC6F30126334606A903A893
S214003EC0FFF746FD049B0799A4EB0B0EA1EB030C32
S214003ED00EFB0CFCBCFBFAF213EB020C2CBF01230E
S214003EE000236145C0D3002BBED1069A0398131A4F
S214003EF00EFB03F3B3FBFAF3C0182CBF0123002319
S214003F008242B1D3002BAFD1059B02995A1A0EFB01
S214003F1002FEBEFBFAFA11EB0A012CBF4FF0010EAF
S214003F204FF0000E8B429FD3BEF1000F9CD1B9F12B
S214003F30000F10D0D8F85C2022F4FE4222F00202D5
S214003F40B4F5E16F42EA0C2218BF4FF0020E42EAC7
S214003F500E02C8F85C20002D4DD02E4B022FD3F851
S214003F6030223ED0032F3FD0012F14BFD2B2C2F36F
S214003F700722120312F4702F7FF476AF264FFB6EE3
S214003F8023F470431A43234BFA66022ED3F83022EA
S214003F902CD0032E2DD0012E14BFD2B2C2F307228E
S214003FA0120312F4702F7FF45FAF1B4ED6F8EC307E
S214003FB023F470431A43C6F8EC20736E814238BF70
S214003FC0014623F4FF73E72923F0010328BFE72106
S214003FD0B4F5E16F18BF43F0010343EA410373668B
S214003FE043E7C2F30742C4E7120EC2E7C2F3074232
S214003FF0D6E7120ED4E7012537E7D3F81832190EA4
S214004000C3F30743079104934FF4966A4FF4E16BAA
S21400401042E700BF0081E00F00300E40304B1A6FC1
S214004020D96C11F0010F02F0060244D0002A42D0EB
S214004030132851D9143813288CBF10230823284975
S214004040013BCA6C180322F47F4240EA0323134361
S214004050CB64244BCA6C1B88C2F30322283301327C
S21400406002EB820003EB5303B3FBF0F3C86C013B97
S214004070072B28BF072320F0EE6040EA036343F4D3
S2140040808013CB64184BB3F90030002B12DB03F11E
S2140040902800C0F34E030344500800EB4202B3FB73
S2140040A0F2F20B6D072A28BF072223F0700343EABB
S2140040B002120A657047D96C01F00101114304D160
S2140040C0092809D90A380928B6E7DB6C13F001037A
S2140040D0B5D01AB92728AFE70423B0E70023AEE728
S2140040E000300E40D6E20120D8E20120064A074BF7
S2140040F0D3F88039136F23F007031843044B106777
S2140041001888FFF78BBF00BF00300E400000C64384
S214004110D4E2012038B5374A02239363936B03F049
S2140041200F03022B044602D00025284638BDE3883C
S214004130B0F90C004A2B50D9B3F5FA7F4FD340F6AE
S214004140C3118B4294BF4FF000514FF04051D36CD7
S21400415023F0405323F001030028A8BF43F00103D7
S2140041600B43D364D2F8EC3043F44073C2F8EC301F
S214004170214BA1881980D36E43F08073D3661F4B02
S214004180D3F8800900B10420FFF7B0FF1C4B21894B
S21400419019801C4BB4F90C20A0881A80FFF73EFF4C
S2140041A0A37BFBB1012B21D0012260881146FFF7CB
S2140041B049FE05460028B7D00E4AD36B43F4806309
S2140041C0D3636078FFF7F4FDA37AA3F1200253428D
S2140041D053410A4AC2F89437A7E70021B7E74FF0E1
S2140041E08051B4E7034B084A9A65DDE7014B074A5E
S2140041F0FAE700BF00300E40D4E201200000C643BC
S214004200D6E20120D8E2012077402057372110B7A8
S214004210072AF8B501F0030614461F464FF00F01B3
S21400422020D8950000FA05F2A940164870F0D4FB95
S2140042300321154806FA05F2A94070F0CDFB134994
S2140042409DF818302144890001220F60C1F88030A3
S2140042500F4B02FA04F4C3F824449DF81C30C1F84E
S2140042600033F8BDA2F10805AD0000FA05F2A9403A
S214004270084870F0B1FB0321074806FA05F2A9408A
S214004280DBE700BF00A4004008A4004080208510A3
S21400429000A0004004A400400CA4004000EB400036
S2140042A0F8B50D461F46040116463AB116480123D6
S2140042B08B402044CFB100F1C0600360072D4FF063
S2140042C00F0115D8AB00114806FA03F299402044B6
S2140042D070F082FB46B90C4A012101FA05F522442A
S2140042E077B102F1C0621560F8BD00F18060E4E7C6
S2140042F0A5F108039B00064806FA03F29940E6E794
S21400430002F18062EFE700BF0CA0004004A000406E
S21400431008A00040034B03449B0081F00101196094
S214004320704700BFA001F11010B5044601214FF4FC
S214004330AA40FEF7CFFDB4F8013022785BBA9BB2F4
S21400434043EA02630B4A136000231362D36253638B
S2140043504FF00043D3664FF0FF339366064A4FF4A0
S2140043600071C2F88011E3785B01DBB282F8093392
S214004370116010BD00200E4000E100E070B5C3B231
S214004380234E01259D40B5660B680C46302101FB87
S214004390006022F00302C0F88030637BC0F88830EB
S2140043A0E37AA17A1B0543EA0143217B43EA4153A2
S2140043B0C0F88430C0F8982070F0B6F9F36E2B433E
S2140043C0F366237A13B1736B2B437363637A13B16B
S2140043D0F36A2B43F3620E4B1A68237923B1DB434F
S2140043E01B0263F47F431A4063790BB142EA03224F
S2140043F0A3790BB122EA0302E3791A43044B1A604D
S214004400044A9562DD63BDE8704070F093B900BF62
S21400441000200E4000200E44F8B5C3B20125044625
S2140044209D4070F081F90A4B30221E6E9F6A02FB97
S2140044300433D3F88C4070F07DF93D4206D1C4F3C6
S2140044400A1008B9354200D10130F8BD0020FCE75B
S21400445000200E40054B5A685B68054B41F67132EA
S2140044601A649A6822F001029A60704700300E4083
S21400447000000E40034B9A6822F001029A60002268
S2140044801A64704700000E40094A0A4BD969C907EA
S21400449005D512B96FF002007047013AF6E7002A18
S2140044A0F8D001221861DA60D86940F380007047BE
S2140044B08096980000000E4070B5C1B10E4A0023E9
S2140044C0082550F8234094610C4CD5600133D6691A
S2140044D0F60705D514B96FF0020009E0013CF6E7CF
S2140044E0002CF8D0D469A40703D49942E9D100205F
S2140044F070BD6FF00100FBE700000E40809698004C
S2140045002DE9F8431C4B884641F671311D6C196441
S2140045101A49074648684968996841F00101ADB2F2
S214004520996096084FF00009B14501D3002005E0D8
S21400453007EB89042046FFF7A7FF48B10E4B9A68A1
S21400454022F001029A600DB100221A64BDE8F883D9
S214004550C4F30A04C4F50064A408A6EB0901A1424A
S21400456028BF21464046FFF7A7FF0028E6D189442A
S21400457008EB8108D8E700BF00000E4000300E4070
S21400458010B5234B41F671311A6C196421494C68F9
S2140045904968996841F00101996001211861D96064
S2140045A0D9694C0792B209D5996821F00101996042
S2140045B00AB100221A644FF0FF3026E00221D960CB
S2140045C01549D869C00700D569B9D86910F0020046
S2140045D00BD0996821F0010199600AB100221A6493
S2140045E06FF0010011E00139EBE741B9986820F05F
S2140045F00100986002B119646FF0020005E0996846
S21400460021F0010199600AB1186410BD1046FCE75C
S21400461000000E4000300E408096980002F0070220
S21400462042EA035201F4FE41024B14300A4343F8B7
S2140046302020704700600E40074B002047F60772A8
S21400464000F1140153F821100A4204D001300C285E
S214004650F6D14FF0FF30704700600E40014B01224C
S2140046609A60704700500E40F0B5134B13495D68D2
S214004670134E00221046D6F8E8714C680B687F0788
S2140046800BD4B3F5006F06D012D8B3F5007F02D076
S214004690B3F5806F01D144F480742B4202D02C42D3
S2140046A008BF18430132092A01F10801E3D1F0BD21
S2140046B0B3F5803FEEE700BF00500E40BC350B0060
S2140046C00040E00F8B784A789B0143EA82030A7821
S2140046D01343CA7843EA02130A7943EAC2234A79A3
S2140046E043EA02338A79043043EA42430001014A2E
S2140046F01350704700200440014B1860704700BFFD
S21400470000008442427801790378002A827870B5E6
S21400471014BF04260026002AC27814BF10250025E0
S214004720002A42794FEA023242EA012242EA0302B2
S214004730837914BF20240024002BC37942EA034364
S21400474043EA0603027A43EA050314BF4FF4004126
S21400475000212343002A14BF4FF4003200220B43EB
S2140047601343014A136070BD002004400D4AD2F87E
S214004770E430D2F8E0109B0003F03C03C1F3811153
S2140047800B438370D2F8E03003F03F034370D2F857
S214004790E830D2F8EC2003F0F003C2F30312134320
S2140047A00370704700FF0FE070B5054616461C46BE
S2140047B019B91448FEF7D4FC0146402C1BD003D888
S2140047C0DCB1202C1BD070BD602CFCD1042303FB75
S2140047D006F2560806EB4113B3FBF2F30A4A203BF7
S2140047E002EAC3032A6822F060022A602A68144399
S2140047F02C606B61E7E70623E9E71023E7E7082369
S214004800E5E700BF40410500F8FF7F0038B50546E4
S214004810144619B90548FEF7A3FC014601396400A1
S214004820B1FBF4F10902696138BD00BF40410500E3
S21400483040F6AA63C36041F20502002303604260AB
S214004840104A83604361C364826403664367836778
S214004850C3670D4B0D4A984209D0904207D003F526
S2140048600063984203D003F58063984201D1002389
S214004870036500239042836502D0054A904200D12A
S214004880C3657047F9FF01000000014000040140C5
S214004890000C01404111064A012300F01F0003FAF4
S2140048A000F052F82130184342F82100704700BF4C
S2140048B0F43D0120044B1B681BB1044B0360002031
S2140048C070470120704700BF043E0120DAE2012055
S2140048D070B50D4C246884B10C4C26888518B542FA
S2140048E00DDC6688CD18B54209DC52B14BB1A0800C
S2140048F0E18022816381002070BD0120FCE7042056
S214004900FAE70520F8E700BF043E0120DAE20120BE
S2140049102DE9F74F1E46434B1B689046002B7AD076
S214004920DFF808A1BAF80A20BAF80840531A634319
S2140049301B1AB34271D3BAF806301A4492B25F1803
S2140049400192BFB200244FF001091EB9304603B0F1
S214004950BDE8F08F019ABBB2934260D2324BBAF8F0
S214004960085003EB0712BAF804302D1AB542184463
S21400497028BF354683B24007A6EB050603D161077C
S21400498001D1072D26D81D441B1B191989B2A9422F
S21400499005D33846FFF77EFF01370020D5E74FEAFC
S2140049A0E40E4FEAD10C18F80EE012F90C0004F0F1
S2140049B0070B01F0070109FA01F14EFA0BFE49B2A6
S2140049C01EF0010F14BF014320EA010102F80C108B
S2140049D00134DAE702EBD3034FEAD50B5A4608EB6D
S2140049E0E4011846A4F0CEFC25F00702AD1A0346F3
S2140049F01444CED0E01009FA05F218F80000D2B23E
S214004A00511E014013F80B00524202400A4303F8BD
S214004A100B202C44BDE7012698E7032696E70426DC
S214004A2094E700BF043E01209BE30120DAE2012068
S214004A302DE9F74F0093444B1B68002B7FD0DFF81F
S214004A4010910D9FB9F80630B9F80A205D181A447F
S214004A501FFA82FAADB24FF0010B1FB9384603B009
S214004A60BDE8F08FABB29A456BD9384AB9F8084022
S214004A70B9F80430241A02EB0511009ABC4228BF8C
S214004A803C46161E18BF012603447642072CA7EBA9
S214004A9004079BB2F6B221D81C44BEB9A34217D273
S214004AA0DE0803F007020BFA02F08A5D013322EA01
S214004AB000028A559BB2F1E7D80803F007020E5CA5
S214004AC00BFA02F2324301330A549BB2A342F3D3E9
S214004AD02846FFF7DFFE01350020BEE74FEAD30C7D
S214004AE001EBD30813F0070310D00BFA03F211F80A
S214004AF00CE0D2B2501E52420EEA00003240104382
S214004B00083B01F80C0008F101081C44E20809D033
S214004B10314640460192A4F05DFC14F00704019A69
S214004B20D6D090440BFA04F498F80030E4B262420F
S214004B30013C134034401C4388F80040C8E7012776
S214004B408CE704278AE700BF043E01209BE3012090
S214004B50DAE2012037B5124D2B68FBB9FCF758FC9A
S214004B60044618B10124204603B030BDFCF744FCCF
S214004B7028600028F6D0028841880A4B1A801A81DD
S214004B804A4359809C80DC8059812046CDE900420A
S214004B90234622462146FFF74BFFE4E70024E2E7E0
S214004BA0043E0120DAE201202DE9F8431B4FDFF82E
S214004BB074803C68DFF86890002301251A46D8F810
S214004BC000004188D6188E4207D3FBB9134810223E
S214004BD00021A4F0FFFB002012E0E10708D5013316
S214004BE0D118C9060ABF57F8254064080135E6E71C
S214004BF053B109EB0211FCF7A3FB034610B10720E3
S214004C00BDE8F883721CEBE70132E9E7044901EBE3
S214004C100211FCF795FB0028D8D0F0E7F43D012000
S214004C209BE30120043E012030B5054687B000B363
S214004C3000226FF07F43C0E9012301A8FFF73AFE88
S214004C40044698B9CDE90200019B2B601A88013A08
S214004C5004925B8802A9013B284605936FF0BBFFD0
S214004C60044618B90449284670F00BF9204607B0E8
S214004C7030BD0524FAE700BF04360B0038B50446FD
S214004C80ADF037FC0FCC044D0FC594E80F0085E857
S214004C900F00002038BD00BF083E012047F6FF7316
S214004CA09A42F0B56BD002296BD8374D05EBC1069A
S214004CB015F83130B078012838BF0120012B4FEAB3
S214004CC0C107044613D1F3781B1A0020984202D37A
S214004CD0E018C0B2F0BD191AA3EB5101756835F99A
S214004CE011509542CCBF01F1FF330846EEE77068DD
S214004CF00028EFD0B0F90030934204DBB0F9023060
S214004D009342B8BF13468288FF2A04BFB0F9061044
S214004D10B0F908C03D440FBF01260026C8214FF059
S214004D20280C6D78CA1A92FBFCF2324412B29542F5
S214004D3001DD002A01DA6A1E12B24FF47A7700EB20
S214004D40C2060132F188B66812B213FB016121EA8D
S214004D50E171954201F5FA71B1FBF7F104DD00EB64
S214004D60C206B6888E42EAD200EBC20232F8040CC3
S214004D70884228BF0846A04238BF2046A9E7FF2041
S214004D80A8E70020A6E700BF083E01200229F0B5EC
S214004D905FD8314B13F83100012816D103EBC1015F
S214004DA08C78C878012C234638BF0123904294BFE4
S214004DB0C3EB0003C3EB0203DBB2001B4A6883426B
S214004DC0C8BF002332F91300F0BD002A3FD003EB22
S214004DD0C1014B68002B3CD08878904202D3B3F9CF
S214004DE00200F1E7CC78B3F900009442ECD94C7895
S214004DF09988A1F1FF06013C714203F10405E4B273
S214004E00714103F10C071FFA82FCCEB2B44216D8E9
S214004E1005EBC1014FF47A75B1F9024049686A435F
S214004E20521A04EBD47102EB610292FBF4F2904248
S214004E30CADBB3F902009042C6DC10B2C4E737F80A
S214004E4031E0E64501F10106E2D33146DDE70348ED
S214004E50BAE70348B8E700BF083E01200CFEFFFF94
S214004E600080FFFF08B50448FFF708FFBDE80840CC
S214004E700120ADF078BB00BF34390B000048704706
S214004E80D61400207FB5094B09490222CDE901233B
S214004E904FF08373CDE903134FF0FF300D2301A9C4
S214004EA00593ADF0FEFB07B05DF804FB006A180042
S214004EB006010C002DE9F74F12F00F0682468846D1
S214004EC091461D4674D10368802B02D0B3F5807FCF
S214004ED071D101F0FDFB00234360036004466FF0D0
S214004EE01CFC5146834651F8043B802B20460CBFE1
S214004EF0082210226FF0DCFCB8F1010F0CBF04F1A1
S214004F00800004F1880029466FF05DFC58466FF07B
S214004F1008FC04F1800A4E4516D30F2E0DD9B8F1C1
S214004F20010F39D10D9B103E1E4406F1100356F8B2
S214004F30042B45F8042B9E42F9D1204601F00CFCC8
S214004F40002003B0BDE8F08F0C9B99190D9B0191D2
S214004F50B8F1010F03EB060712D16FF0DEFB0199E3
S214004F60834604F1A0006FF02EFC0521A1603946AF
S214004F7050466FF047FC58466FF0D3FB1036CAE732
S214004F806FF0CBFB0199834650466FF01CFC0B4B31
S214004F90236501236365EAE76FF0BFFB29460646F3
S214004FA004F188006FF02EFC30466FF0BAFBC4E7C1
S214004FB06FF02100C5E76FF02000C2E74406514DB0
S214004FC010B500230B4A0360026343630B78032B80
S214004FD004460ED105216FF0A3FC636823F44073EA
S214004FE043F400736360636823F4406343F4006330
S214004FF0636010BD200010002DE9F04F1E460446E9
S214005000924689461F460FCE8BB001AD0FC596E877
S2140050100F0085E80F000025DDF8508009956FF039
S2140050207CFB5146064604F582706FF008FC494644
S21400503004F584706FF003FC394604F586706FF053
S214005040FEFB30466FF06DFB604E614BDFF8C4A18F
S2140050502365DFF8C4B16FF060FBC4F850B0D4F835
S21400506014906FF05EFB19F0807F19D0594B2365C2
S2140050706FF053FBC4F850B065696FF052FBEB015C
S21400508040F18C806FF049FB4146054604F5887078
S2140050906FF0DDFB28466FF044FB0BB0BDE8F08FE9
S2140050A019F4807F1CD14C4B2365013D9023A360EF
S2140050B0636913F4807F494B23650ED06FF02DFB98
S2140050C03946834604F580706FF0B9FB58466FF09A
S2140050D028FB434B2365434B63658823A360B8E7EF
S2140050E0002D13DA404B2365404B63656FF015FBCC
S2140050F001A9834604F580706FF0A9FB63695846E2
S214005100C3F3034309936FF00CFB6D42384B2365E2
S2140051106369DFF808C113F4407F4FF08803A3608B
S2140051204FF001006269266560656369C4F850C087
S2140051300ABF01214FF0FF3105F1FF358142C2F36E
S2140051400722C3F307230CD1D20706D5D80704D508
S214005150284B2365284B6365A8E7284B2365284B17
S214005160F9E70131A2D1D10713D4DA0711D5254BBF
S214005170C4F850A06365A06501A904F580706FF0BF
S2140051805EFB099B03F00F03C4F848318323A3603A
S2140051908CE71D4B23651D4B6365EDE76FF0BDFA8D
S2140051A004F580763946054630466FF048FB2846BB
S2140051B06FF0B7FA164B23656FF0AFFA4146044618
S2140051C030466FF044FB204665E700BFC93E819835
S2140051D03084880198390100C93E8101D23E82019F
S2140051E0C024D0340982010090A2848899830100EB
S2140051F0D9080100C8340981E20C8201C80881E29E
S2140052000C82010081E2148283D91081E2148201AB
S214005210E010010083D9341135393801DB3E010036
S2140052202DE9F04F8BB080460C4615460021202213
S21400523002A81E46A4F0CEF84FF00A094FF0000A66
S21400524098F80030022B3FD0032B07D0012B43D019
S2140052506FF0710318460BB0BDE8F08F202202A94C
S2140052603046A8470346002BF4D101F031FA4146F8
S2140052708346FFF7A5FE6FF050FA02A907460BF526
S21400528082706FF0DCFA38466FF04BFA3B4BCBF887
S214005290503058466FF0F1FE6FF03FFA0BF580770E
S2140052A0019002A938466FF0D2FA019B18466FF0BB
S2140052B038FA029B012B17D8584601F04DFAB9F17F
S2140052C00109BDD12E4BC5E71C2202A93046A847CE
S2140052D00346CDF824A0C6E7182202A93046A84700
S2140052E0CDF820A00346F4E76FF017FA04F10C0699
S2140052F0054621460BF584706FF0C3FE31460BF56C
S21400530086706FF0BEFE04F118010BF588700191EF
S2140053106FF0B7FE28466FF004FA1A4BCBF8503001
S21400532058466FF0AAFE019938466FF0E1FE034634
S214005330E8B9154BCBF85030144BCBF854305846E0
S2140053406FF09BFE214638466FF0D2FE034670B9DA
S2140053500F4BCBF850304FF48E73CBF85430584682
S2140053606FF08BFE314638466FF0C2FE0346584655
S214005370019301F0F1F9019B6CE700BF30C80C0106
S21400538000B3FFFF81E11C018CE11C81D11C0100F0
S214005390E11C81D92DE9F843064610460F46904693
S2140053A01D4673F075FA28B129463846BDE8F8431D
S2140053B073F044BA2B6A002B40F0AD8001F088F9F8
S2140053C031460446FFF7FCFD6FF0A7F904F580763A
S2140053D008F11801814630466FF053FE48466FF0DC
S2140053E0A0F9574B236540F28113636520466FF0A2
S2140053F044FE6FF092F92946814630466FF041FE32
S21400540048466FF08EF94F4B2365012320466365AF
S2140054106FF033FE4C4B23656FF02FFE6FF07DF977
S21400542005F10C01814630466FF02BFE48466FF0C2
S21400543078F9464B236520466FF01FFE6FF06DF936
S21400544008F10C094946054604F582706FF019FE0E
S21400545028466FF066F93E4B236520466FF00DFE3A
S2140054606FF05BF94146054630466FF00AFE284667
S2140054706FF057F9374B2365374B636520466FF05F
S214005480FCFD07F1180130466FF032FE0546002895
S2140054903BD1324B236520466FF0EFFD304B236542
S2140054A06FF0EBFD2F4B23656FF0E7FD2E4B23656A
S2140054B04FF48A7363656FF0E0FD2C4B23656FF045
S2140054C0DCFD394630466FF013FE0546E8B9284B3A
S2140054D02365284B636520466FF0CFFD6FF01DF9FE
S2140054E04946054630466FF0CCFD28466FF019F960
S2140054F0214B2365214B636520466FF0BEFD07F107
S2140055000C0130466FF0F4FD0546204601F024F904
S2140055102846BDE8F883284673F0BAF908B1414634
S21400552043E72B6A002B3FF449AF012105F1180031
S21400553071F03FFB00283FF441AF114DE8E700BF94
S2140055408184E11C83D91C83E11C810182D11C016A
S214005550C81482019983D91481E11C018CE11C01D5
S214005560811C8401D91C830191D11CE0D81414013C
S21400557081CB1481D11C820181E11C84E2140100DC
S21400558080B0FFFF2DE9F04788B0904605460F46ED
S21400559001F09EF829460446FFF712FD6FF0BDF8AD
S2140055A004F5807608F11801054630466FF069FD6F
S2140055B028466FF0B6F8DFF83491C4F8509040F201
S2140055C08313636520466FF058FD6FF0A6F808F168
S2140055D00C01054630466FF054FD28466FF0A1F8E2
S2140055E04FF0010A354B23652046C4F854A06FF0EF
S2140055F044FD07F1180130466FF07AFD0546002895
S21400560054D12F4B23654FF48673636520466FF0A5
S21400561034FD6FF082F84146054604F588706FF059
S21400562030FD694630466FF012F928466FF079F87B
S214005630244B2365244B6365244BA36520466FF0FB
S2140056401CFD234B2365234B63656FF016FD224B31
S2140056502365224B6365C4F858A06FF00EFD3946EB
S21400566030466FF045FD054600BB1D4B23651D4BC0
S214005670636520466FF001FD6FF04FF869460546FA
S21400568030466FF0DCF828466FF04BF8164BC4F83F
S214005690509063654FF48A73A36520466FF0EDFC67
S2140056A007F10C0130466FF023FD0546204601F059
S2140056B053F8284608B0BDE8F08700BF821CC00C2F
S2140056C091D11CC0C00C81E11C82DC0C81148401C9
S2140056D0E11C81C80C0C8101D20C848BD91CE0140F
S2140056E084E21482D11C8301C00C82D38182D11C37
S2140056F02DE9F043A5B00D46064600F0E9FF314619
S214005700044605F11807FFF75BFC1C22002105A8DC
S214005710A3F060FE4FF0010839460CA80DF17009A1
S214005720CDF810806FF030FD311D14A86FF02CFD01
S21400573014AB0CAA04A9CDF800902046FFF75CFC39
S2140057406EF0EBFF4946064604F5867904F582704E
S2140057506FF075F8294648466FF093FC05F10C018A
S21400576004F5887003916FF08CFC30466EF0D9FF1C
S214005770124B236520466FF080FC114B23656FF0BB
S2140057807CFC104B23656FF078FC0F4B23656FF0A5
S21400579074FC039904F580706FF0AAFC58B929468A
S2140057A048466FF0A5FC30B9204600F0D5FF4146CC
S2140057B0384670F0FBFF25B0BDE8F0838AD11C01A7
S2140057C081D91C0183D11C0181E11C010028B8BFCE
S2140057D0404220F07F000004000CB0F59F4F00F020
S2140057E04B8200F31081B0F5385F00F0478200F37B
S2140057F08780B0F50C5F00F0438242DCB0F5A05F16
S21400580000F0408220DCB0F5905F00F03D820DDCB9
S214005810B0F5885F00F03A82B0F58C5F00F0388211
S214005820B0F5845FAE4818BF00207047B0F5985FAB
S21400583000F03082B0F59C5F00F02E82B0F5945FE9
S214005840A84818BF00207047B0F5065F00F0268213
S2140058500DDCB0F5025F00F02382B0F5045F00F0C7
S2140058602182B0F5A45FA04818BF00207047B0F5AD
S214005870085F00F01982B0F50A5F9C4818BF002048
S2140058807047B0F51A5F00F011821CDCB0F5145FAB
S21400589000F00E820DDCB0F5105F00F00B82B0F564
S2140058A0125F00F00982B0F50E5F914818BF002025
S2140058B07047B0F5165F00F00182B0F5185F8D48AE
