S02400006275696C642F64656275672F746865726D6F737461742D7468726561642E7333376B
S31508006000001000206D7B000851DE070841B50A081C
S31508006010CF00080851DE070851DE070851DE0708D9
S3150800602051DE070851DE070851DE070851620008ED
S3150800603051DE070884DF0B08F1610008B50B080874
S315080060401979000851DE070851DE070851DE0708EE
S3150800605051DE070851DE070851DE070851DE07083A
S3150800606051DE070851DE070851DE0708CD48030848
S3150800607051DE070851DE070851DE070851DE07081A
S3150800608051DE070851DE070851DE070851DE07080A
S3150800609051DE07086183000851DE070851DE07084C
S315080060A051DE0708DD840008B984000851DE0708B8
S315080060B051DE07086DCE070851D8070825DE0B08FC
S315080060C021DE0B0839D0070831DE0B0829DE0B085C
S315080060D029D807082DDE0B0891D80708F5D8070830
S315080060E051DE070851DE070851DE070851DE0708AA
S315080060F0CB00080851DE070851DE070851DE0708FD
S3150800610051DE070851DE070851DE070851DE070889
S3150800611051DE070851DE070851DE070851DE070879
S3150800612051DE070851DE070851DE070851DE070869
S3150800613051DE070851DE070851DE070851DE070859
S3150800614051DE070851BB000851DE0708130208088C
S31508006150B9B6070851DE07084DDB0B0853DB0B08F9
S3150800616051DE070851DE070851DE070851DE070829
S31508006170013800D0FCE7704700000000000000006E
S315080061800B4A1168086806C881F30B88022181F357
S315080061901488203080F30988BFF36F8F4FF0000012
S315080061A080F31188104700BFAFF30080AFF300807B
S315080061B0204501200000000000000000000000004B
S315080061C007480068006880F3088862B661B6BFF3BE
S315080061D04F8FBFF36F8F02DF00BF00BFAFF30080A2
S315080061E008ED00E0000000000000000000000000CC
S315080061F0EFF30980EFF30B82734620E9FC0F104A90
S31508006200116808604FF0300080F31188BFF34F8F94
S31508006210BFF36F8F0EF0A2FC4FF0000080F31188D9
S31508006220074A11680868B0E8FC0F82F30B8880F308
S3150800623009881847AFF30080AFF30080AFF30080FA
S3150800624020450120000000000000000000000000BA
S315080062501EF0040F0CBFEFF30880EFF30980044922
S31508006260084700BFAFF30080AFF30080AFF30080AC
S31508006270ED360108000000002DE9F04F2DED028BE8
S31508006280DFF8C0918DB0B9F800309A0706D440F20D
S315080062902761654B654A66485AF06EF9DFF8A8B17A
S315080062A0DBF8003023B94FF4C561624B5F4AF2E769
S315080062B0614C0DF1180894E8070088E807009B88E8
S315080062C05E4D8DF817300123B9F800200DF117013E
S315080062D01A462868B6F0F7FF9DF81720DBF8001075
S315080062E0023A0023096892B20C3428680DF1240A90
S315080062F0B6F0E9FF94E807008AE80700DBF8003003
S315080063001B681C7814F0200421D02868B6F008FE13
S3150800631000286FD02868B6F003FE04460B9859F09B
S3150800632067FC064620460F4659F062FC02460B46B5
S3150800633039A1D1E9000159F0FFFD02460B46304666
S31508006340394659F019FB59F067FF0B900124286864
S31508006350B6F002FE9DF8173000284FD0981DC000F1
S3150800636059F056FC2EA3D3E9002359F0BBFC41ECA7
S31508006370180B2868B6F0F0FD03900B9859F038FC16
S31508006380039B064618460F4659F032FC02460B4652
S3150800639051EC180B59F0D0FD02460B4630463946EB
S315080063A059F0EAFA59F038FF0B90B9F80030286826
S315080063B09B06DBF8001027D50B9B224603F5FA73DC
S315080063C00B9391F8203089798DF81A301C4B1B787D
S315080063D0CDF800A08DF81B304346B6F02BFB20B154
S315080063E002200BF011FD4FF01FFE0DB0BDEC028B25
S315080063F0BDE8F08F0B9BC0330B93A7E70B980633CA
S3150800640000EB43130B93D0E7534622468979B6F03F
S31508006410FBFAE4E7AFF300800000000060E36641A2
S315080064200000000080842E41FD220C0847280C0835
S315080064305D210C0823230C082C270C08A8430120EF
S315080064407518002046E40120904401200000000051
S3150800645073B5754B198811F0010140F0DC8041F6DF
S315080064600B22724D724BC5E9003105F11003AB6082
S31508006470704B19609A80704B1B6ADB0706D440F292
S31508006480B9316E4B6E4A6F485AF076F828466DF069
S31508006490EFFC044620B940F2BD316B4B684AF2E77F
S315080064A06FF02CF920B140F2C131684B644AEAE733
S315080064B04FF001112046B6F0EEFE20B140F2C5318C
S315080064C0624B5F4ADFE702212046B6F00AFD20B19B
S315080064D04FF472715D4B5A4AD5E720465C496EF017
S315080064E08BFE20B140F2CB31584B554ACBE7012100
S315080064F02046B7F086F820B14FF47471534B504AD2
S31508006500C1E701212046B7F093F8064620B140F2CC
S31508006510D3314E4B4A4AB6E701463C224D48ADF0C8
S3150800652017FD80233246204605F11401B6F0E1FE38
S31508006530802804D040F2DA31474B414AA3E7474D59
S315080065400120B6F05CFA36A3D3E900232C60204676
S31508006550CDE900234FF0FF324FF0FF33B6F069FD67
S3150800656020B140F21731394B3D4A8CE731480BF0E0
S31508006570F7FA012108460BF061FB01212868B6F0FD
S3150800658000FC044620B140F26E41304B354A7AE7AA
S31508006590354B364A98801A60354B364A98801A60C9
S315080065A0354B364A98801A60354A6FF063005A614F
S315080065B013F052F80B200BF08DFA324B186020B905
S315080065C040F28C41304B274A5DE705F019FA21461F
S315080065D02868B6F00BFE20B140F219411B4B2B4A36
S315080065E051E7082228681146B6F03EFD044620B158
S315080065F04FF49261264B1B4A45E70CF043FB254BAB
S3150800660025481C70254B1C70254B1C7002B0BDE834
S3150800661070407FF073BD02B070BD00BFAFF300805D
S315080066200B6020FFE203000046E40120B44301208A
S31508006630FD1E0108AC4301200080E00F17260C0858
S31508006640BC270C085D210C0830260C08C2200C0853
S31508006650CC280C08544401203F260C08A8430120E6
S31508006660AF270C0838280C08201D0020E7EF01206A
S31508006670F81C002067EF0120481D002069F0012062
S31508006680701D00205044012077260C0875270C0839
S3150800669092260C085CEF012016270C0868F00120EA
S315080066A067F00120000000002DE9F04F2DED028B68
S315080066B0804600680C4691461D468DB030B90327C2
S315080066C038460DB0BDEC028BBDE8F08F0668766CD7
S315080066D0B0472D2807460CD00028F1D09C4A9D4B80
S315080066E00221A52808BF13460D209B4AA3F0E5F80A
S315080066F0E6E76378202B01D10027E1E7974BD8F826
S315080067000000049358B1036822461B6C04A99847F5
S31508006710074630B1049803689B689847D0E7032773
S31508006720F8E78F4B8F4E05934FF48973EE40F64387
S31508006730EB40DB43102D06F0010688BF0126082D25
S3150800674003F0010388BF01239FED7F8B6FF0010BD8
S315080067500193049805A90368DB689847002840F068
S31508006760EC808DF80E0005980DF10E010368DB68C4
S3150800677098470746002843D19DF80E30402B03D092
S31508006780802B01D003273BE062789A42E1D10123AE
S3150800679005988DF80F3003680DF10F015B6998476E
S315080067A0074668BB9DF80F30082B17D8002BD0D0AA
S315080067B0013B072BCDD801A252F823F00D6800083B
S315080067C0E767000853670008096800085367000868
S315080067D0536700085367000813680008102BB8D1E0
S315080067E0002EB6D102E06B1E012BB2D80023059805
S315080067F00693036806A95B6A9847824668B1074606
S3150800680005A890F0DEFA85E7042DEFD0012DA0D17A
S31508006810ECE7019B002B9CD1E8E7069B002B46D0B2
S315080068208DED088B05985146036808AA9B6A984718
S3150800683007460028E4D1DDE90830591E40F1FF3249
S315080068408B456FF0100171EB020210D39DF80E20F4
S31508006850402A97D1D4E90212904208BF8B4226D02B
S31508006860069B0AF1010A53457FF673AFD8E74FF046
S31508006870FF31C21C994277EB020231D39DF80E20F4
S31508006880402A7FF47FAF1F0C04F1100104F11C00AD
S315080068909BB28842E4D051F8042B002AF9D0B7EB12
S315080068A0124FF6D1002BF4D092B29342F1D80023BE
S315080068B005980793036807A99B6B9847074600281E
S315080068C09ED1079B002B36D082460598CDF820A08E
S315080068D003683946DB6B08AA984758B107468FE71D
S315080068E013F5803F70F1FF32FFF44CAF9DF80E2090
S315080068F0802AAEE7089BD90704D5D9F8002009995C
S31508006900914212D19A0705D5BDF82810B9F8042086
S3150800691091420AD15B070ED5D8F80400B9F80420CD
S3150800692003680B999B68984728B9079B0137BB42B0
S315080069307FF60FAFC9E7002762E702210D200A4A52
S31508006940A2F0BBFFA5275BE70000000000000000DF
S3150800695049890C08DD960D081D890C0828110020A8
S315080069602C110020160101003A890C0800000000CD
S315080069702DE9F04F2DED028B884204460D469046D0
S315080069801E4697B00AD1034601211D202E4A17B08C
S31508006990BDEC028BBDE8F04FA2F08FBF9FED288BB0
S315080069A00DF10C092A21484605AF3FF06DFC99E820
S315080069B0030087E80300DFF894A0DFF894B0BDF879
S315080069C01400BDF81630834233D03FF099FC337873
S315080069D081468DF824408DF825508DF826808DF84F
S315080069E028300BB173680B9309AB0893CDF81CA03C
S315080069F039F018FA00230E9310938DF851302A2394
S31508006A00ADF830904FF001090D930CAA6B4607A913
S31508006A108DED128B8DF8509096F07CF8034620B1D8
S31508006A205A4649461D20A2F048FF38469AF034FADD
S31508006A30C5E717B0BDEC028BBDE8F08FAFF3008059
S31508006A400000000000000000B4B00C08A0B10C085B
S31508006A50F4B00C08000000002DE9F04F2DED028B74
S31508006A609FED2F8B9DB00DF108092A21054604AC30
S31508006A70484616461F46DDF8A4803FF005FC99E80F
S31508006A80030084E80300DFF8A0A0DFF8A0B0BDF893
S31508006A901000BDF8123083423DD03FF031FC289BF0
S31508006AA081461B78CDE90A6708958DF830301BB109
S31508006AB0289B5B788DF8313098F800308DF838309F
S31508006AC01BB1D8E90223CDE9102308AB0793CDF80B
S31508006AD018A039F0A7F900232A2216938DF86930F1
S31508006AE00223ADF848904FF00109CDE9132306A912
S31508006AF06B4612AA8DED188B8DF8689096F00AF8F9
S31508006B00034620B15A4649461D20A2F0D6FE204625
S31508006B109AF0C2F9BBE71DB0BDEC028BBDE8F08F59
S31508006B200000000000000000C8B10C084BB10C08BA
S31508006B302DE9F04F2DED028B994600230024002500
S31508006B40CDB08DF8C83049938DF828319C4BCDE9E6
S31508006B502E45CDE93045CDE934450C934FF6FF7403
S31508006B600123DFF874A2064688461746CDF8D8A052
S31508006B70ADF820410D936AB1054600F53E74A5426D
S31508006B8000F00C81284690F0F6FE002800F00881F7
S31508006B909835F4E79DF0F9F8044630B9AC24204658
S31508006BA04DB0BDEC028BBDE8F08F06F53E75284664
S31508006BB08FF051FCB4F868308DF8C880ADF82031F4
S31508006BC094ED028B6A3420212046ADF02AFBCDE9EC
S31508006BD00C407C4B4FF4C8710E93002309A8CDE9ED
S31508006BE009330F930B93CDF870A093F0B4FB099B70
S31508006BF053B90B240BA890F0C2FC0AA890F0BFFC6E
S31508006C0009A890F0BCFCCAE74FF4C8710AA893F02B
S31508006C10A2FB0A9B002BECD04FF4C8710BA893F08B
S31508006C209AFB0B990029E4D0099B0A9A10934FF412
S31508006C30C8733046CDE91223CDE9141310AA41468C
S31508006C4011939DF022F908B10446D3E74146304630
S31508006C5012AA9DF0FCF80028F6D14146304614AA3F
S31508006C609DF0AFF80028EFD1109B0DF1B80A1693E6
S31508006C70119B0DF1700B1793129B8DED008B1893DA
S31508006C80139BCDE905AB1993149B1AAA1A93159B66
S31508006C9018A91B9336AB079330AB049334AB039315
S31508006CA00EAB029316A843F0E5FB0028CCD10BA83F
S31508006CB090F065FC0AA890F062FC09A890F05FFCC9
S31508006CC0B9F1000F13D1D6F8940300285AD00368F7
S31508006CD09B689847D6F894331A6800284AD05469AE
S31508006CE041465A461846A04798B1044657E7D9F888
S31508006CF0003048465B699847036859465B6A984777
S31508006D0008B9C5244BE79DF86031CDF824918DF874
S31508006D102831514628469DF038FB0028E5D12846FB
S31508006D200CA99CF0FFFF2B7C77B302211120264A81
S31508006D30A2F0C3FDD5E90012AB69CDE901210093A4
S31508006D4002211120EB69214AA2F0B7FD0F9906F539
S31508006D50697045F065FD034620B1012111201C4AE2
S31508006D60A2F0ABFD27B196F8B233013386F8B233F9
S31508006D70002414E741461846D26890470028C8D12F
S31508006D8010240CE703240AE7D5E900121120CDE9FF
S31508006D90002102210F4AA2F090FDD7E70B24FEE658
S31508006DA0BDF864319FED048BADF820318DF8C880AD
S31508006DB00FE700BFAFF300800000000000000000EE
S31508006DC02A9D0D08E4190D080F190D082F190D082D
S31508006DD0A7190D0872190D08584E0D080000000075
S31508006DE02A2110B57248ADF5956D02914DF084F8DB
S31508006DF008B1ACF0FDFF029002A96D484CF026FFE1
S31508006E000028F6D1029B2A2BF3D167A3D3E90023E6
S31508006E106848CDE908234DF08BF80028E9D100220F
S31508006E200023644808A9CDE908234CF037FF002859
S31508006E30DFD1DDE9080240F6FA035F499A4208BF46
S31508006E408842D6D101215D488DF807104DF038F8F3
S31508006E500028CED18DF807000DF1070157484CF0F0
S31508006E60C9FE0028C5D19DF80730002BC1D050486F
S31508006E704CF08CFE0028BCD14D4803A94CF0E6FE28
S31508006E8040F20124A042B4D14D494E48A4F0F8F886
S31508006E900028AED140224B4804AB0AA94CF02AFF81
S31508006EA00028A6D1049B0E2BA3D10F2244490AA879
S31508006EB0ADF017F800289CD143494248A4F0E0F801
S31508006EC0002896D104AB40223E480AA94CF012FF8E
S31508006ED0049B03438DD19DF82810002989D1394890
S31508006EE0A4F0CEF8002884D14022364805AB1AA96A
S31508006EF04CF000FFA0427FF47CAFF12233493448BE
S31508006F004DF050F800287FF474AF4FF40072304803
S31508006F1006AB2AA94CF040FF00287FF46AAF069A10
S31508006F20F12A7FF466AF29492AA8ACF0DAFF0246AF
S31508006F3000287FF45EAF014625484DF033F8002857
S31508006F407FF457AF4FF40072214807ABAAA94CF05B
S31508006F5023FFA0427FF44DAF16484CF023FE0028CD
S31508006F603FF447AF15484CF01DFE00283FF441AFEB
S31508006F7017484CF017FE00287FF43BAF4DF070F829
S31508006F8000287FF436AF0B484CF00CFE00283FF47F
S31508006F9030AF0A484CF006FE00287FF42AAF0DF5FC
S31508006FA0956D10BDAFF30080316EE595FA080000C7
S31508006FB00573080001720800316EE595067308002E
S31508006FC0F6550D0802730800F5550D0804550D0809
S31508006FD00272080000000000054B186803689969EA
S31508006FE001A3D3E90023084700E0373B015D03000E
S31508006FF0281200200000000070B505463E4C8AB0F5
S3150800700020B100230088236061F0CEFC3B48B5F030
S3150800701057FF3B4E3B4B304633603B4B736061F04A
S3150800702097FE002130466CF023FF31A3D3E90023F5
S31508007030A062C4E90623B0F07FFDD4E9062319430C
S3150800704010434FF0FF33C4E90601CDE900014FF0C4
S31508007050FF32A06AB5F0EDFF02224FF0FF31A06AB9
S31508007060B6F002F8012061F0E7F94FF40073002248
S315080070702649A06AB6F03DF9B0F5007F36D100235F
S315080070809422CDE9073309933C23CDE903320593CE
S315080070909623A06A03A906936DF006FB25B3287C00
S315080070A061F014FF0546E0B9A06AB6F0FCFA61F093
S315080070B0B5FE61F0A3F920B14FF4807000215EF0AF
S315080070C03BFD61F0ABF920B14FF4006000215EF0A2
S315080070D033FD0120B5F093FC0D4A0E49A06AB0F0C5
S315080070E022FD28460AB070BDFF20D9E70725F8E734
S315080070F009D5015520000000A0300120690345ECA0
S31508007100ECDE0120F18B0608E0DE0120E0DC012040
S31508007110CF7A0B080F7B0B0810B5054C237833B9CB
S31508007120044B13B1044800E000BF0123237010BDCF
S31508007130F8350120000000001CE00D0808B5034BD7
S315080071401BB10349034800E000BF08BD000000006A
S31508007150FC3501201CE00D08A3F5803A704700BFF6
S31508007160174B002B08BF134B9D46FFF7F5FF002171
S315080071708B460F461348144A121AACF0E9FE0E4B1A
S31508007180002B00D098470D4B002B00D098470020C5
S31508007190002104000D000D48002802D00C48ACF070
S315080071A02EFE59F02FFC200029002EF0F7FB59F08F
S315080071B015FA00BF000008000000000000000000EB
S315080071C0001000200C1B0020AC6D0220FF3D0B08B0
S315080071D00000000010B5012000F02AF8044601203E
S315080071E076F07BFC04B9FEE74021204676F024FDC4
S315080071F0B0FA80F3014A5B09137010BD1CE6012042
S3150800720007B5009109490190097851B1012000F0AC
S315080072100FF8DDE90032402103B05DF804EB76F0A3
S31508007220C0BC112003B05DF804FB00BF1CE60120BA
S315080072300346074A102B106807D8012202FA03F3FF
S31508007240044A134208BF002070470020704700BF59
S3150800725040120020160101002DE9F043044689B0CA
S31508007260214E01AD884617460FCE0FC596E8070092
S3150800727085E807001D4E01213A20D4F80090D6F87B
S31508007280205702F0E9F96068012102F0E5F9617B0F
S31508007290207B0023042203F0EFFB0422617A207A84
S315080072A0002303F0E9FB0123484601A98DF81230B3
S315080072B0CDF80C80ADF8147003F0E0FF0020627A78
S315080072C0237A05F0040543EA0243C6F83837627B99
S315080072D0237B45F0180543EA0243C6F83437C6F857
S315080072E0205709B0BDE8F08320DF0B0800C0035023
S315080072F04022024BC3F8A020704700BF00F003509D
S3150800730013B5044609F008FD00230122247BCDE9C4
S3150800731000326400B0FBF4F1024A034878F00DFF2E
S3150800732002B010BDF172000814360120F7B54FF40B
S315080073308076104C054604F58053C3F8A060407B60
S3150800734009F0CEFE04230C4F02220DF10601384641
S31508007350ADF8063076F0DDFB384676F0EBFBA87B19
S3150800736009F0BEFE002004F50054C4F8A06003B07E
S31508007370F0BD00BF00C003500410002070B50646DB
S31508007380354601213A2002F067F9B16800220F4814
S31508007390FFF762FF0E4C002304220821022003F0A7
S315080073A06BFB002304220621022003F065FB0FCDA8
S315080073B00FC401222B6830462360064B1A70FFF76C
S315080073C09FFF3046FFF7B2FF002070BD0410002073
S315080073D0343601201DE601202DE9F74F14464FF4F7
S315080073E0807206889846037901345E43254BA4B219
S315080073F0C3F8A0200546407B0F4609F071FE23021C
S3150800740043F00103022220480DF10601ADF80630CB
S315080074104FF0000976F07DFB01342402DFF868B0EE
S31508007420F610A4B208F1FF3AC14511D1164876F014
S3150800743081FBA87B09F054FE4FF48072134B124867
S31508007440C3F8A02076F07BFB002003B0BDE8F08FE0
S3150800745039463246584676F05CFBCA450CBF4FF6AD
S31508007460FF7344F0FF03022258460DF1060104F5A6
S315080074708074ADF80630374476F04BFB09F1010904
S31508007480A4B2D1E700D003500410002000E0035056
S31508007490034B04481B78002B08BF0020704700BF29
S315080074A01DE601203436012030B5064D87B001AC03
S315080074B00FCD0FC42B6801A82360FFF75FFF07B045
S315080074C030BD00BF3CDF0B082DE9F041484C8EB0BB
S315080074D0264601AD0FCE0FC5336814342B6006ADB2
S315080074E00FCC0FC594E80F0085E80F0001213A205C
S315080074F002F0B2F80121572002F0AEF84FF480737B
S315080075003C4EADF81C303C4B3046039301A906AB04
S31508007510059303F09BF9012304221946022003F080
S31508007520ABFA022100230846012203F0A5FA01233B
S3150800753004220321022003F09FFA042201231146A4
S31508007540022003F099FA2D4C2D4B1025C4F8C834A7
S315080075504FF00213C4F8C434A3F58033C4F8CC340E
S315080075601C2304F50058C4F8B4344FF4487009F0E5
S31508007570B7FD04F580571420C8F8A05009F0B0FDEF
S315080075802320C7F8A05009F0ABFDB9213046C8F84A
S31508007590A05076F082FE002301211A460220C7F881
S315080075A0A05003F069FA002302211A46084603F0A0
S315080075B063FA012300220321022003F05DFA012366
S315080075C000220421022003F057FA304602F064FF35
S315080075D000215720C4F8C814C4F8C414C4F8CC143D
S315080075E0C4F8B41402F038F80EB0BDE8F08100BF54
S315080075F050DF0B0800000A50E070720000C003500C
S3150800760002000300BFF34F8F0549064BCA6802F410
S31508007610E0621343CB60BFF34F8F00BFFDE700BFA7
S3150800762000ED00E00400FA054FF000639A6A02F1E3
S315080076307841B1F5C04F03D21168074A914203D089
S315080076400023037083607047012202709A6A926869
S3150800765042609B6A9B69F5E707B0CD5E08B54FF0B7
S315080076600053024A1A60FFF7CDFF00BF02020FF06F
S3150800767073B54F4B04461A781AB102221A7002B033
S3150800768070BDCDE900220028F9D001261E7076F0DB
S31508007690B1FD484D484B186072F092FD2B785BB9E6
S315080076A000F02EFF40B945480823454A4549006879
S315080076B06BF082FE00B92E70434B5A6E62619B6E68
S315080076C0424AA3614FF480439366414B5968E1618E
S315080076D040499960196E2160596E6160D3F870113E
S315080076E0A160196CE160596C21613B49086C18640A
S315080076F0496C5964012151661B6E9C0441D5374A71
S31508007700D368D807FCD4364B1A68531C3ED04FF4BE
S3150800771080139340334A13664FF400730426314CA2
S315080077202666236676F0F7FA01300DD076F0F3FA7E
S3150800773040F20113984207D04FF4005323664FF4E2
S3150800774080432366C4F870610823264C684623667E
S315080077504FF4805323664FF0006323664FF40023EB
S3150800776001A9636676F07EFA009B2366019B636631
S315080077702B78002B83D0124B1A6822665B686366E7
S315080077807DE7194AD368D907FCD4BCE7174B1B78A1
S31508007790002BC1D14FF400720C4B5A6603F5A62391
S315080077A05B68002BB8D14FF480120E4B1A66B3E70C
S315080077B020E601201EE60120703601202810002050
S315080077C068360120007108000080005000900050C3
S315080077D00080004455CEAC0000C0005400000440B0
S315080077E01410002000900044000004501FE60120F9
S315080077F070B5224D04462E78012E02D001232B7037
S3150800780070BD0028FCD076F086FA01300BD076F0F1
S3150800781082FA40F20113984205D0194B194A5E665E
S31508007820D368DE07FCD42268174B1A6662685A6664
S31508007830A268C3F87021E2681A6422695A64E26988
S31508007840D00744BF00229A60104B1A68013207D14C
S315080078500F4A127822B90F494968C90748BF1A6002
S3150800786062690D4B5A66A2699A6672F0B1FC0B4BB7
S31508007870186876F0C5FC0023C1E700BF20E60120A2
S3150800788000900040000004400080004414100020CE
S315080078901FE6012000C00550008000507036012008
S315080078A070B54FF00064A36A03F17842B2F5C04F91
S315080078B021D21A68124B9A421DD1124E337813F010
S315080078C0FD0F1BD11048FFF7D3FE01254FF4803377
S315080078D00E4A0F49C2F88051CB6015600D4A1361F4
S315080078E0A36ADB69984704460748FFF781FF04B98E
S315080078F03570204670BD4FF48174FAE70024F8E726
S3150800790007B0CD5E1FE601204836012000E100E001
S3150800791000A000440090004413B51F4B1B7803B920
S31508007920FEE700231D4CCDE900336A4608231C49AF
S3150800793020686BF041FDF0B91A4AD2F84031D2F806
S3150800794040211F2B4FF0010310D9203A9340019A8A
S315080079501343019308236A46114920686BF0E2FC39
S315080079604FF00053104A1A60FFF74CFE9340009AF6
S3150800797013430093EEE70D4B9842F1D1094AD2F82A
S315080079804031D2F840211F2B4FF0010302D9203A8B
S315080079909340DEE79340ECE720E60120281000201C
S315080079A000710800008000440B020FF00BE000F0A5
S315080079B038B54FF00065AB6A044603F17842B2F574
S315080079C0C04F12D21B6B03F17843B3F5C04F0CD2EC
S315080079D00648FFF74DFEAB6A20461B6B5B68984767
S315080079E0BDE838400148FFF703BF38BD74360120AB
S315080079F013B54FF000640190A36A03F17842B2F51B
S31508007A00C04F15D21B6B03F17843B3F5C04F0FD2A5
S31508007A100948FFF72DFEA36A01211B6B01A89B6984
S31508007A20984704460448FFF7E3FE204602B010BD17
S31508007A304FF48174F9E700BF7436012037B54FF06B
S31508007A400065CDE90021AB6A044603F17840B0F53C
S31508007A50C04F12D21B6B83B10948FFF709FEDDE957
S31508007A600021AB6A20461B6B5B6A984704460448AC
S31508007A70FFF7BEFE204603B030BD4FF40174F9E7A8
S31508007A807436012037B54FF000650191AB6A04469C
S31508007A9003F17842B2F5C04F15D21B6B03F1784358
S31508007AA0B3F5C04F0FD20948FFF7E2FDAB6A20468F
S31508007AB01B6B01999B6A984704460448FFF798FE92
S31508007AC0204603B030BD4FF40174F9E7743601203F
S31508007AD037B54FF00065CDE90021AB6A044603F1DE
S31508007AE07840B0F5C04F16D21B6B03F17843B3F557
S31508007AF0C04F10D20948FFF7BBFDDDE90021AB6A8C
S31508007B0020461B6B9B6B984704460448FFF770FE9C
S31508007B10204603B030BD40F20114F9E7743601205F
S31508007B2037B54FF000650191AB6A044603F1784218
S31508007B30B2F5C04F15D21B6B03F17843B3F5C04FAE
S31508007B400FD20948FFF794FDAB6A20461B6B0199D3
S31508007B50DB6B984704460448FFF74AFE204603B005
S31508007B6030BD40F20114F9E77436012008B500F07B
S31508007B702DF8124B12498B4212D30020114B124991
S31508007B808B4218D3FFF7ECFA186850F82240586869
S31508007B9040F82240013298688242F5D30C33EAE76E
S31508007BA00022F8E71C6844F8220001325C68A24209
S31508007BB0F8D30833E4E70022F8E700BF24E00D080D
S31508007BC030E00D0830E00D0830E00D084FF4804134
S31508007BD04FF0FF3010B5114B114A9A60D3F8882040
S31508007BE042F47002C3F888200E4A91660E4901F5E0
S31508007BF0005210660D4850660220C3F8D000BFF345
S31508007C004F8FBFF36F8F01244FF440330848C0F8F5
S31508007C108041D36004600B6110BD00BF00ED00E039
S31508007C20006000080090005000800044F7FF37000D
S31508007C3000E100E0014B1868704700BF1C100020E7
S31508007C40014B1860704700BF1C100020084B1B6FC3
S31508007C5003F00703022B04D0032B05D0012B05D014
S31508007C60FEE7044B18687047034BFBE70348704769
S31508007C70008000501C10002020100020002D31012B
S31508007C8008B5FFF7E3FF054B1B6FC3F30333013357
S31508007C90B0FBF3F0024B186008BD00BF008000502F
S31508007CA0181000200048704700B4C404014B186837
S31508007CB0704700BF20100020054B1860054B1B6F4E
S31508007CC003F00703032B01D1FFF7DABF704700BFA4
S31508007CD0201000200080005000487047002D310118
S31508007CE04FF0B4439868C0F304400C2822D8DFE864
S31508007CF000F0092121212121071719211B1D1F0029
S31508007D000F4870479B6803F04073B3F1807F13D028
S31508007D10B3F1007F12D00B4A002B08BF10467047FC
S31508007D200948704709487047094870470948704725
S31508007D300948704700207047084870470848704748
S31508007D40405DC60000093D000024F400C0EA210198
S31508007D5080BA8C010048E801005A620280841E003D
S31508007D6040420F00014B1868704700BF24100020DE
S31508007D7010B40A681378022B11D014203023147912
S31508007D8013FB040307481B585079C340DB4303F031
S31508007D900103137008465DF8044B2DF01FBE5DF80D
S31508007DA0044B704730C0035037B5046801210546B7
S31508007DB03A2001F051FC002301226179207902F072
S31508007DC05BFE14223023217913FB01230E4A9B58AC
S31508007DD06279D340DB4303F001032370A379022BB6
S31508007DE00ED100F013FB2A460849607900F038FBEB
S31508007DF00123024661792079CDE9003302F0E4FDDA
S31508007E00002003B030BD00BF30C00350717D0008AC
S31508007E1002681378022B24D014213023107913FB1F
S31508007E20001310495B585179CB40917903F001034F
S31508007E30012912D1508843EA40034FF6E07063F0F7
S31508007E403F039BB2834202D11170538070474FF6AD
S31508007E50DF718B42F9D10021F6E711B983F00103EE
S31508007E601370704730C003502DE9FF41036804467C
S31508007E70B3F1B64F04D0374A934267D12F2000E0BA
S31508007E802E20012101F0E8FB01230A2261792079DD
S31508007E9002F0F2FD01230A22E179A07902F0ECFD55
S31508007EA0092701262C4D4FF030082279637908FB03
S31508007EB0025206FA03F302F501521360642009F030
S31508007EC00FF92379627908FB035306FA02F203F5E0
S31508007ED0825364201A6009F003F9013FE3D123684D
S31508007EE0B3F1B64F0ED10323C5F8E8346279237986
S31508007EF043EA0243C5F8EC34E279A37943EA02433C
S31508007F00C5F8F0342268134B9A4210D10322A3F520
S31508007F103033C3F8F8246179227942EA0142C3F87A
S31508007F20FC24E179A27942EA0142C3F8002540F22D
S31508007F300113ADF80030E36869460293A368206828
S31508007F400193237C8DF80C3002F012FE04B0BDE8D4
S31508007F50F08100BF0080065000C0035038B50546C2
S31508007F6002F034FF044C012801D1013C00D138BD90
S31508007F70284602F01FFEF6E7E193040010B5012239
S31508007F8043780178847830209A40054B00FB01330A
S31508007F901CB903F501531A6010BD03F58253FAE7BD
S31508007FA000C0035010B50122437801788478302048
S31508007FB09A40054B00FB01331CB903F582531A603E
S31508007FC010BD03F50153FAE700C0035001224378B8
S31508007FD001789A4030235943014B5A50704700BFE5
S31508007FE040F00350102130230246007813FB00139B
S31508007FF0054950785B58C34003F0010093780BB9E4
S3150800800080F00100704700BF30C003502DE9F04FE3
S315080080109A46554B85B01B7806460F461546DDF839
S315080080203C909DF844B0DDF85080002B00F08C8021
S31508008030072A00F28B800E9B002B00F08780B9F18F
S31508008040000F00F08380129BB3F5006F7EDC0128D9
S3150800805002D1109B002B79D0444B03EB05131B7BF5
S31508008060002B75D0424C102200216846ABF070FFF9
S3150800807004EB45141022002F58D139462046ABF0A0
S3150800808067FF43F210036380BBF1000F03D1E37867
S3150800809043F00303E370364A0E9B02EB451CCCE91A
S315080080A00193129BCDF800A0013BC3F30A009DF88B
S315080080B04C30690103F003039B0643EA001E53583C
S315080080C02C48012E00EA03004EEA0003535041D122
S315080080D013230CF1100ECCF80C309CE80F008EE838
S315080080E00F006FF00301DCF81C20109B61F39F0260
S315080080F0012FCCF81C20CCF8143003D1CCF81890FA
S31508008100CCF804300027194A290102EB051342F876
S315080081100180159A28465A60694622469F605E7312
S3150800812002F0D6FE384605B0BDE8F08F002120469D
S31508008130ABF00EFF4FF444736380BBF1000FAAD176
S31508008140E37843F03003A5E70B48ECE70B48EAE78A
S315080081500B48E8E7B8F1000FD4D19CF8023068F371
S3150800816004138CF80230CDE721E60120943601206D
S31508008170143701200F80FFF3028000F0018000F021
S31508008180078000F038B5124B05461B78DBB1E0B125
S3150800819076F030F80F4A00231146147B54B92B6049
S315080081A001251A0101EB03131D738C5076F028F88C
S315080081B0204638BD0133082B02F11002EDD176F0C6
S315080081C01FF80548F5E70548F3E70548F1E700BF56
S315080081D021E6012094360120048000F0028000F098
S315080081E0018000F0154B13B51868002301908DF82F
S315080081F0043075F0FFFF124B1C7824B176F000F8B6
S31508008200104802B010BD01221A7075F0F9FF0E4B26
S3150800821001A81C731C7783F82C4083F83C4083F82C
S315080082204C4083F85C4083F86C4083F87C40082314
S315080082308DF8073002F01AFE2046E2E7D4DF0B0875
S3150800824021E60120038000F09436012008B50A4A89
S3150800825012785AB107280BD8084A02EB00131B7B81
S3150800826043B1002102F0F4FD002008BD0448FCE7F4
S315080082700448FAE70448F8E721E601209436012085
S31508008280028000F0018000F0078000F008B50A4A75
S3150800829012785AB107280BD8084A02EB00131B7B41
S315080082A043B1012102F0D4FD002008BD0448FCE7D3
S315080082B00448FAE70448F8E721E601209436012045
S315080082C0028000F0018000F0078000F00D4B1B785B
S315080082D093B1072812D889B10B4B03EB00131B7B0C
S315080082E073B10A4BDA6A012303FA00F010401ABF89
S315080082F000200B700870704705487047054870479E
S315080083000548704721E601209436012000000450F4
S31508008310028000F0018000F0078000F010B50B4ADB
S315080083200C46127862B107280CD859B1084A02EBF4
S3150800833000131B7B43B102F03DFE2060002010BDF8
S315080083400448FCE70448FAE70448F8E721E6012070
S3150800835094360120028000F0018000F0078000F0CA
S315080083602DE9F843174B1F6D5B6D1F4000D5FEE7DF
S3150800837001260025144CDFF85480DFF85490374264
S3150800838017D0C8F8506023689BB1A1682846013108
S315080083906268A1609847637B012B0AD148B909EB4B
S315080083A045131A7B60F341021A731A7F60F3410280
S315080083B01A770135082D4FEA460604F11004DED176
S315080083C0BDE8F883000004509436012000200450CC
S315080083D01437012070B5044601250B4E04B970BD4B
S315080083E094FAA4F0B0FA80F005FA00F306EB00124E
S315080083F024EA03045368002BF0D0117B11B191686D
S315080084009847EBE79847E9E71438012008B519209B
S3150800841001F094FE28B14FF00072074BC3F8802193
S315080084201A601A2001F08AFE28B14FF08062024BCA
S31508008430C3F880211A6008BD00E100E038B505469A
S315080084400C4675F0D7FE0022044B03EB05135C605F
S315080084501A73BDE8384075F0D3BE00BF1438012042
S31508008460F8B505460F46164675F0C4FE104B05F0DE
S31508008470FC02D3F824140023EC1804F00304144374
S3150800848021FA04FC1CF0010F07D00133042BF3D1A9
S31508008490FF2475F0B5FE2046F8BDFF2CF9D0012261
S315080084A0044B03EB0413C3E901761A73F1E700BF23
S315080084B000C0035014380120074BD3F82404D3F81E
S315080084C0202403F50053104000F0553020F05020CA
S315080084D0C3F82004FFF77EBF00C00350074BD3F84C
S315080084E02404D3F8202403F50053104000F0AA30E2
S315080084F020F0A020C3F82004FFF76CBF00C003508B
S31508008500024B1968024B18686AF036BE2C10002018
S315080085102810002037B5920004460D460192B5F0A2
S31508008520F7FC431C0BD060B929462046019AABF0EC
S31508008530D8FC0028044808BF002003B030BD034813
S31508008540FBE70348F9E700BF10E000F021E000F080
S3150800855024E000F013B5044601A802F0B9FD9DF821
S315080085600630012223804FF4807300206380054B78
S315080085709B680A3303F01F0302FA03F3636002B031
S3150800858010BD00BF0080E00F10B50446B5F0B8FC7A
S31508008590431C15D0B0B90C4B20469B680A3303F030
S315080085A01F020123934023F003032344984201D179
S315080085B0002010BD50F8042B0132F7D00348F8E725
S315080085C00348F6E70348F4E70080E00F0EE000F002
S315080085D021E000F024E000F008B575F004FE014B38
S315080085E0186008BD54400120014B186875F0FFBD9E
S315080085F05440012038B141B1013AB2F5006F044840
S3150800860038BF00207047034870470148704700BFCD
S31508008610037000F0027000F038B504460D4675F098
S31508008620E9FDA3889BB223B92B6075F0E9FD0648DE
S3150800863038BD142263889BB202FB034408342C60BD
S3150800864075F0DEFD0020F3E70B7000F0F8B5044680
S3150800865016460F4675F0CEFDA388E2889BB29A426D
S31508008660054605D80023336075F0CAFD1748F8BDDE
S315080086701422238807F1100C9BB202FB03433A46E7
S315080086800833174603CF6745186059603A4603F121
S315080086900803F6D1142238681860238828469BB246
S315080086A002FB0343083333602388E2889BB2013315
S315080086B0B3FBF2F102FB11339BB22380A38801338B
S315080086C09BB2A38075F09CFD0020D0E70A7000F0ED
S315080086D090F83530022B0DD114223023417F90F8C3
S315080086E0210013FB0123044A9B5823FA00F000F0EB
S315080086F0010070470020704730C00350002313B5AF
S315080087001D4A52F8044B94F8211081420ED00133C9
S31508008710042BF6D102B010BD0028FBD19DF8073016
S31508008720002BF7D0A068FFF791FDF3E794F83530F2
S31508008730022BEFD12046FFF7CBFF637E2076022B74
S31508008740E8D194F8323003F0FF02002BE2D1A0689A
S315080087500DF107018DF80720FFF7B8FD237E1BB141
S3150800876094F83330002BD7D00023A06884F8333030
S31508008770FFF78CFDCEE700BF0841012030B5104950
S31508008780104A0B782BB9C2E90033C2E90233012338
S315080087900B700C4C0023214651F8045B854208D027
S315080087A00133042BF8D1002154F8043B1BB942F8D5
S315080087B02100002003E001310429F5D1024830BD2B
S315080087C022E6012008410120027000F010B5044697
S315080087D0FFF708FD002104F10800FFF7D3FC014666
S315080087E020B904F10C00FFF7CDFC00B1004810BD1C
S315080087F00E7000F090F8363053B9042103790A4A0E
S3150800880003F239135B01D150022203685A6170479B
S31508008810022B07D10068816C11F0020118BF0621EE
S3150800882075F031BD704700BF00C0035090F8363070
S315080088306BB9012203685A6102689369D907FCD5A6
S3150800884004210379074AB9335B01D1507047022BDB
S3150800885007D10068836C9B074CBF0521092175F079
S3150800886012BD704700C0035010B590F83630044664
S315080088706BB9042203685A61026893699907FCD5A3
S3150800888023790C4AB9335B011021995010BD022B8C
S31508008890FCD10068836CDB074CBF0521062175F007
S315080088A0F2FC237941F294425B0103F1A04303F5FC
S315080088B07033E9E700C00350012370B580F8303003
S315080088C090F8363004460E4686B0A3B905682435B6
S315080088D0204675F0DCFB0D4B3268039300230293A8
S315080088E07368616901930123E068009304942B4639
S315080088F075F005FB07E0022B02D105683C35E7E772
S31508008900002380F8303006B070BD00BF398D0008EE
S31508008910F8B507460D461646FFF76CFE00286BD1DC
S31508008920152001F019FC0446FA6A93889BB213B124
S3150800893097F83230E3B197F83630F3B93B689C695B
S3150800894004F002041CB93846FFF78EFF0024012301
S3150800895087F8343097F83630CBB92E44B5423868A4
S3150800896010D183699A06FCD51CB300242046F8BDAD
S31508008970002CDAD0FFF7F4FCD6E7022BE3D13B68EC
S315080089809C6CDDE715F8011B75F038FDE6E7022B50
S31508008990EAD12E44B542386806D142F22003826CE9
S315080089A033EA0202FBD1DFE715F8011B75F070FC0C
S315080089B0F0E797F8363053B910213B790F4A03F29E
S315080089C039135B01D15008223B685A61CEE7022B66
S315080089D0CCD13868836CDB074CBF0921214675F07A
S315080089E052FC42F2944210213B795B0103F1A04309
S315080089F003F570339950B9E70446B7E700C003504A
S31508008A0010B5044680B190F832302BB9FFF760FEF6
S31508008A1010B9A068FFF71AFC002094F83230013329
S31508008A20DBB284F8323010BD0048FCE7027000F073
S31508008A3010B50446A0B190F832309BB190F83230A8
S31508008A40012B05D1FFF744FE10B9A068FFF71EFCFD
S31508008A50002094F83230013BDBB284F8323010BD86
S31508008A600148FCE70148FAE7027000F0057000F0DB
S31508008A7037B590F835500446022D1DD1012290F8DD
S31508008A802230457E817F9A403020164B25B900FB5F
S31508008A90013303F5015305E0012D07D100FB01332E
S31508008AA003F582531A60002003B030BD247E00FB14
S31508008AB00133002CF4D1ECE7012DF4D1037E73B910
S31508008AC011238DF80730FFF79BFF2A4620460DF144
S31508008AD00701FFF71DFF2046FFF7AAFFE3E7132369
S31508008AE0EFE700BF00C003502DE9F0430546754F78
S31508008AF089B001AE0C460FCF0FC697E8070086E887
S31508008B000700002D00F0DC8024B96F4E304609B00E
S31508008B10BDE8F083602200212846ABF019FA284602
S31508008B20FFF72CFE06460028F0D1237D85F8353060
S31508008B30236885F836002B60237B2B712268634BEC
S31508008B409A42E2D129236B624FF480236049814619
S31508008B50C5E90413D4E90723AA621080AA6A012189
S31508008B605080AA6A5B4F908085F83000EB621880C7
S31508008B70EB6A5880EB6A988085F8310085F83300EF
S31508008B8063683A200393E389ADF81430238AADF875
S31508008B901230A37C8DF81030E37C8DF8163005234F
S31508008BA08DF8113000F058FD0121686A00F054FD77
S31508008BB0206801A98DF8046002F002FB1422237BC9
S31508008BC0284639335B01FA50A17A237B227A07EBD0
S31508008BD0431342EA0142C3F83827E17A237B627AD3
S31508008BE007EB431342EA0142C3F83027237A0121EF
S31508008BF0EB76A37AEB77637A2B77E37A85F82030DE
S31508008C00637D6B77A37D85F82130E37DAB77237E83
S31508008C1085F8223075F0B1F9064600287FF476AF5C
S31508008C2075F0E8FA237D8046032B37D10222237B91
S31508008C30B9335B01FA500422236803F58053DA65D9
S31508008C40217EE27D237B42EA014241F22C7107EB49
S31508008C5043135A50227BA17D07EB421741F2287233
S31508008C60637D43EA0143BB504FF0FF32236803F5A7
S31508008C7000539A64237D2068032B0CBF0521042129
S31508008C8075F0A7FB4FF44062236828465A61FFF740
S31508008C909DFD0646404675F0B3FA37E7022BE3D149
S31508008CA095F821000C49FFF7C9FBFFF7AFFB4FF416
S31508008CB0007328462B8385F81A90FFF7D9FED3E769
S31508008CC0064E23E7FCDF0B08037000F000C00550D2
S31508008CD00200040000C00350FD860008027000F080
S31508008CE0F0B587B005461646FFF784FC0446F0B98A
S31508008CF00493104BCDE901166A46A86A01A90396A2
S31508008D000593FFF7A3FC044688B995F8303073B984
S31508008D102846FFF78BFD28460099FFF7CDFD95F805
S31508008D203530032B03D028462C76FFF7A1FE2046C4
S31508008D3007B0F0BD017000F073B5906A01A914463A
S31508008D40FFF76AFC0546204675F087F93A4B9D42BF
S31508008D5032D094F83610019B00293CD12068826CE9
S31508008D6012F400722BD0354A99601A614FF40072DA
S31508008D70236803F500539A6475F03CFA0199064690
S31508008D80CD6835B14A688B682046D31A0A680969DE
S31508008D90A847A06A01A975F093F9A06A8588ADB2BB
S31508008DA0002D3AD001A9FFF737FC20460199FFF7B5
S31508008DB083FD304675F024FA012002B070BD816C3F
S31508008DC0C80526D51E499A60196123684FF4807232
S31508008DD003F50053CFE702291BD12168CA6C12F4A8
S31508008DE000720AD0154A1A6100229A604FF400727E
S31508008DF0236803F50053DA64BEE7C96CC90508D5CC
S31508008E000F499A60196123684FF4807203F500537D
S31508008E10F1E700221A619A60AEE70123204623761D
S31508008E20FFF726FE94F8353084F83050032BC0D06F
S31508008E302046FFF7DFFCBCE70B7000F00D7000F072
S31508008E400C7000F02DE9F04104468CB0884F04AE52
S31508008E500D460FCF0FC697E80F0086E80F001022C1
S31508008E6000216846ABF074F8002C00F0FE8025B9A6
S31508008E70804E30460CB0BDE8F081602200212046C5
S31508008E80ABF066F82B6820462360022384F8363058
S31508008E902B7C2371FFF772FC06460028E9D12B7F4D
S31508008EA0754A84F835302B68934240F0B8805623CB
S31508008EB06362724B23614FF4702363610123ADF83B
S31508008EC00630002384F8316084F83060D5E9091249
S31508008ED0A1620B80A16A3A204B80A16A684E8B80FA
S31508008EE084F83030E2621380E26A01215380E26A34
S31508008EF0938084F8313084F8333002238DF81D309E
S31508008F00AB6806936B8AADF82030AB8AADF81E3095
S31508008F10AB7D8DF81C30AB690993CDF82CD000F0E9
S31508008F209BFB0121606A00F097FB2B79002B00F070
S31508008F3081800121362000F08FFBD6F8203223F0FD
S31508008F40070343F003031022C6F820322B7C4D4F4B
S31508008F50204607EB4313C3F89424A97B2B7C2A7B72
S31508008F6007EB431342EA0142C3F8AC242B7CE97BA6
S31508008F706A7B253342EA014207EB43135A602B7B8F
S31508008F800121E376AB7BE3776B7B2377EB7B84F876
S31508008F9020306B7F6377AB7F84F82130EB7FA37734
S31508008FA095F8203084F8223074F0E7FF064600284A
S31508008FB07FF45FAF75F01EF92A7F8046032A40D1F9
S31508008FC041F2944102202B7C07EB431358502B7C2B
S31508008FD095F82000E97F07EB431341EA004103F5C2
S31508008FE0A5531960297CA87F07EB411741F29C41DC
S31508008FF06B7F43EA00437B508DF8002006238DF8EB
S3150800900010302B79286804A963B375F054F9204603
S31508009010FFF7DCFB0646404675F0F2F829E71A4AE0
S3150800902093427FF425AF57236362184B23614FF4AD
S31508009030801342E7D6F8203223F0070343F00103F2
S3150800904081E7022ADAD194F821001149FFF7F6F9E7
S31508009050FFF7DCF94FF4007320462383A676FFF763
S3150800906007FDCBE775F023F9D1E70A4E01E700BF04
S3150800907018E00B08037000F00000015B01000F0008
S315080090800080005000C0035000000A500100100084
S31508009090FD860008027000F0044BD3F88420D2063F
S315080090A0FBD4D3F88400C0F3811070470040005009
S315080090B02E4B98424AD022D82D4B984240D014D8ED
S315080090C02C4B984239D00AD82B4B984232D02B4B8E
S315080090D098422FD02A4B98422CD000207047294B13
S315080090E09842FAD1284B186F7047284B98422AD0D5
S315080090F0274B9842F1D1244BD3F880007047254B73
S3150800910098422BD009D8244B984223D0234B984217
S31508009110E3D11D4BD3F88C007047214B984221D0E0
S3150800912003F5740303F510539842D6D1164BD3F8BA
S3150800913098007047144B986D7047134B586E7047DC
S31508009140114B586F7047104B986F70470E4BD3F8FA
S31508009150840070470C4BD3F8880070470A4BD3F845
S3150800916090007047084BD3F8940070470048E80110
S315080091700024F400C0CF6A0080841E0000093D0068
S3150800918040420F00405DC6000080E00FC0EA2101A2
S3150800919080BA8C01007E560380D54302006CDC023F
S315080091A00090D00338B5104B0546D3F880300C46EE
S315080091B003F00303022B0BD0032B0DD0012B0FD189
S315080091C0FEF744FD0E2305B1286004B1236038BDBF
S315080091D0FEF786FD0723F6E7FEF72CFD0623F2E7E2
S315080091E000231846EFE700BF0080005038B5174B3C
S315080091F00546D3F820310C4603F00703013B052B3F
S3150800920020D8DFE803F0030B130F171BFEF712FD38
S31508009210052305B1286004B1236038BDFEF746FD75
S315080092200323F6E7FEF75CFD0723F2E7FEF754FD96
S315080092300223EEE7FEF7FEFC0623EAE7FEF736FD15
S315080092400423E6E700231846E3E700BF0080005042
S3150800925038B5174B0546D3F828310C4603F00703F3
S31508009260013B052B20D8DFE803F003131B0F0B1770
S31508009270FEF7E0FC052305B1286004B1236038BD7C
S31508009280FEF7D8FC0623F6E7FEF72AFD0723F2E7E2
S31508009290FEF70CFD0323EEE7FEF708FD0423EAE7D5
S315080092A0FEF71AFD0223E6E700231846E3E700BFA8
S315080092B00080005073B50D460021114B0191D3F87B
S315080092C08041064604F00304022C13D0032C0CD06C
S315080092D0012C13D101A8FFF789FF10240EB1019BB9
S315080092E0336005B12C6002B070BDFEF7F9FC0724A7
S315080092F00190F3E7FEF7F0FC0190EFE70C46EDE787
S3150800930000800050002337B50193154B0546D3F866
S3150800931020320C4603F00703013B032B1ED8DFE877
S3150800932003F0020E1318002101A8FFF791FF12237C
S315080093300DB1019A2A6004B1236003B030BDFEF76F
S31508009340CFFC07230190F3E774F085FD0A2301900B
S31508009350EEE7FEF707FD09230190E9E70023E7E7B3
S315080093600080005038B5104B0546D3F840310C46FE
S3150800937003F00303022B0BD0032B0DD0012B0FD1C7
S3150800938074F069FD0A2305B1286004B1236038BD6D
S31508009390FEF7E8FC0923F6E774F060FD0C23F2E714
S315080093A000231846EFE700BF00800050002337B5BA
S315080093B00193164B0546D3F860320C4603F00703B3
S315080093C0013B032B1FD8DFE803F0020E1914002116
S315080093D001A8FFF70BFF10230DB1019A2A6004B10B
S315080093E0236003B030BD002101A8FFF7BBFF11239E
S315080093F0F2E7FEF775FC07230190EDE7FEF76CFC34
S3150800940002230190E8E70023E6E700BF008000504A
S31508009410002337B50193164B0546D3F894320C460C
S3150800942003F00703013B032B1FD8DFE803F0020E06
S315080094301914002101A8FFF7D9FE10230DB1019ACE
S315080094402A6004B1236003B030BD002101A8FFF7EC
S3150800945089FF1123F2E7FEF743FC07230190EDE7A6
S31508009460FEF73AFC02230190E8E70023E6E700BF8F
S315080094700080005038B5134B0546D3F800320C4629
S3150800948003F00703013B032B18D8DFE803F0020AB1
S315080094900E1274F0E0FC0A2305B1286004B12360BB
S315080094A038BDFEF75FFC0923F6E774F0D7FC0C23FA
S315080094B0F2E7FEF7E5FB0F23800AEDE700231846DF
S315080094C0EAE700BF0080005038B5134B0546D3F8CD
S315080094D008320C4603F00703013B032B18D8DFE8D4
S315080094E003F0020A0E1274F0B6FC0A2305B12860CE
S315080094F004B1236038BDFEF735FC0923F6E774F09E
S31508009500ADFC0C23F2E7FEF7BBFB0F23800AEDE761
S3150800951000231846EAE700BF0080005038B5104B14
S315080095200546D3F840320C4603F00303022B0BD052
S31508009530032B0DD0012B0FD174F08DFC0A2305B136
S31508009540286004B1236038BDFEF70CFC0923F6E752
S3150800955074F084FC0C23F2E700231846EFE700BFFB
S315080095600080005038B5104B0546D3F860310C46DC
S3150800957003F00303022B0BD0032B0DD0012B0FD1C5
S3150800958074F069FC0A2305B1286004B1236038BD6C
S31508009590FEF7E8FB0923F6E774F060FC0C23F2E714
S315080095A000231846EFE700BF00800050B0F5207F83
S315080095B01FD009D8B0F5007F15D003D868B1B0F52B
S315080095C0C07F0AD000200CE0B0F5607FFAD10B4BC3
S315080095D0D3F88000C0F3011003E0084B186FC0F3FE
S315080095E0033001307047054BD3F89000C0F3046090
S315080095F0F7E7024B186FC0F38020F2E700800050AF
S3150800960002464FF48030104B10B598660020FFF7DD
S31508009610CDFF504341F671320C4BDC69DA635A6868
S3150800962004F4803422F4401259B9094988428CBF9F
S315080096304FF480100020104358600CB10022DA6302
S3150800964010BD0449F2E700BF009000500000035027
S31508009650005A6202002D3101430905D0012B0DD0B5
S31508009660022B094B18BF002300F01F0041B103F578
S315080096708053012202FA00F018607047034BF3E7A3
S3150800968003F50053F5E700BF68800050648000507A
S315080096901FB5002180280446CDE9001100F0A580F9
S315080096A035D85E2846D85E2844D8DFE800F0A243BD
S315080096B0434343434343434343434343434343436C
S315080096C04343434343434343434343434343A2AA96
S315080096D0A2AAB9B9B9B9B9AAC34DD9714DAAAAAA44
S315080096E04343434343434343AAAAAA79E3AA4343CA
S315080096F04343434343434343434343B9A2A2A2DEFE
S315080097004D4DE8885EBE434343434399A200B0F5F6
S31508009710B06F00F08F802DD8B0F5207F71D00CD8AF
S31508009720B0F5C07F65D0B0F5007F65D0B0F5807F15
S3150800973000F08580009804B010BDB0F5607F6AD04F
S315080097400DD8B0F5407FF5D1FEF79AFA02464FF4E8
S315080097502070FFF72BFFB2FBF0F0400847E0B0F5AA
S31508009760806F5DD0B0F5A06FE4D100216846FFF7A1
S31508009770C9FDDFE7B0F5106F77D016D8B0F5E06F02
S3150800978078D00AD8B0F5C06F6AD0B0F5D06FD1D10D
S3150800979000216846FFF76EFECCE7B0F5F06FC9D139
S315080097A000216846FFF7DEFEC4E7B0F5406F3CD0FF
S315080097B013D8B0F5206F62D0B0F5286FBAD1002162
S315080097C0314B0391D3F8703203F00303012B02D116
S315080097D003A8FFF7C7FD039B3BE0B0F5486FA9D187
S315080097E000216846FFF714FEA4E7FEF72FFA00905B
S315080097F0A0E7FEF745FAFAE7FEF728FA02462046FA
S3150800980004E0FEF73DFA02464FF42070FFF7CEFE5D
S31508009810B2FBF0F0EBE701A8FFF7C4FC019AEEE70C
S3150800982000216846FFF7E2FC84E700216846FFF757
S315080098300FFD7FE700216846FFF73CFD7AE74FF00A
S31508009840E02302911B695B0705D5FEF719FA02901A
S31508009850029B00936EE703A902A8FFF783FDF7E7CB
S3150800986000216846FFF77EFD64E700216846FFF79A
S315080098702BFE5FE700216846FFF750FE5AE70021F6
S315080098806846FFF793FD55E70080005008B580202D
S31508009890FFF7FEFE034B98429EBF4FF48032024B01
S315080098A01A6708BD005A620200A000501FB50023BF
S315080098B0B0F5807F019300F0C38064D85D2855D841
S315080098C04C2807D82D2847D823282BD8019805B027
S315080098D05DF804FB4D381028F8D801A353F820F09A
S315080098E0379A0008CD980008CD980008CD9800084A
S315080098F0E9990008CD980008CD980008BD9A000897
S31508009900079A0008AD990008B39A0008CD98000890
S31508009910CD980008CD980008CD980008CD98000885
S31508009920C79A000824380928D0D801A353F820F08C
S31508009930379A0008379A0008379A0008379A0008B5
S31508009940379A0008CD9800082D9A0008CD98000887
S31508009950C99900086D9A00083D2800F082803E28C3
S31508009960B4D1002001A9FFF7D9FDAFE78028ADD112
S315080099705A4B1B6F03F00703013B032BA6D8DFE8FE
S3150800998003F05350878FB0F5F06F6AD021D8B0F541
S31508009990B06F4BD00FD8B0F5607F00F0858095D3B7
S315080099A0B0F5806F47D0B0F5A06F8FD1002001A920
S315080099B0FFF7A8FC8AE7B0F5D06F57D0B0F5E06F8F
S315080099C0CFD0B0F5C06F81D1002001A9FFF7CAFC3E
S315080099D07CE7B0F5206F71D00BD8B0F5086F4AD088
S315080099E0B0F5106F7FF472AF002001A9FFF76CFD88
S315080099F06CE7B0F5406F5CD0B0F5486F63D0B0F552
S31508009A00286F7FF463AF0021344B0391D3F870328B
S31508009A1003F00303012B5BD0022B14BF0B4615235F
S31508009A2000E00523019351E70223FBE7002001A983
S31508009A30FFF740FC4AE7002001A9FFF7D7FB45E7F7
S31508009A4002934FF0E0231B695B0705D5FEF718F96B
S31508009A500D230393039BE5E703A902A8FFF782FCFE
S31508009A60F8E7002001A9FFF77DFD2FE7002001A9EF
S31508009A70FFF700FD2AE7194BD3F8003103F003037B
S31508009A80022B07D0032B09D0012B0BD1FEF70EF9B9
S31508009A900323C7E7FEF766F90923C3E774F0D9F984
S31508009AA00823BFE70123BDE7184601A9FFF77AFB9C
S31508009AB00CE7002001A9FFF7CBFB07E7002001A967
S31508009AC0FFF774FC02E7002001A9FFF7A1FCFDE6F9
S31508009AD003A8FFF747FC1123A4E700BF0080005046
S31508009AE008B5FFF7E3FE092811D00A38012811D86E
S31508009AF04FF48002094B4FF6FF705A6603F5D833C8
S31508009B005B6A13F0010F18BF4FF4FA7008BD044BD7
S31508009B101888FBE74FF6FF70F8E700BF0090005083
S31508009B201416002038B504468020FFF7BFFE032828
S31508009B3000F083804FF48012504B4FF0A0615A66B4
S31508009B4045F60E034E4AC2F880304E4B99624FF4E2
S31508009B50803103F580539962916D11F48031FBD100
S31508009B60D4E900031B0543EA0063E07B0343207B3B
S31508009B7043EA0043607B43EA0033A07B43EA801351
S31508009B8013619069D4E904531B0643EA856300F020
S31508009B9000400343A07E0343207E43EA0043607EE1
S31508009BA043EA00239361136AE269E57E002A0CBF43
S31508009BB00020082023F00F03134343EA8503304AA5
S31508009BC003431362E369304D002B37D194F82430F0
S31508009BD0916A94F82000DB000D4043EA401394F89C
S31508009BE021102B4343EA011343F480339362274B36
S31508009BF0916D33EA0101FBD14FF0807121488162F2
S31508009C001369A56823F4700343EA055313614FF0FB
S31508009C100043836194F822300BB91D4B996294F87E
S31508009C2023301BB94FF48032194B9A6294F82530C9
S31508009C301BB1134B174AC3F8802038BD022B08D135
S31508009C401161154891614FF408524FF47F4174F041
S31508009C5091FA0B4994F822308A6A94F820001B0678
S31508009C60154043EA401394F824202B4343EAC203E1
S31508009C7094F8232043EA02438B62D7E7009000500A
S31508009C800040005A0050005AC7FFFEFE03000100BC
S31508009C900060005AF1A7FFFF3440005A37B5194C47
S31508009CA0A26AA36D13F4803F18BF4FF48031164B98
S31508009CB018BF99624FF080719962144BA56993F9A0
S31508009CC0003025F47F050344000280B225F47F4561
S31508009CD083F30803284340EA0340A0610C48019235
S31508009CE074F048FAA36D019A13F4803F07D04FF435
S31508009CF08031074803B0BDE8304074F03BBA03B082
S31508009D0030BD00BF0040005A0050005A72180020AB
S31508009D102840005A014B93F900007047721800203A
S31508009D204FF400011B4A437810B551664FF4D151E0
S31508009D30022402F5B832516217494F2B4C604FF096
S31508009D40010428BF4F2301F580514C601169C903EE
S31508009D50FCD4017843EA01235361D0E901131B01BE
S31508009D6043EA0123417B0B43017B43EA41039360AA
S31508009D70C37B817B1B0143EA4113417C0B43017C76
S31508009D8043EA41035360837C13B16FF4D1535362A2
S31508009D9010BD00BF0090005000100250014B188003
S31508009DA0704700BF141600204FF4800208B5184B00
S31508009DB05A660223174A5360936813F48033FBD11B
S31508009DC0012822D1FDF772FF134B984215D003F5EF
S31508009DD0122303F5F863984213D0104B00EB800268
S31508009DE0400AB3FBF0F0520A0A4BDA620122186302
S31508009DF05A620022074B5A6008BD45F67A10084A8F
S31508009E00F2E745F61A00074AEEE75362F1E700BFA4
S31508009E10009000500040025000F0490264666666F1
S31508009E20D8B80500BBCF0500B0F5207F10B50C46A5
S31508009E3057D008D8B0F5007F48D003D830B3B0F56E
S31508009E40C07F23D010BDB0F5607FFBD129492A48D1
S31508009E50D1F8FC2012F080721EBFD1F8FC3023F036
S31508009E608073C1F8FC30D0F88030611E23F03004CE
S31508009E7044EA0114C0F88040002AE3D01D4AD2F80B
S31508009E80FC3043F08073C2F8FC30DBE774F083F9EA
S31508009E9074F08FF94FF48031184B174A1967136F0E
S31508009EA0611E23F4704444EA01341467FDF7E8FEA2
S31508009EB00446FFF7F1F8C0F10201204674F073F981
S31508009EC000F02EF8BDE81040FFF7E0BC0A4A013959
S31508009ED0D2F8903023F0F85444EA0164C2F890406E
S31508009EE0B0E7054B013C196F21F4806141EA8424EF
S31508009EF01C67A7E700ED00E00080005000900050C6
S31508009F0008B50121022000F09BF974F044F974F0B9
S31508009F1050F94FF48032014B1A6708BD0090005083
S31508009F2008B54FF4C070FFF7B3FBBDE80840044915
S31508009F3088428CBF022101214FF42070FFF774BFBD
S31508009F4080F0FA024FF4C02201212DE9F0410546BE
S31508009F506A4B5A666A4A03F598335C6851605E68CC
S31508009F6016F00206FBD1FFF797F80128286805D1F5
S31508009F70644B984202D90020BDE8F081624A00236A
S31508009F8011461768B84202D35768B84205D9013353
S31508009F90192B02F11002F4D1002301EB0313D3E9C4
S31508009FA0028028B1FFF784F800F07F0048EA00082D
S31508009FB08020FFF77BFC05285FD174F0ECF874F07D
S31508009FC0F8F84FF480324D4B4FF4C0701A67FFF71C
S31508009FD0EDFA012806464CD102214FF4C070FFF76E
S31508009FE023FF01274948C16811F00601FBD1D0F8C3
S31508009FF008C0C0F80880836808F4F81203F4F81358
S3150800A0009A424ED1AA88EB8843EA0243404AD36073
S3150800A010AB68032B33D1A2F5A032D2F8003123F076
S3150800A020030343F00103C2F800312B7D287B002B84
S3150800A0306B7D14BF04220022002B18BF40212B6918
S3150800A0404FF0000843EA40031343314A0B43936039
S3150800A0502868FDF7F5FD0722294B1A610122A3F5A9
S3150800A06080535A60A3F580531C6914F00704FBD08B
S3150800A0701EE0022801D10421AFE70027B2E7092B29
S3150800A08007D1244AD2F8003123F0030343F0020330
S3150800A090C9E7082BC9D11F4AD2F8003143F0030398
S3150800A0A0C1E714F001044FF00108C0F808C0D2D186
S3150800A0B08020FFF7FBFB052817D127B131464FF45F
S3150800A0C0C070FFF7B1FEFDF7DBFD0546FDF7B2FDF3
S3150800A0D0FDF7B0FDFEF7E0FFC0F10201284674F077
S3150800A0E062F8FFF71DFFFFF7D1FBB8F1000F7FF409
S3150800A0F042AF631E584258413EE700BF00900050E9
S3150800A10000E00150005A620238E00B0800000150D6
S3150800A11000C00150008000500028ABBF00F160402D
S3150800A120054B00F5614000F00F00ACBF90F8000346
S3150800A130185C0009704700BF14ED00E0054B4209A2
S3150800A14053F8223000F01F0023FA00F0C04300F055
S3150800A1500100704700E100E0014608B5EFF31083FF
S3150800A160DB0702D50122104608BDFFF7E7FF0246C6
S3150800A1700028F7D10846FFF7CFFF0146EFF3118312
S3150800A18013B1B0EB131FEDD2074B5B68C3F308039B
S3150800A190002BE8D0103B58B2FFF7BEFF88428CBFB1
S3150800A1A000220122DFE700BF00ED00E0024A536B00
S3150800A1B00342FCD1704700BF00400950044A417869
S3150800A1C0536F23F4407343EA01235367704700BF74
S3150800A1D00040005010B50A4A0446136943F00403C8
S3150800A1E0136106F049FB74F00EF830BF74F00CF8F2
S3150800A1F006F056FB1CB9BDE81040FDF741BD10BD81
S3150800A20000ED00E010B5084A0446136943F004035C
S3150800A210136106F031FB30BF06F042FB1CB9BDE8FE
S3150800A2201040FDF72DBD10BD00ED00E0034A017991
S3150800A230D36E23F030030B43D366704700400050BB
S3150800A240F8B504461C4BD3F88420D106FBD4D3F8C2
S3150800A2508430C3F381139C422CD0FDF7F7FC012C04
S3150800A260064602D1214673F09EFF73F0BCFF4FF0FD
S3150800A2700072124B07465A66204673F0C8FF4FF421
S3150800A28080630D4D621E93402B676B6E9A0103D453
S3150800A290D5F884309B060AD5384673F0A8FF022CF9
S3150800A2A008D13046BDE8F840002173F07CBFD5F8E8
S3150800A2B08430EAE7F8BD00BF004000500060005057
S3150800A2C007B518B90191FDF7C1FC0199064B1B7832
S3150800A2D043B1064B984205D8012003B05DF804EB5C
S3150800A2E0FFF7AEBF0220F8E723E60120005A620214
S3150800A2F00278034B012100201A70FFF7E1BF00BF67
S3150800A30023E601204FF00042154B10B55A664AF66F
S3150800A310CD3314494C6C0B6404F0010488B9012050
S3150800A320FFF744FF4B68DB0704D50F4B58600B6BF0
S3150800A330D807FCD514B10B4B0C4A1A64B2F0C7FE09
S3150800A34010BD0B6B1A07FCD42022074B9A62012218
S3150800A350A3F580535A60034A936A9B06FCD5E9E73E
S3150800A3600090005000400950006009503254FFFF29
S3150800A3704FF0004238B5164B01465A664AF6CD33B9
S3150800A380144C154A656C236443780B205B0043F034
S3150800A3900103D363FFF70AFF63688A7823F4F87327
S3150800A3A043EA02136360CA784B7943EA0223A3603F
S3150800A3B00A798B7943EA022323610878FFF7A2FF1B
S3150800A3C0EB0744BF054B2364B2F081FE012038BD7C
S3150800A3D00090005000400950004000503254FFFFE2
S3150800A3E04FF0004270B5124B04465D6E03F580537C
S3150800A3F05A664AF6CD330F4980204E6C0B64FFF738
S3150800A400D5FE0B6A23F00F030F2C94BF234343F0AA
S3150800A4100F030B62F30744BF074B0B64002DA2BF63
S3150800A4204FF00042054B5A66B2F051FE70BD00BFB0
S3150800A43000800050004009503254FFFF00A0005031
S3150800A4404FF0004270B5104B04465D6E03F580531D
S3150800A4505A664AF6CD330D4980204E6C0B64FFF7D9
S3150800A460A5FE0B6A23F4F85343EA04230B62F307A9
S3150800A47044BF074B0B64002DA2BF4FF00042054BAB
S3150800A4805A66B2F024FE70BD0080005000400950A4
S3150800A4903254FFFF00A0005010B573F0BDFE042330
S3150800A4A000F5805100F500520B6113610B611361D1
S3150800A4B00B6113610B611361202341F202010361F1
S3150800A4C00023C360836041614FF4A02183618365E3
S3150800A4D041620549C36103628362C36243630365DC
S3150800A4E0D164036310BD00BFFF3F0D03F8B50546F1
S3150800A4F01446084641B9344B9D422FD0334B9D42F2
S3150800A50008BF5720FFF7C4F8AB68DE072ED5B0FBA7
S3150800A510F4F46E68013C16F0010625D02821284679
S3150800A52073F076FEAB6C99071AD1AB6CDA0719D4BF
S3150800A530AB6C13F0020F0CBF00270627284673F0F2
S3150800A5406BFE286920F07F4040EA04642C61DEB186
S3150800A55039462846BDE8F84073F095BE5620D1E73F
S3150800A5600527EBE70927E9E73746EAE76B68AB6DA6
S3150800A570AF68DB0707F0E00748BF6400402F1BD031
S3150800A58003D8DFB1202F1BD0F8BD602F1AD0802F3B
S3150800A590FAD1012604FB06F34101B1FBF3F30C4A99
S3150800A5A0203B02EAC3022846012173F031FE2A63E2
S3150800A5B0BDE8F84073F02CBE0626EBE71026E9E75F
S3150800A5C00826E7E70426E5E70000015B00000A50D5
S3150800A5D0F8FF7F00F8B51E46436804460D46174641
S3150800A5E01BB140F6FF7173F013FE2046FFF754FFC8
S3150800A5F0E9896B7B62690B43298A22F44C520B4327
S3150800A60022F00F0213436361A368297B2A7E23F095
S3150800A610804323F0E203114319436B691943A16090
S3150800A620AB681BB9A36843F00043A360EA69002A34
S3150800A6306BD0A368127A43EA8253A360EA69A368D7
S3150800A640927A43EA4243A360EB69A2689B8803F4C3
S3150800A650C0431343A360EA69A368527843EA8203B6
S3150800A660A360EA69A368527B43EAC203A360EA6966
S3150800A670A368927B43EA0213A360EA69A368927807
S3150800A68043EA8223A360EA69D37991795B0243EAB4
S3150800A6908123E360EB69674A1B7803F0FD03012B0E
S3150800A6A002BFE36843F00403E360EB691B78023BEF
S3150800A6B0012B614B7AD8944276D0604A94420CBFFB
S3150800A6C001224FF0FF3203EB421341F2944202217A
S3150800A6D09950EB695A7A04F580539A62EB695B7A6A
S3150800A6E01BB1E36843F40063E360EB69DB7A63B1AB
S3150800A6F0E36843F40043E3604E4B9C4265D1EB6943
S3150800A7004F4A1B7B03F00F0353673FB197F820307E
S3150800A71004F58050002B63D001230362002E30D04D
S3150800A7202B7E04F5805013B14FF40043836596F8E9
S3150800A7302120404B102A434961D89C425DD03F4BAB
S3150800A7409C420CBF01234FF0FF330127CF54768C70
S3150800A7503849B6F5006F3C4B5FD88C425BD0374919
S3150800A7608C420CBF01214FF0FF3101275F54A36DC6
S3150800A770324323F4F95323F01E031343A36501233D
S3150800A78083650521204673F061FDAA6812B16968E0
S3150800A790FFF7ACFE2046297873F075FDA36CDB4302
S3150800A7A013F4405FFAD1F8BD00228CE794420AD030
S3150800A7B0224A94420CBF01224FF0FF3203EB4213A8
S3150800A7C042F2944283E70022F8E71C4B9C429CD154
S3150800A7D0EB691B4A1B7B03F00F03C2F8803094E732
S3150800A7E0E36997F8221097F8212023F009030A4312
S3150800A7F01A4342F00102C26190E70023A5E79C4292
S3150800A80007D00E4B9C420CBF01234FF0FF330227A3
S3150800A8109CE70023FBE70021A7E78C4207D00749FE
S3150800A8208C420CBF01214FF0FF3102279EE7002121
S3150800A830FBE700BF0000015B00C0035000000A50A0
S3150800A8400090035026E6012024E6012070B54368EF
S3150800A85004460D460E691BB140F6FF7173F0D8FC2D
S3150800A8602046FFF719FE22696B7BA97B22F0870237
S3150800A8700B43134343F0800323611EB32A692369FC
S3150800A880117823F0F8030B43117F43EAC1131179BA
S3150800A89043EA4113517AD27B43EA011343EA82130E
S3150800A8A02361E268296922F0F04222F47022D1E994
S3150800A8B00530034313430A7B43EA82234A7B43EA70
S3150800A8C0C233E360A368EA7B23F00303134343F030
S3150800A8D00103A3603EB32B69A2685B8803F4C043F7
S3150800A8E01343A3602A69A368527943EA8223A360C3
S3150800A8F02969626A8B79C8791B01000203F0700323
S3150800A90000F4E06022F4772222F4EE620343134354
S3150800A9100A7A120302F4E04213434A7F120402F44D
S3150800A92070221343636263692A7B23F00F03134380
S3150800A9306361C6B12B695B89A3612B695A7B3AB1FE
S3150800A9401E4A944225D19B7B1D4A03F00F03536789
S3150800A9502B69DA7B3AB1194A944225D11B7C184AED
S3150800A96003F00F031367D5E901122046FFF7BEFD72
S3150800A9700521204673F06AFC282173F049FC2B78E0
S3150800A980A36373F045FCA36CDB4313F4405FFAD171
S3150800A99070BD0C4A944201BF9B7BA2F5CE2203F000
S3150800A9A00F03C2F88030D3E7064A944201BF1B7CE6
S3150800A9B0A2F5CE2203F00F03D367D4E70000015BAC
S3150800A9C00090035000000A50072AF7B501F0030665
S3150800A9D014461F464FF003012CD89500A94000FAEB
S3150800A9E005F21C48019173F068FC01991A4806FAA9
S3150800A9F005F273F062FC194B19499DF82000002FE7
S3150800AA0008BF1946012303FA04F40C60154B1649CE
S3150800AA10002808BF0B461C60144B1031C3F82044AD
S3150800AA209DF82400A3F6DC33002808BF0B461C60FB
S3150800AA3003B0F0BDA2F10805AD00A94000FA05F281
S3150800AA400B48019173F039FC01990A4806FA05F298
S3150800AA50CFE700BF00C4035008C4035010E40350F6
S3150800AA6010D4035014D4035014E4035000E00350E8
S3150800AA7004C403500CC403502DE9F04105460F46A3
S3150800AA801E4690464AB101233022194C8B4002FBE0
S3150800AA9000443EB304F5825423600F21072F05EBCB
S3150800AAA0450388BFA7F108044FEA0313114895BF69
S3150800AAB0BC00A40004330C3308FA04F2A14018447D
S3150800AAC073F0FBFBB8F1000F0AD101213020084AC8
S3150800AAD001FA07F700FB05223EB102F5825217601C
S3150800AAE0BDE8F08104F50154D6E702F50152F6E710
S3150800AAF000C0035030C00350F8B505460E4614464C
S3150800AB005AB3826803F0030722F44072826073F036
S3150800AB106AFBAA6882EA072303F440735340AB60D2
S3150800AB2073F065FB36B9B5F1B64F17D12E20FEF78F
S3150800AB30AFFD0646AB680C4BD85D60430DD06FEA97
S3150800AB40C4040444A319B3FBF0F3AA68013B9207B3
S3150800AB5002D5002B08BF0123AB61F8BD034B9D420C
S3150800AB60E8D12F20E3E700BFC8E10B0800800650B4
S3150800AB7038B500230E4A036400F50053DA634A78B1
S3150800AB8004460D4600F108037AB903F580530222FC
S3150800AB901A602046D5E901122B7BFFF7ADFF204648
S3150800ABA02978BDE8384073F099BB03F50053EEE702
S3150800ABB0FFFF1F00B0F1B64F2DE9F04322D0804BBE
S3150800ABC0984240F0FA807F4B402505264FF0000852
S3150800ABD04FF0030C9A6800F50054C16B11F4C06F6E
S3150800ABE016D08E0510D5FD225A7009221A70002239
S3150800ABF0026493F90110012900D15A7093F90100F2
S3150800AC00BDE8F083704BDFE74D05EED5FE22EBE796
S3150800AC101F78082F00F2CD80DFE817F00900210021
S3150800AC2044004F006C0078009900A000C3005188CA
S3150800AC301288CC060CD5120A02F0060242F0F0027F
S3150800AC40012119704263C1601A78092ACFD05BE0E6
S3150800AC5002F0FE02890748BF42F00102F0E70F063C
S3150800AC6009D5802100F50052D1634FF608721A8083
S3150800AC700222C260E8E7490646D5E5635188CF0651
S3150800AC8004D50221197012784263DDE7890763D576
S3150800AC9007211970197902EBC1021289012A33D1E9
S3150800ACA00822E6E70F06DCD449062DD5E563518868
S3150800ACB08F0751D583F800C08FE754881188E506B9
S3150800ACC043BF090A01F0060141F0F00101F0FE0157
S3150800ACD0640709D51C7941F0010102EBC402128907
S3150800ACE0012A04BF0822C26004221A700122C26027
S3150800ACF04163A9E70F06B4D44F0605D5E563518825
S3150800AD00490729D507221A70012079E719795F883A
S3150800AD1002EBC10EBEF80890B94510D80131C9B288
S3150800AD20A3F802801971578817F0040FC2D1FF07DC
S3150800AD3002D401297FF651AF08221A7098E7DEF887
S3150800AD400420791C5980D25D42630622DBE70F0690
S3150800AD5087D44F06D8D5E5631E703EE78906D3D556
S3150800AD602025197900F5005402EBC1010989466AC4
S3150800AD70E5635C88A142DFD91D7902EBC5025268FA
S3150800AD80651C5D8016555A888A42D5D20422012947
S3150800AD90C2607FF659AF5A8801398A427FF454AFA8
S3150800ADA07EE7CA05B0D54FF4807100F50052D1632D
S3150800ADB01BE74FF609321A8019E76FF003001FE701
S3150800ADC0008006502441012018410120B0F1B64FF9
S3150800ADD010B407D01A4B98422ED06FF003005DF8D6
S3150800ADE0044B7047174B0269D20744BF2022C26042
S3150800ADF04A88940702D50C89002CEED0520702D552
S3150800AE000A8A002AE9D04FF480721A6000229960F3
S3150800AE101A71C023C3604369DB050FD4202200F5ED
S3150800AE200053DA63084ADA63036C43F4FC63036489
S3150800AE305DF8044BFFF7BEBE044BD4E7436AEAE766
S3150800AE400080065018410120FFFF1F002441012001
S3150800AE50044A054B002918BF1346012202FA00F0DE
S3150800AE6018607047402004504010045010B5012166
S3150800AE7004462020FEF7F0FB01212120FEF7ECFB1B
S3150800AE800122114B5A60227812069A606178A278DC
S3150800AE9042EA01429A61FF229A6200229A631A6480
S3150800AEA04FF000425A654FF0FF324FF4001103F598
S3150800AEB000531A65054AC2F88011E3781B01DBB214
S3150800AEC082F81533116010BD0000045000E100E05F
S3150800AED070B50125C3B29D401E4B0C461D65830007
S3150800AEE0096803F1A04303F58823596030211A4EF7
S3150800AEF0637B01FB00600366E37AA17A1B0543EADC
S3150800AF000143217B22F0030243EA4153C3650267EA
S3150800AF1073F070F9736D2B437365237A13B1336C31
S3150800AF202B433364637A13B1B36B2B43B363227930
S3150800AF30A37943EA0243074A93616179E37943EACD
S3150800AF40014306498B61044B55639D64BDE8704017
S3150800AF5073F056B900200450000004500010045045
S3150800AF6010B50124C0B2844073F044F9044B5A6DFD
S3150800AF7022EA04025A659C62BDE8104073F040B9A3
S3150800AF800000045010B50124C0B2844073F032F9B1
S3150800AF90074BDA6A224209D15B6B34EA03030CBF1A
S3150800AFA00124002473F02CF9204610BD0024F9E78B
S3150800AFB000000450F8B50125C3B204469D4073F05D
S3150800AFC019F93022094B1E6D5F6B02FB04335C6E68
S3150800AFD073F016F93D4206D1C4F30A1008B9354292
S3150800AFE000D10130F8BD0020FCE700BF0000045086
S3150800AFF04FF48032054B9A6641F6713203F51C33DD
S3150800B000DA63012203F50053DA60704700900050B6
S3150800B01041F671320121064BDA6303F50052D1601D
S3150800B0200022DA634FF48032A3F518339A66704724
S3150800B03000000350013831289ABF024B185C0020E3
S3150800B040704700BFCCE10B08021E30B54FF0000078
S3150800B0500CBF1025042547F60774084952B9831D05
S3150800B06051F82330234023B101308542F6D14FF001
S3150800B070FF3030BD00F11603F2E700BF0080035031
S3150800B08010B5C2F30623044602F0070241B942EAA4
S3150800B09003220B4B42F44022063443F8242010BD09
S3150800B0A01846114673F024F901461846FFF7C2FF01
S3150800B0B0034B41EA0020163443F82400EFE700BFAB
S3150800B0C000800350014BD3F89400704700400050AD
S3150800B0D04FF48032064B5A6603F5E6239B69C3F3A1
S3150800B0E08512827003F03F021B0B42700370704793
S3150800B0F00090005040F6B732064B5B689BB293420D
S3150800B1009FBF4FF47A72B3FBF2F3034AD05C88BF51
S3150800B110002070470080E00FFEE10B0870B5054679
S3150800B12016461C4621B94FF42070FEF7B1FA0146BF
S3150800B130402C1BD003D8DCB1202C1BD070BD602C52
S3150800B140FCD1042303FB06F2560806EB4113B3FBB6
S3150800B150F2F3094A203B02EAC303AA6822F0600216
S3150800B160AA60AA681443AC60EB61E7E70623E9E73F
S3150800B1701023E7E70823E5E7F8FF7F00012100F53C
S3150800B180805310B5596040F6AA6341F2050243613F
S3150800B1900023094C8360C365C26000F50052036151
S3150800B1A0C361C3649464054C8365A04204BF036508
S3150800B1B04365516010BD00BFFFFF010000C0055088
S3150800B1C070B50C46FFF7DAFF012300F58056736069
S3150800B1D0A37C05461BB1836843F080438360E37C08
S3150800B1E05BB1234B9D4202BF227DA3F51033C3F802
S3150800B1F0C821EB6D43F08003EB65228A637B284602
S3150800B2001343E2891343EB60237BD4E90112FFF76A
S3150800B21085FF637D1BB1AB6843F48033AB60A37DC8
S3150800B2201BB1AB6843F40043AB60E37D227E1B078A
S3150800B230120502F4E00203F0E0431343AB65637EB4
S3150800B240023B012B4FF0020394BF0A4A0A4AC2F88E
S3150800B2502037637E03F0FD03012B4FF0040316BF6E
S3150800B26005F50052F365D36523786B6170BD00BFA1
S3150800B27000C0055000D0035000E0035038B50D4615
S3150800B280FFF77CFF012200F580535A60A97B2A8AC2
S3150800B290002914BF4FF480610021836842F001023F
S3150800B2A013430B4383602A7D8368002A14BF4FF03B
S3150800B2B00052002213438360AB7C04465BB1194BF2
S3150800B2C0984202BFEA7CA3F51033C3F8C821C36DC0
S3150800B2D043F08003C3652B7B204643F48053E36029
S3150800B2E0D5E9011273F065F86B7B0BB11023636126
S3150800B2F06B7D1BB1A36843F48033A360AB7D1BB1A0
S3150800B300A36843F40043A360EB7D2A7E1B0712055E
S3150800B31003F0E04302F4E0021343A3652B7863616C
S3150800B32038BD00BF00C005500123064A411100F090
S3150800B3301F0003FA00F052F82130184342F82100A2
S3150800B340704700BF30410120044B1B681BB1044BFA
S3150800B3500360002070470120704700BF404101206C
S3150800B36038E4012070B50D4C246884B10C4C85185E
S3150800B3702688B5420DDC6688CD18B54209DC52B17F
S3150800B3804BB1A0800020E1802281638170BD01203D
S3150800B390FCE70420FAE70520F8E700BF4041012052
S3150800B3A038E401202DE9F74F1E46424B90461B68AC
S3150800B3B0002B79D0DFF804A1BAF80A20BAF80840B9
S3150800B3C0531A63431B1AB34270D300244FF0010982
S3150800B3D0BAF806301A4492B25F180192BFB21EB983
S3150800B3E0304603B0BDE8F08F019ABBB293425FD2F4
S3150800B3F0BAF80850304B2D1AB54228BF354603EB2C
S3150800B4000712BAF80430761B184483B2400703D1F2
S3150800B410610701D1072D26D81D441B1B191989B2AE
S3150800B420A94205D33846FFF77FFF01370020D6E744
S3150800B4304FEAE40E18F80EE04FEAD10C04F0070BB9
S3150800B44001F0070112F90C0009FA01F14EFA0BFE98
S3150800B45049B21EF0010F14BF014320EA010102F8A8
S3150800B4600C100134DAE702EBD3034FEAD50B5A4640
S3150800B470184608EBE401A8F044FD25F00702AD1ACA
S3150800B48003461444CED0E01009FA05F218F8000075
S3150800B490D2B2511E014013F80B00524202400A4331
S3150800B4A003F80B202C44BDE7012699E7032697E706
S3150800B4B0042695E74041012028E6012038E40120CA
S3150800B4C02DE9F74F0093444B1B68002B7FD04FF0B4
S3150800B4D0010BDFF80C910D9FB9F80630B9F80A2070
S3150800B4E05D181A441FFA82FAADB21FB9384603B07E
S3150800B4F0BDE8F08FABB29A456BD9384AB9F808401F
