S02B00006275696C642F64656275672F6C696768742D7377697463682D6170702D6D696E696D616C2D7468728B
S3150800600000120020157F0008430808089D010B08A8
S31508006010492A0808430808084308080843080808DE
S315080060204308080843080808430808085162000896
S315080060304308080804290C08F161000871340808A7
S31508006040C17C0008430808084308080843080808EC
S3150800605043080808430808084308080843080808C6
S31508006060430808084308080843080808ED610308B8
S3150800607043080808430808084308080843080808A6
S315080060804308080843080808430808084308080896
S3150800609043080808658500084308080843080808EF
S315080060A043080808E1860008BD8600084308080872
S315080060B043080808B9F90708C5030808F1270C08B2
S315080060C0ED270C089DFB0708FD270C08F5270C088B
S315080060D09D030808F9270C08050408086904080838
S315080060E04308080843080808430808084308080836
S315080060F0452A080843080808430808084308080802
S315080061004308080843080808430808084308080815
S315080061104308080843080808430808084308080805
S3150800612043080808430808084308080843080808F5
S3150800613043080808430808084308080843080808E5
S3150800614043080808C5B40008430808084F2B080880
S3150800615065DF07084308080845240C084B240C0883
S3150800616043080808430808084308080843080808B5
S31508006170013800D0FCE7704700000000000000006E
S315080061800B4A1168086806C881F30B88022181F357
S315080061901488203080F30988BFF36F8F4FF0000012
S315080061A080F31188104700BFAFF30080AFF300807B
S315080061B02C4C012000000000000000000000000038
S315080061C007480068006880F3088862B661B6BFF3BE
S315080061D04F8FBFF36F8F02DF00BF00BFAFF30080A2
S315080061E008ED00E0000000000000000000000000CC
S315080061F0EFF30980EFF30B82734620E9FC0F104A90
S31508006200116808604FF0300080F31188BFF34F8F94
S31508006210BFF36F8F0EF0C2FE4FF0000080F31188B7
S31508006220074A11680868B0E8FC0F82F30B8880F308
S3150800623009881847AFF30080AFF30080AFF30080FA
S315080062402C4C0120000000000000000000000000A7
S315080062501EF0040F0CBFEFF30880EFF30980044922
S31508006260084700BFAFF30080AFF30080AFF30080AC
S31508006270753A0108000000002DE9F04F2DED028B5C
S31508006280DFF8E8918FB0B9F800309B0706D440F2E2
S31508006290A5616F4B6F4A70485CF0AEF8DFF8D0B175
S315080062A0DBF8003023B940F2A6616C4B694AF2E785
S315080062B06B4C0DF1200894E8070088E807009B88D6
S315080062C0684D8DF817300123B9F800200DF1170134
S315080062D01A462868BBF062FC9DF81720DBF8001008
S315080062E0023A0023096892B20C3428680DF12C0A88
S315080062F0BBF054FC94E807008AE80700DBF8003096
S315080063001B681C7814F0200421D02868BBF05FFABB
S31508006310002870D02868BBF05AFA04460D985BF03E
S3150800632057FB064620460F465BF052FB02460B46D5
S3150800633043A1D1E900015BF0EFFC02460B4630466B
S3150800634039465BF009FA5BF057FE0D900124286880
S31508006350BBF059FA9DF81730002850D0981DC00098
S315080063605BF046FB38A3D3E900235BF0ABFB41ECBB
S31508006370180B2868BBF047FA03900D985BF028FBCA
S31508006380039B064618460F465BF022FB02460B4661
S3150800639051EC180B5BF0C0FC02460B4630463946FA
S315080063A05BF0DAF95BF028FE0D90B9F80020DBF80F
S315080063B0003012F02002286827D00D9A02F5FA72EA
S315080063C00D9293F8202099798DF82220264A434683
S315080063D01278CDF800A08DF823202246BAF070FF77
S315080063E020B102200BF098FD50F0A2FD0FB0BDECD5
S315080063F0028BBDE8F08F0D9BC0330D93A6E70D9871
S31508006400063300EB43130D93CFE79D6999797DB168
S31508006410DB69154E2B4436780693ADF81C20CDE97A
S31508006420008A224606AB8DF82360BAF054FFD7E7F8
S3150800643053462246BAF02EFFD2E700BFAFF30080DC
S315080064400000000060E366410000000080842E41E1
S31508006450204F0C081F520C08A14D0C08464F0C087B
S3150800646004510C08984801204E190020DEF9012035
S315080064709C4B012000000000F7B5814B1C8814F0E6
S31508006480010440F0F68041F60B2280277D4D7E4BB5
S315080064906FF07F01C5E9003405F11003AB607B4B53
S315080064A07B489A8010221C60B1F067FF794B1F70F9
S315080064B0794B1B6ADB0706D44FF48661774B784A1B
S315080064C078485BF099FF2146284670F0B1FA0446F1
S315080064D020B940F23441744B714AF1E771F0ACFED1
S315080064E020B14FF48761714B6D4AE9E74FF001110E
S315080064F02046BBF03BFB20B140F23C416B4B684A5F
S31508006500DEE702212046BBF043F920B140F23F41C5
S31508006510664B634AD4E72046654971F051FC20B1C1
S3150800652040F24241614B5E4ACAE701212046BBF070
S31508006530D3FC20B140F247415C4B594AC0E70121E0
S315080065402046BBF0E0FC064620B140F24A41574BD4
S31508006550534AB5E7014638225648B1F00EFF3B4686
S315080065603246204605F11401BBF02EFB802804D0E4
S3150800657040F25141504B4A4AA2E7504D0120BAF029
S3150800658084FE3DA3D3E900232C602046CDE90023F1
S315080065904FF0FF324FF0FF33BBF0B3F9014620B19D
S315080065A04FF46471414B464A8AE738480BF038FB8A
S315080065B0012108460BF0A8FB01212868BBF032F838
S315080065C0044620B140F2E341384B3E4A78E701469B
S315080065D04FF408723C48B1F0D0FE3C4A3C4B02F1FD
S315080065E088011A60996202F5887102F5CC729C805E
S315080065F09A679C85374AA3F854401965A3F87C40E6
S31508006600354B6FF063001A609C80344A344B1A602D
S31508006610344A9C801470344A5A6114F09DFE0B204B
S315080066200BF0B8FA314B186020B940F2FB41304BF9
S31508006630244A45E704F09EFE20460BF0BFFB0822DD
S3150800664028681146BBF078F9044620B14FF4A061DA
S31508006650284B1C4A34E70CF039FC274B27481C709A
S31508006660274B1C70274B1C7003B0BDE8F04083F025
S315080066703BB803B0F0BD00BF0BE020FFE20300000B
S31508006680DEF90120A4480120452001089C48012084
S3150800669076FC012067FC01200080E00FF04F0C0813
S315080066A094510C08A14D0C0809500C08014D0C0812
S315080066B0A4520C084449012018500C089848012097
S315080066C087510C0810520C087C4901208449012086
S315080066D0201D002087FC0120F81C00200CFD01204D
S315080066E0C01D002006FD0120E81D002040490120AC
S315080066F050500C086B500C086AFC0120EF500C082F
S315080067000BFD01200AFD01202DE9F3411F46204B10
S31508006710044683424FF000038B410E46154611D2BC
S3150800672019A3D3E900235BF0D7FC1A490246284689
S3150800673085F093FD14A3D3E90023204631465BF088
S31508006740CBFC144614484FF47A78B4FBF0F200FBFD
S3150800675012444EF66020B4FBF0F300FB1344B4FB7E
S31508006760F8F628460D49009685F077FD47B1284684
S3150800677008FB16420A4902B0BDE8F04185F06DBD36
S3150800678002B0BDE8F08100BF005C260500000000ED
S31508006790FF5B26058C8F0C0880EE360047320D0805
S315080067A0928F0C08000000002DE9F04F2DED028BAA
S315080067B0804600680C4691461D468DB030B90327C1
S315080067C038460DB0BDEC028BBDE8F08F0668766CD6
S315080067D0B0472D2807460CD00028F1D09C4A9D4B7F
S315080067E00221A52808BF13460D209B4AA6F0E4FF00
S315080067F0E6E76378202B01D10027E1E7974BD8F825
S315080068000000049358B1036822461B6C04A99847F4
S31508006810074630B1049803689B689847D0E7032772
S31508006820F8E78F4B8F4E05934FF48973EE40F64386
S31508006830EB40DB43102D06F0010688BF0126082D24
S3150800684003F0010388BF01239FED7F8B6FF0010BD7
S315080068500193049805A90368DB689847002840F067
S31508006860EC808DF80E0005980DF10E010368DB68C3
S3150800687098470746002843D19DF80E30402B03D091
S31508006880802B01D003273BE062789A42E1D10123AD
S3150800689005988DF80F3003680DF10F015B6998476D
S315080068A0074668BB9DF80F30082B17D8002BD0D0A9
S315080068B0013B072BCDD801A252F823F00D69000839
S315080068C0E768000853680008096900085368000863
S315080068D0536800085368000813690008102BB8D1DC
S315080068E0002EB6D102E06B1E012BB2D80023059804
S315080068F00693036806A95B6A9847824668B1074605
S3150800690005A893F01AFE85E7042DEFD0012DA0D136
S31508006910ECE7019B002B9CD1E8E7069B002B46D0B1
S315080069208DED088B05985146036808AA9B6A984717
S3150800693007460028E4D1DDE90830591E40F1FF3248
S315080069408B456FF0100171EB020210D39DF80E20F3
S31508006950402A97D1D4E90212904208BF8B4226D02A
S31508006960069B0AF1010A53457FF673AFD8E74FF045
S31508006970FF31C21C994277EB020231D39DF80E20F3
S31508006980402A7FF47FAF1F0C04F1100104F11C00AC
S315080069909BB28842E4D051F8042B002AF9D0B7EB11
S315080069A0124FF6D1002BF4D092B29342F1D80023BD
S315080069B005980793036807A99B6B9847074600281D
S315080069C09ED1079B002B36D082460598CDF820A08D
S315080069D003683946DB6B08AA984758B107468FE71C
S315080069E013F5803F70F1FF32FFF44CAF9DF80E208F
S315080069F0802AAEE7089BD90704D5D9F8002009995B
S31508006A00914212D19A0705D5BDF82810B9F8042085
S31508006A1091420AD15B070ED5D8F80400B9F80420CC
S31508006A2003680B999B68984728B9079B0137BB42AF
S31508006A307FF60FAFC9E7002762E702210D200A4A51
S31508006A40A6F0BAFEA5275BE70000000000000000DC
S31508006A50D0A40C086DB30D08A4A40C0800140020DB
S31508006A600414002016010100C1A40C08000000004F
S31508006A702DE9F04F00252DED028B044616462F46CC
S31508006A80A8469FED398B90F838309BB00591039353
S31508006A9000F10C0A0295039A2BB29A4256D05AF87C
S31508006AA0043B615D324804939EF0CAF803788DF87A
S31508006AB0183043788DF819304388ADF81A300379C1
S31508006AC08DF81C300BB18368089383893168ADF85B
S31508006AD02430D0E90423CDE90A230B680CA89B6966
S31508006AE09847DDE90AB301930199DDE90C23994238
S31508006AF008BF934528D19DF819309DF838909945D7
S31508006B0022D11C4BC8460C93059B1B4A10930023A5
S31508006B10314611A81192CDE912338DF850308DED1A
S31508006B200E8BADF01AF8316816A80B689B69984762
S31508006B30049AE36B12680CA906A898470CA832F0C9
S31508006B4095FD019FCDF808B00135A4E7029B2046C4
S31508006B500CA9CDE90C378DF8388033F079F91BB0DC
S31508006B60BDEC028BBDE8F08F0000000000000000BD
S31508006B7018D5002008AD0C08309F0D08000000004D
S31508006B802DE9F04F2DED028B884204460D469046BE
S31508006B901E4697B00AD1034601211D202E4A17B07A
S31508006BA0BDEC028BBDE8F04FA6F006BE9FED288B24
S31508006BB00DF10C092A21484605AF40F0DDFA99E89F
S31508006BC0030087E80300DFF894A0DFF894B0BDF867
S31508006BD01400BDF81630834234D040F039FB3378C0
S31508006BE081468DF824408DF825508DF826808DF83D
S31508006BF028300BB173680B9309AB0893CDF81CA02A
S31508006C0039F072FE00230E938DF840308DF851301E
S31508006C102A23ADF830904FF001090D930CAA6B4664
S31508006C2007A98DED128B8DF8509099F0BFFB03469E
S31508006C3020B15A4649461D20A6F0BEFD38469DF0AD
S31508006C40A9FEC4E717B0BDEC028BBDE8F08F00BF04
S31508006C50000000000000000024CC0C0810CD0C0831
S31508006C6064CC0C08000000002DE9F04F2DED028BD6
S31508006C709FED318B9DB00DF108092A21054604AC1C
S31508006C80484616461F46DDF8A48040F075FA99E88E
S31508006C90030084E80300DFF8A8A0DFF8A8B0BDF871
S31508006CA01000BDF8123083423ED040F0D1FA289B3E
S31508006CB081461B78CDE90A6708958DF830301BB1F7
S31508006CC0289B5B788DF8313098F800308DF838308D
S31508006CD01BB1D8E90223CDE9102308AB0793CDF8F9
S31508006CE018A039F001FE00232A228DF858308DF8B5
S31508006CF069300223ADF848904FF00109CDE9132316
S31508006D0006A96B4612AA8DED188B8DF8689099F036
S31508006D104DFB034620B15A4649461D20A6F04CFDB8
S31508006D2020469DF037FEBAE71DB0BDEC028BBDE8E4
S31508006D30F08F00BFAFF300800000000000000000E5
S31508006D4038CD0C08BBCC0C082DE9F04F2DED028B85
S31508006D509FED658B83ED008B17460026C1B09946DB
S31508006D60D0E90623CDE9002304468A4697F8202071
S31508006D701CA926A80F9699F012FA03238DED188BF5
S31508006D805B4DCDE912662868ADF8683014961696FC
S31508006D90036810A95B699847002840F08D80012692
S31508006DA0109B0A93119B0B9300234FF0030BCDE91D
S31508006DB01333ADF848300A9B4FF0FF3218930B9BFC
S31508006DC021681CA819938DF85860ADF868B0A5F02D
S31508006DD094FA97E807003B8C0DF1480888E8070005
S31508006DE0ADF868305146D4E906232046CDE932236A
S31508006DF0D4E90A23CDE930230FAB424639F02EFEFB
S31508006E0005460346002866D1204697F820200F99A4
S31508006E1039F07EFF0546034600285CD143465246B4
S31508006E20204626A999F0DBF905460346002852D1E3
S31508006E30E368229A20461344E360D4E90623C9E9A5
S31508006E40002339F071FE0A9B9DF858C0A3620B9B7C
S31508006E502848E362284B84F82060BCF1000F18BF6D
S31508006E6003461898139F08901998D9F80020CDE979
S31508006E7006309DF86810BDF8485014983E0CBFB20D
S31508006E80CDE90021D9F8043059461C4ACDE90470E9
S31508006E90CDE902561A20A6F08FFC3AF023FB4146AC
S31508006EA0E26800F5CE603CF0E7FE0546284641B0AC
S31508006EB0BDEC028BBDE8F08F29680CA80B68DB686F
S31508006EC09847D4E90C310C9AD31A0A930D9B63EBB5
S31508006ED001030B9368E701211A20094AA6F06CFC06
S31508006EE0E4E700BFAFF300800000000000000000E8
S31508006EF048150020CADA0C08C6DA0C08D0DA0C08DD
S31508006F0058DB0C08000000002DE9F04F2DED028B30
S31508006F10083089B00E469146DDF86080A6F06FFC11
S31508006F200446002800F0A1806D4614AB0FCB85E817
S31508006F300F0000259FED508B4FF0010B41F2A45A2C
S31508006F4004AF87E80F004E4BC4E90355236003F1ED
S31508006F502C02C4E905554833A3604A4B04F1480C92
S31508006F6062600FCB84ED0E8BC4E90755C4E90C5556
S31508006F7084F8245084F840508CE80F00424B1022C5
S31508006F80236604F17803C4E91E3304F1A003C4E9B7
S31508006F9028333E4B2946C4F8D030C4E91955C4E90C
S31508006FA0355584F858B0A4F85AA0E56584F86C50AD
S31508006FB06467C4F89850C4F8C050C4F8DC5004F1AB
S31508006FC0E000B1F0DAF984F8F0B0A4F8F2A0C4F859
S31508006FD0F45004F1F800A7F070F94AF6C873C8220D
S31508006FE084ED428B84ED448BC4E9462304F59873FB
S31508006FF0C4E94C3384F80051A4F80451C4F8285164
S3150800700084F82C51C4F850513368E36073682361DF
S31508007010B3686361F368A3613369E36173692362E3
S31508007020337E84F824302BB1D6E9070104F128030E
S3150800703083E80300304693F068FFB0B9B9F1000F52
S3150800704013D0B8F1000F10D003CF3B78C4F83090B6
S3150800705084F84030012384F8283104F10803A0633A
S31508007060E163C4F8C880C4F8DC30204609B0BDEC3A
S31508007070028BBDE8F08F00BF000000000000000092
S31508007080F4E50C08488A0120B4E50C08E0E50C088C
S315080070902DE9F04F2DED028B99460023002400259B
S315080070A0CDB08DF8C83049938DF828319C4BCDE981
S315080070B02E45CDE93045CDE934450C934FF6FF749E
S315080070C00123DFF874A2064688461746CDF8D8A0ED
S315080070D0ADF820410D936AB1054600F53E74A54208
S315080070E000F00C81284693F0ECFF002800F0088198
S315080070F09835F4E7A0F0F2FB044630B9AC242046F4
S315080071004DB0BDEC028BBDE8F08F06F53E752846FE
S3150800711092F0ADFDB4F868308DF8C880ADF820312E
S3150800712094ED028B6A3420212046B1F08FFACDE91E
S315080071300C407C4B4FF4C8710E93002309A8CDE987
S3150800714009330F930B93CDF870A096F0BCFC099BFE
S3150800715053B90B240BA893F0F5FD0AA893F0F2FD9A
S3150800716009A893F0EFFDCAE74FF4C8710AA896F08C
S31508007170AAFC0A9B002BECD04FF4C8710BA896F01A
S31508007180A2FC0B990029E4D0099B0A9A10934FF4A4
S31508007190C8733046CDE91223CDE9141310AA414627
S315080071A01193A0F0F8FB08B10446D3E741463046F0
S315080071B012AAA0F0D2FB0028F6D14146304614AAFE
S315080071C0A0F0A8FB0028EFD1109B0DF1B80A169382
S315080071D0119B0DF1700B1793129B8DED008B189375
S315080071E0139BCDE905AB1993149B1AAA1A93159B01
S315080071F018A91B9336AB079330AB049334AB0393B0
S315080072000EAB029316A844F035F90028CCD10BA88A
S3150800721093F098FD0AA893F095FD09A893F092FDBE
S31508007220B9F1000F13D1D6F8940300285AD0036891
S315080072309B689847D6F894331A6800284AD0546948
S3150800724041465A461846A04798B1044657E7D9F822
S31508007250003048465B699847036859465B6A984711
S3150800726008B9C5244BE79DF86031CDF824918DF80F
S31508007270283151462846A0F0ECFD0028E5D12846DD
S315080072800CA9A0F0F8FA2B7C77B302211120264A24
S31508007290A6F092FAD5E90012AB69CDE9012100936F
S315080072A002211120EB69214AA6F086FA0F9906F504
S315080072B0697046F033FB034620B1012111201C4AB0
S315080072C0A6F07AFA27B196F8B233013386F8B233C4
S315080072D0002414E741461846D26890470028C8D1CA
S315080072E010240CE703240AE7D5E900121120CDE99A
S315080072F0002102210F4AA6F05FFAD7E70B24FEE623
S31508007300BDF864319FED048BADF820318DF8C88047
S315080073100FE700BFAFF30080000000000000000088
S3150800732020610C08782F0D08A22E0D08C22E0D0814
S315080073303A2F0D08052F0D0850680D0800000000AB
S315080073402DE9F0478AB00DF10D0301931523064682
S3150800735000934FF48072002308460C46A5F0CAF93C
S31508007360D8B9B37B0122009320460023A5F049F93A
S3150800737098B9F37B0222009320460023A5F041F931
S3150800738058B90DF10E0301931623032200932046E4
S315080073900023A5F0AFF9054610B10AB0BDE8F0879D
S315080073A037464FF010090DF1180810220021404603
S315080073B0B0F0E3FF0DF10F03019315234FF480722C
S315080073C0009320460023A5F095F90028E5D1F27B25
S315080073D0EBB29A4250D997ED047BC446B7F818A089
S315080073E007F11A0307F12A0E624618685968083326
S315080073F003C273459446F7D18DED007B0422002322
S315080074002046A5F0D9F80028C7D105220023204632
S31508007410CDF800A0A5F0F5F80028BED140464946AB
S3150800742006228DE8030000232046CDE90489A5F04D
S315080074301DFA0028B1D120469DF90F10A5F089F94B
S31508007440013530370028A8D1032DAED120469DF945
S315080074500E10A5F07EF900289FD1F3880722009325
S3150800746020460023A5F0CDF8002896D120469DF9A0
S315080074700D10A5F06EF990E782469FED017BBBE7FC
S315080074800000000000000000054B186803689969B1
S3150800749001A3D3E90023084700E0373B015D030059
S315080074A048150020000000002A2110B57248ADF5E5
S315080074B0956D029151F072F808B1B0F0AAFE0290EB
S315080074C002A96D4850F024FF0028F6D1029B2A2B0A
S315080074D0F3D167A3D3E900236848CDE9082351F01F
S315080074E075F80028E9D100220023644808A9CDE9E7
S315080074F0082350F031FF0028DFD1DDE9080240F605
S31508007500FA035F499A4208BF8842D6D101215D48ED
S315080075108DF8071051F02AF80028CED18DF807000B
S315080075200DF10701574850F0CBFE0028C5D19DF84C
S315080075300730002BC1D0504850F03EFE0028BCD181
S315080075404D4803A950F0E4FE40F20124A042B4D10C
S315080075504D494E48A8F062FE0028AED140224B485D
S3150800756004AB0AA950F020FF0028A6D1049B0E2BD5
S31508007570A3D10F2244490AA8B0F0C8FE00289CD11E
S3150800758043494248A8F04AFE002896D104AB402257
S315080075903E480AA950F008FF049B03438DD19DF885
S315080075A02810002989D13948A8F038FE002884D146
S315080075B04022364805AB1AA950F0F6FEA0427FF4E1
S315080075C07CAFF1223349344851F032F800287FF471
S315080075D074AF4FF40072304806AB2AA950F032FF58
S315080075E000287FF46AAF069AF12A7FF466AF294924
S315080075F02AA8B0F08BFE024600287FF45EAF01464B
S31508007600254851F015F800287FF457AF4FF400725B
S31508007610214807ABAAA950F015FFA0427FF44DAF49
S31508007620164850F0D5FD00283FF447AF154850F0EE
S31508007630CFFD00283FF441AF174850F0C9FD002898
S315080076407FF43BAF50F01EFE00287FF436AF0B48A0
S3150800765050F0BEFD00283FF430AF0A4850F0B8FDA0
S3150800766000287FF42AAF0DF5956D10BDAFF30080A5
S31508007670316EE595FA0800000573080001720800E6
S31508007680316EE59506730800027E0D080273080040
S31508007690017E0D08107D0D0802720800000000002A
S315080076A0002370B5404C05468AB0E36318B10088DC
S315080076B0236063F0F7FE3D48BAF053F83C4E3D4B65
S315080076C0304633603C4B736064F0BEF800213046A8
S315080076D06FF0AEF932A3D3E90023A062C4E906230A
S315080076E0B4F0C6FCD4E90623194310434FF0FF3320
S315080076F0C4E90601CDE900014FF0FF32A06ABAF0ED
S3150800770000F902224FF0FF31A06ABAF015F90120FC
S3150800771063F02EFC4FF4007300222849A06ABAF0E1
S3150800772053FAB0F5007F38D100239422CDE9073308
S3150800773009933C23CDE9033205939623A06A03A94E
S3150800774006936FF091FD35B3287C64F03BF9054646
S31508007750F0B9A06ABAF012FC64F0DCF863F0EAFB50
S3150800776020B14FF48070002160F04AFC63F0F2FB10
S3150800777020B14FF40060002160F042FCB4F03DFCFB
S315080077800120B9F082FD0E4A0E49A06AB4F064FCE5
S3150800779028460AB070BDFF20D7E70725F8E700BFDF
S315080077A00DD501552000000078350120690345EC08
S315080077B070F40120FDB6060864F4012064F2012085
S315080077C001C00B0841C00B0810B5054C237833B926
S315080077D0044B13B1044800E000BF0123237010BD19
S315080077E0E03A01200000000040160E0808B5034BD9
S315080077F01BB10349034800E000BF08BD00000000B4
S31508007800E43A012040160E08A3F5803A704700BFF7
S31508007810174B002B08BF134B9D46FFF7F5FF0021BA
S315080078208B460F461348144A121AB0F0A6FD0E4BA3
S31508007830002B00D098470D4B002B00D0984700200E
S31508007840002104000D000D48002802D00C48B0F0B5
S31508007850E7FC5BF017F82000290059F0D7FA5AF030
S31508007860FDFD00BF00000800000000000000000049
S3150800787000120020E81B0020F0B5022021820B0828
S31508007880000000002DE9F043434D89B001AC0FCD4F
S315080078900FC495E80700012584E8070001213A206E
S315080078A001F0A2FF3D4F0121292001F09DFF3C4B2D
S315080078B0384601A903938DF8125003F08DFB2B4629
S315080078C029460422022003F0A9F902212A4608467D
S315080078D0002303F0A3F92B4604220321022003F018
S315080078E09DF904222B461146022003F097F92D4CE8
S315080078F02D4B1026C4F834374FF00213C4F830372E
S31508007900A3F58033C4F838371C2304F50059C4F8A6
S3150800791020374FF4487009F00DFC04F58058142000
S31508007920C9F8A06009F006FC2320C8F8A06009F091
S3150800793001FCB9213846C9F8A06079F062FA00233B
S3150800794029461A460220C8F8A06003F067F9002302
S3150800795002211A46084603F061F92B460022032144
S31508007960022003F05BF92B4600220421022003F0D3
S3150800797055F9384603F00EFB00212920C4F83417C0
S31508007980C4F83017C4F83817C4F8201701F02CFFCC
S3150800799009B0BDE8F08300BFE8280C0800C0055010
S315080079A000127A0000C0035002000300BFF34F8F95
S315080079B00549064BCA6802F4E0621343CB60BFF37D
S315080079C04F8F00BFFDE700BF00ED00E00400FA0599
S315080079D04FF000639A6A02F17841B1F5C04F03D2BD
S315080079E01168074A914203D00023037083607047E9
S315080079F0012202709A6A926842609B6A9B69F5E75F
S31508007A0007B0CD5E08B54FF00053024A1A60FFF77B
S31508007A10CDFF00BF02020FF073B54F4B04461A782C
S31508007A201AB102221A7002B070BDCDE900220028F0
S31508007A30F9D001261E7079F0F8F8484D484B1860C1
S31508007A4074F0CAFF2B785BB900F05CFE40B9454874
S31508007A500823454A454900686EF0B4FA00B92E7005
S31508007A60434B5A6E62619B6E424AA3614FF4804350
S31508007A709366414B5968E16140499960196E2160E6
S31508007A80596E6160D3F87011A160196CE160596C88
S31508007A9021613B49086C1864496C59640121516697
S31508007AA01B6E9C0441D5374AD368D807FCD4364B9D
S31508007AB01A68531C3ED04FF480139340334A13661A
S31508007AC04FF400730426314C2666236678F01CFEB4
S31508007AD001300DD078F018FE40F20113984207D015
S31508007AE04FF4005323664FF480432366C4F870614D
S31508007AF00823264C684623664FF4805323664FF0C6
S31508007B00006323664FF4002301A9636678F0A3FD9A
S31508007B10009B2366019B63662B78002B83D0124B50
S31508007B201A6822665B6863667DE7194AD368D907CF
S31508007B30FCD4BCE7174B1B78002BC1D14FF400725D
S31508007B400C4B5A6603F5A6235B68002BB8D14FF495
S31508007B5080120E4B1A66B3E72AFB012028FB012088
S31508007B60243B0120181200201C3B0120007108004C
S31508007B7000800050009000500080004455CEAC00B4
S31508007B8000C0005400000440041200200090004485
S31508007B900000045029FB012070B5224D04462E78BA
S31508007BA0012E02D001232B7070BD0028FCD078F07E
S31508007BB0ABFD01300BD078F0A7FD40F201139842D7
S31508007BC005D0194B194A5E66D368DE07FCD42268CD
S31508007BD0174B1A6662685A66A268C3F87021E2688B
S31508007BE01A6422695A64E269D00744BF00229A607F
S31508007BF0104B1A68013207D10F4A127822B90F4979
S31508007C004968C90748BF1A6062690D4B5A66A26976
S31508007C109A6674F0E9FE0B4B186879F00CF80023A5
S31508007C20C1E700BF2AFB0120009000400000044085
S31508007C30008000440412002029FB012000C00550E2
S31508007C4000800050243B012070B54FF00064A36A01
S31508007C5003F17842B2F5C04F21D21A68124B9A4204
S31508007C601DD1124E337813F0FD0F1BD11048FFF7C4
S31508007C70D3FE01254FF480330E4A0F49C2F88051CE
S31508007C80CB6015600D4A1361A36ADB699847044601
S31508007C900748FFF781FF04B93570204670BD4FF4D9
S31508007CA08174FAE70024F8E707B0CD5E29FB0120C6
S31508007CB0FC3A012000E100E000A0004400900044E6
S31508007CC013B51F4B1B7803B9FEE700231D4CCDE9FE
S31508007CD000336A4608231C4920686EF073F9F0B928
S31508007CE01A4AD2F84031D2F840211F2B4FF001032F
S31508007CF010D9203A9340019A1343019308236A4600
S31508007D00114920686EF014F94FF00053104A1A60B2
S31508007D10FFF74CFE9340009A13430093EEE70D4B92
S31508007D209842F1D1094AD2F84031D2F840211F2BA6
S31508007D304FF0010302D9203A9340DEE79340ECE77F
S31508007D402AFB012018120020007108000080004458
S31508007D500B020FF00BE000F038B54FF00065AB6A88
S31508007D60044603F17842B2F5C04F12D21B6B03F1F9
S31508007D707843B3F5C04F0CD20648FFF74DFEAB6A01
S31508007D8020461B6B5B689847BDE838400148FFF7FB
S31508007D9003BF38BD283B012013B54FF0006401909E
S31508007DA0A36A03F17842B2F5C04F15D21B6B03F1F3
S31508007DB07843B3F5C04F0FD20948FFF72DFEA36AE3
S31508007DC001211B6B01A89B69984704460448FFF7E5
S31508007DD0E3FE204602B010BD4FF48174F9E700BFF8
S31508007DE0283B012037B54FF00065CDE90021AB6A85
S31508007DF0044603F17840B0F5C04F12D21B6B83B12D
S31508007E000948FFF709FEDDE90021AB6A20461B6B2E
S31508007E105B6A984704460448FFF7BEFE204603B04F
S31508007E2030BD4FF40174F9E7283B012037B54FF010
S31508007E3000650191AB6A044603F17842B2F5C04F7A
S31508007E4015D21B6B03F17843B3F5C04F0FD209481F
S31508007E50FFF7E2FDAB6A20461B6B01999B6A9847C0
S31508007E6004460448FFF798FE204603B030BD4FF499
S31508007E700174F9E7283B012037B54FF00065CDE9D5
S31508007E800021AB6A044603F17840B0F5C04F16D21C
S31508007E901B6B03F17843B3F5C04F10D20948FFF7BF
S31508007EA0BBFDDDE90021AB6A20461B6B9B6B98473F
S31508007EB004460448FFF770FE204603B030BD40F282
S31508007EC00114F9E7283B012037B54FF00065019109
S31508007ED0AB6A044603F17842B2F5C04F15D21B6B64
S31508007EE003F17843B3F5C04F0FD20948FFF794FD65
S31508007EF0AB6A20461B6B0199DB6B9847044604481E
S31508007F00FFF74AFE204603B030BD40F20114F9E7F8
S31508007F10283B012008B500F02DF8124B12498B4278
S31508007F2012D30020114B12498B4218D3FFF770FC6D
S31508007F30186850F82240586840F82240013298687C
S31508007F408242F5D30C33EAE70022F8E71C6844F8C6
S31508007F50220001325C68A242F8D30833E4E7002223
S31508007F60F8E700BF48160E0854160E0854160E08F1
S31508007F7054160E084FF480414FF0FF3010B5114BE0
S31508007F80114A9A60D3F8882042F47002C3F8882010
S31508007F900E4A91660E4901F5005210660D48506664
S31508007FA00220C3F8D000BFF34F8FBFF36F8F0124B1
S31508007FB04FF440330848C0F88041D36004600B6131
S31508007FC010BD00BF00ED00E0006000080090005002
S31508007FD000800044F7FF370000E100E0014B186815
S31508007FE0704700BF0C120020014B1860704700BF95
S31508007FF00C120020084B1B6F03F00703022B04D05A
S31508008000032B05D0012B05D0FEE7044B18687047F3
S31508008010034BFBE703487047008000500C12002012
S3150800802010120020002D310108B5FFF7E3FF054BBC
S315080080301B6FC3F303330133B0FBF3F0024B186035
S3150800804008BD00BF00800050081200200048704795
S3150800805000B4C404014B1868704700BF1012002012
S31508008060054B1860054B1B6F03F00703032B01D163
S31508008070FFF7DABF704700BF1012002000800050DB
S3150800808000487047002D31014FF0B4439868C0F39B
S3150800809004400C2822D8DFE800F0092121212121FB
S315080080A0071719211B1D1F000F4870479B6803F00F
S315080080B04073B3F1807F13D0B3F1007F12D00B4A1F
S315080080C0002B08BF10467047094870470948704793
S315080080D009487047094870470948704700207047A3
S315080080E00848704708487047405DC60000093D00CB
S315080080F00024F400C0EA210180BA8C010048E80196
S31508008100005A620280841E0040420F00014B186824
S31508008110704700BF1412002010B40A681378022BA7
S3150800812011D014203023147913FB040307481B5875
S315080081305079C340DB4303F00103137008465DF82A
S31508008140044B58F0B5BE5DF8044B704730C0035079
S3150800815037B50468012105463A2001F045FB00239E
S3150800816001226179207902F059FD14223023217900
S3150800817013FB01230E4A9B586279D340DB4303F075
S3150800818001032370A379022B0ED100F041FA2A4687
S315080081900849607900F066FA012302466179207978
S315080081A0CDE9003302F0E2FC002003B030BD00BF89
S315080081B030C003501981000802681378022B24D0B6
S315080081C014213023107913FB001310495B58517999
S315080081D0CB40917903F00103012912D1508843EA73
S315080081E040034FF6E07063F03F039BB2834202D12F
S315080081F01170538070474FF6DF718B42F9D1002119
S31508008200F6E711B983F001031370704730C00350C5
S315080082102DE9F04F9A46554B85B01B7806460F4612
S315080082201546DDF83C909DF844B0DDF85080002BEB
S3150800823000F08C80072A00F28B800E9B002B00F042
S315080082408780B9F1000F00F08380129BB3F5006FA9
S315080082507EDC012802D1109B002B79D0444B03EB1E
S3150800826005131B7B002B75D0424C10220021684653
S31508008270B0F083F804EB45141022002F58D1394684
S315080082802046B0F07AF843F210036380BBF1000F82
S3150800829003D1E37843F00303E370364A0E9B02EBFF
S315080082A0451CCCE90193129BCDF800A0013BC3F312
S315080082B00A009DF84C30690103F003039B0643EA64
S315080082C0001E53582C48012E00EA03004EEA00030C
S315080082D0535041D113230CF1100ECCF80C309CE806
S315080082E00F008EE80F006FF00301DCF81C20109BCE
S315080082F061F39F02012FCCF81C20CCF8143003D16F
S31508008300CCF81890CCF804300027194A290102EB5A
S31508008310051342F80180159A28465A60694622468E
S315080083209F605E7302F0FAFC384605B0BDE8F08F30
S3150800833000212046B0F021F84FF444736380BBF166
S31508008340000FAAD1E37843F03003A5E70B48ECE722
S315080083500B48EAE70B48E8E7B8F1000FD4D19CF8D8
S31508008360023068F304138CF80230CDE72BFB0120AA
S31508008370483B0120C83B01200F80FFF3028000F034
S31508008380018000F0078000F038B5124B05461B78CF
S31508008390DBB1E0B178F049FC0F4A00231146147BA3
S315080083A054B92B6001251A0101EB03131D738C5078
S315080083B078F041FC204638BD0133082B02F1100243
S315080083C0EDD178F038FC0548F5E70548F3E70548A8
S315080083D0F1E700BF2BFB0120483B0120048000F099
S315080083E0028000F0018000F0154B13B518680023D1
S315080083F001908DF8043078F018FC124B1C7824B1E3
S3150800840078F019FC104802B010BD01221A7078F0F5
S3150800841012FC0E4B01A81C731C7783F82C4083F8BA
S315080084203C4083F84C4083F85C4083F86C4083F802
S315080084307C4008238DF8073002F03EFC2046E2E730
S3150800844054290C082BFB0120038000F0483B01202F
S3150800845008B50A4A12785AB107280BD8084A02EB17
S3150800846000131B7B43B1002102F018FC002008BD55
S315080084700448FCE70448FAE70448F8E72BFB012020
S31508008480483B0120028000F0018000F0078000F0E0
S3150800849008B50A4A12785AB107280BD8084A02EBD7
S315080084A000131B7B43B1012102F0F8FB002008BD35
S315080084B00448FCE70448FAE70448F8E72BFB0120E0
S315080084C0483B0120028000F0018000F0078000F0A0
S315080084D00D4B1B7893B1072812D889B10B4B03EBC8
S315080084E000131B7B73B10A4BDA6A012303FA00F007
S315080084F010401ABF00200B70087070470548704777
S3150800850005487047054870472BFB0120483B01206A
S3150800851000000450028000F0018000F0078000F09F
S3150800852010B50B4A0C46127862B107280CD859B117
S31508008530084A02EB00131B7B43B102F037FC2060AC
S31508008540002010BD0448FCE70448FAE70448F8E7A9
S315080085502BFB0120483B0120028000F0018000F03F
S31508008560078000F02DE9F843174B1F6D5B6D1F4020
S3150800857000D5FEE701260025144CDFF85480DFF805
S315080085805490374217D0C8F8506023689BB1A16849
S31508008590284601316268A1609847637B012B0AD19E
S315080085A048B909EB45131A7B60F341021A731A7F1F
S315080085B060F341021A770135082D4FEA460604F1A1
S315080085C01004DED1BDE8F88300000450483B0120C2
S315080085D000200450C83B012070B5044601250B4E07
S315080085E004B970BD94FAA4F0B0FA80F005FA00F365
S315080085F006EB001224EA03045368002BF0D0117B23
S3150800860011B191689847EBE79847E9E7C83C01201C
S3150800861008B5192001F09AFE28B14FF00072074BF1
S31508008620C3F880211A601A2001F090FE28B14FF095
S315080086308062024BC3F880211A6008BD00E100E0A1
S3150800864038B505460C4678F0F0FA0022044B03EBE1
S3150800865005135C601A73BDE8384078F0ECBA00BFC1
S31508008660C83C0120F8B505460F46164678F0DDFAEF
S31508008670104B05F0FC02D3F824140023EC1804F080
S315080086800304144321FA04FC1CF0010F07D001333C
S31508008690042BF3D1FF2478F0CEFA2046F8BDFF2C40
S315080086A0F9D00122044B03EB0413C3E901761A73CC
S315080086B0F1E700BF00C00350C83C0120074BD3F8C0
S315080086C02404D3F8202403F50053104000F0553055
S315080086D020F05020C3F82004FFF77EBF00C00350E7
S315080086E0074BD3F82404D3F8202403F5005310408D
S315080086F000F0AA3020F0A020C3F82004FFF76CBFD2
S3150800870000C00350024B1968024B18686DF03ABB5B
S315080087101C1200201812002037B5920004460D4698
S315080087200192BAF0D1F8431C0BD060B9294620460D
S31508008730019AAFF0EBFD0028044808BF002003B0FB
S3150800874030BD0348FBE70348F9E700BF10E000F037
S3150800875021E000F024E000F010B50446BAF0BCF8B9
S31508008760431C10D088B902F0DBFB234620F0030037
S315080087702044984201D1002010BD53F8042B013241
S31508008780F7D00348F8E70348F6E70348F4E700BFDD
S315080087900EE000F021E000F024E000F038B141B12D
S315080087A0013AB2F5006F044838BF00207047034805
S315080087B070470148704700BF037000F0027000F070
S315080087C038B504460D4678F030FAA3889BB223B92B
S315080087D02B6078F030FA064838BD142263889BB2BD
S315080087E002FB034408342C6078F025FA0020F3E7EE
S315080087F00B7000F0F8B5044616460F4678F015FAE1
S31508008800A388E2889BB29A42054605D800233360BE
S3150800881078F011FA1748F8BD1422238807F1100CCE
S315080088209BB202FB03433A460833174603CF674514
S31508008830186059603A4603F10803F6D114223868DD
S315080088401860238828469BB202FB0343083333602B
S315080088502388E2889BB20133B3FBF2F102FB1133A2
S315080088609BB22380A38801339BB2A38078F0E3F9F7
S315080088700020D0E70A7000F090F83530022B0DD1B1
S3150800888014223023417F90F8210013FB0123044A68
S315080088909B5823FA00F000F001007047002070474B
S315080088A030C00350002313B51D4A52F8044B94F800
S315080088B0211081420ED00133042BF6D102B010BD2F
S315080088C00028FBD19DF80730002BF7D0A068FFF7EA
S315080088D0BFFDF3E794F83530022BEFD12046FFF7BA
S315080088E0CBFF637E2076022BE8D194F8323003F072
S315080088F0FF02002BE2D1A0680DF107018DF80720D1
S31508008900FFF7E6FD237E1BB194F83330002BD7D052
S315080089100023A06884F83330FFF7BAFDCEE700BF1E
S31508008920B845012030B51049104A0B782BB9C2E971
S315080089300033C2E9023301230B700C4C0023214695
S3150800894051F8045B854208D00133042BF8D1002185
S3150800895054F8043B1BB942F82100002003E001311A
S315080089600429F5D1024830BD2CFB0120B845012069
S31508008970027000F010B50446FFF736FD002104F139
S315080089800800FFF701FD014620B904F10C00FFF7C6
S31508008990FBFC00B1004810BD0E7000F090F83630B0
S315080089A053B9042103790A4A03F239135B01D150FA
S315080089B0022203685A617047022B07D10068816C4E
S315080089C011F0020118BF062178F078B9704700BF88
S315080089D000C0035090F836306BB9012203685A611B
S315080089E002689369D907FCD504210379074AB93384
S315080089F05B01D1507047022B07D10068836C9B0737
S31508008A004CBF0521092178F059B9704700C00350B9
S31508008A1010B590F8363004466BB9042203685A61DB
S31508008A20026893699907FCD523790C4AB9335B0127
S31508008A301021995010BD022BFCD10068836CDB070E
S31508008A404CBF0521062178F039F9237941F2944281
S31508008A505B0103F1A04303F57033E9E700C0035057
S31508008A601FB50B460A6891F83610184602290CBF3E
S31508008A70926C9269920604D505B05DF804EB78F01D
S31508008A8007B8039377F0EDFF0022039B0146CDE973
S31508008A90002203F13C00034A7AF009F805B05DF8B4
S31508008AA004FB00BF618A0008012370B580F83030E6
S31508008AB090F8363004460E4686B0A3B905682435C4
S31508008AC0204677F0FFFF0D4B32680393002302938D
S31508008AD07368616901930123E068009304942B4647
S31508008AE077F000FF07E0022B02D105683C35E7E77F
S31508008AF0002380F8303006B070BD00BF3D8E0008F8
S31508008B0001232DE9F04180F8313090F836300446DB
S31508008B100E4688B05BBB05683C3578F086F804F1EC
S31508008B203C0807460DF11F01404608F05FF840B9BA
S31508008B309DF81F302BB1404608F030F8204677F0F4
S31508008B40A7FF384678F077F8204677F0BBFF0D4B3D
S31508008B502A4603930023029373682169019301232C
S31508008B60A06800930494336877F0A2FE07E0022B0E
S31508008B7002D105684435D0E7002380F8313008B0C3
S31508008B80BDE8F081898B0008F0B585B0D06A03A9E5
S31508008B901446FFF715FE0646204677F062FF0025C5
S31508008BA001462346CDE90055164A04F13C0079F002
S31508008BB07EFF154B9E421FD0039B1D619D6078F07A
S31508008BC034F8039A0646D76827B1D2E9002329461E
S31508008BD02046B847E06A03A977F08DFFE06A8388E4
S31508008BE09BB263B103A9FFF7EBFD20460399FFF794
S31508008BF087FF304678F01FF8012005B0F0BD84F8ED
S31508008C003130F6E7618A00080B7000F0F8B50746C0
S31508008C100D461646FFF7C2FD00286BD1152001F058
S31508008C20A3FB0446FA6A93889BB213B197F83230CD
S31508008C30E3B197F83630F3B93B689C6904F002044F
S31508008C401CB93846FFF7E4FE0024012387F83430C0
S31508008C5097F83630CBB92E44B542386810D18369B7
S31508008C609A06FCD51CB300242046F8BD002CDAD0A1
S31508008C70FFF778FCD6E7022BE3D13B689C6CDDE76F
S31508008C8015F8011B78F0C7F8E6E7022BEAD12E445F
S31508008C90B542386806D142F22003826C33EA0202F2
S31508008CA0FBD1DFE715F8011B78F00DF8F0E797F828
S31508008CB0363053B910213B790F4A03F239135B0159
S31508008CC0D15008223B685A61CEE7022BCCD13868CE
S31508008CD0836CDB074CBF0921214677F0EFFF42F290
S31508008CE0944210213B795B0103F1A04303F57033ED
S31508008CF09950B9E70446B7E700C0035010B50446D3
S31508008D0080B190F832302BB9FFF7B6FD10B9A068DC
S31508008D10FFF79EFB002094F832300133DBB284F86B
S31508008D20323010BD0048FCE7027000F010B504466A
S31508008D30A0B190F832309BB190F83230012B05D1B2
S31508008D40FFF79AFD10B9A068FFF7A2FB002094F878
S31508008D503230013BDBB284F8323010BD0148FCE703
S31508008D600148FAE7027000F0057000F037B590F890
S31508008D7035500446022D1DD1012290F82230457E39
S31508008D80817F9A403020164B25B900FB013303F545
S31508008D90015305E0012D07D100FB013303F582538A
S31508008DA01A60002003B030BD247E00FB0133002C7E
S31508008DB0F4D1ECE7012DF4D1037E73B911238DF8B4
S31508008DC00730FFF79BFF2A4620460DF10701FFF7FC
S31508008DD01DFF2046FFF7AAFFE3E71323EFE700BFCF
S31508008DE000C00350F0B587B005461646FFF7D6FC17
S31508008DF00446F0B90493104BCDE901166A46A86AF1
S31508008E0001A903960593FFF7F5FC044688B995F87A
S31508008E10303073B92846FFF7DDFD28460099FFF77D
S31508008E2043FE95F83530032B03D028462C76FFF7FA
S31508008E309DFF204607B0F0BD017000F073B5906A3B
S31508008E4001A91446FFF7BCFC0546204677F020FE2C
S31508008E503A4B9D4232D094F83610019B00293CD1FA
S31508008E602068826C12F400722BD0354A99601A6118
S31508008E704FF40072236803F500539A6477F0D5FE21
S31508008E8001990646CD6835B14A688B682046D31ADB
S31508008E900A680969A847A06A01A977F02CFEA06AA2
S31508008EA08588ADB2002D3AD001A9FFF789FC204686
S31508008EB00199FFF7F9FD304677F0BDFE012002B0B3
S31508008EC070BD816CC80526D51E499A60196123684C
S31508008ED04FF4807203F50053CFE702291BD12168AE
S31508008EE0CA6C12F400720AD0154A1A6100229A60F6
S31508008EF04FF40072236803F50053DA64BEE7C96CC1
S31508008F00C90508D50F499A60196123684FF480721C
S31508008F1003F50053F1E700221A619A60AEE70123D0
S31508008F2020462376FFF722FF94F8353084F8305030
S31508008F30032BC0D02046FFF731FDBCE70B7000F0CD
S31508008F400D7000F00C7000F02DE9F04104468CB06D
S31508008F50884F04AE0D460FCF0FC697E80F0086E878
S31508008F600F00102200216846AFF007FA002C00F027
S31508008F70FE8025B9804E30460CB0BDE8F0816022EF
S31508008F8000212046AFF0F9F92B682046236002231A
S31508008F9084F836302B7C2371FFF7C4FC064600287C
S31508008FA0E9D12B7F754A84F835302B68934240F017
S31508008FB0B88056236362724B23614FF47023636152
S31508008FC00123ADF80630002384F8316084F8306058
S31508008FD0D5E90912A1620B80A16A3A204B80A16AE1
S31508008FE0684E8B8084F83030E2621380E26A012191
S31508008FF05380E26A938084F8313084F83330022350
S315080090008DF81D30AB6806936B8AADF82030AB8AB5
S31508009010ADF81E30AB7D8DF81C30AB690993CDF8E1
S315080090202CD000F0E1FB0121606A00F0DDFB2B7912
S31508009030002B00F081800121362000F0D5FBD6F800
S31508009040203223F0070343F003031022C6F8203228
S315080090502B7C4D4F204607EB4313C3F89424A97B7A
S315080090602B7C2A7B07EB431342EA0142C3F8AC2464
S315080090702B7CE97B6A7B253342EA014207EB4313E3
S315080090805A602B7B0121E376AB7BE3776B7B2377F7
S31508009090EB7B84F820306B7F6377AB7F84F82130D5
S315080090A0EB7FA37795F8203084F8223077F069FCB7
S315080090B0064600287FF45FAF77F0B7FD2A7F804623
S315080090C0032A40D141F2944102202B7C07EB43133B
S315080090D058502B7C95F82000E97F07EB431341EAAB
S315080090E0004103F5A5531960297CA87F07EB4117B2
S315080090F041F29C416B7F43EA00437B508DF8002088
S3150800910006238DF810302B79286804A963B377F005
S31508009110E3FD2046FFF72EFC0646404677F08BFD1A
S3150800912029E71A4A93427FF425AF57236362184BFF
S3150800913023614FF4801342E7D6F8203223F0070361
S3150800914043F0010381E7022ADAD194F82100114994
S31508009150FFF776FAFFF75CFA4FF40073204623838D
S31508009160A676FFF703FECBE777F0B2FDD1E70A4E06
S3150800917001E700BF98290C08037000F00000015BA6
S3150800918001000F000080005000C0035000000A5084
S3150800919001001000A5880008027000F0F0B587B03D
S315080091A004461646FFF7FAFA054658BB0493194BC8
S315080091B0CDE90116059394F8363003962BBB236840
S315080091C09B6903F0020313B92046FFF721FC6A46A0
S315080091D0E06A01A9FFF70EFB054698B994F8313005
S315080091E083B977F022FDE36A06469B889BB233B1C2
S315080091F020460099FFF784FC012384F83430304672
S3150800920077F019FD284607B0F0BD022BDCD123689C
S315080092109B6CD6E7017000F0044BD3F88420D20685
S31508009220FBD4D3F88400C0F3811070470040005087
S315080092302E4B98424AD022D82D4B984240D014D86B
S315080092402C4B984239D00AD82B4B984232D02B4B0C
S3150800925098422FD02A4B98422CD000207047294B91
S315080092609842FAD1284B186F7047284B98422AD053
S31508009270274B9842F1D1244BD3F880007047254BF1
S3150800928098422BD009D8244B984223D0234B984296
S31508009290E3D11D4BD3F88C007047214B984221D05F
S315080092A003F5740303F510539842D6D1164BD3F839
S315080092B098007047144B986D7047134B586E70475B
S315080092C0114B586F7047104B986F70470E4BD3F879
S315080092D0840070470C4BD3F8880070470A4BD3F8C4
S315080092E090007047084BD3F8940070470048E8018F
S315080092F00024F400C0CF6A0080841E0000093D00E7
S3150800930040420F00405DC6000080E00FC0EA210120
S3150800931080BA8C01007E560380D54302006CDC02BD
S315080093200090D00338B5104B0546D3F880300C466C
S3150800933003F00303022B0BD0032B0DD0012B0FD107
S31508009340FEF758FE0E2305B1286004B1236038BD28
S31508009350FEF79AFE0723F6E7FEF740FE0623F2E736
S3150800936000231846EFE700BF0080005038B5184BB9
S315080093700546D3F820010C4600F00700062805D854
S31508009380DFE800F0230B0F17131B1F0000231846F6
S3150800939005B1286004B1236038BDFEF71FFE05231A
S315080093A0F6E7FEF757FE0323F2E7FEF76DFE0723FF
S315080093B0EEE7FEF765FE0223EAE7FEF70FFE062351
S315080093C0E6E7FEF747FE0423E2E70123E0E700BFEE
S315080093D00080005038B5174B0546D3F828310C469F
S315080093E003F00703013B052B20D8DFE803F003133E
S315080093F01B0F0B17FEF7F2FD052305B1286004B114
S31508009400236038BDFEF7EAFD0623F6E7FEF73CFEC5
S315080094100723F2E7FEF71EFE0323EEE7FEF71AFE22
S315080094200423EAE7FEF72CFE0223E6E700231846A4
S31508009430E3E700BF0080005073B50D460021114BCD
S315080094400191D3F88041064604F00304022C13D098
S31508009450032C0CD0012C13D101A8FFF787FF102489
S315080094600EB1019B336005B12C6002B070BDFEF7EA
S315080094700BFE07240190F3E7FEF702FE0190EFE7E3
S315080094800C46EDE700800050002337B50193164BD4
S315080094900546D3F820320C4603F00703042B04D8FC
S315080094A0DFE803F0200B11161B0000230DB1019A0B
S315080094B02A6004B1236003B030BD002101A8FFF77C
S315080094C089FF1223F2E7FEF7DFFD07230190EDE798
S315080094D077F0BAF90A230190E8E7FEF717FE0923A1
S315080094E00190E3E70123E1E70080005038B5104B0F
S315080094F00546D3F840310C4603F00303022B0BD084
S31508009500032B0DD0012B0FD177F09EF90A2305B155
S31508009510286004B1236038BDFEF7F8FD0923F6E795
S3150800952077F095F90C23F2E701230020EFE700BF57
S3150800953000800050002337B50193164B0546D3F833
S3150800954060320C4603F00703013B032B1FD8DFE804
S3150800955003F0020E1914002101A8FFF707FF1023D4
S315080095600DB1019A2A6004B1236003B030BD002111
S3150800957001A8FFF7BBFF1123F2E7FEF785FD0723D6
S315080095800190EDE7FEF77CFD02230190E8E7002352
S31508009590E6E700BF00800050002337B50193164B5D
S315080095A00546D3F894320C4603F00703013B032B18
S315080095B01FD8DFE803F0020E1914002101A8FFF7EF
S315080095C0D5FE10230DB1019A2A6004B1236003B0B9
S315080095D030BD002101A8FFF789FF1123F2E7FEF746
S315080095E053FD07230190EDE7FEF74AFD022301909C
S315080095F0E8E70023E6E700BF0080005038B5144BC3
S315080096000546D3F800020C4600F00700042804D8E3
S31508009610DFE800F01B0A0E1216000023184605B1F3
S31508009620286004B1236038BD77F00EF90A23F6E7FF
S31508009630FEF76CFD0923F2E777F009F90C23EEE74C
S31508009640FEF7F2FC0F23800AE9E70123E7E700BFEC
S315080096500080005038B5144B0546D3F808020C466E
S3150800966000F00700042804D8DFE800F01B0A0E12F1
S3150800967016000023184605B1286004B1236038BDDA
S3150800968077F0E2F80A23F6E7FEF740FD0923F2E74A
S3150800969077F0DDF80C23EEE7FEF7C6FC0F23800A09
S315080096A0E9E70123E7E700BF0080005038B5104B13
S315080096B00546D3F840320C4603F00303022B0BD0C1
S315080096C0032B0DD0012B0FD177F0BEF80A2305B175
S315080096D0286004B1236038BDFEF718FD0923F6E7B4
S315080096E077F0B5F80C23F2E701230020EFE700BF77
S315080096F00080005038B5104B0546D3F860310C464B
S3150800970003F00303022B0BD0032B0DD0012B0FD133
S3150800971077F09AF80A2305B1286004B1236038BDAA
S31508009720FEF7F4FC0923F6E777F091F80C23F2E745
S3150800973001230020EFE700BF00800050B0F5207F2E
S315080097401FD009D8B0F5007F15D003D868B1B0F599
S31508009750C07F0AD000200CE0B0F5607FFAD10B4B31
S31508009760D3F88000C0F3011003E0084B186FC0F36C
S31508009770033001307047054BD3F89000C0F30460FE
S31508009780F7E7024B186FC0F38020F2E7008000501D
S3150800979002464FF48030104B10B598660020FFF74C
S315080097A0CDFF504341F671320C4BDC69DA635A68D7
S315080097B004F4803422F4401259B9094988428CBF0E
S315080097C04FF480100020104358600CB10022DA6371
S315080097D010BD0449F2E700BF009000500000035096
S315080097E0005A6202002D3101430905D0012B0DD024
S315080097F0022B094B18BF002300F01F0041B103F5E7
S315080098008053012202FA00F018607047034BF3E711
S3150800981003F50053F5E700BF6880005064800050E8
S315080098201FB5002180280446CDE9001100F0A58067
S3150800983035D85E2846D85E2844D8DFE800F0A2432B
S3150800984043434343434343434343434343434343DA
S315080098504343434343434343434343434343A2AA04
S31508009860A2AAB9B9B9B9B9AAC34DD9714DAAAAAAB2
S315080098704343434343434343AAAAAA79E3AA434338
S315080098804343434343434343434343B9A2A2A2DE6C
S315080098904D4DE8885EBE434343434399A200B0F565
S315080098A0B06F00F08F802DD8B0F5207F71D00CD81E
S315080098B0B0F5C07F65D0B0F5007F65D0B0F5807F84
S315080098C000F08580009804B010BDB0F5607F6AD0BE
S315080098D00DD8B0F5407FF5D1FEF7A6FB02464FF44A
S315080098E02070FFF72BFFB2FBF0F0400847E0B0F519
S315080098F0806F5DD0B0F5A06FE4D100216846FFF710
S31508009900C3FDDFE7B0F5106F77D016D8B0F5E06F76
S3150800991078D00AD8B0F5C06F6AD0B0F5D06FD1D17B
S3150800992000216846FFF76AFECCE7B0F5F06FC9D1AB
S3150800993000216846FFF7DEFEC4E7B0F5406F3CD06D
S3150800994013D8B0F5206F62D0B0F5286FBAD10021D0
S31508009950314B0391D3F8703203F00303012B02D184
S3150800996003A8FFF7C3FD039B3BE0B0F5486FA9D1F9
S3150800997000216846FFF710FEA4E7FEF73BFB0090C0
S31508009980A0E7FEF751FBFAE7FEF734FB024620464E
S3150800999004E0FEF749FB02464FF42070FFF7CEFEBF
S315080099A0B2FBF0F0EBE701A8FFF7BCFC019AEEE783
S315080099B000216846FFF7DAFC84E700216846FFF7CE
S315080099C009FD7FE700216846FFF736FD7AE74FF085
S315080099D0E02302911B695B0705D5FEF725FB02907C
S315080099E0029B00936EE703A902A8FFF77FFDF7E73E
S315080099F000216846FFF77AFD64E700216846FFF70D
S31508009A0029FE5FE700216846FFF750FE5AE7002166
S31508009A106846FFF78FFD55E70080005008B580209F
S31508009A20FFF7FEFE034B98429EBF4FF48032024B6F
S31508009A301A6708BD005A620200A000501FB500232D
S31508009A40B0F5807F019300F0C38064D85D2855D8AF
S31508009A504C2807D82D2847D823282BD8019805B095
S31508009A605DF804FB4D381028F8D801A353F820F008
S31508009A70C79B00085D9A00085D9A00085D9A000871
S31508009A80799B00085D9A00085D9A00084D9C0008BD
S31508009A90979B00083D9B0008439C00085D9A0008B8
S31508009AA05D9A00085D9A00085D9A00085D9A0008AC
S31508009AB0579C000824380928D0D801A353F820F069
S31508009AC0C79B0008C79B0008C79B0008C79B0008E0
S31508009AD0C79B00085D9A0008BD9B00085D9A0008B0
S31508009AE0599B0008FD9B00083D2800F082803E280F
S31508009AF0B4D1002001A9FFF7D9FDAFE78028ADD181
S31508009B005A4B1B6F03F00703013B032BA6D8DFE86C
S31508009B1003F05350878FB0F5F06F6AD021D8B0F5AF
S31508009B20B06F4BD00FD8B0F5607F00F0858095D325
S31508009B30B0F5806F47D0B0F5A06F8FD1002001A98E
S31508009B40FFF7A2FC8AE7B0F5D06F57D0B0F5E06F03
S31508009B50CFD0B0F5C06F81D1002001A9FFF7C6FCB0
S31508009B607CE7B0F5206F71D00BD8B0F5086F4AD0F6
S31508009B70B0F5106F7FF472AF002001A9FFF76AFDF8
S31508009B806CE7B0F5406F5CD0B0F5486F63D0B0F5C0
S31508009B90286F7FF463AF0021344B0391D3F87032FA
S31508009BA003F00303012B5BD0022B14BF0B461523CE
S31508009BB000E00523019351E70223FBE7002001A9F2
S31508009BC0FFF73AFC4AE7002001A9FFF7CFFB45E774
S31508009BD002934FF0E0231B695B0705D5FEF724FACD
S31508009BE00D230393039BE5E703A902A8FFF77EFC71
S31508009BF0F8E7002001A9FFF77DFD2FE7002001A95E
S31508009C00FFF7FCFC2AE7194BD3F8003103F00303EE
S31508009C10022B07D0032B09D0012B0BD1FEF71AFA1A
S31508009C200323C7E7FEF772FA0923C3E776F00AFEAD
S31508009C300823BFE70123BDE7184601A9FFF772FB12
S31508009C400CE7002001A9FFF7C5FB07E7002001A9DB
S31508009C50FFF770FC02E7002001A9FFF79DFCFDE66F
S31508009C6003A8FFF743FC1123A4E700BF00800050B8
S31508009C7008B5FFF7E3FE092811D00A38012811D8DC
S31508009C804FF48002094B4FF6FF705A6603F5D83336
S31508009C905B6A13F0010F18BF4FF4FA7008BD044B46
S31508009CA01888FBE74FF6FF70F8E700BF00900050F2
S31508009CB0EA16002038B504468020FFF7BFFE0328C1
S31508009CC000F08A804FF48012544B4FF0A0615A6618
S31508009CD045F60E03524AC2F88030524B99624FF449
S31508009CE0803103F580539962936DD903FCD4916D45
S31508009CF011F08041FBD1D4E900031B0543EA006358
S31508009D00E07B0343207B43EA0043607B43EA00335E
S31508009D10A07B43EA801313619069D4E904531B06B8
S31508009D2043EA856300F000400343A07E0343207E98
S31508009D3043EA0043607E43EA00239361136AE269BB
S31508009D40E57E002A0CBF0020082023F00F031343EA
S31508009D5043EA8503324A03431362E369324D002B13
S31508009D603BD194F82430916A94F82000DB000D402A
S31508009D7043EA401394F821102B4343EA011343F4B2
S31508009D8080339362294B916D33EA0101FBD14FF081
S31508009D908071244881621369A56823F4700343EA35
S31508009DA0055313614FF00043836194F822300BB9D1
S31508009DB01F4B996294F823303BB94FF480321C4B01
S31508009DC09A62174A936D5B00FCD494F825301BB150
S31508009DD0134B184AC3F8802038BD022B08D11161ED
S31508009DE0154891614FF408524FF47F4176F0DDFE35
S31508009DF00B4994F822308A6A94F820001B0615400D
S31508009E0043EA401394F824202B4343EAC20394F808
S31508009E10232043EA02438B62D7E700BF0090005035
S31508009E200040005A0050005AC7FFFEFE030001001A
S31508009E300060005AF1A7FFFF3440005A37B5194CA5
S31508009E40A26AA36D13F4803F18BF4FF48031164BF6
S31508009E5018BF99624FF080719962144BA56993F9FE
S31508009E60003025F47F050344000280B225F47F45BF
S31508009E7083F30803284340EA0340A0610C48019293
S31508009E8076F093FEA36D019A13F4803F07D04FF442
S31508009E908031074803B0BDE8304076F086BE03B08F
S31508009EA030BD00BF0040005A0050005A4A19002031
S31508009EB02840005A014B93F9000070474A190020C0
S31508009EC04FF480300E490F4B8A6A9862886D00F00D
S31508009ED003000328FAD14FF080709862896D01213A
S31508009EE01965074B996D8907FCD4996D8807FCD5C8
S31508009EF0996D8907FCD50449044876F056BE00BF1B
S31508009F000040005A0050005A000001012840005A3B
S31508009F104FF400011B4A437810B551664FF4D151EE
S31508009F20022402F5B832516217494F2B4C604FF0A4
S31508009F30010428BF4F2301F580514C601169C903FC
S31508009F40FCD4017843EA01235361D0E901131B01CC
S31508009F5043EA0123417B0B43017B43EA41039360B8
S31508009F60C37B817B1B0143EA4113417C0B43017C84
S31508009F7043EA41035360837C13B16FF4D1535362B0
S31508009F8010BD00BF0090005000100250014B188011
S31508009F90704700BFEA160020014B1880704700BFC3
S31508009FA0E81600204FF4800208B5184B5A660223BB
S31508009FB0174A5360936813F48033FBD1012822D1E2
S31508009FC0FEF748F8134B984215D003F5122303F50C
S31508009FD0F863984213D0104B00EB8002400AB3FB9B
S31508009FE0F0F0520A0A4BDA62012218635A6200221A
S31508009FF0074B5A6008BD45F67A10084AF2E745F657
S3150800A0001A00074AEEE75362F1E700BF00900050D6
S3150800A0100040025000F0490264666666D8B805003A
S3150800A020BBCF0500B0F5207F10B50C4657D008D831
S3150800A030B0F5007F48D003D830B3B0F5C07F23D041
S3150800A04010BDB0F5607FFBD129492A48D1F8FC201C
S3150800A05012F080721EBFD1F8FC3023F08073C1F86D
S3150800A060FC30D0F88030611E23F0300444EA011435
S3150800A070C0F88040002AE3D01D4AD2F8FC3043F0ED
S3150800A0808073C2F8FC30DBE776F0A0FD76F0ACFD15
S3150800A0904FF48031184B174A1967136F611E23F462
S3150800A0A0704444EA01341467FDF7BEFF0446FFF71F
S3150800A0B0B3F8C0F10201204676F090FD00F02EF8C4
S3150800A0C0BDE81040FFF7AABC0A4A0139D2F8903019
S3150800A0D023F0F85444EA0164C2F89040B0E7054B0F
S3150800A0E0013C196F21F4806141EA84241C67A7E7C3
S3150800A0F000ED00E0008000500090005008B50121F6
S3150800A100022000F0A5F976F061FD76F06DFD4FF4BA
S3150800A1108032014B1A6708BD0090005008B54FF40D
S3150800A120C070FFF77DFBBDE80840044988428CBF34
S3150800A130022101214FF42070FFF774BF80F0FA0264
S3150800A1404FF4C02201212DE9F04105466A4B5A66B3
S3150800A1506A4A03F598335C6851605E6816F0020631
S3150800A160FBD1FFF759F80128286805D1644B9842B6
S3150800A17002D90020BDE8F081624A0023114617681B
S3150800A180B84202D35768B84205D90133192B02F1F0
S3150800A1901002F4D1002301EB0313D3E9028028B19E
S3150800A1A0FFF746F800F07F0048EA00088020FFF72E
S3150800A1B045FC05285FD176F009FD76F015FD4FF4CC
S3150800A1C080324D4B4FF4C0701A67FFF7B7FA012873
S3150800A1D006464CD102214FF4C070FFF723FF012732
S3150800A1E04948C16811F00601FBD1D0F808C0C0F88B
S3150800A1F00880836808F4F81203F4F8139A424ED1DB
S3150800A200AA88EB8843EA0243404AD360AB68032B2B
S3150800A21033D1A2F5A032D2F8003123F0030343F07C
S3150800A2200103C2F800312B7D287B002B6B7D14BF00
S3150800A23004220022002B18BF40212B694FF000088A
S3150800A24043EA40031343314A0B4393602868FDF7FA
S3150800A250CBFE0722294B1A610122A3F580535A60C7
S3150800A260A3F580531C6914F00704FBD01EE00228EE
S3150800A27001D10421AFE70027B2E7092B07D1244A09
S3150800A280D2F8003123F0030343F00203C9E7082B91
S3150800A290C9D11F4AD2F8003143F00303C1E714F0CD
S3150800A2A001044FF00108C0F808C0D2D18020FFF79A
S3150800A2B0C5FB052817D127B131464FF4C070FFF703
S3150800A2C0B1FEFDF7B1FE0546FDF788FEFDF786FEF1
S3150800A2D0FEF7A2FFC0F10201284676F07FFCFFF7E1
S3150800A2E01DFFFFF79BFBB8F1000F7FF442AF631E1B
S3150800A2F0584258413EE700BF0090005000E0015028
S3150800A300005A6202B8290C080000015000C001502A
S3150800A310008000500028ABBF00F16040054B00F5F7
S3150800A320614000F00F00ACBF90F80003185C00090C
S3150800A330704700BF14ED00E0034B5868C0F30800EF
S3150800A340003818BF0120704700ED00E0054B4209B0
S3150800A35053F8223000F01F0023FA00F0C04300F043
S3150800A3600100704700E100E0014608B5EFF31083ED
S3150800A370DB0702D50122104608BDFFF7E7FF0246B4
S3150800A3800028F7D10846FFF7C5FF0146EFF311830A
S3150800A39013B1B0EB131FEDD2074B5B68C3F3080389
S3150800A3A0002BE8D0103B58B2FFF7B4FF88428CBFA9
S3150800A3B000220122DFE700BF00ED00E0024A536BEE
S3150800A3C00342FCD1704700BF00400950044A417857
S3150800A3D0536F23F4407343EA01235367704700BF62
S3150800A3E00040005010B50A4A0446136943F00403B6
S3150800A3F0136106F001FA76F021FC30BF76F01FFCF7
S3150800A40006F00EFA1CB9BDE81040FDF70DBE10BDEA
S3150800A41000ED00E010B5084A0446136943F004034A
S3150800A420136106F0E9F930BF06F0FAF91CB9BDE880
S3150800A4301040FDF7F9BD10BD00ED00E0034A0179B3
S3150800A440D36E23F030030B43D366704700400050A9
S3150800A450F8B504461C4BD3F88420D106FBD4D3F8B0
S3150800A4608430C3F381139C422CD0FDF7C3FD012C25
S3150800A470064602D1214676F0B1FB76F0CFFB4FF0C7
S3150800A4800072124B07465A66204676F0DBFB4FF4FD
S3150800A49080630D4D621E93402B676B6E9A0103D441
S3150800A4A0D5F884309B060AD5384676F0BBFB022CD5
S3150800A4B008D13046BDE8F840002176F08FBBD5F8C4
S3150800A4C08430EAE7F8BD00BF004000500060005045
S3150800A4D007B518B90191FDF78DFD0199064B1B7853
S3150800A4E043B1064B984205D8012003B05DF804EB4A
S3150800A4F0FFF7AEBF0220F8E72DFB0120005A6202E3
S3150800A5000278034B012100201A70FFF7E1BF00BF54
S3150800A5102DFB01204FF0004238B5284B28495A66D2
S3150800A5204AF6CD334D6C044605F001050B6460BB55
S3150800A5300120FFF743FF4B68DA0708D4002415B15A
S3150800A5401F4B204A1A64B7F02AFA204638BD1E4B1C
S3150800A550586020461D4C0B6BDB0706D4A04202D17F
S3150800A5604FF0FF34EBE70130F5E7A0424FF0FF3438
S3150800A57018BF0024E3E701320B6B13F0080307D07A
S3150800A5808242F8D16FF00104D9E700220F48F3E7B9
S3150800A5908242F7D020210C4A91620121A2F580520D
S3150800A5A051600749094A886A800603D49342E9D06C
S3150800A5B00133F8E79342C1D1E4E700BF00900050A9
S3150800A5C0004009503254FFFF0060095040420F0016
S3150800A5D04FF0004238B5164B01465A664AF6CD3357
S3150800A5E0144C154A656C236443780B205B0043F0D2
S3150800A5F00103D363FFF7E2FE63688A7823F4F873EE
S3150800A60043EA02136360CA784B7943EA0223A360DC
S3150800A6100A798B7943EA022323610878FFF77AFFE0
S3150800A620EB0744BF054B2364B7F0B9F9012038BDE1
S3150800A6300090005000400950004000503254FFFF7F
S3150800A6404FF0004270B5124B04465D6E03F5805319
S3150800A6505A664AF6CD330F4980204E6C0B64FFF7D5
S3150800A660ADFE0B6A23F00F030F2C94BF234343F070
S3150800A6700F030B62F30744BF074B0B64002DA2BF01
S3150800A6804FF00042054B5A66B7F089F970BD00BF16
S3150800A69000800050004009503254FFFF00A00050CF
S3150800A6A04FF0004270B5104B04465D6E03F58053BB
S3150800A6B05A664AF6CD330D4980204E6C0B64FFF777
S3150800A6C07DFE0B6A23F4F85343EA04230B62F3076F
S3150800A6D044BF074B0B64002DA2BF4FF00042054B49
S3150800A6E05A66B7F05CF970BD00800050004009500A
S3150800A6F03254FFFF00A0005010B576F0A8FA0423E4
S3150800A70000F5805100F500520B6113610B6113616E
S3150800A7100B6113610B611361202341F2020103618E
S3150800A7200023C360836041614FF4A0218361836580
S3150800A73041620549C36103628362C3624363036579
S3150800A740D164036310BD00BFFF3F0D03F8B505468E
S3150800A7501446084641B9344B9D422FD0334B9D428F
S3150800A76008BF5720FFF75CF8AB68DE072ED5B0FBAD
S3150800A770F4F46E68013C16F0010625D02821284617
S3150800A78076F061FAAB6C99071AD1AB6CDA0719D473
S3150800A790AB6C13F0020F0CBF00270627284676F08D
S3150800A7A056FA286920F07F4040EA04642C61DEB13D
S3150800A7B039462846BDE8F84076F080BA5620D1E7F3
S3150800A7C00527EBE70927E9E73746EAE76B68AB6D44
S3150800A7D0AF68DB0707F0E00748BF6400402F1BD0CF
S3150800A7E003D8DFB1202F1BD0F8BD602F1AD0802FD9
S3150800A7F0FAD1012604FB06F34101B1FBF3F30C4A37
S3150800A800203B02EAC3022846012176F01CFA2A6395
S3150800A810BDE8F84076F017BA0626EBE71026E9E712
S3150800A8200826E7E70426E5E70000015B00000A5072
S3150800A830F8FF7F00F8B51E46436804460D461746DE
S3150800A8401BB140F6FF7176F0FEF92046FFF754FF7C
S3150800A850E9896B7B62690B43298A22F44C520B43C4
S3150800A86022F00F0213436361A368297B2A7E23F033
S3150800A870804323F0E203114319436B691943A1602E
S3150800A880AB681BB9A36843F00043A360EA69002AD2
S3150800A8906BD0A368127A43EA8253A360EA69A36875
S3150800A8A0927A43EA4243A360EB69A2689B8803F461
S3150800A8B0C0431343A360EA69A368527843EA820354
S3150800A8C0A360EA69A368527B43EAC203A360EA6904
S3150800A8D0A368927B43EA0213A360EA69A3689278A5
S3150800A8E043EA8223A360EA69D37991795B0243EA52
S3150800A8F08123E360EB69674A1B7803F0FD03012BAC
S3150800A90002BFE36843F00403E360EB691B78023B8C
S3150800A910012B614B7AD8944276D0604A94420CBF98
S3150800A92001224FF0FF3203EB421341F29442022117
S3150800A9309950EB695A7A04F580539A62EB695B7A07
S3150800A9401BB1E36843F40063E360EB69DB7A63B148
S3150800A950E36843F40043E3604E4B9C4265D1EB69E0
S3150800A9604F4A1B7B03F00F0353673FB197F820301C
S3150800A97004F58050002B63D001230362002E30D0EB
S3150800A9802B7E04F5805013B14FF40043836596F887
S3150800A9902120404B102A434961D89C425DD03F4B49
S3150800A9A09C420CBF01234FF0FF330127CF54768C0E
S3150800A9B03849B6F5006F3C4B5FD88C425BD03749B7
S3150800A9C08C420CBF01214FF0FF3101275F54A36D64
S3150800A9D0324323F4F95323F01E031343A3650123DB
S3150800A9E083650521204676F04CF9AA6812B1696894
S3150800A9F0FFF7ACFE2046297876F060F9A36CDB43B6
S3150800AA0013F4405FFAD1F8BD00228CE794420AD0CD
S3150800AA10224A94420CBF01224FF0FF3203EB421345
S3150800AA2042F2944283E70022F8E71C4B9C429CD1F1
S3150800AA30EB691B4A1B7B03F00F03C2F8803094E7CF
S3150800AA40E36997F8221097F8212023F009030A43AF
S3150800AA501A4342F00102C26190E70023A5E79C422F
S3150800AA6007D00E4B9C420CBF01234FF0FF33022741
S3150800AA709CE70023FBE70021A7E78C4207D007499C
S3150800AA808C420CBF01214FF0FF3102279EE70021BF
S3150800AA90FBE700BF0000015B00C0035000000A503E
S3150800AAA00090035030FB01202EFB01202C4B2DE992
S3150800AAB0F0419842064612D02A4886420CBF5720D3
S3150800AAC00020FEF7ADFEB16811F0010109D0316929
S3150800AAD0090E0131B0FBF1F10846BDE8F0815620B8
S3150800AAE0EFE7326BB468204B04F0E004402C03EA2D
S3150800AAF0020310D007D854B3202C2CD0B36DDB0733
S3150800AB0048BF4908E8E7602C27D0802CF6D14FF4D7
S3150800AB1080750C461CE080250C464FF0030803F5AB
S3150800AB20807308FB03F800234246194657F0D4FA07
S3150800AB3002FB04F100FB05F705FB0311A2FB050563
S3150800AB4000234246294457F0C7FA3918D6E7102594
S3150800AB504FF00108E3E72546DBE74025D9E700BFC4
S3150800AB600000015B00000A50F8FF7F00072AF7B5CE
S3150800AB7001F0030614461F464FF003012CD8950032
S3150800AB80A94000FA05F21C48019176F0A7F8019948
S3150800AB901A4806FA05F276F0A1F8194B19499DF8F4
S3150800ABA02000002F08BF1946012303FA04F40C609D
S3150800ABB0154B1649002808BF0B461C60144B10316C
S3150800ABC0C3F820449DF82400A3F6DC33002808BF08
S3150800ABD00B461C6003B0F0BDA2F10805AD00A94004
S3150800ABE000FA05F20B48019176F078F801990A48BF
S3150800ABF006FA05F2CFE700BF00C4035008C40350A5
S3150800AC0010E4035010D4035014D4035014E4035032
S3150800AC1000E0035004C403500CC403502DE9F0416E
S3150800AC2005460F461E4690464AB101233022194C66
S3150800AC308B4002FB00443EB304F5825423600F2187
S3150800AC40072F05EB450388BFA7F108044FEA03134E
S3150800AC50114895BFBC00A40004330C3308FA04F26B
S3150800AC60A140184476F03AF8B8F1000F0AD101214C
S3150800AC703020084A01FA07F700FB05223EB102F523
S3150800AC8082521760BDE8F08104F50154D6E702F553
S3150800AC900152F6E700C0035030C00350044A054B82
S3150800ACA0002918BF1346012202FA00F018607047FF
S3150800ACB0402004504010045010B5012104462020BD
S3150800ACC0FEF792FD01212120FEF78EFD0122114B90
S3150800ACD05A60227812069A606178A27842EA01429E
S3150800ACE09A61FF229A6200229A631A644FF0004220
S3150800ACF05A654FF0FF324FF4001103F500531A65F9
S3150800AD00054AC2F88011E3781B01DBB282F81533D5
S3150800AD10116010BD0000045000E100E070B5012587
S3150800AD20C3B29D401E4B0C461D658300096803F19E
S3150800AD30A04303F58823596030211A4E637B01FB33
S3150800AD4000600366E37AA17A1B0543EA0143217B87
S3150800AD5022F0030243EA4153C365026775F065FFB3
S3150800AD60736D2B437365237A13B1336C2B433364AA
S3150800AD70637A13B1B36B2B43B3632279A37943EA9E
S3150800AD800243074A93616179E37943EA0143064935
S3150800AD908B61044B55639D64BDE8704075F04BBFED
S3150800ADA0002004500000045000100450F8B5012596
S3150800ADB0C3B204469D4075F038FF3022094B1E6D1C
S3150800ADC05F6B02FB04335C6E75F035FF3D4206D1BE
S3150800ADD0C4F30A1008B9354200D10130F8BD002085
S3150800ADE0FCE700BF000004504FF48032054B9A661A
S3150800ADF041F6713203F51C33DA63012203F5005379
S3150800AE00DA6070470090005041F671320121064B16
S3150800AE10DA6303F50052D1600022DA634FF4803218
S3150800AE20A3F518339A667047000003500138312895
S3150800AE309ABF024B185C0020704700BF482B0C08CD
S3150800AE40021E30B54FF000000CBF1025042547F64A
S3150800AE500774084952B9831D51F82330234023B19A
S3150800AE6001308542F6D14FF0FF3030BD00F11603B0
S3150800AE70F2E700BF0080035010B5C2F3062304466C
S3150800AE8002F0070241B942EA03220B4B42F4402280
S3150800AE90063443F8242010BD1846114675F02FFFD6
S3150800AEA001461846FFF7C2FF034B41EA0020163455
S3150800AEB043F82400EFE700BF00800350014BD3F8A6
S3150800AEC094007047004000504FF48032064B5A6693
S3150800AED003F5E6239B69C3F38512827003F03F02EC
S3150800AEE01B0B4270037070470090005040F6B73253
S3150800AEF0064B5B689BB293429FBF4FF47A72B3FBD3
S3150800AF00F2F3034AD05C88BF002070470080E00F48
S3150800AF107A2B0C08014B986CD96C70470080E00FAF
S3150800AF200120034B9B680A3303F01F0398407047C0
S3150800AF300080E00F2DE9B841154F15460F40FAB9C4
S3150800AF40202B20D0402B20D0002B14BF40241024C7
S3150800AF50012307F580775F4300233A46194657F0E1
S3150800AF60BBF8554300FB04F804FB0351A2FB040499
S3150800AF7000233A46214457F0AFF84044BDE8B8816B
S3150800AF8080240025E4E71C46E2E780240323E0E763
S3150800AF90F8FF7F00012100F5805310B5596040F68F
S3150800AFA0AA6341F2050243610023094C8360C36525
S3150800AFB0C26000F500520361C361C3649464054C22
S3150800AFC08365A04204BF03654365516010BD00BF99
S3150800AFD0FFFF010000C0055038B50D46FFF7DAFF40
S3150800AFE0012200F580535A60A97B2A8A002914BFDA
S3150800AFF04FF480610021836842F0010213430B433A
S3150800B00083602A7D8368002A14BF4FF0005200220D
S3150800B01013438360AB7C04465BB1194B984202BF6D
S3150800B020EA7CA3F51033C3F8C821C36D43F0800347
S3150800B030C3652B7B204643F48053E360D5E90112B0
S3150800B04075F0CFFE6B7B0BB1102363616B7D1BB173
S3150800B050A36843F48033A360AB7D1BB1A36843F4B4
S3150800B0600043A360EB7D2A7E1B07120503F0E0432D
S3150800B07002F4E0021343A3652B78636138BD00BF71
S3150800B08000C00550054B9A689107FCD45A68920788
S3150800B090F9D4DA69002AF6D1704700BF00800A5051
S3150800B0A008B5FFF7EFFF0122024B03F580514A600E
S3150800B0B01A6108BD00800A50074B5A68012A0AD14E
S3150800B0C05A68D20702D5DA69002AF9D102221A612A
S3150800B0D00122024B5A60704700800A5000A00A50AD
S3150800B0E010B5064CFFF7CEFF6368012B03D1FFF7B7
S3150800B0F0E3FFFFF7C7FF0378E36010BD00800A503F
S3150800B100E8B94A680B7812B1127843EAC2034A785A
S3150800B110002A14BF0222002213438A6812B1127849
S3150800B12043EA82138A78002A14BF042200221343B2
S3150800B130CA6812B1127843EA4223014A93647047F7
S3150800B14000800A5008B9014B5964704700900A50AC
S3150800B15008B9014B5964704700A00A5008B9014B59
S3150800B1601964704700A00A5010B9024B186C704752
S3150800B1700020704700800A5048B911B1012903D050
S3150800B1807047044BD86C7047024B186D7047002007
S3150800B190704700BF00800A5040B911B1012903D099
S3150800B1A07047034BDA647047014B1A65704700BF56
S3150800B1B000800A5038B50446054DB6F06EFC0FCC33
S3150800B1C00FC594E8030085E80300002038BD00BFDA
S3150800B1D0C845012047F6FF739A42F0B566D00129A3
S3150800B1E066D8344DCF0015F8313005EBC100012B78
S3150800B1F0847813D10025C3781B1B9D4202D3E0181F
S3150800B200C0B2F0BD591B4668A3EB510136F911606F
S3150800B2109642D4BF0D4601F1FF33EEE74068002899
S3150800B220EFD0B0F90030934204DBB0F90230934214
S3150800B230B8BF134682883D44FF2A19BFC8214FF07C
S3150800B240280CB0F90610B0F908C0A1EB03020CBF30
S3150800B2500126002692FBFCF26D78324412B2954222
S3150800B26001DD002A01DA6A1E12B24FF47A7700EB82
S3150800B270C206F188B668013213FB016112B221EAEF
S3150800B280E1715C319542B1FBF7F104DD00EBC206D2
S3150800B290B6888E42EBD200EBC20232F8040C884222
S3150800B2A028BF0846A04238BF2046A9E7FF20A8E7DE
S3150800B2B00020A6E7C84501200129F0B553D82B4838
S3150800B2C000EBC10410F83110636801290FD1E0784A
S3150800B2D0A478904294BFC4EB0001C4EB0201001BA2
S3150800B2E0CAB28242C8BF002233F91200F0BD002B51
S3150800B2F039D0A178914202D3B3F90200F6E7E17892
S3150800B300B3F900009142F1D999886478A1F1FF0652
S3150800B310013C714203F10405E4B2714103F10C07E3
S3150800B3201FFA82FCCEB2B44216D805EBC1014FF41F
S3150800B3307A756A43B1F902404968521A04EBD47126
S3150800B34002EB610292FBF4F29042CFDBB3F9020002
S3150800B3509042CBDC10B2C9E737F831E04E1CE6451F
S3150800B360E3D33146DEE70248C0E700BFC8450120FF
S3150800B3700080FFFF0148FFF71DBF00BF14C00D087E
S3150800B38000487047EC1600207FB50222084B094991
S3150800B390CDE901234FF04073CDE90313052301A935
S3150800B3A04FF0FF300593B6F06EFC07B05DF804FB6E
S3150800B3B0006A1800000304002DE9F84307F0D4FEDC
S3150800B3C00128074605D907F003FF061E02DA0124FD
S3150800B3D01EE00026DFF8808098F8003003F0FF04AE
S3150800B3E093BB4FF05009194D05F110032846C5E9DE
S3150800B3F00044AB60C5F80C9008F05EF8286650B9B2
S3150800B4000124012F04D9304607F004FF0028DEDBAB
S3150800B4102046BDE8F8830E4D214605F110032A465D
S3150800B4200120C5E90044C5E9023908F005F928668E
S3150800B4300028E5D03022074B83F8412302229A6080
S3150800B440012388F80030DCE70024DAE744460120C7
S3150800B450E045012000E100E032FB012008B507F0D5
S3150800B46083FE02280FD1094B4FF0FF31186E08F002
S3150800B47065F8002814BF0120002003D14FF480622C
S3150800B480034B9A6608BD0020F8E700BF4446012032
S3150800B490009000504FF4806208B5084B9A6607F092
S3150800B4A063FE022807D1064B186E08F077F80038B5
S3150800B4B018BF012008BD0020F9E700BF00A0005012
S3150800B4C04446012008B54FF098435B6CD90208D56D
S3150800B4D007F04AFE0238012803D8094B186E08F00F
S3150800B4E037F94FF098435A6CD202FCD55B6D054A82
