S02400006275696C642F64656275672F73656E736F722D6170702D7273393131782E7333372E
S3150800600000120020D1790008F721050859EC060886
S31508006010053E0508F7210508F7210508F7210508B3
S31508006020F7210508F7210508F72105085162000838
S31508006030F7210508349D0708F16100087F3E050829
S315080060407D770008F7210508F7210508F7210508D7
S31508006050F7210508F7210508F7210508F72105089E
S31508006060F7210508F7210508F7210508F72105088E
S31508006070F7210508F7210508F7210508F72105087E
S31508006080F7210508F7210508F7210508F72105086E
S31508006090F7210508F1800008F7210508F72105080A
S315080060A0F72105086D82000849820008F7210508CE
S315080060B0F7210508ED140508E51E0508A19C070843
S315080060C09D9C0708BD160508AD9C0708A59C0708F2
S315080060D0BD1E0508A99C0708251F0508891F050870
S315080060E0F7210508F7210508F7210508F72105080E
S315080060F0F7210508F7210508F7210508F7210508FE
S31508006100F7210508F7210508F7210508F7210508ED
S31508006110F7210508F7210508F7210508F7210508DD
S31508006120F7210508F7210508F7210508F7210508CD
S31508006130F7210508F7210508F7210508F7210508BD
S31508006140F72105088DB10008F7210508273E05083F
S31508006150910D0508F72105086D9C0708739C07082B
S31508006160F7210508F7210508F7210508F72105088D
S31508006170013800D0FCE7704700000000000000006E
S315080061800B4A1168086806C881F30B88022181F357
S315080061901488203080F30988BFF36F8F4FF0000012
S315080061A080F31188104700BFAFF30080AFF300807B
S315080061B094C7002000000000000000000000000056
S315080061C007480068006880F3088862B661B6BFF3BE
S315080061D04F8FBFF36F8F02DF00BF00BFAFF30080A2
S315080061E008ED00E0000000000000000000000000CC
S315080061F0EFF30980EFF30B82734620E9FC0F104A90
S31508006200116808604FF0300080F31188BFF34F8F94
S31508006210BFF36F8F0AF012FA4FF0000080F311886F
S31508006220074A11680868B0E8FC0F82F30B8880F308
S3150800623009881847AFF30080AFF30080AFF30080FA
S3150800624094C70020000000000000000000000000C5
S315080062501EF0040F0CBFEFF30880EFF30980044922
S31508006260084700BFAFF30080AFF30080AFF30080AC
S3150800627069F40008000000002DE9F04F2DED028BAF
S31508006280804600680C4691461D468DB030B90327F6
S3150800629038460DB0BDEC028BBDE8F08F0668766C0B
S315080062A0B0472D2807460CD00028F1D09C4A9D4BB4
S315080062B00221A52808BF13460D209B4A66F03AFC22
S315080062C0E6E76378202B01D10027E1E7974BD8F85A
S315080062D00000049358B1036822461B6C04A998472A
S315080062E0074630B1049803689B689847D0E70327A8
S315080062F0F8E78F4B8F4E05934FF48973EE40F643BC
S31508006300EB40DB43102D06F0010688BF0126082D59
S3150800631003F0010388BF01239FED7F8B6FF0010B0C
S315080063200193049805A90368DB689847002840F09C
S31508006330EC808DF80E0005980DF10E010368DB68F8
S3150800634098470746002843D19DF80E30402B03D0C6
S31508006350802B01D003273BE062789A42E1D10123E2
S3150800636005988DF80F3003680DF10F015B699847A2
S31508006370074668BB9DF80F30082B17D8002BD0D0DE
S31508006380013B072BCDD801A252F823F0DD630008A4
S31508006390B763000823630008D9630008236300086D
S315080063A02363000823630008E3630008102BB8D1B1
S315080063B0002EB6D102E06B1E012BB2D80023059839
S315080063C00693036806A95B6A9847824668B107463A
S315080063D005A852F05FF885E7042DEFD0012DA0D16E
S315080063E0ECE7019B002B9CD1E8E7069B002B46D0E7
S315080063F08DED088B05985146036808AA9B6A98474D
S3150800640007460028E4D1DDE90830591E40F1FF327D
S315080064108B456FF0100171EB020210D39DF80E2028
S31508006420402A97D1D4E90212904208BF8B4226D05F
S31508006430069B0AF1010A53457FF673AFD8E74FF07A
S31508006440FF31C21C994277EB020231D39DF80E2028
S31508006450402A7FF47FAF1F0C04F1100104F11C00E1
S315080064609BB28842E4D051F8042B002AF9D0B7EB46
S31508006470124FF6D1002BF4D092B29342F1D80023F2
S3150800648005980793036807A99B6B98470746002852
S315080064909ED1079B002B36D082460598CDF820A0C2
S315080064A003683946DB6B08AA984758B107468FE751
S315080064B013F5803F70F1FF32FFF44CAF9DF80E20C4
S315080064C0802AAEE7089BD90704D5D9F80020099990
S315080064D0914212D19A0705D5BDF82810B9F80420BB
S315080064E091420AD15B070ED5D8F80400B9F8042002
S315080064F003680B999B68984728B9079B0137BB42E5
S315080065007FF60FAFC9E7002762E702210D200A4A86
S3150800651066F010FBA5275BE70000000000000000FE
S3150800652018D4070873CE0808ECD3070858150020B6
S315080065305C1500201601010009D4070800000000B8
S315080065402DE9F04F2DED028B884204460D46904604
S315080065501E4697B00AD1034601211D202E4A17B0C0
S31508006560BDEC028BBDE8F04F66F0E4BA9FED288BD0
S315080065700DF10C092A21484605AF20F01BF899E8C9
S31508006580030087E80300DFF894A0DFF894B0BDF8AD
S315080065901400BDF81630834234D020F05BF8337807
S315080065A081468DF824408DF825508DF826808DF883
S315080065B028300BB173680B9309AB0893CDF81CA070
S315080065C019F04AFC00230E938DF840308DF85130AF
S315080065D02A23ADF830904FF001090D930CAA6B46AB
S315080065E007A98DED128B8DF8509057F078FB03466E
S315080065F020B15A4649461D2066F09CFA38465BF09B
S31508006600C3FEC4E717B0BDEC028BBDE8F08F00BF30
S31508006610000000000000000014FA0708E0FA070866
S3150800662054FA0708000000002DE9F04F2DED028B03
S315080066309FED318B9DB00DF108092A21054604AC62
S31508006640484616461F46DDF8A4801FF0B3FF99E8B2
S31508006650030084E80300DFF8A8A0DFF8A8B0BDF8B7
S315080066601000BDF8123083423ED01FF0F3FF289B7E
S3150800667081461B78CDE90A6708958DF830301BB13D
S31508006680289B5B788DF8313098F800308DF83830D3
S315080066901BB1D8E90223CDE9102308AB0793CDF83F
S315080066A018A019F0D9FB00232A228DF858308DF846
S315080066B069300223ADF848904FF00109CDE913235C
S315080066C006A96B4612AA8DED188B8DF8689057F0BF
S315080066D006FB034620B15A4649461D2066F02AFAAB
S315080066E020465BF051FEBAE71DB0BDEC028BBDE853
S315080066F0F08F00BFAFF3008000000000000000002C
S3150800670008FB0708ABFA07082DE9F04F2DED028BB9
S315080067109FED5B8B83ED008B16460024BFB0984631
S31508006720D0E90623CDE90023054696F820208A46B7
S315080067304FF0030B1AA924A80F9457F0C8F98DED4A
S31508006740168B514BCDE91044196814941294ADF880
S3150800675060B00B680CA8DB689847D5E90C310C9A31
S315080067601AA8B2EB03090D9B4FF0FF3263EB010346
S315080067702968CDE91144CDE916930B93ADF840404D
S315080067808DF85040ADF860B063F00AFB96E8070054
S31508006790338C10AF87E80700ADF860305146D5E96D
S315080067A006232846CDE93023D5E90A23CDE92E2349
S315080067B00FAB3A4619F00AFC04460346002857D19F
S315080067C0284696F820200F9919F05AFD04460346E4
S315080067D000284DD13B465246284624A957F097F93A
S315080067E004460346002843D1EB68209A28461344FA
S315080067F0EB60D5E90623C8E9002319F04DFC0B9B8D
S315080068009DF850E0EB622148214B85F82040BEF107
S31508006810000F18BF03461698119A08901798C5F8DE
S315080068202890CDE906309DF86010BDF840401298D2
S31508006830D8F80030160C92B2CDE90420CDE902460C
S31508006840144A1A20019100935946D8F8043066F084
S3150800685071F91AF0FFF83946EA6800F5CE601CF0BF
S31508006860D1FC044620463FB0BDEC028BBDE8F08F54
S3150800687001211A20084A66F05DF9F3E7AFF30080B4
S31508006880000000000000000070160020BE0708087F
S31508006890BA070808C40708084C08080800000000DA
S315080068A02DE9F04F2DED028B083089B00E46914642
S315080068B0DDF8608066F061F90446002800F0A180E2
S315080068C06D4614AB0FCB85E80F0000259FED508B66
S315080068D04FF0010B41F2A45A04AF87E80F004E4B64
S315080068E0C4E90355236003F12C02C4E9055548336E
S315080068F0A3604A4B04F1480C62600FCB84ED0E8B03
S31508006900C4E90755C4E90C5584F8245084F8405066
S315080069108CE80F00424B1022236604F17803C4E981
S315080069201E3304F1A003C4E928333E4B2946C4F8B4
S31508006930D030C4E91955C4E9355584F858B0A4F8D7
S315080069405AA0E56584F86C506467C4F89850C4F892
S31508006950C050C4F8DC5004F1E00072F0CDFA84F8B7
S31508006960F0B0A4F8F2A0C4F8F45004F1F80066F008
S315080069703EFE4AF6C873C82284ED428B84ED448BEA
S31508006980C4E9462304F59873C4E94C3384F80051E6
S31508006990A4F80451C4F8285184F82C51C4F850516D
S315080069A03368E36073682361B3686361F368A3615E
S315080069B03369E36173692362337E84F824302BB12B
S315080069C0D6E9070104F1280383E80300304652F0AC
S315080069D049FAB0B9B9F1000F13D0B8F1000F10D0C9
S315080069E003CF3B78C4F8309084F84030012384F80C
S315080069F0283104F10803A063E163C4F8C880C4F829
S31508006A00DC30204609B0BDEC028BBDE8F08F00BF34
S31508006A10000000000000000004130808B825012043
S31508006A20C4120808F01208082DE9F04F2DED028B64
S31508006A309946002300240025CDB08DF8C830499327
S31508006A408DF828319C4BCDE92E45CDE93045CDE969
S31508006A5034450C934FF6FF740123DFF874A20646FB
S31508006A6088461746CDF8D8A0ADF820410D936AB1EF
S31508006A70054600F53E74A54200F00C81284652F002
S31508006A80C5FA002800F008819835F4E75EF0A0FB07
S31508006A90044630B9AC2420464DB0BDEC028BBDE8A7
S31508006AA0F08F06F53E7528465BF05EFBB4F8683055
S31508006AB08DF8C880ADF8203194ED028B6A34202118
S31508006AC0204672F082FBCDE90C407C4B4FF4C8712E
S31508006AD00E93002309A8CDE909330F930B93CDF83C
S31508006AE070A054F01DFD099B53B90B240BA852F056
S31508006AF0D6F80AA852F0D3F809A852F0D0F8CAE78F
S31508006B004FF4C8710AA854F00BFD0A9B002BECD071
S31508006B104FF4C8710BA854F003FD0B990029E4D073
S31508006B20099B0A9A10934FF4C8733046CDE912238D
S31508006B30CDE9141310AA414611935EF0A6FB08B1DD
S31508006B400446D3E74146304612AA5EF080FB002889
S31508006B50F6D14146304614AA5EF056FB0028EFD11E
S31508006B60109B0DF1B80A1693119B0DF1700B179334
S31508006B70129B8DED008B1893139BCDE905AB1993EA
S31508006B80149B1AAA1A93159B18A91B9336AB07933D
S31508006B9030AB049334AB03930EAB029316A823F0E1
S31508006BA001FB0028CCD10BA852F079F80AA852F0BC
S31508006BB076F809A852F073F8B9F1000F13D1D6F890
S31508006BC0940300285AD003689B689847D6F89433EC
S31508006BD01A6800284AD0546941465A461846A047BA
S31508006BE098B1044657E7D9F8003048465B69984794
S31508006BF0036859465B6A984708B9C5244BE79DF868
S31508006C006031CDF824918DF82831514628465EF03A
S31508006C109AFD0028E5D128460CA95EF0A6FA2B7C39
S31508006C2077B302211120264A65F084FFD5E90012C0
S31508006C30AB69CDE90121009302211120EB69214AB4
S31508006C4065F078FF0F9906F5697025F0FFFC034695
S31508006C5020B1012111201C4A65F06CFF27B196F876
S31508006C60B233013386F8B233002414E74146184696
S31508006C70D26890470028C8D110240CE703240AE7F5
S31508006C80D5E900121120CDE9002102210F4A65F04D
S31508006C9051FFD7E70B24FEE6BDF864319FED048B60
S31508006CA0ADF820318DF8C8800FE700BFAFF300803C
S31508006CB000000000000000004C9608082053080851
S31508006CC04D5208086D520808E5520808B0520808DF
S31508006CD0BC7F0808000000002DE9F0478AB00DF1D6
S31508006CE00D0301931523064600934FF48072002383
S31508006CF008460C4663F051FAD8B9B37B01220093D3
S31508006D002046002363F0D0F998B9F37B022200935A
S31508006D102046002363F0C8F958B90DF10E03019314
S31508006D201623032200932046002363F036FA05460D
S31508006D3010B10AB0BDE8F08737464FF010090DF1DB
S31508006D40180810220021404672F0D6F80DF10F03FC
S31508006D50019315234FF4807200932046002363F0B5
S31508006D601CFA0028E5D1F27BEBB29A4250D997ED8E
S31508006D70047BC446B7F818A007F11A0307F12A0ED0
S31508006D80624618685968083303C273459446F7D1B2
S31508006D908DED007B04220023204663F060F900286D
S31508006DA0C7D1052200232046CDF800A063F07CF960
S31508006DB00028BED14046494606228DE80300002336
S31508006DC02046CDE9048963F0A4FA0028B1D120460B
S31508006DD09DF90F1063F010FA013530370028A8D155
S31508006DE0032DAED120469DF90E1063F005FA002852
S31508006DF09FD1F388072200932046002363F054F9B5
S31508006E00002896D120469DF90D1063F0F5F990E714
S31508006E1082469FED017BBBE70000000000000000F2
S31508006E202DE9F04F2DED028B06469FED8B8BDFF893
S31508006E303C928B4FADF5217D00F5A07400F5AA684C
S31508006E40444500F00381D4F80031013364D020466C
S31508006E5064F0B8F88207C3B240F1AA8004F1400191
S31508006E6003A864F09DF8542203A918A872F01DF827
S31508006E70542218A92DA872F018F8002354222DA917
S31508006E8042A8CDE90033029372F00FF842A864F0E5
S31508006E9033FA054618B1019B01330193F6E79DF8CD
S31508006EA0183173B301984FEA800A02A851F0F7FE29
S31508006EB050462BF07BFD029018B32B462946019AC3
S31508006EC09A4204D9029A42F823100133F7E751226D
S31508006ED02DA942A871F0E9FF002542A864F00CFA32
S31508006EE0E8B10DF2191072F041F901460DF21910C8
S31508006EF065F0C1F9029B5851029B5B590435002B7A
S31508006F00EBD19DF8003073B901212220554A65F06E
S31508006F1011FE684665F0DEF904F5027490E7012370
S31508006F208DF80030EDE7002542A8CDE94255449595
S31508006F3063F0E1FA9DF8003006F1180A83B3DDF82C
S31508006F4004B044A8CDF80CB151F0A9FE4FEA8B0065
S31508006F502BF02CFD449018B32B462946439A9A42A7
S31508006F6004D9449A42F823100133F7E70025439BD6
S31508006F70AB4212D9029B53F825B0584672F0F6F880
S31508006F800146584665F077F9449B43F82500449B2B
S31508006F9053F8253023B10135E9E701238DF8083187
S31508006FA0504642A963F04EFC42A865F093F9B0E753
S31508006FB043B12D4A0121222065F0BCFD204628F068
S31508006FC035FBA9E7D4F80051012D23D142A865F075
S31508006FD03BF961A85CF0BAFC42A822F011FD61A851
S31508006FE05CF0B4FC204642A964F085F8034620B15B
S31508006FF03A462946222065F09DFD06F1180042A969
S3150800700063F051FBF068002886D0036842A99B68A4
S31508007010984781E7C5B942A865F016F9204642A9FE
S315080070208DED628B8DED648B64F08FF8034620B18D
S315080070303A460121222065F07DFD06F1180062A975
S3150800704063F01EFBB068DEE74A46B3E70DF5217D1F
S31508007050BDEC028BBDE8F08F0000000000000000C8
S315080070602D700808B86F0808EA6F080852700808F3
S31508007070054B18680368996901A3D3E900230847F3
S3150800708000E0373B015D0300701600200000000099
S315080070902A2110B57248ADF5956D029130F026FBA0
S315080070A008B171F080FE029002A96D4830F0D8F957
S315080070B00028F6D1029B2A2BF3D167A3D3E9002334
S315080070C06848CDE9082330F029FB0028E9D10022D9
S315080070D00023644808A9CDE9082330F0E5F900281B
S315080070E0DFD1DDE9080240F6FA035F499A4208BF94
S315080070F08842D6D101215D488DF8071030F0DEFAB6
S315080071000028CED18DF807000DF10701574830F059
S315080071107FF90028C5D19DF80730002BC1D050480B
S3150800712030F0F2F80028BCD14D4803A930F098F9A0
S3150800713040F20124A042B4D14D494E4867F0EEFE14
S315080071400028AED140224B4804AB0AA930F0D4F946
S315080071500028A6D1049B0E2BA3D10F2244490AA8C6
S3150800716071F093FE00289CD14349424867F0D6FE49
S31508007170002896D104AB40223E480AA930F0BCF953
S31508007180049B03438DD19DF82810002989D13948DD
S3150800719067F0C4FE002884D14022364805AB1AA9F8
S315080071A030F0AAF9A0427FF47CAFF1223349344883
S315080071B030F0E6FA00287FF474AF4FF400723048D6
S315080071C006AB2AA930F0E6F900287FF46AAF069ADA
S315080071D0F12A7FF466AF29492AA871F056FE0246BD
S315080071E000287FF45EAF0146254830F0C9FA00282A
S315080071F07FF457AF4FF40072214807ABAAA930F0C5
S31508007200C9F9A0427FF44DAF164830F089F8002836
S315080072103FF447AF154830F083F800283FF441AFF4
S31508007220174830F07DF800287FF43BAF30F0D2F8ED
S3150800723000287FF436AF0B4830F072F800283FF488
S3150800724030AF0A4830F06CF800287FF42AAF0DF505
S31508007250956D10BDAFF30080316EE595FA08000014
S315080072600573080001720800316EE595067308007B
S31508007270DE9A080802730800DD9A0808EC990808DF
S315080072800272080010B5054C237833B9044B13B1C4
S31508007290044800E000BF0123237010BD88BA00200F
S315080072A000000000D0D4080808B5034B1BB10349F9
S315080072B0034800E000BF08BD000000008CBA0020AB
S315080072C0D0D40808A3F5803A704700BF174B002BA7
S315080072D008BF134B9D46FFF7F5FF00218B460F4667
S315080072E01348144A121A71F007FE0E4B002B00D0F1
S315080072F098470D4B002B00D098470020002104002A
S315080073000D000D48002802D00C4800E000BF46F0EA
S31508007310BDF82000290044F005FF45F0A3FE00BF94
S315080073200000080000000000000000000012002015
S31508007330BC19002040EF02200000000000000000F9
S315080073402DE9F043434D89B001AC0FCD0FC495E844
S315080073500700012584E8070001213A2002F038FADF
S315080073603D4F0121292002F033FA3C4B384601A94A
S3150800737003938DF8125003F07DFD2B46294604220F
S31508007380022003F05FFB02212A460846002303F089
S3150800739059FB2B4604220321022003F053FB042247
S315080073A02B461146022003F04DFB2D4C2D4B102683
S315080073B0C4F834374FF00213C4F83037A3F58033D6
S315080073C0C4F838371C2304F50059C4F820374FF49D
S315080073D0487007F0C7FC04F580581420C9F8A06067
S315080073E007F0C0FC2320C8F8A06007F0BBFCB92151
S315080073F03846C9F8A0604BF0E4F9002329461A4636
S315080074000220C8F8A06003F01DFB002302211A46DB
S31508007410084603F017FB2B4600220321022003F03F
S3150800742011FB2B4600220421022003F00BFB3846F1
S3150800743003F0A0FC00212920C4F83417C4F830173B
S31508007440C4F83817C4F8201702F0C2F909B0BDE825
S31508007450F08300BF189D070800C0055000127A0087
S3150800746000C0035002000300BFF34F8F0549064BC7
S31508007470CA6802F4E0621343CB60BFF34F8F00BFC4
S31508007480FDE700BF00ED00E00400FA054FF00063D9
S315080074909A6A02F17841B1F5C04F03D21168074ADA
S315080074A0914203D000230370836070470122027063
S315080074B09A6A926842609B6A9B69F5E707B0CD5E57
S315080074C008B54FF00053024A1A60FFF7CDFF00BF18
S315080074D002020FF073B54F4B04461A781AB102220E
S315080074E01A7002B070BDCDE900220028F9D0012635
S315080074F01E704BF085F8484D484B186049F034FA31
S315080075002B785BB900F0C4FE40B945480823454AC4
S315080075104549006848F0BAFA00B92E70434B5A6ECE
S3150800752062619B6E424AA3614FF480439366414B66
S315080075305968E16140499960196E2160596E616028
S31508007540D3F87011A160196CE160596C21613B494F
S31508007550086C1864496C5964012151661B6E9C04B9
S3150800756041D5374AD368D807FCD4364B1A68531C1A
S315080075703ED04FF480139340334A13664FF400739A
S315080075800426314C266623664AF09FFD01300DD04D
S315080075904AF09BFD40F20113984207D04FF400537E
S315080075A023664FF480432366C4F870610823264C8B
S315080075B0684623664FF4805323664FF000632366BC
S315080075C04FF4002301A963664AF026FD009B236653
S315080075D0019B63662B78002B83D0124B1A682266B0
S315080075E05B6863667DE7194AD368D907FCD4BCE7AC
S315080075F0174B1B78002BC1D14FF400720C4B5A66FF
S3150800760003F5A6235B68002BB8D14FF480120E4B06
S315080076101A66B3E7DE790120DC790120CCBA0020AE
S3150800762018120020C4BA002000710800008000501B
S31508007630009000500080004455CEAC0000C00054B5
S31508007640000004400412002000900044000004508A
S31508007650DD79012070B5224D04462E78012E02D020
S3150800766001232B7070BD0028FCD04AF02EFD013096
S315080076700BD04AF02AFD40F20113984205D0194B67
S31508007680194A5E66D368DE07FCD42268174B1A6669
S3150800769062685A66A268C3F87021E2681A642269A9
S315080076A05A64E269D00744BF00229A60104B1A68F0
S315080076B0013207D10F4A127822B90F494968C9071A
S315080076C048BF1A6062690D4B5A66A2699A6649F004
S315080076D053F90B4B18684AF099FF0023C1E700BF1E
S315080076E0DE7901200090004000000440008000443C
S315080076F004120020DD79012000C0055000800050EA
S31508007700CCBA002070B54FF00064A36A03F1784242
S31508007710B2F5C04F21D21A68124B9A421DD1124EA9
S31508007720337813F0FD0F1BD11048FFF7D3FE012560
S315080077304FF480330E4A0F49C2F88051CB6015606A
S315080077400D4A1361A36ADB69984704460748FFF7A1
S3150800775081FF04B93570204670BD4FF48174FAE78D
S315080077600024F8E707B0CD5EDD790120A4BA002031
S3150800777000E100E000A000440090004413B51F4B50
S315080077801B7803B9FEE700231D4CCDE900336A4692
S3150800779008231C49206848F079F9F0B91A4AD2F842
S315080077A04031D2F840211F2B4FF0010310D9203A5F
S315080077B09340019A1343019308236A4611492068A6
S315080077C048F01AF94FF00053104A1A60FFF74CFEBA
S315080077D09340009A13430093EEE70D4B9842F1D17C
S315080077E0094AD2F84031D2F840211F2B4FF0010345
S315080077F002D9203A9340DEE79340ECE7DE79012090
S315080078001812002000710800008000440B020FF0D7
S315080078100BE000F038B54FF00065AB6A044603F19B
S315080078207842B2F5C04F12D21B6B03F17843B3F519
S31508007830C04F0CD20648FFF74DFEAB6A20461B6BBD
S315080078405B689847BDE838400148FFF703BF38BD75
S31508007850D0BA002013B54FF000640190A36A03F173
S315080078607842B2F5C04F15D21B6B03F17843B3F5D6
S31508007870C04F0FD20948FFF72DFEA36A01211B6BE3
S3150800788001A89B69984704460448FFF7E3FE20468B
S3150800789002B010BD4FF48174F9E700BFD0BA0020DA
S315080078A037B54FF00065CDE90021AB6A044603F110
S315080078B07840B0F5C04F12D21B6B83B10948FFF769
S315080078C009FEDDE90021AB6A20461B6B5B6A984717
S315080078D004460448FFF7BEFE204603B030BD4FF409
S315080078E00174F9E7D0BA002037B54FF00065019169
S315080078F0AB6A044603F17842B2F5C04F15D21B6B4A
S3150800790003F17843B3F5C04F0FD20948FFF7E2FDFC
S31508007910AB6A20461B6B01999B6A98470446044844
S31508007920FFF798FE204603B030BD4FF40174F9E71F
S31508007930D0BA002037B54FF00065CDE90021AB6A13
S31508007940044603F17840B0F5C04F16D21B6B03F11D
S315080079507843B3F5C04F10D20948FFF7BBFDDDE900
S315080079600021AB6A20461B6B9B6B9847044604486C
S31508007970FFF770FE204603B030BD40F20114F9E768
S31508007980D0BA002037B54FF000650191AB6A0446BE
S3150800799003F17842B2F5C04F15D21B6B03F1784359
S315080079A0B3F5C04F0FD20948FFF794FDAB6A2046DE
S315080079B01B6B0199DB6B984704460448FFF74AFEA0
S315080079C0204603B030BD40F20114F9E7D0BA0020D2
S315080079D008B500F02DF8124B12498B4212D300203D
S315080079E0114B12498B4218D3FFF770FC186850F8F0
S315080079F02240586840F82240013298688242F5D3FE
S31508007A000C33EAE70022F8E71C6844F82200013242
S31508007A105C68A242F8D30833E4E70022F8E700BF1F
S31508007A20D8D40808E4D40808E4D40808E4D4080834
S31508007A304FF480414FF0FF3010B5114B114A9A6050
S31508007A40D3F8882042F47002C3F888200E4A91665B
S31508007A500E4901F5005210660D4850660220C3F81B
S31508007A60D000BFF34F8FBFF36F8F01244FF440331D
S31508007A700848C0F88041D36004600B6110BD00BFA0
S31508007A8000ED00E00060000800900050008000440F
S31508007A90F7FF370000E100E0014B1868704700BFA8
S31508007AA00C120020014B1860704700BF0C12002012
S31508007AB0084B1B6F03F00703022B04D0032B05D0DA
S31508007AC0012B05D0FEE7044B18687047034BFBE70C
S31508007AD003487047008000500C1200201012002046
S31508007AE0002D310108B5FFF7E3FF054B1B6FC3F304
S31508007AF003330133B0FBF3F0024B186008BD00BF37
S31508007B0000800050081200200048704700B4C404E2
S31508007B10014B1868704700BF10120020054B18600B
S31508007B20054B1B6F03F00703032B01D1FFF7DABFE1
S31508007B30704700BF101200200080005000487047B0
S31508007B40002D31014FF0B4439868C0F304400C2867
S31508007B5022D8DFE800F00921212121210717192160
S31508007B601B1D1F000F4870479B6803F04073B3F155
S31508007B70807F13D0B3F1007F12D00B4A002B08BFC9
S31508007B8010467047094870470948704709487047C2
S31508007B9009487047094870470020704708487047E9
S31508007BA008487047405DC60000093D000024F400FF
S31508007BB0C0EA210180BA8C010048E801005A620235
S31508007BC080841E0040420F00014B1868704700BFB2
S31508007BD01412002010B40A681378022B11D014204E
S31508007BE03023147913FB040307481B585079C34004
S31508007BF0DB4303F00103137008465DF8044B44F0B9
S31508007C00E3BA5DF8044B704730C0035037B50468D3
S31508007C10012105463A2001F0DBFD002301226179A6
S31508007C20207902F00FFF14223023217913FB012358
S31508007C300E4A9B586279D340DB4303F00103237055
S31508007C40A379022B0ED100F0A9FA2A4608496079D1
S31508007C5000F0CEFA0123024661792079CDE9003396
S31508007C6002F098FE002003B030BD00BF30C00350BC
S31508007C70D57B000802681378022B24D01421302300
S31508007C80107913FB001310495B585179CB40917951
S31508007C9003F00103012912D1508843EA40034FF645
S31508007CA0E07063F03F039BB2834202D111705380A8
S31508007CB070474FF6DF718B42F9D10021F6E711B90B
S31508007CC083F001031370704730C0035010B50122CA
S31508007CD043780178847830209A40054B00FB0133BD
S31508007CE01CB903F501531A6010BD03F58253FAE770
S31508007CF000C0035010B501224378017884783020FB
S31508007D009A40054B00FB01331CB903F582531A60F0
S31508007D1010BD03F50153FAE700C00350012243786A
S31508007D2001789A4030235943014B5A50704700BF97
S31508007D3040F00350102130230246007813FB00134D
S31508007D40054950785B58C34003F0010093780BB996
S31508007D5080F00100704700BF30C003502DE9F04F96
S31508007D609A46554B85B01B7806460F461546DDF8EC
S31508007D703C909DF844B0DDF85080002B00F08C80D4
S31508007D80072A00F28B800E9B002B00F08780B9F142
S31508007D90000F00F08380129BB3F5006F7EDC01288C
S31508007DA002D1109B002B79D0444B03EB05131B7BA8
S31508007DB0002B75D0424C10220021684671F09CF8C1
S31508007DC004EB45141022002F58D13946204671F08D
S31508007DD093F843F210036380BBF1000F03D1E378F5
S31508007DE043F00303E370364A0E9B02EB451CCCE9CD
S31508007DF00193129BCDF800A0013BC3F30A009DF83E
S31508007E004C30690103F003039B0643EA001E5358EE
S31508007E102C48012E00EA03004EEA0003535041D1D4
S31508007E2013230CF1100ECCF80C309CE80F008EE8EA
S31508007E300F006FF00301DCF81C20109B61F39F0212
S31508007E40012FCCF81C20CCF8143003D1CCF81890AC
S31508007E50CCF804300027194A290102EB051342F829
S31508007E600180159A28465A60694622469F605E73C5
S31508007E7002F068FE384605B0BDE8F08F00212046BE
S31508007E8071F03AF84FF444736380BBF1000FAAD13E
S31508007E90E37843F03003A5E70B48ECE70B48EAE73D
S31508007EA00B48E8E7B8F1000FD4D19CF8023068F324
S31508007EB004138CF80230CDE7DF790120F0BA0020F0
S31508007EC070BB00200F80FFF3028000F0018000F0F5
S31508007ED0078000F038B5124B05461B78DBB1E0B1D8
S31508007EE04AF08EFB0F4A00231146147B54B92B60C7
S31508007EF001251A0101EB03131D738C504AF086FB0A
S31508007F00204638BD0133082B02F11002EDD14AF0A4
S31508007F107DFB0548F5E70548F3E70548F1E700BFA7
S31508007F20DF790120F0BA0020048000F0028000F01A
S31508007F30018000F0154B13B51868002301908DF8E1
S31508007F4004304AF05DFB124B1C7824B14AF05EFB04
S31508007F50104802B010BD01221A704AF057FB0E4BAA
S31508007F6001A81C731C7783F82C4083F83C4083F8DF
S31508007F704C4083F85C4083F86C4083F87C400823C7
S31508007F808DF8073002F0ACFD2046E2E7849D07082D
S31508007F90DF790120038000F0F0BA002008B50A4A0C
S31508007FA012785AB107280BD8084A02EB00131B7B34
S31508007FB043B1002102F086FD002008BD0448FCE715
S31508007FC00448FAE70448F8E7DF790120F0BA002008
S31508007FD0028000F0018000F0078000F008B50A4A28
S31508007FE012785AB107280BD8084A02EB00131B7BF4
S31508007FF043B1012102F066FD002008BD0448FCE7F4
S315080080000448FAE70448F8E7DF790120F0BA0020C7
S31508008010028000F0018000F0078000F008B50A4AE7
S31508008020127852B107280AD8084A02EB00131B7BBC
S315080080303BB102F0CFFD002008BD0548FCE7054826
S31508008040FAE70548F8E700BFDF790120F0BA002013
S31508008050028000F0018000F0078000F00D4B1B78CD
S3150800806093B1072812D889B10B4B03EB00131B7B7E
S3150800807073B10A4BDA6A012303FA00F010401ABFFB
S3150800808000200B7008707047054870470548704710
S3150800809005487047DF790120F0BA00200000045037
S315080080A0028000F0018000F0078000F010B50B4A4E
S315080080B00C46127862B107280CD859B1084A02EB67
S315080080C000131B7B43B102F097FD2060002010BD12
S315080080D00448FCE70448FAE70448F8E7DF79012092
S315080080E0F0BA0020028000F0018000F0078000F05E
S315080080F02DE9F843174B1F6D5B6D1F4000D5FEE752
S3150800810001260025144CDFF85480DFF854903742D6
S3150800811017D0C8F8506023689BB1A168284601317A
S315080081206268A1609847637B012B0AD148B909EBBD
S3150800813045131A7B60F341021A731A7F60F34102F2
S315080081401A770135082D4FEA460604F11004DED1E8
S31508008150BDE8F88300000450F0BA0020002004505F
S3150800816070BB002070B5044601250B4E04B970BDDE
S3150800817094FAA4F0B0FA80F005FA00F306EB0012C0
S3150800818024EA03045368002BF0D0117B11B19168DF
S315080081909847EBE79847E9E770BC002008B519202F
S315080081A001F0F8FF28B14FF00072074BC3F88021A1
S315080081B01A601A2001F0EEFF28B14FF08062024BD8
S315080081C0C3F880211A6008BD00E100E038B505460D
S315080081D00C464AF015FA0022044B03EB05135C60C3
S315080081E01A73BDE838404AF011BA00BF70BC0020C7
S315080081F0F8B505460F4616464AF002FA104B05F042
S31508008200FC02D3F824140023EC1804F003041443E6
S3150800821021FA04FC1CF0010F07D00133042BF3D11B
S31508008220FF244AF0F3F92046F8BDFF2CF9D00122C5
S31508008230044B03EB0413C3E901761A73F1E700BF95
S3150800824000C0035070BC0020074BD3F82404D3F8B1
S31508008250202403F50053104000F0553020F050203C
S31508008260C3F82004FFF77EBF00C00350074BD3F8BE
S315080082702404D3F8202403F50053104000F0AA3054
S3150800828020F0A020C3F82004FFF76CBF00C00350FD
S31508008290024B1968024B186847F0D8BA1C1200201E
S315080082A01812002037B5920004460D46019271F067
S315080082B02BFD431C0BD060B929462046019A70F065
S315080082C0E4FD0028044808BF002003B030BD034879
S315080082D0FBE70348F9E700BF10E000F021E000F0F3
S315080082E024E000F010B5044671F006FD431C10D0DA
S315080082F088B902F005FD234620F003002044984281
S3150800830001D1002010BD53F8042B0132F7D00348E1
S31508008310F8E70348F6E70348F4E700BF0EE000F085
S3150800832021E000F024E000F02DE9F0411646002295
S31508008330436390F85C300446884686B080F854203B
S31508008340C663002B36D14FF4406203685A6143690D
S315080083500568092B03D905F12C03443506E00BBF44
S3150800836005F1200305F1240338353C356769A26D0C
S31508008370082F94BF002701270132A265124A216BF4
S31508008380CDE902720122A06A00920494424601963F
S3150800839049F0A2FF00232A46CDE903330093CDE92D
S315080083A00167E16A606A04F1180349F07BFF06B0C9
S315080083B0BDE8F081012BFAD100684AF066F8256815
S315080083C005F13C03C9E700BF4D2405082DE9F04334
S315080083D01E46002389B080F85430109B0446436338
S315080083E090F85C308846C663002B37D14FF440615D
S315080083F00368596143690568092B27D905F12C03D8
S31508008400443567694FF00109082F94BF00270127F3
S31508008410A16DA06A0131A16516490494CDE90271DE
S315080084200196216BCDF8009049F056FF00232A46A5
S31508008430CDE90333CDE901674346E16A606ACDF8C1
S31508008440009049F02FFF09B0BDE8F0830BBF05F196
S31508008450200305F1240338353C35D2E7012BF2D148
S31508008460006807924AF011F82568079A05F13C0357
S315080084704435C6E74D2405082DE9F0431646002283
S31508008480436390F85C300446884687B080F85420E9
S31508008490C663002B38D14FF4406203685A614369BA
S315080084A00568092B03D905F12C03443506E00BBFF3
S315080084B005F1200305F1240338353C3567694FF08B
S315080084C00009082F94BF00270127A26D216B0132EE
S315080084D0A265124AA06ACDE90272049404F1380230
S315080084E00196CDF8009049F0F7FE01232A4600933D
S315080084F0CDE903994346CDE90167E16A606A49F027
S31508008500D1FE07B0BDE8F083012BFAD1006849F027
S31508008510BCFF256805F13C03C7E700BF4D240508E5
S3150800852038B50546B0B1B9B1B2B1B2F5006F13DCD2
S315080085304AF066F895F84C3003F0FF041BB14AF090
S3150800854065F8064838BD012385F84C304AF05EF8D0
S315080085502046F7E70248F5E70248F3E7032000F06C
S31508008560012000F0022000F02DE9F041B64A0B6820
S315080085708EB0934205460C460DF1180803D0B34A4F
S31508008580934240F0D3804746B14ECDF814800FCEC3
S315080085900FC796E80F00103687E80F000FCE01AF19
S315080085A00FC7002D00F08D8184220021284670F027
S315080085B0A3FC2368A44A934240F0958056232B6572
S315080085C04FF470230026DFF8B4C2C5E90BC323684D
S315080085D0A4462B6001232F1D85F85C30BCE80F00EC
S315080085E00FC79CE80F0087E80F00637E012B08BFC2
S315080085F08DF81D30A37E2BB1012B40F08480042317
S315080086008DF81230227EE368012A40F08380914A71
S3150800861093429CBF05238DF8353000238DF8113021
S315080086208D4B01213A20039301F0D2F80121286DE0
S3150800863001F0CEF82369DA1F092A57D8063B8DF8C8
S315080086401030237E2BB9E37EB3FA83F35B098DF8EA
S315080086501C300121284649F08EFE002847D1227A8F
S31508008660237943EA0243720102F1A04101F5703110
S31508008670C1F8AC34637A607940EA0340C1F8A404CF
S31508008680A67AA07940EA0640C1F8A804E37E002B42
S3150800869044D1E07AE37943EA0043C1F89834E37EAB
S315080086A0002B3BD11D23C1F89434206801A902F0A0
S315080086B0B3F849F0A5FF694B1A78002A40F0F6800E
S315080086C001221A7049F0A2FF06F098F9FFF732FC6A
S315080086D0002105F12400FFF7FDFB0146002800F004
S315080086E0E8805F4803E0594A934203D05D480EB0DC
S315080086F0BDE8F08157232B654FF480135A4EC5E920
S315080087000B63012663E7022B3FF47AAF032BEDD107
S31508008710062375E700228DF8342082E702F1A0438C
S315080087201C2203F57033C3F89424BEE746464F4F20
S315080087300FCF0FC697E8070086E80700002D00F060
S31508008740C08084220021284670F0D6FB2268484B58
S315080087509A42CBD129232B654FF480232E462746F0
S315080087604449C5E90B13236846F8043B0FCF0FC6E7
S3150800877097E80F0086E80F00637E012B08BF8DF887
S315080087802630A37E2BB1012B52D14FF40073ADF8DE
S315080087902830237E0121012B03BF00238DF82530C5
S315080087A04FF4E133E3683A20089301F011F8012108
S315080087B0286D01F00DF823691A1F0C2A96D8033B79
S315080087C0414620688DF8243002F054FBA36923F44F
S315080087D07F0323F47F4323B92A68936843F48033DD
S315080087E09360E27E244B002A4AD11D22C3F8202733
S315080087F0217A227942EA0142C3F83827617A6279F6
S3150800880042EA0142C3F83027A17AA27942EA014234
S31508008810C3F83427E17AE27942EA0142C3F8242709
S315080088200121284649F0A7FD00287FF460AF40E7FC
S31508008830022B02D14FF48073A9E7032B7FF456AFBE
S315080088404FF44073A3E700BF0000015B00000A5025
S31508008850AC9D07083F4B4C0040420F00E0790120D1
S31508008860092000F0022000F001001000E09D070832
S3150800887000C005500200040000C0035001000F00AC
S315080088801C22C3F82027217A227942EA0142C3F83A
S315080088903827617A627942EA0142C3F83027A17A19
S315080088A0A27942EA0142C3F83427B9E749F0AEFE95
S315080088B00CE705F12800FFF70DFB00283FF417AF7A
S315080088C00FE7014813E700BF012000F038B504465A
S315080088D090B349F095FE94F84C3005461BB949F01B
S315080088E095FE164838BD237F012B03D104F160009D
S315080088F006F0BEF8A06AFFF791FB606AFFF78EFBE9
S3150800890004F14001A06AFFF7D1FB002384F84C303C
S31508008910012384F85430A36D0949013BA365636BB1
S31508008920A16423B1D4E90F02821A20469847284643
S3150800893049F06CFE0020D5E70248D3E7062000F090
S31508008940072000F0012000F0F7B50E46154604464C
S31508008950C8B1D1B1CAB149F053FE94F84C300746B4
S3150800896063B9236C0193384649F050FE0020E36B47
S31508008970019A9B1A33602A6003B0F0BDA06A01A968
S31508008980FFF794FBEFE70248F6E70248F4E700BF73
S31508008990012000F0022000F0F7B5047F0546012CFF
S315080089A00E46174601930CD0FFF7BAFD044628B9C0
S315080089B03A4631462846019BFFF7B6FC204603B0E7
S315080089C0F0BD014CFAE700BF082000F0F0B51646E6
S315080089D0027F0546012A0F4685B011D01A46039331
S315080089E0FFF79EFD044640B966B10A9A39460092D9
S315080089F028463246039BFFF7E9FC204605B0F0BD42
S31508008A00014CFAE7014CF8E7082000F0022000F0D4
S31508008A10F7B5047F0546012C0E46174601930CD080
S31508008A20FFF77EFD044628B93A4631462846019B9B
S31508008A30FFF722FD204603B0F0BD014CFAE700BF60
S31508008A40082000F038B141B1013AB2F5006F044888
S31508008A5038BF00207047034870470148704700BF79
S31508008A60037000F0027000F090F83530022B0DD13B
S31508008A7014223023417F90F8210013FB0123044A76
S31508008A809B5823FA00F000F0010070470020704759
S31508008A9030C00350002313B51D4A52F8044B94F80E
S31508008AA0211081420ED00133042BF6D102B010BD3D
S31508008AB00028FBD19DF80730002BF7D0A068FFF7F8
S31508008AC06DFAF3E794F83530022BEFD12046FFF71D
S31508008AD0CBFF637E2076022BE8D194F8323003F080
S31508008AE0FF02002BE2D1A0680DF107018DF80720DF
S31508008AF0FFF7B4FA237E1BB194F83330002BD7D096
S31508008B000023A06884F83330FFF768FACEE700BF81
S31508008B1060C5002030B51049104A0B782BB9C2E958
S31508008B200033C2E9023301230B700C4C00232146A3
S31508008B3051F8045B854208D00133042BF8D1002193
S31508008B4054F8043B1BB942F82100002003E0013128
S31508008B500429F5D1024830BDE179012060C500201D
S31508008B60027000F010B50446FFF7E4F9002104F19D
S31508008B700800FFF7AFF9014620B904F10C00FFF72A
S31508008B80A9F900B1004810BD0E7000F010B590F8B4
S31508008B90363004466BB9042203685A610268936941
S31508008BA09907FCD523790C4AB9335B0110219950F2
S31508008BB010BD022BFCD10068836CDB074CBF052176
S31508008BC0062149F062FD237941F294425B0103F1E3
S31508008BD0A04303F57033E9E700C00350F8B507462C
S31508008BE00D461646FFF72EFF00286BD1152001F01B
S31508008BF0DFFA0446FA6A93889BB213B197F83230C3
S31508008C00E3B197F83630F3B93B689C6904F002047F
S31508008C101CB93846FFF7BAFF0024012387F8343019
S31508008C2097F83630CBB92E44B542386810D18369E7
S31508008C309A06FCD51CB300242046F8BD002CDAD0D1
S31508008C40FFF756FAD6E7022BE3D13B689C6CDDE7C3
S31508008C5015F8011B49F0BFFDE6E7022BEAD12E44C1
S31508008C60B542386806D142F22003826C33EA020222
S31508008C70FBD1DFE715F8011B49F00CFDF0E797F883
S31508008C80363053B910213B790F4A03F239135B0189
S31508008C90D15008223B685A61CEE7022BCCD13868FE
S31508008CA0836CDB074CBF0921214649F0EEFC42F2F2
S31508008CB0944210213B795B0103F1A04303F570331D
S31508008CC09950B9E70446B7E700C0035010B5044603
S31508008CD080B190F832302BB9FFF7C6FE10B9A068FC
S31508008CE0FFF75CF9002094F832300133DBB284F8E0
S31508008CF0323010BD0048FCE7027000F010B504469B
S31508008D00A0B190F832309BB190F83230012B05D1E2
S31508008D10FFF7AAFE10B9A068FFF760F9002094F8DB
S31508008D203230013BDBB284F8323010BD0148FCE733
S31508008D300148FAE7027000F0057000F037B590F8C0
S31508008D4035500446022D1DD1012290F82230457E69
S31508008D50817F9A403020164B25B900FB013303F575
S31508008D60015305E0012D07D100FB013303F58253BA
S31508008D701A60002003B030BD247E00FB0133002CAE
S31508008D80F4D1ECE7012DF4D1037E73B911238DF8E4
S31508008D900730FFF79BFF2A4620460DF10701FFF72C
S31508008DA01DFF2046FFF7AAFFE3E71323EFE700BFFF
S31508008DB000C003502DE9F0430546754F89B001AE52
S31508008DC00C460FCF0FC697E8070086E80700002D68
S31508008DD000F0DC8024B96F4E304609B0BDE8F08358
S31508008DE060220021284670F087F82846FFF792FE91
S31508008DF006460028F0D1237D85F83530236885F8A6
S31508008E0036002B60237B2B712268634B9A42E2D192
S31508008E1029236B624FF4802360498146C5E9041310
S31508008E20D4E90723AA621080AA6A01215080AA6A97
S31508008E305B4F908085F83000EB621880EB6A5880AB
S31508008E40EB6A988085F8310085F8330063683A2024
S31508008E500393E389ADF81430238AADF81230A37C66
S31508008E608DF81030E37C8DF8163005238DF8113017
S31508008E7000F0AEFC0121686A00F0AAFC206801A98E
S31508008E808DF8046001F098FF1422237B28463933B5
S31508008E905B01FA50A17A237B227A07EB431342EA55
S31508008EA00142C3F83827E17A237B627A07EB43133A
S31508008EB042EA0142C3F83027237A0121EB76A37AE6
S31508008EC0EB77637A2B77E37A85F82030637D6B77C7
S31508008ED0A37D85F82130E37DAB77237E85F82230A4
S31508008EE049F0DEFA064600287FF476AF49F088FB9B
S31508008EF0237D8046032B37D10222237BB9335B01BE
S31508008F00FA500422236803F58053DA65217EE27D50
S31508008F10237B42EA014241F22C7107EB43135A5074
S31508008F20227BA17D07EB421741F22872637D43EA53
S31508008F300143BB504FF0FF32236803F500539A6490
S31508008F40237D2068032B0CBF0521042149F02AFC48
S31508008F504FF44062236828465A61FFF703FE064627
S31508008F60404649F053FB37E7022BE3D195F8210039
S31508008F700C49FFF72BF9FFF711F94FF40073284650
S31508008F802B8385F81A90FFF7D9FED3E7064E23E719
S31508008F90FC9D0708037000F000C00550020004009D
S31508008FA000C00350958A0008027000F02DE9F041D0
S31508008FB004468CB0884F04AE0D460FCF0FC697E80F
S31508008FC00F0086E80F001022002168466FF094FF14
S31508008FD0002C00F0FE8025B9804E30460CB0BDE866
S31508008FE0F0816022002120466FF086FF2B6820461C
S31508008FF02360022384F836302B7C2371FFF78AFD21
S3150800900006460028E9D12B7F754A84F835302B6847
S31508009010934240F0B88056236362724B23614FF443
S31508009020702363610123ADF80630002384F83160AC
S3150800903084F83060D5E90912A1620B80A16A3A204A
S315080090404B80A16A684E8B8084F83030E2621380C8
S31508009050E26A01215380E26A938084F8313084F809
S31508009060333002238DF81D30AB6806936B8AADF852
S315080090702030AB8AADF81E30AB7D8DF81C30AB695D
S315080090800993CDF82CD000F0A3FB0121606A00F00B
S315080090909FFB2B79002B00F081800121362000F000
S315080090A097FBD6F8203223F0070343F00303102278
S315080090B0C6F820322B7C4D4F204607EB4313C3F8E6
S315080090C09424A97B2B7C2A7B07EB431342EA0142B3
S315080090D0C3F8AC242B7CE97B6A7B253342EA014240
S315080090E007EB43135A602B7B0121E376AB7BE377CF
S315080090F06B7B2377EB7B84F820306B7F6377AB7FC2
S3150800910084F82130EB7FA37795F8203084F8223055
S3150800911049F0C6F9064600287FF45FAF49F070FAB1
S315080091202A7F8046032A40D141F2944102202B7CB3
S3150800913007EB431358502B7C95F82000E97F07EB83
S31508009140431341EA004103F5A5531960297CA87F1A
S3150800915007EB411741F29C416B7F43EA00437B5082
S315080091608DF8002006238DF810302B79286804A97D
S3150800917063B349F098FA2046FFF7F4FC06464046E2
S3150800918049F044FA29E71A4A93427FF425AF572350
S315080091906362184B23614FF4801342E7D6F82032F6
S315080091A023F0070343F0010381E7022ADAD194F892
S315080091B021001149FFF70AF8FEF7F0FF4FF4007394
S315080091C020462383A676FFF7B9FDCBE749F067FA71
S315080091D0D1E70A4E01E700BF189E0708037000F0A2
S315080091E00000015B01000F000080005000C0035022
S315080091F000000A5001001000958A0008027000F06D
S31508009200044BD3F88420D206FBD4D3F88400C0F3E9
S3150800921081107047004000502E4B98424AD022D801
S315080092202D4B984240D014D82C4B984239D00AD8A6
S315080092302B4B984232D02B4B98422FD02A4B984230
S315080092402CD000207047294B9842FAD1284B186F2A
S315080092507047284B98422AD0274B9842F1D1244B85
S31508009260D3F880007047254B98422BD009D8244B59
S31508009270984223D0234B9842E3D11D4BD3F88C0058
S315080092807047214B984221D003F5740303F5105318
S315080092909842D6D1164BD3F898007047144B986D60
S315080092A07047134B586E7047114B586F7047104BE9
S315080092B0986F70470E4BD3F8840070470C4BD3F861
S315080092C0880070470A4BD3F890007047084BD3F8CC
S315080092D0940070470048E8010024F400C0CF6A00F3
S315080092E080841E0000093D0040420F00405DC60014
S315080092F00080E00FC0EA210180BA8C01007E560387
S3150800930080D54302006CDC020090D00338B5104BC0
S315080093100546D3F880300C4603F00303022B0BD026
S31508009320032B0DD0012B0FD1FEF7C2FB0E2305B17F
S31508009330286004B1236038BDFEF704FC0723F6E76E
S31508009340FEF7AAFB0623F2E700231846EFE700BF5D
S315080093500080005038B5184B0546D3F820010C4656
S3150800936000F00700062805D8DFE800F0230B0F17E2
S31508009370131B1F000023184605B1286004B123609B
S3150800938038BDFEF789FB0523F6E7FEF7C1FB032385
S31508009390F2E7FEF7D7FB0723EEE7FEF7CFFB02233C
S315080093A0EAE7FEF779FB0623E6E7FEF7B1FB0423B7
S315080093B0E2E70123E0E700BF0080005038B5174B0D
S315080093C00546D3F828310C4603F00703013B052B65
S315080093D020D8DFE803F003131B0F0B17FEF75CFB1F
S315080093E0052305B1286004B1236038BDFEF754FB98
S315080093F00623F6E7FEF7A6FB0723F2E7FEF788FB48
S315080094000323EEE7FEF784FB0423EAE7FEF796FB61
S315080094100223E6E700231846E3E700BF0080005072
S3150800942073B50D460021114B0191D3F880410646CC
S3150800943004F00304022C13D0032C0CD0012C13D1F6
S3150800944001A8FFF787FF10240EB1019B336005B111
S315080094502C6002B070BDFEF775FB07240190F3E798
S31508009460FEF76CFB0190EFE70C46EDE70080005035
S31508009470002337B50193164B0546D3F820320C4620
S3150800948003F00703042B04D8DFE803F0200B1116BA
S315080094901B0000230DB1019A2A6004B1236003B0B2
S315080094A030BD002101A8FFF789FF1223F2E7FEF776
S315080094B049FB07230190EDE748F0A0FE0A23019037
S315080094C0E8E7FEF781FB09230190E3E70123E1E7DB
S315080094D00080005038B5104B0546D3F840310C468D
S315080094E003F00303022B0BD0032B0DD0012B0FD156
S315080094F048F084FE0A2305B1286004B1236038BD0C
S31508009500FEF762FB0923F6E748F07BFE0C23F2E739
S3150800951001230020EFE700BF00800050002337B585
S315080095200193164B0546D3F860320C4603F0070341
S31508009530013B032B1FD8DFE803F0020E19140021A4
S3150800954001A8FFF707FF10230DB1019A2A6004B19D
S31508009550236003B030BD002101A8FFF7BBFF11232C
S31508009560F2E7FEF7EFFA07230190EDE7FEF7E6FAD2
S3150800957002230190E8E70023E6E700BF00800050D9
S31508009580002337B50193164B0546D3F894320C469B
S3150800959003F00703013B032B1FD8DFE803F0020E95
S315080095A01914002101A8FFF7D5FE10230DB1019A61
S315080095B02A6004B1236003B030BD002101A8FFF77B
S315080095C089FF1123F2E7FEF7BDFA07230190EDE7BD
S315080095D0FEF7B4FA02230190E8E70023E6E700BFA6
S315080095E00080005038B5144B0546D3F800020C46E7
S315080095F000F00700042804D8DFE800F01B0A0E1262
S3150800960016000023184605B1286004B1236038BD4A
S3150800961048F0F4FD0A23F6E7FEF7D6FA0923F2E73F
S3150800962048F0EFFD0C23EEE7FEF75CFA0F23800AFD
S31508009630E9E70123E7E700BF0080005038B5144B7F
S315080096400546D3F808020C4600F00700042804D89B
S31508009650DFE800F01B0A0E1216000023184605B1B3
S31508009660286004B1236038BD48F0C8FD0A23F6E730
S31508009670FEF7AAFA0923F2E748F0C3FD0C23EEE742
S31508009680FEF730FA0F23800AE9E70123E7E700BF70
S315080096900080005038B5104B0546D3F840320C46CA
S315080096A003F00303022B0BD0032B0DD0012B0FD194
S315080096B048F0A4FD0A2305B1286004B1236038BD2B
S315080096C0FEF782FA0923F6E748F09BFD0C23F2E73A
S315080096D001230020EFE700BF0080005038B5104B8B
S315080096E00546D3F860310C4603F00303022B0BD072
S315080096F0032B0DD0012B0FD148F080FD0A2305B1AD
S31508009700286004B1236038BDFEF75EFA0923F6E740
S3150800971048F077FD0C23F2E701230020EFE700BFAE
S3150800972000800050B0F5207F1FD009D8B0F5007F23
S3150800973015D003D868B1B0F5C07F0AD000200CE078
S31508009740B0F5607FFAD10B4BD3F88000C0F3011057
S3150800975003E0084B186FC0F3033001307047054B20
S31508009760D3F89000C0F30460F7E7024B186FC0F314
S315080097708020F2E70080005002464FF48030104BFC
S3150800978010B598660020FFF7CDFF504341F67132B9
S315080097900C4BDC69DA635A6804F4803422F440120C
S315080097A059B9094988428CBF4FF4801000201043EC
S315080097B058600CB10022DA6310BD0449F2E700BF15
S315080097C00090005000000350005A6202002D31013B
S315080097D0430905D0012B0DD0022B094B18BF0023D6
S315080097E000F01F0041B103F58053012202FA00F090
S315080097F018607047034BF3E703F50053F5E700BF1E
S3150800980068800050648000501FB5002180280446F7
S31508009810CDE9001100F0A58035D85E2846D85E2827
S3150800982044D8DFE800F0A24343434343434343435A
S3150800983043434343434343434343434343434343EA
S31508009840434343434343A2AAA2AAB9B9B9B9B9AA99
S31508009850C34DD9714DAAAAAA43434343434343433D
S31508009860AAAAAA79E3AA4343434343434343434348
S31508009870434343B9A2A2A2DE4D4DE8885EBE4343E8
S3150800988043434399A200B0F5B06F00F08F802DD8FE
S31508009890B0F5207F71D00CD8B0F5C07F65D0B0F593
S315080098A0007F65D0B0F5807F00F08580009804B011
S315080098B010BDB0F5607F6AD00DD8B0F5407FF5D100
S315080098C0FEF710F902464FF42070FFF72BFFB2FBA4
S315080098D0F0F0400847E0B0F5806F5DD0B0F5A06FB6
S315080098E0E4D100216846FFF7C3FDDFE7B0F5106F46
S315080098F077D016D8B0F5E06F78D00AD8B0F5C06F33
S315080099006AD0B0F5D06FD1D100216846FFF76AFE5C
S31508009910CCE7B0F5F06FC9D100216846FFF7DEFE47
S31508009920C4E7B0F5406F3CD013D8B0F5206F62D0CD
S31508009930B0F5286FBAD10021314B0391D3F87032B4
S3150800994003F00303012B02D103A8FFF7C3FD039B12
S315080099503BE0B0F5486FA9D100216846FFF710FE35
S31508009960A4E7FEF7A5F80090A0E7FEF7BBF8FAE72C
S31508009970FEF79EF80246204604E0FEF7B3F80246D4
S315080099804FF42070FFF7CEFEB2FBF0F0EBE701A82C
S31508009990FFF7BCFC019AEEE700216846FFF7DAFC00
S315080099A084E700216846FFF709FD7FE7002168463E
S315080099B0FFF736FD7AE74FF0E02302911B695B0754
S315080099C005D5FEF78FF80290029B00936EE703A970
S315080099D002A8FFF77FFDF7E700216846FFF77AFD43
S315080099E064E700216846FFF729FE5FE7002168461D
S315080099F0FFF750FE5AE700216846FFF78FFD55E747
S31508009A000080005008B58020FFF7FEFE034B984201
S31508009A109EBF4FF48032024B1A6708BD005A620295
S31508009A2000A000501FB50023B0F5807F019300F019
S31508009A30C38064D85D2855D84C2807D82D2847D820
S31508009A4023282BD8019805B05DF804FB4D3810285B
S31508009A50F8D801A353F820F0AF9B0008459A0008F0
S31508009A60459A0008459A0008619B0008459A00082F
S31508009A70459A0008359C00087F9B0008259B00082E
S31508009A802B9C0008459A0008459A0008459A000844
S31508009A90459A0008459A00083F9C0008243809287A
S31508009AA0D0D801A353F820F0AF9B0008AF9B00085D
S31508009AB0AF9B0008AF9B0008AF9B0008459A0008BB
S31508009AC0A59B0008459A0008419B0008E59B0008ED
S31508009AD03D2800F082803E28B4D1002001A9FFF776
S31508009AE0D9FDAFE78028ADD15A4B1B6F03F00703AA
S31508009AF0013B032BA6D8DFE803F05350878FB0F558
S31508009B00F06F6AD021D8B0F5B06F4BD00FD8B0F54A
S31508009B10607F00F0858095D3B0F5806F47D0B0F5AB
S31508009B20A06F8FD1002001A9FFF7A2FC8AE7B0F544
S31508009B30D06F57D0B0F5E06FCFD0B0F5C06F81D1F8
S31508009B40002001A9FFF7C6FC7CE7B0F5206F71D0AD
S31508009B500BD8B0F5086F4AD0B0F5106F7FF472AF26
S31508009B60002001A9FFF76AFD6CE7B0F5406F5CD0ED
S31508009B70B0F5486F63D0B0F5286F7FF463AF002166
S31508009B80344B0391D3F8703203F00303012B5BD0F7
S31508009B90022B14BF0B46152300E00523019351E75A
S31508009BA00223FBE7002001A9FFF73AFC4AE7002059
S31508009BB001A9FFF7CFFB45E702934FF0E0231B69A6
S31508009BC05B0705D5FDF78EFF0D230393039BE5E79A
S31508009BD003A902A8FFF77EFCF8E7002001A9FFF712
S31508009BE07DFD2FE7002001A9FFF7FCFC2AE7194BAA
S31508009BF0D3F8003103F00303022B07D0032B09D057
S31508009C00012B0BD1FDF784FF0323C7E7FDF7DCFF24
S31508009C100923C3E748F0F0FA0823BFE70123BDE7A5
S31508009C20184601A9FFF772FB0CE7002001A9FFF708
S31508009C30C5FB07E7002001A9FFF770FC02E7002033
S31508009C4001A9FFF79DFCFDE603A8FFF743FC1123D6
S31508009C50A4E700BF0080005038B504468020FFF70F
S31508009C60E1FE032800F08A804FF48012544B4FF02F
S31508009C70A0615A6645F60E03524AC2F88030524B26
S31508009C8099624FF4803103F580539962936DD90335
S31508009C90FCD4916D11F08041FBD1D4E900031B057A
S31508009CA043EA0063E07B0343207B43EA0043607B8F
S31508009CB043EA0033A07B43EA801313619069D4E931
S31508009CC004531B0643EA856300F000400343A07E65
S31508009CD00343207E43EA0043607E43EA0023936100
S31508009CE0136AE269E57E002A0CBF0020082023F0EB
S31508009CF00F03134343EA8503324A03431362E369B6
S31508009D00324D002B3BD194F82430916A94F8200008
S31508009D10DB000D4043EA401394F821102B4343EA35
S31508009D20011343F480339362294B916D33EA0101A1
S31508009D30FBD14FF08071244881621369A56823F42A
S31508009D40700343EA055313614FF00043836194F8A7
S31508009D5022300BB91F4B996294F823303BB94FF464
S31508009D6080321C4B9A62174A936D5B00FCD494F8B8
S31508009D7025301BB1134B184AC3F8802038BD022B77
S31508009D8008D11161154891614FF408524FF47F418B
S31508009D9048F0F6FB0B4994F822308A6A94F82000BA
S31508009DA01B06154043EA401394F824202B4343EA44
S31508009DB0C20394F8232043EA02438B62D7E700BF25
S31508009DC0009000500040005A0050005AC7FFFEFE9F
S31508009DD0030001000060005AF1A7FFFF3440005A53
S31508009DE0014B93F900007047381700204FF4000123
S31508009DF01B4A437810B551664FF4D151022402F537
S31508009E00B832516217494F2B4C604FF0010428BFF6
S31508009E104F2301F580514C601169C903FCD40178C0
S31508009E2043EA01235361D0E901131B0143EA0123E5
S31508009E30417B0B43017B43EA41039360C37B817BF0
S31508009E401B0143EA4113417C0B43017C43EA41036E
S31508009E505360837C13B16FF4D153536210BD00BFB6
S31508009E600090005000100250014B1880704700BF48
S31508009E7022170020014B1880704700BF20170020CA
S31508009E80B0F5207F10B50C4657D008D8B0F5007F3E
S31508009E9048D003D830B3B0F5C07F23D010BDB0F595
S31508009EA0607FFBD129492A48D1F8FC2012F080723C
S31508009EB01EBFD1F8FC3023F08073C1F8FC30D0F80F
S31508009EC08030611E23F0300444EA0114C0F8804053
S31508009ED0002AE3D01D4AD2F8FC3043F08073C2F85A
S31508009EE0FC30DBE748F05DFB48F069FB4FF4803156
S31508009EF0184B174A1967136F611E23F4704444EA16
S31508009F0001341467FDF7EEFD0446FFF779F9C0F151
S31508009F100201204648F04DFB00F02EF8BDE810403F
S31508009F20FFF770BD0A4A0139D2F8903023F0F85489
S31508009F3044EA0164C2F89040B0E7054B013C196F4A
S31508009F4021F4806141EA84241C67A7E700ED00E05C
S31508009F50008000500090005008B50121022000F052
S31508009F6063F948F01EFB48F02AFB4FF48032014B98
S31508009F701A6708BD0090005008B54FF4C070FFF787
S31508009F8043FCBDE80840044988428CBF02210121F0
S31508009F904FF42070FFF774BF80F0FA024FF4C02226
S31508009FA001212DE9F04105466A4B5A666A4A03F5CE
S31508009FB098335C6851605E6816F00206FBD1FFF7BD
S31508009FC01FF90128286805D1644B984202D9002058
S31508009FD0BDE8F081624A002311461768B84202D3E9
S31508009FE05768B84205D90133192B02F11002F4D18A
S31508009FF0002301EB0313D3E9028028B1FFF70CF91C
S3150800A00000F07F0048EA00088020FFF70BFD0528CE
S3150800A0105FD148F0C6FA48F0D2FA4FF480324D4B79
S3150800A0204FF4C0701A67FFF77DFB012806464CD12E
S3150800A03002214FF4C070FFF723FF01274948C16882
S3150800A04011F00601FBD1D0F808C0C0F80880836873
S3150800A05008F4F81203F4F8139A424ED1AA88EB884A
S3150800A06043EA0243404AD360AB68032B33D1A2F5D7
S3150800A070A032D2F8003123F0030343F00103C2F8FB
S3150800A08000312B7D287B002B6B7D14BF0422002218
S3150800A090002B18BF40212B694FF0000843EA400304
S3150800A0A01343314A0B4393602868FDF7FBFC0722EC
S3150800A0B0294B1A610122A3F580535A60A3F58053F0
S3150800A0C01C6914F00704FBD01EE0022801D1042104
S3150800A0D0AFE70027B2E7092B07D1244AD2F80031A7
S3150800A0E023F0030343F00203C9E7082BC9D11F4A2B
S3150800A0F0D2F8003143F00303C1E714F001044FF02E
S3150800A1000108C0F808C0D2D18020FFF78BFC0528CB
S3150800A11017D127B131464FF4C070FFF7B1FEFDF7EE
S3150800A120E1FC0546FDF7B8FCFDF7B6FCFFF768F855
S3150800A130C0F10201284648F03CFAFFF71DFFFFF779
S3150800A14061FCB8F1000F7FF442AF631E58425841D4
S3150800A1503EE700BF0090005000E00150005A62023E
S3150800A160389E07080000015000C0015000800050CA
S3150800A1700028ABBF00F16040054B00F5614000F0D8
S3150800A1800F00ACBF90F80003185C0009704700BFC9
S3150800A19014ED00E0054B420953F8223000F01F0089
S3150800A1A023FA00F0C04300F00100704700E100E028
S3150800A1B0014608B5EFF31083DB0702D501221046E6
S3150800A1C008BDFFF7E7FF02460028F7D10846FFF764
S3150800A1D0CFFF0146EFF3118313B1B0EB131FEDD296
S3150800A1E0074B5B68C3F30803002BE8D0103B58B253
S3150800A1F0FFF7BEFF88428CBF00220122DFE700BFBF
S3150800A20000ED00E0024A536B0342FCD1704700BFE1
S3150800A21000400950034A0179D36E23F030030B43FB
S3150800A220D366704700400050F8B504461C4BD3F877
S3150800A2308420D106FBD4D3F88430C3F381139C421F
S3150800A2402CD0FDF735FC012C064602D1214648F0F4
S3150800A250B0F948F0CEF94FF00072124B07465A662D
S3150800A260204648F0D6F94FF480630D4D621E9340A0
S3150800A2702B676B6E9A0103D4D5F884309B060AD5F2
S3150800A280384648F0BAF9022C08D13046BDE8F840FD
S3150800A290002148F08EB9D5F88430EAE7F8BD00BF4A
S3150800A2A0004000500060005007B518B90191FDF74D
S3150800A2B0FFFB0199064B1B7843B1064B984205D81C
S3150800A2C0012003B05DF804EBFFF7AEBF0220F8E704
S3150800A2D0E2790120005A62024FF0004238B5284B55
S3150800A2E028495A664AF6CD334D6C044605F00105F1
S3150800A2F00B6460BB0120FFF785FF4B68DA0708D4BB
S3150800A300002415B11F4B204A1A646FF0A4FC20469E
S3150800A31038BD1E4B586020461D4C0B6BDB0706D418
S3150800A320A04202D14FF0FF34EBE70130F5E7A04237
S3150800A3304FF0FF3418BF0024E3E701320B6B13F02C
S3150800A340080307D08242F8D16FF00104D9E700224A
S3150800A3500F48F3E78242F7D020210C4A9162012187
S3150800A360A2F5805251600749094A886A800603D4D3
S3150800A3709342E9D00133F8E79342C1D1E4E700BF3D
S3150800A38000900050004009503254FFFF0060095009
S3150800A39040420F004FF0004238B5164B01465A6648
S3150800A3A04AF6CD33144C154A656C236443780B2062
S3150800A3B05B0043F00103D363FFF724FF63688A78E1
S3150800A3C023F4F87343EA02136360CA784B7943EAC5
S3150800A3D00223A3600A798B7943EA0223236108786A
S3150800A3E0FFF77AFFEB0744BF054B23646FF033FC96
S3150800A3F0012038BD00900050004009500040005030
S3150800A4003254FFFF4FF0004270B5124B04465D6EA2
S3150800A41003F580535A664AF6CD330F4980204E6CB1
S3150800A4200B64FFF7EFFE0B6A23F00F030F2C94BFA4
S3150800A430234343F00F030B62F30744BF074B0B6438
S3150800A440002DA2BF4FF00042054B5A666FF003FC81
S3150800A45070BD00BF00800050004009503254FFFF15
S3150800A46000A0005010B548F0D9F8042300F5805133
S3150800A47000F500520B6113610B6113610B611361E7
S3150800A4800B611361202341F2020103610023C360BB
S3150800A490836041614FF4A021836183654162054968
S3150800A4A0C36103628362C36243630365D164036362
S3150800A4B010BD00BFFF3F0D03F8B505461446084614
S3150800A4C041B9344B9D422FD0334B9D4208BF57208C
S3150800A4D0FFF79AF9AB68DE072ED5B0FBF4F46E6881
S3150800A4E0013C16F0010625D02821284648F092F8A6
S3150800A4F0AB6C99071AD1AB6CDA0719D4AB6C13F0AD
S3150800A500020F0CBF00270627284648F087F8286957
S3150800A51020F07F4040EA04642C61DEB139462846C3
S3150800A520BDE8F84048F0B1B85620D1E70527EBE773
S3150800A5300927E9E73746EAE76B68AB6DAF68DB07DB
S3150800A54007F0E00748BF6400402F1BD003D8DFB1EF
S3150800A550202F1BD0F8BD602F1AD0802FFAD10126E4
S3150800A56004FB06F34101B1FBF3F30C4A203B02EA74
S3150800A570C3022846012148F04DF82A63BDE8F84091
S3150800A58048F048B80626EBE71026E9E70826E7E785
S3150800A5900426E5E70000015B00000A50F8FF7F008B
S3150800A5A0F8B51E46436804460D4617461BB140F6E5
S3150800A5B0FF7148F02FF82046FFF754FFE9896B7BB7
S3150800A5C062690B43298A22F44C520B4322F00F028C
S3150800A5D013436361A368297B2A7E23F0804323F013
S3150800A5E0E203114319436B691943A160AB681BB9B0
S3150800A5F0A36843F00043A360EA69002A6BD0A36806
S3150800A600127A43EA8253A360EA69A368927A43EA14
S3150800A6104243A360EB69A2689B8803F4C0431343D3
S3150800A620A360EA69A368527843EA8203A360EA69E9
S3150800A630A368527B43EAC203A360EA69A368927BD4
S3150800A64043EA0213A360EA69A368927843EA82237D
S3150800A650A360EA69D37991795B0243EA8123E360CF
S3150800A660EB69674A1B7803F0FD03012B02BFE36819
S3150800A67043F00403E360EB691B78023B012B614B53
S3150800A6807AD8944276D0604A94420CBF01224FF0A1
S3150800A690FF3203EB421341F2944202219950EB69CF
S3150800A6A05A7A04F580539A62EB695B7A1BB1E368C0
S3150800A6B043F40063E360EB69DB7A63B1E36843F470
S3150800A6C00043E3604E4B9C4265D1EB694F4A1B7BC6
S3150800A6D003F00F0353673FB197F8203004F5805015
S3150800A6E0002B63D001230362002E30D02B7E04F5A5
S3150800A6F0805013B14FF40043836596F82120404BF0
S3150800A700102A434961D89C425DD03F4B9C420CBFFE
S3150800A71001234FF0FF330127CF54768C3849B6F51D
S3150800A720006F3C4B5FD88C425BD037498C420CBFDC
S3150800A73001214FF0FF3101275F54A36D324323F403
S3150800A740F95323F01E031343A365012383650521EB
S3150800A750204647F07DFFAA6812B16968FFF7ACFE8C
S3150800A7602046297847F091FFA36CDB4313F4405F3A
S3150800A770FAD1F8BD00228CE794420AD0224A9442C4
S3150800A7800CBF01224FF0FF3203EB421342F2944210
S3150800A79083E70022F8E71C4B9C429CD1EB691B4AD5
S3150800A7A01B7B03F00F03C2F8803094E7E36997F840
S3150800A7B0221097F8212023F009030A431A4342F08E
S3150800A7C00102C26190E70023A5E79C4207D00E4B21
S3150800A7D09C420CBF01234FF0FF3302279CE700235E
S3150800A7E0FBE70021A7E78C4207D007498C420CBF3C
S3150800A7F001214FF0FF3102279EE70021FBE700BF4A
S3150800A8000000015B00C0035000000A50009003508E
S3150800A810E5790120E379012070B5436804460D46C1
S3150800A8200E691BB140F6FF7147F0F4FE2046FFF7AC
S3150800A83019FE22696B7BA97B22F087020B4313431F
S3150800A84043F0800323611EB32A692369117823F034
S3150800A850F8030B43117F43EAC113117943EA411305
S3150800A860517AD27B43EA011343EA82132361E268F1
S3150800A870296922F0F04222F47022D1E90530034317
S3150800A88013430A7B43EA82234A7B43EAC233E360E3
S3150800A890A368EA7B23F00303134343F00103A36091
S3150800A8A03EB32B69A2685B8803F4C0431343A360D5
S3150800A8B02A69A368527943EA8223A3602969626AEE
S3150800A8C08B79C8791B01000203F0700300F4E0607D
S3150800A8D022F4772222F4EE62034313430A7A120320
S3150800A8E002F4E04213434A7F120402F4702213432F
S3150800A8F0636263692A7B23F00F0313436361C6B15E
S3150800A9002B695B89A3612B695A7B3AB11E4A94422B
S3150800A91025D19B7B1D4A03F00F0353672B69DA7B0E
S3150800A9203AB1194A944225D11B7C184A03F00F0301
S3150800A9301367D5E901122046FFF7BEFD052120461B
S3150800A94047F086FE282147F065FE2B78A36347F07B
S3150800A95061FEA36CDB4313F4405FFAD170BD0C4A69
S3150800A960944201BF9B7BA2F5CE2203F00F03C2F8E7
S3150800A9708030D3E7064A944201BF1B7CA2F5CE225B
S3150800A98003F00F03D367D4E70000015B0090035080
S3150800A99000000A50072AF7B501F0030614461F46B9
S3150800A9A04FF003012CD89500A94000FA05F21C487F
S3150800A9B0019147F07AFE01991A4806FA05F247F01E
S3150800A9C074FE194B19499DF82000002F08BF194637
S3150800A9D0012303FA04F40C60154B1649002808BF36
S3150800A9E00B461C60144B1031C3F820449DF8240014
S3150800A9F0A3F6DC33002808BF0B461C6003B0F0BD85
S3150800AA00A2F10805AD00A94000FA05F20B4801912C
S3150800AA1047F04BFE01990A4806FA05F2CFE700BF50
S3150800AA2000C4035008C4035010E4035010D4035064
S3150800AA3014D4035014E4035000E0035004C4035034
S3150800AA400CC403502DE9F04105460F461E469046B4
S3150800AA504AB101233022194C8B4002FB00443EB315
S3150800AA6004F5825423600F21072F05EB450388BFA1
S3150800AA70A7F108044FEA0313114895BFBC00A400C8
S3150800AA8004330C3308FA04F2A140184447F00DFECB
S3150800AA90B8F1000F0AD101213020084A01FA07F758
S3150800AAA000FB05223EB102F582521760BDE8F0812F
S3150800AAB004F50154D6E702F50152F6E700C0035043
S3150800AAC030C00350044A054B002918BF134601221B
S3150800AAD002FA00F0186070474020045040100450F5
S3150800AAE010B5012104462020FEF772FE012121201F
S3150800AAF0FEF76EFE0122114B5A60227812069A6002
S3150800AB006178A27842EA01429A61FF229A6200229B
S3150800AB109A631A644FF000425A654FF0FF324FF4B9
S3150800AB20001103F500531A65054AC2F88011E37847
S3150800AB301B01DBB282F81533116010BD000004500A
S3150800AB4000E100E070B50125C3B29D401E4B0C46DE
S3150800AB501D658300096803F1A04303F5882359603E
S3150800AB6030211A4E637B01FB00600366E37AA17A03
S3150800AB701B0543EA0143217B22F0030243EA4153C2
S3150800AB80C365026747F03CFD736D2B437365237AF3
S3150800AB9013B1336C2B433364637A13B1B36B2B4312
S3150800ABA0B3632279A37943EA0243074A9361617939
S3150800ABB0E37943EA014306498B61044B55639D6477
S3150800ABC0BDE8704047F022BD002004500000045044
S3150800ABD00010045010B50124C0B2844047F010FD9F
S3150800ABE0044B5A6D22EA04025A659C62BDE810407D
S3150800ABF047F00CBD00000450F8B50125C3B2044661
S3150800AC009D4047F0FDFC3022094B1E6D5F6B02FB31
S3150800AC1004335C6E47F0FAFC3D4206D1C4F30A10D1
S3150800AC2008B9354200D10130F8BD0020FCE700BF65
S3150800AC30000004504FF48032054B9A6641F6713293
S3150800AC4003F51C33DA63012203F50053DA60704713
S3150800AC500090005041F671320121064BDA6303F584
S3150800AC600052D1600022DA634FF48032A3F518331C
S3150800AC709A66704700000350013831289ABF024B84
S3150800AC80185C0020704700BFC89F070810B5C2F3BC
S3150800AC900623044602F0070241B942EA03220B4B97
S3150800ACA042F44022063443F8242010BD18461146C3
S3150800ACB047F00CFD01461846FFF7DEFF034B41EA55
S3150800ACC00020163443F82400EFE700BF0080035045
S3150800ACD0014BD3F894007047004000504FF480327F
S3150800ACE0064B5A6603F5E6239B69C3F38512827001
S3150800ACF003F03F021B0B4270037070470090005030
S3150800AD000120034B9B680A3303F01F0398407047E2
S3150800AD100080E00F70B5054616461C4621B94FF46B
S3150800AD202070FEF771FD0146402C1BD003D8DCB11C
S3150800AD30202C1BD070BD602CFCD1042303FB06F22B
S3150800AD40560806EB4113B3FBF2F3094A203B02EA25
S3150800AD50C303AA6822F06002AA60AA681443AC601A
S3150800AD60EB61E7E70623E9E71023E7E70823E5E7CA
S3150800AD70F8FF7F00012100F5805310B5596040F6B1
S3150800AD80AA6341F2050243610023094C8360C36547
S3150800AD90C26000F500520361C361C3649464054C44
S3150800ADA08365A04204BF03654365516010BD00BFBB
S3150800ADB0FFFF010000C0055070B50C46FFF7DAFF2B
S3150800ADC0012300F580567360A37C05461BB1836892
S3150800ADD043F080438360E37C5BB1234B9D4202BF13
S3150800ADE0227DA3F51033C3F8C821EB6D43F0800329
S3150800ADF0EB65228A637B28461343E2891343EB609B
S3150800AE00237BD4E90112FFF785FF637D1BB1AB688D
S3150800AE1043F48033AB60A37D1BB1AB6843F40043B6
S3150800AE20AB60E37D227E1B07120502F4E00203F005
S3150800AE30E0431343AB65637E023B012B4FF00203ED
S3150800AE4094BF0A4A0A4AC2F82037637E03F0FD0314
S3150800AE50012B4FF0040316BF05F50052F365D365C1
S3150800AE6023786B6170BD00BF00C0055000D0035049
S3150800AE7000E0035038B50D46FFF77CFF012200F5C8
S3150800AE8080535A60A97B2A8A002914BF4FF480612F
S3150800AE900021836842F0010213430B4383602A7D35
S3150800AEA08368002A14BF4FF00052002213438360C0
S3150800AEB0AB7C04465BB1194B984202BFEA7CA3F50A
S3150800AEC01033C3F8C821C36D43F08003C3652B7BD9
S3150800AED0204643F48053E360D5E9011247F052FC5B
S3150800AEE06B7B0BB1102363616B7D1BB1A36843F4C5
S3150800AEF08033A360AB7D1BB1A36843F40043A36012
S3150800AF00EB7D2A7E1B07120503F0E04302F4E002FC
S3150800AF101343A3652B78636138BD00BF00C0055095
S3150800AF20054B9A689107FCD45A689207F9D4DA69EE
S3150800AF30002AF6D1704700BF00800A5008B5FFF70F
S3150800AF40EFFF0122024B03F580514A601A6108BDE2
S3150800AF5000800A50074B5A68012A0AD15A68D20754
S3150800AF6002D5DA69002AF9D102221A610122024BB6
S3150800AF705A60704700800A5000A00A5010B5064C67
S3150800AF80FFF7CEFF6368012B03D1FFF7E3FFFFF757
S3150800AF90C7FF0378E36010BD00800A50E8B94A6825
S3150800AFA00B7812B1127843EAC2034A78002A14BF12
S3150800AFB00222002213438A6812B1127843EA8213E6
S3150800AFC08A78002A14BF042200221343CA6812B1E1
S3150800AFD0127843EA4223014A9364704700800A5074
S3150800AFE008B9014B5964704700900A5008B9014BDB
S3150800AFF05964704700A00A5008B9014B1964704794
S3150800B00000A00A5010B9024B186C70470020704710
S3150800B01000800A5048B911B1012903D07047044B82
S3150800B020D86C7047024B186D70470020704700BFF8
S3150800B03000800A5040B911B1012903D07047034B6B
S3150800B040DA647047014B1A65704700BF00800A50E2
S3150800B0507FB50222084B0949CDE901234FF0407319
S3150800B060CDE90313052301A94FF0FF3005936EF0D0
S3150800B070F4FD07B05DF804FB006A1800000304003D
S3150800B0802DE9F84303F0AAFE0128074605D903F07F
S3150800B090D9FE061E02DA01241EE00026DFF88080AB
S3150800B0A098F8003003F0FF0493BB4FF05009194D90
S3150800B0B005F110032846C5E90044AB60C5F80C90B5
S3150800B0C003F010FF286650B90124012F04D9304631
S3150800B0D003F0DAFE0028DEDB2046BDE8F8830E4DD5
S3150800B0E0214605F110032A460120C5E90044C5E9B1
S3150800B0F0023903F0B7FF28660028E5D03022074B4F
S3150800B10083F8412302229A60012388F80030DCE79D
S3150800B1100024DAE7D4C5002070C5002000E100E06D
S3150800B120E779012008B503F059FE02280FD1094B2B
S3150800B1304FF0FF31186E03F017FF002814BF0120E7
S3150800B140002003D14FF48062034B9A6608BD0020A5
S3150800B150F8E700BFD4C50020009000504FF4806285
S3150800B16008B5084B9A6603F039FE022807D1064B44
S3150800B170186E03F029FF003818BF012008BD00200B
S3150800B180F9E700BF00A00050D4C5002008B54FF06D
S3150800B19098435B6CD90208D503F020FE02380128D3
S3150800B1A003D8094B186E03F0E9FF4FF098435A6C21
S3150800B1B0D202FCD55B6D054A03F4702313600222A4
S3150800B1C0034BC3F8882108BD70C500203C12002037
S3150800B1D000E100E038B5054600283AD0FFF7A2FF9F
S3150800B1E00446002836D1284647F0ACFA95F82030B0
S3150800B1F043B94FF098435A6CD202FCD55D6D05F4FD
S3150800B20070251BE04FF09842936D43F00203936557
S3150800B21003F0E4FD02281AD1104B4FF0FF31186EE7
S3150800B22003F076FF4FF09842936D23F0020393657F
S3150800B23090B94FF4A0220A4B1D681A60FFF78EFFDB
S3150800B24004463DB12846BDE8384047F0C9BA20460D
S3150800B250E8E72124204638BD0124FBE770C5002015
S3150800B2603C1200202DE9F0418CB08846DDE91276C3
S3150800B2701D460446002847D0002945D0002F43D054
S3150800B280002E41D013F00F033ED120482049A36079
S3150800B290002A18BF0146E361C4E90013404609A91C
S3150800B2A047F00EFC68BB2046099947F042FA294642
S3150800B2B0204647F03EFA6946404600F02DFE00BBA0
S3150800B2C06946204647F021FA404603A947F0C6FCDE
S3150800B2D0B8B9204603A947F018FA06970127204669
S3150800B2E045F0005506A90797089547F00EFA204637
S3150800B2F009A909960A970B9547F011FA2046FFF710
S3150800B30069FF0CB0BDE8F0812120FAE700010104CD
S3150800B310000100042DE9F04F97B00F4614469946F0
S3150800B3208346209EDDF88880DDF890A0269D0028BB
S3150800B33000F09F80002900F09C801DB1259B002B02
S3150800B34000F09780B9F1000F00F09380B8F1000F74
S3150800B35003D0219B002B00F08C803CB1239B002B53
S3150800B36000F08780BAF1000F00F08380C6F10F0263
S3150800B370D2B2032A05D80121D20001FA02F2A2426A
S3150800B38077D9022D75D0102D73D815F0010270D11A
S3150800B390F11F06296DD838490AEB0400884268D897
S3150800B3A036493846CBE90012CBF80820CBF81C20E2
S3150800B3B013A947F085FB002858D15846139947F03A
S3150800B3C0B8F9584645EA064147F0B3F941465846A2
S3150800B3D047F0AFF92146584647F0ABF9384601A978
S3150800B3E000F09AFD002841D1584601A947F08DF989
S3150800B3F0384604A947F032FC002837D101275846B9
S3150800B40004A947F082F9239B48F000520793219B31
S3150800B410584644F000540DA946F00056089709947A
S3150800B4200A930B970C92CDF834900E970F9647F027
S3150800B4306CF958460AA947F068F9584607A947F02B
S3150800B44064F9259B584610A945F00055CDF840A04B
S3150800B4501197129413931497159547F060F9584667
S3150800B46013A947F05CF95846FFF7B4FE17B0BDE8D4
S3150800B470F08F2120FAE700BFFFFF03200000050434
S3150800B4802DE9F04F99B00F4614469B468046229EFA
S3150800B490DDF89890289D002800F0B280002900F079
S3150800B4A0AF80279B002B00F0AB80BBF1000F00F0AC
S3150800B4B0A780249B1BB1239B002B00F0A1803CB1E5
S3150800B4C0259B002B00F09C80B9F1000F00F09880B6
S3150800B4D0C6F10F03DBB2032B06D80121DB0001FA04
S3150800B4E003F3A34240F28C80022D00F089806B1E84
S3150800B4F00F2B00F2858015F0010A40F08180F31FBA
