S02500006275696C642F64656275672F6C69676874696E672D6170702D77663230302E733337FA
S21400000000120020B5160000F1A105006DA607003D
S2140000103DB70500F1A10500F1A10500F1A105001D
S214000020F1A10500F1A10500F1A1050021010000E4
S214000030F1A10500CC00090051010000A1B805009F
S214000040F1A105008D780500F1A10500F1A10500DC
S214000050DD70050017FD080013FD0800AD780500EB
S2140000600BFD08005D1C0000B51D0000F1A1050099
S2140000703DFA0500F1A10500F1A10500F1A105007A
S214000080F1A10500F1A10500D11D0000F1A10500B8
S214000090F1A10500F1A10500F1A10500F1A10500FF
S2140000A0F1A10500F1A10500F1A10500F1A10500EF
S2140000B0E17805000FFD08002D9200001D7905006F
S2140000C0F1A105004D5D0500F1A10500F1A10500B7
S2140000D0F1A10500F1A10500F1A10500F1A10500BF
S2140000E0F1A10500F1A10500F1A10500F1A10500AF
S2140000F0F1A10500F1A10500F1A10500F1A105009F
S214000100F1A10500F1A10500F1A105000000000025
S214000110013800D0FCE77047000000000000000037
S214000120074B19680868B0E8F04F80F30988BFF3FA
S2140001306F8F4FF0000080F311887047AFF3008098
S21400014068DA002000000000000000000000000048
S214000150EFF30980BFF36F8F154B1A681EF0100F70
S21400016008BF20ED108A20E9F04F10602DE9090045
S2140001704FF0300080F31188BFF34F8FBFF36F8FBF
S2140001800BF012FB4FF0000080F3118809BC1968D1
S2140001900868B0E8F04F1EF0100F08BFB0EC108AE9
S2140001A080F30988BFF36F8F704700BFAFF30080FE
S2140001B068DA0020000000000000000000000000D8
S2140001C001F0FF01102A2BDB10F0070F08D010F803
S2140001D0013B013A8B422DD010F0070F42B3F6D107
S2140001E0F0B441EA012141EA014122F007047FF020
S2140001F000070023F0E80256083C85EA010586EA77
S214000200010685FA47F5A3FA87F586FA47F6A5FAB2
S21400021087F68EB9EED1F0BC01F0FF0102F00702BE
S21400022032B110F8013B013A83EA010313B1F8D169
S2140002300020704701387047002D06BF354603384A
S214000240073815F0010F07D1013015F4807F02BF83
S214000250013015F4C03F0130F0BC0138704700BFD4
S2140002602DE9F04F2DED028B804600688DB00C46D0
S21400027091461D4630B9032738460DB0BDEC028BBB
S214000280BDE8F08F0668766CB0472D280746F3D198
S2140002906378202B01D10027EEE7D8F80000944BB6
S2140002A0049358B1036822461B6C04A99847074676
S2140002B030B1049803689B689847DDE70327F8E7A2
S2140002C08C4E8D4B0593EE404FF48973102D6FEADC
S2140002D0060623FA05F306F001066FEA030388BF55
S2140002E001269FED818B082D03F0010388BF0123B3
S2140002F001936FF0010B0498036805A9DB68984723
S214000300002840F0EC808DF80E00059803680DF18B
S2140003100E01DB6898470746002843D19DF80E304B
S214000320402B03D0802B01D003273BE062789A4213
S214000330E1D1059801238DF80F3003680DF10F0108
S2140003405B699847074668BB9DF80F30082B17D89F
S214000350002BD0D0013B072BCDD801A252F823F0BA
S214000360B10300008B030000F7020000AD0300009D
S214000370F7020000F7020000F7020000B7030000D3
S214000380102BB8D1002EB6D102E06B1E012BB2D8CE
S214000390059800230693036806A95B6A9847824679
S2140003A068B1074605A85FF03BFD82E7042DEFD055
S2140003B0012DA0D1ECE7019B002B9CD1E8E7069B22
S2140003C0002B46D08DED088B0598036808AA9B6A1B
S2140003D05146984707460028E4D1DDE90830591E03
S2140003E040F1FF328B456FF0100171EB020210D323
S2140003F09DF80E20402A97D1D4E90212904208BFF9
S2140004008B4226D0069B0AF1010A53457FF673AF4E
S214000410D8E74FF0FF31C21C994277EB020231D386
S2140004209DF80E20402A7FF47FAF1F0C04F11001C8
S21400043004F11C009BB28842E4D051F8042B002A39
S214000440F9D0B7EB124FF6D1002BF4D092B293420C
S214000450F1D8059800230793036807A99B6B984774
S214000460074600289ED1079B002B36D0824605986B
S214000470CDF820A0036808AADB6B3946984758B128
S21400048007468FE713F5803F70F1FF32FFF44CAF5D
S2140004909DF80E20802AAEE7089BD90704D5D9F828
S2140004A000200999914212D19A0705D5BDF8281067
S2140004B0B9F8042091420AD15B070ED5D8F804009B
S2140004C0B9F8042003680B999B68984728B9079BDE
S2140004D00137BB427FF60FAFC9E7002762E7A527C3
S2140004E060E700BFAFF300800000000000000000DF
S2140004F02014002016010100241400200000000033
S2140005002DE9F04F2DED028B884297B004460D463C
S21400051090461E460AD1304A034601211D2017B0D8
S214000520BDEC028BBDE8F04F77F0B4BF0DF10C09BF
S2140005302A21484620F06CF999E8030005AF87E8C1
S21400054003009FED238BDFF894A0DFF894B0BDF88E
S2140005501400BDF81630834234D020F0F3F9337817
S2140005608DF8244081468DF825508DF826808DF82C
S21400057028300BB173680B9309AB0893CDF81CA019
S2140005801AF02AFE00230E938DF840308DF8513075
S2140005902A23ADF830900D934FF001096B460CAA54
S2140005A007A98DED128B8DF8509068F033F803464E
S2140005B020B15A4649461D2077F06CFF38466DF04C
S2140005C01FF8C4E717B0BDEC028BBDE8F08F00BF84
S2140005D000000000000000008C0F0E0078100E00D7
S2140005E0CC0F0E00000000002DE9F04F2DED028B21
S2140005F09DB00DF108092A2105464846DDF8A4807D
S214000600DFF8BCA0DFF8BCB016461F4620F000F9A5
S21400061099E8030004AC84E803009FED278BBDF83F
S2140006201000BDF8123083423ED020F08BF9289B94
S21400063008951B788DF83030CDE90A6781461BB1E6
S214000640289B5B788DF8313098F800308DF838307C
S2140006501BB1D8E90223CDE9102308AB0793CDF8E8
S21400066018A01AF0B9FD00238DF858308DF86930BF
S2140006702A220223CDE91323ADF848906B464FF0AB
S214000680010912AA06A98DED188B8DF8689067F0FF
S214000690C1FF034620B15A4649461D2077F0FAFEB0
S2140006A020466CF0ADFFBAE71DB0BDEC028BBDE88E
S2140006B0F08F00BFAFF300800000000000000000D5
S2140006C0A0100E0023100E002DE9F04F2DED028B2A
S2140006D089B00830DDF860800E46914677F0FFFE60
S2140006E00446002800F0A18014AB0FCB6D4604AF83
S2140006F085E80F0087E80F00514B2360002503F1C3
S2140007002C02C4E90355C4E905554833A3604D4B94
S21400071062600FCB9FED488B04F1480CC4E9075587
S214000720C4E90C5584ED0E8B84F8245084F84050B0
S2140007308CE80F00444B236604F17803C4E91E33AB
S21400074004F1A003C4E928334FF0010B3F4BC4F873
S214000750D03041F2A45A10222946C4E91955C4E9FA
S214000760355584F858B0A4F85AA0E56584F86C505E
S2140007706467C4F89850C4F8C050C4F8DC5004F15C
S214000780E00085F05BFE84F8F0B0A4F8F2A0C4F8B0
S214000790F45004F1F80078F033FC4AF6C873C82227
S2140007A0C4E9462304F5987384ED428B84ED448BAC
S2140007B0C4E94C3384F80051A4F80451C4F8285115
S2140007C084F82C51C4F850513368E3607368236191
S2140007D0B3686361F368A3613369E3617369236295
S2140007E0337E84F824302BB1D6E9070104F12803C0
S2140007F083E80300304660F010F8B0B9B9F1000F96
S21400080013D0B8F1000F10D003CF3B7884F84030F7
S214000810012384F8283104F10803C4F83090A0635B
S214000820E163C4F8C880C4F8DC30204609B0BDECEB
S214000830028BBDE8F08F00BF000000000000000043
S2140008400C1A0E00AC1D0120CC190E00F8190E0073
S2140008502DE9F04F2DED028BCDB0994600238DF893
S214000860C83049938DF828318D4BDFF840A20C93A1
S214000870002700264FF6FF740123CDE92E67CDE949
S2140008803067CDE9346705468846CDF8D8A0ADF880
S21400089020410D9317466AB1064600F53E74A642FF
S2140008A000F0EF80304660F0EFF8002800F0EB80B4
S2140008B09836F4E76FF0F1FF044630B9AC242046D2
S2140008C04DB0BDEC028BBDE8F08F05F53E763046A8
S2140008D06CF017FDB4F86830ADF820318DF8C8809C
S2140008E094ED028B6A342021204685F00DFFCDE979
S2140008F00C406C4B0E934FF4C871002309A8CDE949
S21400090009330F930B93CDF870A064F0E0FF099BBA
S21400091053B90B240BA85FF09DFE0AA85FF09AFE61
S21400092009A85FF097FECAE74FF4C8710AA864F0FA
S214000930CEFF0A9B002BECD04FF4C8710BA864F0D6
S214000940C6FF0B990029E4D0099B0A9A10934FF42E
S214000950C873CDE91223CDE9141310AA41462846E0
S21400096011936FF0F7FF08B10446D3E712AA414689
S21400097028466FF0D1FF0028F6D114AA4146284633
S2140009806FF0A7FF0028EFD1109B1693119B1793CB
S214000990129B1893139B1993149B1A93159B1B93E6
S2140009A036AB079330AB049334AB0DF1B80A0DF1B8
S2140009B0700B03930EABCDE905AB8DED008B029368
S2140009C01AAA18A916A823F0D1F90028CCD10BA88A
S2140009D05FF040FE0AA85FF03DFE09A85FF03AFE11
S2140009E0B9F1000F13D1D5F89403002847D0036857
S2140009F09B689847D5F894331A68002837D054690E
S214000A0041465A461846A04798B1044657E7D9F8D3
S214000A10003048465B699847036859465B6A9847C2
S214000A2008B9C5244BE79DF86031CDF824918DF8C0
S214000A3028315146304670F000FA0028E5D10CA95E
S214000A4030466FF0F7FE0F9905F5697071F032FDCC
S214000A50034620B1144A0121112077F01BFD27B16F
S214000A6095F8B233013385F8B233002427E7D2680D
S214000A704146184690470028DBD110241FE7032480
S214000A801DE70B241BE7BDF86431ADF820319FED60
S214000A90028B8DF8C8802CE70000000000000000E4
S214000AA0A0AA0E005C4F0E00214F0E0080710E00B3
S214000AB02DE9F0478AB00DF10D0301931523064684
S214000AC000934FF48072002308460C4674F060FFD3
S214000AD0D8B9B37B009301220023204674F0E7FECA
S214000AE098B9F37B009302220023204674F0DFFEC1
S214000AF058B90DF10E030193162300930322002329
S214000B00204674F045FF054610B10AB0BDE8F087F0
S214000B1037460DF118084FF0100910220021404604
S214000B2085F08CFC0DF10F030193152300934FF411
S214000B3080720023204674F02BFF0028E5D1F27B5C
S214000B40EBB29A4250D997ED047BB7F818A007F19C
S214000B501A03C44607F12A0E18685968624603C28B
S214000B60083373459446F7D18DED007B04220023AD
S214000B70204674F077FE0028C7D1CDF800A00522E5
S214000B800023204674F093FE0028BED14046494616
S214000B908DE80300CDE9048906220023204674F080
S214000BA0B3FF0028B1D19DF90F10204674F01FFF47
S214000BB0013530370028A8D1032DAED19DF90E108F
S214000BC0204674F014FF00289FD1F3880093072274
S214000BD00023204674F06BFE002896D19DF90D1078
S214000BE0204674F004FF90E79FED017B8246BBE74A
S214000BF000000000000000002DE9F04F2DED028BF4
S214000C009FED8B8BDFF83C928B4FADF5217D064632
S214000C1000F5A07400F5AA68444500F00381D4F8F6
S214000C200031013364D0204675F0E9FD8207C3B277
S214000C3040F1AA8004F1400103A875F0CEFD5422CD
S214000C4003A918A885F0D2FB542218A92DA885F070
S214000C50CDFB002354222DA942A8CDE900330293F0
S214000C6085F0C4FB42A875F0A5FF054618B1019BA8
S214000C7001330193F6E79DF8183173B301984FEAF4
S214000C80800A02A85FF0E6FC50462AF025FF029094
S214000C9018B32B462946019A9A4204D9029A42F87A
S214000CA023100133F7E751222DA942A885F09EFBB9
S214000CB0002542A875F07EFFE8B10DF2191085F008
S214000CC0F4FC01460DF2191076F085FF029B585190
S214000CD0029B5B590435002BEBD19DF8003073B9AD
S214000CE0564A0121222077F0D5FB684676F0A2FF0F
S214000CF004F5027490E701238DF80030EDE7002537
S214000D0042A8CDE94255449574F0F0FF9DF80030B6
S214000D1006F1180A83B3DDF804B0CDF80CB144A888
S214000D205FF098FC4FEA8B002AF0D6FE449018B38A
S214000D302B462946439A9A4204D9449A42F82310ED
S214000D400133F7E70025439BAB4212D9029B53F8C9
S214000D5025B0584685F0A9FC0146584676F03BFF7C
S214000D60449B43F82500449B53F8253023B10135B6
S214000D70E9E701238DF80831504642A975F05DF980
S214000D8042A876F057FFB0E743B12D4A0121222052
S214000D9077F080FB204628F007F8A9E7D4F8005142
S214000DA0012D23D142A876F0FFFE61A86EF07BF8F5
S214000DB042A822F0D7FC61A86EF075F842A920463A
S214000DC075F0B6FD034620B13A462946222077F054
S214000DD061FB06F1180042A975F060F8F06800287B
S214000DE086D0036842A99B68984781E7C5B942A8A0
S214000DF076F0DAFE42A920468DED628B8DED648B8F
S214000E0075F0C0FD034620B13A460121222077F056
S214000E1041FB06F1180062A975F02DF8B068DEE710
S214000E204A46B3E70DF5217DBDEC028BBDE8F08F99
S214000E3000000000000000007A640E0005640E004A
S214000E4037640E009F640E00054B186803689969A6
S214000E5001A3D3E90023084700E0373B015D030008
S214000E60381500200000000010B5ADF5956D2A215C
S214000E70714802912EF05AFF08B185F043FA0290AD
S214000E8002A96D482EF00CFE0028F6D1029B2A2BF4
S214000E90F3D167A3D3E900236848CDE908232EF0F1
S214000EA05DFF0028E9D100220023644808A9CDE9A7
S214000EB008232EF019FE0028DFD1DDE9080260497C
S214000EC040F6FA039A4208BF8842D6D101215D480F
S214000ED08DF807102EF012FF0028CED18DF80700EF
S214000EE00DF1070157482EF0B3FD0028C5D19DF837
S214000EF00730002BC1D050482EF026FD0028BCD16C
S214000F004D4803A92EF0CCFD40F20124A042B4D1F6
S214000F104D494E4879F00CFD0028AED14B4804AB45
S214000F2040220AA92EF008FE0028A6D1049B0E2B0C
S214000F30A3D145490F220AA885F048FA00289CD17B
S214000F404349424879F0F4FC002896D104AB3F4868
S214000F5040220AA92EF0F0FD049B03438DD19DF894
S214000F602810002989D1394879F0E2FC002884D17C
S214000F70364805AB40221AA92EF0DEFDA0427FF4CB
S214000F807CAF34493448F1222EF01AFF00287FF453
S214000F9074AF314806AB4FF400722AA92EF01AFE41
S214000FA000287FF46AAF069AF12A7FF466AF2949D3
S214000FB02AA885F00BFA024600287FF45EAF0146A9
S214000FC025482EF0FDFE00287FF457AF224807ABD9
S214000FD04FF40072AAA92EF0FDFDA0427FF44DAF9B
S214000FE016482EF0BDFC00283FF447AF15482EF0FB
S214000FF0B7FC00283FF441AF17482EF0B1FC00289C
S2140010007FF43BAF2EF006FD00287FF436AF0B488A
S2140010102EF0A6FC00283FF430AF0A482EF0A0FCC5
S21400102000287FF42AAF0DF5956D10BDAFF3008054
S214001030316EE595FA080000057308000172080095
S214001040316EE59506730800627F0E000273080095
S214001050617F0E00707E0E00027208000000000025
S21400106070B5414C00238AB0E363054618B100888A
S214001070236046F019FE3D4E3D488EF065FA3D4B26
S214001080336030463C4B736046F03EFE00213046EF
S21400109051F042FC32A3D3E90023A062C4E9062340
S2140010A089F02FF8D4E90623194310434FF0FF3395
S2140010B0C4E90601CDE900014FF0FF32A06A8EF0C8
S2140010C0F1FA02224FF0FF31A06A8EF003FB0120F6
S2140010D046F0D4F92949A06A4FF4007300228EF036
S2140010E0E7FBB0F5007F38D10023CDE9073309933D
S2140010F094223C23CDE903320593A06A962303A9E4
S214001100069351F0A9FF35B3287C46F0BBFE054692
S214001110F0B9A06A8EF04DFC46F05CFE46F090F901
S21400112020B14FF48070002143F0EEF946F098F9B4
S21400113020B14FF40060002143F0E6F988F0A6FFE6
S21400114001208EF0AEF80E4A0E49A06A88F0CDFF58
S21400115028460AB070BDFF20D7E70725F8E700BF8E
S2140011600DD501552000000048C800201C52012063
S214001170690345EC557704001052012010500120F9
S21400118093A00800D3A0080010B5054C237833B907
S214001190044B13B10448AFF300800123237010BD45
S2140011A0E0CC0020000000007CD10E0008B5034B08
S2140011B01BB103490348AFF3008008BD00000000E0
S2140011C0E4CC00207CD10E00A3F5803A704700BF27
S2140011D0174B002B08BF134B9D46FFF7F5FF00216A
S2140011E08B460F461348144A121A85F027F90E4B01
S2140011F0002B00D098470D4B002B00D098470020BE
S214001200002104000D000D48002802D00C48AFF362
S21400121000803DF05DFF200029003CF009FE3DF017
S21400122041FD00BF000008000000000000000000B4
S21400123000120020401A00200C5902200000000076
S2140012400000000008B50548012102F0B5FD5EF07B
S21400125042FABDE8084000F009B800BF00350A00B1
S2140012600148012102F0A8BD00350A002DE9F0432F
S2140012703B4D3C4FDFF80091DFF800810FCD89B081
S21400128001AC0FC495E8070084E80700364C3748E1
S214001290012102F091FD3846012102F08DFD012565
S2140012A0334B039301A920468DF8125059F0FEFBEC
S2140012B02B4604220621022003F0E0FE2A460023E5
S2140012C00721022003F0DAFE2B4604220821022022
S2140012D003F0D4FE042211462B46002003F0CEFE77
S2140012E0244BA3670B23636710264FF4487007F060
S2140012F0D9FFC9F80C60142007F0D4FFC8F80C60BA
S214001300232007F0CFFFC9F80C60B921204659F01A
S21400131014FC00231A46C8F80C600621022003F0CD
S214001320ADFE00231A460721022003F0A7FE2B4637
S21400133000220821022003F0A1FE002210462B46C0
S214001340042103F09BFE204604F0CEF90021A1679D
S2140013503846616702F030FD09B0BDE8F08300BF93
S214001360B0000900005204000004014000350A00E5
S21400137000127A000B0B000B00A0004400A00046F1
S21400138010B50F4BD3F82838A3F17E62A2F584324D
S214001390B2F5104F0ED219680A4A91420AD10A4C89
S2140013A0227812F0FD0F08D1DB69984708B90123AF
S2140013B0237010BD4FF48170FBE70020F9E700BFF3
S2140013C00000E10F07B0CD5E6C5801204FF00053CF
S2140013D00B4A1A600B4A01239360136823F4E063F8
S2140013E043F480631360BFF34F8F0749074BCA6807
S2140013F002F4E0621343CB60BFF34F8F00BFFDE7FC
S21400140002020FF000500E4000ED00E00400FA0566
S2140014100A4BD3F82828A2F17E63A3F58433B3F5EC
S214001420104F09D2126BA2F17E63A3F58433B3F595
S214001430104F01D253681847704700BF0000E10FF5
S2140014400B4BD3F82828A2F17E63A3F58433B3F5BB
S214001450104F09D2126BA2F17E63A3F58433B3F565
S214001460104F01D2936818474FF48170704700BF41
S2140014700000E10F07B50E4B0190D3F82828A2F123
S2140014807E63A3F58433B3F5104F0ED2126BA2F130
S2140014907E63A3F58433B3F5104F06D2936901211A
S2140014A001A8984703B05DF804FB4FF48170F9E794
S2140014B00000E10F10B40A4BD3F82848A4F17E636D
S2140014C0A3F58433B3F5104F05D2236B1BB15B6ACB
S2140014D05DF8044B18474FF401705DF8044B7047F5
S2140014E00000E10F0B4BD3F82828A2F17E63A3F58A
S2140014F08433B3F5104F09D2126BA2F17E63A3F5C5
S2140015008433B3F5104F01D2936A18474FF4017035
S214001510704700BF0000E10F70B5134BD3F82838B2
S214001520A3F17E63A3F58433B3F5104FE0B00D4608
S21400153016D24FF4C0726946FFF7BCFF044660B986
S21400154040F2012629466846FFF7CCFFB042F9D0A4
S21400155040F20323984218BF0446204660B070BD90
S2140015604FF40174F9E700BF0000E10F10B40D4B13
S214001570D3F82848A4F17E63A3F58433B3F5104F5F
S2140015800BD2246BA4F17E63A3F58433B3F5104F1E
S21400159003D2A36B5DF8044B184740F201105DF8C8
S2140015A0044B70470000E10F0B4BD3F82828A2F13C
S2140015B07E63A3F58433B3F5104F09D2126BA2F104
S2140015C07E63A3F58433B3F5104F01D2D36B18476F
S2140015D040F20110704700BF0000E10F2DE9F04314
S2140015E09946334B1746D3F82828A2F17E63A3F515
S2140015F08433B3F5104F91B005460E464FD2136BA9
S214001600A3F17E63A3F58433B3F5104F47D203A846
S214001610FFF7FEFE079BDC68A3B2002B42D001A9B1
S2140016202846FFF70DFF00BB029B06EB09059D420F
S2140016303BD8A1B2B6FBF1F401FB1463DDF80480DD
S214001640D3B1B5FBF1F24C4201FB125204EA06009C
S21400165001EB080C62B12C40211A6044D1B94A460D
S214001660394608EB0600FFF781FF11B0BDE8F083AE
S214001670A9EB0104E118F0E7B9FBF1F301FB1393C2
S21400168008EB060023B14C4204EA09042144E5E7CE
S2140016904946E3E7FFF788FF0028E0D0E5E74FF488
S2140016A08170E2E740F20140DFE740F20240DCE70B
S2140016B00000E10F08B500F083F8124B12498B4288
S2140016C012D3124B124900208B4218D3FFF780FD2D
S2140016D0186850F82240586840F82240013298684E
S2140016E08242F5D30C33EAE70022F8E71C6844F898
S2140016F0220001325C68A242F8D30833E4E70022F5
S214001700F8E700BF84D10E0090D10E0090D10E00F5
S21400171090D10E000048704700F04902104AD2F8F7
S214001720943003F00703023B032B13D8DFE803F0E3
S2140017300C14020E0B4B1B68D2F80001C0F30420F9
S2140017400130B3FBF0F07047074BF4E7074B1B681C
S2140017505B08F1E7054BEEE74FF40043ECE700BF0C
S21400176000400E4010120020081200200C1200202C
S21400177008B5FFF7D3FF054BD3F80831C3F30823AA
S2140017800133B0FBF3F0024B186008BD00400E407A
S21400179004120020014B1868704700BF0812002092
S2140017A0054B1860054BD3F8943003F00703022B63
S2140017B001D1FFF7DDBF70470812002000400E4041
S2140017C0044B054A9A60D3F8882042F47002C3F8A6
S2140017D08820704700ED00E000000000014B18680C
S2140017E0704700BF1012002037B504680121054677
S2140017F0124802F0E1FA002361792079012203F011
S2140018003DFC6179207958F004FDB0FA80F35B095D
S2140018102370A379022B0ED100F076FA084960797E
S2140018202A4600F09BFA0123617902462079CDE929
S214001830003303F0DDFB002003B030BD00350A00A6
S2140018402DA2050010B501210446094802F0B4FA9D
S2140018500848012102F0B0FAA37820786178B3FA3C
S21400186083F35B09042203F009FC002010BD00BFCF
S2140018704041050000350A002DE9F04F9A46554BC9
S21400188085B01B78DDF83C909DF844B0DDF85080BC
S21400189006460F461546002B00F08B80072A00F2FE
S2140018A08A800E9B002B00F08680B9F1000F00F0B6
S2140018B08280129BB3F5006F7DDC012802D1109B5D
S2140018C0002B78D0444B03EB05131B7B002B74D006
S2140018D0424C10220021684684F0B0FD04EB45140B
S2140018E01022002F57D13946204684F0A7FD43F238
S2140018F010036380BBF1000F03D1E37843F00303CA
S214001900E370364A0E9BCDF800A002EB451CCCE9EE
S2140019100193129B013BC3F30A009DF84C3069010A
S21400192003F003039B0643EA001E53582C48184056
S2140019304EEA0003012E535041D11323CCF80C304D
S2140019409CE80F000CF1100E8EE80F00DCF81C204F
S214001950109BCCF814306FF0030161F39F02012F47
S214001960CCF81C2003D1CCF81890CCF804301A4AD6
S214001970290102EB051342F801800027159A5A60E8
S21400198028469F605E732246694603F0FDFB384694
S21400199005B0BDE8F08F0021204684F04FFD4FF4DF
S2140019A044736380BBF1000FABD1E37843F03003A0
S2140019B0A6E70C48ECE70C48EAE70C48E8E7B8F17D
S2140019C0000FD4D19CF8023068F304138CF8023070
S2140019D0CDE700BF6D580120FCCC00207CCD002058
S2140019E00F80FFF3028000F0018000F0078000F017
S2140019F038B5124B1B780546DBB1E0B158F095FEC2
S214001A000F4A00231146147B54B92B601A0101EBD0
S214001A10031301258C501D7358F08DFE204638BDEB
S214001A200133082B02F11002EDD158F084FE054870
S214001A30F5E70548F3E70548F1E700BF6D580120D4
S214001A40FCCC0020048000F0028000F0018000F052
S214001A5013B558F06AFE0C4A0023147B7CB9013398
S214001A60082B02F11002F8D1019003F043FB074B5C
S214001A7001981C7058F05FFE204602B010BD58F06A
S214001A805AFE0348F9E700BFFCCC00206D58012041
S214001A90058000F010B50D4B1B78044693B107285F
S214001AA012D858F042FE0A4B03EB04131A7B2AB1F5
S214001AB000241C7358F03FFE204610BD58F03BFE35
S214001AC00448FAE70448F8E70448F6E76D580120AA
S214001AD0FCCC0020068000F0028000F0018000F0C0
S214001AE013B5164B1868019000238DF8043058F093
S214001AF01CFE134B1C7824B158F01DFE114802B092
S214001B0010BD01221A7058F016FE0F4B1C731C777E
S214001B1083F82C4083F83C4083F84C4083F85C40C4
S214001B2083F86C4083F87C4004230DEB03008DF8AB
S214001B30073003F0FFFA2046E1E700BF1C0109006A
S214001B406D580120038000F0FCCC002008B50A4A3E
S214001B5012785AB107280BD8084A02EB00131B7BF1
S214001B6043B1002103F0DCFA002008BD0448FCE77E
S214001B700448FAE70448F8E76D580120FCCC00203A
S214001B80028000F0018000F0078000F008B50A4AE5
S214001B9012785AB107280BD8084A02EB00131B7BB1
S214001BA043B1012103F0BCFA002008BD0448FCE75D
S214001BB00448FAE70448F8E76D580120FCCC0020FA
S214001BC0028000F0018000F0078000F008B50A4AA5
S214001BD0127852B107280AD8084A02EB00131B7B7A
S214001BE03BB103F01FFB002008BD0548FCE7054895
S214001BF0FAE70548F8E700BF6D580120FCCC002046
S214001C00028000F0018000F0078000F00D4B1B788A
S214001C1093B1072812D889B10B4B03EB00131B7B3B
S214001C2073B10A4B1A6A012303FA00F010401ABF78
S214001C3000200B70087070470548704705487047CD
S214001C40054870476D580120FCCC002000200E404F
S214001C50028000F0018000F0078000F02DE9F843D4
S214001C60DFF86480D8F86070D8F86C301F4000D574
S214001C70FEE7144CDFF8549001260025374217D0B3
S214001C80C8F8686023689BB1A16862680131A160EA
S214001C9028469847637B012B0AD148B909EB4513C0
S214001CA01A7B60F341021A731A7F60F341021A77B7
S214001CB00135082D4FEA460604F11004DED1BDE8D2
S214001CC0F88300BFFCCC002000200E407CCD002016
S214001CD070B50C4E0446012504B970BD94FAA4F004
S214001CE0B0FA80F006EB001205FA00F324EA0304CB
S214001CF05368002BF0D0117B11B191689847EBE741
S214001D009847E9E77CCE002008B5122002F0CEFC0A
S214001D1028B1084B4FF48022C3F880211A600A20AD
S214001D2002F0C4FC28B1034B4FF48062C3F8802154
S214001D301A6008BD00E100E038B505460C4658F0CC
S214001D40F4FC054B03EB051300225C601A73BDE838
S214001D50384058F0F0BC00BF7CCE0020F8B50546F1
S214001D600F46164658F0E1FC104B05F0FC02D3F87F
S214001D7028140023EC1804F00304144321FA04FC8E
S214001D801CF0010F07D00133042BF3D1FF2458F0C9
S214001D90D2FC2046F8BDFF2CF9D0054B03EB04130C
S214001DA00122C3E901761A73F1E700BF00A00040E4
S214001DB07CCE0020054BD3F82804D3F81C24104012
S214001DC000F05530C3F82404FFF782BF00A000409F
S214001DD0054BD3F82804D3F81C24104000F0AA3092
S214001DE0C3F82404FFF774BF00A00040024B196834
S214001DF0024B18684FF03EBE181200201412002046
S214001E0037B5920004460D46019258F008FE431C72
S214001E100BD060B9019A2946204684F0D7FA0028EC
S214001E20044808BF002003B030BD0348FBE7034862
S214001E30F9E700BF10E000F021E000F024E000F039
S214001E4010B5044603F09AFA431C10D088B903F084
S214001E50B9FB20F0030023462044984201D100201D
S214001E6010BD53F8042B0132F7D00348F8E70348B7
S214001E70F6E70348F4E700BF0EE000F021E000F0CC
S214001E8024E000F00368024A934240F0048201E036
S214001E9000000140037A052B40F20A849A1F042AA8
S214001EA040F20884A3F10B02052A40F20584A3F150
S214001EB01102062A40F20284183B072B94BF052322
S214001EC0FF230B70437A042B40F2FA835A1F042A2E
S214001ED040F2F883A3F10A02052A40F2F583A3F143
S214001EE01002062A40F2F283A3F11702072A40F2F4
S214001EF0EF831F3B18BF4FF0FF33DBB28B70837A44
S214001F00032B40F2EF831A1F042A40F2E383A3F167
S214001F100902052A40F2E083A3F10F02062A40F2E6
S214001F20DD83A3F11602072A40F2DA831E2B00F0A7
S214001F30D9831F3B18BF4FF0FF33DBB20B71C37A58
S214001F40022B40F2D983DA1E042A40F2CD83A3F195
S214001F500802052A40F2CA83A3F10E02062A40F2BE
S214001F60C783A3F11502072A40F2C483A3F11D021A
S214001F70012A40F2C1831F3B18BF4FF0FF33DBB28C
S214001F808B71037A002B58D0012B56D0022B54D0DD
S214001F90032B52D0042B50D0052B4ED0062B00F02E
S214001FA0B583072B00F0B483082B00F0B383092B0E
S214001FB000F0B2830A2B00F0B1830B2B00F0BC8339
S214001FC00C2B00F09B830D2B00F09A830E2B00F059
S214001FD099830F2B00F09883102B00F09783112B1A
S214001FE000F09083122B00F08F83132B00F08E836B
S214001FF0142B00F08D83152B00F08C83162B00F02D
S2140020008B83172B00F08A83182B00F08983192BFB
S21400201000F088831A2B00F087831B2B00F0868342
S2140020201C2B00F085831D2B00F084831E2B00F0F4
S21400203083831F2B0CBF0723FF234B70437A002B91
S21400204000F08E83012B00F08D83022B00F08C8332
S214002050032B00F08B83042B00F08A83052B00F003
S2140020607383062B00F07283072B00F07183082B16
S21400207000F07083092B00F06F830A2B00F07A8340
S2140020800B2B00F079830C2B00F058830D2B00F0FF
S21400209057830E2B00F056830F2B00F05583102B22
S2140020A000F04E83112B00F04D83122B00F04C8372
S2140020B0132B00F04B83142B00F04A83152B00F0F3
S2140020C04983162B00F04883172B00F04783182B04
S2140020D000F04683192B00F045831A2B00F044834A
S2140020E01B2B00F043831C2B00F042831D2B00F0BB
S2140020F041831E2B00F040831F3B18BF4FF0FF3379
S214002100DBB2CB70837A002B00F04A83012B00F001
S2140021104983022B00F04883032B00F04783042BEF
S21400212000F03283052B00F03183062B00F030835D
S214002130072B00F02F83082B00F02E83092B00F0CE
S21400214037830A2B00F036830B2B00F017830C2BFB
S21400215000F016830D2B00F015830E2B00F0148371
S2140021600F2B00F00D83102B00F00C83112B00F0CA
S2140021700B83122B00F00A83132B00F00983142B19
S21400218000F00883152B00F00783162B00F014834D
S214002190172B00F00383182B00F00283192B00F096
S2140021A001831A2B00F000831B2B00F0FF821C2BF0
S2140021B000F0FE821D2B00F0FD821E2B00F0FC823C
S2140021C01F2B0CBF0123FF234B71C37A002B00F09B
S2140021D04186012B00F04186022B00F04186032B3E
S2140021E000F04186042B00F04186052B00F0418666
S2140021F0062B00F04186072B00F04186082B00F0E6
S2140022002086092B00F020860A2B00F044860B2B34
S21400221000F044860C2B00F01A860D2B00F0238667
S2140022200E2B00F03B860F2B00F01186102B00F0D3
S2140022301A86112B00F01A86122B00F01A86132B22
S21400224000F01A86142B00F01A86152B00F01A865A
S214002250162B00F01A86172B00F01A86182B00F0A3
S214002260F985192B00F0F9851A2B00F0F9851B2B40
S21400227000F0E7851C2B00F0E7851D2B00F002869A
S2140022801E2B00F002861F2B08BF022318BFFF2359
S214002290CB7100207047A14A93423FF4FBADA04AA1
S2140022A0934240F01183037A042B40F287825A1F30
S2140022B0032A40F28582A3F10902042A40F28282B0
S2140022C0A3F10E020E2A40F27F821D3B022B94BF22
S2140022D00A23FF230B70437A032B40F277821A1FE0
S2140022E0032A40F27582A3F10802042A40F27282A1
S2140022F0A3F10D020E2A40F26F82A3F11C02022AFD
S21400230040F26C821F3B18BF4FF0FF33DBB28B707E
S214002310837A022B40F26C82DA1E032A40F2608235
S214002320DA1F042A40F25E82A3F10C020E2A40F263
S2140023305B82A3F11B02022A40F258821E2B00F099
S21400234057821F3B18BF4FF0FF33DBB20B71C37AC7
S214002350012B40F257829A1E032A40F24B829A1FA4
S214002360042A40F24982A3F10B020E2A40F246826A
S214002370A3F11A02022A40F24382A3F11D02012AA7
S21400238040F240821F3B18BF4FF0FF33DBB28B7129
S214002390037A002B00F03E82012B00F03D82022BD8
S2140023A000F03C82032B00F03B82042B00F03A82C4
S2140023B0052B00F04582062B00F04482072B00F028
S2140023C02382082B00F02282092B00F025820A2B9C
S2140023D000F024820B2B00F023820C2B00F02282CC
S2140023E00D2B00F021820E2B00F02A820F2B00F01E
S2140023F02982102B00F00A82112B00F00982122B82
S21400240000F00882132B00F00782142B00F00682DF
S214002410152B00F00582162B00F00482172B00F017
S2140024200382182B00F00282192B00F001821A2B6F
S21400243000F000821B2B00F0FF811C2B00F0FE81B9
S2140024401D2B00F0FD811E2B00F0FC811F2B0CBF06
S2140024500223FF234B70437A002B00F0FB81012BF5
S21400246000F0FA81022B00F0F981032B00F0F881CE
S214002470042B00F00382052B00F00282062B00F0EE
S2140024800182072B00F0E081082B00F0E381092B86
S21400249000F0E2810A2B00F0E1810B2B00F0E081D6
S2140024A00C2B00F0DF810D2B00F0E8810E2B00F0E6
S2140024B0E7810F2B00F0C881102B00F0C781112B8D
S2140024C000F0C681122B00F0C581132B00F0C481EA
S2140024D0142B00F0C381152B00F0C281162B00F0E0
S2140024E0C181172B00F0C081182B00F0BF81192B7B
S2140024F000F0BE811A2B00F0BD811B2B00F0BC81C2
S2140025001C2B00F0BB811D2B00F0BA811E2B00F0A7
S214002510B9811F2B0CBF0523FF2303E000040140F5
S21400252000080140CB70837A002B00F0B381012BAA
S21400253000F0B281022B00F0B181032B00F0BC81C9
S214002540042B00F0BB81052B00F0BA81062B00F0AF
S2140025509B81072B00F09C81082B00F09B81092BA8
S21400256000F09A810A2B00F099810B2B00F09881DD
S2140025700C2B00F0A1810D2B00F0A0810E2B00F09B
S21400258083810F2B00F08281102B00F09B81112B92
S21400259000F07E81122B00F07D81132B00F07C81F1
S2140025A0142B00F07B81152B00F07A81162B00F09F
S2140025B07981172B00F07881182B00F07781192B82
S2140025C000F076811A2B00F075811B2B00F07481C9
S2140025D01C2B00F073811D2B00F072811E2B00F067
S2140025E071811F2B0CBF0623FF234B71C37A002B70
S2140025F000F05184012B00F05184022B00F042843D
S214002600032B00F04284042B00F04284052B00F0DC
S2140026102184062B3FF43CAE072B3FF439AE082B43
S2140026203FF436AE092B3FF433AE0A2B3FF430AE00
S2140026300B2B00F027840C2B00F027840D2B00F0CA
S21400264009840E2B00F009840F2B00F00984102B50
S21400265000F0F783112B00F0F783122B00F01B8499
S214002660132B00F01B84142B00F0F183152B00F0C5
S214002670FA83162B00F0FA83172B00F0FA83182B38
S21400268000F0FA83192B00F0FA831A2B00F0FA8375
S2140026901B2B00F0FA831C2B00F0FA831D2B00F096
S2140026A0DF831E2B00F0CD831F2B08BF0723EDE52D
S2140026B0002306E4012304E4022302E4032300E4E7
S2140026C000231BE4012319E4022317E4032315E483
S2140026D0052313E4012331E402232FE403232DE42E
S2140026E005232BE4002329E4012349E4022347E4DD
S2140026F0032345E4052343E4002341E407239CE445
S21400270008239AE4092398E40A2396E40B2394E426
S2140027100C2392E40D2390E40E238EE40F238CE426
S21400272000238AE4012388E4022386E4032384E466
S214002730042382E4052380E406237EE40823E0E401
S2140027400923DEE40A23DCE40B23DAE40C23D8E4D2
S2140027500D23D6E40E23D4E40F23D2E40023D0E4E2
S2140027600123CEE40223CCE40323CAE40423C8E412
S2140027700523C6E40623C4E40723C2E4082323E5AE
S214002780092321E50A231FE50B231DE50C231BE582
S2140027900D2319E50E2317E50F2315E5012313E591
S2140027A0022311E503230FE504230DE505230BE5BE
S2140027B0062309E5072307E5002305E5002389E549
S2140027C0082387E5012385E5052383E500239EE5A9
S2140027D008239CE501239AE5052398E50A2396E558
S2140027E00823B3E50123B1E50523AFE50A23ADE5EC
S2140027F00023ABE50823CAE50123C8E50523C6E5A3
S2140028000A23C4E50023C2E5022323E6032321E6C8
S21400281004231FE605231DE606231BE6072319E609
S214002820082317E6092315E60A2313E60B2311E609
S2140028300C230FE60D230DE60E230BE60F2309E609
S214002840002307E6012305E603236BE6042369E677
S214002850052367E6062365E6072363E6082361E6A5
S21400286009235FE60A235DE60B235BE60C2359E6A5
S2140028700D2357E60E2355E60F2353E6002351E6B5
S21400288001234FE602234DE60323AEE60423ACE61F
S2140028900623AAE60723A8E60823A6E60923A4E655
S2140028A00A23A2E60B23A0E60C239EE60D239CE655
S2140028B00E239AE60F2398E6002396E6012394E675
S2140028C0022392E6052390E6AF4A934240F0E9825F
S2140028D0037A072B40F21F82A3F10802012A40F276
S2140028E01C82A3F10A02052A40F21982A3F1100203
S2140028F0012A40F21682A3F11202052A40F2138240
S214002900A3F11802042A40F210821D3B022B94BF4A
S2140029100A23FF230B70437A062B40F20882DA1F45
S214002920012A40F20682A3F10902052A40F2038238
S214002930A3F10F02012A40F20082A3F11102052A38
S21400294040F2FD81A3F11702042A40F2FA81A3F1B6
S2140029501C02022A40F2F7811F2B0CBF0323FF2321
S2140029608B70837A052B40F2F0819A1F012A40F281
S214002970EE81A3F10802052A40F2EB81A3F10E02D4
S214002980012A40F2E881A3F11002052A40F2E5810F
S214002990A3F11602042A40F2E281A3F11B02022AE6
S2140029A040F2DF811E3B012B94BF0323FF230B71F4
S2140029B0C37A042B40F2D7815A1F012A40F2D581F0
S2140029C0DA1F052A40F2D381A3F10D02012A40F254
S2140029D0D081A3F10F02052A40F2CD81A3F11502A2
S2140029E0042A40F2CA81A3F11A02022A40F2C781E1
S2140029F01D3B022B94BF0323FF238B71037A002B0E
S214002A0000F0C381012B00F0C281022B00F0C181CF
S214002A10032B00F0C881042B00F0C781052B00F0C3
S214002A20C681062B00F0C581072B00F0C481082B59
S214002A3000F0B181092B00F0B0810A2B00F0A181D3
S214002A400B2B00F0A0810C2B00F09F810D2B00F0CB
S214002A509E810E2B00F09D810F2B00F0A481102B81
S214002A6000F0A781112B00F0A681122B00F0A581A3
S214002A70132B00F0A481142B00F08D81152B00F091
S214002A808C81162B00F08B81172B00F08A81182B77
S214002A9000F08981192B00F088811A2B00F08781BD
S214002AA01B2B00F086811C2B00F085811D2B00F06F
S214002AB084811E2B00F083811F2B0CBF0223FF2373
S214002AC04B70437A002B00F08281012B00F081814D
S214002AD0022B00F08681032B00F08581042B00F08A
S214002AE08481052B00F08381062B00F08281072B62
S214002AF000F08581082B00F06E81092B00F06181C3
S214002B000A2B00F060810B2B00F05F810C2B00F08D
S214002B105E810D2B00F05D810E2B00F062810F2B85
S214002B2000F06581102B00F06481112B00F06381AA
S214002B30122B00F06281132B00F06181142B00F041
S214002B404A81152B00F04981162B00F04881172B7F
S214002B5000F04781182B00F04681192B00F04581C4
S214002B601A2B00F044811B2B00F043811C2B00F035
S214002B7042811D2B00F041811E2B00F040811F2B4F
S214002B800CBF0823FF2301E0000C0140CB70837AC2
S214002B90002B00F03C81012B00F04181022B00F05D
S214002BA04081032B00F03F81042B00F03E81052B73
S214002BB000F03D81062B00F04081072B00F02981B4
S214002BC0082B00F01E81092B00F01D810A2B00F057
S214002BD036810B2B00F019810C2B00F018810D2B81
S214002BE000F01D810E2B32D00F2B30D0102B00F0B2
S214002BF02081112B00F01F81122B00F01E81132B59
S214002C0000F00781142B00F00681152B00F00581DB
S214002C10162B00F00481172B00F00381182B00F010
S214002C200281192B00F001811A2B00F000811B2B6A
S214002C3000F0FF801C2B00F0FE801D2B00F0FD80B6
S214002C401E2B00F0FC801F2B0CBF0923FF234B71AB
S214002C50C37A002B00F00781012B00F00781022BBE
S214002C6000F00781032B00F00781042B00F007819A
S214002C70052B00F00D81062B00F0EC80072B00F0F2
S214002C80E080082B00F0E080092B00F004810A2B7E
S214002C9000F004810B2B00F0DA800C2B00F0E380B0
S214002CA00D2B00F0E9800E2B00F0E9800F2B00F0D2
S214002CB0E980102B00F0E980112B00F0E980122B40
S214002CC000F0C880132B00F0C880142B00F0C880DA
S214002CD0152B00F0C880162B00F0C880172B00F0CC
S214002CE0C880182B00F0C880192B00F0C8801A2B5B
S214002CF000F0C8801B2B00F0C8801C2B00F0C8809A
S214002D001D2B00F0C8801E2B00F0C8801F2B08BFAC
S214002D100A23FFF7BBBA0323FCE50823FAE50123E1
S214002D20F8E50923F6E50223F4E50523F2E5032397
S214002D3016E6082314E6012312E6092310E602230A
S214002D400EE605230CE60A230AE603232FE60823ED
S214002D502DE601232BE6092329E6022327E6052391
S214002D6025E60A2323E6032347E6082345E6012350
S214002D7043E6092341E602233FE605233DE60A2310
S214002D803BE606239CE607239AE6082398E60923F3
S214002D9096E60A2394E6022392E6032390E60423AB
S214002DA08EE605238CE60B238AE60C2388E60D23A5
S214002DB086E60E2384E60F2382E6002380E60123C0
S214002DC07EE60623E2E60723E0E60823DEE609239E
S214002DD0DCE60A23DAE60323D8E60423D6E6052350
S214002DE0D4E60B23D2E60C23D0E60D23CEE60E2344
S214002DF0CCE60F23CAE60023C8E60123C6E6022374
S214002E00C4E6062323E7072321E709231FE70A234F
S214002E101DE703231BE7042319E7052317E70B2306
S214002E2015E70C2313E70D2311E70E230FE70F23F7
S214002E300DE700230BE7012309E7022307E7082332
S214002E4005E70623FFF724BA0723FFF721BA0A236C
S214002E50FFF71EBA0323FFF71BBA0423FFF718BABF
S214002E600523FFF715BA0B23FFF712BA0C23FFF75B
S214002E700FBA0D23FFF70CBA0E23FFF709BA0F237C
S214002E80FFF706BA0023FFF703BA0123FFF700BADD
S214002E900223FFF7FDB90823FFF7FAB90923FFF766
S214002EA0F7B90148704700BF022000F0F0B5984F10
S214002EB004460D460FCF8DB005AE0FC697E8070047
S214002EC086E80700002C00F021811DB9914D2846A8
S214002ED00DB0F0BD80220021204683F0AFFA2B68AB
S214002EE08D4A934240F0B5808C4BE3648C4BA362D2
S214002EF04FF44023E36226462B6846F8043B2F46F1
S214002F000FCF0FC697E8070086E807006B7D012BFA
S214002F1008BF8DF82230AB7D33B1012B40F0B8806E
S214002F204FF40073ADF824302B7D7E48012B0ABF8A
S214002F300023AB688DF821304FF0010108BF4FF435
S214002F40E133079300F038FF7748012100F034FFA3
S214002F50E06C012100F030FFEB681A1F0C2AB5D890
S214002F60033B28688DF8203005A957F09FFD6B6954
S214002F7023F47F0323F47F4323B92268136843F4C2
S214002F8080331360AA792B7921686879EE7D120662
S214002F9042EA032303438A6F002E40F0848002F047
S214002FA0E0321343EA7943EA02438B6723680F2231
S214002FB05A6703A92046FEF765FF0546002886D116
S214002FC09DF8123084F840309DF8133084F8413074
S214002FD0237E9DF80C009DF80D10002B6CD104226A
S214002FE0019302F04BF8019B9DF80F109DF80E0020
S214002FF0012202F043F8A27E9DF811109DF8100001
S214003000012A94BF019B0123042202F037F8E37ED5
S2140030103BB90123042294F8411094F8400002F0D2
S2140030202DF857F082FB414B1A78002A62D1012214
S2140030301A7057F080FB05F097FEFEF751FD002151
S21400304004F12000FEF7D4FC0146002855D0384D88
S2140030503DE7384A934206D1374BE364374BA362C9
S2140030604FF4502346E7364A934206D1354BE36485
S214003070354BA3624FF460233CE7344A93427FF417
S21400308025AF334BE364334BA3624FF4702331E731
S214003090022B02D14FF4807344E7032B7FF416AF64
S2140030A04FF440733EE722F01F2222F01F02134324
S2140030B08B6723680B227BE72B46012201F0DEFF9D
S2140030C09DF80F109DF80E002B46042201F0D6FF47
S2140030D0A37E9DF811109DF81000012B94BF2B467F
S2140030E00123022201F0CAFFE37E002B99D10123BF
S2140030F0022290E757F01FFB9FE704F12400FEF73B
S21400310077FC054600283FF4E2AEA0E7124DDEE667
S21400311044010900022000F00000014000420400C3
S21400312001000C004041050000350A006E580120E1
S214003130092000F0000401400052040001000D00C8
S214003140000801400062040001000E00000C01406F
S2140031500072040001000F00012000F038B141B1F8
S214003160013AB2F5006F044838BF002070470348A4
S21400317070470148704700BF037000F0027000F00F
S21400318013B51E4A002352F8044B94F821108142CE
S2140031900ED00133042BF6D102B010BD0028FBD1AF
S2140031A09DF80730002BF7D0A068FEF7CFFCF3E7BA
S2140031B094F83530022BEFD1204657F0CEF9637ED7
S2140031C02076022BE8D194F8323003F0FF02002B71
S2140031D0E2D1A0688DF807200DF10701FEF716FD75
S2140031E0237E1BB194F83330002BD7D00023A06881
S2140031F084F83330FEF7CAFCCEE700BF6CD7002059
S21400320030B51049104A0B782BB9C2E90033C2E931
S214003210023301230B700C4C0023214651F8045B4B
S214003220854208D00133042BF8D1002154F8043B22
S2140032301BB942F82100002003E001310429F5D132
S214003240024830BD6F5801206CD70020027000F095
S21400325010B50446FEF744FC002104F10800FEF712
S214003260C7FB014620B904F10C00FEF7C1FB00B114
S214003270004810BD0E7000F010B5044680B190F8FE
S21400328032302BB957F069F910B9A068FEF75EFC2A
S21400329094F832300133DBB284F83230002010BDAF
S2140032A00048FCE7027000F010B50446A0B190F8A4
S2140032B032309BB190F83230012B05D157F04DF9E2
S2140032C010B9A068FEF762FC94F83230013BDBB21E
S2140032D084F83230002010BD0148FCE70148FAE7C8
S2140032E0027000F0057000F0F0B5094F05460C4678
S2140032F00FCF89B001AE0FC697E8070086E8070033
S214003300002D00F0C3843CB9024E304609B0F0BD33
S21400331060010900037000F060220021284683F057
S2140033208DF82846FFF76CFF06460028EDD1237C73
S21400333085F8353023682B6085F836002368A64A62
S214003340934240F09381A54B6B62A54B2B614FF4E3
S21400335040236B61D4E906230026AA621680AA6A77
S214003360A0485680AA6A9680EB6285F830601E8078
S214003370EB6A5E80EB6A9E8085F8316085F8336084
S214003380636803936389ADF81430A389ADF81230EF
S214003390A37B8DF810300121E37B8DF816300527CE
S2140033A08DF8117000F008FD8F48012100F004FD33
S2140033B0686A012100F000FD01A920688DF804600C
S2140033C057F036FB2368617A9A6F22F4F85222F09F
S2140033D01F020A43217A42EA01229A6722687E493E
S2140033E0032353672A688A4240F05F81227ABA42F2
S2140033F040F27281911F042940F27081A2F10B0104
S214003400B94240F26D81A2F11101062905D9183A98
S214003410072A98BF3B4688BFFF23EB76637A042BC8
S21400342040F260815A1F042A40F25E81A3F10A022C
S214003430052A40F25B81A3F11002062A40F2588169
S214003440A3F11702072A40F255811F3B18BF4FF021
S214003450FF33DBB22B77237A002B58D0012B56D0C4
S214003460022B54D0032B52D0042B50D0052B4ED019
S214003470062B00F04981072B00F04881082B00F04E
S2140034804781092B00F046810A2B00F045810B2B63
S21400349000F050810C2B00F02F810D2B00F02E81B8
S2140034A00E2B00F02D810F2B00F02C81102B00F03E
S2140034B02B81112B00F02481122B00F02381132B7B
S2140034C000F02281142B00F02181152B00F02081C2
S2140034D0162B00F01F81172B00F01E81182B00F012
S2140034E01D81192B00F01C811A2B00F01B811B2B51
S2140034F000F01A811C2B00F019811D2B00F018819A
S2140035001E2B00F017811F2B0CBF0723FF23EB7722
S214003510637A002B00F0A283012B00F0A183022B1C
S21400352000F08A83032B00F08983042B00F0888345
S214003530052B00F08783062B00F08683072B00F010
S2140035408583082B00F08483092B00F083830A2BE5
S21400355000F068830B2B00F067830C2B00F066836B
S2140035600D2B00F065830E2B00F064830F2B00F00C
S2140035706983102B00F05C83112B00F05B83122B09
S21400358000F06083132B00F05F83142B00F05E8343
S214003590152B00F05D83162B00F05C83172B00F0D4
S2140035A05B83182B00F05A83192B00F059831A2BD3
S2140035B000F042831B2B00F041831C2B00F040835D
S2140035C01D2B00F02F831E2B00F02E831F3B18BFF1
S2140035D04FF0FF33DBB209E0000001400042040078
S2140035E001000C004041050000350A0085F8203037
S2140035F0637C6B77A37C85F82130E37CAB77237DF7
S21400360085F822300121284656F037FF0646002866
S2140036107FF47BAE57F089F8237C032B074640F0F7
S21400362023832368228CDA672268536E43F00403F0
S21400363053662268536F43F03003536723684FF096
S214003640FF329A64237C2068032B0CBF05210421DB
S21400365057F0E7F923684FF44062DA602846FFF730
S214003660F7FD0646384657F066F84EE6B24A9342ED
S21400367006D1B24B6B62B24B2B614FF4502368E617
S214003680B04A934206D1B04B6B62B04B2B614FF4FD
S21400369060235EE6AE4A93427FF436AEAD4B6B6275
S2140036A0AD4B2B614FF4702353E6A3498A4243D1B6
S2140036B0227A052A10D9911F04290FD9A2F10B01ED
S2140036C005290DD9A2F1110106297FF6A6AE183AF2
S2140036D0072A98BF05239EE633469EE601239CE60E
S2140036E002239AE60023B5E60123B3E60223B1E6F9
S2140036F00323AFE60523ADE6072308E7082306E71E
S214003700092304E70A2302E70B2300E70C23FEE65F
S2140037100D23FCE60E23FAE60F23F8E60023F6E672
S2140037200123F4E60223F2E60323F0E60423EEE6A2
S2140037300523ECE60623EAE682498A4240F0408109
S214003740227A042A40F20A81531F032B40F2088192
S214003750A2F10903042B40F20581A2F10E030E2B01
S21400376040F202811D3A022A94BF0A23FF23EB7619
S214003770637A032B40F2FA801A1F032A40F2F8807D
S214003780A3F10802042A40F2F580A3F10D020E2AE6
S21400379040F2F280A3F11C02022A40F2EF801F3BA7
S2140037A018BF4FF0FF33DBB22B77237A002B00F0E5
S2140037B0ED80012B00F0EC80022B00F0EB80032B59
S2140037C000F0EA80042B00F0E980052B00F0F4807E
S2140037D0062B00F0F380072B00F0D280082B00F0B9
S2140037E0D180092B00F0D4800A2B00F0D3800B2B5D
S2140037F000F0D2800C2B00F0D1800D2B00F0D08092
S2140038000E2B00F0D9800F2B00F0D880102B00F084
S214003810B980112B00F0B880122B00F0B780132B64
S21400382000F0B680142B00F0B580152B00F0B480A5
S214003830162B00F0B380172B00F0B280182B00F088
S214003840B180192B00F0B0801A2B00F0AF801B2B34
S21400385000F0AE801C2B00F0AD801D2B00F0AC807D
S2140038601E2B00F0AB801F2B0CBF0223FF23EB7731
S214003870637A002B00F0D681012B00F0D581022B55
S21400388000F0D481032B00F0D381042B00F0E481F8
S214003890052B00F0E381062B00F0E281072B00F0F9
S2140038A0CB81082B00F0BE81092B00F0BD810A2BCE
S2140038B000F0BC810B2B00F0BB810C2B00F0BA8112
S2140038C00D2B00F0C9810E2B00F0C8810F2B00F0E5
S2140038D0B381102B00F0B281112B00F0B181122BB6
S2140038E000F0A081132B00F09F81142B00F09E8126
S2140038F0152B00F09D81162B00F09C81172B00F0F5
S214003900A181182B00F0A081192B00F09F811A2BA3
S21400391000F09E811B2B00F09D811C2B00F09C81EB
S2140039201D2B00F09B811E2B00F09A811F2B08BFD9
S214003930052318BFFF2359E6000401400052040087
S21400394001000D00000801400062040001000E00A6
S214003950000C01400072040001000F00334606E729
S214003960082304E7012302E73B4600E700231BE7A2
S214003970082319E7012317E7052315E70A2313E7AA
S214003980022374E7032372E7042370E705236EE738
S21400399006236CE707236AE7082368E7092366E738
S2140039A00A2364E70B2362E70C2360E70D235EE738
S2140039B00E235CE70F235AE7002358E7012356E758
S2140039C0A8498A427FF4A0AC227A072A1DD9A2F120
S2140039D00803012B40F2EE80A2F10A03052B40F209
S2140039E0EB80A2F11003012B40F2E880A2F1120353
S2140039F0052B40F2E580A2F11803042B40F2E2808A
S214003A001D3A022A94BF0A23FF23EB76637A062B1D
S214003A1040F2DA80DA1F012A40F2D880A3F10902C8
S214003A20052A40F2D580A3F10F02012A40F2D28087
S214003A30A3F11102052A40F2CF80A3F11702042A4F
S214003A4040F2CC80A3F11C02022A40F2C9801F2B50
S214003A500CBF0323FF232B77237A002B00F0C680AE
S214003A60012B00F0C580022B00F0C480032B00F071
S214003A70CB80042B00F0CA80052B00F0C980062BF3
S214003A8000F0C880072B00F0C780082B00F0B48039
S214003A90092B00F0B3800A2B00F0A4800B2B00F05B
S214003AA0A3800C2B00F0A2800D2B00F0A1800E2B23
S214003AB000F0A0800F2B00F0A780102B00F0AA804B
S214003AC0112B00F0A980122B00F0A880132B00F019
S214003AD0A780142B00F09080152B00F08F80162BFB
S214003AE000F08E80172B00F08D80182B00F08C8055
S214003AF0192B00F08B801A2B00F08A801B2B00F00D
S214003B0089801C2B00F088801D2B00F087801E2BE0
S214003B1000F086801F2B0CBF0223FF23EB77637A0F
S214003B20002B00F08580012B00F08480022B00F033
S214003B308980032B00F08880042B00F08780052BFB
S214003B4000F08680062B00F08580072B00F088802A
S214003B50082B71D0092B65D00A2B65D00B2B65D0AE
S214003B600C2B65D00D2B65D00E2B6BD00F2B6FD08A
S214003B70102B6FD0112B6FD0122B6FD0132B6FD052
S214003B80142B59D0152B59D0162B59D0172B59D08A
S214003B90182B59D0192B59D01A2B59D01B2B59D06A
S214003BA01C2B59D01D2B59D01E2B59D01F2B08BFAC
S214003BB00823BEE6082328E7012326E7092324E78F
S214003BC0022322E7052320E7032344E7082342E7EE
S214003BD0012340E709233EE702233CE705233AE7B3
S214003BE00A2338E7062399E7072397E7082395E78C
S214003BF0092393E70A2391E702238FE703238DE740
S214003C0004238BE7052389E70B2387E70C2385E747
S214003C100D2383E70E2381E70F237FE700237DE74D
S214003C2001237BE70623E1E40723DFE40823DDE442
S214003C300923DBE40A23D9E40323D7E40423D5E4E9
S214003C400523D3E40B23D1E40C23CFE40D23CDE4EA
S214003C500E23CBE40F23C9E40023C7E40123C5E405
S214003C600223C3E4000C0140022B7FF4E7AC95F876
S214003C7021000849FEF760F8FEF746F84FF4007397
S214003C802B83AE76284656F00BFDD7E4024EFFF7A0
S214003C903CBB00BF81310000027000F00C4B984224
S214003CA010D90C4B984210D9022201230A490B6402
S214003CB00A49D1F8003123F0807343EA0263C1F861
S214003CC00031704700221346F0E70122FBE700BFF1
S214003CD00048E8010090D0030000C84300400E40B2
S214003CE030B50F4B5B680F4B00221C46C9B21D79DE
S214003CF08D4202D11D6885420DD20132052A03F19C
S214003D000803F4D1032206494B6823F0407343EAC4
S214003D1002634B6030BD04EBC2025279F3E700BF8A
S214003D2000000E40B801090070B5084C41F6713627
S214003D30256C2664FDF7EEFC0021FFF7D1FFADB23F
S214003D40B5421CBF0023236470BD00BF00000E40B8
S214003D50044BDB6B5B0604D4034AD2F8C830002B56
S214003D60FBD1704700300E400000C64308B5FFF791
S214003D70EFFF024B5868C0F3014008BD00300E400C
S214003D80044BD3F84421D20703D4D3F84021104281
S214003D90FBD1704700400E4070B5064C41F67136B8
S214003DA0256C2664FFF79CFFADB2B5421CBF00230E
S214003DB0236470BD00000E4038B5C0F30323013BFA
S214003DC0092B16D8DFE803F02616151505191C155D
S214003DD01F23124C0023C0F3043513B11846FFF717
S214003DE0CFFF04F1424404F5801405EBC404A4009C
S214003DF0216038BD0A4C0023EDE70A4C0123EAE7B0
S214003E00094C1023E7E7094C4FF48033E3E7084CEE
S214003E100023E0E7074C0023DDE700BFB0400E407C
S214003E20C0400E40E0400E40E8400E40F0400E40DD
S214003E3050410E4000400E40C0F30313013B092BD7
S214003E402AD8DFE803F0050B0F1929291F23374B63
S214003E50274BD3F80001C0F304207047244BD3F857
S214003E601401F8E7224BD3F80001C0F30060431CAE
S214003E7001209840013870471D4BD3F80C01C0F361
S214003E80082070471A4BD3F80801F8E7194B9842F8
S214003E9004D0194B984207D000207047144BD3F833
S214003EA0203103F00F03E3E7114BD3F82031C3F3BF
S214003EB00113DDE7114B98420CD003F5B01303F560
S214003EC080539842E8D10A4BD3F82801C0F301206A
S214003ED0031DCDE7064BD3F82831E8E7084B984298
S214003EE0DAD1034BD3F8300100F00300704700BF6F
S214003EF000400E408006160080162E0090171A000E
S214003F00A009140000F00F000138072844D8DFE8A5
S214003F1000F0040F1943232D4335244BD3F8943077
S214003F2003F00703023B052B38D8214AD05C7047C4
S214003F301E4BD3F8803003F00703013B032B2FD82A
S214003F401C4AF3E7194BD3F8843003F00703013B10
S214003F50032B25D8184AE9E7144BD3F8883003F02A
S214003F600703013B032B1BD8144ADFE70F4B1B6FDD
S214003F7013F0010F0CBF0720092070470B4BD3F836
S214003F805C3103F03003202B0CD0302B0CD0102BE0
S214003F9014BF012007207047002070470520704797
S214003FA001207047042070470820704700400E40EC
S214003FB08C0109009201090096010900920109008E
S214003FC008B50146FFF79EFF1A4B994211D01A4BCF
S214003FD0994212D0194B994204D1194BD3F880005C
S214003FE000F007000138032821D8DFE800F00A0EA9
S214003FF01612134BD3F88400F2E7114BD3F888005F
S214004000EEE7BDE8084056F0F4B8BDE80840FDF716
S214004010E5BBBDE8084056F0EFB8FDF77FFB084B60
S214004020D3F80031C3F300630133D84008BD002045
S214004030FCE700BF030020000500240002001E006D
S21400404000400E4000F47813B3F5B01F10B50446D8
S21400405074D025D8B3F5402F5ED010D8B3F5802F96
S21400406049D005D83BB1B3F5003F4FD0002010BD76
S214004070B3F5202FFAD1BDE81040FDF74FBBB3F5DE
S214004080801F00F08480B3F5A01F4DD0B3F5602FDD
S214004090ECD14A48FFF736FF072878D00928E9E729
S2140040A0B3F5381F53D013D8B3F5001F58D00AD82D
S2140040B0B3F5D01F56D0B3F5F01FD7D14048BDE8B2
S2140040C01040FFF77DBFB3F5101FCFD13D48F6E790
S2140040D0B3F5481F4DD0B3F5781F65D0B3F5401F34
S2140040E0C4D13948FFF76CFF384BD3F82831C3F3F7
S2140040F00123043320E0FDF711FB344BD3F80C31D9
S214004100C3F308230133B0FBF3F0B0E7FDF706FB7B
S2140041102E4BD3F80831F3E7FDF700FB2B4BD3F813
S2140041201431C3F30423EDE72648FFF749FF274B76
S214004130D3F8303103F00303D84098E72048FFF760
S2140041403FFF224BD3F8203103F00F03F4E71C485F
S214004150FFF736FF1D4BD3F82031C3F30113EBE70F
S2140041601948ACE71848FFF72BFF184BD3F828314F
S214004170F3E71748FFF7C6FE072808D0082809D037
S21400418004287FF473AFBDE81040FDF703BB114B66
S21400419018686CE7FDF7C2FA0C4BD3F80031C3F38E
S2140041A0042303FB000062E7FDF7B8FA0146204649
S2140041B056F0AFFAB1FBF0F059E700BF06000E006C
S2140041C002001E00050024000300200000400E40F0
S2140041D0B80032003812002010B5FFF7A5FD094BD5
S2140041E007225A67FDF79AFAFFF758FDFDF7C0FA5F
S2140041F00446FFF7BBFD01462046BDE81040FFF72A
S214004200CBBD00BF00400E4008B5FFF77BFE02287E
S2140042100ABF024B4FF6FF70188808BDD61600205E
S214004220014B1880704700BFD6160020014B18803F
S214004230704700BFD416002010B5042813D8DFE856
S21400424000F047032F132100294AC1F30801D2F8D2
S2140042506838002BFBD1274A136A23F4FF7323F038
S21400426001031943116210BD214A01F07F01D2F803
S2140042706038002BFBD11F4A136923F07F031943D4
S2140042801161F0E71A4A01F07F01D2F86438002B7A
S214004290FBD1184A936923F07F0319439161E2E743
S2140042A0144AD2F89030536A23F0300343F01003D8
S2140042B05362146B104BC1F3C31003300F2803EA8C
S2140042C0040328BF0F20194341EA00711163CAE7AF
S2140042D04F29074A28BF4F21D2F87438002BFBD14C
S2140042E0044A936B23F07F0319439163BBE700BF37
S2140042F00020C84300400E4000F8FF0F104A536AE3
S21400430013F0300F18D0202913D0302914D00029EC
S2140043100C4B08BF4FF44003D2F8901033EA01016B
S214004320FAD15B0246BFD2F8A000C0F3802001207D
S21400433070474FF40003EFE74FF44003ECE700BF8D
S21400434000400E40FF33E10702280AD129B1064B90
S2140043504FF48060C3F8A800596612B10220FFF738
S214004360CDBF0120704700BF00400E400428F8B5BE
S21400437045D8314B314F13F800C0314B1B5C002938
S21400438043D0304C022834F8106039D17C6A14F0DF
S214004390300F35D12C4CE46B7C6AE40705D57D6A7A
S2140043A025F0300545F010057D62244C2666274C26
S2140043B023449B001D68002DFCD002B36444A40077
S2140043C02368002BFCD0022819D1C1B11B4D696AA5
S2140043D011F0010116D001222021FFF7B5FFD5F814
S2140043E09C70012200210220FFF7C0FFC7F30A01DC
S2140043F00220FFF721FF2E662368002BFCD0F8BDB5
S2140044000021D2E7FFF77AFFE9E7114931F81010EB
S2140044103966012101FA03F3D7F890101942FBD14F
S214004420002AECD00124054A04FA0CF4D2F89030A5
S2140044302342FBD1E3E700BF9A01090000400E408B
S2140044409F010900A401090000300E408004F2100C
S214004450AE01090010B50446C0B901221146FFF7A7
S21400446085FFFFF761FCB4B90D4B04225A67FDF7D0
S21400447055F9FFF713FCFDF77BF90446FFF776FCCA
S21400448001462046BDE81040FFF786BC0128E8D16B
S21400449002460146E3E7012CE9D1014B0322E5E79A
S2140044A000400E4038B5FDF775F90021044600F0CF
S2140044B03DFB1248FFF7F2FB012211460220FFF7F0
S2140044C055FFFFF731FC0CB1FFF742FC0C4B022204
S2140044D05A67FDF723F9FFF7E1FBFDF749F90546B3
S2140044E0FFF744FC01462846FFF756FC2CB9204649
S2140044F00121BDE8384000F019BB38BD0148E8018D
S21400450000400E4070B5184B1C68184B9C4227D9CB
S2140045100021204600F00AFB1548FFF7BFFB0122EA
S21400452011460320FFF722FFFFF7FEFB0CB1FFF753
S2140045300FFC104B01265E67FDF7F0F8FFF7AEFBA9
S214004540FDF716F90546FFF711FC01462846FFF76A
S21400455023FC3CB931462046BDE8704000F0E6BA80
S2140045600024D9E770BD00BF0C120020002D3101D9
S2140045700148E80100400E40012210B51146032014
S214004580FFF7F4FEFFF7D0FB084B05225A67FDF74E
S214004590C5F8FFF783FBFDF7EBF80446FFF7E6FBED
S2140045A001462046BDE81040FFF7F6BB00400E402F
S2140045B010B504461120FFF7A5FC002101220220B9
S2140045C0FFF7D4FE184A217C536A23F00103022920
S2140045D008BF43F001035362144B2178C3F8A014BC
S2140045E0A188637A43EAC123D362136BA07A217A47
S2140045F003F07F630343E08843EAC02343EAC11322
S21400460003310F2928BF0F2143EA01731363A37BED
S214004610617B1B0143EA0133E17B0B43217B43EAC9
S2140046200143536310BD00BF00400E400000C84366
S21400463038B50E4D01461120FFF764FCAA6B0C4BF3
S2140046400C7813401C434B7844EAC3248B7844EA26
S2140046500364CB7844EA0324AB6BA34205D0002165
S21400466001220846FFF782FEAC6338BD00400E40CC
S21400467080E4FFF80028A7BF00F1604000F5614025
S21400468000F00F00034BACBF90F80003185C400925
S214004690704700BF14ED00E0034B5868C0F30800F5
S2140046A0003818BF0120704700ED00E04209054BB6
S2140046B053F8223000F01F0023FA00F0C04300F049
S2140046C00100704700E100E008B50146EFF31083F3
S2140046D0DB0702D50122104608BDFFF7E7FF0246BA
S2140046E00028F7D10846FFF7C5FF0146EFF3118310
S2140046F013B1B0EB531FEDD2074B5B68C3F308034F
S214004700002BE8D0103B58B2FFF7B4FF88428CBFAE
S21400471000220122DFE700BF00ED00E0034BD86B6C
S21400472080F04000C0F38010704700BF00300E409D
S21400473042EA0323B3F5007F39D016D8B3F5807F5D
S21400474031D007D85BB3012B1ED00022134603607E
S2140047500A60704740F201129342F6D1184BD3F824
S21400476024321A0EC3F30743F1E7B3F5407F22D095
S21400477040F2013293420ED040F201229342E4D13D
S2140047800F4BD3F8283202E00D4BD3F82432C3F394
S2140047900722DBB2DBE70A4BD3F82832E1E7084B07
S2140047A0D3F81C32F3E7064BD3F81C32D9E7044B98
S2140047B0D3F82032EBE7024BD3F82032D1E700BF24
S2140047C00081E00F08B5FFF7A9FF20B1024AD2F832
S2140047D0C830002BFBD108BD0000C64308B5FFF764
S2140047E09DFF80B1FFF7EEFF074B19685A68C1F3CB
S2140047F00121C2F3014291421A688CBF42F01002B6
S21400480022F010021A6008BD00300E40064B1B68EE
S214004810DB0608D5054B1B69C3F30443082B02BF10
S214004820034B044A1A60704700300E4000400E40AA
S2140048300C120020C0EA210137B5FFF76FFF38B130
S2140048402E4B1B78C3F10202102393402C4A1361AF
S2140048502C492D4DD1F8804145F60E03C1F8803124
S2140048602B6823F0AA03DB05DB0D0B66FFF7AAFF18
S214004870234B1B68D80604F0010416D5D1F8403146
S214004880DA01FBD4214B1B680B61214B1B78052BEF
S2140048900BD1204B18680190FFF794FF184B019836
S2140048A05968C1F30141FFF777FA194B1B78023BB1
S2140048B00A2B0AD8DFE803F00616180909090909C1
S2140048C0091B1E000020FFF7C5FD2B68DB075EBF37
S2140048D00C4B02221A661CB10A4B0022C3F8802138
S2140048E003B030BD0120EEE7FFF7DCFDEDE7FFF794
S2140048F043FEEAE7FFF770FCE7E700BF72580120C7
S21400490000300E4000400E407CD7002080D70020AC
S214004910705801200C12002010B50B4C0B4BD4F82D
S21400492090201A601120FFF7EDFA094B1870FFF778
S21400493049FF084B084A5B68C3F301431370074BF3
S21400494022691A6010BD00BF00400E407CD70020D0
S2140049507058012000300E407258012080D7002089
S214004960064A4178136823F4407343EA0123136030
S2140049704378022B04BF024B5B6A704700300E4040
S21400498000400E4010B5044608B1FFF7C5FFFFF71C
S21400499025FF164A136943F00403136156F016F810
S2140049A056F015F8124B1B68DB0618D555F0B6FE08
S2140049B08BF07AFB55F0B6FE56F00AF804F082F853
S2140049C07CB1FFF739FF0A4AD2F84C3123F0004396
S2140049D0C2F84C3144B9BDE81040FCF7C9BE30BF40
S2140049E0EAE7FFF713FFEEE710BD00BF00ED00E0BB
S2140049F000300E4038B5044608B1FFF78DFFFFF7CC
S214004A00EDFE1B4B1B4DD3F8802145F60E01D20759
S214004A10C3F8801148BF00224FF42071196648BFC2
S214004A20C3F88021144A136943F00403136155F058
S214004A30CDFF2B68DB0615D555F070FE8BF034FBEA
S214004A4055F070FE04F03EF874B1FFF7F5FED5F8A9
S214004A504C3123F00043C5F84C3144B9BDE838402A
S214004A60FCF786BE30BFEDE7FFF7D0FEEFE738BDB8
S214004A7000400E4000300E4000ED00E070B50378B8
S214004A80124A002B4378946914BF04260026002B94
S214004A90837814BF02250025002B037924F03F04F9
S214004AA043EA0403C47814BF08210021012C08BF80
S214004AB043F0010333432B430B439361136841795F
S214004AC023F4403343EA0143136070BD00300E40C8
S214004AD070B504460E46FFF721FE10B3FFF772FED0
S214004AE0104B5B68C3F301439C421AD00E4BD3F8BD
S214004AF00031FCF713FE022C054602D12146FFF7D3
S214004B004BF9C4F1020210239340064A13610EB11A
S214004B10FFF758FE2CB921462846BDE87040FFF73F
S214004B203BB970BD00300E4000400E4013B5024643
S214004B30FFF7F4FDC8B152B90D4B0191D3F800410F
S214004B40FCF7ECFDC4F30422019902FB0002094BBA
S214004B501B7843B1084B9A4205D8022002B0BDE844
S214004B601040FFF7B5BF0020F8E702B010BD00BF49
S214004B7000400E4071580120002D3101034B027891
S214004B801A7001210020FFF7D1BF00BF7158012025
S214004B9010B5224B4AF6E852596B5A639A6FD20701
S214004BA0FCD41B6C13F003031EBF1D4A0124C2F87D
S214004BB0B44A834204D110B9194BC3F8B40A10BDE5
S214004BC0032B00D09BB9431E012B10D8134A4FF479
S214004BD00023D362936FDB07FCD4136C23F003032C
S214004BE043F0010313640D4A536A1C03FCD50B4BB8
S214004BF09A6FD207FCD41A6C22F0030202431A649E
S214004C009A6F12F00102FBD10038054C18BF012044
S214004C100129C4F8B40A08BF5A63D0E700300E4032
S214004C200000C6432DE9F04F002389B0CDE90233DA
S214004C30CDE90433CDE90633A0F5E163B3F5966F0D
S214004C4004460D46914604D90025284609B0BDE81D
S214004C50F08FB0F5E16F674B8CBF0122002240F069
S214004C60BC80D3F81832C3F30721DBB20791049354
S214004C704FF4167A4FF4966BDFF87C81D8F84C70B8
S214004C800192C7F301773B4605A902A8FFF750FD3E
S214004C90D8F8EC60019AC6F30126334606A903A8A5
S214004CA0FFF746FD049B0799A4EB0B0EA1EB030C44
S214004CB00EFB0CFCBCFBFAF213EB020C2CBF012320
S214004CC000236145C0D3002BBED1069A0398131A61
S214004CD00EFB03F3B3FBFAF3C0182CBF012300232B
S214004CE08242B1D3002BAFD1059B02995A1A0EFB14
S214004CF002FEBEFBFAFA11EB0A012CBF4FF0010EC2
S214004D004FF0000E8B429FD3BEF1000F9CD1B9F13D
S214004D10000F10D0D8F85C2022F4FE4222F00202E7
S214004D20B4F5E16F42EA0C2218BF4FF0020E42EAD9
S214004D300E02C8F85C20002D4DD02E4B022FD3F863
S214004D4030223ED0032F3FD0012F14BFD2B2C2F381
S214004D500722120312F4702F7FF476AF264FFB6EF5
S214004D6023F470431A43234BFA66022ED3F83022FC
S214004D702CD0032E2DD0012E14BFD2B2C2F30722A0
S214004D80120312F4702F7FF45FAF1B4ED6F8EC3090
S214004D9023F470431A43C6F8EC20736E814238BF82
S214004DA0014623F4FF73E72923F0010328BFE72118
S214004DB0B4F5E16F18BF43F0010343EA410373669D
S214004DC043E7C2F30742C4E7120EC2E7C2F3074244
S214004DD0D6E7120ED4E7012537E7D3F81832190EB6
S214004DE0C3F30743079104934FF4966A4FF4E16BBD
S214004DF042E700BF0081E00F00300E40304B1A6FD4
S214004E00D96C11F0010F02F0060244D0002A42D0FD
S214004E10132851D9143813288CBF10230823284987
S214004E20013BCA6C180322F47F4240EA0323134373
S214004E30CB64244BCA6C1B88C2F30322283301328E
S214004E4002EB820003EB5303B3FBF0F3C86C013BA9
S214004E50072B28BF072320F0EE6040EA036343F4E5
S214004E608013CB64184BB3F90030002B12DB03F130
S214004E702800C0F34E030344500800EB4202B3FB85
S214004E80F2F20B6D072A28BF072223F0700343EACD
S214004E9002120A657047D96C01F00101114304D172
S214004EA0092809D90A380928B6E7DB6C13F001038C
S214004EB0B5D01AB92728AFE70423B0E70023AEE73A
S214004EC000300E403655012038550120064A074B63
S214004ED0D3F88039136F23F007031843044B106789
S214004EE01888FFF78BBF00BF00300E400000C64397
S214004EF03455012038B5374A02239363936B03F089
S214004F000F03022B044602D00025284638BDE3884E
S214004F10B0F90C004A2B50D9B3F5FA7F4FD340F6C0
S214004F20C3118B4294BF4FF000514FF04051D36CE9
S214004F3023F0405323F001030028A8BF43F00103E9
S214004F400B43D364D2F8EC3043F44073C2F8EC3031
S214004F50214BA1881980D36E43F08073D3661F4B14
S214004F60D3F8800900B10420FFF7B0FF1C4B21895D
S214004F7019801C4BB4F90C20A0881A80FFF73EFF5E
S214004F80A37BFBB1012B21D0012260881146FFF7DD
S214004F9049FE05460028B7D00E4AD36B43F480631B
S214004FA0D3636078FFF7F4FDA37AA3F1200253429F
S214004FB053410A4AC2F89437A7E70021B7E74FF0F3
S214004FC08051B4E7034B084A9A65DDE7014B074A70
S214004FD0FAE700BF00300E40345501200000C643FB
S214004FE0365501203855012077402057372110B715
S214004FF0072AF8B501F0030614461F464FF00F01C6
S21400500020D8950000FA05F2A940164855F0E5FCB0
S2140050100321154806FA05F2A94055F0DEFC1349AF
S2140050209DF818302144890001220F60C1F88030B5
S2140050300F4B02FA04F4C3F824449DF81C30C1F860
S2140050400033F8BDA2F10805AD0000FA05F2A9404C
S214005050084855F0C2FC0321074806FA05F2A940A5
S214005060DBE700BF00A4004008A4004080208510B5
S21400507000A0004004A400400CA4004000EB400048
S214005080F8B50D461F46040116463AB116480123E8
S2140050908B402044CFB100F1C0600360072D4FF075
S2140050A00F0115D8AB00114806FA03F299402044C8
S2140050B055F093FC46B90C4A012101FA05F5224445
S2140050C077B102F1C0621560F8BD00F18060E4E7D8
S2140050D0A5F108039B00064806FA03F29940E6E7A6
S2140050E002F18062EFE700BF0CA0004004A0004081
S2140050F008A00040084B4FF40072C3F88020BFF3AE
S2140051004F8FBFF36F8F054B0021D9664FF4AA402F
S2140051101962FEF751BE00BF00E100E000200E401D
S214005120034B03449B0081F001011960704700BFE8
S214005130A001F11010B5044601214FF4AA40FEF775
S2140051403BFEB4F8013022785BBA9BB243EA0263B6
S2140051500B4A136000231362D36253634FF000437D
S214005160D3664FF0FF339366064A4FF40071C2F8D9
S2140051708011E3785B01DBB282F80933116010BD61
S21400518000200E4000E100E070B5C3B2234E0125BA
S2140051909D40B5660B680C46302101FB006022F08E
S2140051A00302C0F88030637BC0F88830E37AA17AC7
S2140051B01B0543EA0143217B43EA4153C0F8843090
S2140051C0C0F8982055F0B1FAF36E2B43F366237AB5
S2140051D013B1736B2B437363637A13B1F36A2B4378
S2140051E0F3620E4B1A68237923B1DB431B0263F488
S2140051F07F431A4063790BB142EA0322A3790BB1CD
S21400520022EA0302E3791A43044B1A60044A9562C1
S214005210DD63BDE8704055F08EBA00BF00200E403A
S21400522000200E4410B5C0B20124844055F07DFA2B
S214005230054AD36E23EA0403D366044B1C62BDE81A
S214005240104055F078BA00BF00200E4000200E44F3
S214005250054B5A685B68054B41F671321A649A68CA
S21400526022F001029A60704700300E4000000E40A7
S214005270034B9A6822F001029A6000221A64704773
S21400528000000E40094A0A4BD969C90705D512B96C
S2140052906FF002007047013AF6E7002AF8D00122C4
S2140052A01861DA60D86940F38000704780969800ED
S2140052B000000E4070B5C1B10E4A0023082550F814
S2140052C0234094610C4CD5600133D669F60705D5AA
S2140052D014B96FF0020009E0013CF6E7002CF8D0A4
S2140052E0D469A40703D49942E9D1002070BD6FF0B9
S2140052F00100FBE700000E40809698002DE9F84379
S2140053001C4B884641F671311D6C19641A490746D4
S21400531048684968996841F00101ADB299609608FD
S2140053204FF00009B14501D3002005E007EB8904E2
S2140053302046FFF7A7FF48B10E4B9A6822F00102FD
S2140053409A600DB100221A64BDE8F883C4F30A041B
S214005350C4F50064A408A6EB0901A14228BF2146B3
S2140053604046FFF7A7FF0028E6D1894408EB8108EE
S214005370D8E700BF00000E4000300E4010B5234BAB
S21400538041F671311A6C196421494C68496899686C
S21400539041F00101996001211861D960D9694C0773
S2140053A092B209D5996821F0010199600AB10022EC
S2140053B01A644FF0FF3026E00221D9601549D869FB
S2140053C0C00700D569B9D86910F002000BD09968FB
S2140053D021F0010199600AB100221A646FF0010001
S2140053E011E00139EBE741B9986820F001009860B8
S2140053F002B119646FF0020005E0996821F001011E
S21400540099600AB1186410BD1046FCE700000E4013
S21400541000300E408096980002F0070242EA0352DF
S21400542001F4FE41024B14300A4343F82020704733
S21400543000600E40074B002047F6077200F114018B
S21400544053F821100A4204D001300C28F6D14FF050
S214005450FF30704700600E40014B01229A60704793
S21400546000500E40F0B5134B13495D68134E0022F2
S2140054701046D6F8E8714C680B687F070BD4B3F576
S214005480006F06D012D8B3F5007F02D0B3F5806F58
S21400549001D144F480742B4202D02C4208BF18433A
S2140054A00132092A01F10801E3D1F0BDB3F5803FCE
S2140054B0EEE700BF00500E40E00109000040E00F9C
S2140054C08B784A789B0143EA82030A781343CA78AA
S2140054D043EA02130A7943EAC2234A7943EA0233CB
S2140054E08A79043043EA42430001014A1350704768
S2140054F000200440014B1860704700BF0000844243
S214005500427801790378002A827870B514BF0426A1
S2140055100026002AC27814BF10250025002A4279EA
S2140055204FEA023242EA012242EA0302837914BFBA
S21400553020240024002BC37942EA034343EA0603EF
S214005540027A43EA050314BF4FF4004100212343C7
S214005550002A14BF4FF4003200220B431343014AC3
S214005560136070BD002004400D4AD2F8E430D2F833
S214005570E0109B0003F03C03C1F381110B438370E2
S214005580D2F8E03003F03F034370D2F8E830D2F8A8
S214005590EC2003F0F003C2F30312134303707047CA
S2140055A000FF0FE0024BD3F8F000D3F8F41070477A
S2140055B00081E00F024BD3F8FC00000E704700BFDE
S2140055C00081E00F044BD3F8E4301B0E0A3303F0DF
S2140055D01F030120984070470081E00F70B5054614
S2140055E016461C4619B91448FEF72CFD0146402CF9
S2140055F01BD003D8DCB1202C1BD070BD602CFCD196
S214005600042303FB06F2560806EB4113B3FBF2F342
S2140056100A4A203B02EAC3032A6822F060022A6094
S2140056202A6814432C606B61E7E70623E9E710233A
S214005630E7E70823E5E700BF40410500F8FF7F00E5
S2140056402DE9B841154F15460F40FAB9202B20D04A
S214005650402B20D0002B14BF40241024012307F534
S21400566080775F4300233A46194639F08BF9554355
S21400567004FB035100FB04F8A2FB040400233A4693
S214005680214439F07FF94044BDE8B88180240025E4
S214005690E4E71C46E2E780240323E0E7F8FF7F0008
S2140056A070B5044605680648FEF7CCFC23686169B9
S2140056B005F0010203F06003BDE87040FFF7C0BFCD
S2140056C04041050038B50546144619B90548FEF7A9
S2140056D0B9FC014601396400B1FBF4F109026961C5
S2140056E038BD00BF4041050040F6AA63C36041F2E2
S2140056F00502002303604260104A83604361C3646E
S2140057008264036643678367C3670D4B0D4A9842FE
S21400571009D0904207D003F50063984203D003F502
S2140057208063984201D1002303650023904283657D
S21400573002D0054A904200D1C3657047F9FF0100C8
S2140057400000014000040140000C014038B504464A
S2140057508AF05FF80FCC044D0FC594E80F0085E87B
S2140057600F00002038BD00BF84D7002047F6FF7327
S2140057709A42F0B56BD002296BD8374D05EBC106BF
S21400578015F83130B078012838BF0120012B4FEAD8
S214005790C107044613D1F3781B1A0020984202D39F
S2140057A0E018C0B2F0BD191AA3EB5101756835F9BF
S2140057B011509542CCBF01F1FF330846EEE7706802
S2140057C00028EFD0B0F90030934204DBB0F9023085
S2140057D09342B8BF13468288FF2A04BFB0F906106A
S2140057E0B0F908C03D440FBF01260026C8214FF07F
S2140057F0280C6D78CA1A92FBFCF2324412B295421B
S21400580001DD002A01DA6A1E12B24FF47A7700EB45
S214005810C2060132F188B66812B213FB016121EAB2
S214005820E171954201F15C01B1FBF7F104DD00EB9B
S214005830C206B6888E42EAD200EBC20232F8040CE8
S214005840884228BF0846A04238BF2046A9E7FF2066
S214005850A8E70020A6E700BF84D700200229F0B5FD
S2140058605FD8314B13F83100012816D103EBC10184
S2140058708C78C878012C234638BF0123904294BF09
S214005880C3EB0003C3EB0203DBB2001B4A68834290
S214005890C8BF002332F91300F0BD002A3FD003EB47
S2140058A0C1014B68002B3CD08878904202D3B3F9F4
S2140058B00200F1E7CC78B3F900009442ECD94C78BA
