S02900006275696C642F64656275672F6C696768742D7377697463682D6170702D77663230302E73333775
S3150800600000120020357C0008A98A0608676508087A
S3150800601099A90608A98A0608A98A0608A98A06085F
S31508006020A98A0608A98A0608A98A060851620008E4
S31508006030A98A0608F4A10908F16100085FAB0608F9
S31508006040E1790008A98A0608A98A0608A98A06081D
S31508006050A98A0608A98A0608A98A0608A98A06082E
S31508006060A98A0608A98A0608A98A0608A98A06081E
S31508006070A98A0608A98A0608A98A0608A98A06080E
S31508006080A98A0608A98A0608A98A0608A98A0608FE
S31508006090A98A0608A1830008A98A0608A98A060803
S315080060A0A98A06081D850008F9840008A98A060831
S315080060B0A98A0608E97C0608E186060867A1090890
S315080060C063A10908B97E060873A109086BA1090826
S315080060D0B98606086FA10908218706088587060874
S315080060E0A98A0608A98A0608A98A0608A98A06089E
S315080060F095A90608A98A0608A98A0608A98A060883
S31508006100A98A0608A98A0608A98A0608A98A06087D
S31508006110A98A0608A98A0608A98A0608A98A06086D
S31508006120A98A0608A98A0608A98A0608A98A06085D
S31508006130A98A0608A98A0608A98A0608A98A06084D
S31508006140A98A0608BDB30008A98A06089FAA0608F0
S3150800615049650608A98A0608019E0908079E0908CE
S31508006160A98A0608A98A0608A98A0608A98A06081D
S31508006170013800D0FCE7704700000000000000006E
S315080061800B4A1168086806C881F30B88022181F357
S315080061901488203080F30988BFF36F8F4FF0000012
S315080061A080F31188104700BFAFF30080AFF300807B
S315080061B078E1002000000000000000000000000058
S315080061C007480068006880F3088862B661B6BFF3BE
S315080061D04F8FBFF36F8F02DF00BF00BFAFF30080A2
S315080061E008ED00E0000000000000000000000000CC
S315080061F0EFF30980EFF30B82734620E9FC0F104A90
S31508006200116808604FF0300080F31188BFF34F8F94
S31508006210BFF36F8F0CF0DAF94FF0000080F31188A6
S31508006220074A11680868B0E8FC0F82F30B8880F308
S3150800623009881847AFF30080AFF30080AFF30080FA
S3150800624078E10020000000000000000000000000C7
S315080062501EF0040F0CBFEFF30880EFF30980044922
S31508006260084700BFAFF30080AFF30080AFF30080AC
S31508006270A5100108000000002DE9F04F2DED028B56
S31508006280804600680C4691461D468DB030B90327F6
S3150800629038460DB0BDEC028BBDE8F08F0668766C0B
S315080062A0B0472D2807460CD00028F1D09C4A9D4BB4
S315080062B00221A52808BF13460D209B4A7EF013F934
S315080062C0E6E76378202B01D10027E1E7974BD8F85A
S315080062D00000049358B1036822461B6C04A998472A
S315080062E0074630B1049803689B689847D0E70327A8
S315080062F0F8E78F4B8F4E05934FF48973EE40F643BC
S31508006300EB40DB43102D06F0010688BF0126082D59
S3150800631003F0010388BF01239FED7F8B6FF0010B0C
S315080063200193049805A90368DB689847002840F09C
S31508006330EC808DF80E0005980DF10E010368DB68F8
S3150800634098470746002843D19DF80E30402B03D0C6
S31508006350802B01D003273BE062789A42E1D10123E2
S3150800636005988DF80F3003680DF10F015B699847A2
S31508006370074668BB9DF80F30082B17D8002BD0D0DE
S31508006380013B072BCDD801A252F823F0DD630008A4
S31508006390B763000823630008D9630008236300086D
S315080063A02363000823630008E3630008102BB8D1B1
S315080063B0002EB6D102E06B1E012BB2D80023059839
S315080063C00693036806A95B6A9847824668B107463A
S315080063D005A869F071F985E7042DEFD0012DA0D144
S315080063E0ECE7019B002B9CD1E8E7069B002B46D0E7
S315080063F08DED088B05985146036808AA9B6A98474D
S3150800640007460028E4D1DDE90830591E40F1FF327D
S315080064108B456FF0100171EB020210D39DF80E2028
S31508006420402A97D1D4E90212904208BF8B4226D05F
S31508006430069B0AF1010A53457FF673AFD8E74FF07A
S31508006440FF31C21C994277EB020231D39DF80E2028
S31508006450402A7FF47FAF1F0C04F1100104F11C00E1
S315080064609BB28842E4D051F8042B002AF9D0B7EB46
S31508006470124FF6D1002BF4D092B29342F1D80023F2
S3150800648005980793036807A99B6B98470746002852
S315080064909ED1079B002B36D082460598CDF820A0C2
S315080064A003683946DB6B08AA984758B107468FE751
S315080064B013F5803F70F1FF32FFF44CAF9DF80E20C4
S315080064C0802AAEE7089BD90704D5D9F80020099990
S315080064D0914212D19A0705D5BDF82810B9F80420BB
S315080064E091420AD15B070ED5D8F80400B9F8042002
S315080064F003680B999B68984728B9079B0137BB42E5
S315080065007FF60FAFC9E7002762E702210D200A4A86
S315080065107DF0E9FFA5275BE700000000000000000A
S31508006520B8B00E08B7AF0F088CB00E084814002094
S315080065304C14002016010100A9B00E080000000046
S315080065402DE9F04F00252DED028B044616462F4601
S31508006550A8469FED398B90F838309BB00591039388
S3150800656000F10C0A0295039A2BB29A4256D05AF8B1
S31508006570043B615D3248049373F09FFC03788DF801
S31508006580183043788DF819304388ADF81A300379F6
S315080065908DF81C300BB18368089383893168ADF890
S315080065A02430D0E90423CDE90A230B680CA89B699B
S315080065B09847DDE90AB301930199DDE90C2399426D
S315080065C008BF934528D19DF819309DF8389099450C
S315080065D022D11C4BC8460C93059B1B4A10930023DB
S315080065E0314611A81192CDE912338DF850308DED50
S315080065F00E8B83F059FD316816A80B689B6998477E
S31508006600049AE36B12680CA906A898470CA815F01B
S3150800661009FE019FCDF808B00135A4E7029B204684
S315080066200CA9CDE90C378DF8388016F0EDF91BB0BA
S31508006630BDEC028BBDE8F08F0000000000000000F2
S31508006640A0840020F0B80E08F09A0F080000000099
S315080066502DE9F04F2DED028B884204460D469046F3
S315080066601E4697B00AD1034601211D202E4A17B0AF
S31508006670BDEC028BBDE8F04F7DF035BF9FED288B52
S315080066800DF10C092A21484605AF23F04BFA99E883
S31508006690030087E80300DFF894A0DFF894B0BDF89C
S315080066A01400BDF81630834234D023F0A7FA3378A5
S315080066B081468DF824408DF825508DF826808DF872
S315080066C028300BB173680B9309AB0893CDF81CA05F
S315080066D01CF092FE00230E938DF840308DF8513051
S315080066E02A23ADF830904FF001090D930CAA6B469A
S315080066F007A98DED128B8DF850906EF009FF0346B1
S3150800670020B15A4649461D207DF0EDFE384673F005
S315080067107EFAC4E717B0BDEC028BBDE8F08F00BF68
S3150800672000000000000000000CD80E08F8D80E087B
S315080067304CD80E08000000002DE9F04F2DED028B15
S315080067409FED318B9DB00DF108092A21054604AC51
S31508006750484616461F46DDF8A48023F0E3F999E873
S31508006760030084E80300DFF8A8A0DFF8A8B0BDF8A6
S315080067701000BDF8123083423ED023F03FFA289B22
S3150800678081461B78CDE90A6708958DF830301BB12C
S31508006790289B5B788DF8313098F800308DF83830C2
S315080067A01BB1D8E90223CDE9102308AB0793CDF82E
S315080067B018A01CF021FE00232A228DF858308DF8E7
S315080067C069300223ADF848904FF00109CDE913234B
S315080067D006A96B4612AA8DED188B8DF868906EF097
S315080067E097FE034620B15A4649461D207DF07BFE9A
S315080067F0204673F00CFABAE71DB0BDEC028BBDE873
S31508006800F08F00BFAFF3008000000000000000001A
S3150800681020D90E08A3D80E082DE9F04F2DED028BCE
S315080068209FED658B83ED008B17460026C1B0994610
S31508006830D0E90623CDE9002304468A4697F82020A6
S315080068401CA926A80F966EF05CFD03238DED188B08
S315080068505B4DCDE912662868ADF868301496169631
S31508006860036810A95B699847002840F08D800126C7
S31508006870109B0A93119B0B9300234FF0030BCDE952
S315080068801333ADF848300A9B4FF0FF3218930B9B31
S3150800689021681CA819938DF85860ADF868B07AF08D
S315080068A017FF97E807003B8C0DF1480888E80700B2
S315080068B0ADF868305146D4E906232046CDE932239F
S315080068C0D4E90A23CDE930230FAB42461CF04EFE2D
S315080068D005460346002866D1204697F820200F99DA
S315080068E01CF09EFF0546034600285CD143465246E7
S315080068F0204626A96EF025FD05460346002852D1F6
S31508006900E368229A20461344E360D4E90623C9E9DA
S3150800691000231CF091FE0A9B9DF858C0A3620B9BAE
S315080069202848E362284B84F82060BCF1000F18BFA2
S3150800693003461898139F08901998D9F80020CDE9AE
S3150800694006309DF86810BDF8485014983E0CBFB242
S31508006950CDE90021D9F8043059461C4ACDE904701E
S31508006960CDE902561A207DF0BEFD1DF02BFB4146EF
S31508006970E26800F5CE601FF0FDFE0546284641B0E8
S31508006980BDEC028BBDE8F08F29680CA80B68DB68A4
S315080069909847D4E90C310C9AD31A0A930D9B63EBEA
S315080069A001030B9368E701211A20094A7DF09BFD34
S315080069B0E4E700BFAFF3008000000000000000001D
S315080069C07C150020B2E60E08AEE60E08B8E60E08FC
S315080069D040E70E08000000002DE9F04F2DED028B70
S315080069E0083089B00E469146DDF860807DF09EFD40
S315080069F00446002800F0A1806D4614AB0FCB85E84D
S31508006A000F0000259FED508B4FF0010B41F2A45A61
S31508006A1004AF87E80F004E4BC4E90355236003F122
S31508006A202C02C4E905554833A3604A4B04F1480CC7
S31508006A3062600FCB84ED0E8BC4E90755C4E90C558B
S31508006A4084F8245084F840508CE80F00424B1022FA
S31508006A50236604F17803C4E91E3304F1A003C4E9EC
S31508006A6028333E4B2946C4F8D030C4E91955C4E941
S31508006A70355584F858B0A4F85AA0E56584F86C50E2
S31508006A806467C4F89850C4F8C050C4F8DC5004F1E0
S31508006A90E00089F0C1FC84F8F0B0A4F8F2A0C4F8CC
S31508006AA0F45004F1F8007EF07BFA4AF6C873C8225F
S31508006AB084ED428B84ED448BC4E9462304F5987330
S31508006AC0C4E94C3384F80051A4F80451C4F8285199
S31508006AD084F82C51C4F850513368E3607368236115
S31508006AE0B3686361F368A3613369E3617369236219
S31508006AF0337E84F824302BB1D6E9070104F1280344
S31508006B0083E80300304669F0BFFAB0B9B9F1000F5F
S31508006B1013D0B8F1000F10D003CF3B78C4F83090EB
S31508006B2084F84030012384F8283104F10803A0636F
S31508006B30E163C4F8C880C4F8DC30204609B0BDEC6F
S31508006B40028BBDE8F08F00BF0000000000000000C7
S31508006B5050F10E08C424012010F10E083CF10E086D
S31508006B602DE9F04F2DED028B9946002300240025D0
S31508006B70CDB08DF8C83049938DF828319C4BCDE9B6
S31508006B802E45CDE93045CDE934450C934FF6FF74D3
S31508006B900123DFF874A2064688461746CDF8D8A022
S31508006BA0ADF820410D936AB1054600F53E74A5423D
S31508006BB000F00C81284669F03FFB002800F00881A8
S31508006BC09835F4E775F09CFF044630B9AC242046A6
S31508006BD04DB0BDEC028BBDE8F08F06F53E75284634
S31508006BE072F005FFB4F868308DF8C880ADF820312A
S31508006BF094ED028B6A342021204689F076FDCDE992
S31508006C000C407C4B4FF4C8710E93002309A8CDE9BC
S31508006C1009330F930B93CDF870A06BF0F5FF099B22
S31508006C2053B90B240BA869F04CF90AA869F049F97D
S31508006C3009A869F046F9CAE74FF4C8710AA86BF0C3
S31508006C40E3FF0A9B002BECD04FF4C8710BA86BF03E
S31508006C50DBFF0B990029E4D0099B0A9A10934FF49D
S31508006C60C8733046CDE91223CDE9141310AA41465C
S31508006C70119375F0A2FF08B10446D3E741463046A2
S31508006C8012AA75F07CFF0028F6D14146304614AAB0
S31508006C9075F052FF0028EFD1109B0DF1B80A169334
S31508006CA0119B0DF1700B1793129B8DED008B1893AA
S31508006CB0139BCDE905AB1993149B1AAA1A93159B36
S31508006CC018A91B9336AB079330AB049334AB0393E5
S31508006CD00EAB029316A827F035F80028CCD10BA8DE
S31508006CE069F0EFF80AA869F0ECF809A869F0E9F87C
S31508006CF0B9F1000F13D1D6F8940300285AD00368C7
S31508006D009B689847D6F894331A6800284AD054697D
S31508006D1041465A461846A04798B1044657E7D9F857
S31508006D20003048465B699847036859465B6A984746
S31508006D3008B9C5244BE79DF86031CDF824918DF844
S31508006D4028315146284676F096F90028E5D1284696
S31508006D500CA975F0A2FE2B7C77B302211120264AD6
S31508006D607DF0C1FBD5E90012AB69CDE9012100939D
S31508006D7002211120EB69214A7DF0B5FB0F9906F532
S31508006D80697029F033FA034620B1012111201C4A03
S31508006D907DF0A9FB27B196F8B233013386F8B233F2
S31508006DA0002414E741461846D26890470028C8D1FF
S31508006DB010240CE703240AE7D5E900121120CDE9CF
S31508006DC0002102210F4A7DF08EFBD7E70B24FEE651
S31508006DD0BDF864319FED048BADF820318DF8C8807D
S31508006DE00FE700BFAFF300800000000000000000BE
S31508006DF040B60F0880380F08AA370F08CA370F0899
S31508006E0042380F080D380F08DC690F08000000002B
S31508006E102DE9F0478AB00DF10D03019315230646B7
S31508006E2000934FF48072002308460C467AF04DFE14
S31508006E30D8B9B37B01220093204600237AF0CCFD13
S31508006E4098B9F37B02220093204600237AF0C4FD0A
S31508006E5058B90DF10E030193162303220093204619
S31508006E6000237AF032FE054610B10AB0BDE8F08775
S31508006E7037464FF010090DF1180810220021404638
S31508006E8089F0CAFA0DF10F03019315234FF48072A6
S31508006E900093204600237AF018FE0028E5D1F27BFD
S31508006EA0EBB29A4250D997ED047BC446B7F818A0BE
S31508006EB007F11A0307F12A0E62461868596808335B
S31508006EC003C273459446F7D18DED007B0422002357
S31508006ED020467AF05CFD0028C7D10522002320460B
S31508006EE0CDF800A07AF078FD0028BED14046494684
S31508006EF006228DE8030000232046CDE904897AF0AE
S31508006F00A0FE0028B1D120469DF90F107AF00CFE9C
S31508006F10013530370028A8D1032DAED120469DF97A
S31508006F200E107AF001FE00289FD1F38807220093FD
S31508006F30204600237AF050FD002896D120469DF978
S31508006F400D107AF0F1FD90E782469FED017BBBE7D5
S31508006F5000000000000000002DE9F04F2DED028B27
S31508006F6006469FED8B8BDFF83C928B4FADF5217D66
S31508006F7000F5A07400F5AA68444500F00381D4F82A
S31508006F800031013364D020467BF0B4FC8207C3B2DB
S31508006F9040F1AA8004F1400103A87BF099FC542231
S31508006FA003A918A889F011FA542218A92DA889F05E
S31508006FB00CFA002354222DA942A8CDE900330293E6
S31508006FC089F003FA42A87BF070FE054618B1019BCA
S31508006FD001330193F6E79DF8183173B301984FEA28
S31508006FE0800A02A868F06DFF50462FF03BFA02901F
S31508006FF018B32B462946019A9A4204D9029A42F8AE
S3150800700023100133F7E751222DA942A889F0DDF9AB
S31508007010002542A87BF049FEE8B10DF2191089F067
S3150800702035FB01460DF219107CF0FEFD029B585106
S31508007030029B5B590435002BEBD19DF8003073B9E0
S3150800704001212220554A7DF04EFA68467CF01BFE47
S3150800705004F5027490E701238DF80030EDE700256A
S3150800706042A8CDE9425544957AF0DDFE9DF80030F8
S3150800707006F1180A83B3DDF804B044A8CDF80CB1BC
S3150800708068F01FFF4FEA8B002FF0ECF9449018B315
S315080070902B462946439A9A4204D9449A42F8231021
S315080070A00133F7E70025439BAB4212D9029B53F8FD
S315080070B025B0584689F0EAFA014658467CF0B4FDF0
S315080070C0449B43F82500449B53F8253023B10135EA
S315080070D0E9E701238DF80831504642A97BF04AF8C2
S315080070E042A87CF0D0FDB0E743B12D4A0121222009
S315080070F07DF0F9F920462CF069F8A9E7D4F8005193
S31508007100012D23D142A87CF078FD61A874F096F889
S3150800711042A826F045FA61A874F090F8204642A9DC
S315080071207BF081FC034620B13A46294622207DF0B1
S31508007130DAF906F1180042A97AF04DFFF06800283E
S3150800714086D0036842A99B68984781E7C5B942A8D3
S315080071507CF053FD204642A98DED628B8DED648B44
S315080071607BF08BFC034620B13A46012122207DF0B4
S31508007170BAF906F1180062A97AF01AFFB068DEE7D4
S315080071804A46B3E70DF5217DBDEC028BBDE8F08FCD
S31508007190000000000000000045530F08D0520F08F9
S315080071A002530F086A530F08054B18680368996954
S315080071B001A3D3E90023084700E0373B015D03003C
S315080071C07C150020000000002A2110B57248ADF594
S315080071D0956D029133F038FE08B189F074F8029083
S315080071E002A96D4833F0EAFC0028F6D1029B2A2B47
S315080071F0F3D167A3D3E900236848CDE9082333F020
S315080072003BFE0028E9D100220023644808A9CDE9FD
S31508007210082333F0F7FC0028DFD1DDE9080240F641
S31508007220FA035F499A4208BF8842D6D101215D48D0
S315080072308DF8071033F0F0FD0028CED18DF8070041
S315080072400DF10701574833F091FC0028C5D19DF888
S315080072500730002BC1D0504833F004FC0028BCD1BD
S315080072604D4803A933F0AAFC40F20124A042B4D148
S315080072704D494E487FF0D9FA0028AED140224B48F6
S3150800728004AB0AA933F0E6FC0028A6D1049B0E2B12
S31508007290A3D10F2244490AA889F087F800289CD16F
S315080072A0434942487FF0C1FA002896D104AB4022F0
S315080072B03E480AA933F0CEFC049B03438DD19DF8C2
S315080072C02810002989D139487FF0AFFA002884D1DF
S315080072D04022364805AB1AA933F0BCFCA0427FF41D
S315080072E07CAFF1223349344833F0F8FD00287FF4A7
S315080072F074AF4FF40072304806AB2AA933F0F8FC95
S3150800730000287FF46AAF069AF12A7FF466AF294906
S315080073102AA889F04AF8024600287FF45EAF01469B
S31508007320254833F0DBFD00287FF457AF4FF4007291
S31508007330214807ABAAA933F0DBFCA0427FF44DAF86
S31508007340164833F09BFB00283FF447AF154833F047
S3150800735095FB00283FF441AF174833F08FFB002810
S315080073607FF43BAF33F0E4FB00287FF436AF0B48DD
S3150800737033F084FB00283FF430AF0A4833F07EFB35
S3150800738000287FF42AAF0DF5956D10BDAFF3008088
S31508007390316EE595FA0800000573080001720800C9
S315080073A0316EE59506730800867A0F0802730800A1
S315080073B0857A0F0894790F08027208000000000009
S315080073C0002370B5404C05468AB0E36318B10088BF
S315080073D023604DF013F83D4892F06CF93C4E3D4B56
S315080073E0304633603C4B73604DF0DAF90021304685
S315080073F058F0C4FA32A3D3E90023A062C4E90623ED
S315080074008CF06FFED4E90623194310434FF0FF337F
S31508007410C4E90601CDE900014FF0FF32A06A92F0F7
S31508007420DBF902224FF0FF31A06A92F0F0F9012051
S315080074304CF04AFD4FF4007300222849A06A92F0E6
S31508007440D4FAB0F5007F38D100239422CDE907336A
S3150800745009933C23CDE9033205939623A06A03A931
S31508007460069358F021FE35B3287C4DF057FA0546A9
S31508007470F0B9A06A92F059FB4DF0F8F94CF006FD08
S3150800748020B14FF48070002149F066FD4CF00EFDE6
S3150800749020B14FF40060002149F05EFD8CF0E6FD56
S315080074A0012091F02BFF0E4A0E49A06A8CF00DFEC2
S315080074B028460AB070BDFF20D7E70725F8E700BFC2
S315080074C00DD501552000000010CE0020690345ECBB
S315080074D01459012055460508085901200857012066
S315080074E073400908B340090810B5054C237833B929
S315080074F0044B13B1044800E000BF0123237010BDFC
S3150800750078D300200000000000FC0F0808B5034BE4
S315080075101BB10349034800E000BF08BD0000000096
S315080075207CD3002000FC0F08A3F5803A704700BF03
S31508007530174B002B08BF134B9D46FFF7F5FF00219D
S315080075408B460F461348144A121A88F065FF0E4BED
S31508007550002B00D098470D4B002B00D098470020F1
S31508007560002104000D000D48002802D00C4800E058
S3150800757000BF44F0EBFA2000290043F061F944F01B
S31508007580D1F800BF0000080000000000000000005D
S3150800759000120020241C00201860022000000000B1
S315080075A0000000002DE9F043434D89B001AC0FCD32
S315080075B00FC495E80700012584E8070001213A2051
S315080075C002F01EF83D4F0121292002F019F83C4B24
S315080075D0384601A903938DF8125003F079FC2B461F
S315080075E029460422022003F083FA02212A46084685
S315080075F0002303F07DFA2B4604220321022003F020
S3150800760077FA04222B461146022003F071FA2D4C14
S315080076102D4B1026C4F834374FF00213C4F8303710
S31508007620A3F58033C4F838371C2304F50059C4F889
S3150800763020374FF4487008F089FE04F58058142066
S31508007640C9F8A06008F082FE2320C8F8A06008F0F8
S315080076507DFEB9213846C9F8A06061F0ECFC00232C
S3150800766029461A460220C8F8A06003F041FA00230A
S3150800767002211A46084603F03BFA2B46002203214C
S31508007680022003F035FA2B4600220421022003F0DB
S315080076902FFA384603F0FAFB00212920C4F83417DC
S315080076A0C4F83017C4F83817C4F8201701F0A8FF33
S315080076B009B0BDE8F08300BFD8A1090800C005508D
S315080076C000127A0000C0035002000300BFF34F8F78
S315080076D00549064BCA6802F4E0621343CB60BFF360
S315080076E04F8F00BFFDE700BF00ED00E00400FA057C
S315080076F04FF000639A6A02F17841B1F5C04F03D2A0
S315080077001168074A914203D00023037083607047CB
S31508007710012202709A6A926842609B6A9B69F5E741
S3150800772007B0CD5E08B54FF00053024A1A60FFF75E
S31508007730CDFF00BF02020FF073B54F4B04461A780F
S315080077401AB102221A7002B070BDCDE900220028D3
S31508007750F9D001261E7061F082FB484D484B18602F
S315080077605DF02CFC2B785BB900F0EAFE40B9454881
S315080077700823454A4549006857F0D0FB00B92E70E2
S31508007780434B5A6E62619B6E424AA3614FF4804333
S315080077909366414B5968E16140499960196E2160C9
S315080077A0596E6160D3F87011A160196CE160596C6B
S315080077B021613B49086C1864496C5964012151667A
S315080077C01B6E9C0441D5374AD368D807FCD4364B80
S315080077D01A68531C3ED04FF480139340334A1366FD
S315080077E04FF400730426314C2666236661F0BFF811
S315080077F001300DD061F0BBF840F20113984207D072
S315080078004FF4005323664FF480432366C4F870612F
S315080078100823264C684623664FF4805323664FF0A8
S31508007820006323664FF4002301A9636661F046F8F6
S31508007830009B2366019B63662B78002B83D0124B33
S315080078401A6822665B6863667DE7194AD368D907B2
S31508007850FCD4BCE7174B1B78002BC1D14FF4007240
S315080078600C4B5A6603F5A6235B68002BB8D14FF478
S3150800787080120E4B1A66B3E7B4610120B26101208B
S31508007880BCD3002018120020B4D3002000710800D1
S3150800789000800050009000500080004455CEAC0097
S315080078A000C0005400000440041200200090004468
S315080078B000000450B361012070B5224D04462E78AD
S315080078C0012E02D001232B7070BD0028FCD061F078
S315080078D04EF801300BD061F04AF840F20113984295
S315080078E005D0194B194A5E66D368DE07FCD42268B0
S315080078F0174B1A6662685A66A268C3F87021E2686E
S315080079001A6422695A64E269D00744BF00229A6061
S31508007910104B1A68013207D10F4A127822B90F495B
S315080079204968C90748BF1A6062690D4B5A66A26959
S315080079309A665DF04BFB0B4B186861F096FA0023CC
S31508007940C1E700BFB4610120009000400000044078
S315080079500080004404120020B361012000C00550D5
S3150800796000800050BCD3002070B54FF00064A36AB5
S3150800797003F17842B2F5C04F21D21A68124B9A42E7
S315080079801DD1124E337813F0FD0F1BD11048FFF7A7
S31508007990D3FE01254FF480330E4A0F49C2F88051B1
S315080079A0CB6015600D4A1361A36ADB6998470446E4
S315080079B00748FFF781FF04B93570204670BD4FF4BC
S315080079C08174FAE70024F8E707B0CD5EB3610120B9
S315080079D094D3002000E100E000A000440090004499
S315080079E013B51F4B1B7803B9FEE700231D4CCDE9E1
S315080079F000336A4608231C49206857F08FFAF0B905
S31508007A001A4AD2F84031D2F840211F2B4FF0010311
S31508007A1010D9203A9340019A1343019308236A46E2
S31508007A201149206857F030FA4FF00053104A1A608F
S31508007A30FFF74CFE9340009A13430093EEE70D4B75
S31508007A409842F1D1094AD2F84031D2F840211F2B89
S31508007A504FF0010302D9203A9340DEE79340ECE762
S31508007A60B46101201812002000710800008000444B
S31508007A700B020FF00BE000F038B54FF00065AB6A6B
S31508007A80044603F17842B2F5C04F12D21B6B03F1DC
S31508007A907843B3F5C04F0CD20648FFF74DFEAB6AE4
S31508007AA020461B6B5B689847BDE838400148FFF7DE
S31508007AB003BF38BDC0D3002013B54FF00064019052
S31508007AC0A36A03F17842B2F5C04F15D21B6B03F1D6
S31508007AD07843B3F5C04F0FD20948FFF72DFEA36AC6
S31508007AE001211B6B01A89B69984704460448FFF7C8
S31508007AF0E3FE204602B010BD4FF48174F9E700BFDB
S31508007B00C0D3002037B54FF00065CDE90021AB6A38
S31508007B10044603F17840B0F5C04F12D21B6B83B10F
S31508007B200948FFF709FEDDE90021AB6A20461B6B11
S31508007B305B6A984704460448FFF7BEFE204603B032
S31508007B4030BD4FF40174F9E7C0D3002037B54FF0C4
S31508007B5000650191AB6A044603F17842B2F5C04F5D
S31508007B6015D21B6B03F17843B3F5C04F0FD2094802
S31508007B70FFF7E2FDAB6A20461B6B01999B6A9847A3
S31508007B8004460448FFF798FE204603B030BD4FF47C
S31508007B900174F9E7C0D3002037B54FF00065CDE989
S31508007BA00021AB6A044603F17840B0F5C04F16D2FF
S31508007BB01B6B03F17843B3F5C04F10D20948FFF7A2
S31508007BC0BBFDDDE90021AB6A20461B6B9B6B984722
S31508007BD004460448FFF770FE204603B030BD40F265
S31508007BE00114F9E7C0D3002037B54FF000650191BD
S31508007BF0AB6A044603F17842B2F5C04F15D21B6B47
S31508007C0003F17843B3F5C04F0FD20948FFF794FD47
S31508007C10AB6A20461B6B0199DB6B98470446044800
S31508007C20FFF74AFE204603B030BD40F20114F9E7DB
S31508007C30C0D3002008B500F02DF8124B12498B422C
S31508007C4012D30020114B12498B4218D3FFF770FC50
S31508007C50186850F82240586840F82240013298685F
S31508007C608242F5D30C33EAE70022F8E71C6844F8A9
S31508007C70220001325C68A242F8D30833E4E7002206
S31508007C80F8E700BF08FC0F0814FC0F0814FC0F08DF
S31508007C9014FC0F084FF480414FF0FF3010B5114B1C
S31508007CA0114A9A60D3F8882042F47002C3F88820F3
S31508007CB00E4A91660E4901F5005210660D48506647
S31508007CC00220C3F8D000BFF34F8FBFF36F8F012494
S31508007CD04FF440330848C0F88041D36004600B6114
S31508007CE010BD00BF00ED00E00060000800900050E5
S31508007CF000800044F7FF370000E100E0014B1868F8
S31508007D00704700BF0C120020014B1860704700BF77
S31508007D100C120020084B1B6F03F00703022B04D03C
S31508007D20032B05D0012B05D0FEE7044B18687047D6
S31508007D30034BFBE703487047008000500C120020F5
S31508007D4010120020002D310108B5FFF7E3FF054B9F
S31508007D501B6FC3F303330133B0FBF3F0024B186018
S31508007D6008BD00BF00800050081200200048704778
S31508007D7000B4C404014B1868704700BF10120020F5
S31508007D80054B1860054B1B6F03F00703032B01D146
S31508007D90FFF7DABF704700BF1012002000800050BE
S31508007DA000487047002D31014FF0B4439868C0F37E
S31508007DB004400C2822D8DFE800F0092121212121DE
S31508007DC0071719211B1D1F000F4870479B6803F0F2
S31508007DD04073B3F1807F13D0B3F1007F12D00B4A02
S31508007DE0002B08BF10467047094870470948704776
S31508007DF00948704709487047094870470020704786
S31508007E000848704708487047405DC60000093D00AD
S31508007E100024F400C0EA210180BA8C010048E80178
S31508007E20005A620280841E0040420F00014B186807
S31508007E30704700BF1412002010B40A681378022B8A
S31508007E4011D014203023147913FB040307481B5858
S31508007E505079C340DB4303F00103137008465DF80D
S31508007E60044B42F03FBD5DF8044B704730C00350E9
S31508007E7037B50468012105463A2001F0C1FB002305
S31508007E8001226179207902F033FE14223023217908
S31508007E9013FB01230E4A9B586279D340DB4303F058
S31508007EA001032370A379022B0ED100F0CFFA2A46DC
S31508007EB00849607900F0F4FA0123024661792079CD
S31508007EC0CDE9003302F0BCFD002003B030BD00BF91
S31508007ED030C00350397E000802681378022B24D07C
S31508007EE014213023107913FB001310495B5851797C
S31508007EF0CB40917903F00103012912D1508843EA56
S31508007F0040034FF6E07063F03F039BB2834202D111
S31508007F101170538070474FF6DF718B42F9D10021FB
S31508007F20F6E711B983F001031370704730C00350A8
S31508007F3010B5012243780178847830209A40054BA1
S31508007F4000FB01331CB903F501531A6010BD03F594
S31508007F508253FAE700C0035010B50122437801782E
S31508007F60847830209A40054B00FB01331CB903F591
S31508007F7082531A6010BD03F50153FAE700C0035097
S31508007F800122437801789A4030235943014B5A50CD
S31508007F90704700BF40F00350102130230246007896
S31508007FA013FB0013054950785B58C34003F00100E2
S31508007FB093780BB980F00100704700BF30C00350BA
S31508007FC02DE9F04F9A46554B85B01B7806460F4665
S31508007FD01546DDF83C909DF844B0DDF85080002B3E
S31508007FE000F08C80072A00F28B800E9B002B00F095
S31508007FF08780B9F1000F00F08380129BB3F5006FFC
S315080080007EDC012802D1109B002B79D0444B03EB70
S3150800801005131B7B002B75D0424C102200216846A5
S3150800802088F0FAF904EB45141022002F58D1394686
S31508008030204688F0F1F943F210036380BBF1000F84
S3150800804003D1E37843F00303E370364A0E9B02EB51
S31508008050451CCCE90193129BCDF800A0013BC3F364
S315080080600A009DF84C30690103F003039B0643EAB6
S31508008070001E53582C48012E00EA03004EEA00035E
S31508008080535041D113230CF1100ECCF80C309CE858
S315080080900F008EE80F006FF00301DCF81C20109B20
S315080080A061F39F02012FCCF81C20CCF8143003D1C1
S315080080B0CCF81890CCF804300027194A290102EBAD
S315080080C0051342F80180159A28465A6069462246E1
S315080080D09F605E7302F0AAFD384605B0BDE8F08FD2
S315080080E00021204688F098F94FF444736380BBF169
S315080080F0000FAAD1E37843F03003A5E70B48ECE775
S315080081000B48EAE70B48E8E7B8F1000FD4D19CF82A
S31508008110023068F304138CF80230CDE7B56101200C
S31508008120E0D3002060D400200F80FFF3028000F027
S31508008130018000F0078000F038B5124B05461B7821
S31508008140DBB1E0B160F08BFE0F4A00231146147BC9
S3150800815054B92B6001251A0101EB03131D738C50CA
S3150800816060F083FE204638BD0133082B02F1100269
S31508008170EDD160F07AFE0548F5E70548F3E70548CE
S31508008180F1E700BFB5610120E0D30020048000F0CC
S31508008190028000F0018000F013B560F060FE002355
S315080081A00B4A147B7CB90133082B02F11002F8D173
S315080081B0019002F0DDFC074B01981C7060F055FE3B
S315080081C0204602B010BD60F050FE0348F9E700BF34
S315080081D0E0D30020B5610120058000F010B50D4BF5
S315080081E004461B7893B1072812D860F038FE0A4B6C
S315080081F003EB04131A7B2AB100241C7360F035FEC6
S31508008200204610BD60F031FE0448FAE70448F8E756
S315080082100448F6E7B5610120E0D30020068000F0A7
S31508008220028000F0018000F0154B13B51868002392
S3150800823001908DF8043060F012FE124B1C7824B1C0
S3150800824060F013FE104802B010BD01221A7060F0EB
S315080082500CFE0E4B01A81C731C7783F82C4083F880
S315080082603C4083F84C4083F85C4083F86C4083F8C4
S315080082707C4008238DF8073002F0A6FC2046E2E78A
S3150800828044A20908B5610120038000F0E0D300206C
S3150800829008B50A4A12785AB107280BD8084A02EBD9
S315080082A000131B7B43B1002102F080FC002008BDAF
S315080082B00448FCE70448FAE70448F8E7B5610120F2
S315080082C0E0D30020028000F0018000F0078000F073
S315080082D008B50A4A12785AB107280BD8084A02EB99
S315080082E000131B7B43B1012102F060FC002008BD8E
S315080082F00448FCE70448FAE70448F8E7B5610120B2
S31508008300E0D30020028000F0018000F0078000F032
S3150800831008B50A4A127852B107280AD8084A02EB61
S3150800832000131B7B3BB102F0C9FC002008BD0548C1
S31508008330FCE70548FAE70548F8E700BFB5610120FC
S31508008340E0D30020028000F0018000F0078000F0F2
S315080083500D4B1B7893B1072812D889B10B4B03EB49
S3150800836000131B7B73B10A4BDA6A012303FA00F088
S3150800837010401ABF00200B700870704705487047F8
S315080083800548704705487047B5610120E0D30020CD
S3150800839000000450028000F0018000F0078000F021
S315080083A02DE9F843174B1F6D5B6D1F4000D5FEE79F
S315080083B001260025144CDFF85480DFF85490374224
S315080083C017D0C8F8506023689BB1A16828460131C8
S315080083D06268A1609847637B012B0AD148B909EB0B
S315080083E045131A7B60F341021A731A7F60F3410240
S315080083F01A770135082D4FEA460604F11004DED136
S31508008400BDE8F88300000450E0D3002000200450A3
S3150800841060D4002070B5044601250B4E04B970BD22
S3150800842094FAA4F0B0FA80F005FA00F306EB00120D
S3150800843024EA03045368002BF0D0117B11B191682C
S315080084409847EBE79847E9E760D5002008B5192073
S3150800845001F088FE28B14FF00072074BC3F880215F
S315080084601A601A2001F07EFE28B14FF08062024B96
S31508008470C3F880211A6008BD00E100E038B505465A
S315080084800C4660F0ECFC0022044B03EB05135C6021
S315080084901A73BDE8384060F0E8BC00BF60D500201C
S315080084A0F8B505460F46164660F0D9FC104B05F0A0
S315080084B0FC02D3F824140023EC1804F00304144334
S315080084C021FA04FC1CF0010F07D00133042BF3D169
S315080084D0FF2460F0CAFC2046F8BDFF2CF9D0012223
S315080084E0044B03EB0413C3E901761A73F1E700BFE3
S315080084F000C0035060D50020074BD3F82404D3F8F6
S31508008500202403F50053104000F0553020F0502089
S31508008510C3F82004FFF77EBF00C00350074BD3F80B
S315080085202404D3F8202403F50053104000F0AA30A1
S3150800853020F0A020C3F82004FFF76CBF00C003504A
S31508008540024B1968024B186856F0C8BB1C1200206B
S315080085501812002037B5920004460D46019291F094
S315080085602BFE431C0BD060B929462046019A87F09A
S315080085701CFF0028044808BF002003B030BD03488C
S31508008580FBE70348F9E700BF10E000F021E000F040
S3150800859024E000F010B5044691F016FE431C10D0F6
S315080085A088B902F039FC234620F00300204498429B
S315080085B001D1002010BD53F8042B0132F7D003482F
S315080085C0F8E70348F6E70348F4E700BF0EE000F0D3
S315080085D021E000F024E000F001292DE9F84327D82E
S315080085E0254B264E1C68264FDFF8A080803C14F1E8
S315080085F0800F01D1BDE8F883D4F8009005214846DC
S3150800860060F076FC1F4B994510D01F4B99450CBF5F
S315080086103D46454660F01CFC2B6843F018032B606A
S3150800862060F01AFCD4F88040803CE0E73546F1E774
S3150800863002390129DED8104B104E1C68104FDFF89E
S315080086404C80803C14F1800FD4D023680D4A9342A5
S3150800865010D00D4A93420CBF3D46454660F0F8FBE4
S315080086602B6823F018032B6060F0F6FBD4F88040E3
S31508008670803CE7E73546F1E750DE002094C4035016
S31508008680B4C403500000015B00000A5074C40350D0
S315080086902DE9F041864A0B688EB0934205460C4692
S315080086A00DF1180803D0834A934240F0EB80474601
S315080086B0814ECDF814800FCE0FC796E80F001036FE
S315080086C087E80F000FCE01AF0FC7002D00F0D88046
S315080086D084220021284687F09FFE2368744A934225
S315080086E040F0938056232B654FF470230027DFF85C
S315080086F0FCC1C5E90BC32368A4462B6001232E1DC4
S3150800870085F85C30BCE80F000FC69CE80F0086E8C9
S315080087100F00637E012B08BF8DF81D30A37E2BB199
S31508008720012B40F08F8004238DF81230227EE368F7
S31508008730012A40F08E80614A93429CBF05238DF83A
S31508008740353000238DF811305D4B01213A20039313
S3150800875000F056FF0121286D00F052FF2369DA1F49
S31508008760092A55D8063B8DF81030237E2BB9E37EAF
S31508008770B3FA83F35B098DF81C300121284660F0B3
S3150800878053FA0646002844D1227A237943EA02435B
S315080087907A0102F1A04101F57031C1F8AC34637A6F
S315080087A0607940EA0340C1F8A404A67AA07940EAB1
S315080087B00640C1F8A804E37E002B4ED1E07AE3799F
S315080087C043EA0043C1F89834E37E002B45D11D23C4
S315080087D0C1F89434206801A902F074F860F03FFBF0
S315080087E0384B1A78002A40D101221A7060F03DFBF6
S315080087F007F006FBFFF718FD002105F12400FFF737
S315080088009BFC0146A0B3304E03E02A4A934210D09F
S315080088102E4E2F4B1B681BB92E492F4806F06EFFAC
S315080088202B4805F1800160F03BF930460EB0BDE8F3
S31508008830F08157232B654FF48013284E0127C5E98D
S315080088400B6358E7022B3FF46FAF032BE0D10623E7
S315080088506AE700228DF8342077E702F1A0431C224C
S3150800886003F57033C3F89424B4E760F0FEFAC1E761
S3150800887005F12800FFF760FC06460028C9D0C2E7C4
S31508008880174EC6E74646174F0FCF0FC697E807009D
S3150800889086E80700002D00F0DC80842200212846A7
S315080088A087F0BAFD2268104B9A4221D0074EBCE7E2
S315080088B00000015B00000A506CA209083F4B4C00FF
S315080088C040420F00B6610120092000F0022000F0A6
S315080088D050DE00203C12002054DE0020010010006B
S315080088E0012000F0A0A2090800C0055001000F00F1
S315080088F029232B654FF480232E4627465649C5E97A
S315080089000B13236846F8043B0FCF0FC697E80F00F2
S3150800891086E80F00637E012B08BF8DF82630A37EFC
S315080089202BB1012B68D14FF40073ADF82830237EA4
S315080089300121012B03BF00238DF825304FF4E133C5
S31508008940E3683A20089300F05BFE0121286D00F0E9
S3150800895057FE23691A1F0C2AA8D8033B41462068EC
S315080089608DF8243002F0B4FAA36923F47F0323F4C4
S315080089707F4323B92A68936843F480339360E27E81
S31508008980364B002A43D11D22C3F82027217A2279A3
S3150800899042EA0142C3F83827617A627942EA01421B
S315080089A0C3F83027A17AA27942EA0142C3F83427EC
S315080089B0E17AE27942EA0142C3F8242701212846EE
S315080089C060F032F9064600287FF42FAF60F047FAC8
S315080089D0234B1A788ABB01221A7060F046FA07F010
S315080089E00FFAFFF721FC002105F12400FFF7A4FB8D
S315080089F0014628B31B4E18E7022B02D14FF48073A9
S31508008A0093E7032B7FF452AF4FF440738DE71C2294
S31508008A10C3F82027217A227942EA0142C3F8382787
S31508008A20617A627942EA0142C3F83027A17AA279CB
S31508008A3042EA0142C3F83427C0E760F016FAD0E7E5
S31508008A4005F12800FFF778FB064600283FF4EDAE4F
S31508008A50D0E7054EE9E600BF0200040000C0035057
S31508008A60B6610120092000F0012000F038B141B1BB
S31508008A70013AB2F5006F044838BF00207047034832
S31508008A8070470148704700BF037000F0027000F09D
S31508008A9090F83530022B0DD114223023417F90F8FF
S31508008AA0210013FB0123044A9B5823FA00F000F027
S31508008AB0010070470020704730C00350002313B5EB
S31508008AC01D4A52F8044B94F8211081420ED0013306
S31508008AD0042BF6D102B010BD0028FBD19DF8073053
S31508008AE0002BF7D0A068FFF7D3FBF3E794F83530EF
S31508008AF0022BEFD12046FFF7CBFF637E2076022BB1
S31508008B00E8D194F8323003F0FF02002BE2D1A068D6
S31508008B100DF107018DF80720FFF71AFC237E1BB11C
S31508008B2094F83330002BD7D00023A06884F833306C
S31508008B30FFF7CEFBCEE700BF5CDE002030B510495C
S31508008B40104A0B782BB9C2E90033C2E90233012374
S31508008B500B700C4C0023214651F8045B854208D063
S31508008B600133042BF8D1002154F8043B1BB942F811
S31508008B702100002003E001310429F5D1024830BD67
S31508008B80B76101205CDE0020027000F010B50446D3
S31508008B90FFF74AFB002104F10800FFF7CDFA01466A
S31508008BA020B904F10C00FFF7C7FA00B1004810BD60
S31508008BB00E7000F010B590F8363004466BB90422F2
S31508008BC003685A61026893699907FCD523790C4AA8
S31508008BD0B9335B011021995010BD022BFCD10068F6
S31508008BE0836CDB074CBF0521062160F081F92379E8
S31508008BF041F294425B0103F1A04303F57033E9E7C0
S31508008C0000C00350F8B507460D461646FFF72EFF77
S31508008C1000286BD1152001F0B3FA0446FA6A938846
S31508008C209BB213B197F83230E3B197F83630F3B9FF
S31508008C303B689C6904F002041CB93846FFF7BAFF82
S31508008C400024012387F8343097F83630CBB92E4400
S31508008C50B542386810D183699A06FCD51CB300243E
S31508008C602046F8BD002CDAD0FFF79AFBD6E7022B90
S31508008C70E3D13B689C6CDDE715F8011B60F0E5F96C
S31508008C80E6E7022BEAD12E44B542386806D142F20D
S31508008C902003826C33EA0202FBD1DFE715F8011BD9
S31508008CA060F02BF9F0E797F8363053B910213B7985
S31508008CB00F4A03F239135B01D15008223B685A6107
S31508008CC0CEE7022BCCD13868836CDB074CBF092171
S31508008CD0214660F00DF942F2944210213B795B017E
S31508008CE003F1A04303F570339950B9E70446B7E793
S31508008CF000C0035010B5044680B190F832302BB945
S31508008D00FFF7C6FE10B9A068FFF7C2FA002094F86C
S31508008D1032300133DBB284F8323010BD0048FCE74C
S31508008D20027000F010B50446A0B190F832309BB13D
S31508008D3090F83230012B05D1FFF7AAFE10B9A068CA
S31508008D40FFF7C6FA002094F83230013BDBB284F80C
S31508008D50323010BD0148FCE70148FAE7027000F01E
S31508008D60057000F037B590F835500446022D1DD130
S31508008D70012290F82230457E817F9A403020164B9A
S31508008D8025B900FB013303F5015305E0012D07D191
S31508008D9000FB013303F582531A60002003B030BD8F
S31508008DA0247E00FB0133002CF4D1ECE7012DF4D12D
S31508008DB0037E73B911238DF80730FFF79BFF2A4608
S31508008DC020460DF10701FFF71DFF2046FFF7AAFF12
S31508008DD0E3E71323EFE700BF00C003502DE9F04196
S31508008DE004468CB0884F04AE0D460FCF0FC697E8E1
S31508008DF00F0086E80F0010220021684687F00CFB5A
S31508008E00002C00F0FE8025B9804E30460CB0BDE837
S31508008E10F08160220021204687F0FEFA2B68204662
S31508008E202360022384F836302B7C2371FFF786FEF5
S31508008E3006460028E9D12B7F754A84F835302B6819
S31508008E40934240F0B88056236362724B23614FF415
S31508008E50702363610123ADF80630002384F831607E
S31508008E6084F83060D5E90912A1620B80A16A3A201C
S31508008E704B80A16A684E8B8084F83030E26213809A
S31508008E80E26A01215380E26A938084F8313084F8DB
S31508008E90333002238DF81D30AB6806936B8AADF824
S31508008EA02030AB8AADF81E30AB7D8DF81C30AB692F
S31508008EB00993CDF82CD000F0A3FB0121606A00F0DD
S31508008EC09FFB2B79002B00F081800121362000F0D2
S31508008ED097FBD6F8203223F0070343F0030310224A
S31508008EE0C6F820322B7C4D4F204607EB4313C3F8B8
S31508008EF09424A97B2B7C2A7B07EB431342EA014285
S31508008F00C3F8AC242B7CE97B6A7B253342EA014211
S31508008F1007EB43135A602B7B0121E376AB7BE377A0
S31508008F206B7B2377EB7B84F820306B7F6377AB7F93
S31508008F3084F82130EB7FA37795F8203084F8223027
S31508008F405FF0DDFE064600287FF45FAF5FF087FF1F
S31508008F502A7F8046032A40D141F2944102202B7C85
S31508008F6007EB431358502B7C95F82000E97F07EB55
S31508008F70431341EA004103F5A5531960297CA87FEC
S31508008F8007EB411741F29C416B7F43EA00437B5054
S31508008F908DF8002006238DF810302B79286804A94F
S31508008FA063B35FF0B3FF2046FFF7F0FD0646404681
S31508008FB05FF05BFF29E71A4A93427FF425AF5723F0
S31508008FC06362184B23614FF4801342E7D6F82032C8
S31508008FD023F0070343F0010381E7022ADAD194F864
S31508008FE021001149FFF74AFAFFF730FA4FF40073E8
S31508008FF020462383A676FFF7B5FECBE75FF082FF10
S31508009000D1E70A4E01E700BFD8A20908037000F0AD
S315080090100000015B01000F000080005000C00350F3
S3150800902000000A5001001000BD8A0008027000F016
S31508009030044BD3F88420D206FBD4D3F88400C0F3BB
S3150800904081107047004000502E4B98424AD022D8D3
S315080090502D4B984240D014D82C4B984239D00AD878
S315080090602B4B984232D02B4B98422FD02A4B984202
S315080090702CD000207047294B9842FAD1284B186FFC
S315080090807047284B98422AD0274B9842F1D1244B57
S31508009090D3F880007047254B98422BD009D8244B2B
S315080090A0984223D0234B9842E3D11D4BD3F88C002A
S315080090B07047214B984221D003F5740303F51053EA
S315080090C09842D6D1164BD3F898007047144B986D32
S315080090D07047134B586E7047114B586F7047104BBB
S315080090E0986F70470E4BD3F8840070470C4BD3F833
S315080090F0880070470A4BD3F890007047084BD3F89E
S31508009100940070470048E8010024F400C0CF6A00C4
S3150800911080841E0000093D0040420F00405DC600E5
S315080091200080E00FC0EA210180BA8C01007E560358
S3150800913080D54302006CDC020090D00338B5104B92
S315080091400546D3F880300C4603F00303022B0BD0F8
S31508009150032B0DD0012B0FD1FEF7DCFD0E2305B135
S31508009160286004B1236038BDFEF71EFE0723F6E724
S31508009170FEF7C4FD0623F2E700231846EFE700BF13
S315080091800080005038B5184B0546D3F820010C4628
S3150800919000F00700062805D8DFE800F0230B0F17B4
S315080091A0131B1F000023184605B1286004B123606D
S315080091B038BDFEF7A3FD0523F6E7FEF7DBFD03231F
S315080091C0F2E7FEF7F1FD0723EEE7FEF7E9FD0223D6
S315080091D0EAE7FEF793FD0623E6E7FEF7CBFD042351
S315080091E0E2E70123E0E700BF0080005038B5174BDF
S315080091F00546D3F828310C4603F00703013B052B37
S3150800920020D8DFE803F003131B0F0B17FEF776FDD4
S31508009210052305B1286004B1236038BDFEF76EFD4D
S315080092200623F6E7FEF7C0FD0723F2E7FEF7A2FDE1
S315080092300323EEE7FEF79EFD0423EAE7FEF7B0FDFB
S315080092400223E6E700231846E3E700BF0080005044
S3150800925073B50D460021114B0191D3F8804106469E
S3150800926004F00304022C13D0032C0CD0012C13D1C8
S3150800927001A8FFF787FF10240EB1019B336005B1E3
S315080092802C6002B070BDFEF78FFD07240190F3E74E
S31508009290FEF786FD0190EFE70C46EDE700800050EB
S315080092A0002337B50193164B0546D3F820320C46F2
S315080092B003F00703042B04D8DFE803F0200B11168C
S315080092C01B0000230DB1019A2A6004B1236003B084
S315080092D030BD002101A8FFF789FF1223F2E7FEF748
S315080092E063FD07230190EDE75FF0E1FB0A23019098
S315080092F0E8E7FEF79BFD09230190E3E70123E1E791
S315080093000080005038B5104B0546D3F840310C465E
S3150800931003F00303022B0BD0032B0DD0012B0FD127
S315080093205FF0C5FB0A2305B1286004B1236038BD88
S31508009330FEF77CFD0923F6E75FF0BCFB0C23F2E79A
S3150800934001230020EFE700BF00800050002337B557
S315080093500193164B0546D3F860320C4603F0070313
S31508009360013B032B1FD8DFE803F0020E1914002176
S3150800937001A8FFF707FF10230DB1019A2A6004B16F
S31508009380236003B030BD002101A8FFF7BBFF1123FE
S31508009390F2E7FEF709FD07230190EDE7FEF700FD6A
S315080093A002230190E8E70023E6E700BF00800050AB
S315080093B0002337B50193164B0546D3F894320C466D
S315080093C003F00703013B032B1FD8DFE803F0020E67
S315080093D01914002101A8FFF7D5FE10230DB1019A33
S315080093E02A6004B1236003B030BD002101A8FFF74D
S315080093F089FF1123F2E7FEF7D7FC07230190EDE773
S31508009400FEF7CEFC02230190E8E70023E6E700BF5B
S315080094100080005038B5144B0546D3F800020C46B8
S3150800942000F00700042804D8DFE800F01B0A0E1233
S3150800943016000023184605B1286004B1236038BD1C
S315080094405FF035FB0A23F6E7FEF7F0FC0923F2E79F
S315080094505FF030FB0C23EEE7FEF776FC0F23800A5D
S31508009460E9E70123E7E700BF0080005038B5144B51
S315080094700546D3F808020C4600F00700042804D86D
S31508009480DFE800F01B0A0E1216000023184605B185
S31508009490286004B1236038BD5FF009FB0A23F6E7AC
S315080094A0FEF7C4FC0923F2E75FF004FB0C23EEE7A2
S315080094B0FEF74AFC0F23800AE9E70123E7E700BF26
S315080094C00080005038B5104B0546D3F840320C469C
S315080094D003F00303022B0BD0032B0DD0012B0FD166
S315080094E05FF0E5FA0A2305B1286004B1236038BDA8
S315080094F0FEF79CFC0923F6E75FF0DCFA0C23F2E79B
S3150800950001230020EFE700BF0080005038B5104B5C
S315080095100546D3F860310C4603F00303022B0BD043
S31508009520032B0DD0012B0FD15FF0C1FA0A2305B129
S31508009530286004B1236038BDFEF778FC0923F6E7F6
S315080095405FF0B8FA0C23F2E701230020EFE700BF2B
S3150800955000800050B0F5207F1FD009D8B0F5007FF5
S3150800956015D003D868B1B0F5C07F0AD000200CE04A
S31508009570B0F5607FFAD10B4BD3F88000C0F3011029
S3150800958003E0084B186FC0F3033001307047054BF2
S31508009590D3F89000C0F30460F7E7024B186FC0F3E6
S315080095A08020F2E70080005002464FF48030104BCE
S315080095B010B598660020FFF7CDFF504341F671328B
S315080095C00C4BDC69DA635A6804F4803422F44012DE
S315080095D059B9094988428CBF4FF4801000201043BE
S315080095E058600CB10022DA6310BD0449F2E700BFE7
S315080095F00090005000000350005A6202002D31010D
S31508009600430905D0012B0DD0022B094B18BF0023A7
S3150800961000F01F0041B103F58053012202FA00F061
S3150800962018607047034BF3E703F50053F5E700BFEF
S3150800963068800050648000501FB5002180280446C9
S31508009640CDE9001100F0A58035D85E2846D85E28F9
S3150800965044D8DFE800F0A24343434343434343432C
S3150800966043434343434343434343434343434343BC
S31508009670434343434343A2AAA2AAB9B9B9B9B9AA6B
S31508009680C34DD9714DAAAAAA43434343434343430F
S31508009690AAAAAA79E3AA434343434343434343431A
S315080096A0434343B9A2A2A2DE4D4DE8885EBE4343BA
S315080096B043434399A200B0F5B06F00F08F802DD8D0
S315080096C0B0F5207F71D00CD8B0F5C07F65D0B0F565
S315080096D0007F65D0B0F5807F00F08580009804B0E3
S315080096E010BDB0F5607F6AD00DD8B0F5407FF5D1D2
S315080096F0FEF72AFB02464FF42070FFF72BFFB2FB5A
S31508009700F0F0400847E0B0F5806F5DD0B0F5A06F87
S31508009710E4D100216846FFF7C3FDDFE7B0F5106F17
S3150800972077D016D8B0F5E06F78D00AD8B0F5C06F04
S315080097306AD0B0F5D06FD1D100216846FFF76AFE2E
S31508009740CCE7B0F5F06FC9D100216846FFF7DEFE19
S31508009750C4E7B0F5406F3CD013D8B0F5206F62D09F
S31508009760B0F5286FBAD10021314B0391D3F8703286
S3150800977003F00303012B02D103A8FFF7C3FD039BE4
S315080097803BE0B0F5486FA9D100216846FFF710FE07
S31508009790A4E7FEF7BFFA0090A0E7FEF7D5FAFAE7C6
S315080097A0FEF7B8FA0246204604E0FEF7CDFA02466E
S315080097B04FF42070FFF7CEFEB2FBF0F0EBE701A8FE
S315080097C0FFF7BCFC019AEEE700216846FFF7DAFCD2
S315080097D084E700216846FFF709FD7FE70021684610
S315080097E0FFF736FD7AE74FF0E02302911B695B0726
S315080097F005D5FEF7A9FA0290029B00936EE703A926
S3150800980002A8FFF77FFDF7E700216846FFF77AFD14
S3150800981064E700216846FFF729FE5FE700216846EE
S31508009820FFF750FE5AE700216846FFF78FFD55E718
S315080098300080005008B58020FFF7FEFE034B9842D3
S315080098409EBF4FF48032024B1A6708BD005A620267
S3150800985000A000501FB50023B0F5807F019300F0EB
S31508009860C38064D85D2855D84C2807D82D2847D8F2
S3150800987023282BD8019805B05DF804FB4D3810282D
S31508009880F8D801A353F820F0DF9900087598000866
S315080098907598000875980008919900087598000849
S315080098A075980008659A0008AF9900085599000848
S315080098B05B9A00087598000875980008759800085E
S315080098C075980008759800086F9A000824380928C2
S315080098D0D0D801A353F820F0DF990008DF990008D3
S315080098E0DF990008DF990008DF99000875980008D5
S315080098F0D59900087598000871990008159A000806
S315080099003D2800F082803E28B4D1002001A9FFF747
S31508009910D9FDAFE78028ADD15A4B1B6F03F007037B
S31508009920013B032BA6D8DFE803F05350878FB0F529
S31508009930F06F6AD021D8B0F5B06F4BD00FD8B0F51C
S31508009940607F00F0858095D3B0F5806F47D0B0F57D
S31508009950A06F8FD1002001A9FFF7A2FC8AE7B0F516
S31508009960D06F57D0B0F5E06FCFD0B0F5C06F81D1CA
S31508009970002001A9FFF7C6FC7CE7B0F5206F71D07F
S315080099800BD8B0F5086F4AD0B0F5106F7FF472AFF8
S31508009990002001A9FFF76AFD6CE7B0F5406F5CD0BF
S315080099A0B0F5486F63D0B0F5286F7FF463AF002138
S315080099B0344B0391D3F8703203F00303012B5BD0C9
S315080099C0022B14BF0B46152300E00523019351E72C
S315080099D00223FBE7002001A9FFF73AFC4AE700202B
S315080099E001A9FFF7CFFB45E702934FF0E0231B6978
S315080099F05B0705D5FEF7A8F90D230393039BE5E757
S31508009A0003A902A8FFF77EFCF8E7002001A9FFF7E3
S31508009A107DFD2FE7002001A9FFF7FCFC2AE7194B7B
S31508009A20D3F8003103F00303022B07D0032B09D028
S31508009A30012B0BD1FEF79EF90323C7E7FEF7F6F9CC
S31508009A400923C3E75FF031F80823BFE70123BDE721
S31508009A50184601A9FFF772FB0CE7002001A9FFF7DA
S31508009A60C5FB07E7002001A9FFF770FC02E7002005
S31508009A7001A9FFF79DFCFDE603A8FFF743FC1123A8
S31508009A80A4E700BF0080005008B5FFF7E3FE0928E9
S31508009A9011D00A38012811D84FF48002094B4FF625
S31508009AA0FF705A6603F5D8335B6A13F0010F18BFC7
S31508009AB04FF4FA7008BD044B1888FBE74FF6FF70A1
S31508009AC0F8E700BF009000501E17002038B504467E
S31508009AD08020FFF7BFFE032800F08A804FF480122B
S31508009AE0544B4FF0A0615A6645F60E03524AC2F827
S31508009AF08030524B99624FF4803103F58053996256
S31508009B00936DD903FCD4916D11F08041FBD1D4E952
S31508009B1000031B0543EA0063E07B0343207B43EA1B
S31508009B200043607B43EA0033A07B43EA801313615A
S31508009B309069D4E904531B0643EA856300F00040A4
S31508009B400343A07E0343207E43EA0043607E43EA44
S31508009B5000239361136AE269E57E002A0CBF0020A0
S31508009B60082023F00F03134343EA8503324A0343CD
S31508009B701362E369324D002B3BD194F82430916A85
S31508009B8094F82000DB000D4043EA401394F82110B6
S31508009B902B4343EA011343F480339362294B916DB7
S31508009BA033EA0101FBD14FF08071244881621369C1
S31508009BB0A56823F4700343EA055313614FF0004385
S31508009BC0836194F822300BB91F4B996294F82330BD
S31508009BD03BB94FF480321C4B9A62174A936D5B006F
S31508009BE0FCD494F825301BB1134B184AC3F88020CF
S31508009BF038BD022B08D11161154891614FF40852FE
S31508009C004FF47F415FF0EBF80B4994F822308A6AEB
S31508009C1094F820001B06154043EA401394F82420C4
S31508009C202B4343EAC20394F8232043EA02438B6298
S31508009C30D7E700BF009000500040005A0050005A75
S31508009C40C7FFFEFE030001000060005AF1A7FFFFF0
S31508009C503440005A37B5194CA26AA36D13F4803FF5
S31508009C6018BF4FF48031164B18BF99624FF08071B8
S31508009C709962144BA56993F9003025F47F050344CE
S31508009C80000280B225F47F4583F30803284340EA9F
S31508009C900340A0610C4801925FF0A1F8A36D019AF8
S31508009CA013F4803F07D04FF48031074803B0BDE86E
S31508009CB030405FF094B803B030BD00BF0040005A92
S31508009CC00050005A801900202840005A014B93F989
S31508009CD000007047801900204FF480300E490F4B62
S31508009CE08A6A9862886D00F003000328FAD14FF05B
S31508009CF080709862896D01211965074B996D8907EE
S31508009D00FCD4996D8807FCD5996D8907FCD504495B
S31508009D1004485FF064B800BF0040005A0050005A7B
S31508009D20000001012840005A4FF400011B4A4378FD
S31508009D3010B551664FF4D151022402F5B83251627A
S31508009D4017494F2B4C604FF0010428BF4F2301F5EC
S31508009D5080514C601169C903FCD4017843EA012398
S31508009D605361D0E901131B0143EA0123417B0B43ED
S31508009D70017B43EA41039360C37B817B1B0143EA72
S31508009D804113417C0B43017C43EA41035360837CC6
S31508009D9013B16FF4D153536210BD00BF0090005049
S31508009DA000100250014B1880704700BF1E17002094
S31508009DB0014B1880704700BF1C1700204FF4800223
S31508009DC008B5184B5A660223174A5360936813F46A
S31508009DD08033FBD1012822D1FDF7CCFF134B9842E3
S31508009DE015D003F5122303F5F863984213D0104BE8
S31508009DF000EB8002400AB3FBF0F0520A0A4BDA6223
S31508009E00012218635A620022074B5A6008BD45F6BC
S31508009E107A10084AF2E745F61A00074AEEE753624F
S31508009E20F1E700BF009000500040025000F04902E0
S31508009E3064666666D8B80500BBCF0500B0F5207F16
S31508009E4010B50C4657D008D8B0F5007F48D003D8CF
S31508009E5030B3B0F5C07F23D010BDB0F5607FFBD11D
S31508009E6029492A48D1F8FC2012F080721EBFD1F881
S31508009E70FC3023F08073C1F8FC30D0F88030611EC6
S31508009E8023F0300444EA0114C0F88040002AE3D0E5
S31508009E901D4AD2F8FC3043F08073C2F8FC30DBE789
S31508009EA05EF0AEFF5EF0BAFF4FF48031184B174AEA
S31508009EB01967136F611E23F4704444EA013414676A
S31508009EC0FDF742FF0446FFF7B3F8C0F1020120464A
S31508009ED05EF09EFF00F02EF8BDE81040FFF7AABC22
S31508009EE00A4A0139D2F8903023F0F85444EA01645A
S31508009EF0C2F89040B0E7054B013C196F21F4806128
S31508009F0041EA84241C67A7E700ED00E000800050C2
S31508009F100090005008B50121022000F0A5F95EF076
S31508009F206FFF5EF07BFF4FF48032014B1A6708BD66
S31508009F300090005008B54FF4C070FFF77DFBBDE8F0
S31508009F400840044988428CBF022101214FF4207041
S31508009F50FFF774BF80F0FA024FF4C02201212DE901
S31508009F60F04105466A4B5A666A4A03F598335C68B7
S31508009F7051605E6816F00206FBD1FFF759F8012812
S31508009F80286805D1644B984202D90020BDE8F081C3
S31508009F90624A002311461768B84202D35768B84286
S31508009FA005D90133192B02F11002F4D1002301EB74
S31508009FB00313D3E9028028B1FFF746F800F07F00C3
S31508009FC048EA00088020FFF745FC05285FD15EF0C7
S31508009FD017FF5EF023FF4FF480324D4B4FF4C070ED
S31508009FE01A67FFF7B7FA012806464CD102214FF443
S31508009FF0C070FFF723FF01274948C16811F0060121
S3150800A000FBD1D0F808C0C0F80880836808F4F812B5
S3150800A01003F4F8139A424ED1AA88EB8843EA02431E
S3150800A020404AD360AB68032B33D1A2F5A032D2F8ED
S3150800A030003123F0030343F00103C2F800312B7DFE
S3150800A040287B002B6B7D14BF04220022002B18BF2F
S3150800A05040212B694FF0000843EA40031343314A75
S3150800A0600B4393602868FDF74FFE0722294B1A61B8
S3150800A0700122A3F580535A60A3F580531C6914F096
S3150800A0800704FBD01EE0022801D10421AFE7002710
S3150800A090B2E7092B07D1244AD2F8003123F003038B
S3150800A0A043F00203C9E7082BC9D11F4AD2F8003189
S3150800A0B043F00303C1E714F001044FF00108C0F8A8
S3150800A0C008C0D2D18020FFF7C5FB052817D127B1D4
S3150800A0D031464FF4C070FFF7B1FEFDF735FE054671
S3150800A0E0FDF70CFEFDF70AFEFEF7A2FFC0F102011E
S3150800A0F028465EF08DFEFFF71DFFFFF79BFBB8F1C4
S3150800A100000F7FF442AF631E584258413EE700BF36
S3150800A1100090005000E00150005A6202F8A20908B7
S3150800A1200000015000C00150008000500028ABBF5D
S3150800A13000F16040054B00F5614000F00F00ACBF30
S3150800A14090F80003185C0009704700BF14ED00E0A2
S3150800A150034B5868C0F30800003818BF0120704741
S3150800A16000ED00E0054B420953F8223000F01F00CD
S3150800A17023FA00F0C04300F00100704700E100E058
S3150800A180014608B5EFF31083DB0702D50122104616
S3150800A19008BDFFF7E7FF02460028F7D10846FFF794
S3150800A1A0C5FF0146EFF3118313B1B0EB131FEDD2D0
S3150800A1B0074B5B68C3F30803002BE8D0103B58B283
S3150800A1C0FFF7B4FF88428CBF00220122DFE700BFF9
S3150800A1D000ED00E0024A536B0342FCD1704700BF12
S3150800A1E000400950044A4178536F23F4407343EA08
S3150800A1F001235367704700BF0040005010B50A4A54
S3150800A2000446136943F00403136105F061FC5EF02C
S3150800A2102FFE30BF5EF02DFE05F06EFC1CB9BDE8C2
S3150800A2201040FDF791BD10BD00ED00E010B5084ADD
S3150800A2300446136943F00403136105F049FC30BF73
S3150800A24005F05AFC1CB9BDE81040FDF77DBD10BDF0
S3150800A25000ED00E0034A0179D36E23F030030B4387
S3150800A260D366704700400050F8B504461C4BD3F837
S3150800A2708420D106FBD4D3F88430C3F381139C42DF
S3150800A2802CD0FDF747FD012C064602D121465EF08B
S3150800A290BFFD5EF0DDFD4FF00072124B07465A66B1
S3150800A2A020465EF0E9FD4FF480630D4D621E934033
S3150800A2B02B676B6E9A0103D4D5F884309B060AD5B2
S3150800A2C038465EF0C9FD022C08D13046BDE8F84094
S3150800A2D000215EF09DBDD5F88430EAE7F8BD00BFE1
S3150800A2E0004000500060005007B518B90191FDF70D
S3150800A2F011FD0199064B1B7843B1064B984205D8C8
S3150800A300012003B05DF804EBFFF7AEBF0220F8E7C3
S3150800A310B8610120005A62020278034B012100202D
S3150800A3201A70FFF7E1BF00BFB86101204FF0004285
S3150800A33038B5284B28495A664AF6CD334D6C04463B
S3150800A34005F001050B6460BB0120FFF743FF4B686E
S3150800A350DA0708D4002415B11F4B204A1A648FF077
S3150800A36089FA204638BD1E4B586020461D4C0B6B9B
S3150800A370DB0706D4A04202D14FF0FF34EBE70130E9
S3150800A380F5E7A0424FF0FF3418BF0024E3E7013297
S3150800A3900B6B13F0080307D08242F8D16FF0010463
S3150800A3A0D9E700220F48F3E78242F7D020210C4A6A
S3150800A3B091620121A2F5805251600749094A886ACB
S3150800A3C0800603D49342E9D00133F8E79342C1D11A
S3150800A3D0E4E700BF00900050004009503254FFFFE8
S3150800A3E00060095040420F004FF0004238B5164B46
S3150800A3F001465A664AF6CD33144C154A656C2364F1
S3150800A40043780B205B0043F00103D363FFF7E2FEBA
S3150800A41063688A7823F4F87343EA02136360CA7898
S3150800A4204B7943EA0223A3600A798B7943EA02232C
S3150800A43023610878FFF77AFFEB0744BF054B2364CF
S3150800A4408FF018FA012038BD0090005000400950DE
S3150800A450004000503254FFFF4FF0004270B5124BD7
S3150800A46004465D6E03F580535A664AF6CD330F49A6
S3150800A47080204E6C0B64FFF7ADFE0B6A23F00F03CA
S3150800A4800F2C94BF234343F00F030B62F30744BF1B
S3150800A490074B0B64002DA2BF4FF00042054B5A66CE
S3150800A4A08FF0E8F970BD00BF0080005000400950E9
S3150800A4B03254FFFF00A000504FF0004270B5104B19
S3150800A4C004465D6E03F580535A664AF6CD330D4948
S3150800A4D080204E6C0B64FFF77DFE0B6A23F4F8535D
S3150800A4E043EA04230B62F30744BF074B0B64002DB2
S3150800A4F0A2BF4FF00042054B5A668FF0BBF970BDFC
S3150800A50000800050004009503254FFFF00A0005060
S3150800A51010B55EF0B6FC042300F5805100F5005234
S3150800A5200B6113610B6113610B6113610B6113619D
S3150800A530202341F2020103610023C3608360416165
S3150800A5404FF4A0218361836541620549C3610362B3
S3150800A5508362C36243630365D164036310BD00BFAE
S3150800A560FF3F0D03F8B505461446084641B9344B76
S3150800A5709D422FD0334B9D4208BF5720FFF75CF80A
S3150800A580AB68DE072ED5B0FBF4F46E68013C16F016
S3150800A590010625D0282128465EF06FFCAB6C99078A
S3150800A5A01AD1AB6CDA0719D4AB6C13F0020F0CBFD7
S3150800A5B00027062728465EF064FC286920F07F40BD
S3150800A5C040EA04642C61DEB139462846BDE8F84005
S3150800A5D05EF08EBC5620D1E70527EBE70927E9E7A9
S3150800A5E03746EAE76B68AB6DAF68DB0707F0E0074D
S3150800A5F048BF6400402F1BD003D8DFB1202F1BD0E3
S3150800A600F8BD602F1AD0802FFAD1012604FB06F375
S3150800A6104101B1FBF3F30C4A203B02EAC302284688
S3150800A62001215EF02AFC2A63BDE8F8405EF025BCED
S3150800A6300626EBE71026E9E70826E7E70426E5E716
S3150800A6400000015B00000A50F8FF7F00F8B51E46BF
S3150800A650436804460D4617461BB140F6FF715EF087
S3150800A6600CFC2046FFF754FFE9896B7B62690B43B4
S3150800A670298A22F44C520B4322F00F0213436361DA
S3150800A680A368297B2A7E23F0804323F0E203114343
S3150800A69019436B691943A160AB681BB9A36843F0FA
S3150800A6A00043A360EA69002A6BD0A368127A43EADA
S3150800A6B08253A360EA69A368927A43EA4243A36095
S3150800A6C0EB69A2689B8803F4C0431343A360EA6955
S3150800A6D0A368527843EA8203A360EA69A368527BB7
S3150800A6E043EAC203A360EA69A368927B43EA0213BA
S3150800A6F0A360EA69A368927843EA8223A360EA69B9
S3150800A700D37991795B0243EA8123E360EB69674A6F
S3150800A7101B7803F0FD03012B02BFE36843F0040333
S3150800A720E360EB691B78023B012B614B7AD89442B4
S3150800A73076D0604A94420CBF01224FF0FF3203EBF9
S3150800A740421341F2944202219950EB695A7A04F570
S3150800A75080539A62EB695B7A1BB1E36843F4006342
S3150800A760E360EB69DB7A63B1E36843F40043E360D3
S3150800A7704E4B9C4265D1EB694F4A1B7B03F00F0396
S3150800A78053673FB197F8203004F58050002B63D00B
S3150800A79001230362002E30D02B7E04F5805013B1BE
S3150800A7A04FF40043836596F82120404B102A43490D
S3150800A7B061D89C425DD03F4B9C420CBF01234FF0B1
S3150800A7C0FF330127CF54768C3849B6F5006F3C4BDA
S3150800A7D05FD88C425BD037498C420CBF01214FF0C1
S3150800A7E0FF3101275F54A36D324323F4F95323F055
S3150800A7F01E031343A36501238365052120465EF0E6
S3150800A8005AFBAA6812B16968FFF7ACFE2046297898
S3150800A8105EF06EFBA36CDB4313F4405FFAD1F8BD20
S3150800A82000228CE794420AD0224A94420CBF0122A5
S3150800A8304FF0FF3203EB421342F2944283E70022C1
S3150800A840F8E71C4B9C429CD1EB691B4A1B7B03F027
S3150800A8500F03C2F8803094E7E36997F8221097F857
S3150800A860212023F009030A431A4342F00102C26178
S3150800A87090E70023A5E79C4207D00E4B9C420CBFED
S3150800A88001234FF0FF3302279CE70023FBE7002153
S3150800A890A7E78C4207D007498C420CBF01214FF02D
S3150800A8A0FF3102279EE70021FBE700BF0000015B9E
S3150800A8B000C0035000000A5000900350BB610120FD
S3150800A8C0B961012070B5436804460D460E691BB18F
S3150800A8D040F6FF715EF0D1FA2046FFF719FE2269AD
S3150800A8E06B7BA97B22F087020B43134343F080035B
S3150800A8F023611EB32A692369117823F0F8030B43F1
S3150800A900117F43EAC113117943EA4113517AD27B85
S3150800A91043EA011343EA82132361E268296922F0B4
S3150800A920F04222F47022D1E90530034313430A7B2F
S3150800A93043EA82234A7B43EAC233E360A368EA7B9D
S3150800A94023F00303134343F00103A3603EB32B69CB
S3150800A950A2685B8803F4C0431343A3602A69A3680B
S3150800A960527943EA8223A3602969626A8B79C87996
S3150800A9701B01000203F0700300F4E06022F4772262
S3150800A98022F4EE62034313430A7A120302F4E04206
S3150800A99013434A7F120402F4702213436362636905
S3150800A9A02A7B23F00F0313436361C6B12B695B89C6
S3150800A9B0A3612B695A7B3AB11E4A944225D19B7BE7
S3150800A9C01D4A03F00F0353672B69DA7B3AB1194A1C
S3150800A9D0944225D11B7C184A03F00F031367D5E967
S3150800A9E001122046FFF7BEFD052120465EF063FAF8
S3150800A9F028215EF042FA2B78A3635EF03EFAA36C38
S3150800AA00DB4313F4405FFAD170BD0C4A944201BF90
S3150800AA109B7BA2F5CE2203F00F03C2F88030D3E762
S3150800AA20064A944201BF1B7CA2F5CE2203F00F030F
S3150800AA30D367D4E70000015B0090035000000A507A
S3150800AA40072AF7B501F0030614461F464FF003011F
S3150800AA502CD89500A94000FA05F21C4801915EF031
S3150800AA6057FA01991A4806FA05F25EF051FA194B97
S3150800AA7019499DF82000002F08BF1946012303FA3B
S3150800AA8004F40C60154B1649002808BF0B461C60D9
S3150800AA90144B1031C3F820449DF82400A3F6DC3388
S3150800AAA0002808BF0B461C6003B0F0BDA2F10805DC
S3150800AAB0AD00A94000FA05F20B4801915EF028FAAC
S3150800AAC001990A4806FA05F2CFE700BF00C4035009
S3150800AAD008C4035010E4035010D4035014D4035090
S3150800AAE014E4035000E0035004C403500CC403509C
S3150800AAF02DE9F04105460F461E4690464AB1012308
S3150800AB003022194C8B4002FB00443EB304F58254B4
S3150800AB1023600F21072F05EB450388BFA7F108041B
S3150800AB204FEA0313114895BFBC00A40004330C3345
S3150800AB3008FA04F2A14018445EF0EAF9B8F1000FE9
S3150800AB400AD101213020084A01FA07F700FB05223D
S3150800AB503EB102F582521760BDE8F08104F5015452
S3150800AB60D6E702F50152F6E700C0035030C003509D
S3150800AB704FF400120B4B10B5C3F88020BFF34F8F6C
S3150800AB80BFF36F8F0024FF22074B21465C65202008
S3150800AB909A625C60FEF734FD2146BDE8104021202C
S3150800ABA0FEF72EBD00E100E000000450044A054B04
S3150800ABB0002918BF1346012202FA00F018607047F0
S3150800ABC0402004504010045010B5012104462020AE
S3150800ABD0FEF716FD01212120FEF712FD0122114B79
S3150800ABE05A60227812069A606178A27842EA01428F
S3150800ABF09A61FF229A6200229A631A644FF0004211
S3150800AC005A654FF0FF324FF4001103F500531A65E9
S3150800AC10054AC2F88011E3781B01DBB282F81533C6
S3150800AC20116010BD0000045000E100E070B5012578
S3150800AC30C3B29D401E4B0C461D658300096803F18F
S3150800AC40A04303F58823596030211A4E637B01FB24
S3150800AC5000600366E37AA17A1B0543EA0143217B78
S3150800AC6022F0030243EA4153C36502675EF0F7F830
S3150800AC70736D2B437365237A13B1336C2B4333649B
S3150800AC80637A13B1B36B2B43B3632279A37943EA8F
S3150800AC900243074A93616179E37943EA0143064926
S3150800ACA08B61044B55639D64BDE870405EF0DDB86A
S3150800ACB000200450000004500010045010B5012470
S3150800ACC0C0B284405EF0CBF8044B5A6D22EA040207
S3150800ACD05A659C62BDE810405EF0C7B80000045093
S3150800ACE04FF48032054B9A6641F6713203F51C33F0
S3150800ACF0DA63012203F50053DA60704700900050CA
S3150800AD0041F671320121064BDA6303F50052D16030
S3150800AD100022DA634FF48032A3F518339A66704737
S3150800AD2000000350013831289ABF024B185C0020F6
S3150800AD30704700BF88A40908021E30B54FF000000E
S3150800AD400CBF1025042547F60774084952B9831D18
S3150800AD5051F82330234023B101308542F6D14FF014
S3150800AD60FF3030BD00F11603F2E700BF0080035044
S3150800AD7010B5C2F30623044602F0070241B942EAB7
S3150800AD8003220B4B42F44022063443F8242010BD1C
S3150800AD90184611465EF0CDF801461846FFF7C2FF81
S3150800ADA0034B41EA0020163443F82400EFE700BFBE
S3150800ADB000800350014BD3F89400704700400050C0
S3150800ADC04FF48032064B5A6603F5E6239B69C3F3B4
S3150800ADD08512827003F03F021B0B427003707047A6
S3150800ADE00090005040F6B732064B5B689BB2934220
S3150800ADF09FBF4FF47A72B3FBF2F3034AD05C88BF65
S3150800AE00002070470080E00FBAA40908014B986C2F
S3150800AE10D96C70470080E00F0120034B9B680A330A
S3150800AE2003F01F03984070470080E00F2DE9B841F2
S3150800AE30154F15460F40FAB9202B20D0402B20D0AD
S3150800AE40002B14BF40241024012307F580775F43A5
S3150800AE5000233A46194640F0C7FA554300FB04F862
S3150800AE6004FB0351A2FB040400233A46214440F0A4
S3150800AE70BBFA4044BDE8B88180240025E4E71C46B7
S3150800AE80E2E780240323E0E7F8FF7F00012100F5CD
S3150800AE90805310B5596040F6AA6341F20502436132
S3150800AEA00023094C8360C365C26000F50052036144
S3150800AEB0C361C3649464054C8365A04204BF0365FB
S3150800AEC04365516010BD00BFFFFF010000C005507B
S3150800AED038B50D46FFF7DAFF012200F580535A60B0
S3150800AEE0A97B2A8A002914BF4FF480610021836850
S3150800AEF042F0010213430B4383602A7D8368002ACC
S3150800AF0014BF4FF00052002213438360AB7C044603
S3150800AF105BB1194B984202BFEA7CA3F51033C3F81C
S3150800AF20C821C36D43F08003C3652B7B204643F4D9
S3150800AF308053E360D5E901125EF06DF86B7B0BB1C7
S3150800AF40102363616B7D1BB1A36843F48033A36050
S3150800AF50AB7D1BB1A36843F40043A360EB7D2A7E57
S3150800AF601B07120503F0E04302F4E0021343A3654E
S3150800AF702B78636138BD00BF00C00550054B9A6841
S3150800AF809107FCD45A689207F9D4DA69002AF6D1EF
S3150800AF90704700BF00800A5008B5FFF7EFFF01228F
S3150800AFA0024B03F580514A601A6108BD00800A50B9
S3150800AFB0074B5A68012A0AD15A68D20702D5DA69B4
S3150800AFC0002AF9D102221A610122024B5A607047FF
S3150800AFD000800A5000A00A5010B5064CFFF7CEFFB5
S3150800AFE06368012B03D1FFF7E3FFFFF7C7FF037879
S3150800AFF0E36010BD00800A50E8B94A680B7812B1C0
S3150800B000127843EAC2034A78002A14BF02220022B1
S3150800B01013438A6812B1127843EA82138A78002A9F
S3150800B02014BF042200221343CA6812B1127843EAF5
S3150800B0304223014A9364704700800A5008B9014BBD
S3150800B0405964704700900A5008B9014B5964704713
S3150800B05000A00A5008B9014B1964704700A00A50AD
S3150800B06010B9024B186C70470020704700800A50D0
S3150800B07048B911B1012903D07047044BD86C704701
S3150800B080024B186D70470020704700BF00800A50B9
S3150800B09040B911B1012903D07047034BDA647047F0
S3150800B0A0014B1A65704700BF00800A5038B5044640
S3150800B0B0054D8EF04DFC0FCC0FC594E8030085E8CE
S3150800B0C00300002038BD00BF6CDE002047F6FF7382
S3150800B0D09A42F0B566D0012966D8344DCF0015F8E6
S3150800B0E0313005EBC100012B847813D10025C378D4
S3150800B0F01B1B9D4202D3E018C0B2F0BD591B46681F
S3150800B100A3EB510136F911609642D4BF0D4601F101
S3150800B110FF33EEE740680028EFD0B0F900309342DD
S3150800B12004DBB0F902309342B8BF134682883D4427
S3150800B130FF2A19BFC8214FF0280CB0F90610B0F93C
S3150800B14008C0A1EB03020CBF0126002692FBFCF205
S3150800B1506D78324412B2954201DD002A01DA6A1E80
S3150800B16012B24FF47A7700EBC206F188B66801325C
S3150800B17013FB016112B221EAE1715C319542B1FB20
S3150800B180F7F104DD00EBC206B6888E42EBD200EB7F
S3150800B190C20232F8040C884228BF0846A04238BFCB
S3150800B1A02046A9E7FF20A8E70020A6E76CDE0020D6
S3150800B1B00129F0B553D82B4800EBC10410F831101B
S3150800B1C0636801290FD1E078A478904294BFC4EB54
S3150800B1D00001C4EB0201001BCAB28242C8BF0022AA
S3150800B1E033F91200F0BD002B39D0A178914202D371
S3150800B1F0B3F90200F6E7E178B3F900009142F1D914
S3150800B20099886478A1F1FF06013C714203F10405AF
S3150800B210E4B2714103F10C071FFA82FCCEB2B442C4
S3150800B22016D805EBC1014FF47A756A43B1F90240A5
S3150800B2304968521A04EBD47102EB610292FBF4F2EC
S3150800B2409042CFDBB3F902009042CBDC10B2C9E7DB
S3150800B25037F831E04E1CE645E3D33146DEE70248CF
S3150800B260C0E700BF6CDE00200080FFFF0148FFF743
S3150800B2701DBF00BFC0A4090800487047201700205A
S3150800B2807FB50222084B0949CDE901234FF04073E7
S3150800B290CDE90313052301A94FF0FF3005938EF07E
S3150800B2A000FC07B05DF804FB006A18000003040000
S3150800B2B02DE9F84305F070FA0128074605D905F087
S3150800B2C09FFA061E02DA01241EE00026DFF88080B7
S3150800B2D098F8003003F0FF0493BB4FF05009194D5E
S3150800B2E005F110032846C5E90044AB60C5F80C9083
S3150800B2F005F0FAFB286650B90124012F04D9304617
S3150800B30005F0A0FA0028DEDB2046BDE8F8830E4DDE
S3150800B310214605F110032A460120C5E90044C5E97E
S3150800B320023905F0A1FC28660028E5D03022074B33
S3150800B33083F8412302229A60012388F80030DCE76B
S3150800B3400024DAE7E8DE002084DE002000E100E0E1
S3150800B350BD61012008B505F01FFA02280FD1094B77
S3150800B3604FF0FF31186E05F001FC002814BF0120CC
S3150800B370002003D14FF48062034B9A6608BD002073
S3150800B380F8E700BFE8DE0020009000504FF4806226
S3150800B39008B5084B9A6605F0FFF9022807D1064B4F
S3150800B3A0186E05F013FC003818BF012008BD0020F0
S3150800B3B0F9E700BF00A00050E8DE002008B54FF00E
S3150800B3C098435B6CD90208D505F0E6F902380128DE
S3150800B3D003D8094B186E05F0D3FC4FF098435A6C06
S3150800B3E0D202FCD55B6D054A03F470231360022272
S3150800B3F0034BC3F8882108BD84DE002054120020C0
S3150800B40000E100E038B5054600283AD0FFF7A2FF6C
S3150800B4100446002836D128465DF0CCFD95F8203044
S3150800B42043B94FF098435A6CD202FCD55D6D05F4CA
S3150800B43070251BE04FF09842936D43F00203936525
S3150800B44005F0AAF902281AD1104B4FF0FF31186EF1
S3150800B45005F060FC4FF09842936D23F00203936564
S3150800B46090B94FF4A0220A4B1D681A60FFF78EFFA9
S3150800B47004463DB12846BDE838405DF0F1BD20469A
S3150800B480E8E72124204638BD0124FBE784DE0020B6
S3150800B490541200202DE9F0418CB08846DDE9127679
S3150800B4A01D460446002847D0002945D0002F43D022
S3150800B4B0002E41D013F00F033ED120482049A36047
S3150800B4C0002A18BF0146E361C4E90013404609A9EA
S3150800B4D05DF036FF68BB204609995DF062FD294696
S3150800B4E020465DF05EFD6946404600F0FFFE00BB63
