S02B00006275696C642F64656275672F6C69676874696E672D6170702D6E6F2D6C65642D7468726561642E73E9
S3150800600000100020D97A00086DD2070847BA0A0896
S315080060107BF407086DD207086DD207086DD207080A
S315080060206DD207086DD207086DD2070851620008BD
S315080060306DD2070854F80B08F16100085BFF0708E2
S31508006040857800086DD207086DD207086DD2070853
S315080060506DD207086DD207086DD207086DD20708FA
S315080060606DD207086DD207086DD207085D3E030892
S315080060706DD207086DD207086DD207086DD20708DA
S315080060806DD207086DD207086DD207086DD20708CA
S315080060906DD20708298100086DD207086DD2070856
S315080060A06DD20708A5820008818200086DD207080C
S315080060B06DD20708A5C3070895CD0708F5F60B089E
S315080060C0F1F60B087DC5070801F70B08F9F60B086A
S315080060D06DCD0708FDF60B08D5CD070839CE07089C
S315080060E06DD207086DD207086DD207086DD207086A
S315080060F077F407086DD207086DD207086DD207082E
S315080061006DD207086DD207086DD207086DD2070849
S315080061106DD207086DD207086DD207086DD2070839
S315080061206DD207086DD207086DD207086DD2070829
S315080061306DD207086DD207086DD207086DD2070819
S315080061406DD2070895B200086DD20708B9F5070899
S31508006150B5A907086DD20708D9F30B08DFF30B08B2
S315080061606DD207086DD207086DD207086DD20708E9
S31508006170013800D0FCE7704700000000000000006E
S315080061800B4A1168086806C881F30B88022181F357
S315080061901488203080F30988BFF36F8F4FF0000012
S315080061A080F31188104700BFAFF30080AFF300807B
S315080061B00845012000000000000000000000000063
S315080061C007480068006880F3088862B661B6BFF3BE
S315080061D04F8FBFF36F8F02DF00BF00BFAFF30080A2
S315080061E008ED00E0000000000000000000000000CC
S315080061F0EFF30980EFF30B82734620E9FC0F104A90
S31508006200116808604FF0300080F31188BFF34F8F94
S31508006210BFF36F8F0EF020F84FF0000080F311885F
S31508006220074A11680868B0E8FC0F82F30B8880F308
S3150800623009881847AFF30080AFF30080AFF30080FA
S3150800624008450120000000000000000000000000D2
S315080062501EF0040F0CBFEFF30880EFF30980044922
S31508006260084700BFAFF30080AFF30080AFF30080AC
S31508006270E92D0108000000002DE9F04F2DED028BF5
S31508006280DFF8C0918DB0B9F800309A0706D440F20D
S315080062902761654B654A664859F06AFADFF8A8B17E
S315080062A0DBF8003023B94FF4C561624B5F4AF2E769
S315080062B0614C0DF1180894E8070088E807009B88E8
S315080062C05E4D8DF817300123B9F800200DF117013E
S315080062D01A462868B8F03DFC9DF81720DBF8001030
S315080062E0023A0023096892B20C3428680DF1240A90
S315080062F0B8F02FFC94E807008AE80700DBF80030BE
S315080063001B681C7814F0200421D02868B8F04BFAD2
S3150800631000286FD02868B8F046FA04460B9858F05B
S3150800632063FD064620460F4658F05EFD02460B46BC
S3150800633039A1D1E9000158F0FBFE02460B4630466A
S31508006340394658F015FC59F063F80B900124286873
S31508006350B8F045FA9DF8173000284FD0981DC000B0
S3150800636058F052FD2EA3D3E9002358F0B7FD41ECAF
S31508006370180B2868B8F033FA03900B9858F034FDD8
S31508006380039B064618460F4658F02EFD02460B4656
S3150800639051EC180B58F0CCFE02460B4630463946EF
S315080063A058F0E6FB59F034F80B90B9F80030286835
S315080063B09B06DBF8001027D50B9B224603F5FA73DC
S315080063C00B9391F8203089798DF81A301C4B1B787D
S315080063D0CDF800A08DF81B304346B7F06EFF20B10C
S315080063E002200BF08FF84EF0AFFB0DB0BDEC028B20
S315080063F0BDE8F08F0B9BC0330B93A7E70B980633CA
S3150800640000EB43130B93D0E7534622468979B7F03E
S315080064103EFFE4E7AFF300800000000060E366415A
S315080064200000000080842E41A1210C08EB260C08F0
S3150800643001200C08C7210C08D0250C089043012020
S3150800644035170020FAE301207844012000000000F7
S3150800645073B5754B198811F0010140F0DC8041F6DF
S315080064600B22724D724BC5E9003105F11003AB6082
S31508006470704B19609A80704B1B6ADB0706D440F292
S31508006480B9316E4B6E4A6F4859F072F928466CF06E
S31508006490EBFD044620B940F2BD316B4B684AF2E782
S315080064A06EF028FA20B140F2C131684B644AEAE737
S315080064B04FF001112046B8F034FB20B140F2C53147
S315080064C0624B5F4ADFE702212046B8F04DF920B15A
S315080064D04FF472715D4B5A4AD5E720465C496DF018
S315080064E087FF20B140F2CB31584B554ACBE7012103
S315080064F02046B8F0CCFC20B14FF47471534B504A87
S31508006500C1E701212046B8F0D9FC064620B140F281
S31508006510D3314E4B4A4AB6E701463C224D48AFF0C6
S315080065205AF980233246204605F11401B8F027FBB4
S31508006530802804D040F2DA31474B414AA3E7474D59
S315080065400120B7F09FFE36A3D3E900232C6020462E
S31508006550CDE900234FF0FF324FF0FF33B8F0ACF926
S3150800656020B140F21731394B3D4A8CE731480AF0E1
S3150800657075FE012108460AF0DFFE01212868B8F0F9
S3150800658043F8044620B140F26E41304B354A7AE76B
S31508006590354B364A98801A60354B364A98801A60C9
S315080065A0354B364A98801A60354A6FF063005A614F
S315080065B012F0A2FB0B200AF00BFE324B186020B932
S315080065C040F28C41304B274A5DE704F0BBFD21467B
S315080065D02868B8F050FA20B140F219411B4B2B4AF3
S315080065E051E7082228681146B8F081F9044620B117
S315080065F04FF49261264B1B4A45E70BF0C1FE254B2B
S3150800660025481C70254B1C70254B1C7002B0BDE834
S3150800661070407EF046BF02B070BD00BFAFF3008089
S315080066200B6020FFE2030000FAE301209C430120EF
S31508006630F9150108944301200080E00FBB240C08DB
S3150800664060260C0801200C08D4240C08661F0C08C8
S3150800665070270C083C440120E3240C0890430120D1
S3150800666053260C08DC260C08201D002078EE012095
S31508006670F81C0020F8ED0120481D0020FAEE012044
S31508006680701D0020384401201B250C0819260C080B
S3150800669036250C08EDED0120BA250C08F9EE012087
S315080066A0F8EE0120000000002DE9F04F2DED028BD9
S315080066B0804600680C4691461D468DB030B90327C2
S315080066C038460DB0BDEC028BBDE8F08F0668766CD7
S315080066D0B0472D2807460CD00028F1D09C4A9D4B80
S315080066E00221A52808BF13460D209B4AA3F068FB84
S315080066F0E6E76378202B01D10027E1E7974BD8F826
S315080067000000049358B1036822461B6C04A99847F5
S31508006710074630B1049803689B689847D0E7032773
S31508006720F8E78F4B8F4E05934FF48973EE40F64387
S31508006730EB40DB43102D06F0010688BF0126082D25
S3150800674003F0010388BF01239FED7F8B6FF0010BD8
S315080067500193049805A90368DB689847002840F068
S31508006760EC808DF80E0005980DF10E010368DB68C4
S3150800677098470746002843D19DF80E30402B03D092
S31508006780802B01D003273BE062789A42E1D10123AE
S3150800679005988DF80F3003680DF10F015B6998476E
S315080067A0074668BB9DF80F30082B17D8002BD0D0AA
S315080067B0013B072BCDD801A252F823F00D6800083B
S315080067C0E767000853670008096800085367000868
S315080067D0536700085367000813680008102BB8D1E0
S315080067E0002EB6D102E06B1E012BB2D80023059805
S315080067F00693036806A95B6A9847824668B1074606
S3150800680005A88FF064FC85E7042DEFD0012DA0D1F3
S31508006810ECE7019B002B9CD1E8E7069B002B46D0B2
S315080068208DED088B05985146036808AA9B6A984718
S3150800683007460028E4D1DDE90830591E40F1FF3249
S315080068408B456FF0100171EB020210D39DF80E20F4
S31508006850402A97D1D4E90212904208BF8B4226D02B
S31508006860069B0AF1010A53457FF673AFD8E74FF046
S31508006870FF31C21C994277EB020231D39DF80E20F4
S31508006880402A7FF47FAF1F0C04F1100104F11C00AD
S315080068909BB28842E4D051F8042B002AF9D0B7EB12
S315080068A0124FF6D1002BF4D092B29342F1D80023BE
S315080068B005980793036807A99B6B9847074600281E
S315080068C09ED1079B002B36D082460598CDF820A08E
S315080068D003683946DB6B08AA984758B107468FE71D
S315080068E013F5803F70F1FF32FFF44CAF9DF80E2090
S315080068F0802AAEE7089BD90704D5D9F8002009995C
S31508006900914212D19A0705D5BDF82810B9F8042086
S3150800691091420AD15B070ED5D8F80400B9F80420CD
S3150800692003680B999B68984728B9079B0137BB42B0
S315080069307FF60FAFC9E7002762E702210D200A4A52
S31508006940A3F03EFAA5275BE7000000000000000060
S31508006950E07D0C08958D0D08B47D0C0810110020FB
S315080069601411002016010100D17D0C08000000005A
S315080069702DE9F04F2DED028B884204460D469046D0
S315080069801E4697B00AD1034601211D202E4A17B08C
S31508006990BDEC028BBDE8F04FA3F012BA9FED288B31
S315080069A00DF10C092A21484605AF3EF069FB99E826
S315080069B0030087E80300DFF894A0DFF894B0BDF879
S315080069C01400BDF81630834233D03EF0DFFB33782F
S315080069D081468DF824408DF825508DF826808DF84F
S315080069E028300BB173680B9309AB0893CDF81CA03C
S315080069F038F0DAF800230E9310938DF851302A23D5
S31508006A00ADF830904FF001090D930CAA6B4607A913
S31508006A108DED128B8DF8509096F01CFB034620B135
S31508006A205A4649461D20A3F0CBF938469AF0D3FCBE
S31508006A30C5E717B0BDEC028BBDE8F08FAFF3008059
S31508006A40000000000000000080AB0C086CAC0C08CD
S31508006A50C0AB0C08000000002DE9F04F2DED028BAD
S31508006A609FED2F8B9DB00DF108092A21054604AC30
S31508006A70484616461F46DDF8A4803EF001FB99E815
S31508006A80030084E80300DFF8A0A0DFF8A0B0BDF893
S31508006A901000BDF8123083423DD03EF077FB289BAC
S31508006AA081461B78CDE90A6708958DF830301BB109
S31508006AB0289B5B788DF8313098F800308DF838309F
S31508006AC01BB1D8E90223CDE9102308AB0793CDF80B
S31508006AD018A038F069F800232A2216938DF8693031
S31508006AE00223ADF848904FF00109CDE9132306A912
S31508006AF06B4612AA8DED188B8DF8689096F0AAFA57
S31508006B00034620B15A4649461D20A3F059F92046A6
S31508006B109AF061FCBBE71DB0BDEC028BBDE8F08FB7
S31508006B20000000000000000094AC0C0817AC0C082C
S31508006B302DE9F04F2DED028B994600230024002500
S31508006B40CDB08DF8C83049938DF828319C4BCDE9E6
S31508006B502E45CDE93045CDE934450C934FF6FF7403
S31508006B600123DFF874A2064688461746CDF8D8A052
S31508006B70ADF820410D936AB1054600F53E74A5426D
S31508006B8000F00C81284690F078F8002800F008817B
S31508006B909835F4E79DF08EFB044630B9AC242046C0
S31508006BA04DB0BDEC028BBDE8F08F06F53E75284664
S31508006BB08EF0E6FDB4F868308DF8C880ADF820315F
S31508006BC094ED028B6A3420212046AEF06DFFCDE9A4
S31508006BD00C407C4B4FF4C8710E93002309A8CDE9ED
S31508006BE009330F930B93CDF870A093F090FE099B91
S31508006BF053B90B240BA88FF048FE0AA88FF045FE60
S31508006C0009A88FF042FECAE74FF4C8710AA893F0A4
S31508006C107EFE0A9B002BECD04FF4C8710BA893F0AC
S31508006C2076FE0B990029E4D0099B0A9A10934FF433
S31508006C30C8733046CDE91223CDE9141310AA41468C
S31508006C4011939DF0B7FB08B10446D3E74146304699
S31508006C5012AA9DF091FB0028F6D14146304614AAA7
S31508006C609DF044FB0028EFD1109B0DF1B80A16934E
S31508006C70119B0DF1700B1793129B8DED008B1893DA
S31508006C80139BCDE905AB1993149B1AAA1A93159B66
S31508006C9018A91B9336AB079330AB049334AB039315
S31508006CA00EAB029316A842F075F90028CCD10BA8B2
S31508006CB08FF0EBFD0AA88FF0E8FD09A88FF0E5FD37
S31508006CC0B9F1000F13D1D6F8940300285AD00368F7
S31508006CD09B689847D6F894331A6800284AD05469AE
S31508006CE041465A461846A04798B1044657E7D9F888
S31508006CF0003048465B699847036859465B6A984777
S31508006D0008B9C5244BE79DF86031CDF824918DF874
S31508006D102831514628469DF0CDFD0028E5D1284664
S31508006D200CA99DF094FA2B7C77B302211120264AF0
S31508006D30A3F046F8D5E90012AB69CDE90121009325
S31508006D4002211120EB69214AA3F03AF80F9906F5BA
S31508006D50697044F0F5FA034620B1012111201C4A56
S31508006D60A3F02EF827B196F8B233013386F8B2337A
S31508006D70002414E741461846D26890470028C8D12F
S31508006D8010240CE703240AE7D5E900121120CDE9FF
S31508006D90002102210F4AA3F013F8D7E70B24FEE6D9
S31508006DA0BDF864319FED048BADF820318DF8C880AD
S31508006DB00FE700BFAFF300800000000000000000EE
S31508006DC0E2930D08C8100D08F40F0D0814100D08ED
S31508006DD08C100D0857100D0840450D0800000000DE
S31508006DE02A2110B57248ADF5956D02914BF014FE47
S31508006DF008B1AEF040FC029002A96D484BF0B6FC13
S31508006E000028F6D1029B2A2BF3D167A3D3E90023E6
S31508006E106848CDE908234BF01BFE0028E9D100227B
S31508006E200023644808A9CDE908234BF0C7FC0028CD
S31508006E30DFD1DDE9080240F6FA035F499A4208BF46
S31508006E408842D6D101215D488DF807104BF0C8FD60
S31508006E500028CED18DF807000DF1070157484BF0F1
S31508006E6059FC0028C5D19DF80730002BC1D05048E1
S31508006E704BF01CFC0028BCD14D4803A94BF076FC0E
S31508006E8040F20124A042B4D14D494E48A4F07BFB00
S31508006E900028AED140224B4804AB0AA94BF0BAFCF5
S31508006EA00028A6D1049B0E2BA3D10F2244490AA879
S31508006EB0AEF05AFC00289CD143494248A4F063FB33
S31508006EC0002896D104AB40223E480AA94BF0A2FC02
S31508006ED0049B03438DD19DF82810002989D1394890
S31508006EE0A4F051FB002884D14022364805AB1AA9E4
S31508006EF04BF090FCA0427FF47CAFF1223349344832
S31508006F004BF0E0FD00287FF474AF4FF40072304870
S31508006F1006AB2AA94BF0D0FC00287FF46AAF069A84
S31508006F20F12A7FF466AF29492AA8AEF01DFC02466D
S31508006F3000287FF45EAF014625484BF0C3FD0028C4
S31508006F407FF457AF4FF40072214807ABAAA94BF05C
S31508006F50B3FCA0427FF44DAF16484BF0B3FB0028B4
S31508006F603FF447AF15484BF0ADFB00283FF441AF5F
S31508006F7017484BF0A7FB00287FF43BAF4BF000FE09
S31508006F8000287FF436AF0B484BF09CFB00283FF4F3
S31508006F9030AF0A484BF096FB00287FF42AAF0DF570
S31508006FA0956D10BDAFF30080316EE595FA080000C7
S31508006FB00573080001720800316EE595067308002E
S31508006FC0DE4C0D0802730800DD4C0D08EC4B0D086D
S31508006FD00272080000000000054B186803689969EA
S31508006FE001A3D3E90023084700E0373B015D03000E
S31508006FF0101200200000000070B505463E4C8AB00D
S3150800700020B100230088236060F0CAFD3B48B7F032
S315080070109AFB3B4E3B4B304633603B4B736060F00C
S3150800702093FF002130466CF01FF831A3D3E9002303
S31508007030A062C4E90623B2F0C2F9D4E906231943CB
S3150800704010434FF0FF33C4E90601CDE900014FF0C4
S31508007050FF32A06AB7F030FC02224FF0FF31A06A77
S31508007060B7F045FC012060F0E3FA4FF40073002204
S315080070702649A06AB7F083FDB0F5007F36D1002314
S315080070809422CDE9073309933C23CDE903320593CE
S315080070909623A06A03A906936CF002FC25B3287C04
S315080070A061F010F80546E0B9A06AB7F042FF60F053
S315080070B0B1FF60F09FFA20B14FF4807000215DF0B7
S315080070C037FE60F0A7FA20B14FF4006000215DF0AA
S315080070D02FFE0120B7F0D6F80D4A0E49A06AB2F085
S315080070E065F928460AB070BDFF20D9E70725F8E7F5
S315080070F009D5015520000000A0300120690345ECA0
S3150800710088DE0120E97D06087CDE01207CDC012082
S3150800711055930B0895930B0810B5054C237833B98E
S31508007120044B13B1044800E000BF0123237010BDCF
S31508007130F83501200000000010EF0D0808B5034BD4
S315080071401BB10349034800E000BF08BD000000006A
S31508007150FC35012010EF0D08A3F5803A704700BFF3
S31508007160174B002B08BF134B9D46FFF7F5FF002171
S315080071708B460F461348144A121AAEF02CFB0E4BD8
S31508007180002B00D098470D4B002B00D098470020C5
S31508007190002104000D000D48002802D00C48AEF06E
S315080071A071FA58F02BFD200029002EF045F858F00A
S315080071B011FB00BF000008000000000000000000EE
S315080071C000100020C41900207868022085560B0894
S315080071D0000000002DE9F043044689B0214E01ADB8
S315080071E0884617460FCE0FC596E8070085E80700BC
S315080071F01D4E01213A20D4F80090D6F8205702F007
S3150800720013F86068012102F00FF8617B207B0023E8
S31508007210042203F00DFA0422617A207A002303F08F
S3150800722007FA0123484601A98DF81230CDF80C80DB
S31508007230ADF8147003F0C4FB0020627A237A05F0D7
S31508007240040543EA0243C6F83837627B237B45F0D8
S31508007250180543EA0243C6F83437C6F8205709B07A
S31508007260BDE8F083F0F70B0800C003500122014B7C
S315080072701A64704700F0035013B5044609F0F8F88D
S3150800728000230122247BCDE900326400B0FBF4F12F
S31508007290024A034878F024F902B010BD6D7200085E
S315080072A014360120F7B540260F4C054604F58053E1
S315080072B0C3F8A060407B09F091FA04230B4F022221
S315080072C00DF106013846ADF8063075F0B9FE3846B8
S315080072D075F0C7FEA87B09F081FA002004F5005472
S315080072E0C4F8A06003B0F0BD00C00350041000202D
S315080072F070B5064601213A2001F096FFB1680022D2
S315080073000F48FFF767FF002304220621022003F037
S315080073108FF9002335460B4C04221946184603F00C
S3150800732087F90FCD0FC401222B6830462360064B20
S315080073301A70FFF7A1FF3046FFF7B4FF002070BDB3
S315080073400410002034360120AEE401202DE9F74F61
S315080073501446402206889846037901345E43254B35
S31508007360A4B2C3F8A0200546407B0F4609F036FABA
S31508007370230243F0010302221F480DF10601ADF86E
S3150800738006304FF0000975F05BFE01342402DFF881
S3150800739068B0F610A4B208F1FF3AC14510D11648F4
S315080073A075F05FFEA87B09F019FA4022134B1248C4
S315080073B0C3F8A02075F05AFE002003B0BDE8F08F90
S315080073C039463246584675F03BFECA450CBF4FF65D
S315080073D0FF7344F0FF03022258460DF1060104F537
S315080073E08074ADF80630374475F02AFE09F10109B4
S315080073F0A4B2D2E700D003500410002000E00350E6
S31508007400034B04481B78002B08BF0020704700BFB9
S31508007410AEE401203436012030B5064D87B001AC04
S315080074200FCD0FC42B6801A82360FFF761FF07B0D3
S3150800743030BD00BF0CF80B082DE9F043484C8FB05F
S31508007440264601AD0FCE0FC5336814342B6006AD42
S315080074500FCC0FC594E80F0085E80F0001213A20EC
S3150800746001F0E2FE0121572001F0DEFE4FF48073A1
S315080074703C4FADF81C303C4B3846039301A906AB8C
S31508007480059302F0BFFF012304220021022003F026
S31508007490CFF8012200231146022003F0C9F8022181
S315080074A001230846042203F0C3F8042201231146E7
S315080074B0002003F0BDF84FF002132C4C0225C4F847
S315080074C0C834A3F58033C4F8C4341C231026C4F882
S315080074D0CC5404F50059C4F8B4344FF4487009F094
S315080074E07DF904F580581420C9F8406009F076F94A
S315080074F02320C8F8406009F071F9B9213846C9F85F
S31508007500406076F0B8F8002328461A461946C8F8A7
S31508007510406003F08DF8002328461A46012103F03F
S3150800752087F8294628460123002203F081F800221D
S3150800753001231046042103F07BF8384602F088FD43
S3150800754000215720C4F8C814C4F8C414C4F8CC14CD
S31508007550C4F8B41401F068FE0FB0BDE8F08300BFAC
S3150800756020F80B0800000A50E070720000C00350B3
S31508007570BFF34F8F0549064BCA6802F4E06213430E
S31508007580CB60BFF34F8F00BFFDE700BF00ED00E003
S315080075900400FA054FF000639A6A02F17841B1F5E2
S315080075A0C04F03D21168074A914203D000230370E3
S315080075B083607047012202709A6A926842609B6AE9
S315080075C09B69F5E707B0CD5E08B54FF00053024A50
S315080075D01A60FFF7CDFF00BF02020FF073B54F4BDD
S315080075E004461A781AB102221A7002B070BDCDE9A3
S315080075F000220028F9D001261E7075F0E9FF484DD3
S31508007600484B186071F05AFF2B785BB900F05CFEA6
S3150800761040B945480823454A454900686AF0C8FF05
S3150800762000B92E70434B5A6E62619B6E424AA36143
S315080076304FF480439366414B5968E161404999602C
S31508007640196E2160596E6160D3F87011A160196CCA
S31508007650E160596C21613B49086C1864496C5964AE
S31508007660012151661B6E9C0441D5374AD368D80759
S31508007670FCD4364B1A68531C3ED04FF48013934003
S31508007680334A13664FF400730426314C2666236684
S3150800769075F04FFD01300DD075F04BFD40F201132A
S315080076A0984207D04FF4005323664FF4804323666D
S315080076B0C4F870610823264C684623664FF4805345
S315080076C023664FF0006323664FF4002301A963661F
S315080076D075F0D6FC009B2366019B63662B78002B0E
S315080076E083D0124B1A6822665B6863667DE7194A7F
S315080076F0D368D907FCD4BCE7174B1B78002BC1D13C
S315080077004FF400720C4B5A6603F5A6235B68002BF0
S31508007710B8D14FF480120E4B1A66B3E7B1E40120D4
S31508007720AFE40120703601202810002068360120B9
S31508007730007108000080005000900050008000444E
S3150800774055CEAC0000C000540000044014100020C0
S315080077500090004400000450B0E4012070B5224DAA
S3150800776004462E78012E02D001232B7070BD002806
S31508007770FCD075F0DEFC01300BD075F0DAFC40F277
S315080077800113984205D0194B194A5E66D368DE077D
S31508007790FCD42268174B1A6662685A66A268C3F850
S315080077A07021E2681A6422695A64E269D00744BF04
S315080077B000229A60104B1A68013207D10F4A1278D4
S315080077C022B90F494968C90748BF1A6062690D4B53
S315080077D05A66A2699A6671F079FE0B4B186875F0BD
S315080077E0FDFE0023C1E700BFB1E401200090004080
S315080077F0000004400080004414100020B0E401207A
S3150800780000C00550008000507036012070B54FF05A
S315080078100064A36A03F17842B2F5C04F21D21A6810
S31508007820124B9A421DD1124E337813F0FD0F1BD11D
S315080078301048FFF7D3FE01254FF480330E4A0F494F
S31508007840C2F88051CB6015600D4A1361A36ADB69E3
S31508007850984704460748FFF781FF04B93570204664
S3150800786070BD4FF48174FAE70024F8E707B0CD5EDF
S31508007870B0E401204836012000E100E000A0004401
S315080078800090004413B51F4B1B7803B9FEE700238D
S315080078901D4CCDE900336A4608231C4920686AF066
S315080078A087FEF0B91A4AD2F84031D2F840211F2B88
S315080078B04FF0010310D9203A9340019A13430193DC
S315080078C008236A46114920686AF028FE4FF00053DB
S315080078D0104A1A60FFF74CFE9340009A1343009330
S315080078E0EEE70D4B9842F1D1094AD2F84031D2F869
S315080078F040211F2B4FF0010302D9203A9340DEE7BF
S315080079009340ECE7B1E4012028100020007108003C
S31508007910008000440B020FF00BE000F038B54FF082
S315080079200065AB6A044603F17842B2F5C04F12D23D
S315080079301B6B03F17843B3F5C04F0CD20648FFF72B
S315080079404DFEAB6A20461B6B5B689847BDE838401E
S315080079500148FFF703BF38BD7436012013B54FF051
S3150800796000640190A36A03F17842B2F5C04F15D2BC
S315080079701B6B03F17843B3F5C04F0FD20948FFF7E5
S315080079802DFEA36A01211B6B01A89B699847044633
S315080079900448FFF7E3FE204602B010BD4FF4817499
S315080079A0F9E700BF7436012037B54FF00065CDE919
S315080079B00021AB6A044603F17840B0F5C04F12D2F5
S315080079C01B6B83B10948FFF709FEDDE90021AB6AA5
S315080079D020461B6B5B6A984704460448FFF7BEFEC1
S315080079E0204603B030BD4FF40174F9E77436012020
S315080079F037B54FF000650191AB6A044603F178424A
S31508007A00B2F5C04F15D21B6B03F17843B3F5C04FDF
S31508007A100FD20948FFF7E2FDAB6A20461B6B0199B6
S31508007A209B6A984704460448FFF798FE204603B029
S31508007A3030BD4FF40174F9E77436012037B54FF0BD
S31508007A400065CDE90021AB6A044603F17840B0F53C
S31508007A50C04F16D21B6B03F17843B3F5C04F10D253
S31508007A600948FFF7BBFDDDE90021AB6A20461B6B21
S31508007A709B6B984704460448FFF770FE204603B000
S31508007A8030BD40F20114F9E77436012037B54FF0DE
S31508007A9000650191AB6A044603F17842B2F5C04F1E
S31508007AA015D21B6B03F17843B3F5C04F0FD20948C3
S31508007AB0FFF794FDAB6A20461B6B0199DB6B984771
S31508007AC004460448FFF74AFE204603B030BD40F29C
S31508007AD00114F9E77436012008B500F02DF8124BA9
S31508007AE012498B4212D30020114B12498B4218D3EC
S31508007AF0FFF736FB186850F82240586840F82240CD
S31508007B00013298688242F5D30C33EAE70022F8E797
S31508007B101C6844F8220001325C68A242F8D3083394
S31508007B20E4E70022F8E700BF18EF0D0824EF0D0878
S31508007B3024EF0D0824EF0D084FF480414FF0FF3075
S31508007B4010B5114B114A9A60D3F8882042F4700296
S31508007B50C3F888200E4A91660E4901F50052106650
S31508007B600D4850660220C3F8D000BFF34F8FBFF30D
S31508007B706F8F01244FF440330848C0F88041D36022
S31508007B8004600B6110BD00BF00ED00E00060000856
S31508007B900090005000800044F7FF370000E100E045
S31508007BA0014B1868704700BF1C100020014B186075
S31508007BB0704700BF1C100020084B1B6F03F007031B
S31508007BC0022B04D0032B05D0012B05D0FEE7044B6E
S31508007BD018687047034BFBE703487047008000505E
S31508007BE01C10002020100020002D310108B5FFF7D9
S31508007BF0E3FF054B1B6FC3F303330133B0FBF3F00D
S31508007C00024B186008BD00BF008000501810002005
S31508007C100048704700B4C404014B1868704700BF99
S31508007C2020100020054B1860054B1B6F03F0070357
S31508007C30032B01D1FFF7DABF704700BF20100020E1
S31508007C400080005000487047002D31014FF0B443C2
S31508007C509868C0F304400C2822D8DFE800F0092110
S31508007C6021212121071719211B1D1F000F487047C5
S31508007C709B6803F04073B3F1807F13D0B3F1007FA4
S31508007C8012D00B4A002B08BF1046704709487047A8
S31508007C9009487047094870470948704709487047B6
S31508007CA0002070470848704708487047405DC6007E
S31508007CB000093D000024F400C0EA210180BA8C01C5
S31508007CC00048E801005A620280841E0040420F0004
S31508007CD0014B1868704700BF2410002010B40A68CA
S31508007CE01378022B11D014203023147913FB0403C4
S31508007CF007481B585079C340DB4303F00103137050
S31508007D0008465DF8044B2DF0B7BA5DF8044B70478A
S31508007D1030C0035037B50468012105463A2001F002
S31508007D2083FA002301226179207902F081FC14226A
S31508007D303023217913FB01230E4A9B586279D340DD
S31508007D40DB4303F001032370A379022B0ED100F065
S31508007D5041FA2A460849607900F066FA0123024684
S31508007D6061792079CDE9003302F00AFC002003B0DE
S31508007D7030BD00BF30C00350DD7C000802681378B0
S31508007D80022B24D014213023107913FB0013104939
S31508007D905B585179CB40917903F00103012912D13F
S31508007DA0508843EA40034FF6E07063F03F039BB206
S31508007DB0834202D11170538070474FF6DF718B42B0
S31508007DC0F9D10021F6E711B983F001031370704762
S31508007DD030C003502DE9F04F9A46554B85B01B78B5
S31508007DE006460F461546DDF83C909DF844B0DDF88A
S31508007DF05080002B00F08C80072A00F28B800E9BA7
S31508007E00002B00F08780B9F1000F00F08380129BE9
S31508007E10B3F5006F7EDC012802D1109B002B79D0C8
S31508007E20444B03EB05131B7B002B75D0424C1022E9
S31508007E3000216846ADF0CFFC04EB45141022002F54
S31508007E4058D139462046ADF0C6FC43F2100363808C
S31508007E50BBF1000F03D1E37843F00303E370364A1E
S31508007E600E9B02EB451CCCE90193129BCDF800A0B2
S31508007E70013BC3F30A009DF84C30690103F0030384
S31508007E809B0643EA001E53582C48012E00EA0300BD
S31508007E904EEA0003535041D113230CF1100ECCF8CF
S31508007EA00C309CE80F008EE80F006FF00301DCF839
S31508007EB01C20109B61F39F02012FCCF81C20CCF8E4
S31508007EC0143003D1CCF81890CCF804300027194A9E
S31508007ED0290102EB051342F80180159A28465A60D3
S31508007EE0694622469F605E7302F022FC384605B05A
S31508007EF0BDE8F08F00212046ADF06DFC4FF44473C9
S31508007F006380BBF1000FAAD1E37843F03003A5E7FD
S31508007F100B48ECE70B48EAE70B48E8E7B8F1000F2F
S31508007F20D4D19CF8023068F304138CF80230CDE7FC
S31508007F30B2E4012094360120143701200F80FFF3A4
S31508007F40028000F0018000F0078000F038B5124B7F
S31508007F5005461B78DBB1E0B175F03AFB0F4A002302
S31508007F601146147B54B92B6001251A0101EB031342
S31508007F701D738C5075F032FB204638BD0133082B33
S31508007F8002F11002EDD175F029FB0548F5E7054821
S31508007F90F3E70548F1E700BFB2E401209436012073
S31508007FA0048000F0028000F0018000F0154B13B544
S31508007FB01868002301908DF8043075F009FB124B00
S31508007FC01C7824B175F00AFB104802B010BD0122D6
S31508007FD01A7075F003FB0E4B01A81C731C7783F807
S31508007FE02C4083F83C4083F84C4083F85C4083F887
S31508007FF06C4083F87C4008238DF8073002F066FB56
S315080080002046E2E7A4F80B08B2E40120038000F05A
S315080080109436012008B50A4A12785AB107280BD8AF
S31508008020084A02EB00131B7B43B1002102F040FB18
S31508008030002008BD0448FCE70448FAE70448F8E7C6
S31508008040B2E4012094360120028000F0018000F09D
S31508008050078000F008B50A4A12785AB107280BD8E3
S31508008060084A02EB00131B7B43B1012102F020FBF7
S31508008070002008BD0448FCE70448FAE70448F8E786
S31508008080B2E4012094360120028000F0018000F05D
S31508008090078000F00D4B1B7893B1072812D889B1D9
S315080080A00B4B03EB00131B7B73B10A4BDA6A0123F4
S315080080B003FA00F010401ABF00200B7008707047D2
S315080080C0054870470548704705487047B2E40120DF
S315080080D09436012000000450028000F0018000F070
S315080080E0078000F010B50B4A0C46127862B10728D3
S315080080F00CD859B1084A02EB00131B7B43B102F0B6
S3150800810089FB2060002010BD0448FCE70448FAE714
S315080081100448F8E7B2E4012094360120028000F012
S31508008120018000F0078000F02DE9F843174B1F6D1A
S315080081305B6D1F4000D5FEE701260025144CDFF8CD
S315080081405480DFF85490374217D0C8F85060236837
S315080081509BB1A168284601316268A1609847637B94
S31508008160012B0AD148B909EB45131A7B60F3410282
S315080081701A731A7F60F341021A770135082D4FEA00
S31508008180460604F11004DED1BDE8F8830000045069
S3150800819094360120002004501437012070B5044697
S315080081A001250B4E04B970BD94FAA4F0B0FA80F01C
S315080081B005FA00F306EB001224EA03045368002BC1
S315080081C0F0D0117B11B191689847EBE79847E9E73A
S315080081D01438012008B5192001F08CFD28B14FF09C
S315080081E00072074BC3F880211A601A2001F082FD3D
S315080081F028B14FF08062024BC3F880211A6008BD8F
S3150800820000E100E038B505460C4675F0E1F90022B4
S31508008210044B03EB05135C601A73BDE8384075F030
S31508008220DDB900BF14380120F8B505460F461646D5
S3150800823075F0CEF9104B05F0FC02D3F82414002390
S31508008240EC1804F00304144321FA04FC1CF0010F93
S3150800825007D00133042BF3D1FF2475F0BFF920466C
S31508008260F8BDFF2CF9D00122044B03EB0413C3E934
S3150800827001761A73F1E700BF00C0035014380120D5
S31508008280074BD3F82404D3F8202403F500531040F1
S3150800829000F0553020F05020C3F82004FFF77EBFC9
S315080082A000C00350074BD3F82404D3F8202403F561
S315080082B00053104000F0AA3020F0A020C3F8200494
S315080082C0FFF76CBF00C00350024B1968024B1868D1
S315080082D06AF04EB82C1000202810002037B59200FE
S315080082E004460D460192B7F073FA431C0BD060B9E9
S315080082F029462046019AADF037FA0028044808BFF7
S31508008300002003B030BD0348FBE70348F9E700BF88
S3150800831010E000F021E000F024E000F013B5044678
S3150800832001A802F005FB9DF80630012223804FF4D0
S31508008330807300206380054B9B680A3303F01F0394
S3150800834002FA03F3636002B010BD00BF0080E00FBD
S3150800835010B50446B7F044FA431C15D0B0B90C4B17
S3150800836020469B680A3303F01F020123934023F03B
S3150800837003032344984201D1002010BD50F8042B72
S315080083800132F7D00348F8E70348F6E70348F4E76D
S315080083900080E00F0EE000F021E000F024E000F09D
S315080083A008B575F00EF9014B186008BD5440012058
S315080083B0014B186875F009B95440012038B141B12C
S315080083C0013AB2F5006F044838BF002070470348E9
S315080083D070470148704700BF037000F0027000F054
S315080083E038B504460D4675F0F3F8A3889BB223B951
S315080083F02B6075F0F3F8064838BD142263889BB2E3
S3150800840002FB034408342C6075F0E8F80020F3E713
S315080084100B7000F0F8B5044616460F4675F0D8F806
S31508008420A388E2889BB29A42054605D800233360A2
S3150800843075F0D4F81748F8BD1422238807F1100CF4
S315080084409BB202FB03433A460833174603CF6745F8
S31508008450186059603A4603F10803F6D114223868C1
S315080084601860238828469BB202FB0343083333600F
S315080084702388E2889BB20133B3FBF2F102FB113386
S315080084809BB22380A38801339BB2A38075F0A6F81C
S315080084900020D0E70A7000F090F83530022B0DD195
S315080084A014223023417F90F8210013FB0123044A4C
S315080084B09B5823FA00F000F001007047002070472F
S315080084C030C00350002313B51D4A52F8044B94F8E4
S315080084D0211081420ED00133042BF6D102B010BD13
S315080084E00028FBD19DF80730002BF7D0A068FFF7CE
S315080084F091FDF3E794F83530022BEFD12046FFF7CC
S31508008500CBFF637E2076022BE8D194F8323003F055
S31508008510FF02002BE2D1A0680DF107018DF80720B4
S31508008520FFF7B8FD237E1BB194F83330002BD7D064
S315080085300023A06884F83330FFF78CFDCEE700BF30
S315080085400841012030B51049104A0B782BB9C2E909
S315080085500033C2E9023301230B700C4C0023214679
S3150800856051F8045B854208D00133042BF8D1002169
S3150800857054F8043B1BB942F82100002003E00131FE
S315080085800429F5D1024830BDB3E401200841012091
S31508008590027000F010B50446FFF708FD002104F14B
S315080085A00800FFF7D3FC014620B904F10C00FFF7D9
S315080085B0CDFC00B1004810BD0E7000F090F83630C2
S315080085C053B9042103790A4A03F239135B01D150DE
S315080085D0022203685A617047022B07D10068816C32
S315080085E011F0020118BF062175F03BB8704700BFAD
S315080085F000C0035090F836306BB9012203685A61FF
S3150800860002689369D907FCD504210379074AB93367
S315080086105B01D1507047022B07D10068836C9B071A
S315080086204CBF0521092175F01CB8704700C00350DE
S3150800863010B590F8363004466BB9042203685A61BF
S31508008640026893699907FCD523790C4AB9335B010B
S315080086501021995010BD022BFCD10068836CDB07F2
S315080086604CBF0521062174F0FCFF237941F29442A0
S315080086705B0103F1A04303F57033E9E700C003503B
S31508008680012370B580F8303090F8363004460E462F
S3150800869086B0A3B905682435204674F0E6FE0D4B6E
S315080086A03268039300230293736861690193012377
S315080086B0E068009304942B4674F00FFE07E0022B43
S315080086C002D105683C35E7E7002380F8303006B06C
S315080086D070BD00BF09890008F8B507460D4616465D
S315080086E0FFF76CFE00286BD1152001F011FB04463C
S315080086F0FA6A93889BB213B197F83230E3B197F8C8
S315080087003630F3B93B689C6904F002041CB9384654
S31508008710FFF78EFF0024012387F8343097F83630A8
S31508008720CBB92E44B542386810D183699A06FCD570
S315080087301CB300242046F8BD002CDAD0FFF7F4FC61
S31508008740D6E7022BE3D13B689C6CDDE715F8011BE5
S3150800875075F029F8E6E7022BEAD12E44B5423868C7
S3150800876006D142F22003826C33EA0202FBD1DFE72C
S3150800877015F8011B74F07AFFF0E797F8363053B90D
S3150800878010213B790F4A03F239135B01D1500822B5
S315080087903B685A61CEE7022BCCD13868836CDB077D
S315080087A04CBF0921214674F05CFF42F29442102125
S315080087B03B795B0103F1A04303F570339950B9E7A0
S315080087C00446B7E700C0035010B5044680B190F8D8
S315080087D032302BB9FFF760FE10B9A068FFF71AFC14
S315080087E0002094F832300133DBB284F8323010BD01
S315080087F00048FCE7027000F010B50446A0B190F8F6
S3150800880032309BB190F83230012B05D1FFF744FE88
S3150800881010B9A068FFF71EFC002094F83230013B1F
S31508008820DBB284F8323010BD0148FCE70148FAE7AC
S31508008830027000F0057000F037B590F83550044620
S31508008840022D1DD1012290F82230457E817F9A4063
S315080088503020164B25B900FB013303F5015305E01B
S31508008860012D07D100FB013303F582531A6000205E
S3150800887003B030BD247E00FB0133002CF4D1ECE7B5
S31508008880012DF4D1037E73B911238DF80730FFF754
S315080088909BFF2A4620460DF10701FFF71DFF2046DC
S315080088A0FFF7AAFFE3E71323EFE700BF00C0035073
S315080088B0F0B587B005461646FFF780FD0446F0B9C1
S315080088C00493104BCDE901166A46A86A01A90396D6
S315080088D00593FFF79FFD044688B995F8303073B9BC
S315080088E02846FFF787FE28460099FFF7C9FE95F840
S315080088F03530032B03D028462C76FFF79DFF2046FC
S3150800890007B0F0BD017000F073B5906A01A914466E
S31508008910FFF766FD0546204674F08DFD3A4B9D42ED
S3150800892032D094F83610019B00293CD12068826C1D
S3150800893012F400722BD0354A99601A614FF400720E
S31508008940236803F500539A6474F042FE01990646BB
S31508008950CD6835B14A688B682046D31A0A68096912
S31508008960A847A06A01A974F099FDA06A8588ADB2E6
S31508008970002D3AD001A9FFF733FD20460199FFF7EC
S315080089807FFE304674F02AFE012002B070BD816C6D
S31508008990C80526D51E499A60196123684FF4807266
S315080089A003F50053CFE702291BD12168CA6C12F4DC
S315080089B000720AD0154A1A6100229A604FF40072B2
S315080089C0236803F50053DA64BEE7C96CC90508D500
S315080089D00F499A60196123684FF4807203F50053B2
S315080089E0F1E700221A619A60AEE701232046237652
S315080089F0FFF722FF94F8353084F83050032BC0D0A7
S31508008A002046FFF7DBFDBCE70B7000F00D7000F0A9
S31508008A100C7000F02DE9F04104468CB0884F04AE86
S31508008A200D460FCF0FC697E80F0086E80F001022F5
S31508008A3000216846ACF0CFFE002C00F0FE8025B978
S31508008A40804E30460CB0BDE8F081602200212046F9
S31508008A50ACF0C1FE2B6820462360022384F836302A
S31508008A602B7C2371FFF76EFD06460028E9D12B7F84
S31508008A70754A84F835302B68934240F0B8805623FF
S31508008A806362724B23614FF4702363610123ADF86F
S31508008A900630002384F8316084F83060D5E909127D
S31508008AA0A1620B80A16A3A204B80A16A684E8B802E
S31508008AB084F83030E2621380E26A01215380E26A68
S31508008AC0938084F8313084F8333002238DF81D30D2
S31508008AD0AB6806936B8AADF82030AB8AADF81E30CA
S31508008AE0AB7D8DF81C30AB690993CDF82CD000F01E
S31508008AF09BFB0121606A00F097FB2B79002B00F0A5
S31508008B0081800121362000F08FFBD6F8203223F031
S31508008B10070343F003031022C6F820322B7C4D4F7F
S31508008B20204607EB4313C3F89424A97B2B7C2A7BA6
S31508008B3007EB431342EA0142C3F8AC242B7CE97BDA
S31508008B406A7B253342EA014207EB43135A602B7BC3
S31508008B500121E376AB7BE3776B7B2377EB7B84F8AA
S31508008B6020306B7F6377AB7F84F82130EB7FA37768
S31508008B7095F8203084F8223074F0EDFB064600287C
S31508008B807FF45FAF74F024FD2A7F8046032A40D124
S31508008B9041F2944102202B7C07EB431358502B7C5F
S31508008BA095F82000E97F07EB431341EA004103F5F6
S31508008BB0A5531960297CA87F07EB411741F29C4110
S31508008BC06B7F43EA00437B508DF8002006238DF81F
S31508008BD010302B79286804A963B374F05AFD20462F
S31508008BE0FFF7D8FC0646404674F0F8FC29E71A4A0F
S31508008BF093427FF425AF57236362184B23614FF4E2
S31508008C00801342E7D6F8203223F0070343F0010326
S31508008C1081E7022ADAD194F821001149FFF7F2FA1E
S31508008C20FFF7D8FA4FF4007320462383A676FFF79A
S31508008C3003FECBE774F029FDD1E70A4E01E700BF32
S31508008C40E8F80B08037000F00000015B01000F0054
S31508008C500080005000C0035000000A5001001000B8
S31508008C60C5840008027000F0044BD3F88420D206AD
S31508008C70FBD4D3F88400C0F381107047004000503D
S31508008C802E4B98424AD022D82D4B984240D014D821
S31508008C902C4B984239D00AD82B4B984232D02B4BC2
S31508008CA098422FD02A4B98422CD000207047294B47
S31508008CB09842FAD1284B186F7047284B98422AD009
S31508008CC0274B9842F1D1244BD3F880007047254BA7
S31508008CD098422BD009D8244B984223D0234B98424C
S31508008CE0E3D11D4BD3F88C007047214B984221D015
S31508008CF003F5740303F510539842D6D1164BD3F8EF
S31508008D0098007047144B986D7047134B586E704710
S31508008D10114B586F7047104B986F70470E4BD3F82E
S31508008D20840070470C4BD3F8880070470A4BD3F879
S31508008D3090007047084BD3F8940070470048E80144
S31508008D400024F400C0CF6A0080841E0000093D009C
S31508008D5040420F00405DC6000080E00FC0EA2101D6
S31508008D6080BA8C01007E560380D54302006CDC0273
S31508008D700090D00338B5104B0546D3F880300C4622
S31508008D8003F00303022B0BD0032B0DD0012B0FD1BD
S31508008D90FEF712FF0E2305B1286004B1236038BD23
S31508008DA0FEF754FF0723F6E7FEF7FAFE0623F2E777
S31508008DB000231846EFE700BF0080005038B5174B70
S31508008DC00546D3F820310C4603F00703013B052B73
S31508008DD020D8DFE803F0030B130F171BFEF7E0FE9E
S31508008DE0052305B1286004B1236038BDFEF714FFDA
S31508008DF00323F6E7FEF72AFF0723F2E7FEF722FF2B
S31508008E000223EEE7FEF7CCFE0623EAE7FEF704FFA9
S31508008E100423E6E700231846E3E700BF0080005076
S31508008E2038B5174B0546D3F828310C4603F0070327
S31508008E30013B052B20D8DFE803F003131B0F0B17A4
S31508008E40FEF7AEFE052305B1286004B1236038BDE0
S31508008E50FEF7A6FE0623F6E7FEF7F8FE0723F2E777
S31508008E60FEF7DAFE0323EEE7FEF7D6FE0423EAE76B
S31508008E70FEF7E8FE0223E6E700231846E3E700BF0D
S31508008E800080005073B50D460021114B0191D3F8AF
S31508008E908041064604F00304022C13D0032C0CD0A0
S31508008EA0012C13D101A8FFF789FF10240EB1019BED
S31508008EB0336005B12C6002B070BDFEF7C7FE07240B
S31508008EC00190F3E7FEF7BEFE0190EFE70C46EDE7EB
S31508008ED000800050002337B50193154B0546D3F89B
S31508008EE020320C4603F00703013B032B1ED8DFE8AC
S31508008EF003F0020E1318002101A8FFF791FF1223B1
S31508008F000DB1019A2A6004B1236003B030BDFEF7A3
S31508008F109DFE07230190F3E774F0ABF90A2301904D
S31508008F20EEE7FEF7D5FE09230190E9E70023E7E718
S31508008F300080005038B5104B0546D3F840310C4632
S31508008F4003F00303022B0BD0032B0DD0012B0FD1FB
S31508008F5074F08FF90A2305B1286004B1236038BD7F
S31508008F60FEF7B6FE0923F6E774F086F90C23F2E756
S31508008F7000231846EFE700BF00800050002337B5EE
S31508008F800193164B0546D3F860320C4603F00703E7
S31508008F90013B032B1FD8DFE803F0020E191400214A
S31508008FA001A8FFF70BFF10230DB1019A2A6004B13F
S31508008FB0236003B030BD002101A8FFF7BBFF1123D2
S31508008FC0F2E7FEF743FE07230190EDE7FEF73AFEC8
S31508008FD002230190E8E70023E6E700BF008000507F
S31508008FE0002337B50193164B0546D3F894320C4641
S31508008FF003F00703013B032B1FD8DFE803F0020E3B
S315080090001914002101A8FFF7D9FE10230DB1019A02
S315080090102A6004B1236003B030BD002101A8FFF720
S3150800902089FF1123F2E7FEF711FE07230190EDE70A
S31508009030FEF708FE02230190E8E70023E6E700BFF3
S315080090400080005038B5134B0546D3F800320C465D
S3150800905003F00703013B032B18D8DFE803F0020AE5
S315080090600E1274F006F90A2305B1286004B12360CC
S3150800907038BDFEF72DFE0923F6E774F0FDF80C233C
S31508009080F2E7FEF7B3FD0F23800AEDE70023184643
S31508009090EAE700BF0080005038B5134B0546D3F801
S315080090A008320C4603F00703013B032B18D8DFE808
S315080090B003F0020A0E1274F0DCF80A2305B12860E0
S315080090C004B1236038BDFEF703FE0923F6E774F002
S315080090D0D3F80C23F2E7FEF789FD0F23800AEDE7A4
S315080090E000231846EAE700BF0080005038B5104B49
S315080090F00546D3F840320C4603F00303022B0BD087
S31508009100032B0DD0012B0FD174F0B3F80A2305B148
S31508009110286004B1236038BDFEF7DAFD0923F6E7B7
S3150800912074F0AAF80C23F2E700231846EFE700BF0D
S315080091300080005038B5104B0546D3F860310C4610
S3150800914003F00303022B0BD0032B0DD0012B0FD1F9
S3150800915074F08FF80A2305B1286004B1236038BD7E
S31508009160FEF7B6FD0923F6E774F086F80C23F2E756
S3150800917000231846EFE700BF00800050B0F5207FB7
S315080091801FD009D8B0F5007F15D003D868B1B0F55F
S31508009190C07F0AD000200CE0B0F5607FFAD10B4BF7
S315080091A0D3F88000C0F3011003E0084B186FC0F332
S315080091B0033001307047054BD3F89000C0F30460C4
S315080091C0F7E7024B186FC0F38020F2E700800050E3
S315080091D002464FF48030104B10B598660020FFF712
S315080091E0CDFF504341F671320C4BDC69DA635A689D
S315080091F004F4803422F4401259B9094988428CBFD4
S315080092004FF480100020104358600CB10022DA6336
S3150800921010BD0449F2E700BF00900050000003505B
S31508009220005A6202002D3101430905D0012B0DD0E9
S31508009230022B094B18BF002300F01F0041B103F5AC
S315080092408053012202FA00F018607047034BF3E7D7
S3150800925003F50053F5E700BF6880005064800050AE
S315080092601FB5002180280446CDE9001100F0998039
S3150800927029D8002800F09980A0F120043D2C35D883
S315080092803D2C33D8DFE804F091999199A8A8A8A8AD
S31508009290A899B23CC8603C99999932323232323236
S315080092A0323299999968D29932323232323232321E
S315080092B03232323232A8919191CD3C3CD7774DADBE
S315080092C0323232323288B0F5B06F00F08F802DD846
S315080092D0B0F5207F71D00CD8B0F5C07F65D0B0F559
S315080092E0007F65D0B0F5807F00F08580009804B0D7
S315080092F010BDB0F5607F6AD00DD8B0F5407FF5D1C6
S31508009300FEF774FC02464FF42070FFF737FFB2FBF6
S31508009310F0F0400847E0B0F5806F5DD0B0F5A06F7B
S31508009320E4D100216846FFF7D5FDDFE7B0F5106FF9
S3150800933077D016D8B0F5E06F78D00AD8B0F5C06FF8
S315080093406AD0B0F5D06FD1D100216846FFF77AFE12
S31508009350CCE7B0F5F06FC9D100216846FFF7EAFE01
S31508009360C4E7B0F5406F3CD013D8B0F5206F62D093
S31508009370B0F5286FBAD10021314B0391D3F870327A
S3150800938003F00303012B02D103A8FFF7D3FD039BC8
S315080093903BE0B0F5486FA9D100216846FFF720FEEB
S315080093A0A4E7FEF709FC0090A0E7FEF71FFCFAE722
S315080093B0FEF702FC0246204604E0FEF717FC0246CA
S315080093C04FF42070FFF7DAFEB2FBF0F0EBE701A8E6
S315080093D0FFF7D0FC019AEEE700216846FFF7EEFC9E
S315080093E084E700216846FFF71BFD7FE700216846F2
S315080093F0FFF748FD7AE74FF0E02302911B695B0708
S3150800940005D5FEF7F3FB0290029B00936EE703A9CE
S3150800941002A8FFF78FFDF7E700216846FFF78AFDE8
S3150800942064E700216846FFF737FE5FE700216846D4
S31508009430FFF75CFE5AE700216846FFF79FFD55E7F0
S315080094400080005008B58020FFF70AFF034B9842BA
S315080094509EBF4FF48032024B1A6708BD005A62025B
S3150800946000A000501FB50023B0F5807F019300F0DF
S31508009470C38064D85D2855D84C2807D82D2847D8E6
S3150800948023282BD8019805B05DF804FB4D38102821
S31508009490F8D801A353F820F0EF9500088594000842
S315080094A08594000885940008A1950008859400080D
S315080094B08594000875960008BF950008659500080C
S315080094C06B96000885940008859400088594000822
S315080094D085940008859400087F9600082438092892
S315080094E0D0D801A353F820F0EF950008EF950008AF
S315080094F0EF950008EF950008EF9500088594000899
S31508009500E5950008859400088195000825960008C9
S315080095103D2800F082803E28B4D1002001A9FFF73B
S31508009520E5FDAFE78028ADD15A4B1B6F03F0070363
S31508009530013B032BA6D8DFE803F05350878FB0F51D
S31508009540F06F6AD021D8B0F5B06F4BD00FD8B0F510
S31508009550607F00F0858095D3B0F5806F47D0B0F571
S31508009560A06F8FD1002001A9FFF7B4FC8AE7B0F5F8
S31508009570D06F57D0B0F5E06FCFD0B0F5C06F81D1BE
S31508009580002001A9FFF7D6FC7CE7B0F5206F71D063
S315080095900BD8B0F5086F4AD0B0F5106F7FF472AFEC
S315080095A0002001A9FFF778FD6CE7B0F5406F5CD0A5
S315080095B0B0F5486F63D0B0F5286F7FF463AF00212C
S315080095C0344B0391D3F8703203F00303012B5BD0BD
S315080095D0022B14BF0B46152300E00523019351E720
S315080095E00223FBE7002001A9FFF74CFC4AE700200D
S315080095F001A9FFF7E3FB45E702934FF0E0231B6958
S315080096005B0705D5FEF7F2FA0D230393039BE5E7FF
S3150800961003A902A8FFF78EFCF8E7002001A9FFF7C7
S3150800962089FD2FE7002001A9FFF70CFD2AE7194B52
S31508009630D3F8003103F00303022B07D0032B09D01C
S31508009640012B0BD1FEF7E8FA0323C7E7FEF740FB29
S315080096500923C3E773F00BFE0823BFE70123BDE721
S31508009660184601A9FFF786FB0CE7002001A9FFF7BA
S31508009670D7FB07E7002001A9FFF780FC02E70020D7
S3150800968001A9FFF7ADFCFDE603A8FFF753FC11237C
S31508009690A4E700BF0080005008B5FFF7E3FE0928DD
S315080096A011D00A38012811D84FF48002094B4FF619
S315080096B0FF705A6603F5D8335B6A13F0010F18BFBB
S315080096C04FF4FA7008BD044B1888FBE74FF6FF7095
S315080096D0F8E700BF00900050D414002038B50446BF
S315080096E08020FFF7BFFE032800F083804FF4801226
S315080096F0504B4FF0A0615A6645F60E034E4AC2F823
S3150800970080304E4B99624FF4803103F5805399624D
S31508009710916D11F48031FBD1D4E900031B0543EAAE
S315080097200063E07B0343207B43EA0043607B43EA14
S315080097300033A07B43EA801313619069D4E904538C
S315080097401B0643EA856300F000400343A07E0343FB
S31508009750207E43EA0043607E43EA00239361136A4E
S31508009760E269E57E002A0CBF0020082023F00F03DB
S31508009770134343EA8503304A03431362E369304DD2
S31508009780002B37D194F82430916A94F82000DB0036
S315080097900D4043EA401394F821102B4343EA011382
S315080097A043F480339362274B916D33EA0101FBD171
S315080097B04FF08071214881621369A56823F470030C
S315080097C043EA055313614FF00043836194F822304E
S315080097D00BB91D4B996294F823301BB94FF48032AC
S315080097E0194B9A6294F825301BB1134B174AC3F8E4
S315080097F0802038BD022B08D11161154891614FF4BC
S3150800980008524FF47F4173F0A3FE0B4994F82230B7
S315080098108A6A94F820001B06154043EA401394F818
S3150800982024202B4343EAC20394F8232043EA024345
S315080098308B62D7E7009000500040005A0050005A4B
S31508009840C7FFFEFE030001000060005AF1A7FFFFF4
S315080098503440005A37B5194CA26AA36D13F4803FF9
S3150800986018BF4FF48031164B18BF99624FF08071BC
S315080098709962144BA56993F9003025F47F050344D2
S31508009880000280B225F47F4583F30803284340EAA3
S315080098900340A0610C48019273F05AFEA36D019A29
S315080098A013F4803F07D04FF48031074803B0BDE872
S315080098B0304073F04DBE03B030BD00BF0040005AC3
S315080098C00050005A321700202840005A014B93F9DD
S315080098D000007047321700204FF400011B4A4378F6
S315080098E010B551664FF4D151022402F5B8325162CF
S315080098F017494F2B4C604FF0010428BF4F2301F541
S3150800990080514C601169C903FCD4017843EA0123EC
S315080099105361D0E901131B0143EA0123417B0B4341
S31508009920017B43EA41039360C37B817B1B0143EAC6
S315080099304113417C0B43017C43EA41035360837C1A
S3150800994013B16FF4D153536210BD00BF009000509D
S3150800995000100250014B1880704700BFD414002035
S315080099604FF4800208B5184B5A660223174A53600B
S31508009970936813F48033FBD1012822D1FEF74CF902
S31508009980134B984215D003F5122303F5F863984252
S3150800999013D0104B00EB8002400AB3FBF0F0520ADA
S315080099A00A4BDA62012218635A620022074B5A6090
S315080099B008BD45F67A10084AF2E745F61A00074A3E
S315080099C0EEE75362F1E700BF0090005000400250F6
S315080099D000F0490264666666D8B80500BBCF050084
S315080099E0B0F5207F10B50C4657D008D8B0F5007FE3
S315080099F048D003D830B3B0F5C07F23D010BDB0F53A
S31508009A00607FFBD129492A48D1F8FC2012F08072E0
S31508009A101EBFD1F8FC3023F08073C1F8FC30D0F8B3
S31508009A208030611E23F0300444EA0114C0F88040F7
S31508009A30002AE3D01D4AD2F8FC3043F08073C2F8FE
S31508009A40FC30DBE773F095FD73F0A1FD4FF4803130
S31508009A50184B174A1967136F611E23F4704444EABA
S31508009A6001341467FEF7C2F80446FFF7FDF8C0F1A3
S31508009A700201204673F085FD00F02EF8BDE810407F
S31508009A80FFF7E0BC0A4A0139D2F8903023F0F854BF
S31508009A9044EA0164C2F89040B0E7054B013C196FEF
S31508009AA021F4806141EA84241C67A7E700ED00E001
S31508009AB0008000500090005008B50121022000F0F7
S31508009AC09BF973F056FD73F062FD4FF48032014B3B
S31508009AD01A6708BD0090005008B54FF4C070FFF72C
S31508009AE0BFFBBDE80840044988428CBF022101211A
S31508009AF04FF42070FFF774BF80F0FA024FF4C022CB
S31508009B0001212DE9F04105466A4B5A666A4A03F572
S31508009B1098335C6851605E6816F00206FBD1FFF761
S31508009B20A3F80128286805D1644B984202D9002079
S31508009B30BDE8F081624A002311461768B84202D38D
S31508009B405768B84205D90133192B02F11002F4D12E
S31508009B50002301EB0313D3E9028028B1FFF790F83D
S31508009B6000F07F0048EA00088020FFF77BFC052804
S31508009B705FD173F0FEFC73F00AFD4FF480324D4B53
S31508009B804FF4C0701A67FFF7F9FA012806464CD158
S31508009B9002214FF4C070FFF723FF01274948C16827
S31508009BA011F00601FBD1D0F808C0C0F80880836818
S31508009BB008F4F81203F4F8139A424ED1AA88EB88EF
S31508009BC043EA0243404AD360AB68032B33D1A2F57C
S31508009BD0A032D2F8003123F0030343F00103C2F8A0
S31508009BE000312B7D287B002B6B7D14BF04220022BD
S31508009BF0002B18BF40212B694FF0000843EA4003A9
S31508009C001343314A0B4393602868FDF7CFFF0722B9
S31508009C10294B1A610122A3F580535A60A3F5805394
S31508009C201C6914F00704FBD01EE0022801D10421A8
S31508009C30AFE70027B2E7092B07D1244AD2F800314B
S31508009C4023F0030343F00203C9E7082BC9D11F4ACF
S31508009C50D2F8003143F00303C1E714F001044FF0D2
S31508009C600108C0F808C0D2D18020FFF7FBFB052801
S31508009C7017D127B131464FF4C070FFF7B1FEFDF793
S31508009C80B5FF0546FDF78CFFFDF78AFFFEF7ECFFEB
S31508009C90C0F10201284673F074FCFFF71DFFFFF7B9
S31508009CA0D1FBB8F1000F7FF442AF631E584258410A
S31508009CB03EE700BF0090005000E00150005A6202E3
S31508009CC008F90B080000015000C001500080005040
S31508009CD00028ABBF00F16040054B00F5614000F07D
S31508009CE00F00ACBF90F80003185C0009704700BF6E
S31508009CF014ED00E0054B420953F8223000F01F002E
S31508009D0023FA00F0C04300F00100704700E100E0CC
S31508009D10014608B5EFF31083DB0702D5012210468A
S31508009D2008BDFFF7E7FF02460028F7D10846FFF708
S31508009D30CFFF0146EFF3118313B1B0EB131FEDD23A
S31508009D40074B5B68C3F30803002BE8D0103B58B2F7
S31508009D50FFF7BEFF88428CBF00220122DFE700BF63
S31508009D6000ED00E0024A536B0342FCD1704700BF86
S31508009D7000400950044A4178536F23F4407343EA7C
S31508009D8001235367704700BF0040005010B50A4AC8
S31508009D900446136943F00403136106F019F973F0D6
S31508009DA020FC30BF73F01EFC06F026F91CB9BDE88E
S31508009DB01040FDF71BBF10BD00ED00E010B5084AC6
S31508009DC00446136943F00403136106F001F930BF32
S31508009DD006F012F91CB9BDE81040FDF707BF10BD23
S31508009DE000ED00E0034A0179D36E23F030030B43FC
S31508009DF0D366704700400050F8B504461C4BD3F8AC
S31508009E008420D106FBD4D3F88430C3F381139C4253
S31508009E102CD0FDF7D1FE012C064602D1214673F05F
S31508009E20B0FB73F0CEFB4FF00072124B07465A6632
S31508009E30204673F0DAFB4FF480630D4D621E9340A3
S31508009E402B676B6E9A0103D4D5F884309B060AD526
S31508009E50384673F0BAFB022C08D13046BDE8F84004
S31508009E60002173F08EBBD5F88430EAE7F8BD00BF51
S31508009E70004000500060005007B518B90191FDF781
S31508009E809BFE0199064B1B7843B1064B984205D8B1
S31508009E90012003B05DF804EBFFF7AEBF0220F8E738
S31508009EA0B4E40120005A62020278034B0121002023
S31508009EB01A70FFF7E1BF00BFB4E401204FF000427B
S31508009EC0154B10B55A664AF6CD3314494C6C0B64DB
S31508009ED004F0010488B90120FFF744FF4B68DB074B
S31508009EE004D50F4B58600B6BD807FCD514B10B4B38
S31508009EF00C4A1A64B4F02EFD10BD0B6B1A07FCD47D
S31508009F002022074B9A620122A3F580535A60034A1E
S31508009F10936A9B06FCD5E9E700900050004009507B
S31508009F20006009503254FFFF4FF0004238B5164B17
S31508009F3001465A664AF6CD33144C154A656C2364B5
S31508009F4043780B205B0043F00103D363FFF70AFF56
S31508009F5063688A7823F4F87343EA02136360CA785D
S31508009F604B7943EA0223A3600A798B7943EA0223F1
S31508009F7023610878FFF7A2FFEB0744BF054B23646C
S31508009F80B4F0E8FC012038BD0090005000400950AC
S31508009F90004000503254FFFF4FF0004270B5124B9C
S31508009FA004465D6E03F580535A664AF6CD330F496B
S31508009FB080204E6C0B64FFF7D5FE0B6A23F00F0367
S31508009FC00F2C94BF234343F00F030B62F30744BFE0
S31508009FD0074B0B64002DA2BF4FF00042054B5A6693
S31508009FE0B4F0B8FC70BD00BF0080005000400950B6
S31508009FF03254FFFF00A000504FF0004270B5104BDE
S3150800A00004465D6E03F580535A664AF6CD330D490C
S3150800A01080204E6C0B64FFF7A5FE0B6A23F4F853F9
S3150800A02043EA04230B62F30744BF074B0B64002D76
S3150800A030A2BF4FF00042054B5A66B4F08BFC70BDC8
S3150800A04000800050004009503254FFFF00A0005025
S3150800A05010B573F0CFFA042300F5805100F50052CD
S3150800A0600B6113610B6113610B6113610B61136162
S3150800A070202341F2020103610023C360836041612A
S3150800A0804FF4A0218361836541620549C361036278
S3150800A0908362C36243630365D164036310BD00BF73
S3150800A0A0FF3F0D03F8B505461446084641B9344B3B
S3150800A0B09D422FD0334B9D4208BF5720FFF7D0F85B
S3150800A0C0AB68DE072ED5B0FBF4F46E68013C16F0DB
S3150800A0D0010625D02821284673F088FAAB6C990723
S3150800A0E01AD1AB6CDA0719D4AB6C13F0020F0CBF9C
S3150800A0F000270627284673F07DFA286920F07F4056
S3150800A10040EA04642C61DEB139462846BDE8F840C9
S3150800A11073F0A7BA5620D1E70527EBE70927E9E741
S3150800A1203746EAE76B68AB6DAF68DB0707F0E00711
S3150800A13048BF6400402F1BD003D8DFB1202F1BD0A7
S3150800A140F8BD602F1AD0802FFAD1012604FB06F33A
S3150800A1504101B1FBF3F30C4A203B02EAC30228464D
S3150800A160012173F043FA2A63BDE8F84073F03EBA5A
S3150800A1700626EBE71026E9E70826E7E70426E5E7DB
S3150800A1800000015B00000A50F8FF7F00F8B51E4684
S3150800A190436804460D4617461BB140F6FF7173F037
S3150800A1A025FA2046FFF754FFE9896B7B62690B4362
S3150800A1B0298A22F44C520B4322F00F02134363619F
S3150800A1C0A368297B2A7E23F0804323F0E203114308
S3150800A1D019436B691943A160AB681BB9A36843F0BF
S3150800A1E00043A360EA69002A6BD0A368127A43EA9F
S3150800A1F08253A360EA69A368927A43EA4243A3605A
S3150800A200EB69A2689B8803F4C0431343A360EA6919
S3150800A210A368527843EA8203A360EA69A368527B7B
S3150800A22043EAC203A360EA69A368927B43EA02137E
S3150800A230A360EA69A368927843EA8223A360EA697D
S3150800A240D37991795B0243EA8123E360EB69674A34
S3150800A2501B7803F0FD03012B02BFE36843F00403F8
S3150800A260E360EB691B78023B012B614B7AD8944279
S3150800A27076D0604A94420CBF01224FF0FF3203EBBE
S3150800A280421341F2944202219950EB695A7A04F535
S3150800A29080539A62EB695B7A1BB1E36843F4006307
S3150800A2A0E360EB69DB7A63B1E36843F40043E36098
S3150800A2B04E4B9C4265D1EB694F4A1B7B03F00F035B
S3150800A2C053673FB197F8203004F58050002B63D0D0
S3150800A2D001230362002E30D02B7E04F5805013B183
S3150800A2E04FF40043836596F82120404B102A4349D2
S3150800A2F061D89C425DD03F4B9C420CBF01234FF076
S3150800A300FF330127CF54768C3849B6F5006F3C4B9E
S3150800A3105FD88C425BD037498C420CBF01214FF085
S3150800A320FF3101275F54A36D324323F4F95323F019
S3150800A3301E031343A365012383650521204673F095
S3150800A34073F9AA6812B16968FFF7ACFE2046297846
S3150800A35073F087F9A36CDB4313F4405FFAD1F8BDB9
S3150800A36000228CE794420AD0224A94420CBF01226A
S3150800A3704FF0FF3203EB421342F2944283E7002286
S3150800A380F8E71C4B9C429CD1EB691B4A1B7B03F0EC
S3150800A3900F03C2F8803094E7E36997F8221097F81C
S3150800A3A0212023F009030A431A4342F00102C2613D
S3150800A3B090E70023A5E79C4207D00E4B9C420CBFB2
S3150800A3C001234FF0FF3302279CE70023FBE7002118
S3150800A3D0A7E78C4207D007498C420CBF01214FF0F2
S3150800A3E0FF3102279EE70021FBE700BF0000015B63
S3150800A3F000C0035000000A5000900350B7E4012043
S3150800A400B5E4012070B5436804460D460E691BB1D4
S3150800A41040F6FF7173F0EAF82046FFF719FE226945
S3150800A4206B7BA97B22F087020B43134343F080031F
S3150800A43023611EB32A692369117823F0F8030B43B5
S3150800A440117F43EAC113117943EA4113517AD27B4A
S3150800A45043EA011343EA82132361E268296922F079
S3150800A460F04222F47022D1E90530034313430A7BF4
S3150800A47043EA82234A7B43EAC233E360A368EA7B62
S3150800A48023F00303134343F00103A3603EB32B6990
S3150800A490A2685B8803F4C0431343A3602A69A368D0
S3150800A4A0527943EA8223A3602969626A8B79C8795B
S3150800A4B01B01000203F0700300F4E06022F4772227
S3150800A4C022F4EE62034313430A7A120302F4E042CB
S3150800A4D013434A7F120402F47022134363626369CA
S3150800A4E02A7B23F00F0313436361C6B12B695B898B
S3150800A4F0A3612B695A7B3AB11E4A944225D19B7BAC
S3150800A5001D4A03F00F0353672B69DA7B3AB1194AE0
S3150800A510944225D11B7C184A03F00F031367D5E92B
S3150800A52001122046FFF7BEFD0521204673F07CF890
S3150800A530282173F05BF82B78A36373F057F8A36CA4
S3150800A540DB4313F4405FFAD170BD0C4A944201BF55
S3150800A5509B7BA2F5CE2203F00F03C2F88030D3E727
S3150800A560064A944201BF1B7CA2F5CE2203F00F03D4
S3150800A570D367D4E70000015B0090035000000A503F
S3150800A580072AF7B501F0030614461F464FF00301E4
S3150800A5902CD89500A94000FA05F21C48019173F0E1
S3150800A5A07AF801991A4806FA05F273F074F8194B05
S3150800A5B019499DF82000002F08BF1946012303FA00
S3150800A5C004F40C60154B1649002808BF0B461C609E
S3150800A5D0144B1031C3F820449DF82400A3F6DC334D
S3150800A5E0002808BF0B461C6003B0F0BDA2F10805A1
S3150800A5F0AD00A94000FA05F20B48019173F04BF83B
S3150800A60001990A4806FA05F2CFE700BF00C40350CD
S3150800A61008C4035010E4035010D4035014D4035054
S3150800A62014E4035000E0035004C403500CC4035060
S3150800A6302DE9F04105460F461E4690464AB10123CC
S3150800A6403022194C8B4002FB00443EB304F5825479
S3150800A65023600F21072F05EB450388BFA7F10804E0
S3150800A6604FEA0313114895BFBC00A40004330C330A
S3150800A67008FA04F2A140184473F00DF8B8F1000F77
S3150800A6800AD101213020084A01FA07F700FB052202
S3150800A6903EB102F582521760BDE8F08104F5015417
S3150800A6A0D6E702F50152F6E700C0035030C0035062
S3150800A6B0044A054B002918BF1346012202FA00F086
S3150800A6C018607047402004504010045010B501210E
S3150800A6D004462020FEF7A8FD01212120FEF7A4FD4F
S3150800A6E00122114B5A60227812069A606178A27884
S3150800A6F042EA01429A61FF229A6200229A631A6428
S3150800A7004FF000425A654FF0FF324FF4001103F53F
S3150800A71000531A65054AC2F88011E3781B01DBB2BB
S3150800A72082F81533116010BD0000045000E100E006
S3150800A73070B50125C3B29D401E4B0C461D658300AE
S3150800A740096803F1A04303F58823596030211A4E9E
S3150800A750637B01FB00600366E37AA17A1B0543EA83
S3150800A7600143217B22F0030243EA4153C365026792
S3150800A77072F02EFF736D2B437365237A13B1336C16
S3150800A7802B433364637A13B1B36B2B43B3632279D8
S3150800A790A37943EA0243074A93616179E37943EA75
S3150800A7A0014306498B61044B55639D64BDE87040BF
S3150800A7B072F014BF0020045000000450001004502A
S3150800A7C010B50124C0B2844072F002FF044B5A6DE2
S3150800A7D022EA04025A659C62BDE8104072F0FEBE89
S3150800A7E00000045010B50124C0B2844072F0F0FE97
S3150800A7F0074BDA6A224209D15B6B34EA03030CBFC2
S3150800A8000124002472F0EAFE204610BD0024F9E770
S3150800A81000000450F8B50125C3B204469D4072F005
S3150800A820D7FE3022094B1E6D5F6B02FB04335C6E4C
S3150800A83072F0D4FE3D4206D1C4F30A1008B9354277
S3150800A84000D10130F8BD0020FCE700BF000004502D
S3150800A8504FF48032054B9A6641F6713203F51C3384
S3150800A860DA63012203F50053DA607047009000505E
S3150800A87041F671320121064BDA6303F50052D160C5
S3150800A8800022DA634FF48032A3F518339A667047CC
S3150800A89000000350013831289ABF024B185C00208B
S3150800A8A0704700BF98FA0B08021E30B54FF000003B
S3150800A8B00CBF1025042547F60774084952B9831DAD
S3150800A8C051F82330234023B101308542F6D14FF0A9
S3150800A8D0FF3030BD00F11603F2E700BF00800350D9
S3150800A8E010B5C2F30623044602F0070241B942EA4C
S3150800A8F003220B4B42F44022063443F8242010BDB1
S3150800A9001846114672F0D8FE01461846FFF7C2FFF0
S3150800A910034B41EA0020163443F82400EFE700BF52
S3150800A92000800350014BD3F8940070470040005054
S3150800A9304FF48032064B5A6603F5E6239B69C3F348
S3150800A9408512827003F03F021B0B4270037070473A
S3150800A9500090005040F6B732064B5B689BB29342B4
S3150800A9609FBF4FF47A72B3FBF2F3034AD05C88BFF9
S3150800A970002070470080E00FCAFA0B08012100F595
S3150800A980805310B5596040F6AA6341F20502436147
S3150800A9900023094C8360C365C26000F50052036159
S3150800A9A0C361C3649464054C8365A04204BF036510
S3150800A9B04365516010BD00BFFFFF010000C0055090
S3150800A9C038B50D46FFF7DAFF012200F580535A60C5
S3150800A9D0A97B2A8A002914BF4FF480610021836865
S3150800A9E042F0010213430B4383602A7D8368002AE1
S3150800A9F014BF4FF00052002213438360AB7C044619
S3150800AA005BB1194B984202BFEA7CA3F51033C3F831
S3150800AA10C821C36D43F08003C3652B7B204643F4EE
S3150800AA208053E360D5E9011272F0A7FE6B7B0BB188
S3150800AA30102363616B7D1BB1A36843F48033A36065
S3150800AA40AB7D1BB1A36843F40043A360EB7D2A7E6C
S3150800AA501B07120503F0E04302F4E0021343A36563
S3150800AA602B78636138BD00BF00C005500123064A34
S3150800AA70411100F01F0003FA00F052F82130184384
S3150800AA8042F82100704700BF18410120044B1B689B
S3150800AA901BB1044B0360002070470120704700BFBC
S3150800AAA028410120ECE3012070B50D4C246884B1DF
S3150800AAB00C4C85182688B5420DDC6688CD18B5423B
S3150800AAC009DC52B14BB1A0800020E180228163816C
S3150800AAD070BD0120FCE70420FAE70520F8E700BF6F
S3150800AAE028410120ECE301202DE9F74F1E46424B91
S3150800AAF090461B68002B79D0DFF804A1BAF80A2023
S3150800AB00BAF80840531A63431B1AB34270D3002499
S3150800AB104FF00109BAF806301A4492B25F1801924A
S3150800AB20BFB21EB9304603B0BDE8F08F019ABBB27A
S3150800AB3093425FD2BAF80850304B2D1AB54228BF57
S3150800AB40354603EB0712BAF80430761B184483B26D
S3150800AB50400703D1610701D1072D26D81D441B1BC9
S3150800AB60191989B2A94205D33846FFF77FFF01377D
S3150800AB700020D6E74FEAE40E18F80EE04FEAD10CAB
S3150800AB8004F0070B01F0070112F90C0009FA01F1AC
S3150800AB904EFA0BFE49B21EF0010F14BF014320EA1C
S3150800ABA0010102F80C100134DAE702EBD3034FEA8D
S3150800ABB0D50B5A46184608EBE401AAF0E5FD25F040
S3150800ABC00702AD1A03461444CED0E01009FA05F27E
S3150800ABD018F80000D2B2511E014013F80B00524279
S3150800ABE002400A4303F80B202C44BDE7012699E7E7
S3150800ABF0032697E7042695E728410120B9E40120B2
S3150800AC00ECE301202DE9F74F0093444B1B68002B1A
S3150800AC107FD04FF0010BDFF80C910D9FB9F8063085
S3150800AC20B9F80A205D181A441FFA82FAADB21FB99C
S3150800AC30384603B0BDE8F08FABB29A456BD9384AAF
S3150800AC40B9F8084002EB0511241A009ABC4228BF3D
S3150800AC503C46161E18BF0126B9F80430764203444E
S3150800AC60072CA7EB04079BB2F6B221D81C44BEB941
S3150800AC70A34217D2DE0803F007020BFA02F08A5D38
S3150800AC80013322EA00028A559BB2F1E7D8080E5C26
S3150800AC9003F007020BFA02F2324301330A549BB25D
S3150800ACA0A342F3D32846FFF7E1FE01350020BEE7AD
S3150800ACB04FEAD30C01EBD30813F0070310D00BFAB5
S3150800ACC003F211F80CE0D2B2501E52420EEA00000E
S3150800ACD032401043083B01F80C0008F101081C44F7
S3150800ACE0E20809D0314640460192AAF074FD14F0F4
S3150800ACF00704019AD6D090440BFA04F498F8003069
S3150800AD00E4B26242013C134034401C4388F80040D8
S3150800AD10C8E701278CE704278AE700BF28410120F6
S3150800AD20B9E40120ECE3012037B5124D2B68FBB9D5
S3150800AD30FCF772FB044618B10124204603B030BD67
S3150800AD40FCF75EFB28600028F6D0028841880A4B8B
S3150800AD5020461A801A814A4359809C80DC80598192
S3150800AD60CDE90042234622462146FFF74BFFE4E79A
S3150800AD700024E2E728410120ECE301202DE9F8430D
S3150800AD80002301251A461A4FDFF86C803C68DFF865
S3150800AD906490D8F80000D61841888E4207D3FBB9CC
S3150800ADA0102200211248AAF016FD002012E0E10741
S3150800ADB008D50133D118C9060ABF57F825406408D3
S3150800ADC00135E6E753B109EB0211FCF7BFFA034672
S3150800ADD010B10720BDE8F883721CEBE70132E9E7FA
S3150800ADE0044901EB0211FCF7B1FA0028D8D0F0E7C4
S3150800ADF018410120B9E401202841012030B5054653
S3150800AE0087B000B300226FF07F43C0E9012301A891
S3150800AE10FFF73CFE044698B9CDE90200019B284697
S3150800AE202B601A8802A9013A04925B88013B0593B4
S3150800AE3072F0F8FC044618B92846044972F048FE30
S3150800AE40204607B030BD0524FAE700BFD0FA0B0844
S3150800AE50054B9A689107FCD45A689207F9D4DA69BF
S3150800AE60002AF6D1704700BF00800A5008B5FFF7E0
S3150800AE70EFFF0122024B03F580514A601A6108BDB3
S3150800AE8000800A50074B5A68012A0AD15A68D20725
S3150800AE9002D5DA69002AF9D102221A610122024B87
S3150800AEA05A60704700800A5000A00A5010B5064C38
S3150800AEB0FFF7CEFF6368012B03D1FFF7E3FFFFF728
S3150800AEC0C7FF0378E36010BD00800A50E8B94A68F6
S3150800AED00B7812B1127843EAC2034A78002A14BFE3
S3150800AEE00222002213438A6812B1127843EA8213B7
S3150800AEF08A78002A14BF042200221343CA6812B1B2
S3150800AF00127843EA4223014A9364704700800A5044
S3150800AF1008B9014B5964704700900A5008B9014BAB
S3150800AF205964704700A00A5008B9014B1964704764
S3150800AF3000A00A5010B9024B186C704700207047E1
S3150800AF4000800A5048B911B1012903D07047044B53
S3150800AF50D86C7047024B186D70470020704700BFC9
S3150800AF6000800A5040B911B1012903D07047034B3C
S3150800AF70DA647047014B1A65704700BF00800A50B3
S3150800AF8038B50446054DB3F063FD0FCC0FC594E8FC
S3150800AF90030085E80300002038BD00BF2C410120CE
S3150800AFA047F6FF739A42F0B567D0012967D8354D41
S3150800AFB0CF0015F8313005EBC100012B847813D189
S3150800AFC00025C3781B1B9D4202D3E018C0B2F0BD12
S3150800AFD0591B4668A3EB510136F911609642D4BF56
S3150800AFE00D4601F1FF33EEE740680028EFD0B0F9CF
S3150800AFF00030934204DBB0F902309342B8BF1346DF
S3150800B00082883D44FF2A19BFC8214FF0280CB0F9A1
S3150800B0100610B0F908C0A1EB03020CBF01260026F2
S3150800B02092FBFCF26D78324412B2954201DD002A99
S3150800B03001DA6A1E12B24FF47A7700EBC206F1887B
S3150800B040B668013213FB016112B221EAE17101F51A
S3150800B050FA719542B1FBF7F104DD00EBC206B6883A
S3150800B0608E42EAD200EBC20232F8040C884228BFAC
S3150800B0700846A04238BF2046A8E7FF20A7E70020D9
S3150800B080A5E700BF2C4101200129F0B553D82B486C
S3150800B09000EBC10410F83110636801290FD1E0787C
S3150800B0A0A478904294BFC4EB0001C4EB0201001BD4
S3150800B0B0CAB28242C8BF002233F91200F0BD002B83
S3150800B0C039D0A178914202D3B3F90200F6E7E178C4
S3150800B0D0B3F900009142F1D999886478A1F1FF0685
S3150800B0E0013C714203F10405E4B2714103F10C0716
S3150800B0F01FFA82FCCEB2B44216D805EBC1014FF452
S3150800B1007A756A43B1F902404968521A04EBD47158
S3150800B11002EB610292FBF4F29042CFDBB3F9020034
S3150800B1209042CBDC10B2C9E737F831E04E1CE64551
S3150800B130E3D33146DEE70248C0E700BF2C410120D1
S3150800B1400080FFFF0148FFF71BBF00BF109A0D08DC
S3150800B15000487047D61400207FB50222084B0949DB
S3150800B160CDE901234FF00073CDE90313052301A9A7
S3150800B1704FF0FF300593B3F061FD07B05DF804FBAF
S3150800B180006A1800000204002DE9F84307F04AF99E
S3150800B1900128074605D907F079F9061E02DA0124BF
S3150800B1A01EE00026DFF8808098F8003003F0FF04E0
S3150800B1B093BB4FF05009194D05F110032846C5E910
S3150800B1C00044AB60C5F80C9007F002FB286650B93E
S3150800B1D00124012F04D9304607F07AF90028DEDB6E
S3150800B1E02046BDE8F8830E4D214605F110032A4690
S3150800B1F00120C5E90044C5E9023907F0A9FB28661C
S3150800B2000028E5D03022074B83F8412302229A60B2
S3150800B210012388F80030DCE70024DAE7A84101209A
S3150800B2204441012000E100E0B9EC012008B507F02F
S3150800B230F9F802280FD1094B4FF0FF31186E07F0C5
S3150800B24009FB002814BF0120002003D14FF48062B7
S3150800B250034B9A6608BD0020F8E700BFA841012005
S3150800B260009000504FF4806208B5084B9A6607F0C4
S3150800B270D9F8022807D1064B186E07F01BFB0038D1
S3150800B28018BF012008BD0020F9E700BF00A0005044
S3150800B290A841012008B54FF098435B6CD90208D540
S3150800B2A007F0C0F80238012803D8094B186E07F0D2
S3150800B2B0DBFB4FF098435A6CD202FCD55B6D054A0E
S3150800B2C003F4702313600222034BC3F8882108BDD8
S3150800B2D0444101204C10002000E100E038B5054645
S3150800B2E000283AD0FFF7A2FF0446002836D12846A0
S3150800B2F072F023FA95F8203043B94FF098435A6C08
S3150800B300D202FCD55D6D05F470251BE04FF098421E
S3150800B310936D43F00203936507F084F802281AD167
S3150800B320104B4FF0FF31186E07F068FB4FF098424C
S3150800B330936D23F00203936590B94FF4A0220A4B4C
S3150800B3401D681A60FFF78EFF04463DB12846BDE822
S3150800B350384072F007BC2046E8E72124204638BD6D
S3150800B3600124FBE7444101204C1000202DE9F0415F
S3150800B3708CB08846DDE912761D460446002847D07B
S3150800B380002945D0002F43D0002E41D013F00F03DB
S3150800B3903ED120482049A360002A18BF0146E36130
S3150800B3A0C4E90013404609A972F04CFD68BB204663
S3150800B3B0099972F0B9F92946204672F0B5F9694635
S3150800B3C0404600F079FF00BB6946204672F098F9BE
S3150800B3D0404603A972F004FEB8B9204603A972F0E4
S3150800B3E08FF906970127204645F0005506A90797C5
S3150800B3F0089572F085F9204609A909960A970B95CA
S3150800B40072F088F92046FFF769FF0CB0BDE8F081B5
S3150800B4102120FAE700010104000100042DE9F047A4
S3150800B42092B08846DDE91A571C460646DDF8709044
S3150800B430002864D0002962D0002F60D0B9F1000F2F
S3150800B4405DD0002D5BD013F00F0358D12D482E493F
S3150800B450B360002A18BF0146F361C6E900134046E7
S3150800B4600FA972F0EFFC002846D130460F9972F00A
S3150800B4705BF92146304672F057F96946404600F0B6
S3150800B4801BFF002838D16946304672F039F9404624
S3150800B49003A972F0A5FD78BB4FF001083046DFF826
S3150800B4A06CA003A972F02CF944F00054304606A9A2
S3150800B4B00695CDF81C80CDF820A00997CDF82880F0
S3150800B4C00B9472F01DF9304609A972F019F9304645
S3150800B4D00CA9CDF83090CDF834800E940F95CDF8A0
S3150800B4E04080CDF844A072F015F930460FA972F0E5
