S02900006275696C642F64656275672F6C696768742D7377697463682D6170702D77663230302E73333775
S31508006000001000208976000873530608D926080868
S31508006010F171060873530608735306087353060886
S31508006020735306087353060873530608516200082B
S3150800603073530608E4590908F16100088F730608C6
S315080060403574000873530608735306087353060815
S3150800605073530608735306087353060873530608E2
S3150800606073530608735306087353060873530608D2
S3150800607073530608735306087353060873530608C2
S3150800608073530608735306087353060873530608B2
S3150800609073530608F57D00087353060873530608FC
S315080060A073530608717F00084D7F0008735306086E
S315080060B073530608CD450608B14F06083F59090827
S315080060C03B590908994706084B59090843590908CD
S315080060D0894F06084759090811500608F14F06085E
S315080060E07353060873530608735306087353060852
S315080060F0ED710608735306087353060873530608AA
S315080061007353060873530608735306087353060831
S315080061107353060873530608735306087353060821
S315080061207353060873530608735306087353060811
S315080061307353060873530608735306087353060801
S3150800614073530608FDAC000873530608CF72060899
S31508006150852E060873530608675609086D560908FA
S3150800616073530608735306087353060873530608D1
S31508006170013800D0FCE7704700000000000000006E
S315080061800B4A1168086806C881F30B88022181F357
S315080061901488203080F30988BFF36F8F4FF0000012
S315080061A080F31188104700BFAFF30080AFF300807B
S315080061B024D70020000000000000000000000000B6
S315080061C007480068006880F3088862B661B6BFF3BE
S315080061D04F8FBFF36F8F02DF00BF00BFAFF30080A2
S315080061E008ED00E0000000000000000000000000CC
S315080061F0EFF30980EFF30B82734620E9FC0F104A90
S31508006200116808604FF0300080F31188BFF34F8F94
S31508006210BFF36F8F0BF07AF94FF0000080F3118807
S31508006220074A11680868B0E8FC0F82F30B8880F308
S3150800623009881847AFF30080AFF30080AFF30080FA
S3150800624024D7002000000000000000000000000025
S315080062501EF0040F0CBFEFF30880EFF30980044922
S31508006260084700BFAFF30080AFF30080AFF30080AC
S315080062709D000108000000002DE9F04F2DED028B6E
S31508006280804600680C4691461D468DB030B90327F6
S3150800629038460DB0BDEC028BBDE8F08F0668766C0B
S315080062A0B0472D2807460CD00028F1D09C4A9D4BB4
S315080062B00221A52808BF13460D209B4A7AF04BFBFE
S315080062C0E6E76378202B01D10027E1E7974BD8F85A
S315080062D00000049358B1036822461B6C04A998472A
S315080062E0074630B1049803689B689847D0E70327A8
S315080062F0F8E78F4B8F4E05934FF48973EE40F643BC
S31508006300EB40DB43102D06F0010688BF0126082D59
S3150800631003F0010388BF01239FED7F8B6FF0010B0C
S315080063200193049805A90368DB689847002840F09C
S31508006330EC808DF80E0005980DF10E010368DB68F8
S3150800634098470746002843D19DF80E30402B03D0C6
S31508006350802B01D003273BE062789A42E1D10123E2
S3150800636005988DF80F3003680DF10F015B699847A2
S31508006370074668BB9DF80F30082B17D8002BD0D0DE
S31508006380013B072BCDD801A252F823F0DD630008A4
S31508006390B763000823630008D9630008236300086D
S315080063A02363000823630008E3630008102BB8D1B1
S315080063B0002EB6D102E06B1E012BB2D80023059839
S315080063C00693036806A95B6A9847824668B107463A
S315080063D005A865F0A7FF85E7042DEFD0012DA0D10C
S315080063E0ECE7019B002B9CD1E8E7069B002B46D0E7
S315080063F08DED088B05985146036808AA9B6A98474D
S3150800640007460028E4D1DDE90830591E40F1FF327D
S315080064108B456FF0100171EB020210D39DF80E2028
S31508006420402A97D1D4E90212904208BF8B4226D05F
S31508006430069B0AF1010A53457FF673AFD8E74FF07A
S31508006440FF31C21C994277EB020231D39DF80E2028
S31508006450402A7FF47FAF1F0C04F1100104F11C00E1
S315080064609BB28842E4D051F8042B002AF9D0B7EB46
S31508006470124FF6D1002BF4D092B29342F1D80023F2
S3150800648005980793036807A99B6B98470746002852
S315080064909ED1079B002B36D082460598CDF820A0C2
S315080064A003683946DB6B08AA984758B107468FE751
S315080064B013F5803F70F1FF32FFF44CAF9DF80E20C4
S315080064C0802AAEE7089BD90704D5D9F80020099990
S315080064D0914212D19A0705D5BDF82810B9F80420BB
S315080064E091420AD15B070ED5D8F80400B9F8042002
S315080064F003680B999B68984728B9079B0137BB42E5
S315080065007FF60FAFC9E7002762E702210D200A4A86
S315080065107AF021FAA5275BE70000000000000000DA
S31508006520D9650E08935F0F08AD650E08081100209F
S315080065300C11002016010100CA650E0800000000B3
S315080065402DE9F04F2DED028B884204460D46904604
S315080065501E4697B00AD1034601211D202E4A17B0C0
S31508006560BDEC028BBDE8F04F7AF0F5B99FED288BAC
S315080065700DF10C092A21484605AF21F025FA99E8BC
S31508006580030087E80300DFF894A0DFF894B0BDF8AD
S315080065901400BDF81630834233D021F051FA33780F
S315080065A081468DF824408DF825508DF826808DF883
S315080065B028300BB173680B9309AB0893CDF81CA070
S315080065C01BF036F800230E9310938DF851302A23CA
S315080065D0ADF830904FF001090D930CAA6B4607A948
S315080065E08DED128B8DF850906BF0D2FD034620B1DD
S315080065F05A4649461D207AF0AEF938466FF0FEFF36
S31508006600C5E717B0BDEC028BBDE8F08FAFF300808D
S315080066100000000000000000D08D0E08BC8E0E0899
S31508006620108E0E08000000002DE9F04F2DED028BAC
S315080066309FED2F8B9DB00DF108092A21054604AC64
S31508006640484616461F46DDF8A48021F0BDF999E8AC
S31508006650030084E80300DFF8A0A0DFF8A0B0BDF8C7
S315080066601000BDF8123083423DD021F0E9F9289B8D
S3150800667081461B78CDE90A6708958DF830301BB13D
S31508006680289B5B788DF8313098F800308DF83830D3
S315080066901BB1D8E90223CDE9102308AB0793CDF83F
S315080066A018A01AF0C5FF00232A2216938DF8693020
S315080066B00223ADF848904FF00109CDE9132306A946
S315080066C06B4612AA8DED188B8DF868906BF060FDFD
S315080066D0034620B15A4649461D207AF03CF9204621
S315080066E06FF08CFFBBE71DB0BDEC028BBDE8F08FE9
S315080066F00000000000000000E48E0E08678E0E08F9
S315080067002DE9F04F2DED028B994600230024002534
S31508006710CDB08DF8C83049938DF828319C4BCDE91A
S315080067202E45CDE93045CDE934450C934FF6FF7437
S315080067300123DFF874A2064688461746CDF8D8A086
S31508006740ADF820410D936AB1054600F53E74A542A1
S3150800675000F00C81284666F0BBFB002800F0088193
S315080067609835F4E772F098FE044630B9AC24204612
S315080067704DB0BDEC028BBDE8F08F06F53E75284698
S315080067806FF0BFFDB4F868308DF8C880ADF82031D9
S3150800679094ED028B6A342021204685F05AFDCDE916
S315080067A00C407C4B4FF4C8710E93002309A8CDE921
S315080067B009330F930B93CDF870A069F07FF9099B05
S315080067C053B90B240BA866F08BF90AA866F088F96A
S315080067D009A866F085F9CAE74FF4C8710AA869F0EE
S315080067E06DF90A9B002BECD04FF4C8710BA869F021
S315080067F065F90B990029E4D0099B0A9A10934FF47E
S31508006800C8733046CDE91223CDE9141310AA4146C0
S31508006810119372F0C1FE08B10446D3E741463046EB
S3150800682012AA72F09BFE0028F6D14146304614AAF9
S3150800683072F04EFE0028EFD1109B0DF1B80A1693A0
S31508006840119B0DF1700B1793129B8DED008B18930E
S31508006850139BCDE905AB1993149B1AAA1A93159B9A
S3150800686018A91B9336AB079330AB049334AB039349
S315080068700EAB029316A825F083FA0028CCD10BA8F4
S3150800688066F02EF90AA866F02BF909A866F028F929
S31508006890B9F1000F13D1D6F8940300285AD003682B
S315080068A09B689847D6F894331A6800284AD05469E2
S315080068B041465A461846A04798B1044657E7D9F8BC
S315080068C0003048465B699847036859465B6A9847AB
S315080068D008B9C5244BE79DF86031CDF824918DF8A9
S315080068E028315146284673F0D7F80028E5D12846BE
S315080068F00CA972F09EFD2B7C77B302211120264A43
S315080069007AF029F8D5E90012AB69CDE9012100939F
S3150800691002211120EB69214A7AF01DF80F9906F534
S31508006920697027F003FC034620B1012111201C4A97
S315080069307AF011F827B196F8B233013386F8B233F4
S31508006940002414E741461846D26890470028C8D163
S3150800695010240CE703240AE7D5E900121120CDE933
S31508006960002102210F4A79F0F6FFD7E70B24FEE64D
S31508006970BDF864319FED048BADF820318DF8C880E1
S315080069800FE700BFAFF30080000000000000000022
S315080069901C660F0858ED0E0885EC0E08A5EC0E08C7
S315080069A01DED0E08E8EC0E0870190F08000000002F
S315080069B02DE9F04F2DED028B06469FED8B8BDFF808
S315080069C03C928B4FADF5217D00F5A07400F5A868C3
S315080069D0444500F00381D4F80031013364D02046E1
S315080069E078F077FA8207C3B240F1AA8004F1400131
S315080069F003A878F05CFA542203A918A885F099FA36
S31508006A00542218A92DA885F094FA002354222DA9FA
S31508006A1042A8CDE90033029385F08BFA42A878F0B4
S31508006A20ADFB054618B1019B01330193F6E79DF8C6
S31508006A30183173B301984FEA800A02A866F050F835
S31508006A4050462EF0C1FE029018B32B462946019AED
S31508006A509A4204D9029A42F823100133F7E75122E1
S31508006A602DA942A885F065FA002542A878F086FB8C
S31508006A70E8B10DF2191085F0BDFB01460DF21910AB
S31508006A8079F029FB029B5851029B5B590435002B70
S31508006A90EBD19DF8003073B901212220554A79F0CF
S31508006AA05AFF684679F03FFB04F5007490E7012326
S31508006AB08DF80030EDE7002542A8CDE9425544950A
S31508006AC077F01EFD9DF8003006F1180A83B3DDF84D
S31508006AD004B044A8CDF80CB166F002F84FEA8B0072
S31508006AE02EF072FE449018B32B462946439A9A42D2
S31508006AF004D9449A42F823100133F7E70025439B4B
S31508006B00AB4212D9029B53F825B0584685F072FB62
S31508006B100146584679F0DFFA449B43F82500449B22
S31508006B2053F8253023B10135E9E701238DF80831FB
S31508006B30504642A977F05CFE42A879F0F4FAB0E72D
S31508006B4043B12D4A0121222079F005FF20462AF07B
S31508006B504DFBA9E7D4F80051012D23D142A879F0BD
S31508006B60A3FA61A871F042F842A824F00FFD61A8C3
S31508006B7071F03CF8204642A978F044FA034620B161
S31508006B803A462946222079F0E6FE06F1180042A97F
S31508006B9077F093FDF068002886D0036842A99B68C1
S31508006BA0984781E7C5B942A879F07EFA204642A9F6
S31508006BB08DED628B8DED648B78F044FA034620B137
S31508006BC03A460121222079F0C6FE06F1180062A98C
S31508006BD077F054FDB068DEE74A46B3E70DF5217D48
S31508006BE0BDEC028BBDE8F08F00000000000000003D
S31508006BF0E1070F086C070F089E070F0806080F081D
S31508006C002A2110B57248ADF5956D02912FF07CFFDB
S31508006C1008B185F00CF9029002A96D482FF01EFE06
S31508006C200028F6D1029B2A2BF3D167A3D3E90023C8
S31508006C306848CDE908232FF083FF0028E9D1002210
S31508006C400023644808A9CDE908232FF02FFE002861
S31508006C50DFD1DDE9080240F6FA035F499A4208BF28
S31508006C608842D6D101215D488DF807102FF030FFF4
S31508006C700028CED18DF807000DF1070157482FF0EF
S31508006C80C1FD0028C5D19DF80730002BC1D050485A
S31508006C902FF084FD0028BCD14D4803A92FF0DEFD56
S31508006CA040F20124A042B4D14D494E487BF0B4FAD3
S31508006CB00028AED140224B4804AB0AA92FF022FE89
S31508006CC00028A6D1049B0E2BA3D10F2244490AA85B
S31508006CD085F01FF900289CD1434942487BF09CFA6D
S31508006CE0002896D104AB40223E480AA92FF00AFE96
S31508006CF0049B03438DD19DF82810002989D1394872
S31508006D007BF08AFA002884D14022364805AB1AA9B6
S31508006D102FF0F8FDA0427FF47CAFF12233493448C6
S31508006D202FF048FF00287FF474AF4FF40072304804
S31508006D3006AB2AA92FF038FE00287FF46AAF069A18
S31508006D40F12A7FF466AF29492AA885F0E2F80246B7
S31508006D5000287FF45EAF014625482FF02BFF002858
S31508006D607FF457AF4FF40072214807ABAAA92FF05A
S31508006D701BFEA0427FF44DAF16482FF01BFD0028DE
S31508006D803FF447AF15482FF015FD00283FF441AFF3
S31508006D9017482FF00FFD00287FF43BAF2FF068FF50
S31508006DA000287FF436AF0B482FF004FD00283FF487
S31508006DB030AF0A482FF0FEFC00287FF42AAF0DF505
S31508006DC0956D10BDAFF30080316EE595FA080000A9
S31508006DD00573080001720800316EE5950673080010
S31508006DE0AA220F0802730800A9220F08B8210F0863
S31508006DF00272080000000000054B186803689969CC
S31508006E0001A3D3E90023084700E0373B015D0300EF
S31508006E10101200200000000070B505463E4C8AB0EE
S31508006E2020B100230088236049F0DEFE3B488EF03F
S31508006E3089F83B4E3B4B304633603B4B73604AF018
S31508006E40A7F80021304655F021F831A3D3E90023ED
S31508006E50A062C4E9062388F08EFED4E90623194306
S31508006E6010434FF0FF33C4E90601CDE900014FF0A6
S31508006E70FF32A06A8EF0F2F802224FF0FF31A06AC4
S31508006E808EF007F9012049F0F7FB4FF40073002252
S31508006E902649A06A8EF0EBF9B0F5007F36D10023BB
S31508006EA09422CDE9073309933C23CDE903320593B0
S31508006EB09623A06A03A9069355F07EFB25B3287C82
S31508006EC04AF024F90546E0B9A06A8EF070FA4AF04D
S31508006ED0C5F849F0B3FB20B14FF48070002146F0A5
S31508006EE051FF49F0BBFB20B14FF40060002146F08A
S31508006EF049FF01208DF04AFE0D4A0E49A06A88F026
S31508006F0031FE28460AB070BDFF20D9E70725F8E705
S31508006F1009D501552000000070C40020690345EC1E
S31508006F2040520120310E0508345201203450012008
S31508006F300DFB08084DFB080810B5054C237833B936
S31508006F40044B13B1044800E000BF0123237010BDB1
S31508006F50C8C900200000000060A80F0808B5034B48
S31508006F601BB10349034800E000BF08BD000000004C
S31508006F70CCC9002060A80F08A3F5803A704700BF67
S31508006F80174B002B08BF134B9D46FFF7F5FF002153
S31508006F908B460F461348144A121A84F0F1FF0E4B1B
S31508006FA0002B00D098470D4B002B00D098470020A7
S31508006FB0002104000D000D48002802D00C4800E00E
S31508006FC000BF41F071FF2000290011F0BDFD41F01E
S31508006FD057FD00BF00000800000000000000000088
S31508006FE000100020F01900201062022000000000A6
S31508006FF0000000002DE9F041484C8EB0264601AD50
S315080070000FCE0FC5336814342B6006AD0FCC0FC5F1
S3150800701094E80F0085E80F0001213A2002F040F8B5
S315080070200121572002F03CF84FF480733C4EADF82E
S315080070301C303C4B3046039301A906AB059303F07D
S3150800704007F9012304221946022003F017FA022140
S3150800705000230846012203F011FA01230422032122
S31508007060022003F00BFA042201231146022003F042
S3150800707005FA2D4C2D4B1025C4F8C8344FF00213D1
S31508007080C4F8C434A3F58033C4F8CC341C2304F5FF
S315080070900058C4F8B4344FF4487008F0F5F804F50D
S315080070A080571420C8F8A05008F0EEF82320C7F837
S315080070B0A05008F0E9F8B9213046C8F8A0505EF0AB
S315080070C075FB002301211A460220C7F8A05003F0D9
S315080070D0D5F9002302211A46084603F0CFF9012301
S315080070E000220321022003F0C9F90123002204210A
S315080070F0022003F0C3F9304602F0D0FE00215720E3
S31508007100C4F8C814C4F8C414C4F8CC14C4F8B41425
S3150800711001F0C6FF0EB0BDE8F08100BFB0590908FE
S3150800712000000A50E070720000C00350020003001D
S31508007130BFF34F8F0549064BCA6802F4E062134352
S31508007140CB60BFF34F8F00BFFDE700BF00ED00E047
S315080071500400FA054FF000639A6A02F17841B1F526
S31508007160C04F03D21168074A914203D00023037027
S3150800717083607047012202709A6A926842609B6A2D
S315080071809B69F5E707B0CD5E08B54FF00053024A94
S315080071901A60FFF7CDFF00BF02020FF073B54D4B23
S315080071A004461A781AB102221A7002B070BDCDE9E7
S315080071B000220028F9D001261E705EF0A4FA464D7A
S315080071C0464B18605AF0E2FB2B785BB900F0E2FEFA
S315080071D040B943480823434A4349006854F000F934
S315080071E000B92E70414B5A6E22619B6E404A63610C
S315080071F04FF4804393663F4B5968A1613E499960B5
S31508007200196E2160596E6160196CA160596CE16054
S315080072103A49086C1864496C5964012151661B6E19
S315080072209C043FD5364AD368D807FCD4354B1A6830
S31508007230531C3CD04FF480139340334A13660423FF
S31508007240314C23664FF4007323665DF0F5FF013079
S315080072500BD05DF0F1FF40F2011398421FBF4FF4C7
S31508007260005323664FF4804323660823264C68465A
S3150800727023664FF4805323664FF0006323664FF46A
S31508007280002301A963665DF07EFF009B2366019BD0
S3150800729063662B78002B88D0124B1A6822665B68C7
S315080072A0636682E7194AD368D907FCD4BEE7184B48
S315080072B01B78002BC3D14FF400720D4B5A6603F5A9
S315080072C0A6235B68002BBAD14FF480120E4B1A66C0
S315080072D0B5E700BF125A0120105A012008CA00203B
S315080072E01810002000CA0020007108000080005015
S315080072F0009000500080004455CEAC0000C00054F9
S3150800730000000440041000200090004400000450CF
S31508007310115A012070B5204D04462E78012E02D050
S3150800732001232B7070BD0028FCD05DF085FF01306D
S315080073300BD05DF081FF40F20113984205D0174B40
S31508007340174A5E66D368DE07FCD42268154B1A66B0
S3150800735062685A66A2681A64E2685A64A269D00723
S3150800736044BF00229A60104B1A68013207D10F4AAF
S31508007370127822B90E494968C90748BF1A602269B6
S315080073800C4B5A6662699A665AF008FB0A4B1868EB
S315080073905EF0BFF90023C4E7125A012000900040AE
S315080073A0000004400080004404100020115A012007
S315080073B000C005500080005008CA002070B54FF084
S315080073C00064A36A03F17842B2F5C04F21D21A6865
S315080073D0124B9A421DD1124E337813F0FD0F1BD172
S315080073E01048FFF7DBFE01254FF480330E4A0F499C
S315080073F0C2F88051CB6015600D4A1361A36ADB6938
S31508007400984704460748FFF785FF04B935702046B4
S3150800741070BD4FF48174FAE70024F8E707B0CD5E33
S31508007420115A0120E4C9002000E100E000A0004450
S315080074300090004413B51F4B1B7803B9FEE70023E1
S315080074401D4CCDE900336A4608231C49206853F0D1
S31508007450C7FFF0B91A4AD2F84031D2F840211F2B9B
S315080074604FF0010310D9203A9340019A1343019330
S3150800747008236A461149206853F068FF4FF0005305
S31508007480104A1A60FFF754FE9340009A134300937C
S31508007490EEE70D4B9842F1D1094AD2F84031D2F8BD
S315080074A040211F2B4FF0010302D9203A9340DEE713
S315080074B09340ECE7125A01201810002000710800CA
S315080074C0008000440B020FF00BE000F038B54FF0D7
S315080074D00065AB6A044603F17842B2F5C04F12D292
S315080074E01B6B03F17843B3F5C04F0CD20648FFF780
S315080074F055FEAB6A20461B6B5B689847BDE838406B
S315080075000148FFF707BF38BD0CCA002013B54FF076
S3150800751000640190A36A03F17842B2F5C04F15D210
S315080075201B6B03F17843B3F5C04F0FD20948FFF739
S3150800753035FEA36A01211B6B01A89B69984704467F
S315080075400448FFF7E7FE204602B010BD4FF48174E9
S31508007550F9E700BF0CCA002037B54FF00065CDE942
S315080075600021AB6A044603F17840B0F5C04F12D249
S315080075701B6B83B10948FFF711FEDDE90021AB6AF1
S3150800758020461B6B5B6A984704460448FFF7C2FE11
S31508007590204603B030BD4FF40174F9E70CCA002049
S315080075A037B54FF000650191AB6A044603F178429E
S315080075B0B2F5C04F15D21B6B03F17843B3F5C04F34
S315080075C00FD20948FFF7EAFDAB6A20461B6B019903
S315080075D09B6A984704460448FFF79CFE204603B07A
S315080075E030BD4FF40174F9E70CCA002037B54FF0E7
S315080075F00065CDE90021AB6A044603F17840B0F591
S31508007600C04F16D21B6B03F17843B3F5C04F10D2A7
S315080076100948FFF7C3FDDDE90021AB6A20461B6B6D
S315080076209B6B984704460448FFF774FE204603B050
S3150800763030BD40F20114F9E70CCA002037B54FF007
S3150800764000650191AB6A044603F17842B2F5C04F72
S3150800765015D21B6B03F17843B3F5C04F0FD2094817
S31508007660FFF79CFDAB6A20461B6B0199DB6B9847BD
S3150800767004460448FFF74EFE204603B030BD40F2EC
S315080076800114F9E70CCA002008B500F02DF8124BD2
S3150800769012498B4212D30020114B12498B4218D340
S315080076A0FFF76EFC186850F82240586840F82240E8
S315080076B0013298688242F5D30C33EAE70022F8E7EC
S315080076C01C6844F8220001325C68A242F8D30833E9
S315080076D0E4E70022F8E700BF68A80F0874A80F08B7
S315080076E074A80F0874A80F084FF480414FF0FF30B4
S315080076F010B5114B114A9A60D3F8882042F47002EB
S31508007700C3F888200E4A91660E4901F500521066A4
S315080077100D4850660220C3F8D000BFF34F8FBFF361
S315080077206F8F01244FF440330848C0F88041D36076
S3150800773004600B6110BD00BF00ED00E000600008AA
S315080077400090005000800044F7FF370000E100E099
S31508007750014B1868704700BF0C100020014B1860D9
S31508007760704700BF0C100020084B1B6F03F007037F
S31508007770022B04D0032B05D0012B05D0FEE7044BC2
S3150800778018687047034BFBE70348704700800050B2
S315080077900C10002010100020002D310108B5FFF74D
S315080077A0E3FF054B1B6FC3F303330133B0FBF3F061
S315080077B0024B186008BD00BF00800050081000206A
S315080077C00048704700B4C404014B1868704700BFEE
S315080077D010100020054B1860054B1B6F03F00703BC
S315080077E0032B01D1FFF7DABF704700BF1010002046
S315080077F00080005000487047002D31014FF0B44317
S315080078009868C0F304400C2822D8DFE800F0092164
S3150800781021212121071719211B1D1F000F48704719
S315080078209B6803F04073B3F1807F13D0B3F1007FF8
S3150800783012D00B4A002B08BF1046704709487047FC
S31508007840094870470948704709487047094870470A
S31508007850002070470848704708487047405DC600D2
S3150800786000093D000024F400C0EA210180BA8C0119
S315080078700048E801005A620280841E0040420F0058
S31508007880014B1868704700BF1410002010B40A682E
S315080078901378022B11D014203023147913FB040318
S315080078A007481B585079C340DB4303F001031370A4
S315080078B008465DF8044B11F067B95DF8044B70474C
S315080078C030C0035037B50468012105463A2001F057
S315080078D0E7FB002301226179207902F0CFFD14220B
S315080078E03023217913FB01230E4A9B586279D34032
S315080078F0DB4303F001032370A379022B0ED100F0BA
S31508007900CFFA2A460849607900F0F4FA01230246BC
S3150800791061792079CDE9003302F058FD002003B0E3
S3150800792030BD00BF30C003508D7800080268137858
S31508007930022B24D014213023107913FB001310498D
S315080079405B585179CB40917903F00103012912D193
S31508007950508843EA40034FF6E07063F03F039BB25A
S31508007960834202D11170538070474FF6DF718B4204
S31508007970F9D10021F6E711B983F0010313707047B6
S3150800798030C0035010B5012243780178847830203E
S315080079909A40054B00FB01331CB903F501531A60E5
S315080079A010BD03F58253FAE700C0035010B5012253
S315080079B043780178847830209A40054B00FB0133E0
S315080079C01CB903F582531A6010BD03F50153FAE793
S315080079D000C003500122437801789A403023594366
S315080079E0014B5A50704700BF40F003501021302316
S315080079F00246007813FB0013054950785B58C340CC
S31508007A0003F0010093780BB980F00100704700BFBE
S31508007A1030C003502DE9F04F9A46554B85B01B7878
S31508007A2006460F461546DDF83C909DF844B0DDF84D
S31508007A305080002B00F08C80072A00F28B800E9B6A
S31508007A40002B00F08780B9F1000F00F08380129BAD
S31508007A50B3F5006F7EDC012802D1109B002B79D08C
S31508007A60444B03EB05131B7B002B75D0424C1022AD
S31508007A700021684684F084FA04EB45141022002F8E
S31508007A8058D13946204684F07BFA43F210036380C6
S31508007A90BBF1000F03D1E37843F00303E370364AE2
S31508007AA00E9B02EB451CCCE90193129BCDF800A076
S31508007AB0013BC3F30A009DF84C30690103F0030348
S31508007AC09B0643EA001E53582C48012E00EA030081
S31508007AD04EEA0003535041D113230CF1100ECCF893
S31508007AE00C309CE80F008EE80F006FF00301DCF8FD
S31508007AF01C20109B61F39F02012FCCF81C20CCF8A8
S31508007B00143003D1CCF81890CCF804300027194A61
S31508007B10290102EB051342F80180159A28465A6096
S31508007B20694622469F605E7302F046FD384605B0F8
S31508007B30BDE8F08F0021204684F022FA4FF4447302
S31508007B406380BBF1000FAAD1E37843F03003A5E7C1
S31508007B500B48ECE70B48EAE70B48E8E7B8F1000FF3
S31508007B60D4D19CF8023068F304138CF80230CDE7C0
S31508007B70135A012028CA0020A8CA00200F80FFF344
S31508007B80028000F0018000F0078000F038B5124B43
S31508007B9005461B78DBB1E0B15DF0B5FD0F4A002361
S31508007BA01146147B54B92B6001251A0101EB031306
S31508007BB01D738C505DF0ADFD204638BD0133082B92
S31508007BC002F11002EDD15DF0A4FD0548F5E7054880
S31508007BD0F3E70548F1E700BF135A012028CA002039
S31508007BE0048000F0028000F0018000F013B55DF01B
S31508007BF08AFD00230B4A147B7CB90133082B02F15A
S31508007C001002F8D1019002F079FC074B01981C701C
S31508007C105DF07FFD204602B010BD5DF07AFD034899
S31508007C20F9E700BF28CA0020135A0120058000F092
S31508007C3010B50D4B04461B7893B1072812D85DF092
S31508007C4062FD0A4B03EB04131A7B2AB100241C734A
S31508007C505DF05FFD204610BD5DF05BFD0448FAE768
S31508007C600448F8E70448F6E7135A012028CA002012
S31508007C70068000F0028000F0018000F0154B13B575
S31508007C801868002301908DF804305DF03CFD124B16
S31508007C901C7824B15DF03DFD104802B010BD0122EC
S31508007CA01A705DF036FD0E4B01A81C731C7783F81D
S31508007CB02C4083F83C4083F84C4083F85C4083F8BA
S31508007CC06C4083F87C4008238DF8073002F042FCAC
S31508007CD02046E2E7345A0908135A0120038000F0C7
S31508007CE028CA002008B50A4A12785AB107280BD8BC
S31508007CF0084A02EB00131B7B43B1002102F01CFC6F
S31508007D00002008BD0448FCE70448FAE70448F8E7F9
S31508007D10135A012028CA0020028000F0018000F0D2
S31508007D20078000F008B50A4A12785AB107280BD816
S31508007D30084A02EB00131B7B43B1012102F0FCFB4E
S31508007D40002008BD0448FCE70448FAE70448F8E7B9
S31508007D50135A012028CA0020028000F0018000F092
S31508007D60078000F008B50A4A127852B107280AD8DF
S31508007D70084A02EB00131B7B3BB102F065FC0020AE
S31508007D8008BD0548FCE70548FAE70548F8E700BFD7
S31508007D90135A012028CA0020028000F0018000F052
S31508007DA0078000F00D4B1B7893B1072812D889B1CC
S31508007DB00B4B03EB00131B7B73B10A4BDA6A0123E7
S31508007DC003FA00F010401ABF00200B7008707047C5
S31508007DD0054870470548704705487047135A0120FB
S31508007DE028CA002000000450028000F0018000F03C
S31508007DF0078000F02DE9F843174B1F6D5B6D1F4098
S31508007E0000D5FEE701260025144CDFF85480DFF87C
S31508007E105490374217D0C8F8506023689BB1A168C0
S31508007E20284601316268A1609847637B012B0AD115
S31508007E3048B909EB45131A7B60F341021A731A7F96
S31508007E4060F341021A770135082D4FEA460604F118
S31508007E501004DED1BDE8F8830000045028CA0020CB
S31508007E6000200450A8CA002070B5044601250B4E10
S31508007E7004B970BD94FAA4F0B0FA80F005FA00F3DC
S31508007E8006EB001224EA03045368002BF0D0117B9A
S31508007E9011B191689847EBE79847E9E7A8CB002026
S31508007EA008B5192001F058FE28B14FF00072074BAB
S31508007EB0C3F880211A601A2001F04EFE28B14FF04F
S31508007EC08062024BC3F880211A6008BD00E100E019
S31508007ED038B505460C465DF016FC0022044B03EB4C
S31508007EE005135C601A73BDE838405DF012BC00BF2C
S31508007EF0A8CB0020F8B505460F4616465DF003FCEC
S31508007F00104B05F0FC02D3F824140023EC1804F0F7
S31508007F100304144321FA04FC1CF0010F07D00133B3
S31508007F20042BF3D1FF245DF0F4FB2046F8BDFF2CAB
S31508007F30F9D00122044B03EB0413C3E901761A7343
S31508007F40F1E700BF00C00350A8CB0020074BD3F8C9
S31508007F502404D3F8202403F50053104000F05530CC
S31508007F6020F05020C3F82004FFF77EBF00C003505E
S31508007F70074BD3F82404D3F8202403F50053104004
S31508007F8000F0AA3020F0A020C3F82004FFF76CBF49
S31508007F9000C00350024B1968024B186853F000B929
S31508007FA01C1000201810002037B5920004460D4614
S31508007FB001928DF0F5FC431C0BD060B9294620468A
S31508007FC0019A83F0A6FF0028044808BF002003B0E2
S31508007FD030BD0348FBE70348F9E700BF10E000F0AF
S31508007FE021E000F024E000F013B5044601A802F0F1
S31508007FF0C5FB9DF80630012223804FF480730020CC
S315080080006380054B9B680A3303F01F0302FA03F3E8
S31508008010636002B010BD00BF0080E00F10B50446D3
S315080080208DF0B6FC431C15D0B0B90C4B20469B68A6
S315080080300A3303F01F020123934023F0030323446A
S31508008040984201D1002010BD50F8042B0132F7D018
S315080080500348F8E70348F6E70348F4E70080E00F2B
S315080080600EE000F021E000F024E000F008B55DF035
S3150800807043FB014B186008BDE8D30020014B186884
S315080080805DF03EBBE8D3002001292DE9F84327D847
S31508008090254B264E1C68264FDFF8A080803C14F13D
S315080080A0800F01D1BDE8F883D4F800900521484631
S315080080B05DF072FB1F4B994510D01F4B99450CBFBD
S315080080C03D4645465DF018FB2B6843F018032B60C8
S315080080D05DF016FBD4F88040803CE0E73546F1E7D2
S315080080E002390129DED8104B104E1C68104FDFF8F4
S315080080F04C80803C14F1800FD4D023680D4A9342FB
S3150800810010D00D4A93420CBF3D4645465DF0F4FA41
S315080081102B6823F018032B605DF0F2FAD4F8804040
S31508008120803CE7E73546F1E79CD4002094C4035029
S31508008130B4C403500000015B00000A5074C4035025
S315080081402DE9F041864A0B688EB0934205460C46E7
S315080081500DF1180803D0834A934240F0EB80474656
S31508008160814ECDF814800FCE0FC796E80F00103653
S3150800817087E80F000FCE01AF0FC7002D00F0D8809B
S3150800818084220021284683F0FBFE2368744A934222
S3150800819040F0938056232B654FF470230027DFF8B1
S315080081A0FCC1C5E90BC32368A4462B6001232E1D19
S315080081B085F85C30BCE80F000FC69CE80F0086E81F
S315080081C00F00637E012B08BF8DF81D30A37E2BB1EF
S315080081D0012B40F08F8004238DF81230227EE3684D
S315080081E0012A40F08E80614A93429CBF05238DF890
S315080081F0353000238DF811305D4B01213A20039369
S3150800820000F04EFF0121286D00F04AFF2369DA1FAE
S31508008210092A55D8063B8DF81030237E2BB9E37E04
S31508008220B3FA83F35B098DF81C30012128465DF00B
S315080082304FF90646002844D1227A237943EA0243B5
S315080082407A0102F1A04101F57031C1F8AC34637AC4
S31508008250607940EA0340C1F8A404A67AA07940EA06
S315080082600640C1F8A804E37E002B4ED1E07AE379F4
S3150800827043EA0043C1F89834E37E002B45D11D2319
S31508008280C1F89434206801A901F0E2FF5DF03BFAD9
S31508008290384B1A78002A40D101221A705DF039FA53
S315080082A006F0F2FDFFF7EAFC002105F12400FFF7CE
S315080082B06DFC0146A0B3304E03E02A4A934210D023
S315080082C02E4E2F4B1B681BB92E492F4806F0BEFCB5
S315080082D02B4805F180015DF048F830460EB0BDE840
S315080082E0F08157232B654FF48013284E0127C5E9E3
S315080082F00B6358E7022B3FF46FAF032BE0D106233D
S315080083006AE700228DF8342077E702F1A0431C22A1
S3150800831003F57033C3F89424B4E75DF0FAF9C1E7BE
S3150800832005F12800FFF732FC06460028C9D0C2E747
S31508008330174EC6E74646174F0FCF0FC697E80700F2
S3150800834086E80700002D00F0DC80842200212846FC
S3150800835083F016FE2268104B9A4221D0074EBCE7DE
S315080083600000015B00000A505C5A09083F4B4C00AC
S3150800837040420F00145A0120092000F0022000F0A4
S315080083809CD400203C100020A0D40020010010003E
S31508008390012000F0905A090800C0055001000F009E
S315080083A029232B654FF480232E4627465649C5E9CF
S315080083B00B13236846F8043B0FCF0FC697E80F0048
S315080083C086E80F00637E012B08BF8DF82630A37E52
S315080083D02BB1012B68D14FF40073ADF82830237EFA
S315080083E00121012B03BF00238DF825304FF4E1331B
S315080083F0E3683A20089300F053FE0121286D00F047
S315080084004FFE23691A1F0C2AA8D8033B4146206849
S315080084108DF8243002F0FAF9A36923F47F0323F4D4
S315080084207F4323B92A68936843F480339360E27ED6
S31508008430364B002A43D11D22C3F82027217A2279F8
S3150800844042EA0142C3F83827617A627942EA014270
S31508008450C3F83027A17AA27942EA0142C3F8342741
S31508008460E17AE27942EA0142C3F824270121284643
S315080084705DF02EF8064600287FF42FAF5DF043F92D
S31508008480234B1A788ABB01221A705DF042F906F06E
S31508008490FBFCFFF7F3FB002105F12400FFF776FB51
S315080084A0014628B31B4E18E7022B02D14FF48073FE
S315080084B093E7032B7FF452AF4FF440738DE71C22EA
S315080084C0C3F82027217A227942EA0142C3F83827DD
S315080084D0617A627942EA0142C3F83027A17AA27921
S315080084E042EA0142C3F83427C0E75DF012F9D0E743
S315080084F005F12800FFF74AFB064600283FF4EDAED3
S31508008500D0E7054EE9E600BF0200040000C00350AC
S31508008510145A0120092000F0012000F038B141B1B9
S31508008520013AB2F5006F044838BF00207047034887
S3150800853070470148704700BF037000F0027000F0F2
S3150800854090F83530022B0DD114223023417F90F854
S31508008550210013FB0123044A9B5823FA00F000F07C
S31508008560010070470020704730C00350002313B540
S315080085701D4A52F8044B94F8211081420ED001335B
S31508008580042BF6D102B010BD0028FBD19DF80730A8
S31508008590002BF7D0A068FFF7A5FBF3E794F8353072
S315080085A0022BEFD12046FFF7CBFF637E2076022B06
S315080085B0E8D194F8323003F0FF02002BE2D1A0682C
S315080085C00DF107018DF80720FFF7ECFB237E1BB1A1
S315080085D094F83330002BD7D00023A06884F83330C2
S315080085E0FFF7A0FBCEE700BFA8D4002030B510499E
S315080085F0104A0B782BB9C2E90033C2E902330123CA
S315080086000B700C4C0023214651F8045B854208D0B8
S315080086100133042BF8D1002154F8043B1BB942F866
S315080086202100002003E001310429F5D1024830BDBC
S31508008630155A0120A8D40020027000F010B504468F
S31508008640FFF71CFB002104F10800FFF79FFA01461B
S3150800865020B904F10C00FFF799FA00B1004810BDE3
S315080086600E7000F010B590F8363004466BB9042247
S3150800867003685A61026893699907FCD523790C4AFD
S31508008680B9335B011021995010BD022BFCD100684B
S31508008690836CDB074CBF052106215DF07DF8237945
S315080086A041F294425B0103F1A04303F57033E9E715
S315080086B000C00350F8B507460D461646FFF72EFFCD
S315080086C000286BD1152001F055FA0446FA6A9388FA
S315080086D09BB213B197F83230E3B197F83630F3B955
S315080086E03B689C6904F002041CB93846FFF7BAFFD8
S315080086F00024012387F8343097F83630CBB92E4456
S31508008700B542386810D183699A06FCD51CB3002493
S315080087102046F8BD002CDAD0FFF76CFBD6E7022B13
S31508008720E3D13B689C6CDDE715F8011B5DF0D0F8DA
S31508008730E6E7022BEAD12E44B542386806D142F262
S315080087402003826C33EA0202FBD1DFE715F8011B2E
S315080087505DF027F8F0E797F8363053B910213B79E2
S315080087600F4A03F239135B01D15008223B685A615C
S31508008770CEE7022BCCD13868836CDB074CBF0921C6
S3150800878021465DF009F842F2944210213B795B01DB
S3150800879003F1A04303F570339950B9E70446B7E7E8
S315080087A000C0035010B5044680B190F832302BB99A
S315080087B0FFF7C6FE10B9A068FFF794FA002094F8F0
S315080087C032300133DBB284F8323010BD0048FCE7A2
S315080087D0027000F010B50446A0B190F832309BB193
S315080087E090F83230012B05D1FFF7AAFE10B9A06820
S315080087F0FFF798FA002094F83230013BDBB284F890
S31508008800323010BD0148FCE70148FAE7027000F073
S31508008810057000F037B590F835500446022D1DD185
S31508008820012290F82230457E817F9A403020164BEF
S3150800883025B900FB013303F5015305E0012D07D1E6
S3150800884000FB013303F582531A60002003B030BDE4
S31508008850247E00FB0133002CF4D1ECE7012DF4D182
S31508008860037E73B911238DF80730FFF79BFF2A465D
S3150800887020460DF10701FFF71DFF2046FFF7AAFF67
S31508008880E3E71323EFE700BF00C003502DE9F041EB
S3150800889004468CB0884F04AE0D460FCF0FC697E836
S315080088A00F0086E80F0010220021684683F068FB57
S315080088B0002C00F0FE8025B9804E30460CB0BDE88D
S315080088C0F08160220021204683F05AFB2B6820465F
S315080088D02360022384F836302B7C2371FFF786FE4B
S315080088E006460028E9D12B7F754A84F835302B686F
S315080088F0934240F0B88056236362724B23614FF46B
S31508008900702363610123ADF80630002384F83160D3
S3150800891084F83060D5E90912A1620B80A16A3A2071
S315080089204B80A16A684E8B8084F83030E2621380EF
S31508008930E26A01215380E26A938084F8313084F830
S31508008940333002238DF81D30AB6806936B8AADF879
S315080089502030AB8AADF81E30AB7D8DF81C30AB6984
S315080089600993CDF82CD000F09BFB0121606A00F03A
S3150800897097FB2B79002B00F081800121362000F02F
S315080089808FFBD6F8203223F0070343F003031022A7
S31508008990C6F820322B7C4D4F204607EB4313C3F80D
S315080089A09424A97B2B7C2A7B07EB431342EA0142DA
S315080089B0C3F8AC242B7CE97B6A7B253342EA014267
S315080089C007EB43135A602B7B0121E376AB7BE377F6
S315080089D06B7B2377EB7B84F820306B7F6377AB7FE9
S315080089E084F82130EB7FA37795F8203084F822307D
S315080089F05CF0D9FD064600287FF45FAF5CF083FE85
S31508008A002A7F8046032A40D141F2944102202B7CDA
S31508008A1007EB431358502B7C95F82000E97F07EBAA
S31508008A20431341EA004103F5A5531960297CA87F41
S31508008A3007EB411741F29C416B7F43EA00437B50A9
S31508008A408DF8002006238DF810302B79286804A9A4
S31508008A5063B35CF0B9FE2046FFF7F0FD06464046D4
S31508008A605CF057FE29E71A4A93427FF425AF57234D
S31508008A706362184B23614FF4801342E7D6F820321D
S31508008A8023F0070343F0010381E7022ADAD194F8B9
S31508008A9021001149FFF71CFAFFF702FA4FF4007399
S31508008AA020462383A676FFF7B5FECBE75CF088FE63
S31508008AB0D1E70A4E01E700BFC85A0908037000F05B
S31508008AC00000015B01000F000080005000C0035049
S31508008AD000000A50010010006D850008027000F0C1
S31508008AE0044BD3F88420D206FBD4D3F88400C0F311
S31508008AF081107047004000502E4B98424AD022D829
S31508008B002D4B984240D014D82C4B984239D00AD8CD
S31508008B102B4B984232D02B4B98422FD02A4B984257
S31508008B202CD000207047294B9842FAD1284B186F51
S31508008B307047284B98422AD0274B9842F1D1244BAC
S31508008B40D3F880007047254B98422BD009D8244B80
S31508008B50984223D0234B9842E3D11D4BD3F88C007F
S31508008B607047214B984221D003F5740303F510533F
S31508008B709842D6D1164BD3F898007047144B986D87
S31508008B807047134B586E7047114B586F7047104B10
S31508008B90986F70470E4BD3F8840070470C4BD3F888
S31508008BA0880070470A4BD3F890007047084BD3F8F3
S31508008BB0940070470048E8010024F400C0CF6A001A
S31508008BC080841E0000093D0040420F00405DC6003B
S31508008BD00080E00FC0EA210180BA8C01007E5603AE
S31508008BE080D54302006CDC020090D00338B5104BE8
S31508008BF00546D3F880300C4603F00303022B0BD04E
S31508008C00032B0DD0012B0FD1FEF7AEFD0E2305B1B8
S31508008C10286004B1236038BDFEF7F0FD0723F6E7A8
S31508008C20FEF796FD0623F2E700231846EFE700BF96
S31508008C300080005038B5174B0546D3F820310C464E
S31508008C4003F00703013B052B20D8DFE803F0030BED
S31508008C50130F171BFEF77CFD052305B1286004B129
S31508008C60236038BDFEF7B0FD0323F6E7FEF7C6FD21
S31508008C700723F2E7FEF7BEFD0223EEE7FEF768FDDF
S31508008C800623EAE7FEF7A0FD0423E6E700231846D5
S31508008C90E3E700BF0080005038B5174B0546D3F808
S31508008CA028310C4603F00703013B052B20D8DFE8E3
S31508008CB003F003131B0F0B17FEF74AFD052305B137
S31508008CC0286004B1236038BDFEF742FD0623F6E7A7
S31508008CD0FEF794FD0723F2E7FEF776FD0323EEE79A
S31508008CE0FEF772FD0423EAE7FEF784FD0223E6E7B2
S31508008CF000231846E3E700BF0080005073B50D4611
S31508008D000021114B0191D3F88041064604F0030473
S31508008D10022C13D0032C0CD0012C13D101A8FFF779
S31508008D2089FF10240EB1019B336005B12C6002B097
S31508008D3070BDFEF763FD07240190F3E7FEF75AFDC1
S31508008D400190EFE70C46EDE700800050002337B5A9
S31508008D500193154B0546D3F820320C4603F007035A
S31508008D60013B032B1ED8DFE803F0020E131800217F
S31508008D7001A8FFF791FF12230DB1019A2A6004B1E9
S31508008D80236003B030BDFEF739FD07230190F3E7F2
S31508008D905CF0F2FA0A230190EEE7FEF771FD09236B
S31508008DA00190E9E70023E7E70080005038B5104B4B
S31508008DB00546D3F840310C4603F00303022B0BD0CB
S31508008DC0032B0DD0012B0FD15CF0D6FA0A2305B17F
S31508008DD0286004B1236038BDFEF752FD0923F6E783
S31508008DE05CF0CDFA0C23F2E700231846EFE700BF44
S31508008DF000800050002337B50193164B0546D3F87B
S31508008E0060320C4603F00703013B032B1FD8DFE84B
S31508008E1003F0020E1914002101A8FFF70BFF102317
S31508008E200DB1019A2A6004B1236003B030BD002158
S31508008E3001A8FFF7BBFF1123F2E7FEF7DFFC0723C4
S31508008E400190EDE7FEF7D6FC02230190E8E7002340
S31508008E50E6E700BF00800050002337B50193164BA4
S31508008E600546D3F894320C4603F00703013B032B5F
S31508008E701FD8DFE803F0020E1914002101A8FFF736
S31508008E80D9FE10230DB1019A2A6004B1236003B0FC
S31508008E9030BD002101A8FFF789FF1123F2E7FEF78D
S31508008EA0ADFC07230190EDE7FEF7A4FC0223019031
S31508008EB0E8E70023E6E700BF0080005038B5134B0B
S31508008EC00546D3F800320C4603F00703013B032B93
S31508008ED018D8DFE803F0020A0E125CF04DFA0A23EE
S31508008EE005B1286004B1236038BDFEF7C9FC092323
S31508008EF0F6E75CF044FA0C23F2E7FEF74FFC0F2383
S31508008F00800AEDE700231846EAE700BF0080005014
S31508008F1038B5134B0546D3F808320C4603F0070359
S31508008F20013B032B18D8DFE803F0020A0E125CF0A7
S31508008F3023FA0A2305B1286004B1236038BDFEF779
S31508008F409FFC0923F6E75CF01AFA0C23F2E7FEF712
S31508008F5025FC0F23800AEDE700231846EAE700BF41
S31508008F600080005038B5104B0546D3F840320C4601
S31508008F7003F00303022B0BD0032B0DD0012B0FD1CB
S31508008F805CF0FAF90A2305B1286004B1236038BDFC
S31508008F90FEF776FC0923F6E75CF0F1F90C23F2E715
S31508008FA000231846EFE700BF0080005038B5104B85
S31508008FB00546D3F860310C4603F00303022B0BD0A9
S31508008FC0032B0DD0012B0FD15CF0D6F90A2305B17E
S31508008FD0286004B1236038BDFEF752FC0923F6E782
S31508008FE05CF0CDF90C23F2E700231846EFE700BF43
S31508008FF000800050B0F5207F1FD009D8B0F5007F5B
S3150800900015D003D868B1B0F5C07F0AD000200CE0AF
S31508009010B0F5607FFAD10B4BD3F88000C0F301108E
S3150800902003E0084B186FC0F3033001307047054B57
S31508009030D3F89000C0F30460F7E7024B186FC0F34B
S315080090408020F2E70080005002464FF48030104B33
S3150800905010B598660020FFF7CDFF504341F67132F0
S315080090600C4BDC69DA635A6804F4803422F4401243
S3150800907059B9094988428CBF4FF480100020104323
S3150800908058600CB10022DA6310BD0449F2E700BF4C
S315080090900090005000000350005A6202002D310172
S315080090A0430905D0012B0DD0022B094B18BF00230D
S315080090B000F01F0041B103F58053012202FA00F0C7
S315080090C018607047034BF3E703F50053F5E700BF55
S315080090D068800050648000501FB50021802804462F
S315080090E0CDE9001100F0A58035D85E2846D85E285F
S315080090F044D8DFE800F0A243434343434343434392
S315080091004343434343434343434343434343434321
S31508009110434343434343A2AAA2AAB9B9B9B9B9AAD0
S31508009120C34DD9714DAAAAAA434343434343434374
S31508009130AAAAAA79E3AA434343434343434343437F
S31508009140434343B9A2A2A2DE4D4DE8885EBE43431F
S3150800915043434399A200B0F5B06F00F08F802DD835
S31508009160B0F5207F71D00CD8B0F5C07F65D0B0F5CA
S31508009170007F65D0B0F5807F00F08580009804B048
S3150800918010BDB0F5607F6AD00DD8B0F5407FF5D137
S31508009190FEF704FB02464FF42070FFF72BFFB2FBE5
S315080091A0F0F0400847E0B0F5806F5DD0B0F5A06FED
S315080091B0E4D100216846FFF7C9FDDFE7B0F5106F77
S315080091C077D016D8B0F5E06F78D00AD8B0F5C06F6A
S315080091D06AD0B0F5D06FD1D100216846FFF76EFE90
S315080091E0CCE7B0F5F06FC9D100216846FFF7DEFE7F
S315080091F0C4E7B0F5406F3CD013D8B0F5206F62D005
S31508009200B0F5286FBAD10021314B0391D3F87032EB
S3150800921003F00303012B02D103A8FFF7C7FD039B45
S315080092203BE0B0F5486FA9D100216846FFF714FE68
S31508009230A4E7FEF799FA0090A0E7FEF7AFFAFAE777
S31508009240FEF792FA0246204604E0FEF7A7FA02461F
S315080092504FF42070FFF7CEFEB2FBF0F0EBE701A863
S31508009260FFF7C4FC019AEEE700216846FFF7E2FC27
S3150800927084E700216846FFF70FFD7FE7002168466F
S31508009280FFF73CFD7AE74FF0E02302911B695B0785
S3150800929005D5FEF783FA0290029B00936EE703A9B1
S315080092A002A8FFF783FDF7E700216846FFF77EFD72
S315080092B064E700216846FFF72BFE5FE70021684652
S315080092C0FFF750FE5AE700216846FFF793FD55E77A
S315080092D00080005008B58020FFF7FEFE034B984239
S315080092E09EBF4FF48032024B1A6708BD005A6202CD
S315080092F000A000501FB50023B0F5807F019300F051
S31508009300C38064D85D2855D84C2807D82D2847D857
S3150800931023282BD8019805B05DF804FB4D38102892
S31508009320F8D801A353F820F07F9400081593000895
S315080093301593000815930008319400081593000842
S3150800934015930008059500084F940008F593000842
S31508009350FB94000815930008159300081593000858
S3150800936015930008159300080F9500082438092856
S31508009370D0D801A353F820F07F9400087F94000802
S315080093807F9400087F9400087F94000815930008CE
S31508009390759400081593000811940008B594000800
S315080093A03D2800F082803E28B4D1002001A9FFF7AD
S315080093B0D9FDAFE78028ADD15A4B1B6F03F00703E1
S315080093C0013B032BA6D8DFE803F05350878FB0F58F
S315080093D0F06F6AD021D8B0F5B06F4BD00FD8B0F582
S315080093E0607F00F0858095D3B0F5806F47D0B0F5E3
S315080093F0A06F8FD1002001A9FFF7A8FC8AE7B0F576
S31508009400D06F57D0B0F5E06FCFD0B0F5C06F81D12F
S31508009410002001A9FFF7CAFC7CE7B0F5206F71D0E0
S315080094200BD8B0F5086F4AD0B0F5106F7FF472AF5D
S31508009430002001A9FFF76CFD6CE7B0F5406F5CD022
S31508009440B0F5486F63D0B0F5286F7FF463AF00219D
S31508009450344B0391D3F8703203F00303012B5BD02E
S31508009460022B14BF0B46152300E00523019351E791
S315080094700223FBE7002001A9FFF740FC4AE700208A
S3150800948001A9FFF7D7FB45E702934FF0E0231B69D5
S315080094905B0705D5FEF782F90D230393039BE5E7E2
S315080094A003A902A8FFF782FCF8E7002001A9FFF745
S315080094B07DFD2FE7002001A9FFF700FD2AE7194BDC
S315080094C0D3F8003103F00303022B07D0032B09D08E
S315080094D0012B0BD1FEF778F90323C7E7FEF7D0F97E
S315080094E00923C3E75BF046FF0823BFE70123BDE76F
S315080094F0184601A9FFF77AFB0CE7002001A9FFF738
S31508009500CBFB07E7002001A9FFF774FC02E7002060
S3150800951001A9FFF7A1FCFDE603A8FFF747FC112305
S31508009520A4E700BF0080005008B5FFF7E3FE09284E
S3150800953011D00A38012811D84FF48002094B4FF68A
S31508009540FF705A6603F5D8335B6A13F0010F18BF2C
S315080095504FF4FA7008BD044B1888FBE74FF6FF7006
S31508009560F8E700BF00900050F814002038B504460C
S315080095708020FFF7BFFE032800F083804FF4801297
S31508009580504B4FF0A0615A6645F60E034E4AC2F894
S3150800959080304E4B99624FF4803103F580539962BF
S315080095A0916D11F48031FBD1D4E900031B0543EA20
S315080095B00063E07B0343207B43EA0043607B43EA86
S315080095C00033A07B43EA801313619069D4E90453FE
S315080095D01B0643EA856300F000400343A07E03436D
S315080095E0207E43EA0043607E43EA00239361136AC0
S315080095F0E269E57E002A0CBF0020082023F00F034D
S31508009600134343EA8503304A03431362E369304D43
S31508009610002B37D194F82430916A94F82000DB00A7
S315080096200D4043EA401394F821102B4343EA0113F3
S3150800963043F480339362274B916D33EA0101FBD1E2
S315080096404FF08071214881621369A56823F470037D
S3150800965043EA055313614FF00043836194F82230BF
S315080096600BB91D4B996294F823301BB94FF480321D
S31508009670194B9A6294F825301BB1134B174AC3F855
S31508009680802038BD022B08D11161154891614FF42D
S3150800969008524FF47F415BF0F6FF0B4994F82230ED
S315080096A08A6A94F820001B06154043EA401394F88A
S315080096B024202B4343EAC20394F8232043EA0243B7
S315080096C08B62D7E7009000500040005A0050005ABD
S315080096D0C7FFFEFE030001000060005AF1A7FFFF66
S315080096E03440005A4FF4803110B50E4B0E4A9C6A2E
S315080096F09162996D8907FCD54FF0807191620B4A8A
S31508009700996992F9002021F47F010244000280B28F
S3150800971021F47F41084382F3080240EA0240986137
S315080097209C6210BD0040005A0050005A581700208D
S31508009730014B93F900007047581700204FF40001B9
S315080097401B4A437810B551664FF4D151022402F5ED
S31508009750B832516217494F2B4C604FF0010428BFAD
S315080097604F2301F580514C601169C903FCD4017877
S3150800977043EA01235361D0E901131B0143EA01239C
S31508009780417B0B43017B43EA41039360C37B817BA7
S315080097901B0143EA4113417C0B43017C43EA410325
S315080097A05360837C13B16FF4D153536210BD00BF6D
S315080097B00090005000100250014B1880704700BFFF
S315080097C0F81400204FF4800208B5184B5A66022395
S315080097D0174A5360936813F48033FBD1012822D1CA
S315080097E0FDF7F2FF134B984215D003F5122303F544
S315080097F0F863984213D0104B00EB8002400AB3FB83
S31508009800F0F0520A0A4BDA62012218635A62002201
S31508009810074B5A6008BD45F67A10084AF2E745F63E
S315080098201A00074AEEE75362F1E700BF00900050BE
S315080098300040025000F0490264666666D8B8050022
S31508009840BBCF0500B0F5207F10B50C4657D008D819
S31508009850B0F5007F48D003D830B3B0F5C07F23D029
S3150800986010BDB0F5607FFBD129492A48D1F8FC2004
S3150800987012F080721EBFD1F8FC3023F08073C1F855
S31508009880FC30D0F88030611E23F0300444EA01141D
S31508009890C0F88040002AE3D01D4AD2F8FC3043F0D5
S315080098A08073C2F8FC30DBE75BF0FEFE5BF00AFF74
S315080098B04FF48031184B174A1967136F611E23F44A
S315080098C0704444EA01341467FDF768FF0446FFF75D
S315080098D007F9C0F1020120465BF0EEFE00F02EF813
S315080098E0BDE81040FFF7F6BC0A4A0139D2F89030B5
S315080098F023F0F85444EA0164C2F89040B0E7054BF7
S31508009900013C196F21F4806141EA84241C67A7E7AA
S3150800991000ED00E0008000500090005008B50121DD
S31508009920022000F08FF95BF0BFFE5BF0CBFE4FF430
S315080099308032014B1A6708BD0090005008B54FF4F5
S31508009940C070FFF7C9FBBDE80840044988428CBFD0
S31508009950022101214FF42070FFF774BF80F0FA024C
S315080099604FF4C02201212DE9F04105466A4B5A669B
S315080099706A4A03F598335C6851605E6816F0020619
S31508009980FBD1FFF7ADF80128286805D1644B98424A
S3150800999002D90020BDE8F081624A00231146176803
S315080099A0B84202D35768B84205D90133192B02F1D8
S315080099B01002F4D1002301EB0313D3E9028028B186
S315080099C0FFF79AF800F07F0048EA00088020FFF7C2
S315080099D091FC05285FD15BF067FE5BF073FE4FF4E0
S315080099E080324D4B4FF4C0701A67FFF703FB01280E
S315080099F006464CD102214FF4C070FFF723FF01271A
S31508009A004948C16811F00601FBD1D0F808C0C0F872
S31508009A100880836808F4F81203F4F8139A424ED1C2
S31508009A20AA88EB8843EA0243404AD360AB68032B13
S31508009A3033D1A2F5A032D2F8003123F0030343F064
S31508009A400103C2F800312B7D287B002B6B7D14BFE8
S31508009A5004220022002B18BF40212B694FF0000872
S31508009A6043EA40031343314A0B4393602868FDF7E2
S31508009A7075FE0722294B1A610122A3F580535A6005
S31508009A80A3F580531C6914F00704FBD01EE00228D6
S31508009A9001D10421AFE70027B2E7092B07D1244AF1
S31508009AA0D2F8003123F0030343F00203C9E7082B79
S31508009AB0C9D11F4AD2F8003143F00303C1E714F0B5
S31508009AC001044FF00108C0F808C0D2D18020FFF782
S31508009AD011FC052817D127B131464FF4C070FFF79E
S31508009AE0B1FEFDF75BFE0546FDF732FEFDF730FEDB
S31508009AF0FEF7F6FFC0F1020128465BF0DDFDFFF731
S31508009B001DFFFFF7E7FBB8F1000F7FF442AF631EB6
S31508009B10584258413EE700BF0090005000E001500F
S31508009B20005A6202E85A09080000015000C00150B4
S31508009B30008000500028ABBF00F16040054B00F5DF
S31508009B40614000F00F00ACBF90F80003185C0009F4
S31508009B50704700BF14ED00E0054B420953F8223068
S31508009B6000F01F0023FA00F0C04300F00100704720
S31508009B7000E100E0014608B5EFF31083DB0702D5E4
S31508009B800122104608BDFFF7E7FF02460028F7D175
S31508009B900846FFF7CFFF0146EFF3118313B1B0EB89
S31508009BA0131FEDD2074B5B68C3F30803002BE8D0FD
S31508009BB0103B58B2FFF7BEFF88428CBF0022012235
S31508009BC0DFE700BF00ED00E0024A536B0342FCD119
S31508009BD0704700BF0040095010B50A4A0446136989
S31508009BE043F0040313615BF097FD5BF096FD30BF0D
S31508009BF05BF095FD5BF092FD1CB9BDE81040FDF7E2
S31508009C00CDBD10BD00ED00E010B5084A0446136945
S31508009C1043F0040313615BF07FFD30BF5BF07EFD0C
S31508009C201CB9BDE81040FDF7B9BD10BD00ED00E058
S31508009C30034A0179D36E23F030030B43D36670478A
S31508009C4000400050F8B504461C4BD3F88420D106D2
S31508009C50FBD4D3F88430C3F381139C422CD0FDF790
S31508009C6083FD012C064602D121465BF025FD5BF0FB
S31508009C7043FD4FF00072124B07465A6620465BF0CA
S31508009C804FFD4FF480630D4D621E93402B676B6E3C
S31508009C909A0103D4D5F884309B060AD538465BF07A
S31508009CA02FFD022C08D13046BDE8F84000215BF0B4
S31508009CB003BDD5F88430EAE7F8BD00BF0040005080
S31508009CC00060005007B518B90191FDF74DFD0199DF
S31508009CD0064B1B7843B1064B984205D8012003B0C2
S31508009CE05DF804EBFFF7AEBF0220F8E7165A01202D
S31508009CF0005A62020278034B012100201A70FFF70E
S31508009D00E1BF00BF165A01204FF00042154B10B5AF
S31508009D105A664AF6CD3314494C6C0B6404F00104B8
S31508009D2088B90120FFF750FF4B68DB0704D50F4BB6
S31508009D3058600B6BD807FCD514B10B4B0C4A1A6448
S31508009D408BF0DAF910BD0B6B1A07FCD42022074BEF
S31508009D509A620122A3F580535A60034A936A9B06C6
S31508009D60FCD5E9E700900050004009500060095012
S31508009D703254FFFF4FF0004238B5164B01465A667B
S31508009D804AF6CD33144C154A656C236443780B2088
S31508009D905B0043F00103D363FFF716FF63688A7815
S31508009DA023F4F87343EA02136360CA784B7943EAEB
S31508009DB00223A3600A798B7943EA02232361087890
S31508009DC0FFF7A2FFEB0744BF054B23648BF094F91A
S31508009DD0012038BD00900050004009500040005056
S31508009DE03254FFFF4FF0004270B5124B04465D6EC9
S31508009DF003F580535A664AF6CD330F4980204E6CD8
S31508009E000B64FFF7E1FE0B6A23F00F030F2C94BFD8
S31508009E10234343F00F030B62F30744BF074B0B645E
S31508009E20002DA2BF4FF00042054B5A668BF064F92D
S31508009E3070BD00BF00800050004009503254FFFF3B
S31508009E4000A000504FF0004270B5104B04465D6EFE
S31508009E5003F580535A664AF6CD330D4980204E6C79
S31508009E600B64FFF7B1FE0B6A23F4F85343EA0423A5
S31508009E700B62F30744BF074B0B64002DA2BF4FF0DC
S31508009E800042054B5A668BF037F970BD00800050CA
S31508009E90004009503254FFFF00A0005010B55BF097
S31508009EA044FC042300F5805100F500520B61136150
S31508009EB00B6113610B6113610B611361202341F27E
S31508009EC0020103610023C360836041614FF4A0214E
S31508009ED08361836541620549C36103628362C36224
S31508009EE043630365D164036310BD00BFFF3F0D03E1
S31508009EF0F8B505461446084641B9344B9D422FD05D
S31508009F00334B9D4208BF5720FFF7E6F8AB68DE07DC
S31508009F102ED5B0FBF4F46E68013C16F0010625D088
S31508009F20282128465BF0FDFBAB6C99071AD1AB6C70
S31508009F30DA0719D4AB6C13F0020F0CBF00270627FB
S31508009F4028465BF0F2FB286920F07F4040EA04646B
S31508009F502C61DEB139462846BDE8F8405BF01CBCEA
S31508009F605620D1E70527EBE70927E9E73746EAE769
S31508009F706B68AB6DAF68DB0707F0E00748BF6400A6
S31508009F80402F1BD003D8DFB1202F1BD0F8BD602F80
S31508009F901AD0802FFAD1012604FB06F34101B1FB42
S31508009FA0F3F30C4A203B02EAC302284601215BF080
S31508009FB0B8FB2A63BDE8F8405BF0B3BB0626EBE7BF
S31508009FC01026E9E70826E7E70426E5E70000015B2F
S31508009FD000000A50F8FF7F00F8B51E46436804469D
S31508009FE00D4617461BB140F6FF715BF09AFB2046FB
S31508009FF0FFF754FFE9896B7B62690B43298A22F4D0
S3150800A0004C520B4322F00F0213436361A368297B6A
S3150800A0102A7E23F0804323F0E203114319436B6938
S3150800A0201943A160AB681BB9A36843F00043A3605A
S3150800A030EA69002A6BD0A368127A43EA8253A360BE
S3150800A040EA69A368927A43EA4243A360EB69A26885
S3150800A0509B8803F4C0431343A360EA69A368527854
S3150800A06043EA8203A360EA69A368527B43EAC20310
S3150800A070A360EA69A368927B43EA0213A360EA69CC
S3150800A080A368927843EA8223A360EA69D37991792F
S3150800A0905B0243EA8123E360EB69674A1B7803F0B6
S3150800A0A0FD03012B02BFE36843F00403E360EB6999
S3150800A0B01B78023B012B614B7AD8944276D0604AD2
S3150800A0C094420CBF01224FF0FF3203EB421341F2D8
S3150800A0D0944202219950EB695A7A04F580539A62A0
S3150800A0E0EB695B7A1BB1E36843F40063E360EB69F1
S3150800A0F0DB7A63B1E36843F40043E3604E4B9C426A
S3150800A10065D1EB694F4A1B7B03F00F0353673FB1D9
S3150800A11097F8203004F58050002B63D001230362A2
S3150800A120002E30D02B7E04F5805013B14FF4004337
S3150800A130836596F82120404B102A434961D89C42F2
S3150800A1405DD03F4B9C420CBF01234FF0FF330127E4
S3150800A150CF54768C3849B6F5006F3C4B5FD88C42A5
S3150800A1605BD037498C420CBF01214FF0FF310127E4
S3150800A1705F54A36D324323F4F95323F01E031343AC
S3150800A180A36501238365052120465BF0E8FAAA68E2
S3150800A19012B16968FFF7ACFE204629785BF0FCFA35
S3150800A1A0A36CDB4313F4405FFAD1F8BD00228CE7B9
S3150800A1B094420AD0224A94420CBF01224FF0FF3241
S3150800A1C003EB421342F2944283E70022F8E71C4B62
S3150800A1D09C429CD1EB691B4A1B7B03F00F03C2F818
S3150800A1E0803094E7E36997F8221097F8212023F046
S3150800A1F009030A431A4342F00102C26190E70023A9
S3150800A200A5E79C4207D00E4B9C420CBF01234FF09A
S3150800A210FF3302279CE70023FBE70021A7E78C42D0
S3150800A22007D007498C420CBF01214FF0FF310227A6
S3150800A2309EE70021FBE700BF0000015B00C003505A
S3150800A24000000A5000900350195A0120175A01209D
S3150800A25070B5436804460D460E691BB140F6FF719A
S3150800A2605BF05FFA2046FFF719FE22696B7BA97B34
S3150800A27022F087020B43134343F0800323611EB386
S3150800A2802A692369117823F0F8030B43117F43EAFF
S3150800A290C113117943EA4113517AD27B43EA011378
S3150800A2A043EA82132361E268296922F0F04222F424
S3150800A2B07022D1E90530034313430A7B43EA82231C
S3150800A2C04A7B43EAC233E360A368EA7B23F00303CD
S3150800A2D0134343F00103A3603EB32B69A2685B886E
S3150800A2E003F4C0431343A3602A69A368527943EA77
S3150800A2F08223A3602969626A8B79C8791B010002E7
S3150800A30003F0700300F4E06022F4772222F4EE6290
S3150800A310034313430A7A120302F4E04213434A7FC3
S3150800A320120402F470221343636263692A7B23F0E2
S3150800A3300F0313436361C6B12B695B89A3612B695C
S3150800A3405A7B3AB11E4A944225D19B7B1D4A03F09B
S3150800A3500F0353672B69DA7B3AB1194A944225D120
S3150800A3601B7C184A03F00F031367D5E90112204630
S3150800A370FFF7BEFD052120465BF0F1F928215BF0C9
S3150800A380D0F92B78A3635BF0CCF9A36CDB4313F409
S3150800A390405FFAD170BD0C4A944201BF9B7BA2F57F
S3150800A3A0CE2203F00F03C2F88030D3E7064A944260
S3150800A3B001BF1B7CA2F5CE2203F00F03D367D4E7B7
S3150800A3C00000015B0090035000000A50072AF7B509
S3150800A3D001F0030614461F464FF003012CD89500DA
S3150800A3E0A94000FA05F21C4801915BF0EFF90199C2
S3150800A3F01A4806FA05F25BF0E9F9194B19499DF86E
S3150800A4002000002F08BF1946012303FA04F40C6044
S3150800A410154B1649002808BF0B461C60144B103113
S3150800A420C3F820449DF82400A3F6DC33002808BFAF
S3150800A4300B461C6003B0F0BDA2F10805AD00A940AB
S3150800A44000FA05F20B4801915BF0C0F901990A4838
S3150800A45006FA05F2CFE700BF00C4035008C403504C
S3150800A46010E4035010D4035014D4035014E40350DA
S3150800A47000E0035004C403500CC403502DE9F04116
S3150800A48005460F461E4690464AB101233022194C0E
S3150800A4908B4002FB00443EB304F5825423600F212F
S3150800A4A0072F05EB450388BFA7F108044FEA0313F6
S3150800A4B0114895BFBC00A40004330C3308FA04F213
S3150800A4C0A14018445BF082F9B8F1000F0AD10121C6
S3150800A4D03020084A01FA07F700FB05223EB102F5CB
S3150800A4E082521760BDE8F08104F50154D6E702F5FB
S3150800A4F00152F6E700C0035030C003504FF4001273
S3150800A5000B4B10B5C3F88020BFF34F8FBFF36F8F87
S3150800A5100024FF22074B21465C6520209A625C6076
S3150800A520FEF7BEFD2146BDE810402120FEF7B8BD66
S3150800A53000E100E000000450044A054B002918BF5A
S3150800A5401346012202FA00F01860704740200450B2
S3150800A5504010045010B5012104462020FEF7A0FD46
S3150800A56001212120FEF79CFD0122114B5A60227819
S3150800A57012069A606178A27842EA01429A61FF223D
S3150800A5809A6200229A631A644FF000425A654FF0A5
S3150800A590FF324FF4001103F500531A65054AC2F855
S3150800A5A08011E3781B01DBB282F81533116010BD08
S3150800A5B00000045000E100E070B50125C3B29D40DB
S3150800A5C01E4B0C461D658300096803F1A04303F57D
S3150800A5D08823596030211A4E637B01FB00600366AD
S3150800A5E0E37AA17A1B0543EA0143217B22F00302A1
S3150800A5F043EA4153C36502675BF085F8736D2B43E5
S3150800A6007365237A13B1336C2B433364637A13B1BE
S3150800A610B36B2B43B3632279A37943EA0243074A10
S3150800A62093616179E37943EA014306498B61044BF7
S3150800A63055639D64BDE870405BF06BB8002004501C
S3150800A640000004500010045010B50124C0B2844024
S3150800A6505BF059F8044B5A6D22EA04025A659C626B
S3150800A660BDE810405BF055B80000045010B5012451
S3150800A670C0B284405BF047F8074BDA6A224209D138
S3150800A6805B6B34EA03030CBF012400245BF041F83A
S3150800A690204610BD0024F9E7000004504FF480322C
S3150800A6A0054B9A6641F6713203F51C33DA630122CB
S3150800A6B003F50053DA6070470090005041F6713296
S3150800A6C00121064BDA6303F50052D1600022DA63F2
S3150800A6D04FF48032A3F518339A667047000003508A
S3150800A6E0013831289ABF024B185C0020704700BF1A
S3150800A6F0785C0908021E30B54FF000000CBF102523
S3150800A700042547F60774084952B9831D51F82330C2
S3150800A710234023B101308542F6D14FF0FF3030BDDA
S3150800A72000F11603F2E700BF0080035010B5C2F32C
S3150800A7300623044602F0070241B942EA03220B4BFC
S3150800A74042F44022063443F8242010BD1846114628
S3150800A7505BF04DF801461846FFF7C2FF034B41EA86
S3150800A7600020163443F82400EFE700BF00800350AA
S3150800A770014BD3F894007047004000504FF48032E4
S3150800A780064B5A6603F5E6239B69C3F38512827066
S3150800A79003F03F021B0B4270037070470090005095
S3150800A7A040F6B732064B5B689BB293429FBF4FF4A5
S3150800A7B07A72B3FBF2F3034AD05C88BF0020704775
S3150800A7C00080E00FAA5C0908012100F5805310B546
S3150800A7D0596040F6AA6341F2050243610023094C19
S3150800A7E08360C365C26000F500520361C361C36438
S3150800A7F09464054C8365A04204BF036543655160B4
S3150800A80010BD00BFFFFF010000C0055038B50D465A
S3150800A810FFF7DAFF012200F580535A60A97B2A8ADE
S3150800A820002914BF4FF480610021836842F00102B9
S3150800A83013430B4383602A7D8368002A14BF4FF0B5
S3150800A8400052002213438360AB7C04465BB1194B6C
S3150800A850984202BFEA7CA3F51033C3F8C821C36D3A
S3150800A86043F08003C3652B7B204643F48053E360A3
S3150800A870D5E901125BF01CF86B7B0BB11023636101
S3150800A8806B7D1BB1A36843F48033A360AB7D1BB11A
S3150800A890A36843F40043A360EB7D2A7E1B071205D9
S3150800A8A003F0E04302F4E0021343A3652B786361E7
S3150800A8B038BD00BF00C00550054B9A689107FCD407
S3150800A8C05A689207F9D4DA69002AF6D1704700BFA8
S3150800A8D000800A5008B5FFF7EFFF0122024B03F587
S3150800A8E080514A601A6108BD00800A50074B5A68B1
S3150800A8F0012A0AD15A68D20702D5DA69002AF9D19B
S3150800A90002221A610122024B5A60704700800A50DF
S3150800A91000A00A5010B5064CFFF7CEFF6368012B5E
S3150800A92003D1FFF7E3FFFFF7C7FF0378E36010BD26
S3150800A93000800A50E8B94A680B7812B1127843EADF
S3150800A940C2034A78002A14BF0222002213438A68E7
S3150800A95012B1127843EA82138A78002A14BF0422B5
S3150800A96000221343CA6812B1127843EA4223014A05
S3150800A9709364704700800A5008B9014B59647047C0
S3150800A98000900A5008B9014B5964704700A00A5054
S3150800A99008B9014B1964704700A00A5010B9024B58
S3150800A9A0186C70470020704700800A5048B911B1EA
S3150800A9B0012903D07047044BD86C7047024B186DB9
S3150800A9C070470020704700BF00800A5040B911B197
S3150800A9D0012903D07047034BDA647047014B1A65A7
S3150800A9E0704700BF00800A5038B50446054D8AF006
S3150800A9F0F1FB0FCC0FC594E8030085E8030000209F
S3150800AA0038BD00BFB8D4002047F6FF739A42F0B5A8
S3150800AA1067D0022967D8354DCF0015F8313005EBD8
S3150800AA20C100012B847813D10025C3781B1B9D42D6
S3150800AA3002D3E018C0B2F0BD591B4668A3EB51011A
S3150800AA4036F911609642D4BF0D4601F1FF33EEE7A1
S3150800AA5040680028EFD0B0F90030934204DBB0F923
S3150800AA6002309342B8BF134682883D44FF2A19BF75
S3150800AA70C8214FF0280CB0F90610B0F908C0A1EBB0
S3150800AA8003020CBF0126002692FBFCF26D783244C5
S3150800AA9012B2954201DD002A01DA6A1E12B24FF49B
S3150800AAA07A7700EBC206F188B668013213FB0161BA
S3150800AAB012B221EAE17101F5FA719542B1FBF7F19B
S3150800AAC004DD00EBC206B6888E42EAD200EBC2026B
S3150800AAD032F8040C884228BF0846A04238BF2046F0
S3150800AAE0A8E7FF20A7E70020A5E700BFB8D4002005
S3150800AAF00229F0B553D82B4800EBC10410F83110E1
S3150800AB00636801290FD1E078A478904294BFC4EB1A
S3150800AB100001C4EB0201001BCAB28242C8BF002270
S3150800AB2033F91200F0BD002B39D0A178914202D337
S3150800AB30B3F90200F6E7E178B3F900009142F1D9DA
S3150800AB4099886478A1F1FF06013C714203F1040576
S3150800AB50E4B2714103F10C071FFA82FCCEB2B4428B
S3150800AB6016D805EBC1014FF47A756A43B1F902406C
S3150800AB704968521A04EBD47102EB610292FBF4F2B3
S3150800AB809042CFDBB3F902009042CBDC10B2C9E7A2
S3150800AB9037F831E04E1CE645E3D33146DEE7024896
S3150800ABA0C0E700BFB8D400200080FFFF0148FFF7C8
S3150800ABB01BBF00BFB05C090800487047FA140020A4
S3150800ABC07FB50222084B0949CDE901234FF04073AE
S3150800ABD0CDE90313052301A94FF0FF3005938AF049
S3150800ABE0A2FB07B05DF804FB006A18000003040026
S3150800ABF02DE9F84304F070FD0128074605D904F04D
S3150800AC009FFD061E02DA01241EE00026DFF880807A
S3150800AC1098F8003003F0FF0493BB4FF05009194D24
S3150800AC2005F110032846C5E90044AB60C5F80C9049
S3150800AC3004F028FF286650B90124012F04D93046AC
S3150800AC4004F0A0FD0028DEDB2046BDE8F8830E4DA3
S3150800AC50214605F110032A460120C5E90044C5E945
S3150800AC60023904F0CFFF28660028E5D03022074BCA
S3150800AC7083F8412302229A60012388F80030DCE732
S3150800AC800024DAE734D50020D0D4002000E100E023
S3150800AC901B5A012008B504F01FFD02280FD1094BE5
S3150800ACA04FF0FF31186E04F02FFF002814BF012063
S3150800ACB0002003D14FF48062034B9A6608BD00203A
S3150800ACC0F8E700BF34D50020009000504FF48062AA
S3150800ACD008B5084B9A6604F0FFFC022807D1064B14
S3150800ACE0186E04F041FF003818BF012008BD002087
S3150800ACF0F9E700BF00A0005034D5002008B54FF092
S3150800AD0098435B6CD90208D504F0E6FC02380128A2
S3150800AD1003D8094B186E05F001F84FF098435A6CA2
S3150800AD20D202FCD55B6D054A03F470231360022238
S3150800AD30034BC3F8882108BDD0D400205410002046
S3150800AD4000E100E038B5054600283AD0FFF7A2FF33
S3150800AD500446002836D128465AF08AFD95F8203050
S3150800AD6043B94FF098435A6CD202FCD55D6D05F491
S3150800AD7070251BE04FF09842936D43F002039365EC
S3150800AD8004F0AAFC02281AD1104B4FF0FF31186EB6
S3150800AD9004F08EFF4FF09842936D23F002039365FB
S3150800ADA090B94FF4A0220A4B1D681A60FFF78EFF70
S3150800ADB004463DB12846BDE838405AF08EBD2046C7
S3150800ADC0E8E72124204638BD0124FBE7D0D400203B
S3150800ADD0541000202DE9F0418CB08846DDE9127642
S3150800ADE01D460446002847D0002945D0002F43D0E9
S3150800ADF0002E41D013F00F033ED120482049A3600E
S3150800AE00002A18BF0146E361C4E90013404609A9B0
S3150800AE105AF0D3FE68BB204609995AF020FD294608
S3150800AE2020465AF01CFD6946404600F0FFFE00BB6E
S3150800AE30694620465AF0FFFC404603A95AF08BFFA4
S3150800AE40B8B9204603A95AF0F6FC0697012720460A
S3150800AE5045F0005506A9079708955AF0ECFC2046D8
S3150800AE6009A909960A970B955AF0EFFC2046FFF7B1
S3150800AE7069FF0CB0BDE8F0812120FAE70001010462
S3150800AE80000100042DE9F04F97B0894690461F4609
S3150800AE900546DDF880A0002800F0BD80002900F0F6
S3150800AEA0BA803AB1229B002B00F0B580239B002B79
S3150800AEB000F0B180BAF1000F00F0AD80219B002BA5
S3150800AEC000F0A98077B13C680026229B4344029390
S3150800AED0464509D3002F00F0A08000203C6017B03B
S3150800AEE0BDE8F08F3C46EFE75CB1229B219A9B5D5B
S3150800AEF0125D01345340239A04F00F04935501362A
S3150800AF00E6E7A8EB060BBBF10F0F58D9444B4846AA
S3150800AF10C5E90034AC60EC6113A95AF04EFE00286E
S3150800AF20DDD1284613992BF00F0B5AF098FC594699
S3150800AF3028465AF094FC484604A900F077FE0028F3
S3150800AF40CDD1284604A95AF076FC484607A95AF0F6
S3150800AF5002FF0028C3D1284607A95AF06CFC012332
S3150800AF602299304ACDF828A00B930C928A190D9293
S3150800AF7028464BF000520AA90E9303920F925AF0F4
S3150800AF805AFC28460DA95AF056FC239B039A991990
S3150800AF900123109111931292224A284610A9CDF83E
S3150800AFA04CA0149315925AF050FC284613A95AF04F
S3150800AFB04CFC2846FFF7C6FE5E4400288FD1229B2C
S3150800AFC003EB060B239B1E44029B5B4501D14646B9
S3150800AFD07EE7ACB9219B2246CDE900A3494610235A
S3150800AFE02846FFF7F7FE00287FF479AF0AF110022A
S3150800AFF012F8013D0133DBB213700BB99245F7D154
S3150800B000219A1BF8013B125D0134534006F8013BB7
S3150800B01004F00F04D8E7212061E738465FE700BF50
S3150800B02003030004100000202DE9F04F97B00F46E7
S3150800B030144699468346209EDDF88880DDF890A060
S3150800B040269D002800F09F80002900F09C801DB1F5
S3150800B050259B002B00F09780B9F1000F00F0938034
S3150800B060B8F1000F03D0219B002B00F08C803CB177
S3150800B070239B002B00F08780BAF1000F00F0838035
S3150800B080C6F10F02D2B2032A05D80121D20001FA6D
S3150800B09002F2A24277D9022D75D0102D73D815F079
S3150800B0A0010270D1F11F06296DD838490AEB040050
S3150800B0B0884268D836493846CBE90012CBF80820CA
S3150800B0C0CBF81C2013A95AF078FD002858D1584609
S3150800B0D013995AF0C4FB584645EA06415AF0BFFB95
S3150800B0E0414658465AF0BBFB214658465AF0B7FB2C
S3150800B0F0384601A900F09AFD002841D1584601A911
S3150800B1005AF099FB384604A95AF025FE002837D18B
S3150800B1100127584604A95AF08EFB239B48F0005293
S3150800B1200793219B584644F000540DA946F0005653
S3150800B130089709940A930B970C92CDF834900E97BA
S3150800B1400F965AF078FB58460AA95AF074FB5846E7
S3150800B15007A95AF070FB259B584610A945F00055DB
S3150800B160CDF840A0119712941393149715955AF099
S3150800B1706CFB584613A95AF068FB5846FFF7E2FDE0
S3150800B18017B0BDE8F08F2120FAE700BFFFFF0320C4
S3150800B190000005042DE9F04F99B00F4614469B466A
S3150800B1A08046229EDDF89890289D002800F0B280FF
S3150800B1B0002900F0AF80279B002B00F0AB80BBF185
S3150800B1C0000F00F0A780249B1BB1239B002B00F0E7
S3150800B1D0A1803CB1259B002B00F09C80B9F1000FA3
S3150800B1E000F09880C6F10F03DBB2032B06D80121C5
S3150800B1F0DB0001FA03F3A34240F28C80022D00F033
S3150800B20089806B1E0F2B00F2858015F0010A40F02D
S3150800B2108180F31F062B7DD83F4B09EB0401994229
S3150800B22078D83E4B3846C8E9003AC8F808A0C8F8A6
S3150800B2301CA015A95AF0C1FC0346002866D1404651
S3150800B24015995AF00CFB404645EA06415AF007FBA9
S3150800B250404624995AF003FB214640465AF0FFFA25
S3150800B260384603A900F0E2FC034600284ED14046C2
S3150800B27003A95AF0E0FA384606A95AF06CFD0346C7
S3150800B280002843D10127404606A95AF0D4FA259B3F
S3150800B2904046099344F000530A9701930B93239B66
S3150800B2A046F000560C93249B0D9743F000510E91DF
S3150800B2B00FA9CDF83CB0109711965AF0BCFA404643
S3150800B2C00CA95AF0B8FA404609A95AF0B4FA019BF3
S3150800B2D0404612A9CDF84890139714935AF0B5FA38
S3150800B2E0279B404615A945F00055159316971795BF
S3150800B2F05AF0A1FA4046FFF725FD034630B1019002
S3150800B30022465146484680F03BFE019B184619B036
S3150800B310BDE8F08F2123F9E7FFFF032000000604AC
S3150800B3202DE9F0438DB0884615461C460746DDF8DC
S3150800B3305090002850D000294ED0002A4CD0B9F1A0
S3150800B340000F49D00B68103B102B45D8012606FA8A
S3150800B35003F303F0013323F08073002B3CD0002362
S3150800B3601E4A8360C0E90023C36109A940465AF012
S3150800B37024FC70BB384609995AF071FA21463846BA
S3150800B3805AF06DFA6946404600F050FC08BB69461B
S3150800B39038465AF050FA404603A95AF0DCFCC0B9C0
S3150800B3A0384603A95AF047FA44F00054384606A925
S3150800B3B00695079608945AF03EFA094B384609A9A5
S3150800B3C0CDF824900A960B935AF03FFA3846FFF7C1
S3150800B3D0B9FC0DB0BDE8F0832120FAE700000404AB
S3150800B3E010000020F0B50C4617461E46054695B0D7
S3150800B3F0002874D0002972D0002A70D0002B6ED095
S3150800B400036B0F2B5BD80023364A3846C4E9002362
S3150800B410A360E36111A95AF0D0FB00285BD120464E
S3150800B42011995AF01CFA296B20460F2984BF01F09E
S3150800B4300F0110315AF013FA384602A900F0F6FB4C
S3150800B440002848D1204602A95AF0F5F9384605A938
S3150800B4505AF081FC00283ED1204605A95AF0EBF99E
S3150800B4600122214B089509920A932B6B05F11000CE
S3150800B47003F00F0141F000510B900F2B0C920D9128
S3150800B4800E900F9243F00052109226D90A9B08A9F3
S3150800B49023F0005320460A935AF0CDF90BA920460B
S3150800B4A05AF0C9F90123119612930F4B204611A998
S3150800B4B013935AF0CAF92046FFF744FC0BE000F153
S3150800B4C02003019000930122102339462046FFF7F6
S3150800B4D081FC002897D015B0F0BD0EA9DFE7212022
S3150800B4E0F9E700BF00000404100000202DE9F04F22
