S02600006275696C642F64656275672F6C69676874696E672D6170702D7273393131782E73333770
S3150800600000100020897600082BA4060827840808B3
S31508006010C7C206082BA406082BA406082BA4060844
S315080060202BA406082BA406082BA406085162000810
S315080060302BA40608ECD30908F161000865C4060814
S31508006040357400082BA406082BA406082BA40608FA
S315080060502BA406082BA406082BA406082BA40608BE
S315080060602BA406082BA406082BA406082BA40608AE
S315080060702BA406082BA406082BA406082BA406089E
S315080060802BA406082BA406082BA406082BA406088E
S315080060902BA40608257D00082BA406082BA40608B1
S315080060A02BA40608A17E00087D7E00082BA40608FE
S315080060B02BA406088596060869A0060847D309088A
S315080060C043D309085198060853D309084BD309083E
S315080060D041A006084FD30908C9A00608A9A00608C2
S315080060E02BA406082BA406082BA406082BA406082E
S315080060F0C3C206082BA406082BA406082BA4060868
S315080061002BA406082BA406082BA406082BA406080D
S315080061102BA406082BA406082BA406082BA40608FD
S315080061202BA406082BA406082BA406082BA40608ED
S315080061302BA406082BA406082BA406082BA40608DD
S315080061402BA4060841AF00082BA40608A5C3060819
S315080061503D7F06082BA406086FD0090875D00908E4
S315080061602BA406082BA406082BA406082BA40608AD
S31508006170013800D0FCE7704700000000000000006E
S315080061800B4A1168086806C881F30B88022181F357
S315080061901488203080F30988BFF36F8F4FF0000012
S315080061A080F31188104700BFAFF30080AFF300807B
S315080061B084C6002000000000000000000000000067
S315080061C007480068006880F3088862B661B6BFF3BE
S315080061D04F8FBFF36F8F02DF00BF00BFAFF30080A2
S315080061E008ED00E0000000000000000000000000CC
S315080061F0EFF30980EFF30B82734620E9FC0F104A90
S31508006200116808604FF0300080F31188BFF34F8F94
S31508006210BFF36F8F0BF09CFA4FF0000080F31188E4
S31508006220074A11680868B0E8FC0F82F30B8880F308
S3150800623009881847AFF30080AFF30080AFF30080FA
S3150800624084C60020000000000000000000000000D6
S315080062501EF0040F0CBFEFF30880EFF30980044922
S31508006260084700BFAFF30080AFF30080AFF30080AC
S31508006270E1020108000000002DE9F04F2DED028B28
S31508006280804600680C4691461D468DB030B90327F6
S3150800629038460DB0BDEC028BBDE8F08F0668766C0B
S315080062A0B0472D2807460CD00028F1D09C4A9D4BB4
S315080062B00221A52808BF13460D209B4A80F0F4F951
S315080062C0E6E76378202B01D10027E1E7974BD8F85A
S315080062D00000049358B1036822461B6C04A998472A
S315080062E0074630B1049803689B689847D0E70327A8
S315080062F0F8E78F4B8F4E05934FF48973EE40F643BC
S31508006300EB40DB43102D06F0010688BF0126082D59
S3150800631003F0010388BF01239FED7F8B6FF0010B0C
S315080063200193049805A90368DB689847002840F09C
S31508006330EC808DF80E0005980DF10E010368DB68F8
S3150800634098470746002843D19DF80E30402B03D0C6
S31508006350802B01D003273BE062789A42E1D10123E2
S3150800636005988DF80F3003680DF10F015B699847A2
S31508006370074668BB9DF80F30082B17D8002BD0D0DE
S31508006380013B072BCDD801A252F823F0DD630008A4
S31508006390B763000823630008D9630008236300086D
S315080063A02363000823630008E3630008102BB8D1B1
S315080063B0002EB6D102E06B1E012BB2D80023059839
S315080063C00693036806A95B6A9847824668B107463A
S315080063D005A86AF03BFE85E7042DEFD0012DA0D174
S315080063E0ECE7019B002B9CD1E8E7069B002B46D0E7
S315080063F08DED088B05985146036808AA9B6A98474D
S3150800640007460028E4D1DDE90830591E40F1FF327D
S315080064108B456FF0100171EB020210D39DF80E2028
S31508006420402A97D1D4E90212904208BF8B4226D05F
S31508006430069B0AF1010A53457FF673AFD8E74FF07A
S31508006440FF31C21C994277EB020231D39DF80E2028
S31508006450402A7FF47FAF1F0C04F1100104F11C00E1
S315080064609BB28842E4D051F8042B002AF9D0B7EB46
S31508006470124FF6D1002BF4D092B29342F1D80023F2
S3150800648005980793036807A99B6B98470746002852
S315080064909ED1079B002B36D082460598CDF820A0C2
S315080064A003683946DB6B08AA984758B107468FE751
S315080064B013F5803F70F1FF32FFF44CAF9DF80E20C4
S315080064C0802AAEE7089BD90704D5D9F80020099990
S315080064D0914212D19A0705D5BDF82810B9F80420BB
S315080064E091420AD15B070ED5D8F80400B9F8042002
S315080064F003680B999B68984728B9079B0137BB42E5
S315080065007FF60FAFC9E7002762E702210D200A4A86
S3150800651080F0CAF8A5275BE700000000000000002D
S31508006520CC240A082B2A0B08A0240A0808110020E4
S315080065300C11002016010100BD240A080000000005
S315080065402DE9F04F2DED028B884204460D46904604
S315080065501E4697B00AD1034601211D202E4A17B0C0
S31508006560BDEC028BBDE8F04F80F09EB89FED288BFE
S315080065700DF10C092A21484605AF21F069FF99E873
S31508006580030087E80300DFF894A0DFF894B0BDF8AD
S315080065901400BDF81630834233D021F0DFFF33787C
S315080065A081468DF824408DF825508DF826808DF883
S315080065B028300BB173680B9309AB0893CDF81CA070
S315080065C01BF01AFD00230E9310938DF851302A23E1
S315080065D0ADF830904FF001090D930CAA6B4607A948
S315080065E08DED128B8DF8509071F0CAFC034620B1E0
S315080065F05A4649461D2080F057F8384675F0F2FE8F
S31508006600C5E717B0BDEC028BBDE8F08FAFF300808D
S31508006610000000000000000064520A0850530A08EF
S31508006620A4520A08000000002DE9F04F2DED028B58
S315080066309FED2F8B9DB00DF108092A21054604AC64
S31508006640484616461F46DDF8A48021F001FF99E862
S31508006650030084E80300DFF8A0A0DFF8A0B0BDF8C7
S315080066601000BDF8123083423DD021F077FF289BF9
S3150800667081461B78CDE90A6708958DF830301BB13D
S31508006680289B5B788DF8313098F800308DF83830D3
S315080066901BB1D8E90223CDE9102308AB0793CDF83F
S315080066A018A01BF0A9FC00232A2216938DF869303E
S315080066B00223ADF848904FF00109CDE9132306A946
S315080066C06B4612AA8DED188B8DF8689071F058FC00
S315080066D0034620B15A4649461D207FF0E5FF20466D
S315080066E075F080FEBBE71DB0BDEC028BBDE8F08FF0
S315080066F0000000000000000078530A08FB520A0850
S315080067002DE9F04F2DED028B994600230024002534
S31508006710CDB08DF8C83049938DF828319C4BCDE91A
S315080067202E45CDE93045CDE934450C934FF6FF7437
S315080067300123DFF874A2064688461746CDF8D8A086
S31508006740ADF820410D936AB1054600F53E74A542A1
S3150800675000F00C8128466BF04BFA002800F00881FF
S315080067609835F4E778F082FD044630B9AC24204623
S315080067704DB0BDEC028BBDE8F08F06F53E75284698
S3150800678075F0B7FCB4F868308DF8C880ADF82031DC
S3150800679094ED028B6A34202120468DF05EFACDE90D
S315080067A00C407C4B4FF4C8710E93002309A8CDE921
S315080067B009330F930B93CDF870A06FF02DF8099B52
S315080067C053B90B240BA86BF01FF80AA86BF01CF83A
S315080067D009A86BF019F8CAE74FF4C8710AA86FF050
S315080067E01BF80A9B002BECD04FF4C8710BA86FF06E
S315080067F013F80B990029E4D0099B0A9A10934FF4D1
S31508006800C8733046CDE91223CDE9141310AA4146C0
S31508006810119378F0ABFD08B10446D3E741463046FC
S3150800682012AA78F085FD0028F6D14146304614AA0A
S3150800683078F038FD0028EFD1109B0DF1B80A1693B1
S31508006840119B0DF1700B1793129B8DED008B18930E
S31508006850139BCDE905AB1993149B1AAA1A93159B9A
S3150800686018A91B9336AB079330AB049334AB039349
S315080068700EAB029316A825F007FD0028CCD10BA86D
S315080068806AF0C2FF0AA86AF0BFFF09A86AF0BCFF4F
S31508006890B9F1000F13D1D6F8940300285AD003682B
S315080068A09B689847D6F894331A6800284AD05469E2
S315080068B041465A461846A04798B1044657E7D9F8BC
S315080068C0003048465B699847036859465B6A9847AB
S315080068D008B9C5244BE79DF86031CDF824918DF8A9
S315080068E028315146284678F0C1FF0028E5D12846C8
S315080068F00CA978F088FC2B7C77B302211120264A54
S315080069007FF0D2FED5E90012AB69CDE901210093EB
S3150800691002211120EB69214A7FF0C6FE0F9906F580
S31508006920697027F087FE034620B1012111201C4A11
S315080069307FF0BAFE27B196F8B233013386F8B23340
S31508006940002414E741461846D26890470028C8D163
S3150800695010240CE703240AE7D5E900121120CDE933
S31508006960002102210F4A7FF09FFED7E70B24FEE69F
S31508006970BDF864319FED048BADF820318DF8C880E1
S315080069800FE700BFAFF30080000000000000000022
S3150800699078300B0880B50A08ACB40A08CCB40A08E3
S315080069A044B50A080FB50A08CCE30A080000000037
S315080069B02DE9F04F2DED028B06469FED8B8BDFF808
S315080069C03C928B4FADF5217D00F5A07400F5A868C3
S315080069D0444500F00381D4F80031013364D02046E1
S315080069E07EF061F98207C3B240F1AA8004F1400142
S315080069F003A87EF046F9542203A918A88CF09DFF37
S31508006A00542218A92DA88CF098FF002354222DA9EA
S31508006A1042A8CDE9003302938CF08FFF42A87EF09E
S31508006A2056FA054618B1019B01330193F6E79DF81E
S31508006A30183173B301984FEA800A02A86AF0E4FE97
S31508006A4050462FF0B9F9029018B32B462946019AF9
S31508006A509A4204D9029A42F823100133F7E75122E1
S31508006A602DA942A88CF069FF002542A87EF02FFACE
S31508006A70E8B10DF219108DF0C1F801460DF21910A2
S31508006A807FF0D2F9029B5851029B5B590435002BC3
S31508006A90EBD19DF8003073B901212220554A7FF0C9
S31508006AA003FE68467FF0E8F904F5007490E70123D1
S31508006AB08DF80030EDE7002542A8CDE9425544950A
S31508006AC07DF008FC9DF8003006F1180A83B3DDF85E
S31508006AD004B044A8CDF80CB16AF096FE4FEA8B00D4
S31508006AE02FF06AF9449018B32B462946439A9A42DE
S31508006AF004D9449A42F823100133F7E70025439B4B
S31508006B00AB4212D9029B53F825B058468DF076F859
S31508006B10014658467FF088F9449B43F82500449B74
S31508006B2053F8253023B10135E9E701238DF80831FB
S31508006B30504642A97DF046FD42A87FF09DF9B0E790
S31508006B4043B12D4A012122207FF0AEFD20462AF0CE
S31508006B50D1FDA9E7D4F80051012D23D142A87FF031
S31508006B604CF961A876F02CFF42A824F093FF61A89F
S31508006B7076F026FF204642A97EF02EF9034620B17C
S31508006B803A46294622207FF08FFD06F1180042A9D1
S31508006B907DF07DFCF068002886D0036842A99B68D2
S31508006BA0984781E7C5B942A87FF027F9204642A948
S31508006BB08DED628B8DED648B7EF02EF9034620B148
S31508006BC03A46012122207FF06FFD06F1180062A9DE
S31508006BD07DF03EFCB068DEE74A46B3E70DF5217D59
S31508006BE0BDEC028BBDE8F08F00000000000000003D
S31508006BF039D20A08C4D10A08F6D10A085ED20A08A8
S31508006C002A2110B57248ADF5956D029130F084FAD7
S31508006C1008B18CF010FE029002A96D4830F026F9F2
S31508006C200028F6D1029B2A2BF3D167A3D3E90023C8
S31508006C306848CDE9082330F08BFA0028E9D100220C
S31508006C400023644808A9CDE9082330F037F900285D
S31508006C50DFD1DDE9080240F6FA035F499A4208BF28
S31508006C608842D6D101215D488DF8071030F038FAF0
S31508006C700028CED18DF807000DF10701574830F0EE
S31508006C80C9F80028C5D19DF80730002BC1D0504857
S31508006C9030F08CF80028BCD14D4803A930F0E6F84E
S31508006CA040F20124A042B4D14D494E4881F05BF927
S31508006CB00028AED140224B4804AB0AA930F02AF985
S31508006CC00028A6D1049B0E2BA3D10F2244490AA85B
S31508006CD08CF023FE00289CD14349424881F043F9B1
S31508006CE0002896D104AB40223E480AA930F012F992
S31508006CF0049B03438DD19DF82810002989D1394872
S31508006D0081F031F9002884D14022364805AB1AA90A
S31508006D1030F000F9A0427FF47CAFF12233493448C1
S31508006D2030F050FA00287FF474AF4FF40072304800
S31508006D3006AB2AA930F040F900287FF46AAF069A14
S31508006D40F12A7FF466AF29492AA88CF0E6FD0246A7
S31508006D5000287FF45EAF0146254830F033FA002854
S31508006D607FF457AF4FF40072214807ABAAA930F059
S31508006D7023F9A0427FF44DAF164830F023F80028D7
S31508006D803FF447AF154830F01DF800283FF441AFEF
S31508006D90174830F017F800287FF43BAF30F070FA48
S31508006DA000287FF436AF0B4830F00CF800283FF483
S31508006DB030AF0A4830F006F800287FF42AAF0DF500
S31508006DC0956D10BDAFF30080316EE595FA080000A9
S31508006DD00573080001720800316EE5950673080010
S31508006DE026ED0A080273080025ED0A0834EC0A089D
S31508006DF00272080000000000054B186803689969CC
S31508006E0001A3D3E90023084700E0373B015D0300EF
S31508006E10F41100200000000070B505463E4C8AB00B
S31508006E2020B10023008823604EF03AFF3B4895F0D6
S31508006E308DFD3B4E3B4B304633603B4B73604FF00A
S31508006E4003F9002130465AF07DF831A3D3E900232F
S31508006E50A062C4E9062390F092FBD4E906231943FD
S31508006E6010434FF0FF33C4E90601CDE900014FF0A6
S31508006E70FF32A06A95F0F6FD02224FF0FF31A06AB4
S31508006E8095F00BFE01204EF053FC4FF400730022E0
S31508006E902649A06A95F0EFFEB0F5007F36D10023AB
S31508006EA09422CDE9073309933C23CDE903320593B0
S31508006EB09623A06A03A906935AF0DAFB25B3287C21
S31508006EC04FF080F90546E0B9A06A95F074FF4FF0D7
S31508006ED021F94EF00FFC20B14FF4807000214BF0E1
S31508006EE0ADFF4EF017FC20B14FF4006000214BF0C7
S31508006EF0A5FF012095F04EFB0D4A0E49A06A90F0B9
S31508006F0035FB28460AB070BDFF20D9E70725F8E704
S31508006F1009D5015520000000D0B30020690345ECCF
S31508006F20785E0120E95E05086C5E01206C5C012034
S31508006F30157509085575090810B5054C237833B930
S31508006F40044B13B1044800E000BF0123237010BDB1
S31508006F5028B9002000000000BC720B0808B5034BD6
S31508006F601BB10349034800E000BF08BD000000004C
S31508006F702CB90020BC720B08A3F5803A704700BFF5
S31508006F80174B002B08BF134B9D46FFF7F5FF002153
S31508006F908B460F461348144A121A8CF0F5FC0E4B12
S31508006FA0002B00D098470D4B002B00D098470020A7
S31508006FB0002104000D000D48002802D00C4800E00E
S31508006FC000BF47F003F82000290011F0ABFB46F09C
S31508006FD0E9FD00BF000008000000000000000000F6
S31508006FE000100020F81A00208CE50220000000009E
S31508006FF0000000002DE9F041484C8EB0264601AD50
S315080070000FCE0FC5336814342B6006AD0FCC0FC5F1
S3150800701094E80F0085E80F0001213A2002F0D4F821
S315080070200121572002F0D0F84FF480733C4EADF89A
S315080070301C303C4B3046039301A906AB059303F07D
S315080070409BF9012304221946022003F0ABFA022118
S3150800705000230846012203F0A5FA0123042203218E
S31508007060022003F09FFA042201231146022003F0AE
S3150800707099FA2D4C2D4B1025C4F8C8344FF002133D
S31508007080C4F8C434A3F58033C4F8CC341C2304F5FF
S315080070900058C4F8B4344FF4487008F017FA04F5E9
S315080070A080571420C8F8A05008F010FA2320C7F813
S315080070B0A05008F00BFAB9213046C8F8A05063F082
S315080070C0D1FB002301211A460220C7F8A05003F07D
S315080070D069FA002302211A46084603F063FA0123D7
S315080070E000220321022003F05DFA01230022042175
S315080070F0022003F057FA304602F064FF00215720B9
S31508007100C4F8C814C4F8C414C4F8CC14C4F8B41425
S3150800711002F05AF80EB0BDE8F08100BFB8D30908EE
S3150800712000000A50E070720000C00350020003001D
S31508007130BFF34F8F0549064BCA6802F4E062134352
S31508007140CB60BFF34F8F00BFFDE700BF00ED00E047
S315080071500400FA054FF000639A6A02F17841B1F526
S31508007160C04F03D21168074A914203D00023037027
S3150800717083607047012202709A6A926842609B6A2D
S315080071809B69F5E707B0CD5E08B54FF00053024A94
S315080071901A60FFF7CDFF00BF02020FF073B54D4B23
S315080071A004461A781AB102221A7002B070BDCDE9E7
S315080071B000220028F9D001261E7063F000FB464D18
S315080071C0464B18605FF03EFC2B785BB900F07AFE00
S315080071D040B943480823434A4349006859F05CF9D3
S315080071E000B92E70414B5A6E22619B6E404A63610C
S315080071F04FF4804393663F4B5968A1613E499960B5
S31508007200196E2160596E6160196CA160596CE16054
S315080072103A49086C1864496C5964012151661B6E19
S315080072209C043FD5364AD368D807FCD4354B1A6830
S31508007230531C3CD04FF480139340334A13660423FF
S31508007240314C23664FF40073236663F051F801301E
S315080072500BD063F04DF840F2011398421FBF4FF46C
S31508007260005323664FF4804323660823264C68465A
S3150800727023664FF4805323664FF0006323664FF46A
S31508007280002301A9636662F0DAFF009B2366019B6F
S3150800729063662B78002B88D0124B1A6822665B68C7
S315080072A0636682E7194AD368D907FCD4BEE7184B48
S315080072B01B78002BC3D14FF400720D4B5A6603F5A9
S315080072C0A6235B68002BBAD14FF480120E4B1A66C0
S315080072D0B5E700BF246401202264012068B90020B4
S315080072E01810002060B900200071080000800050C6
S315080072F0009000500080004455CEAC0000C00054F9
S3150800730000000440041000200090004400000450CF
S315080073102364012070B5204D04462E78012E02D034
S3150800732001232B7070BD0028FCD062F0E1FF01300C
S315080073300BD062F0DDFF40F20113984205D0174BDF
S31508007340174A5E66D368DE07FCD42268154B1A66B0
S3150800735062685A66A2681A64E2685A64A269D00723
S3150800736044BF00229A60104B1A68013207D10F4AAF
S31508007370127822B90E494968C90748BF1A602269B6
S315080073800C4B5A6662699A665FF064FB0A4B18688A
S3150800739063F01BFA0023C4E7246401200090004030
S315080073A000000440008000440410002023640120EB
S315080073B000C005500080005068B9002070B54FF035
S315080073C00064A36A03F17842B2F5C04F21D21A6865
S315080073D0124B9A421DD1124E337813F0FD0F1BD172
S315080073E01048FFF7DBFE01254FF480330E4A0F499C
S315080073F0C2F88051CB6015600D4A1361A36ADB6938
S31508007400984704460748FFF785FF04B935702046B4
S3150800741070BD4FF48174FAE70024F8E707B0CD5E33
S315080074202364012044B9002000E100E000A00044E4
S315080074300090004413B51F4B1B7803B9FEE70023E1
S315080074401D4CCDE900336A4608231C49206859F0CB
S3150800745023F8F0B91A4AD2F84031D2F840211F2B46
S315080074604FF0010310D9203A9340019A1343019330
S3150800747008236A461149206858F0C4FF4FF00053A4
S31508007480104A1A60FFF754FE9340009A134300937C
S31508007490EEE70D4B9842F1D1094AD2F84031D2F8BD
S315080074A040211F2B4FF0010302D9203A9340DEE713
S315080074B09340ECE7246401201810002000710800AE
S315080074C0008000440B020FF00BE000F038B54FF0D7
S315080074D00065AB6A044603F17842B2F5C04F12D292
S315080074E01B6B03F17843B3F5C04F0CD20648FFF780
S315080074F055FEAB6A20461B6B5B689847BDE838406B
S315080075000148FFF707BF38BD6CB9002013B54FF027
S3150800751000640190A36A03F17842B2F5C04F15D210
S315080075201B6B03F17843B3F5C04F0FD20948FFF739
S3150800753035FEA36A01211B6B01A89B69984704467F
S315080075400448FFF7E7FE204602B010BD4FF48174E9
S31508007550F9E700BF6CB9002037B54FF00065CDE9F3
S315080075600021AB6A044603F17840B0F5C04F12D249
S315080075701B6B83B10948FFF711FEDDE90021AB6AF1
S3150800758020461B6B5B6A984704460448FFF7C2FE11
S31508007590204603B030BD4FF40174F9E76CB90020FA
S315080075A037B54FF000650191AB6A044603F178429E
S315080075B0B2F5C04F15D21B6B03F17843B3F5C04F34
S315080075C00FD20948FFF7EAFDAB6A20461B6B019903
S315080075D09B6A984704460448FFF79CFE204603B07A
S315080075E030BD4FF40174F9E76CB9002037B54FF098
S315080075F00065CDE90021AB6A044603F17840B0F591
S31508007600C04F16D21B6B03F17843B3F5C04F10D2A7
S315080076100948FFF7C3FDDDE90021AB6A20461B6B6D
S315080076209B6B984704460448FFF774FE204603B050
S3150800763030BD40F20114F9E76CB9002037B54FF0B8
S3150800764000650191AB6A044603F17842B2F5C04F72
S3150800765015D21B6B03F17843B3F5C04F0FD2094817
S31508007660FFF79CFDAB6A20461B6B0199DB6B9847BD
S3150800767004460448FFF74EFE204603B030BD40F2EC
S315080076800114F9E76CB9002008B500F02DF8124B83
S3150800769012498B4212D30020114B12498B4218D340
S315080076A0FFF76EFC186850F82240586840F82240E8
S315080076B0013298688242F5D30C33EAE70022F8E7EC
S315080076C01C6844F8220001325C68A242F8D30833E9
S315080076D0E4E70022F8E700BFC4720B08D0720B0873
S315080076E0D0720B08D0720B084FF480414FF0FF3070
S315080076F010B5114B114A9A60D3F8882042F47002EB
S31508007700C3F888200E4A91660E4901F500521066A4
S315080077100D4850660220C3F8D000BFF34F8FBFF361
S315080077206F8F01244FF440330848C0F88041D36076
S3150800773004600B6110BD00BF00ED00E000600008AA
S315080077400090005000800044F7FF370000E100E099
S31508007750014B1868704700BF0C100020014B1860D9
S31508007760704700BF0C100020084B1B6F03F007037F
S31508007770022B04D0032B05D0012B05D0FEE7044BC2
S3150800778018687047034BFBE70348704700800050B2
S315080077900C10002010100020002D310108B5FFF74D
S315080077A0E3FF054B1B6FC3F303330133B0FBF3F061
S315080077B0024B186008BD00BF00800050081000206A
S315080077C00048704700B4C404014B1868704700BFEE
S315080077D010100020054B1860054B1B6F03F00703BC
S315080077E0032B01D1FFF7DABF704700BF1010002046
S315080077F00080005000487047002D31014FF0B44317
S315080078009868C0F304400C2822D8DFE800F0092164
S3150800781021212121071719211B1D1F000F48704719
S315080078209B6803F04073B3F1807F13D0B3F1007FF8
S3150800783012D00B4A002B08BF1046704709487047FC
S31508007840094870470948704709487047094870470A
S31508007850002070470848704708487047405DC600D2
S3150800786000093D000024F400C0EA210180BA8C0119
S315080078700048E801005A620280841E0040420F0058
S31508007880014B1868704700BF1410002010B40A682E
S315080078901378022B11D014203023147913FB040318
S315080078A007481B585079C340DB4303F001031370A4
S315080078B008465DF8044B10F055BF5DF8044B704759
S315080078C030C0035037B50468012105463A2001F057
S315080078D07BFC002301226179207902F063FE1422E1
S315080078E03023217913FB01230E4A9B586279D34032
S315080078F0DB4303F001032370A379022B0ED100F0BA
S3150800790067FA2A460849607900F08CFA012302468C
S3150800791061792079CDE9003302F0ECFD002003B04F
S3150800792030BD00BF30C003508D7800080268137858
S31508007930022B24D014213023107913FB001310498D
S315080079405B585179CB40917903F00103012912D193
S31508007950508843EA40034FF6E07063F03F039BB25A
S31508007960834202D11170538070474FF6DF718B4204
S31508007970F9D10021F6E711B983F0010313707047B6
S3150800798030C0035010B5012243780178847830203E
S315080079909A40054B00FB01331CB903F501531A60E5
S315080079A010BD03F58253FAE700C0035010B5012253
S315080079B043780178847830209A40054B00FB0133E0
S315080079C01CB903F582531A6010BD03F50153FAE793
S315080079D000C003500122437801789A403023594366
S315080079E0014B5A50704700BF40F003501021302316
S315080079F00246007813FB0013054950785B58C340CC
S31508007A0003F0010093780BB980F00100704700BFBE
S31508007A1030C003502DE9F04F9A46554B85B01B7878
S31508007A2006460F461546DDF83C909DF844B0DDF84D
S31508007A305080002B00F08C80072A00F28B800E9B6A
S31508007A40002B00F08780B9F1000F00F08380129BAD
S31508007A50B3F5006F7EDC012802D1109B002B79D08C
S31508007A60444B03EB05131B7B002B75D0424C1022AD
S31508007A70002168468BF088FF04EB45141022002F7E
S31508007A8058D1394620468BF07FFF43F210036380B6
S31508007A90BBF1000F03D1E37843F00303E370364AE2
S31508007AA00E9B02EB451CCCE90193129BCDF800A076
S31508007AB0013BC3F30A009DF84C30690103F0030348
S31508007AC09B0643EA001E53582C48012E00EA030081
S31508007AD04EEA0003535041D113230CF1100ECCF893
S31508007AE00C309CE80F008EE80F006FF00301DCF8FD
S31508007AF01C20109B61F39F02012FCCF81C20CCF8A8
S31508007B00143003D1CCF81890CCF804300027194A61
S31508007B10290102EB051342F80180159A28465A6096
S31508007B20694622469F605E7302F0BCFD384605B082
S31508007B30BDE8F08F002120468BF026FF4FF44473F2
S31508007B406380BBF1000FAAD1E37843F03003A5E7C1
S31508007B500B48ECE70B48EAE70B48E8E7B8F1000FF3
S31508007B60D4D19CF8023068F304138CF80230CDE7C0
S31508007B702564012088B9002008BA00200F80FFF389
S31508007B80028000F0018000F0078000F038B5124B43
S31508007B9005461B78DBB1E0B162F011FE0F4A0023FF
S31508007BA01146147B54B92B6001251A0101EB031306
S31508007BB01D738C5062F009FE204638BD0133082B30
S31508007BC002F11002EDD162F000FE0548F5E705481E
S31508007BD0F3E70548F1E700BF2564012088B90020CE
S31508007BE0048000F0028000F0018000F0154B13B508
S31508007BF01868002301908DF8043062F0E0FD124BFE
S31508007C001C7824B162F0E1FD104802B010BD0122D3
S31508007C101A7062F0DAFD0E4B01A81C731C7783F804
S31508007C202C4083F83C4083F84C4083F85C4083F84A
S31508007C306C4083F87C4008238DF8073002F000FD7D
S31508007C402046E2E73CD4090825640120038000F0B9
S31508007C5088B9002008B50A4A12785AB107280BD8FD
S31508007C60084A02EB00131B7B43B1002102F0DAFC41
S31508007C70002008BD0448FCE70448FAE70448F8E78A
S31508007C802564012088B90020028000F0018000F0F8
S31508007C90078000F008B50A4A12785AB107280BD8A7
S31508007CA0084A02EB00131B7B43B1012102F0BAFC20
S31508007CB0002008BD0448FCE70448FAE70448F8E74A
S31508007CC02564012088B90020028000F0018000F0B8
S31508007CD0078000F00D4B1B7893B1072812D889B19D
S31508007CE00B4B03EB00131B7B73B10A4BDA6A0123B8
S31508007CF003FA00F010401ABF00200B700870704796
S31508007D0005487047054870470548704725640120AF
S31508007D1088B9002000000450028000F0018000F0BD
S31508007D20078000F02DE9F843174B1F6D5B6D1F4068
S31508007D3000D5FEE701260025144CDFF85480DFF84D
S31508007D405490374217D0C8F8506023689BB1A16891
S31508007D50284601316268A1609847637B012B0AD1E6
S31508007D6048B909EB45131A7B60F341021A731A7F67
S31508007D7060F341021A770135082D4FEA460604F1E9
S31508007D801004DED1BDE8F8830000045088B900204D
S31508007D900020045008BA002070B5044601250B4E91
S31508007DA004B970BD94FAA4F0B0FA80F005FA00F3AD
S31508007DB006EB001224EA03045368002BF0D0117B6B
S31508007DC011B191689847EBE79847E9E708BB0020A7
S31508007DD008B5192001F054FF28B14FF00072074B7F
S31508007DE0C3F880211A601A2001F04AFF28B14FF023
S31508007DF08062024BC3F880211A6008BD00E100E0EA
S31508007E0038B505460C4662F0DAFC0022044B03EB53
S31508007E1005135C601A73BDE8384062F0D6BC00BF33
S31508007E2008BB0020F8B505460F46164662F0C7FCA3
S31508007E30104B05F0FC02D3F824140023EC1804F0C8
S31508007E400304144321FA04FC1CF0010F07D0013384
S31508007E50042BF3D1FF2462F0B8FC2046F8BDFF2CB2
S31508007E60F9D00122044B03EB0413C3E901761A7314
S31508007E70F1E700BF00C0035008BB0020074BD3F84A
S31508007E802404D3F8202403F50053104000F055309D
S31508007E9020F05020C3F82004FFF77EBF00C003502F
S31508007EA0074BD3F82404D3F8202403F500531040D5
S31508007EB000F0AA3020F0A020C3F82004FFF76CBF1A
S31508007EC000C00350024B1968024B186858F0C4B931
S31508007ED01C1000201810002037B5920004460D46E5
S31508007EE0019295F061FA431C0BD060B929462046E9
S31508007EF0019A8BF012FD0028044808BF002003B041
S31508007F0030BD0348FBE70348F9E700BF10E000F07F
S31508007F1021E000F024E000F013B5044601A802F0C1
S31508007F20C1FC9DF80630012223804FF4807300209F
S31508007F306380054B9B680A3303F01F0302FA03F3B9
S31508007F40636002B010BD00BF0080E00F10B50446A4
S31508007F5095F022FA431C15D0B0B90C4B20469B6805
S31508007F600A3303F01F020123934023F0030323443B
S31508007F70984201D1002010BD50F8042B0132F7D0E9
S31508007F800348F8E70348F6E70348F4E70080E00FFC
S31508007F900EE000F021E000F024E000F008B562F001
S31508007FA007FC014B186008BD48C30020014B186840
S31508007FB062F002BC48C3002001292DE9F84327D8FE
S31508007FC0254B264E1C68264FDFF8A080803C14F10E
S31508007FD0800F01D1BDE8F883D4F800900521484602
S31508007FE062F036FC1F4B994510D01F4B99450CBFC4
S31508007FF03D46454662F0DCFB2B6843F018032B60D0
S3150800800062F0DAFBD4F88040803CE0E73546F1E7D9
S3150800801002390129DED8104B104E1C68104FDFF8C4
S315080080204C80803C14F1800FD4D023680D4A9342CB
S3150800803010D00D4A93420CBF3D46454662F0B8FB48
S315080080402B6823F018032B6062F0B6FBD4F8804047
S31508008050803CE7E73546F1E7FCC3002094C40350AB
S31508008060B4C403500000015B00000A5074C40350F6
S315080080702DE9F041864A0B688EB0934205460C46B8
S315080080800DF1180803D0834A934240F0EB80474627
S31508008090814ECDF814800FCE0FC796E80F00103624
S315080080A087E80F000FCE01AF0FC7002D00F0D8806C
S315080080B08422002128468BF067FC2368744A934281
S315080080C040F0938056232B654FF470230027DFF882
S315080080D0FCC1C5E90BC32368A4462B6001232E1DEA
S315080080E085F85C30BCE80F000FC69CE80F0086E8F0
S315080080F00F00637E012B08BF8DF81D30A37E2BB1C0
S31508008100012B40F08F8004238DF81230227EE3681D
S31508008110012A40F08E80614A93429CBF05238DF860
S31508008120353000238DF811305D4B01213A20039339
S3150800813001F04AF80121286D01F046F82369DA1F93
S31508008140092A55D8063B8DF81030237E2BB9E37ED5
S31508008150B3FA83F35B098DF81C300121284662F0D7
S3150800816013FA0646002844D1227A237943EA0243C1
S315080081707A0102F1A04101F57031C1F8AC34637A95
S31508008180607940EA0340C1F8A404A67AA07940EAD7
S315080081900640C1F8A804E37E002B4ED1E07AE379C5
S315080081A043EA0043C1F89834E37E002B45D11D23EA
S315080081B0C1F89434206801A902F0DEF862F0FFFAEB
S315080081C0384B1A78002A40D101221A7062F0FDFA5B
S315080081D006F07CFFFFF70AFD002105F12400FFF7F2
S315080081E0D5FC0146A0B3304E03E02A4A934210D08C
S315080081F02E4E2F4B1B681BB92E492F4806F048FEFA
S315080082002B4805F1800162F00CF930460EB0BDE846
S31508008210F08157232B654FF48013284E0127C5E9B3
S315080082200B6358E7022B3FF46FAF032BE0D106230D
S315080082306AE700228DF8342077E702F1A0431C2272
S3150800824003F57033C3F89424B4E762F0BEFAC1E7C5
S3150800825005F12800FFF79AFC06460028C9D0C2E7B0
S31508008260174EC6E74646174F0FCF0FC697E80700C3
S3150800827086E80700002D00F0DC80842200212846CD
S315080082808BF082FB2268104B9A4221D0074EBCE73E
S315080082900000015B00000A5064D409083F4B4C00FB
S315080082A040420F0026640120092000F0022000F059
S315080082B0FCC300203C10002000C400200100100070
S315080082C0012000F098D4090800C0055001000F00ED
S315080082D029232B654FF480232E4627465649C5E9A0
S315080082E00B13236846F8043B0FCF0FC697E80F0019
S315080082F086E80F00637E012B08BF8DF82630A37E23
S315080083002BB1012B68D14FF40073ADF82830237ECA
S315080083100121012B03BF00238DF825304FF4E133EB
S31508008320E3683A20089300F04FFF0121286D00F01A
S315080083304BFF23691A1F0C2AA8D8033B414620681D
S315080083408DF8243002F084FBA36923F47F0323F419
S315080083507F4323B92A68936843F480339360E27EA7
S31508008360364B002A43D11D22C3F82027217A2279C9
S3150800837042EA0142C3F83827617A627942EA014241
S31508008380C3F83027A17AA27942EA0142C3F8342712
S31508008390E17AE27942EA0142C3F824270121284614
S315080083A062F0F2F8064600287FF42FAF62F007FA6B
S315080083B0234B1A788ABB01221A7062F006FA06F075
S315080083C085FEFFF713FC002105F12400FFF7DEFB0D
S315080083D0014628B31B4E18E7022B02D14FF48073CF
S315080083E093E7032B7FF452AF4FF440738DE71C22BB
S315080083F0C3F82027217A227942EA0142C3F83827AE
S31508008400617A627942EA0142C3F83027A17AA279F1
S3150800841042EA0142C3F83427C0E762F0D6F9D0E74A
S3150800842005F12800FFF7B2FB064600283FF4EDAE3B
S31508008430D0E7054EE9E600BF0200040000C003507D
S3150800844026640120092000F0012000F038B141B16E
S31508008450013AB2F5006F044838BF00207047034858
S3150800846070470148704700BF037000F0027000F0C3
S3150800847090F83530022B0DD114223023417F90F825
S31508008480210013FB0123044A9B5823FA00F000F04D
S31508008490010070470020704730C00350002313B511
S315080084A01D4A52F8044B94F8211081420ED001332C
S315080084B0042BF6D102B010BD0028FBD19DF8073079
S315080084C0002BF7D0A068FFF7C5FBF3E794F8353023
S315080084D0022BEFD12046FFF7CBFF637E2076022BD7
S315080084E0E8D194F8323003F0FF02002BE2D1A068FD
S315080084F00DF107018DF80720FFF7ECFB237E1BB172
S3150800850094F83330002BD7D00023A06884F8333092
S31508008510FFF7C0FBCEE700BF08C4002030B51049FE
S31508008520104A0B782BB9C2E90033C2E9023301239A
S315080085300B700C4C0023214651F8045B854208D089
S315080085400133042BF8D1002154F8043B1BB942F837
S315080085502100002003E001310429F5D1024830BD8D
S315080085602764012008C40020027000F010B50446F4
S31508008570FFF73CFB002104F10800FFF707FB014663
S3150800858020B904F10C00FFF701FB00B1004810BD4B
S315080085900E7000F010B590F8363004466BB9042218
S315080085A003685A61026893699907FCD523790C4ACE
S315080085B0B9335B011021995010BD022BFCD100681C
S315080085C0836CDB074CBF0521062162F041F923794C
S315080085D041F294425B0103F1A04303F57033E9E7E6
S315080085E000C00350F8B507460D461646FFF72EFF9E
S315080085F000286BD1152001F051FB0446FA6A9388CE
S315080086009BB213B197F83230E3B197F83630F3B925
S315080086103B689C6904F002041CB93846FFF7BAFFA8
S315080086200024012387F8343097F83630CBB92E4426
S31508008630B542386810D183699A06FCD51CB3002464
S315080086402046F8BD002CDAD0FFF76CFBD6E7022BE4
S31508008650E3D13B689C6CDDE715F8011B62F0A3F9D2
S31508008660E6E7022BEAD12E44B542386806D142F233
S315080086702003826C33EA0202FBD1DFE715F8011BFF
S3150800868062F0EBF8F0E797F8363053B910213B79EA
S315080086900F4A03F239135B01D15008223B685A612D
S315080086A0CEE7022BCCD13868836CDB074CBF092197
S315080086B0214662F0CDF842F2944210213B795B01E3
S315080086C003F1A04303F570339950B9E70446B7E7B9
S315080086D000C0035010B5044680B190F832302BB96B
S315080086E0FFF7C6FE10B9A068FFF7B4FA002094F8A1
S315080086F032300133DBB284F8323010BD0048FCE773
S31508008700027000F010B50446A0B190F832309BB163
S3150800871090F83230012B05D1FFF7AAFE10B9A068F0
S31508008720FFF7B8FA002094F83230013BDBB284F840
S31508008730323010BD0148FCE70148FAE7027000F044
S31508008740057000F037B590F835500446022D1DD156
S31508008750012290F82230457E817F9A403020164BC0
S3150800876025B900FB013303F5015305E0012D07D1B7
S3150800877000FB013303F582531A60002003B030BDB5
S31508008780247E00FB0133002CF4D1ECE7012DF4D153
S31508008790037E73B911238DF80730FFF79BFF2A462E
S315080087A020460DF10701FFF71DFF2046FFF7AAFF38
S315080087B0E3E71323EFE700BF00C003502DE9F043BA
S315080087C00546754F89B001AE0C460FCF0FC697E820
S315080087D0070086E80700002D00F0DC8024B96F4EFC
S315080087E0304609B0BDE8F0836022002128468BF0A8
S315080087F0CBF82846FFF792FE06460028F0D1237DDF
S3150800880085F83530236885F836002B60237B2B7175
S315080088102268634B9A42E2D129236B624FF4802384
S3150800882060498146C5E90413D4E90723AA62108082
S31508008830AA6A01215080AA6A5B4F908085F83000A9
S31508008840EB621880EB6A5880EB6A988085F83100ED
S3150800885085F8330063683A200393E389ADF814304A
S31508008860238AADF81230A37C8DF81030E37C8DF89E
S31508008870163005238DF8113000F0A6FC0121686A30
S3150800888000F0A2FC206801A98DF8046002F082F8C5
S315080088901422237B284639335B01FA50A17A237BBD
S315080088A0227A07EB431342EA0142C3F83827E17AF2
S315080088B0237B627A07EB431342EA0142C3F8302767
S315080088C0237A0121EB76A37AEB77637A2B77E37A1F
S315080088D085F82030637D6B77A37D85F82130E37DAD
S315080088E0AB77237E85F8223061F0B9FE064600286C
S315080088F07FF476AF61F063FF237D8046032B37D183
S315080089000222237BB9335B01FA500422236803F55C
S315080089108053DA65217EE27D237B42EA014241F2F9
S315080089202C7107EB43135A50227BA17D07EB4217A4
S3150800893041F22872637D43EA0143BB504FF0FF3290
S31508008940236803F500539A64237D2068032B0CBF24
S315080089500521042162F018F84FF44062236828467E
S315080089605A61FFF703FE0646404661F02EFF37E7D9
S31508008970022BE3D195F821000C49FFF741FAFFF7DE
S3150800898027FA4FF4007328462B8385F81A90FFF7C9
S31508008990D9FED3E7064E23E7B4D40908037000F0DE
S315080089A000C005500200040000C003509D84000862
S315080089B0027000F02DE9F04104468CB0884F04AEF1
S315080089C00D460FCF0FC697E80F0086E80F00102256
S315080089D0002168468AF0D8FF002C00F0FE8025B9F1
S315080089E0804E30460CB0BDE8F0816022002120465A
S315080089F08AF0CAFF2B6820462360022384F83630A3
S31508008A002B7C2371FFF78AFD06460028E9D12B7FC8
S31508008A10754A84F835302B68934240F0B88056235F
S31508008A206362724B23614FF4702363610123ADF8CF
S31508008A300630002384F8316084F83060D5E90912DD
S31508008A40A1620B80A16A3A204B80A16A684E8B808E
S31508008A5084F83030E2621380E26A01215380E26AC8
S31508008A60938084F8313084F8333002238DF81D3032
S31508008A70AB6806936B8AADF82030AB8AADF81E302A
S31508008A80AB7D8DF81C30AB690993CDF82CD000F07E
S31508008A909BFB0121606A00F097FB2B79002B00F005
S31508008AA081800121362000F08FFBD6F8203223F092
S31508008AB0070343F003031022C6F820322B7C4D4FE0
S31508008AC0204607EB4313C3F89424A97B2B7C2A7B07
S31508008AD007EB431342EA0142C3F8AC242B7CE97B3B
S31508008AE06A7B253342EA014207EB43135A602B7B24
S31508008AF00121E376AB7BE3776B7B2377EB7B84F80B
S31508008B0020306B7F6377AB7F84F82130EB7FA377C8
S31508008B1095F8203084F8223061F0A1FD0646002839
S31508008B207FF45FAF61F04BFE2A7F8046032A40D16F
S31508008B3041F2944102202B7C07EB431358502B7CBF
S31508008B4095F82000E97F07EB431341EA004103F556
S31508008B50A5531960297CA87F07EB411741F29C4170
S31508008B606B7F43EA00437B508DF8002006238DF87F
S31508008B7010302B79286804A963B361F081FE20467A
S31508008B80FFF7F4FC0646404661F01FFE29E71A4A3D
S31508008B9093427FF425AF57236362184B23614FF442
S31508008BA0801342E7D6F8203223F0070343F0010387
S31508008BB081E7022ADAD194F821001149FFF720F952
S31508008BC0FFF706F94FF4007320462383A676FFF7CE
S31508008BD0B9FDCBE761F050FED1E70A4E01E700BFC9
S31508008BE0D0D40908037000F00000015B01000F00F3
S31508008BF00080005000C0035000000A500100100019
S31508008C009D840008027000F0044BD3F88420D20635
S31508008C10FBD4D3F88400C0F381107047004000509D
S31508008C202E4B98424AD022D82D4B984240D014D881
S31508008C302C4B984239D00AD82B4B984232D02B4B22
S31508008C4098422FD02A4B98422CD000207047294BA7
S31508008C509842FAD1284B186F7047284B98422AD069
S31508008C60274B9842F1D1244BD3F880007047254B07
S31508008C7098422BD009D8244B984223D0234B9842AC
S31508008C80E3D11D4BD3F88C007047214B984221D075
S31508008C9003F5740303F510539842D6D1164BD3F84F
S31508008CA098007047144B986D7047134B586E704771
S31508008CB0114B586F7047104B986F70470E4BD3F88F
S31508008CC0840070470C4BD3F8880070470A4BD3F8DA
S31508008CD090007047084BD3F8940070470048E801A5
S31508008CE00024F400C0CF6A0080841E0000093D00FD
S31508008CF040420F00405DC6000080E00FC0EA210137
S31508008D0080BA8C01007E560380D54302006CDC02D3
S31508008D100090D00338B5104B0546D3F880300C4682
S31508008D2003F00303022B0BD0032B0DD0012B0FD11D
S31508008D30FEF71AFD0E2305B1286004B1236038BD7D
S31508008D40FEF75CFD0723F6E7FEF702FD0623F2E7CA
S31508008D5000231846EFE700BF0080005038B5174BD0
S31508008D600546D3F820310C4603F00703013B052BD3
S31508008D7020D8DFE803F0030B130F171BFEF7E8FCF8
S31508008D80052305B1286004B1236038BDFEF71CFD34
S31508008D900323F6E7FEF732FD0723F2E7FEF72AFD7F
S31508008DA00223EEE7FEF7D4FC0623EAE7FEF70CFDFE
S31508008DB00423E6E700231846E3E700BF00800050D7
S31508008DC038B5174B0546D3F828310C4603F0070388
S31508008DD0013B052B20D8DFE803F003131B0F0B1705
S31508008DE0FEF7B6FC052305B1286004B1236038BD3B
S31508008DF0FEF7AEFC0623F6E7FEF700FD0723F2E7CB
S31508008E00FEF7E2FC0323EEE7FEF7DEFC0423EAE7BF
S31508008E10FEF7F0FC0223E6E700231846E3E700BF67
S31508008E200080005073B50D460021114B0191D3F80F
S31508008E308041064604F00304022C13D0032C0CD000
S31508008E40012C13D101A8FFF789FF10240EB1019B4D
S31508008E50336005B12C6002B070BDFEF7CFFC072465
S31508008E600190F3E7FEF7C6FC0190EFE70C46EDE745
S31508008E7000800050002337B50193154B0546D3F8FB
S31508008E8020320C4603F00703013B032B1ED8DFE80C
S31508008E9003F0020E1318002101A8FFF791FF122311
S31508008EA00DB1019A2A6004B1236003B030BDFEF704
S31508008EB0A5FC07230190F3E761F0BAFA0A230190AB
S31508008EC0EEE7FEF7DDFC09230190E9E70023E7E773
S31508008ED00080005038B5104B0546D3F840310C4693
S31508008EE003F00303022B0BD0032B0DD0012B0FD15C
S31508008EF061F09EFA0A2305B1286004B1236038BDE3
S31508008F00FEF7BEFC0923F6E761F095FA0C23F2E7B3
S31508008F1000231846EFE700BF00800050002337B54E
S31508008F200193164B0546D3F860320C4603F0070347
S31508008F30013B032B1FD8DFE803F0020E19140021AA
S31508008F4001A8FFF70BFF10230DB1019A2A6004B19F
S31508008F50236003B030BD002101A8FFF7BBFF112332
S31508008F60F2E7FEF74BFC07230190EDE7FEF742FC1C
S31508008F7002230190E8E70023E6E700BF00800050DF
S31508008F80002337B50193164B0546D3F894320C46A1
S31508008F9003F00703013B032B1FD8DFE803F0020E9B
S31508008FA01914002101A8FFF7D9FE10230DB1019A63
S31508008FB02A6004B1236003B030BD002101A8FFF781
S31508008FC089FF1123F2E7FEF719FC07230190EDE765
S31508008FD0FEF710FC02230190E8E70023E6E700BF4E
S31508008FE00080005038B5134B0546D3F800320C46BE
S31508008FF003F00703013B032B18D8DFE803F0020A46
S315080090000E1261F015FA0A2305B1286004B123602F
S3150800901038BDFEF735FC0923F6E761F00CFA0C2398
S31508009020F2E7FEF7BBFB0F23800AEDE7002318469D
S31508009030EAE700BF0080005038B5134B0546D3F861
S3150800904008320C4603F00703013B032B18D8DFE868
S3150800905003F0020A0E1261F0EBF90A2305B1286043
S3150800906004B1236038BDFEF70BFC0923F6E761F06F
S31508009070E2F90C23F2E7FEF791FB0F23800AEDE7EE
S3150800908000231846EAE700BF0080005038B5104BA9
S315080090900546D3F840320C4603F00303022B0BD0E7
S315080090A0032B0DD0012B0FD161F0C2F90A2305B1AC
S315080090B0286004B1236038BDFEF7E2FB0923F6E712
S315080090C061F0B9F90C23F2E700231846EFE700BF71
S315080090D00080005038B5104B0546D3F860310C4671
S315080090E003F00303022B0BD0032B0DD0012B0FD15A
S315080090F061F09EF90A2305B1286004B1236038BDE2
S31508009100FEF7BEFB0923F6E761F095F90C23F2E7B3
S3150800911000231846EFE700BF00800050B0F5207F17
S315080091201FD009D8B0F5007F15D003D868B1B0F5BF
S31508009130C07F0AD000200CE0B0F5607FFAD10B4B57
S31508009140D3F88000C0F3011003E0084B186FC0F392
S31508009150033001307047054BD3F89000C0F3046024
S31508009160F7E7024B186FC0F38020F2E70080005043
S3150800917002464FF48030104B10B598660020FFF772
S31508009180CDFF504341F671320C4BDC69DA635A68FD
S3150800919004F4803422F4401259B9094988428CBF34
S315080091A04FF480100020104358600CB10022DA6397
S315080091B010BD0449F2E700BF0090005000000350BC
S315080091C0005A6202002D3101430905D0012B0DD04A
S315080091D0022B094B18BF002300F01F0041B103F50D
S315080091E08053012202FA00F018607047034BF3E738
S315080091F003F50053F5E700BF68800050648000500F
S315080092001FB5002180280446CDE9001100F0A5808D
S3150800921035D85E2846D85E2844D8DFE800F0A24351
S315080092204343434343434343434343434343434300
S315080092304343434343434343434343434343A2AA2A
S31508009240A2AAB9B9B9B9B9AAC34DD9714DAAAAAAD8
S315080092504343434343434343AAAAAA79E3AA43435E
S315080092604343434343434343434343B9A2A2A2DE92
S315080092704D4DE8885EBE434343434399A200B0F58B
S31508009280B06F00F08F802DD8B0F5207F71D00CD844
S31508009290B0F5C07F65D0B0F5007F65D0B0F5807FAA
S315080092A000F08580009804B010BDB0F5607F6AD0E4
S315080092B00DD8B0F5407FF5D1FEF770FA02464FF4A7
S315080092C02070FFF72BFFB2FBF0F0400847E0B0F53F
S315080092D0806F5DD0B0F5A06FE4D100216846FFF736
S315080092E0C9FDDFE7B0F5106F77D016D8B0F5E06F97
S315080092F078D00AD8B0F5C06F6AD0B0F5D06FD1D1A2
S3150800930000216846FFF76EFECCE7B0F5F06FC9D1CD
S3150800931000216846FFF7DEFEC4E7B0F5406F3CD093
S3150800932013D8B0F5206F62D0B0F5286FBAD10021F6
S31508009330314B0391D3F8703203F00303012B02D1AA
S3150800934003A8FFF7C7FD039B3BE0B0F5486FA9D11B
S3150800935000216846FFF714FEA4E7FEF705FA009019
S31508009360A0E7FEF71BFAFAE7FEF7FEF902462046E3
S3150800937004E0FEF713FA02464FF42070FFF7CEFE1C
S31508009380B2FBF0F0EBE701A8FFF7C4FC019AEEE7A1
S3150800939000216846FFF7E2FC84E700216846FFF7EC
S315080093A00FFD7FE700216846FFF73CFD7AE74FF09F
S315080093B0E02302911B695B0705D5FEF7EFF90290DA
S315080093C0029B00936EE703A902A8FFF783FDF7E760
S315080093D000216846FFF77EFD64E700216846FFF72F
S315080093E02BFE5FE700216846FFF750FE5AE700218B
S315080093F06846FFF793FD55E70080005008B58020C2
S31508009400FFF7FEFE034B98429EBF4FF48032024B95
S315080094101A6708BD005A620200A000501FB5002353
S31508009420B0F5807F019300F0C38064D85D2855D8D5
S315080094304C2807D82D2847D823282BD8019805B0BB
S315080094405DF804FB4D381028F8D801A353F820F02E
S31508009450A79500083D9400083D9400083D9400082F
S31508009460599500083D9400083D9400082D9600087B
S31508009470779500081D950008239600083D94000876
S315080094803D9400083D9400083D9400083D9400086A
S315080094903796000824380928D0D801A353F820F0B5
S315080094A0A7950008A7950008A7950008A79500089E
S315080094B0A79500083D9400089D9500083D9400086E
S315080094C039950008DD9500083D2800F082803E2881
S315080094D0B4D1002001A9FFF7D9FDAFE78028ADD1A7
S315080094E05A4B1B6F03F00703013B032BA6D8DFE893
S315080094F003F05350878FB0F5F06F6AD021D8B0F5D6
S31508009500B06F4BD00FD8B0F5607F00F0858095D34B
S31508009510B0F5806F47D0B0F5A06F8FD1002001A9B4
S31508009520FFF7A8FC8AE7B0F5D06F57D0B0F5E06F23
S31508009530CFD0B0F5C06F81D1002001A9FFF7CAFCD2
S315080095407CE7B0F5206F71D00BD8B0F5086F4AD01C
S31508009550B0F5106F7FF472AF002001A9FFF76CFD1C
S315080095606CE7B0F5406F5CD0B0F5486F63D0B0F5E6
S31508009570286F7FF463AF0021344B0391D3F8703220
S3150800958003F00303012B5BD0022B14BF0B461523F4
S3150800959000E00523019351E70223FBE7002001A918
S315080095A0FFF740FC4AE7002001A9FFF7D7FB45E78C
S315080095B002934FF0E0231B695B0705D5FEF7EEF82B
S315080095C00D230393039BE5E703A902A8FFF782FC93
S315080095D0F8E7002001A9FFF77DFD2FE7002001A984
S315080095E0FFF700FD2AE7194BD3F8003103F0030310
S315080095F0022B07D0032B09D0012B0BD1FEF7E4F879
S315080096000323C7E7FEF73CF90923C3E760F00EFF1B
S315080096100823BFE70123BDE7184601A9FFF77AFB30
S315080096200CE7002001A9FFF7CBFB07E7002001A9FB
S31508009630FFF774FC02E7002001A9FFF7A1FCFDE68D
S3150800964003A8FFF747FC1123A4E700BF00800050DA
S3150800965008B5FFF7E3FE092811D00A38012811D802
S315080096604FF48002094B4FF6FF705A6603F5D8335C
S315080096705B6A13F0010F18BF4FF4FA7008BD044B6C
S315080096801888FBE74FF6FF70F8E700BF0090005018
S315080096900416002038B504468020FFF7BFFE0328CD
S315080096A000F083804FF48012504B4FF0A0615A6649
S315080096B045F60E034E4AC2F880304E4B99624FF477
S315080096C0803103F580539962916D11F48031FBD195
S315080096D0D4E900031B0543EA0063E07B0343207BD0
S315080096E043EA0043607B43EA0033A07B43EA8013E6
S315080096F013619069D4E904531B0643EA856300F0B5
S3150800970000400343A07E0343207E43EA0043607E75
S3150800971043EA00239361136AE269E57E002A0CBFD7
S315080097200020082023F00F03134343EA8503304A39
S3150800973003431362E369304D002B37D194F8243084
S31508009740916A94F82000DB000D4043EA401394F830
S3150800975021102B4343EA011343F480339362274BCA
S31508009760916D33EA0101FBD14FF080712148816286
S315080097701369A56823F4700343EA055313614FF090
S315080097800043836194F822300BB91D4B996294F813
S3150800979023301BB94FF48032194B9A6294F825305E
S315080097A01BB1134B174AC3F8802038BD022B08D1CA
S315080097B01161154891614FF408524FF47F4160F0EA
S315080097C0BEFF0B4994F822308A6A94F820001B06DB
S315080097D0154043EA401394F824202B4343EAC20376
S315080097E094F8232043EA02438B62D7E7009000509F
S315080097F00040005A0050005AC7FFFEFE0300010051
S315080098000060005AF1A7FFFF3440005A4FF4803138
S3150800981010B50E4B0E4A9C6A9162996D8907FCD564
S315080098204FF0807191620B4A996992F9002021F4F0
S315080098307F010244000280B221F47F41084382F38B
S31508009840080240EA024098619C6210BD0040005A36
S315080098500050005A64180020014B93F90000704725
S31508009860641800204FF400011B4A437810B551666E
S315080098704FF4D151022402F5B832516217494F2BE1
S315080098804C604FF0010428BF4F2301F580514C600E
S315080098901169C903FCD4017843EA01235361D0E96D
S315080098A001131B0143EA0123417B0B43017B43EA76
S315080098B041039360C37B817B1B0143EA4113417CCF
S315080098C00B43017C43EA41035360837C13B16FF475
S315080098D0D153536210BD00BF0090005000100250D3
S315080098E0014B1880704700BF041600204FF4800211
S315080098F008B5184B5A660223174A5360936813F43F
S315080099008033FBD1012822D1FDF75EFF134B984225
S3150800991015D003F5122303F5F863984213D0104BBC
S3150800992000EB8002400AB3FBF0F0520A0A4BDA62F7
S31508009930012218635A620022074B5A6008BD45F691
S315080099407A10084AF2E745F61A00074AEEE7536224
S31508009950F1E700BF009000500040025000F04902B5
S3150800996064666666D8B80500BBCF0500B0F5207FEB
S3150800997010B50C4657D008D8B0F5007F48D003D8A4
S3150800998030B3B0F5C07F23D010BDB0F5607FFBD1F2
S3150800999029492A48D1F8FC2012F080721EBFD1F856
S315080099A0FC3023F08073C1F8FC30D0F88030611E9B
S315080099B023F0300444EA0114C0F88040002AE3D0BA
S315080099C01D4AD2F8FC3043F08073C2F8FC30DBE75E
S315080099D060F0C6FE60F0D2FE4FF48031184B174A8D
S315080099E01967136F611E23F4704444EA013414673F
S315080099F0FDF7D4FE0446FFF707F9C0F10201204639
S31508009A0060F0B6FE00F02EF8BDE81040FFF7F6BC91
S31508009A100A4A0139D2F8903023F0F85444EA01642E
S31508009A20C2F89040B0E7054B013C196F21F48061FC
S31508009A3041EA84241C67A7E700ED00E00080005097
S31508009A400090005008B50121022000F08FF960F05F
S31508009A5087FE60F093FE4FF48032014B1A6708BD0B
S31508009A600090005008B54FF4C070FFF7C9FBBDE879
S31508009A700840044988428CBF022101214FF4207016
S31508009A80FFF774BF80F0FA024FF4C02201212DE9D6
S31508009A90F04105466A4B5A666A4A03F598335C688C
S31508009AA051605E6816F00206FBD1FFF7ADF8012893
S31508009AB0286805D1644B984202D90020BDE8F08198
S31508009AC0624A002311461768B84202D35768B8425B
S31508009AD005D90133192B02F11002F4D1002301EB49
S31508009AE00313D3E9028028B1FFF79AF800F07F0044
S31508009AF048EA00088020FFF791FC05285FD160F04E
S31508009B002FFE60F03BFE4FF480324D4B4FF4C07091
S31508009B101A67FFF703FB012806464CD102214FF4CA
S31508009B20C070FFF723FF01274948C16811F00601F5
S31508009B30FBD1D0F808C0C0F80880836808F4F8128A
S31508009B4003F4F8139A424ED1AA88EB8843EA0243F3
S31508009B50404AD360AB68032B33D1A2F5A032D2F8C2
S31508009B60003123F0030343F00103C2F800312B7DD3
S31508009B70287B002B6B7D14BF04220022002B18BF04
S31508009B8040212B694FF0000843EA40031343314A4A
S31508009B900B4393602868FDF7E1FD0722294B1A61FC
S31508009BA00122A3F580535A60A3F580531C6914F06B
S31508009BB00704FBD01EE0022801D10421AFE70027E5
S31508009BC0B2E7092B07D1244AD2F8003123F0030360
S31508009BD043F00203C9E7082BC9D11F4AD2F800315E
S31508009BE043F00303C1E714F001044FF00108C0F87D
S31508009BF008C0D2D18020FFF711FC052817D127B15C
S31508009C0031464FF4C070FFF7B1FEFDF7C7FD0546B4
S31508009C10FDF79EFDFDF79CFDFEF7F6FFC0F102017C
S31508009C20284660F0A5FDFFF71DFFFFF7E7FBB8F133
S31508009C30000F7FF442AF631E584258413EE700BF0B
S31508009C400090005000E00150005A6202F0D4090862
S31508009C500000015000C00150008000500028ABBF32
S31508009C6000F16040054B00F5614000F00F00ACBF05
S31508009C7090F80003185C0009704700BF14ED00E077
S31508009C80054B420953F8223000F01F0023FA00F072
S31508009C90C04300F00100704700E100E0014608B546
S31508009CA0EFF31083DB0702D50122104608BDFFF744
S31508009CB0E7FF02460028F7D10846FFF7CFFF01461F
S31508009CC0EFF3118313B1B0EB131FEDD2074B5B68AB
S31508009CD0C3F30803002BE8D0103B58B2FFF7BEFFCA
S31508009CE088428CBF00220122DFE700BF00ED00E0BA
S31508009CF0024A536B0342FCD1704700BF004009502B
S31508009D0010B50A4A0446136943F00403136160F068
S31508009D105FFD60F05EFD30BF60F05DFD60F05AFDEE
S31508009D201CB9BDE81040FDF739BD10BD00ED00E0D7
S31508009D3010B5084A0446136943F00403136160F03A
S31508009D4047FD30BF60F046FD1CB9BDE81040FDF781
S31508009D5025BD10BD00ED00E0034A0179D36E23F05E
S31508009D6030030B43D366704700400050F8B50446ED
S31508009D701C4BD3F88420D106FBD4D3F88430C3F324
S31508009D8081139C422CD0FDF7EFFC012C064602D12C
S31508009D90214660F0EDFC60F00BFD4FF00072124BAF
S31508009DA007465A66204660F017FD4FF480630D4D4E
S31508009DB0621E93402B676B6E9A0103D4D5F88430E4
S31508009DC09B060AD5384660F0F7FC022C08D13046C7
S31508009DD0BDE8F840002160F0CBBCD5F88430EAE74E
S31508009DE0F8BD00BF004000500060005007B518B924
S31508009DF00191FDF7B9FC0199064B1B7843B1064B57
S31508009E00984205D8012003B05DF804EBFFF7AEBF12
S31508009E100220F8E728640120005A62020278034B00
S31508009E20012100201A70FFF7E1BF00BF2864012056
S31508009E304FF00042154B10B55A664AF6CD33144911
S31508009E404C6C0B6404F0010488B90120FFF750FF3D
S31508009E504B68DB0704D50F4B58600B6BD807FCD54E
S31508009E6014B10B4B0C4A1A6492F04AFE10BD0B6BE8
S31508009E701A07FCD42022074B9A620122A3F58053C5
S31508009E805A60034A936A9B06FCD5E9E7009000509E
S31508009E9000400950006009503254FFFF4FF000425D
S31508009EA038B5164B01465A664AF6CD33144C154A50
S31508009EB0656C236443780B205B0043F00103D3638E
S31508009EC0FFF716FF63688A7823F4F87343EA0213E8
S31508009ED06360CA784B7943EA0223A3600A798B79CF
S31508009EE043EA022323610878FFF7A2FFEB0744BF82
S31508009EF0054B236492F004FE012038BD0090005003
S31508009F0000400950004000503254FFFF4FF0004215
S31508009F1070B5124B04465D6E03F580535A664AF6D1
S31508009F20CD330F4980204E6C0B64FFF7E1FE0B6AB8
S31508009F3023F00F030F2C94BF234343F00F030B6248
S31508009F40F30744BF074B0B64002DA2BF4FF0004236
S31508009F50054B5A6692F0D4FD70BD00BF00800050D4
S31508009F60004009503254FFFF00A000504FF0004255
S31508009F7070B5104B04465D6E03F580535A664AF673
S31508009F80CD330D4980204E6C0B64FFF7B1FE0B6A8A
S31508009F9023F4F85343EA04230B62F30744BF074B41
S31508009FA00B64002DA2BF4FF00042054B5A6692F093
S31508009FB0A7FD70BD00800050004009503254FFFFD5
S31508009FC000A0005010B560F00CFC042300F5805189
S31508009FD000F500520B6113610B6113610B6113618C
S31508009FE00B611361202341F2020103610023C36060
S31508009FF0836041614FF4A02183618365416205490D
S3150800A000C36103628362C36243630365D164036306
S3150800A01010BD00BFFF3F0D03F8B5054614460846B8
S3150800A02041B9344B9D422FD0334B9D4208BF572030
S3150800A030FFF7E6F8AB68DE072ED5B0FBF4F46E68DA
S3150800A040013C16F0010625D02821284660F0C5FBFC
S3150800A050AB6C99071AD1AB6CDA0719D4AB6C13F051
S3150800A060020F0CBF00270627284660F0BAFB2869AE
S3150800A07020F07F4040EA04642C61DEB13946284668
S3150800A080BDE8F84060F0E4BB5620D1E70527EBE7CA
S3150800A0900927E9E73746EAE76B68AB6DAF68DB0780
S3150800A0A007F0E00748BF6400402F1BD003D8DFB194
S3150800A0B0202F1BD0F8BD602F1AD0802FFAD1012689
S3150800A0C004FB06F34101B1FBF3F30C4A203B02EA19
S3150800A0D0C3022846012160F080FB2A63BDE8F840E8
S3150800A0E060F07BBB0626EBE71026E9E70826E7E7DC
S3150800A0F00426E5E70000015B00000A50F8FF7F0030
S3150800A100F8B51E46436804460D4617461BB140F689
S3150800A110FF7160F062FB2046FFF754FFE9896B7B0D
S3150800A12062690B43298A22F44C520B4322F00F0230
S3150800A13013436361A368297B2A7E23F0804323F0B7
S3150800A140E203114319436B691943A160AB681BB954
S3150800A150A36843F00043A360EA69002A6BD0A368AA
S3150800A160127A43EA8253A360EA69A368927A43EAB9
S3150800A1704243A360EB69A2689B8803F4C043134378
S3150800A180A360EA69A368527843EA8203A360EA698E
S3150800A190A368527B43EAC203A360EA69A368927B79
S3150800A1A043EA0213A360EA69A368927843EA822322
S3150800A1B0A360EA69D37991795B0243EA8123E36074
S3150800A1C0EB69674A1B7803F0FD03012B02BFE368BE
S3150800A1D043F00403E360EB691B78023B012B614BF8
S3150800A1E07AD8944276D0604A94420CBF01224FF046
S3150800A1F0FF3203EB421341F2944202219950EB6974
S3150800A2005A7A04F580539A62EB695B7A1BB1E36864
S3150800A21043F40063E360EB69DB7A63B1E36843F414
S3150800A2200043E3604E4B9C4265D1EB694F4A1B7B6A
S3150800A23003F00F0353673FB197F8203004F58050B9
S3150800A240002B63D001230362002E30D02B7E04F549
S3150800A250805013B14FF40043836596F82120404B94
S3150800A260102A434961D89C425DD03F4B9C420CBFA3
S3150800A27001234FF0FF330127CF54768C3849B6F5C2
S3150800A280006F3C4B5FD88C425BD037498C420CBF81
S3150800A29001214FF0FF3101275F54A36D324323F4A8
S3150800A2A0F95323F01E031343A36501238365052190
S3150800A2B0204660F0B0FAAA6812B16968FFF7ACFEEA
S3150800A2C02046297860F0C4FAA36CDB4313F4405F98
S3150800A2D0FAD1F8BD00228CE794420AD0224A944269
S3150800A2E00CBF01224FF0FF3203EB421342F29442B5
S3150800A2F083E70022F8E71C4B9C429CD1EB691B4A7A
S3150800A3001B7B03F00F03C2F8803094E7E36997F8E4
S3150800A310221097F8212023F009030A431A4342F032
S3150800A3200102C26190E70023A5E79C4207D00E4BC5
S3150800A3309C420CBF01234FF0FF3302279CE7002302
S3150800A340FBE70021A7E78C4207D007498C420CBFE0
S3150800A35001214FF0FF3102279EE70021FBE700BFEE
S3150800A3600000015B00C0035000000A500090035033
S3150800A3702B6401202964012070B5436804460D4604
S3150800A3800E691BB140F6FF7160F027FA2046FFF709
S3150800A39019FE22696B7BA97B22F087020B431343C4
S3150800A3A043F0800323611EB32A692369117823F0D9
S3150800A3B0F8030B43117F43EAC113117943EA4113AA
S3150800A3C0517AD27B43EA011343EA82132361E26896
S3150800A3D0296922F0F04222F47022D1E905300343BC
S3150800A3E013430A7B43EA82234A7B43EAC233E36088
S3150800A3F0A368EA7B23F00303134343F00103A36036
S3150800A4003EB32B69A2685B8803F4C0431343A36079
S3150800A4102A69A368527943EA8223A3602969626A92
S3150800A4208B79C8791B01000203F0700300F4E06021
S3150800A43022F4772222F4EE62034313430A7A1203C4
S3150800A44002F4E04213434A7F120402F470221343D3
S3150800A450636263692A7B23F00F0313436361C6B102
S3150800A4602B695B89A3612B695A7B3AB11E4A9442D0
S3150800A47025D19B7B1D4A03F00F0353672B69DA7BB3
S3150800A4803AB1194A944225D11B7C184A03F00F03A6
S3150800A4901367D5E901122046FFF7BEFD05212046C0
S3150800A4A060F0B9F9282160F098F92B78A36360F079
S3150800A4B094F9A36CDB4313F4405FFAD170BD0C4AE0
S3150800A4C0944201BF9B7BA2F5CE2203F00F03C2F88C
S3150800A4D08030D3E7064A944201BF1B7CA2F5CE2200
S3150800A4E003F00F03D367D4E70000015B0090035025
S3150800A4F000000A50072AF7B501F0030614461F465E
S3150800A5004FF003012CD89500A94000FA05F21C4823
S3150800A510019160F0B7F901991A4806FA05F260F058
S3150800A520B1F9194B19499DF82000002F08BF1946A3
S3150800A530012303FA04F40C60154B1649002808BFDA
S3150800A5400B461C60144B1031C3F820449DF82400B8
S3150800A550A3F6DC33002808BF0B461C6003B0F0BD29
S3150800A560A2F10805AD00A94000FA05F20B480191D1
S3150800A57060F088F901990A4806FA05F2CFE700BFA4
S3150800A58000C4035008C4035010E4035010D4035009
S3150800A59014D4035014E4035000E0035004C40350D9
S3150800A5A00CC403502DE9F04105460F461E46904659
S3150800A5B04AB101233022194C8B4002FB00443EB3BA
S3150800A5C004F5825423600F21072F05EB450388BF46
S3150800A5D0A7F108044FEA0313114895BFBC00A4006D
S3150800A5E004330C3308FA04F2A140184460F04AF91F
S3150800A5F0B8F1000F0AD101213020084A01FA07F7FD
S3150800A60000FB05223EB102F582521760BDE8F081D3
S3150800A61004F50154D6E702F50152F6E700C00350E7
S3150800A62030C00350044A054B002918BF13460122BF
S3150800A63002FA00F018607047402004504010045099
S3150800A64010B5012104462020FEF7BEFD0121212078
S3150800A650FEF7BAFD0122114B5A60227812069A605B
S3150800A6606178A27842EA01429A61FF229A62002240
S3150800A6709A631A644FF000425A654FF0FF324FF45E
S3150800A680001103F500531A65054AC2F88011E378EC
S3150800A6901B01DBB282F81533116010BD00000450AF
S3150800A6A000E100E070B50125C3B29D401E4B0C4683
S3150800A6B01D658300096803F1A04303F588235960E3
S3150800A6C030211A4E637B01FB00600366E37AA17AA8
S3150800A6D01B0543EA0143217B22F0030243EA415367
S3150800A6E0C365026760F06BF8736D2B437365237A55
S3150800A6F013B1336C2B433364637A13B1B36B2B43B7
S3150800A700B3632279A37943EA0243074A93616179DD
S3150800A710E37943EA014306498B61044B55639D641B
S3150800A720BDE8704060F051B80020045000000450A5
S3150800A7300010045010B50124C0B2844060F03FF800
S3150800A740044B5A6D22EA04025A659C62BDE8104021
S3150800A75060F03BB80000045010B50124C0B2844034
S3150800A76060F02DF8074BDA6A224209D15B6B34EAAE
S3150800A77003030CBF0124002460F027F8204610BD0F
S3150800A7800024F9E700000450F8B50125C3B20446D1
S3150800A7909D4060F014F83022094B1E6D5F6B02FB7A
S3150800A7A004335C6E60F011F83D4206D1C4F30A101A
S3150800A7B008B9354200D10130F8BD0020FCE700BFDA
S3150800A7C0000004504FF48032054B9A6641F6713208
S3150800A7D003F51C33DA63012203F50053DA60704788
S3150800A7E00090005041F671320121064BDA6303F5F9
S3150800A7F00052D1600022DA634FF48032A3F5183391
S3150800A8009A66704700000350013831289ABF024BF8
S3150800A810185C0020704700BF80D60908021E30B5B4
S3150800A8204FF000000CBF1025042547F607740849A9
S3150800A83052B9831D51F82330234023B10130854294
S3150800A840F6D14FF0FF3030BD00F11603F2E700BF36
S3150800A8500080035010B5C2F30623044602F007022F
S3150800A86041B942EA03220B4B42F44022063443F82C
S3150800A870242010BD1846114660F015F80146184602
S3150800A880FFF7C2FF034B41EA0020163443F82400C1
S3150800A890EFE700BF00800350014BD3F894007047E0
S3150800A8A0004000504FF48032064B5A6603F5E62303
S3150800A8B09B69C3F38512827003F03F021B0B42703B
S3150800A8C0037070470090005040F6B732064B5B683D
S3150800A8D09BB293429FBF4FF47A72B3FBF2F3034ADB
S3150800A8E0D05C88BF002070470080E00FB2D6090808
S3150800A8F070B5054616461C4621B94FF42070FEF77A
S3150800A9007FFC0146402C1BD003D8DCB1202C1BD081
S3150800A91070BD602CFCD1042303FB06F2560806EB37
S3150800A9204113B3FBF2F3094A203B02EAC303AA68C0
S3150800A93022F06002AA60AA681443AC60EB61E7E7FC
S3150800A9400623E9E71023E7E70823E5E7F8FF7F0092
S3150800A950012100F5805310B5596040F6AA6341F20B
S3150800A960050243610023094C8360C365C26000F594
S3150800A97000520361C361C3649464054C8365A042B5
S3150800A98004BF03654365516010BD00BFFFFF0100AA
S3150800A99000C0055070B50C46FFF7DAFF012300F535
S3150800A9A080567360A37C05461BB1836843F08043D9
S3150800A9B08360E37C5BB1234B9D4202BF227DA3F5F6
S3150800A9C01033C3F8C821EB6D43F08003EB65228A88
S3150800A9D0637B28461343E2891343EB60237BD4E960
S3150800A9E00112FFF785FF637D1BB1AB6843F4803323
S3150800A9F0AB60A37D1BB1AB6843F40043AB60E37D5A
S3150800AA00227E1B07120502F4E00203F0E04313431B
S3150800AA10AB65637E023B012B4FF0020394BF0A4AE3
S3150800AA200A4AC2F82037637E03F0FD03012B4FF074
S3150800AA30040316BF05F50052F365D36523786B61E9
S3150800AA4070BD00BF00C0055000D0035000E00350A1
S3150800AA5038B50D46FFF77CFF012200F580535A6092
S3150800AA60A97B2A8A002914BF4FF4806100218368D4
S3150800AA7042F0010213430B4383602A7D8368002A50
S3150800AA8014BF4FF00052002213438360AB7C044688
S3150800AA905BB1194B984202BFEA7CA3F51033C3F8A1
S3150800AAA0C821C36D43F08003C3652B7B204643F45E
S3150800AAB08053E360D5E901125FF056FF6B7B0BB15B
S3150800AAC0102363616B7D1BB1A36843F48033A360D5
S3150800AAD0AB7D1BB1A36843F40043A360EB7D2A7EDC
S3150800AAE01B07120503F0E04302F4E0021343A365D3
S3150800AAF02B78636138BD00BF00C00550054B9A68C6
S3150800AB009107FCD45A689207F9D4DA69002AF6D173
S3150800AB10704700BF00800A5008B5FFF7EFFF012213
S3150800AB20024B03F580514A601A6108BD00800A503D
S3150800AB30074B5A68012A0AD15A68D20702D5DA6938
S3150800AB40002AF9D102221A610122024B5A60704783
S3150800AB5000800A5000A00A5010B5064CFFF7CEFF39
S3150800AB606368012B03D1FFF7E3FFFFF7C7FF0378FD
S3150800AB70E36010BD00800A50E8B94A680B7812B144
S3150800AB80127843EAC2034A78002A14BF0222002236
S3150800AB9013438A6812B1127843EA82138A78002A24
S3150800ABA014BF042200221343CA6812B1127843EA7A
S3150800ABB04223014A9364704700800A5008B9014B42
S3150800ABC05964704700900A5008B9014B5964704798
S3150800ABD000A00A5008B9014B1964704700A00A5032
S3150800ABE010B9024B186C70470020704700800A5055
S3150800ABF048B911B1012903D07047044BD86C704786
S3150800AC00024B186D70470020704700BF00800A503D
S3150800AC1040B911B1012903D07047034BDA64704774
S3150800AC20014B1A65704700BF00800A5038B50446C4
S3150800AC30054D91F0D3FF0FCC0FC594E8030085E8C6
S3150800AC400300002038BD00BF18C4002047F6FF7374
S3150800AC509A42F0B567D0022967D8354DCF0015F866
S3150800AC60313005EBC100012B847813D10025C37858
S3150800AC701B1B9D4202D3E018C0B2F0BD591B4668A3
S3150800AC80A3EB510136F911609642D4BF0D4601F186
S3150800AC90FF33EEE740680028EFD0B0F90030934262
S3150800ACA004DBB0F902309342B8BF134682883D44AC
S3150800ACB0FF2A19BFC8214FF0280CB0F90610B0F9C1
S3150800ACC008C0A1EB03020CBF0126002692FBFCF28A
S3150800ACD06D78324412B2954201DD002A01DA6A1E05
S3150800ACE012B24FF47A7700EBC206F188B6680132E1
S3150800ACF013FB016112B221EAE17101F5FA7195427D
S3150800AD00B1FBF7F104DD00EBC206B6888E42EAD243
S3150800AD1000EBC20232F8040C884228BF0846A0425B
S3150800AD2038BF2046A8E7FF20A7E70020A5E700BF11
S3150800AD3018C400200229F0B553D82B4800EBC104EB
S3150800AD4010F83110636801290FD1E078A478904291
S3150800AD5094BFC4EB0001C4EB0201001BCAB28242D5
S3150800AD60C8BF002233F91200F0BD002B39D0A178F4
S3150800AD70914202D3B3F90200F6E7E178B3F900008D
S3150800AD809142F1D999886478A1F1FF06013C714294
S3150800AD9003F10405E4B2714103F10C071FFA82FCC2
S3150800ADA0CEB2B44216D805EBC1014FF47A756A43A0
S3150800ADB0B1F902404968521A04EBD47102EB6102F8
S3150800ADC092FBF4F29042CFDBB3F902009042CBDC5F
S3150800ADD010B2C9E737F831E04E1CE645E3D33146F1
S3150800ADE0DEE70248C0E700BF18C400200080FFFF66
S3150800ADF00148FFF71BBF00BFB8D6090800487047CF
S3150800AE00061600207FB50222084B0949CDE9012321
S3150800AE104FF04073CDE90313052301A94FF0FF3026
S3150800AE20059391F084FF07B05DF804FB006A1800EB
S3150800AE30000304002DE9F84304F070FD01280746D5
S3150800AE4005D904F09FFD061E02DA01241EE000263D
S3150800AE50DFF8808098F8003003F0FF0493BB4FF0CA
S3150800AE605009194D05F110032846C5E90044AB60A1
S3150800AE70C5F80C9004F028FF286650B90124012F64
S3150800AE8004D9304604F0A0FD0028DEDB2046BDE8E4
S3150800AE90F8830E4D214605F110032A460120C5E91F
S3150800AEA00044C5E9023904F0CFFF28660028E5D03A
S3150800AEB03022074B83F8412302229A60012388F83F
S3150800AEC00030DCE70024DAE794C4002030C4002010
S3150800AED000E100E02D64012008B504F01FFD0228FA
S3150800AEE00FD1094B4FF0FF31186E04F02FFF0028E1
S3150800AEF014BF0120002003D14FF48062034B9A66E9
S3150800AF0008BD0020F8E700BF94C400200090005058
S3150800AF104FF4806208B5084B9A6604F0FFFC0228D5
S3150800AF2007D1064B186E04F041FF003818BF012000
S3150800AF3008BD0020F9E700BF00A0005094C4002017
S3150800AF4008B54FF098435B6CD90208D504F0E6FCC7
S3150800AF500238012803D8094B186E05F001F84FF09E
S3150800AF6098435A6CD202FCD55B6D054A03F47023EC
S3150800AF7013600222034BC3F8882108BD30C40020A1
S3150800AF805410002000E100E038B5054600283AD004
S3150800AF90FFF7A2FF0446002836D128465FF0C4FC16
S3150800AFA095F8203043B94FF098435A6CD202FCD535
S3150800AFB05D6D05F470251BE04FF09842936D43F0E4
S3150800AFC00203936504F0AAFC02281AD1104B4FF02D
S3150800AFD0FF31186E04F08EFF4FF09842936D23F000
S3150800AFE00203936590B94FF4A0220A4B1D681A60B4
S3150800AFF0FFF78EFF04463DB12846BDE838405FF0AE
S3150800B000D7BC2046E8E72124204638BD0124FBE7C3
S3150800B01030C40020541000202DE9F0418CB0884639
S3150800B020DDE912761D460446002847D0002945D09A
S3150800B030002F43D0002E41D013F00F033ED12048F5
S3150800B0402049A360002A18BF0146E361C4E900133A
S3150800B050404609A95FF01CFE68BB204609995FF0C7
S3150800B0605AFC294620465FF056FC6946404600F0E1
S3150800B070FFFE00BB694620465FF039FC404603A93F
S3150800B0805FF0D4FEB8B9204603A95FF030FC0697F6
S3150800B0900127204645F0005506A9079708955FF051
S3150800B0A026FC204609A909960A970B955FF029FC04
S3150800B0B02046FFF769FF0CB0BDE8F0812120FAE7CA
S3150800B0C000010104000100042DE9F04F97B08946FC
S3150800B0D090461F460546DDF880A0002800F0BD8092
S3150800B0E0002900F0BA803AB1229B002B00F0B58007
S3150800B0F0239B002B00F0B180BAF1000F00F0AD8061
S3150800B100219B002B00F0A98077B13C680026229B82
S3150800B11043440293464509D3002F00F0A08000203F
S3150800B1203C6017B0BDE8F08F3C46EFE75CB1229B68
S3150800B130219A9B5D125D01345340239A04F00F0453
S3150800B14093550136E6E7A8EB060BBBF10F0F58D966
S3150800B150444B4846C5E90034AC60EC6113A95FF07E
S3150800B16097FD0028DDD1284613992BF00F0B5FF0C9
S3150800B170D2FB594628465FF0CEFB484604A900F0A4
S3150800B18077FE0028CDD1284604A95FF0B0FB4846D3
S3150800B19007A95FF04BFE0028C3D1284607A95FF030
S3150800B1A0A6FB01232299304ACDF828A00B930C92CE
S3150800B1B08A190D9228464BF000520AA90E9303925B
S3150800B1C00F925FF094FB28460DA95FF090FB239B36
S3150800B1D0039A99190123109111931292224A28462B
S3150800B1E010A9CDF84CA0149315925FF08AFB284657
S3150800B1F013A95FF086FB2846FFF7C6FE5E440028C3
S3150800B2008FD1229B03EB060B239B1E44029B5B45B7
S3150800B21001D146467EE7ACB9219B2246CDE900A37B
S3150800B220494610232846FFF7F7FE00287FF479AF32
S3150800B2300AF1100212F8013D0133DBB213700BB9A3
S3150800B2409245F7D1219A1BF8013B125D0134534010
S3150800B25006F8013B04F00F04D8E7212061E73846D9
S3150800B2605FE700BF03030004100000202DE9F04F3C
S3150800B27097B00F46144699468346209EDDF8888087
S3150800B280DDF890A0269D002800F09F80002900F098
S3150800B2909C801DB1259B002B00F09780B9F1000F0B
S3150800B2A000F09380B8F1000F03D0219B002B00F02B
S3150800B2B08C803CB1239B002B00F08780BAF1000FED
S3150800B2C000F08380C6F10F02D2B2032A05D8012105
S3150800B2D0D20001FA02F2A24277D9022D75D0102DBA
S3150800B2E073D815F0010270D1F11F06296DD83849B7
S3150800B2F00AEB0400884268D836493846CBE900127A
S3150800B300CBF80820CBF81C2013A95FF0C1FC002855
S3150800B31058D1584613995FF0FEFA584645EA064151
S3150800B3205FF0F9FA414658465FF0F5FA2146584665
S3150800B3305FF0F1FA384601A900F09AFD002841D1DC
S3150800B340584601A95FF0D3FA384604A95FF06EFDA6
S3150800B350002837D10127584604A95FF0C8FA239B6D
S3150800B36048F000520793219B584644F000540DA913
S3150800B37046F00056089709940A930B970C92CDF855
S3150800B38034900E970F965FF0B2FA58460AA95FF006
S3150800B390AEFA584607A95FF0AAFA259B584610A99F
S3150800B3A045F00055CDF840A01197129413931497C1
S3150800B3B015955FF0A6FA584613A95FF0A2FA584603
S3150800B3C0FFF7E2FD17B0BDE8F08F2120FAE700BFCE
S3150800B3D0FFFF0320000005042DE9F04F99B00F4642
S3150800B3E014469B468046229EDDF89890289D0028A4
S3150800B3F000F0B280002900F0AF80279B002B00F0F8
S3150800B400AB80BBF1000F00F0A780249B1BB1239BE8
S3150800B410002B00F0A1803CB1259B002B00F09C80FE
S3150800B420B9F1000F00F09880C6F10F03DBB2032BC9
S3150800B43006D80121DB0001FA03F3A34240F28C800F
S3150800B440022D00F089806B1E0F2B00F2858015F007
S3150800B450010A40F08180F31F062B7DD83F4B09EB8C
S3150800B4600401994278D83E4B3846C8E9003AC8F8EC
S3150800B47008A0C8F81CA015A95FF00AFC0346002816
S3150800B48066D1404615995FF046FA404645EA0641B8
S3150800B4905FF041FA404624995FF03DFA214640465E
S3150800B4A05FF039FA384603A900F0E2FC03460028A3
S3150800B4B04ED1404603A95FF01AFA384606A95FF04E
S3150800B4C0B5FC0346002843D10127404606A95FF08C
S3150800B4D00EFA259B4046099344F000530A970193B8
S3150800B4E00B93239B46F000560C93249B0D9743F031
