S02A00006275696C642F64656275672F6C6F636B2D6170702D6D696E696D616C2D7468726561642E73333785
S315080060000010002069780008D7DE070801B60A08DC
S315080060100FFD0708D7DE0708D7DE0708D7DE07080B
S31508006020D7DE0708D7DE0708D7DE0708516200085B
S31508006030D7DE07084CF00B08F1610008B707080817
S3150800604015760008D7DE0708D7DE0708D7DE070863
S31508006050D7DE0708D7DE0708D7DE0708D7DE070822
S31508006060D7DE0708D7DE0708D7DE07089123030817
S31508006070D7DE0708D7DE0708D7DE0708D7DE070802
S31508006080D7DE0708D7DE0708D7DE0708D7DE0708F2
S31508006090D7DE0708B97E0008D7DE0708D7DE070867
S315080060A0D7DE07083580000811800008D7DE070804
S315080060B0D7DE0708ADD0070891DA07081DEF0B08E9
S315080060C019EF0B0879D2070829EF0B0821EF0B08FF
S315080060D069DA070825EF0B08F1DA0708D1DA0708A5
S315080060E0D7DE0708D7DE0708D7DE0708D7DE070892
S315080060F00BFD0708D7DE0708D7DE0708D7DE07082F
S31508006100D7DE0708D7DE0708D7DE0708D7DE070871
S31508006110D7DE0708D7DE0708D7DE0708D7DE070861
S31508006120D7DE0708D7DE0708D7DE0708D7DE070851
S31508006130D7DE0708D7DE0708D7DE0708D7DE070841
S31508006140D7DE07083DAB0008D7DE070815FE0708A7
S31508006150F9B80708D7DE070845EC0B084BEC0B081F
S31508006160D7DE0708D7DE0708D7DE0708D7DE070811
S31508006170013800D0FCE7704700000000000000006E
S315080061800B4A1168086806C881F30B88022181F357
S315080061901488203080F30988BFF36F8F4FF0000012
S315080061A080F31188104700BFAFF30080AFF300807B
S315080061B04842012000000000000000000000000026
S315080061C007480068006880F3088862B661B6BFF3BE
S315080061D04F8FBFF36F8F02DF00BF00BFAFF30080A2
S315080061E008ED00E0000000000000000000000000CC
S315080061F0EFF30980EFF30B82734620E9FC0F104A90
S31508006200116808604FF0300080F31188BFF34F8F94
S31508006210BFF36F8F0DF054FC4FF0000080F3118828
S31508006220074A11680868B0E8FC0F82F30B8880F308
S3150800623009881847AFF30080AFF30080AFF30080FA
S315080062404842012000000000000000000000000095
S315080062501EF0040F0CBFEFF30880EFF30980044922
S31508006260084700BFAFF30080AFF30080AFF30080AC
S3150800627051260108000000002DE9F04F2DED028B94
S31508006280DFF8C0918DB0B9F800309A0706D440F20D
S31508006290FD51654B654A66485AF018FBDFF8A8B108
S315080062A0DBF8003023B940F2FE51624B5F4AF2E751
S315080062B0614C0DF1180894E8070088E807009B88E8
S315080062C05E4D8DF817300123B9F800200DF117013E
S315080062D01A462868B8F073F89DF81720DBF80010FE
S315080062E0023A0023096892B20C3428680DF1240A90
S315080062F0B8F065F894E807008AE80700DBF800308C
S315080063001B681C7814F0200421D02868B7F084FE96
S3150800631000286FD02868B7F07FFE04460B9859F01E
S3150800632011FE064620460F4659F00CFE02460B465D
S3150800633039A1D1E9000159F0A9FF02460B463046BA
S31508006340394659F0C3FC5AF011F90B900124286814
S31508006350B7F07EFE9DF8173000284FD0981DC00074
S3150800636059F000FE2EA3D3E9002359F065FE41EC4F
S31508006370180B2868B7F06CFE03900B9859F0E2FDED
S31508006380039B064618460F4659F0DCFD02460B46A7
S3150800639051EC180B59F07AFF02460B46304639463F
S315080063A059F094FC5AF0E2F80B90B9F800302868D6
S315080063B09B06DBF8001027D50B9B224603F5FA73DC
S315080063C00B9391F8203089798DF81A301C4B1B787D
S315080063D0CDF800A08DF81B304346B7F0A7FB20B1D7
S315080063E002200AF0C3FC4FF0A5FD0DB0BDEC028BF0
S315080063F0BDE8F08F0B9BC0330B93A7E70B980633CA
S3150800640000EB43130B93D0E7534622468979B7F03E
S3150800641077FBE4E7AFF300800000000060E3664125
S315080064200000000080842E4191300C08DB350C08F2
S31508006430F12E0C08B7300C08C0340C08D0400120E7
S3150800644025170020E6F70120B841012000000000CA
S3150800645073B5754B198811F0010140F0DC8041F6DF
S315080064600B22724D724BC5E9003105F11003AB6082
S31508006470704B19609A80704B1B6ADB0706D44FF481
S3150800648069716E4B6E4A6F485AF020FA28466DF0CD
S3150800649013FE044620B94FF46A716B4B684AF2E75B
S315080064A06FF04EFA20B14FF46B71684B644AEAE715
S315080064B04FF001112046B7F06AFF20B14FF46C7116
S315080064C0624B5F4ADFE702212046B7F086FD20B11E
S315080064D040F2B3315D4B5A4AD5E720465C496EF027
S315080064E0ADFF20B140F2B631584B554ACBE70121F2
S315080064F02046B8F002F920B140F2BB31534B504A5E
S31508006500C1E701212046B8F00FF9064620B140F24E
S31508006510BE314E4B4A4AB6E701463C224D48AEF0DC
S31508006520E4FC80233246204605F11401B7F05DFFEE
S31508006530802804D040F2C531474B414AA3E7474D6E
S315080065400120B7F0D8FA36A3D3E900232C602046F9
S31508006550CDE900234FF0FF324FF0FF33B7F0E5FDEA
S3150800656020B140F20231394B3D4A8CE731480AF0F6
S31508006570A9FA012108460AF013FB01212868B7F099
S315080065807CFC044620B140F25941304B354A7AE743
S31508006590354B364A98801A60354B364A98801A60C9
S315080065A0354B364A98801A60354A6FF063005A614F
S315080065B011F0D6FF0B200AF03FFA324B186020B9CB
S315080065C040F26A41304B274A5DE704F00FFA21464C
S315080065D02868B7F087FE20B140F204411B4B2B4ACE
S315080065E051E7082228681146B7F0BAFD044620B1DB
S315080065F040F26E41264B1B4A45E70BF0F5FA254B50
S3150800660025481C70254B1C70254B1C7002B0BDE834
S3150800661070407FF074BB02B070BD00BFAFF300805E
S315080066200B6020FFE2030000E6F70120DC400120B2
S31508006630610E0108D44001200080E00FAB330C083E
S3150800664050350C08F12E0C08C4330C08562E0C08CD
S3150800665060360C087C410120D3330C08D040012059
S3150800666043350C08CC350C08201D002061FA0120A2
S31508006670F81C0020E1F90120481D0020E3FA01205A
S31508006680701D0020784101200B340C0809350C08D0
S3150800669026340C08D6F90120AA340C08E2FA01209F
S315080066A0E1FA0120000000002DE9F04F2DED028BE4
S315080066B0804600680C4691461D468DB030B90327C2
S315080066C038460DB0BDEC028BBDE8F08F0668766CD7
S315080066D0B0472D2807460CD00028F1D09C4A9D4B80
S315080066E00221A52808BF13460D209B4AA3F041F9AD
S315080066F0E6E76378202B01D10027E1E7974BD8F826
S315080067000000049358B1036822461B6C04A99847F5
S31508006710074630B1049803689B689847D0E7032773
S31508006720F8E78F4B8F4E05934FF48973EE40F64387
S31508006730EB40DB43102D06F0010688BF0126082D25
S3150800674003F0010388BF01239FED7F8B6FF0010BD8
S315080067500193049805A90368DB689847002840F068
S31508006760EC808DF80E0005980DF10E010368DB68C4
S3150800677098470746002843D19DF80E30402B03D092
S31508006780802B01D003273BE062789A42E1D10123AE
S3150800679005988DF80F3003680DF10F015B6998476E
S315080067A0074668BB9DF80F30082B17D8002BD0D0AA
S315080067B0013B072BCDD801A252F823F00D6800083B
S315080067C0E767000853670008096800085367000868
S315080067D0536700085367000813680008102BB8D1E0
S315080067E0002EB6D102E06B1E012BB2D80023059805
S315080067F00693036806A95B6A9847824668B1074606
S3150800680005A88FF046FF85E7042DEFD0012DA0D10E
S31508006810ECE7019B002B9CD1E8E7069B002B46D0B2
S315080068208DED088B05985146036808AA9B6A984718
S3150800683007460028E4D1DDE90830591E40F1FF3249
S315080068408B456FF0100171EB020210D39DF80E20F4
S31508006850402A97D1D4E90212904208BF8B4226D02B
S31508006860069B0AF1010A53457FF673AFD8E74FF046
S31508006870FF31C21C994277EB020231D39DF80E20F4
S31508006880402A7FF47FAF1F0C04F1100104F11C00AD
S315080068909BB28842E4D051F8042B002AF9D0B7EB12
S315080068A0124FF6D1002BF4D092B29342F1D80023BE
S315080068B005980793036807A99B6B9847074600281E
S315080068C09ED1079B002B36D082460598CDF820A08E
S315080068D003683946DB6B08AA984758B107468FE71D
S315080068E013F5803F70F1FF32FFF44CAF9DF80E2090
S315080068F0802AAEE7089BD90704D5D9F8002009995C
S31508006900914212D19A0705D5BDF82810B9F8042086
S3150800691091420AD15B070ED5D8F80400B9F80420CD
S3150800692003680B999B68984728B9079B0137BB42B0
S315080069307FF60FAFC9E7002762E702210D200A4A52
S31508006940A3F017F8A5275BE7000000000000000089
S31508006950A0860C081DE90D0874860C08181100207D
S315080069601C1100201601010091860C080000000089
S315080069702DE9F04F2DED028B884204460D469046D0
S315080069801E4697B00AD1034601211D202E4A17B08C
S31508006990BDEC028BBDE8F04FA2F0EBBF9FED288B54
S315080069A00DF10C092A21484605AF3FF097FD99E8F5
S315080069B0030087E80300DFF894A0DFF894B0BDF879
S315080069C01400BDF81630834233D03FF00DFE3378FD
S315080069D081468DF824408DF825508DF826808DF84F
S315080069E028300BB173680B9309AB0893CDF81CA03C
S315080069F039F026FB00230E9310938DF851302A2385
S31508006A00ADF830904FF001090D930CAA6B4607A913
S31508006A108DED128B8DF8509096F025F9034620B12E
S31508006A205A4649461D20A2F0A4FF38469AF0BBFAFA
S31508006A30C5E717B0BDEC028BBDE8F08FAFF3008059
S31508006A400000000000000000E0060D08CC070D0855
S31508006A5020070D08000000002DE9F04F2DED028BF0
S31508006A609FED2F8B9DB00DF108092A21054604AC30
S31508006A70484616461F46DDF8A4803FF02FFD99E8E4
S31508006A80030084E80300DFF8A0A0DFF8A0B0BDF893
S31508006A901000BDF8123083423DD03FF0A5FD289B7B
S31508006AA081461B78CDE90A6708958DF830301BB109
S31508006AB0289B5B788DF8313098F800308DF838309F
S31508006AC01BB1D8E90223CDE9102308AB0793CDF80B
S31508006AD018A039F0B5FA00232A2216938DF86930E2
S31508006AE00223ADF848904FF00109CDE9132306A912
S31508006AF06B4612AA8DED188B8DF8689096F0B3F850
S31508006B00034620B15A4649461D20A2F032FF2046C8
S31508006B109AF049FABBE71DB0BDEC028BBDE8F08FD1
S31508006B200000000000000000F4070D0877070D08B4
S31508006B302DE9F04F2DED028B994600230024002500
S31508006B40CDB08DF8C83049938DF828319C4BCDE9E6
S31508006B502E45CDE93045CDE934450C934FF6FF7403
S31508006B600123DFF874A2064688461746CDF8D8A052
S31508006B70ADF820410D936AB1054600F53E74A5426D
S31508006B8000F00C81284690F05AFB002800F0088196
S31508006B909835F4E79DF067F9044630B9AC242046E9
S31508006BA04DB0BDEC028BBDE8F08F06F53E75284664
S31508006BB08FF062F8B4F868308DF8C880ADF82031E7
S31508006BC094ED028B6A3420212046AEF0F7FACDE91F
S31508006BD00C407C4B4FF4C8710E93002309A8CDE9ED
S31508006BE009330F930B93CDF870A091F032FB099BF4
S31508006BF053B90B240BA890F02AF90AA890F027F9A4
S31508006C0009A890F024F9CAE74FF4C8710AA891F0C8
S31508006C1020FB0A9B002BECD04FF4C8710BA891F00F
S31508006C2018FB0B990029E4D0099B0A9A10934FF494
S31508006C30C8733046CDE91223CDE9141310AA41468C
S31508006C4011939DF090F908B10446D3E741463046C2
S31508006C5012AA9DF06AF90028F6D14146304614AAD0
S31508006C609DF01DF90028EFD1109B0DF1B80A169377
S31508006C70119B0DF1700B1793129B8DED008B1893DA
S31508006C80139BCDE905AB1993149B1AAA1A93159B66
S31508006C9018A91B9336AB079330AB049334AB039315
S31508006CA00EAB029316A843F0A1FB0028CCD10BA883
S31508006CB090F0CDF80AA890F0CAF809A890F0C7F89D
S31508006CC0B9F1000F13D1D6F8940300285AD00368F7
S31508006CD09B689847D6F894331A6800284AD05469AE
S31508006CE041465A461846A04798B1044657E7D9F888
S31508006CF0003048465B699847036859465B6A984777
S31508006D0008B9C5244BE79DF86031CDF824918DF874
S31508006D102831514628469DF0A6FB0028E5D128468D
S31508006D200CA99DF06DF82B7C77B302211120264A19
S31508006D30A2F01FFED5E90012AB69CDE90121009347
S31508006D4002211120EB69214AA2F013FE0F9906F5DC
S31508006D50697045F021FD034620B1012111201C4A26
S31508006D60A2F007FE27B196F8B233013386F8B2339C
S31508006D70002414E741461846D26890470028C8D12F
S31508006D8010240CE703240AE7D5E900121120CDE9FF
S31508006D90002102210F4AA2F0ECFDD7E70B24FEE6FC
S31508006DA0BDF864319FED048BADF820318DF8C880AD
S31508006DB00FE700BFAFF300800000000000000000EE
S31508006DC06AEF0D087C6C0D08A76B0D08C76B0D08DC
S31508006DD03F6C0D080A6C0D08F0A00D0800000000B5
S31508006DE02A2110B57248ADF5956D02914DF01CF843
S31508006DF008B1ADF0C6FF029002A96D484CF0BEFE80
S31508006E000028F6D1029B2A2BF3D167A3D3E90023E6
S31508006E106848CDE908234DF023F80028E9D1002277
S31508006E200023644808A9CDE908234CF0CFFE0028C2
S31508006E30DFD1DDE9080240F6FA035F499A4208BF46
S31508006E408842D6D101215D488DF807104CF0D0FF55
S31508006E500028CED18DF807000DF1070157484CF0F0
S31508006E6061FE0028C5D19DF80730002BC1D05048D7
S31508006E704CF024FE0028BCD14D4803A94CF07EFEF8
S31508006E8040F20124A042B4D14D494E48A4F058F925
S31508006E900028AED140224B4804AB0AA94CF0C2FEEA
S31508006EA00028A6D1049B0E2BA3D10F2244490AA879
S31508006EB0ADF0E4FF00289CD143494248A4F040F9CC
S31508006EC0002896D104AB40223E480AA94CF0AAFEF7
S31508006ED0049B03438DD19DF82810002989D1394890
S31508006EE0A4F02EF9002884D14022364805AB1AA909
S31508006EF04CF098FEA0427FF47CAFF1223349344827
S31508006F004CF0E8FF00287FF474AF4FF40072304865
S31508006F1006AB2AA94CF0D8FE00287FF46AAF069A79
S31508006F20F12A7FF466AF29492AA8ADF0A7FF0246E1
S31508006F3000287FF45EAF014625484CF0CBFF0028B9
S31508006F407FF457AF4FF40072214807ABAAA94CF05B
S31508006F50BBFEA0427FF44DAF16484CF0BBFD00289F
S31508006F603FF447AF15484CF0B5FD00283FF441AF54
S31508006F7017484CF0AFFD00287FF43BAF4DF008F8FA
S31508006F8000287FF436AF0B484CF0A4FD00283FF4E8
S31508006F9030AF0A484CF09EFD00287FF42AAF0DF565
S31508006FA0956D10BDAFF30080316EE595FA080000C7
S31508006FB00573080001720800316EE595067308002E
S31508006FC06AA80D080273080069A80D0878A70D08B5
S31508006FD00272080000000000054B186803689969EA
S31508006FE001A3D3E90023084700E0373B015D03000E
S31508006FF0181200200000000070B505463E4C8AB005
S3150800700020B100230088236061F0FEFE3B48B6F0FD
S31508007010D3FF3B4E3B4B304633603B4B736062F0CD
S31508007020C7F8002130466DF047F831A3D3E90023AD
S31508007030A062C4E90623B1F053FDD4E90623194337
S3150800704010434FF0FF33C4E90601CDE900014FF0C4
S31508007050FF32A06AB7F069F802224FF0FF31A06A42
S31508007060B7F07EF8012061F017FC4FF40073002298
S315080070702649A06AB7F0B9F9B0F5007F36D10023E2
S315080070809422CDE9073309933C23CDE903320593CE
S315080070909623A06A03A906936DF02AFC25B3287CDB
S315080070A062F044F90546E0B9A06AB7F078FB62F0E9
S315080070B0E5F861F0D3FB20B14FF4807000215EF053
S315080070C071FF61F0DBFB20B14FF4006000215EF038
S315080070D069FF0120B6F00FFD0D4A0E49A06AB1F00E
S315080070E0F6FC28460AB070BDFF20D9E70725F8E761
S315080070F009D5015520000000302E0120690345EC12
S315080071009CF201205190060890F2012090F001208F
S31508007110778A0B08B78A0B0810B5054C237833B95C
S31508007120044B13B1044800E000BF0123237010BDCF
S315080071308833012000000000EC310E0808B5034B27
S315080071401BB10349034800E000BF08BD000000006A
S315080071508C330120EC310E08A3F5803A704700BF46
S31508007160174B002B08BF134B9D46FFF7F5FF002171
S315080071708B460F461348144A121AADF0B6FE0E4B4C
S31508007180002B00D098470D4B002B00D098470020C5
S31508007190002104000D000D48002802D00C48ADF06F
S315080071A0F7FD59F0D9FD200029002CF087FF59F08A
S315080071B0BFFB00BF00000800000000000000000040
S315080071C000100020B8190020F0730220914D0B081A
S315080071D0000000002DE9F041484C8EB0264601AD6E
S315080071E00FCE0FC5336814342B6006AD0FCC0FC510
S315080071F094E80F0085E80F0001213A2001F0DCFE33
S315080072000121572001F0D8FE4FF480733C4EADF8AB
S315080072101C303C4B3046039301A906AB059302F09C
S31508007220AFFF012304220321022003F0BFF8022145
S3150800723000230846012203F0B9F80123042219465F
S31508007240022003F0B3F8042200210123022003F0F0
S31508007250ADF82D4C2D4B0125C4F8C8344FF0021358
S31508007260C4F8C43403F58033C4F8CC341C2304F5BD
S315080072700058C4F8B4344FF4487008F0E3FE04F537
S3150800728080571420C8F8A05008F0DCFE2320C7F861
S31508007290A05008F0D7FEB9213046C8F8A05077F0BC
S315080072A01FF8002303211A460220C7F8A05003F04E
S315080072B07DF8002302211A46084603F077F82B4684
S315080072C029460022022003F071F800222B461146B7
S315080072D0022003F06BF8304602F078FD00215720B3
S315080072E0C4F8C814C4F8C414C4F8CC14C4F8B41444
S315080072F001F062FE0EB0BDE8F08100BF18F00B0881
S3150800730000000A50E070720000C00350020001003D
S31508007310BFF34F8F0549064BCA6802F4E062134370
S31508007320CB60BFF34F8F00BFFDE700BF00ED00E065
S315080073300400FA054FF000639A6A02F17841B1F544
S31508007340C04F03D21168074A914203D00023037045
S3150800735083607047012202709A6A926842609B6A4B
S315080073609B69F5E707B0CD5E08B54FF00053024AB2
S315080073701A60FFF7CDFF00BF02020FF073B54D4B41
S3150800738004461A781AB102221A7002B070BDCDE905
S3150800739000220028F9D001261E7076F04EFF464DD1
S315080073A0464B186073F02CF82B785BB900F054FE46
S315080073B040B943480823434A434900686CF020F91A
S315080073C000B92E70414B5A6E22619B6E404A63612A
S315080073D04FF4804393663F4B5968A1613E499960D3
S315080073E0196E2160596E6160196CA160596CE16073
S315080073F03A49086C1864496C5964012151661B6E38
S315080074009C043FD5364AD368D807FCD4354B1A684E
S31508007410531C3CD04FF480139340334A136604231D
S31508007420314C23664FF40073236676F0B7FC0130BF
S315080074300BD076F0B3FC40F2011398421FBF4FF40D
S31508007440005323664FF4804323660823264C684678
S3150800745023664FF4805323664FF0006323664FF488
S31508007460002301A9636676F040FC009B2366019B16
S3150800747063662B78002B88D0124B1A6822665B68E5
S31508007480636682E7194AD368D907FCD4BEE7184B66
S315080074901B78002BC3D14FF400720D4B5A6603F5C7
S315080074A0A6235B68002BBAD14FF480120E4B1A66DE
S315080074B0B5E700BF9AF8012098F80120C8330120E3
S315080074C018100020C0330120007108000080005009
S315080074D0009000500080004455CEAC0000C0005417
S315080074E000000440041000200090004400000450EE
S315080074F099F8012070B5204D04462E78012E02D049
S3150800750001232B7070BD0028FCD076F047FC0130B3
S315080075100BD076F043FC40F20113984205D0174B86
S31508007520174A5E66D368DE07FCD42268154B1A66CE
S3150800753062685A66A2681A64E2685A64A269D00741
S3150800754044BF00229A60104B1A68013207D10F4ACD
S31508007550127822B90E494968C90748BF1A602269D4
S315080075600C4B5A6662699A6672F052FF0A4B1868A3
S3150800757076F069FE0023C4E79AF8012000900040DF
S3150800758000000440008000440410002099F80120FF
S3150800759000C0055000800050C833012070B54FF078
S315080075A00064A36A03F17842B2F5C04F21D21A6883
S315080075B0124B9A421DD1124E337813F0FD0F1BD190
S315080075C01048FFF7DBFE01254FF480330E4A0F49BA
S315080075D0C2F88051CB6015600D4A1361A36ADB6956
S315080075E0984704460748FFF785FF04B935702046D3
S315080075F070BD4FF48174FAE70024F8E707B0CD5E52
S3150800760099F80120A433012000E100E000A000441D
S315080076100090004413B51F4B1B7803B9FEE70023FF
S315080076201D4CCDE900336A4608231C4920686BF0D7
S31508007630E7FFF0B91A4AD2F84031D2F840211F2B99
S315080076404FF0010310D9203A9340019A134301934E
S3150800765008236A46114920686BF088FF4FF00053EB
S31508007660104A1A60FFF754FE9340009A134300939A
S31508007670EEE70D4B9842F1D1094AD2F84031D2F8DB
S3150800768040211F2B4FF0010302D9203A9340DEE731
S315080076909340ECE79AF801201810002000710800C2
S315080076A0008000440B020FF00BE000F038B54FF0F5
S315080076B00065AB6A044603F17842B2F5C04F12D2B0
S315080076C01B6B03F17843B3F5C04F0CD20648FFF79E
S315080076D055FEAB6A20461B6B5B689847BDE8384089
S315080076E00148FFF707BF38BDCC33012013B54FF06B
S315080076F000640190A36A03F17842B2F5C04F15D22F
S315080077001B6B03F17843B3F5C04F0FD20948FFF757
S3150800771035FEA36A01211B6B01A89B69984704469D
S315080077200448FFF7E7FE204602B010BD4FF4817407
S31508007730F9E700BFCC33012037B54FF00065CDE936
S315080077400021AB6A044603F17840B0F5C04F12D267
S315080077501B6B83B10948FFF711FEDDE90021AB6A0F
S3150800776020461B6B5B6A984704460448FFF7C2FE2F
S31508007770204603B030BD4FF40174F9E7CC3301203D
S3150800778037B54FF000650191AB6A044603F17842BC
S31508007790B2F5C04F15D21B6B03F17843B3F5C04F52
S315080077A00FD20948FFF7EAFDAB6A20461B6B019921
S315080077B09B6A984704460448FFF79CFE204603B098
S315080077C030BD4FF40174F9E7CC33012037B54FF0DB
S315080077D00065CDE90021AB6A044603F17840B0F5AF
S315080077E0C04F16D21B6B03F17843B3F5C04F10D2C6
S315080077F00948FFF7C3FDDDE90021AB6A20461B6B8C
S315080078009B6B984704460448FFF774FE204603B06E
S3150800781030BD40F20114F9E7CC33012037B54FF0FB
S3150800782000650191AB6A044603F17842B2F5C04F90
S3150800783015D21B6B03F17843B3F5C04F0FD2094835
S31508007840FFF79CFDAB6A20461B6B0199DB6B9847DB
S3150800785004460448FFF74EFE204603B030BD40F20A
S315080078600114F9E7CC33012008B500F02DF8124BC6
S3150800787012498B4212D30020114B12498B4218D35E
S31508007880FFF76EFC186850F82240586840F8224006
S31508007890013298688242F5D30C33EAE70022F8E70A
S315080078A01C6844F8220001325C68A242F8D3083307
S315080078B0E4E70022F8E700BFF4310E0800320E08AC
S315080078C000320E0800320E084FF480414FF0FF30A8
S315080078D010B5114B114A9A60D3F8882042F4700209
S315080078E0C3F888200E4A91660E4901F500521066C3
S315080078F00D4850660220C3F8D000BFF34F8FBFF380
S315080079006F8F01244FF440330848C0F88041D36094
S3150800791004600B6110BD00BF00ED00E000600008C8
S315080079200090005000800044F7FF370000E100E0B7
S31508007930014B1868704700BF0C100020014B1860F7
S31508007940704700BF0C100020084B1B6F03F007039D
S31508007950022B04D0032B05D0012B05D0FEE7044BE0
S3150800796018687047034BFBE70348704700800050D0
S315080079700C10002010100020002D310108B5FFF76B
S31508007980E3FF054B1B6FC3F303330133B0FBF3F07F
S31508007990024B186008BD00BF008000500810002088
S315080079A00048704700B4C404014B1868704700BF0C
S315080079B010100020054B1860054B1B6F03F00703DA
S315080079C0032B01D1FFF7DABF704700BF1010002064
S315080079D00080005000487047002D31014FF0B44335
S315080079E09868C0F304400C2822D8DFE800F0092183
S315080079F021212121071719211B1D1F000F48704738
S31508007A009B6803F04073B3F1807F13D0B3F1007F16
S31508007A1012D00B4A002B08BF10467047094870471A
S31508007A200948704709487047094870470948704728
S31508007A30002070470848704708487047405DC600F0
S31508007A4000093D000024F400C0EA210180BA8C0137
S31508007A500048E801005A620280841E0040420F0076
S31508007A60014B1868704700BF1410002010B40A684C
S31508007A701378022B11D014203023147913FB040336
S31508007A8007481B585079C340DB4303F001031370C2
S31508007A9008465DF8044B2CF031BB5DF8044B704783
S31508007AA030C0035037B50468012105463A2001F075
S31508007AB083FA002301226179207902F077FC1422E7
S31508007AC03023217913FB01230E4A9B586279D34050
S31508007AD0DB4303F001032370A379022B0ED100F0D8
S31508007AE041FA2A460849607900F066FA01230246F7
S31508007AF061792079CDE9003302F000FC002003B05B
S31508007B0030BD00BF30C003506D7A00080268137894
S31508007B10022B24D014213023107913FB00131049AB
S31508007B205B585179CB40917903F00103012912D1B1
S31508007B30508843EA40034FF6E07063F03F039BB278
S31508007B40834202D11170538070474FF6DF718B4222
S31508007B50F9D10021F6E711B983F0010313707047D4
S31508007B6030C003502DE9F04F9A46554B85B01B7827
S31508007B7006460F461546DDF83C909DF844B0DDF8FC
S31508007B805080002B00F08C80072A00F28B800E9B19
S31508007B90002B00F08780B9F1000F00F08380129B5C
S31508007BA0B3F5006F7EDC012802D1109B002B79D03B
S31508007BB0444B03EB05131B7B002B75D0424C10225C
S31508007BC000216846ADF091F904EB45141022002F08
S31508007BD058D139462046ADF088F943F21003638040
S31508007BE0BBF1000F03D1E37843F00303E370364A91
S31508007BF00E9B02EB451CCCE90193129BCDF800A025
S31508007C00013BC3F30A009DF84C30690103F00303F6
S31508007C109B0643EA001E53582C48012E00EA03002F
S31508007C204EEA0003535041D113230CF1100ECCF841
S31508007C300C309CE80F008EE80F006FF00301DCF8AB
S31508007C401C20109B61F39F02012FCCF81C20CCF856
S31508007C50143003D1CCF81890CCF804300027194A10
S31508007C60290102EB051342F80180159A28465A6045
S31508007C70694622469F605E7302F018FC384605B0D6
S31508007C80BDE8F08F00212046ADF02FF94FF444737C
S31508007C906380BBF1000FAAD1E37843F03003A5E770
S31508007CA00B48ECE70B48EAE70B48E8E7B8F1000FA2
S31508007CB0D4D19CF8023068F304138CF80230CDE76F
S31508007CC09BF80120E8330120683401200F80FFF378
S31508007CD0028000F0018000F0078000F038B5124BF2
S31508007CE005461B78DBB1E0B176F0A7FA0F4A002308
S31508007CF01146147B54B92B6001251A0101EB0313B5
S31508007D001D738C5076F09FFA204638BD0133082B38
S31508007D1002F11002EDD176F096FA0548F5E7054826
S31508007D20F3E70548F1E700BF9BF80120E833012097
S31508007D30048000F0028000F0018000F0154B13B5B6
S31508007D401868002301908DF8043076F076FA124B05
S31508007D501C7824B176F077FA104802B010BD0122DB
S31508007D601A7076F070FA0E4B01A81C731C7783F80C
S31508007D702C4083F83C4083F84C4083F85C4083F8F9
S31508007D806C4083F87C4008238DF8073002F05CFBD2
S31508007D902046E2E79CF00B089BF80120038000F0E0
S31508007DA0E833012008B50A4A12785AB107280BD8D1
S31508007DB0084A02EB00131B7B43B1002102F036FB95
S31508007DC0002008BD0448FCE70448FAE70448F8E739
S31508007DD09BF80120E8330120028000F0018000F0C2
S31508007DE0078000F008B50A4A12785AB107280BD856
S31508007DF0084A02EB00131B7B43B1012102F016FB74
S31508007E00002008BD0448FCE70448FAE70448F8E7F8
S31508007E109BF80120E8330120028000F0018000F081
S31508007E20078000F00D4B1B7893B1072812D889B14B
S31508007E300B4B03EB00131B7B73B10A4BDA6A012366
S31508007E4003FA00F010401ABF00200B700870704744
S31508007E500548704705487047054870479BF8012054
S31508007E60E833012000000450028000F0018000F091
S31508007E70078000F010B50B4A0C46127862B1072845
S31508007E800CD859B1084A02EB00131B7B43B102F028
S31508007E907FFB2060002010BD0448FCE70448FAE791
S31508007EA00448F8E79BF80120E8330120028000F037
S31508007EB0018000F0078000F02DE9F843174B1F6D8D
S31508007EC05B6D1F4000D5FEE701260025144CDFF840
S31508007ED05480DFF85490374217D0C8F850602368AA
S31508007EE09BB1A168284601316268A1609847637B07
S31508007EF0012B0AD148B909EB45131A7B60F34102F5
S31508007F001A731A7F60F341021A770135082D4FEA72
S31508007F10460604F11004DED1BDE8F88300000450DB
S31508007F20E8330120002004506834012070B5044667
S31508007F3001250B4E04B970BD94FAA4F0B0FA80F08E
S31508007F4005FA00F306EB001224EA03045368002B33
S31508007F50F0D0117B11B191689847EBE79847E9E7AC
S31508007F606835012008B5192001F082FD28B14FF0C7
S31508007F700072074BC3F880211A601A2001F078FDB9
S31508007F8028B14FF08062024BC3F880211A6008BD01
S31508007F9000E100E038B505460C4676F04EF90022B9
S31508007FA0044B03EB05135C601A73BDE8384076F0A2
S31508007FB04AB900BF68350120F8B505460F4616468A
S31508007FC076F03BF9104B05F0FC02D3F82414002395
S31508007FD0EC1804F00304144321FA04FC1CF0010F06
S31508007FE007D00133042BF3D1FF2476F02CF9204671
S31508007FF0F8BDFF2CF9D00122044B03EB0413C3E9A7
S3150800800001761A73F1E700BF00C0035068350120F6
S31508008010074BD3F82404D3F8202403F50053104063
S3150800802000F0553020F05020C3F82004FFF77EBF3B
S3150800803000C00350074BD3F82404D3F8202403F5D3
S315080080400053104000F0AA3020F0A020C3F8200406
S31508008050FFF76CBF00C00350024B1968024B186843
S315080080606BF0AEB91C1000201810002037B592002E
S3150800807004460D460192B6F0BFFF431C0BD060B90B
S3150800808029462046019AACF0F9FE0028044808BFA4
S31508008090002003B030BD0348FBE70348F9E700BFFB
S315080080A010E000F021E000F024E000F013B50446EB
S315080080B001A802F0FBFA9DF80630012223804FF44E
S315080080C0807300206380054B9B680A3303F01F0307
S315080080D002FA03F3636002B010BD00BF0080E00F30
S315080080E010B50446B6F090FF431C15D0B0B90C4B3A
S315080080F020469B680A3303F01F020123934023F0AE
S3150800810003032344984201D1002010BD50F8042BE4
S315080081100132F7D00348F8E70348F6E70348F4E7DF
S315080081200080E00F0EE000F021E000F024E000F00F
S3150800813008B576F07BF8014B186008BDA83D01200C
S31508008140014B186876F076B8A83D012038B141B1E0
S31508008150013AB2F5006F044838BF0020704703485B
S3150800816070470148704700BF037000F0027000F0C6
S3150800817038B504460D4676F060F8A3889BB223B955
S315080081802B6076F060F8064838BD142263889BB2E7
S3150800819002FB034408342C6076F055F80020F3E718
S315080081A00B7000F0F8B5044616460F4676F045F80B
S315080081B0A388E2889BB29A42054605D80023336015
S315080081C076F041F81748F8BD1422238807F1100CF9
S315080081D09BB202FB03433A460833174603CF67456B
S315080081E0186059603A4603F10803F6D11422386834
S315080081F01860238828469BB202FB03430833336082
S315080082002388E2889BB20133B3FBF2F102FB1133F8
S315080082109BB22380A38801339BB2A38076F013F820
S315080082200020D0E70A7000F090F83530022B0DD107
S3150800823014223023417F90F8210013FB0123044ABE
S315080082409B5823FA00F000F00100704700207047A1
S3150800825030C00350002313B51D4A52F8044B94F856
S31508008260211081420ED00133042BF6D102B010BD85
S315080082700028FBD19DF80730002BF7D0A068FFF740
S3150800828091FDF3E794F83530022BEFD12046FFF73E
S31508008290CBFF637E2076022BE8D194F8323003F0C8
S315080082A0FF02002BE2D1A0680DF107018DF8072027
S315080082B0FFF7B8FD237E1BB194F83330002BD7D0D7
S315080082C00023A06884F83330FFF78CFDCEE700BFA3
S315080082D05C3E012030B51049104A0B782BB9C2E92B
S315080082E00033C2E9023301230B700C4C00232146EC
S315080082F051F8045B854208D00133042BF8D10021DC
S3150800830054F8043B1BB942F82100002003E0013170
S315080083100429F5D1024830BD9CF801205C3E0120B5
S31508008320027000F010B50446FFF708FD002104F1BD
S315080083300800FFF7D3FC014620B904F10C00FFF74B
S31508008340CDFC00B1004810BD0E7000F090F8363034
S3150800835053B9042103790A4A03F239135B01D15050
S31508008360022203685A617047022B07D10068816CA4
S3150800837011F0020118BF062175F0A8BF704700BFAB
S3150800838000C0035090F836306BB9012203685A6171
S3150800839002689369D907FCD504210379074AB933DA
S315080083A05B01D1507047022B07D10068836C9B078D
S315080083B04CBF0521092175F089BF704700C00350DD
S315080083C010B590F8363004466BB9042203685A6132
S315080083D0026893699907FCD523790C4AB9335B017E
S315080083E01021995010BD022BFCD10068836CDB0765
S315080083F04CBF0521062175F069FF237941F29442A5
S315080084005B0103F1A04303F57033E9E700C00350AD
S31508008410012370B580F8303090F8363004460E46A1
S3150800842086B0A3B905682435204675F053FE0D4B72
S3150800843032680393002302937368616901930123E9
S31508008440E068009304942B4675F07CFD07E0022B48
S3150800845002D105683C35E7E7002380F8303006B0DE
S3150800846070BD00BF99860008F8B507460D46164642
S31508008470FFF76CFE00286BD1152001F007FB0446B8
S31508008480FA6A93889BB213B197F83230E3B197F83A
S315080084903630F3B93B689C6904F002041CB93846C7
S315080084A0FFF78EFF0024012387F8343097F836301B
S315080084B0CBB92E44B542386810D183699A06FCD5E3
S315080084C01CB300242046F8BD002CDAD0FFF7F4FCD4
S315080084D0D6E7022BE3D13B689C6CDDE715F8011B58
S315080084E075F080FFE6E7022BEAD12E44B5423868DC
S315080084F006D142F22003826C33EA0202FBD1DFE79F
S3150800850015F8011B75F0E7FEF0E797F8363053B912
S3150800851010213B790F4A03F239135B01D150082227
S315080085203B685A61CEE7022BCCD13868836CDB07EF
S315080085304CBF0921214675F0C9FE42F2944210212A
S315080085403B795B0103F1A04303F570339950B9E712
S315080085500446B7E700C0035010B5044680B190F84A
S3150800856032302BB9FFF760FE10B9A068FFF71AFC86
S31508008570002094F832300133DBB284F8323010BD73
S315080085800048FCE7027000F010B50446A0B190F868
S3150800859032309BB190F83230012B05D1FFF744FEFB
S315080085A010B9A068FFF71EFC002094F83230013B92
S315080085B0DBB284F8323010BD0148FCE70148FAE71F
S315080085C0027000F0057000F037B590F83550044693
S315080085D0022D1DD1012290F82230457E817F9A40D6
S315080085E03020164B25B900FB013303F5015305E08E
S315080085F0012D07D100FB013303F582531A600020D1
S3150800860003B030BD247E00FB0133002CF4D1ECE727
S31508008610012DF4D1037E73B911238DF80730FFF7C6
S315080086209BFF2A4620460DF10701FFF71DFF20464E
S31508008630FFF7AAFFE3E71323EFE700BF00C00350E5
S31508008640F0B587B005461646FFF780FD0446F0B933
S315080086500493104BCDE901166A46A86A01A9039648
S315080086600593FFF79FFD044688B995F8303073B92E
S315080086702846FFF787FE28460099FFF7C9FE95F8B2
S315080086803530032B03D028462C76FFF79DFF20466E
S3150800869007B0F0BD017000F073B5906A01A91446E1
S315080086A0FFF766FD0546204675F0FAFC3A4B9D42F3
S315080086B032D094F83610019B00293CD12068826C90
S315080086C012F400722BD0354A99601A614FF4007281
S315080086D0236803F500539A6475F0AFFD01990646C1
S315080086E0CD6835B14A688B682046D31A0A68096985
S315080086F0A847A06A01A975F006FDA06A8588ADB2EB
S31508008700002D3AD001A9FFF733FD20460199FFF75E
S315080087107FFE304675F097FD012002B070BD816C72
S31508008720C80526D51E499A60196123684FF48072D8
S3150800873003F50053CFE702291BD12168CA6C12F44E
S3150800874000720AD0154A1A6100229A604FF4007224
S31508008750236803F50053DA64BEE7C96CC90508D572
S315080087600F499A60196123684FF4807203F5005324
S31508008770F1E700221A619A60AEE7012320462376C4
S31508008780FFF722FF94F8353084F83050032BC0D019
S315080087902046FFF7DBFDBCE70B7000F00D7000F01C
S315080087A00C7000F02DE9F04104468CB0884F04AEF9
S315080087B00D460FCF0FC697E80F0086E80F00102268
S315080087C000216846ACF091FB002C00F0FE8025B92C
S315080087D0804E30460CB0BDE8F0816022002120466C
S315080087E0ACF083FB2B6820462360022384F83630DE
S315080087F02B7C2371FFF76EFD06460028E9D12B7FF7
S31508008800754A84F835302B68934240F0B880562371
S315080088106362724B23614FF4702363610123ADF8E1
S315080088200630002384F8316084F83060D5E90912EF
S31508008830A1620B80A16A3A204B80A16A684E8B80A0
S3150800884084F83030E2621380E26A01215380E26ADA
S31508008850938084F8313084F8333002238DF81D3044
S31508008860AB6806936B8AADF82030AB8AADF81E303C
S31508008870AB7D8DF81C30AB690993CDF82CD000F090
S315080088809BFB0121606A00F097FB2B79002B00F017
S3150800889081800121362000F08FFBD6F8203223F0A4
S315080088A0070343F003031022C6F820322B7C4D4FF2
S315080088B0204607EB4313C3F89424A97B2B7C2A7B19
S315080088C007EB431342EA0142C3F8AC242B7CE97B4D
S315080088D06A7B253342EA014207EB43135A602B7B36
S315080088E00121E376AB7BE3776B7B2377EB7B84F81D
S315080088F020306B7F6377AB7F84F82130EB7FA377DB
S3150800890095F8203084F8223075F05AFB0646002880
S315080089107FF45FAF75F091FC2A7F8046032A40D129
S3150800892041F2944102202B7C07EB431358502B7CD1
S3150800893095F82000E97F07EB431341EA004103F568
S31508008940A5531960297CA87F07EB411741F29C4182
S315080089506B7F43EA00437B508DF8002006238DF891
S3150800896010302B79286804A963B375F0C7FC204634
S31508008970FFF7D8FC0646404675F065FC29E71A4A13
S3150800898093427FF425AF57236362184B23614FF454
S31508008990801342E7D6F8203223F0070343F0010399
S315080089A081E7022ADAD194F821001149FFF7F2FA91
S315080089B0FFF7D8FA4FF4007320462383A676FFF70D
S315080089C003FECBE775F096FCD1E70A4E01E700BF38
S315080089D0E0F00B08037000F00000015B01000F00D7
S315080089E00080005000C0035000000A50010010002B
S315080089F055820008027000F0044BD3F88420D20692
S31508008A00FBD4D3F88400C0F38110704700400050AF
S31508008A102E4B98424AD022D82D4B984240D014D893
S31508008A202C4B984239D00AD82B4B984232D02B4B34
S31508008A3098422FD02A4B98422CD000207047294BB9
S31508008A409842FAD1284B186F7047284B98422AD07B
S31508008A50274B9842F1D1244BD3F880007047254B19
S31508008A6098422BD009D8244B984223D0234B9842BE
S31508008A70E3D11D4BD3F88C007047214B984221D087
S31508008A8003F5740303F510539842D6D1164BD3F861
S31508008A9098007047144B986D7047134B586E704783
S31508008AA0114B586F7047104B986F70470E4BD3F8A1
S31508008AB0840070470C4BD3F8880070470A4BD3F8EC
S31508008AC090007047084BD3F8940070470048E801B7
S31508008AD00024F400C0CF6A0080841E0000093D000F
S31508008AE040420F00405DC6000080E00FC0EA210149
S31508008AF080BA8C01007E560380D54302006CDC02E6
S31508008B000090D00338B5104B0546D3F880300C4694
S31508008B1003F00303022B0BD0032B0DD0012B0FD12F
S31508008B20FEF712FF0E2305B1286004B1236038BD95
S31508008B30FEF754FF0723F6E7FEF7FAFE0623F2E7E9
S31508008B4000231846EFE700BF0080005038B5174BE2
S31508008B500546D3F820310C4603F00703013B052BE5
S31508008B6020D8DFE803F0030B130F171BFEF7E0FE10
S31508008B70052305B1286004B1236038BDFEF714FF4C
S31508008B800323F6E7FEF72AFF0723F2E7FEF722FF9D
S31508008B900223EEE7FEF7CCFE0623EAE7FEF704FF1C
S31508008BA00423E6E700231846E3E700BF00800050E9
S31508008BB038B5174B0546D3F828310C4603F007039A
S31508008BC0013B052B20D8DFE803F003131B0F0B1717
S31508008BD0FEF7AEFE052305B1286004B1236038BD53
S31508008BE0FEF7A6FE0623F6E7FEF7F8FE0723F2E7EA
S31508008BF0FEF7DAFE0323EEE7FEF7D6FE0423EAE7DE
S31508008C00FEF7E8FE0223E6E700231846E3E700BF7F
S31508008C100080005073B50D460021114B0191D3F821
S31508008C208041064604F00304022C13D0032C0CD012
S31508008C30012C13D101A8FFF789FF10240EB1019B5F
S31508008C40336005B12C6002B070BDFEF7C7FE07247D
S31508008C500190F3E7FEF7BEFE0190EFE70C46EDE75D
S31508008C6000800050002337B50193154B0546D3F80D
S31508008C7020320C4603F00703013B032B1ED8DFE81E
S31508008C8003F0020E1318002101A8FFF791FF122323
S31508008C900DB1019A2A6004B1236003B030BDFEF716
S31508008CA09DFE07230190F3E775F018F90A23019052
S31508008CB0EEE7FEF7D5FE09230190E9E70023E7E78B
S31508008CC00080005038B5104B0546D3F840310C46A5
S31508008CD003F00303022B0BD0032B0DD0012B0FD16E
S31508008CE075F0FCF80A2305B1286004B1236038BD85
S31508008CF0FEF7B6FE0923F6E775F0F3F80C23F2E75C
S31508008D0000231846EFE700BF00800050002337B560
S31508008D100193164B0546D3F860320C4603F0070359
S31508008D20013B032B1FD8DFE803F0020E19140021BC
S31508008D3001A8FFF70BFF10230DB1019A2A6004B1B1
S31508008D40236003B030BD002101A8FFF7BBFF112344
S31508008D50F2E7FEF743FE07230190EDE7FEF73AFE3A
S31508008D6002230190E8E70023E6E700BF00800050F1
S31508008D70002337B50193164B0546D3F894320C46B3
S31508008D8003F00703013B032B1FD8DFE803F0020EAD
S31508008D901914002101A8FFF7D9FE10230DB1019A75
S31508008DA02A6004B1236003B030BD002101A8FFF793
S31508008DB089FF1123F2E7FEF711FE07230190EDE77D
S31508008DC0FEF708FE02230190E8E70023E6E700BF66
S31508008DD00080005038B5134B0546D3F800320C46D0
S31508008DE003F00703013B032B18D8DFE803F0020A58
S31508008DF00E1275F073F80A2305B1286004B12360D2
S31508008E0038BDFEF72DFE0923F6E775F06AF80C2340
S31508008E10F2E7FEF7B3FD0F23800AEDE700231846B5
S31508008E20EAE700BF0080005038B5134B0546D3F873
S31508008E3008320C4603F00703013B032B18D8DFE87A
S31508008E4003F0020A0E1275F049F80A2305B12860E4
S31508008E5004B1236038BDFEF703FE0923F6E775F073
S31508008E6040F80C23F2E7FEF789FD0F23800AEDE7A9
S31508008E7000231846EAE700BF0080005038B5104BBB
S31508008E800546D3F840320C4603F00303022B0BD0F9
S31508008E90032B0DD0012B0FD175F020F80A2305B14D
S31508008EA0286004B1236038BDFEF7DAFD0923F6E72A
S31508008EB075F017F80C23F2E700231846EFE700BF12
S31508008EC00080005038B5104B0546D3F860310C4683
S31508008ED003F00303022B0BD0032B0DD0012B0FD16C
S31508008EE074F0FCFF0A2305B1286004B1236038BD7D
S31508008EF0FEF7B6FD0923F6E774F0F3FF0C23F2E755
S31508008F0000231846EFE700BF00800050B0F5207F29
S31508008F101FD009D8B0F5007F15D003D868B1B0F5D1
S31508008F20C07F0AD000200CE0B0F5607FFAD10B4B69
S31508008F30D3F88000C0F3011003E0084B186FC0F3A4
S31508008F40033001307047054BD3F89000C0F3046036
S31508008F50F7E7024B186FC0F38020F2E70080005055
S31508008F6002464FF48030104B10B598660020FFF784
S31508008F70CDFF504341F671320C4BDC69DA635A680F
S31508008F8004F4803422F4401259B9094988428CBF46
S31508008F904FF480100020104358600CB10022DA63A9
S31508008FA010BD0449F2E700BF0090005000000350CE
S31508008FB0005A6202002D3101430905D0012B0DD05C
S31508008FC0022B094B18BF002300F01F0041B103F51F
S31508008FD08053012202FA00F018607047034BF3E74A
S31508008FE003F50053F5E700BF688000506480005021
S31508008FF01FB5002180280446CDE9001100F0A580A0
S3150800900035D85E2846D85E2844D8DFE800F0A24363
S315080090104343434343434343434343434343434312
S315080090204343434343434343434343434343A2AA3C
S31508009030A2AAB9B9B9B9B9AAC34DD9714DAAAAAAEA
S315080090404343434343434343AAAAAA79E3AA434370
S315080090504343434343434343434343B9A2A2A2DEA4
S315080090604D4DE8885EBE434343434399A200B0F59D
S31508009070B06F00F08F802DD8B0F5207F71D00CD856
S31508009080B0F5C07F65D0B0F5007F65D0B0F5807FBC
S3150800909000F08580009804B010BDB0F5607F6AD0F6
S315080090A00DD8B0F5407FF5D1FEF768FC02464FF4BF
S315080090B02070FFF72BFFB2FBF0F0400847E0B0F551
S315080090C0806F5DD0B0F5A06FE4D100216846FFF748
S315080090D0C9FDDFE7B0F5106F77D016D8B0F5E06FA9
S315080090E078D00AD8B0F5C06F6AD0B0F5D06FD1D1B4
S315080090F000216846FFF76EFECCE7B0F5F06FC9D1E0
S3150800910000216846FFF7DEFEC4E7B0F5406F3CD0A5
S3150800911013D8B0F5206F62D0B0F5286FBAD1002108
S31508009120314B0391D3F8703203F00303012B02D1BC
S3150800913003A8FFF7C7FD039B3BE0B0F5486FA9D12D
S3150800914000216846FFF714FEA4E7FEF7FDFB009032
S31508009150A0E7FEF713FCFAE7FEF7F6FB0246204601
S3150800916004E0FEF70BFC02464FF42070FFF7CEFE34
S31508009170B2FBF0F0EBE701A8FFF7C4FC019AEEE7B3
S3150800918000216846FFF7E2FC84E700216846FFF7FE
S315080091900FFD7FE700216846FFF73CFD7AE74FF0B1
S315080091A0E02302911B695B0705D5FEF7E7FB0290F2
S315080091B0029B00936EE703A902A8FFF783FDF7E772
S315080091C000216846FFF77EFD64E700216846FFF741
S315080091D02BFE5FE700216846FFF750FE5AE700219D
S315080091E06846FFF793FD55E70080005008B58020D4
S315080091F0FFF7FEFE034B98429EBF4FF48032024BA8
S315080092001A6708BD005A620200A000501FB5002365
S31508009210B0F5807F019300F0C38064D85D2855D8E7
S315080092204C2807D82D2847D823282BD8019805B0CD
S315080092305DF804FB4D381028F8D801A353F820F040
S31508009240979300082D9200082D9200082D92000889
S31508009250499300082D9200082D9200081D940008D5
S31508009260679300080D930008139400082D920008D0
S315080092702D9200082D9200082D9200082D920008C4
S315080092802794000824380928D0D801A353F820F0D9
S3150800929097930008979300089793000897930008F8
S315080092A0979300082D9200088D9300082D920008C8
S315080092B029930008CD9300083D2800F082803E28B7
S315080092C0B4D1002001A9FFF7D9FDAFE78028ADD1B9
S315080092D05A4B1B6F03F00703013B032BA6D8DFE8A5
S315080092E003F05350878FB0F5F06F6AD021D8B0F5E8
S315080092F0B06F4BD00FD8B0F5607F00F0858095D35E
S31508009300B0F5806F47D0B0F5A06F8FD1002001A9C6
S31508009310FFF7A8FC8AE7B0F5D06F57D0B0F5E06F35
S31508009320CFD0B0F5C06F81D1002001A9FFF7CAFCE4
S315080093307CE7B0F5206F71D00BD8B0F5086F4AD02E
S31508009340B0F5106F7FF472AF002001A9FFF76CFD2E
S315080093506CE7B0F5406F5CD0B0F5486F63D0B0F5F8
S31508009360286F7FF463AF0021344B0391D3F8703232
S3150800937003F00303012B5BD0022B14BF0B46152306
S3150800938000E00523019351E70223FBE7002001A92A
S31508009390FFF740FC4AE7002001A9FFF7D7FB45E79E
S315080093A002934FF0E0231B695B0705D5FEF7E6FA43
S315080093B00D230393039BE5E703A902A8FFF782FCA5
S315080093C0F8E7002001A9FFF77DFD2FE7002001A996
S315080093D0FFF700FD2AE7194BD3F8003103F0030322
S315080093E0022B07D0032B09D0012B0BD1FEF7DCFA91
S315080093F00323C7E7FEF734FB0923C3E774F06CFDC4
S315080094000823BFE70123BDE7184601A9FFF77AFB42
S315080094100CE7002001A9FFF7CBFB07E7002001A90D
S31508009420FFF774FC02E7002001A9FFF7A1FCFDE69F
S3150800943003A8FFF747FC1123A4E700BF00800050EC
S3150800944008B5FFF7E3FE092811D00A38012811D814
S315080094504FF48002094B4FF6FF705A6603F5D8336E
S315080094605B6A13F0010F18BF4FF4FA7008BD044B7E
S315080094701888FBE74FF6FF70F8E700BF009000502A
S31508009480C414002038B504468020FFF7BFFE032821
S3150800949000F083804FF48012504B4FF0A0615A665B
S315080094A045F60E034E4AC2F880304E4B99624FF489
S315080094B0803103F580539962916D11F48031FBD1A7
S315080094C0D4E900031B0543EA0063E07B0343207BE2
S315080094D043EA0043607B43EA0033A07B43EA8013F8
S315080094E013619069D4E904531B0643EA856300F0C7
S315080094F000400343A07E0343207E43EA0043607E88
S3150800950043EA00239361136AE269E57E002A0CBFE9
S315080095100020082023F00F03134343EA8503304A4B
S3150800952003431362E369304D002B37D194F8243096
S31508009530916A94F82000DB000D4043EA401394F842
S3150800954021102B4343EA011343F480339362274BDC
S31508009550916D33EA0101FBD14FF080712148816298
S315080095601369A56823F4700343EA055313614FF0A2
S315080095700043836194F822300BB91D4B996294F825
S3150800958023301BB94FF48032194B9A6294F8253070
S315080095901BB1134B174AC3F8802038BD022B08D1DC
S315080095A01161154891614FF408524FF47F4174F0E8
S315080095B004FE0B4994F822308A6A94F820001B06A8
S315080095C0154043EA401394F824202B4343EAC20388
S315080095D094F8232043EA02438B62D7E700900050B1
S315080095E00040005A0050005AC7FFFEFE0300010063
S315080095F00060005AF1A7FFFF3440005A4FF480314B
S3150800960010B50E4B0E4A9C6A9162996D8907FCD576
S315080096104FF0807191620B4A996992F9002021F402
S315080096207F010244000280B221F47F41084382F39D
S31508009630080240EA024098619C6210BD0040005A48
S315080096400050005A22170020014B93F9000070477A
S31508009650221700204FF400011B4A437810B55166C3
S315080096604FF4D151022402F5B832516217494F2BF3
S315080096704C604FF0010428BF4F2301F580514C6020
S315080096801169C903FCD4017843EA01235361D0E97F
S3150800969001131B0143EA0123417B0B43017B43EA88
S315080096A041039360C37B817B1B0143EA4113417CE1
S315080096B00B43017C43EA41035360837C13B16FF487
S315080096C0D153536210BD00BF0090005000100250E5
S315080096D0014B1880704700BFC41400204FF4800265
S315080096E008B5184B5A660223174A5360936813F451
S315080096F08033FBD1012822D1FEF756F9134B984245
S3150800970015D003F5122303F5F863984213D0104BCE
S3150800971000EB8002400AB3FBF0F0520A0A4BDA6209
S31508009720012218635A620022074B5A6008BD45F6A3
S315080097307A10084AF2E745F61A00074AEEE7536236
S31508009740F1E700BF009000500040025000F04902C7
S3150800975064666666D8B80500BBCF0500B0F5207FFD
S3150800976010B50C4657D008D8B0F5007F48D003D8B6
S3150800977030B3B0F5C07F23D010BDB0F5607FFBD104
S3150800978029492A48D1F8FC2012F080721EBFD1F868
S31508009790FC3023F08073C1F8FC30D0F88030611EAD
S315080097A023F0300444EA0114C0F88040002AE3D0CC
S315080097B01D4AD2F8FC3043F08073C2F8FC30DBE770
S315080097C074F00CFD74F018FD4FF48031184B174AED
S315080097D01967136F611E23F4704444EA0134146751
S315080097E0FEF7CCF80446FFF707F9C0F10201204658
S315080097F074F0FCFC00F02EF8BDE81040FFF7F6BC4C
S315080098000A4A0139D2F8903023F0F85444EA016440
S31508009810C2F89040B0E7054B013C196F21F480610E
S3150800982041EA84241C67A7E700ED00E000800050A9
S315080098300090005008B50121022000F09BF974F051
S31508009840CDFC74F0D9FC4FF48032014B1A6708BD81
S315080098500090005008B54FF4C070FFF7C9FBBDE88B
S315080098600840044988428CBF022101214FF4207028
S31508009870FFF774BF80F0FA024FF4C02201212DE9E8
S31508009880F04105466A4B5A666A4A03F598335C689E
S3150800989051605E6816F00206FBD1FFF7ADF80128A5
S315080098A0286805D1644B984202D90020BDE8F081AA
S315080098B0624A002311461768B84202D35768B8426D
S315080098C005D90133192B02F11002F4D1002301EB5B
S315080098D00313D3E9028028B1FFF79AF800F07F0056
S315080098E048EA00088020FFF791FC05285FD174F04C
S315080098F075FC74F081FC4FF480324D4B4FF4C07008
S315080099001A67FFF703FB012806464CD102214FF4DC
S31508009910C070FFF723FF01274948C16811F0060107
S31508009920FBD1D0F808C0C0F80880836808F4F8129C
S3150800993003F4F8139A424ED1AA88EB8843EA024305
S31508009940404AD360AB68032B33D1A2F5A032D2F8D4
S31508009950003123F0030343F00103C2F800312B7DE5
S31508009960287B002B6B7D14BF04220022002B18BF16
S3150800997040212B694FF0000843EA40031343314A5C
S315080099800B4393602868FDF7D9FF0722294B1A6114
S315080099900122A3F580535A60A3F580531C6914F07D
S315080099A00704FBD01EE0022801D10421AFE70027F7
S315080099B0B2E7092B07D1244AD2F8003123F0030372
S315080099C043F00203C9E7082BC9D11F4AD2F8003170
S315080099D043F00303C1E714F001044FF00108C0F88F
S315080099E008C0D2D18020FFF711FC052817D127B16E
S315080099F031464FF4C070FFF7B1FEFDF7BFFF0546CD
S31508009A00FDF796FFFDF794FFFEF7F6FFC0F102019A
S31508009A10284674F0EBFBFFF71DFFFFF7E7FBB8F1ED
S31508009A20000F7FF442AF631E584258413EE700BF1D
S31508009A300090005000E00150005A620200F10B0845
S31508009A400000015000C00150008000500028ABBF44
S31508009A5000F16040054B00F5614000F00F00ACBF17
S31508009A6090F80003185C0009704700BF14ED00E089
S31508009A70054B420953F8223000F01F0023FA00F084
S31508009A80C04300F00100704700E100E0014608B558
S31508009A90EFF31083DB0702D50122104608BDFFF756
S31508009AA0E7FF02460028F7D10846FFF7CFFF014631
S31508009AB0EFF3118313B1B0EB131FEDD2074B5B68BD
S31508009AC0C3F30803002BE8D0103B58B2FFF7BEFFDC
S31508009AD088428CBF00220122DFE700BF00ED00E0CC
S31508009AE0024A536B0342FCD1704700BF004009503D
S31508009AF0044A4178536F23F4407343EA01235367BA
S31508009B00704700BF0040005010B50A4A0446136962
S31508009B1043F00403136105F08FFE74F097FB30BF22
S31508009B2074F095FB05F09CFE1CB9BDE81040FDF7E6
S31508009B3025BF10BD00ED00E010B5084A04461369BC
S31508009B4043F00403136105F077FE30BF05F088FE85
S31508009B501CB9BDE81040FDF711BF10BD00ED00E0CF
S31508009B60034A0179D36E23F030030B43D36670475B
S31508009B7000400050F8B504461C4BD3F88420D106A3
S31508009B80FBD4D3F88430C3F381139C422CD0FDF761
S31508009B90DBFE012C064602D1214674F027FB74F041
S31508009BA045FB4FF00072124B07465A66204674F082
S31508009BB051FB4FF480630D4D621E93402B676B6E0D
S31508009BC09A0103D4D5F884309B060AD5384674F032
S31508009BD031FB022C08D13046BDE8F840002174F06C
S31508009BE005BBD5F88430EAE7F8BD00BF0040005051
S31508009BF00060005007B518B90191FDF7A5FE019957
S31508009C00064B1B7843B1064B984205D8012003B092
S31508009C105DF804EBFFF7AEBF0220F8E79DF80120D8
S31508009C20005A62020278034B012100201A70FFF7DE
S31508009C30E1BF00BF9DF801204FF00042154B10B55B
S31508009C405A664AF6CD3314494C6C0B6404F0010489
S31508009C5088B90120FFF744FF4B68DB0704D50F4B93
S31508009C6058600B6BD807FCD514B10B4B0C4A1A6419
S31508009C70B4F0A9FA10BD0B6B1A07FCD42022074BC7
S31508009C809A620122A3F580535A60034A936A9B0697
S31508009C90FCD5E9E7009000500040095000600950E3
S31508009CA03254FFFF4FF0004238B5164B01465A664C
S31508009CB04AF6CD33144C154A656C236443780B2059
S31508009CC05B0043F00103D363FFF70AFF63688A78F2
S31508009CD023F4F87343EA02136360CA784B7943EABC
S31508009CE00223A3600A798B7943EA02232361087861
S31508009CF0FFF7A2FFEB0744BF054B2364B4F063FAF2
S31508009D00012038BD00900050004009500040005026
S31508009D103254FFFF4FF0004270B5124B04465D6E99
S31508009D2003F580535A664AF6CD330F4980204E6CA8
S31508009D300B64FFF7D5FE0B6A23F00F030F2C94BFB5
S31508009D40234343F00F030B62F30744BF074B0B642F
S31508009D50002DA2BF4FF00042054B5A66B4F033FA05
S31508009D6070BD00BF00800050004009503254FFFF0C
S31508009D7000A000504FF0004270B5104B04465D6ECF
S31508009D8003F580535A664AF6CD330D4980204E6C4A
S31508009D900B64FFF7A5FE0B6A23F4F85343EA042382
S31508009DA00B62F30744BF074B0B64002DA2BF4FF0AD
S31508009DB00042054B5A66B4F006FA70BD00800050A2
S31508009DC0004009503254FFFF00A0005010B574F04F
S31508009DD046FA042300F5805100F500520B61136121
S31508009DE00B6113610B6113610B611361202341F24F
S31508009DF0020103610023C360836041614FF4A0211F
S31508009E008361836541620549C36103628362C362F4
S31508009E1043630365D164036310BD00BFFF3F0D03B1
S31508009E20F8B505461446084641B9344B9D422FD02D
S31508009E30334B9D4208BF5720FFF7DAF8AB68DE07B9
S31508009E402ED5B0FBF4F46E68013C16F0010625D059
S31508009E502821284674F0FFF9AB6C99071AD1AB6C28
S31508009E60DA0719D4AB6C13F0020F0CBF00270627CC
S31508009E70284674F0F4F9286920F07F4040EA046423
S31508009E802C61DEB139462846BDE8F84074F01EBAA2
S31508009E905620D1E70527EBE70927E9E73746EAE73A
S31508009EA06B68AB6DAF68DB0707F0E00748BF640077
S31508009EB0402F1BD003D8DFB1202F1BD0F8BD602F51
S31508009EC01AD0802FFAD1012604FB06F34101B1FB13
S31508009ED0F3F30C4A203B02EAC3022846012174F038
S31508009EE0BAF92A63BDE8F84074F0B5B90626EBE777
S31508009EF01026E9E70826E7E70426E5E70000015B00
S31508009F0000000A50F8FF7F00F8B51E46436804466D
S31508009F100D4617461BB140F6FF7174F09CF92046B2
S31508009F20FFF754FFE9896B7B62690B43298A22F4A0
S31508009F304C520B4322F00F0213436361A368297B3B
S31508009F402A7E23F0804323F0E203114319436B6909
S31508009F501943A160AB681BB9A36843F00043A3602B
S31508009F60EA69002A6BD0A368127A43EA8253A3608F
S31508009F70EA69A368927A43EA4243A360EB69A26856
S31508009F809B8803F4C0431343A360EA69A368527825
S31508009F9043EA8203A360EA69A368527B43EAC203E1
S31508009FA0A360EA69A368927B43EA0213A360EA699D
S31508009FB0A368927843EA8223A360EA69D379917900
S31508009FC05B0243EA8123E360EB69674A1B7803F087
S31508009FD0FD03012B02BFE36843F00403E360EB696A
S31508009FE01B78023B012B614B7AD8944276D0604AA3
S31508009FF094420CBF01224FF0FF3203EB421341F2A9
S3150800A000944202219950EB695A7A04F580539A6270
S3150800A010EB695B7A1BB1E36843F40063E360EB69C1
S3150800A020DB7A63B1E36843F40043E3604E4B9C423A
S3150800A03065D1EB694F4A1B7B03F00F0353673FB1AA
S3150800A04097F8203004F58050002B63D00123036273
S3150800A050002E30D02B7E04F5805013B14FF4004308
S3150800A060836596F82120404B102A434961D89C42C3
S3150800A0705DD03F4B9C420CBF01234FF0FF330127B5
S3150800A080CF54768C3849B6F5006F3C4B5FD88C4276
S3150800A0905BD037498C420CBF01214FF0FF310127B5
S3150800A0A05F54A36D324323F4F95323F01E0313437D
S3150800A0B0A365012383650521204674F0EAF8AA689A
S3150800A0C012B16968FFF7ACFE2046297874F0FEF8ED
S3150800A0D0A36CDB4313F4405FFAD1F8BD00228CE78A
S3150800A0E094420AD0224A94420CBF01224FF0FF3212
S3150800A0F003EB421342F2944283E70022F8E71C4B33
S3150800A1009C429CD1EB691B4A1B7B03F00F03C2F8E8
S3150800A110803094E7E36997F8221097F8212023F016
S3150800A12009030A431A4342F00102C26190E7002379
S3150800A130A5E79C4207D00E4B9C420CBF01234FF06B
S3150800A140FF3302279CE70023FBE70021A7E78C42A1
S3150800A15007D007498C420CBF01214FF0FF31022777
S3150800A1609EE70021FBE700BF0000015B00C003502B
S3150800A17000000A5000900350A0F801209EF8012024
S3150800A18070B5436804460D460E691BB140F6FF716B
S3150800A19074F061F82046FFF719FE22696B7BA97BEC
S3150800A1A022F087020B43134343F0800323611EB357
S3150800A1B02A692369117823F0F8030B43117F43EAD0
S3150800A1C0C113117943EA4113517AD27B43EA011349
S3150800A1D043EA82132361E268296922F0F04222F4F5
S3150800A1E07022D1E90530034313430A7B43EA8223ED
S3150800A1F04A7B43EAC233E360A368EA7B23F003039E
S3150800A200134343F00103A3603EB32B69A2685B883E
S3150800A21003F4C0431343A3602A69A368527943EA47
S3150800A2208223A3602969626A8B79C8791B010002B7
S3150800A23003F0700300F4E06022F4772222F4EE6261
S3150800A240034313430A7A120302F4E04213434A7F94
S3150800A250120402F470221343636263692A7B23F0B3
S3150800A2600F0313436361C6B12B695B89A3612B692D
S3150800A2705A7B3AB11E4A944225D19B7B1D4A03F06C
S3150800A2800F0353672B69DA7B3AB1194A944225D1F1
S3150800A2901B7C184A03F00F031367D5E90112204601
S3150800A2A0FFF7BEFD0521204673F0F3FF282173F062
S3150800A2B0D2FF2B78A36373F0CEFFA36CDB4313F4B2
S3150800A2C0405FFAD170BD0C4A944201BF9B7BA2F550
S3150800A2D0CE2203F00F03C2F88030D3E7064A944231
S3150800A2E001BF1B7CA2F5CE2203F00F03D367D4E788
S3150800A2F00000015B0090035000000A50072AF7B5DA
S3150800A30001F0030614461F464FF003012CD89500AA
S3150800A310A94000FA05F21C48019173F0F1FF019972
S3150800A3201A4806FA05F273F0EBFF194B19499DF81E
S3150800A3302000002F08BF1946012303FA04F40C6015
S3150800A340154B1649002808BF0B461C60144B1031E4
S3150800A350C3F820449DF82400A3F6DC33002808BF80
S3150800A3600B461C6003B0F0BDA2F10805AD00A9407C
S3150800A37000FA05F20B48019173F0C2FF01990A48E9
S3150800A38006FA05F2CFE700BF00C4035008C403501D
S3150800A39010E4035010D4035014D4035014E40350AB
S3150800A3A000E0035004C403500CC403502DE9F041E7
S3150800A3B005460F461E4690464AB101233022194CDF
S3150800A3C08B4002FB00443EB304F5825423600F2100
S3150800A3D0072F05EB450388BFA7F108044FEA0313C7
S3150800A3E0114895BFBC00A40004330C3308FA04F2E4
S3150800A3F0A140184473F084FFB8F1000F0AD1012177
S3150800A4003020084A01FA07F700FB05223EB102F59B
S3150800A41082521760BDE8F08104F50154D6E702F5CB
S3150800A4200152F6E700C0035030C00350044A054BFA
S3150800A430002918BF1346012202FA00F01860704777
S3150800A440402004504010045010B501210446202035
S3150800A450FEF7B2FD01212120FEF7AEFD0122114BC8
S3150800A4605A60227812069A606178A27842EA014216
S3150800A4709A61FF229A6200229A631A644FF0004298
S3150800A4805A654FF0FF324FF4001103F500531A6571
S3150800A490054AC2F88011E3781B01DBB282F815334E
S3150800A4A0116010BD0000045000E100E070B5012500
S3150800A4B0C3B29D401E4B0C461D658300096803F117
S3150800A4C0A04303F58823596030211A4E637B01FBAC
S3150800A4D000600366E37AA17A1B0543EA0143217B00
S3150800A4E022F0030243EA4153C365026773F0A5FEEF
S3150800A4F0736D2B437365237A13B1336C2B43336423
S3150800A500637A13B1B36B2B43B3632279A37943EA16
S3150800A5100243074A93616179E37943EA01430649AD
S3150800A5208B61044B55639D64BDE8704073F08BBE28
S3150800A53000200450000004500010045010B50124F7
S3150800A540C0B2844073F079FE044B5A6D22EA0402C5
S3150800A5505A659C62BDE8104073F075BE0000045051
S3150800A56010B50124C0B2844073F067FE074BDA6A5F
S3150800A570224209D15B6B34EA03030CBF0124002491
S3150800A58073F061FE204610BD0024F9E70000045070
S3150800A590F8B50125C3B204469D4073F04EFE30223D
S3150800A5A0094B1E6D5F6B02FB04335C6E73F04BFE4A
S3150800A5B03D4206D1C4F30A1008B9354200D101302C
S3150800A5C0F8BD0020FCE700BF000004504FF48032BD
S3150800A5D0054B9A6641F6713203F51C33DA6301229C
S3150800A5E003F50053DA6070470090005041F6713267
S3150800A5F00121064BDA6303F50052D1600022DA63C3
S3150800A6004FF48032A3F518339A667047000003505A
S3150800A610013831289ABF024B185C0020704700BFEA
S3150800A62090F20B08021E30B54FF000000CBF102543
S3150800A630042547F60774084952B9831D51F8233093
S3150800A640234023B101308542F6D14FF0FF3030BDAB
S3150800A65000F11603F2E700BF0080035010B5C2F3FD
S3150800A6600623044602F0070241B942EA03220B4BCD
S3150800A67042F44022063443F8242010BD18461146F9
S3150800A68073F04FFE01461846FFF7C2FF034B41EA37
S3150800A6900020163443F82400EFE700BF008003507B
S3150800A6A0014BD3F894007047004000504FF48032B5
S3150800A6B0064B5A6603F5E6239B69C3F38512827037
S3150800A6C003F03F021B0B4270037070470090005066
S3150800A6D040F6B732064B5B689BB293429FBF4FF476
S3150800A6E07A72B3FBF2F3034AD05C88BF0020704746
S3150800A6F00080E00FC2F20B08054B9A689107FCD45C
S3150800A7005A689207F9D4DA69002AF6D1704700BF69
S3150800A71000800A5008B5FFF7EFFF0122024B03F548
S3150800A72080514A601A6108BD00800A50074B5A6872
S3150800A730012A0AD15A68D20702D5DA69002AF9D15C
S3150800A74002221A610122024B5A60704700800A50A1
S3150800A75000A00A5010B5064CFFF7CEFF6368012B20
S3150800A76003D1FFF7E3FFFFF7C7FF0378E36010BDE8
S3150800A77000800A50E8B94A680B7812B1127843EAA1
S3150800A780C2034A78002A14BF0222002213438A68A9
S3150800A79012B1127843EA82138A78002A14BF042277
S3150800A7A000221343CA6812B1127843EA4223014AC7
S3150800A7B09364704700800A5008B9014B5964704782
S3150800A7C000900A5008B9014B5964704700A00A5016
S3150800A7D008B9014B1964704700A00A5010B9024B1A
S3150800A7E0186C70470020704700800A5048B911B1AC
S3150800A7F0012903D07047044BD86C7047024B186D7B
S3150800A80070470020704700BF00800A5040B911B158
S3150800A810012903D07047034BDA647047014B1A6568
S3150800A820704700BF00800A5038B50446054DB3F09E
S3150800A83046FD0FCC0FC594E8030085E80300002009
S3150800A84038BD00BF6C3E012047F6FF739A42F0B54B
S3150800A85067D0022967D8354DCF0015F8313005EB9A
S3150800A860C100012B847813D10025C3781B1B9D4298
S3150800A87002D3E018C0B2F0BD591B4668A3EB5101DC
S3150800A88036F911609642D4BF0D4601F1FF33EEE763
S3150800A89040680028EFD0B0F90030934204DBB0F9E5
S3150800A8A002309342B8BF134682883D44FF2A19BF37
S3150800A8B0C8214FF0280CB0F90610B0F908C0A1EB72
S3150800A8C003020CBF0126002692FBFCF26D78324487
S3150800A8D012B2954201DD002A01DA6A1E12B24FF45D
S3150800A8E07A7700EBC206F188B668013213FB01617C
S3150800A8F012B221EAE17101F5FA719542B1FBF7F15D
S3150800A90004DD00EBC206B6888E42EAD200EBC2022C
S3150800A91032F8040C884228BF0846A04238BF2046B1
S3150800A920A8E7FF20A7E70020A5E700BF6C3E0120A7
S3150800A9300229F0B553D82B4800EBC10410F83110A2
S3150800A940636801290FD1E078A478904294BFC4EBDC
S3150800A9500001C4EB0201001BCAB28242C8BF002232
S3150800A96033F91200F0BD002B39D0A178914202D3F9
S3150800A970B3F90200F6E7E178B3F900009142F1D99C
S3150800A98099886478A1F1FF06013C714203F1040538
S3150800A990E4B2714103F10C071FFA82FCCEB2B4424D
S3150800A9A016D805EBC1014FF47A756A43B1F902402E
S3150800A9B04968521A04EBD47102EB610292FBF4F275
S3150800A9C09042CFDBB3F902009042CBDC10B2C9E764
S3150800A9D037F831E04E1CE645E3D33146DEE7024858
S3150800A9E0C0E700BF6C3E01200080FFFF0148FFF76B
S3150800A9F01BBF00BFC8F20B0800487047C6140020EA
S3150800AA007FB50222084B0949CDE901234FF00073AF
S3150800AA10CDE90313072301A94FF0FF300593B3F0DF
S3150800AA2043FD07B05DF804FB006A18000002060043
S3150800AA302DE9F84307F02AF90128074605D907F052
S3150800AA4059F9061E02DA01241EE00026DFF8808086
S3150800AA5098F8003003F0FF0493BB4FF05009194DE6
S3150800AA6005F110032846C5E90044AB60C5F80C900B
S3150800AA7007F0E2FA286650B90124012F04D93046B6
S3150800AA8007F05AF90028DEDB2046BDE8F8830E4DAC
S3150800AA90214605F110032A460120C5E90044C5E907
S3150800AAA0023907F089FB28660028E5D03022074BD3
S3150800AAB083F8412302229A60012388F80030DCE7F4
S3150800AAC00024DAE7E83E0120843E012000E100E0A8
S3150800AAD0A2F8012008B507F0D9F802280FD1094BCA
S3150800AAE04FF0FF31186E07F0E9FA002814BF01206D
S3150800AAF0002003D14FF48062034B9A6608BD0020FC
S3150800AB00F8E700BFE83E0120009000504FF480624D
S3150800AB1008B5084B9A6607F0B9F8022807D1064B1C
S3150800AB20186E07F0FBFA003818BF012008BD002090
S3150800AB30F9E700BF00A00050E83E012008B54FF035
S3150800AB4098435B6CD90208D507F0A0F802380128AB
S3150800AB5003D8094B186E07F0BBFB4FF098435A6CA5
S3150800AB60D202FCD55B6D054A03F4702313600222FA
S3150800AB70034BC3F8882108BD843E012054100020E9
S3150800AB8000E100E038B5054600283AD0FFF7A2FFF5
S3150800AB900446002836D1284673F004FC95F8203080
S3150800ABA043B94FF098435A6CD202FCD55D6D05F453
S3150800ABB070251BE04FF09842936D43F002039365AE
S3150800ABC007F064F802281AD1104B4FF0FF31186EBF
S3150800ABD007F048FB4FF09842936D23F00203936504
S3150800ABE090B94FF4A0220A4B1D681A60FFF78EFF32
S3150800ABF004463DB12846BDE8384073F0FDBB204603
S3150800AC00E8E72124204638BD0124FBE7843E0120DD
S3150800AC10541000202DE9F0418CB08846DDE9127603
S3150800AC201D460446002847D0002945D0002F43D0AA
S3150800AC30002E41D013F00F033ED120482049A360CF
S3150800AC40002A18BF0146E361C4E90013404609A972
S3150800AC5073F042FD68BB2046099973F09AFB2946B2
S3150800AC60204673F096FB6946404600F079FF00BB24
S3150800AC706946204673F079FB404603A973F0FAFD4E
S3150800AC80B8B9204603A973F070FB0697012720463A
S3150800AC9045F0005506A90797089573F066FB204608
S3150800ACA009A909960A970B9573F069FB2046FFF7E1
S3150800ACB069FF0CB0BDE8F0812120FAE70001010424
S3150800ACC0000100042DE9F04792B08846DDE91A57DD
S3150800ACD01C460646DDF87090002864D0002962D02C
S3150800ACE0002F60D0B9F1000F5DD0002D5BD013F0B6
S3150800ACF00F0358D12D482E49B360002A18BF0146C4
S3150800AD00F361C6E9001340460FA973F0E5FC002875
S3150800AD1046D130460F9973F03CFB2146304673F016
S3150800AD2038FB6946404600F01BFF002838D16946C3
S3150800AD30304673F01AFB404603A973F09BFD78BBB7
S3150800AD404FF001083046DFF86CA003A973F00DFB3D
S3150800AD5044F00054304606A90695CDF81C80CDF877
S3150800AD6020A00997CDF828800B9473F0FEFA304698
S3150800AD7009A973F0FAFA30460CA9CDF83090CDF847
S3150800AD8034800E940F95CDF84080CDF844A073F02A
S3150800AD90F6FA30460FA973F0F2FA3046FFF7F2FEDC
S3150800ADA012B0BDE8F0872120FAE700BF03020104CC
S3150800ADB003020004100000202DE9F04F97B08946E1
S3150800ADC090461F460546DDF880A0002800F0BD80A5
S3150800ADD0002900F0BA803AB1229B002B00F0B5801A
S3150800ADE0239B002B00F0B180BAF1000F00F0AD8074
S3150800ADF0219B002B00F0A98077B13C680026229B96
S3150800AE0043440293464509D3002F00F0A080002052
S3150800AE103C6017B0BDE8F08F3C46EFE75CB1229B7B
S3150800AE20219A9B5D125D01345340239A04F00F0466
S3150800AE3093550136E6E7A8EB060BBBF10F0F58D979
S3150800AE40444B4846C5E90034AC60EC6113A973F07D
S3150800AE5043FC0028DDD1284613992BF00F0B73F01D
S3150800AE6098FA5946284673F094FA484604A900F019
S3150800AE7077FE0028CDD1284604A973F076FA48460D
S3150800AE8007A973F0F7FC0028C3D1284607A973F071
S3150800AE906CFA01232299304ACDF828A00B930C921C
S3150800AEA08A190D9228464BF000520AA90E9303926E
S3150800AEB00F9273F05AFA28460DA973F056FA239B97
S3150800AEC0039A99190123109111931292224A28463E
S3150800AED010A9CDF84CA01493159273F050FA284691
S3150800AEE013A973F04CFA2846FFF74CFE5E44002877
S3150800AEF08FD1229B03EB060B239B1E44029B5B45CB
S3150800AF0001D146467EE7ACB9219B2246CDE900A38E
S3150800AF10494610232846FFF77DFE00287FF479AFBF
S3150800AF200AF1100212F8013D0133DBB213700BB9B6
S3150800AF309245F7D1219A1BF8013B125D0134534023
S3150800AF4006F8013B04F00F04D8E7212061E73846EC
S3150800AF505FE700BF03030004100000202DE9F04F4F
S3150800AF6097B00F46144699468346209EDDF888809A
S3150800AF70DDF890A0269D002800F09F80002900F0AB
S3150800AF809C801DB1259B002B00F09780B9F1000F1E
S3150800AF9000F09380B8F1000F03D0219B002B00F03E
S3150800AFA08C803CB1239B002B00F08780BAF1000F00
S3150800AFB000F08380C6F10F02D2B2032A05D8012118
S3150800AFC0D20001FA02F2A24277D9022D75D0102DCD
S3150800AFD073D815F0010270D1F11F06296DD83849CA
S3150800AFE00AEB0400884268D836493846CBE900128D
S3150800AFF0CBF80820CBF81C2013A973F06DFB0028AA
S3150800B00058D15846139973F0C4F9584645EA06418B
S3150800B01073F0BFF94146584673F0BBF921465846C6
S3150800B02073F0B7F9384601A900F09AFD002841D116
S3150800B030584601A973F099F9384604A973F01AFC21
S3150800B040002837D10127584604A973F08EF9239BA7
S3150800B05048F000520793219B584644F000540DA926
S3150800B06046F00056089709940A930B970C92CDF868
S3150800B07034900E970F9673F078F958460AA973F02C
S3150800B08074F9584607A973F070F9259B584610A914
S3150800B09045F00055CDF840A01197129413931497D4
S3150800B0A0159573F06CF9584613A973F068F9584664
S3150800B0B0FFF768FD17B0BDE8F08F2120FAE700BF5B
S3150800B0C0FFFF0320000005042DE9F04F99B00F4655
S3150800B0D014469B468046229EDDF89890289D0028B7
S3150800B0E000F0B280002900F0AF80279B002B00F00B
S3150800B0F0AB80BBF1000F00F0A780249B1BB1239BFC
S3150800B100002B00F0A1803CB1259B002B00F09C8011
S3150800B110B9F1000F00F09880C6F10F03DBB2032BDC
S3150800B12006D80121DB0001FA03F3A34240F28C8022
S3150800B130022D00F089806B1E0F2B00F2858015F01A
S3150800B140010A40F08180F31F062B7DD83F4B09EB9F
S3150800B1500401994278D83E4B3846C8E9003AC8F8FF
S3150800B16008A0C8F81CA015A973F0B6FA034600286B
S3150800B17066D14046159973F00CF9404645EA0641F2
S3150800B18073F007F94046249973F003F921464046BF
S3150800B19073F0FFF8384603A900F0E2FC03460028DE
S3150800B1A04ED1404603A973F0E0F8384606A973F075
S3150800B1B061FB0346002843D10127404606A973F0E0
S3150800B1C0D4F8259B4046099344F000530A97019307
S3150800B1D00B93239B46F000560C93249B0D9743F044
S3150800B1E000510E910FA9CDF83CB01097119673F047
S3150800B1F0BCF840460CA973F0B8F8404609A973F0A4
S3150800B200B4F8019B404612A9CDF8489013971493B9
S3150800B21073F0B5F8279B404615A945F000551593D8
S3150800B2201697179573F0A1F84046FFF7ABFC03464F
S3150800B23030B10190224651464846A9F056FE019B78
S3150800B240184619B0BDE8F08F2123F9E7FFFF032060
S3150800B250000006042DE9F0438DB0884615461C46C5
S3150800B2600746DDF85090002850D000294ED0002A15
S3150800B2704CD0B9F1000F49D00B68103B102B45D8BC
S3150800B280012606FA03F303F0013323F08073002B3B
S3150800B2903CD000231E4A8360C0E90023C36109A984
S3150800B2A0404673F019FA70BB3846099973F071F87D
S3150800B2B02146384673F06DF86946404600F050FC62
S3150800B2C008BB6946384673F050F8404603A973F040
S3150800B2D0D1FAC0B9384603A973F047F844F00054C8
S3150800B2E0384606A906950796089473F03EF8094B62
S3150800B2F0384609A9CDF824900A960B9373F03FF8BF
S3150800B3003846FFF73FFC0DB0BDE8F0832120FAE789
S3150800B3100000040410000020F0B50C4617461E462F
S3150800B320054695B0002874D0002972D0002A70D03E
S3150800B330002B6ED0036B0F2B5BD80023364A38469A
S3150800B340C4E90023A360E36111A973F0C5F90028D5
S3150800B3505BD12046119973F01CF8296B20460F29FA
S3150800B36084BF01F00F01103173F013F8384602A9B3
S3150800B37000F0F6FB002848D1204602A972F0F5FF36
S3150800B380384605A973F076FA00283ED1204605A965
S3150800B39072F0EBFF0122214B089509920A932B6B59
S3150800B3A005F1100003F00F0141F000510B900F2B2F
S3150800B3B00C920D910E900F9243F00052109226D9DE
S3150800B3C00A9B08A923F0005320460A9372F0CDFF82
S3150800B3D00BA9204672F0C9FF0123119612930F4B51
S3150800B3E0204611A9139372F0CAFF2046FFF7CAFB3D
S3150800B3F00BE000F120030190009301221023394647
S3150800B4002046FFF707FC002897D015B0F0BD0EA917
S3150800B410DFE72120F9E700BF000004041000002040
S3150800B4202DE9F04F9BB00D46914698460646DDF845
S3150800B43090A0002800F0B380002900F0B080002A10
S3150800B44000F0AD80002B00F0AA80026B02EB0A0325
S3150800B4501B09B3EB121F02F00F0700F098800023B8
S3150800B460504A8B60C1E90023CB61484617A973F09F
S3150800B47033F90446002840F0868007EB0A0323F0D8
S3150800B4800F0B28461799009372F083FF59462846F2
S3150800B49072F07FFF484602A900F062FB04460028C6
S3150800B4A071D1284602A972F060FF484605A973F0D3
S3150800B4B0E1F90446002866D14FF00109284605A996
S3150800B4C072F053FF384A284608A90896CDF8249002
S3150800B4D00A9272F04AFF47F00051ABEB070706F1F4
S3150800B4E0100347F000570B93CDF830900D91CDF827
