S02B00006275696C642F64656275672F6C696768742D7377697463682D6170702D6E6F2D6C65642D74687265CE
S3150800600000100020F9760008FF2607087B0E0A080C
S3150800601009460708FF260708FF260708FF26070878
S31508006020FF260708FF260708FF260708416200081B
S31508006030FF26070898410B08E1610008A7500708E2
S31508006040A5740008FF260708FF260708FF26070885
S31508006050FF260708FF260708FF260708FF26070862
S31508006060FF260708FF260708FF260708FF26070852
S31508006070FF260708A9230308FF260708FF2607089F
S31508006080FF260708FF260708FF260708FF26070832
S31508006090FF260708757E0008FF260708FF2607085B
S315080060A0FF260708F17F0008CD7F0008FF260708AE
S315080060B0FF2607084D1807083D2207089F400B08CA
S315080060C09B400B08251A0708AB400B08A3400B0892
S315080060D015220708A7400B089D2207087D220708F6
S315080060E0FF260708FF260708FF260708FF260708D2
S315080060F005460708FF260708FF260708FF2607089C
S31508006100FF260708FF260708FF260708FF260708B1
S31508006110FF260708FF260708FF260708FF260708A1
S31508006120FF260708FF260708FF260708FF26070891
S31508006130FF260708FF260708FF260708FF26070881
S31508006140FF26070881A80008FF2607080B47070847
S315080061505DFE0608FF260708833D0B08893D0B08E8
S31508006160FF260708FF260708FF260708FF26070851
S315080061700B4A1168086806C881F30B88022181F367
S315080061801488203080F30988BFF36F8F4FF0000022
S3150800619080F31188104700BFAFF30080AFF300808B
S315080061A02844012000000000000000000000000054
S315080061B007480068006880F3088862B661B6BFF3CE
S315080061C04F8FBFF36F8F02DF00BF00BFAFF30080B2
S315080061D008ED00E0000000000000000000000000DC
S315080061E0EFF30980EFF30B82734620E9FC0F104AA0
S315080061F0116808604FF0300080F31188BFF34F8FA5
S31508006200BFF36F8F0DF086FB4FF0000080F3118807
S31508006210074A11680868B0E8FC0F82F30B8880F318
S3150800622009881847AFF30080AFF30080AFF300800A
S3150800623028440120000000000000000000000000C3
S315080062401EF0040F0CBFEFF30880EFF30980044932
S31508006250084700BFAFF30080AFF30080AFF30080BC
S31508006260A5240108000000002DE9F04F2DED028B52
S31508006270DFF8C0918DB0B9F800309A0706D440F21D
S31508006280F651654B654A66484EF070FFDFF8A8B1CF
S31508006290DBF8003023B940F2F751624B5F4AF2E768
S315080062A0614C0DF1180894E8070088E807009B88F8
S315080062B05E4D8DF817300123B9F800200DF117014E
S315080062C01A462868ADF020F99DF81720DBF800106B
S315080062D0023A0023096892B20C3428680DF1240AA0
S315080062E0ADF012F994E807008AE80700DBF80030F9
S315080062F01B681C7814F0200421D02868ACF02EFF07
S3150800630000286FD02868ACF029FF04460B984EF099
S3150800631069FA064620460F464EF064FA02460B46D0
S3150800632039A1D1E900014EF001FC02460B46304680
S3150800633039464EF01BF94EF069FD0B90012428688A
S31508006340ACF028FF9DF8173000284FD0981DC000E4
S315080063504EF058FA2EA3D3E900234EF0BDFA41ECCD
S31508006360180B2868ACF016FF03900B984EF03AFA13
S31508006370039B064618460F464EF034FA02460B466D
S3150800638051EC180B4EF0D2FB02460B463046394606
S315080063904EF0ECF84EF03AFD0B90B9F8003028684C
S315080063A09B06DBF8001027D50B9B224603F5FA73EC
S315080063B00B9391F8203089798DF81A301C4B1B788D
S315080063C0CDF800A08DF81B304346ACF051FC20B147
S315080063D002200AF0D1FB46F02BFA0DB0BDEC028B79
S315080063E0BDE8F08F0B9BC0330B93A7E70B980633DA
S315080063F000EB43130B93D0E7534622468979ACF05A
S3150800640021FCE4E7AFF300800000000060E366418A
S315080064100000000080842E418D680B08D76D0B089C
S31508006420ED660B08B3680B08BC6C0B08402C012002
S315080064303D17002032B60120282D0120000000005B
S3150800644073B5754B198811F0010140F0DC8041F6EF
S315080064500B22724D724BC5E9003105F11003AB6092
S31508006460704B19609A80704B1B6ADB0706D440F2A2
S315080064709D316E4B6E4A6F484EF078FE284662F0A4
S315080064802FF8044620B940F2A1316B4B684AF2E76F
S3150800649063F062FC20B140F2A531684B644AEAE732
S315080064A04FF001112046ADF017F820B140F2A9319E
S315080064B0624B5F4ADFE702212046ACF030FE20B18E
S315080064C04FF46B715D4B5A4AD5E720465C4963F039
S315080064D0C7F920B140F2AF31584B554ACBE70121F5
S315080064E02046ADF0AFF920B14FF46D71534B504AC9
S315080064F0C1E701212046ADF0BCF9064620B140F2BD
S31508006500B7314E4B4A4AB6E701463C224D48A3F0FE
S315080065106CFD80233246204605F11401ADF00AF8D9
S31508006520802804D040F2BE31474B414AA3E7474D85
S315080065300120ACF082FB36A3D3E900232C60204669
S31508006540CDE900234FF0FF324FF0FF33ACF08FFE5A
S3150800655020B140F2FB21394B3D4A8CE731480AF01D
S31508006560B7F9012108460AF021FA01212868ACF09A
S3150800657026FD044620B140F25241304B354A7AE7AF
S31508006580354B364A98801A60354B364A98801A60D9
S31508006590354B364A98801A60354A6FF063005A615F
S315080065A012F018F80B200AF04DF9324B186020B992
S315080065B040F26341304B274A5DE704F0B9F82146BB
S315080065C02868ACF033FF20B140F2FD311B4B2B4A53
S315080065D051E7082228681146ACF064FE044620B14B
S315080065E040F26741264B1B4A45E70BF003FA254B59
S315080065F025481C70254B1C70254B1C7002B0BDE845
S31508006600704074F015B802B070BD00BFAFF30080DB
S315080066100B6020FFE203000032B601204C2C01205B
S315080066206D0C0108442C01200080E00FA76B0B08B5
S315080066304C6D0B08ED660B08C06B0B0852660B0811
S315080066405C6E0B08EC2C0120CF6B0B08402C01204C
S315080066503F6D0B08C86D0B0830200020ADB801202F
S31508006660082000202DB80120582000202FB901202D
S3150800667080200020E82C0120076C0B08056D0B080C
S31508006680226C0B0822B80120A66C0B082EB9012033
S315080066902DB90120000000002DE9F04F2DED028BE9
S315080066A0804600680C4691461D468DB030B90327D2
S315080066B038460DB0BDEC028BBDE8F08F0668766CE7
S315080066C0B0472D280746F3D16378202B01D1002740
S315080066D0EEE7934BD8F80000049358B103682246B6
S315080066E01B6C04A99847074630B1049803689B6851
S315080066F09847DDE70327F8E78A4B8B4E05934FF457
S315080067008973EE40F643EB40DB43102D06F0010695
S3150800671088BF0126082D03F0010388BF01239FEDDA
S315080067207E8B6FF0010B0193049805A90368DB685B
S315080067309847002840F0ED808DF80E0005980DF179
S315080067400E010368DB6898470746002844D19DF880
S315080067500E30402B03D0802B01D003273CE0627813
S315080067609A42E1D1012305988DF80F3003680DF19F
S315080067700F015B699847074670BB9DF80F30082BD9
S3150800678018D8002BD0D0013B072BCDD801A252F840
S3150800679023F000BFE5670008BF67000829670008FF
S315080067A0E1670008296700082967000829670008C3
S315080067B0EB670008102BB7D1002EB5D102E06B1E8F
S315080067C0012BB1D8002305980693036806A95B6ACE
S315080067D09847824668B1074605A884F02EF984E7EB
S315080067E0042DEFD0012D9FD1ECE7019B002B9BD107
S315080067F0E8E7069B002B46D08DED088B0598514699
S31508006800036808AA9B6A984707460028E4D1DDE989
S315080068100830591E40F1FF328B456FF0100171EBBD
S31508006820020210D39DF80E20402A96D1D4E902120E
S31508006830904208BF8B4226D0069B0AF1010A5345AF
S315080068407FF672AFD8E74FF0FF31C21C994277EB5B
S31508006850020231D39DF80E20402A7FF47EAF1F0C2A
S3150800686004F1100104F11C009BB28842E4D051F8EF
S31508006870042B002AF9D0B7EB124FF6D1002BF4D02F
S3150800688092B29342F1D8002305980793036807A9A3
S315080068909B6B9847074600289ED1079B002B36D04E
S315080068A082460598CDF820A003683946DB6B08AA0E
S315080068B0984758B107468FE713F5803F70F1FF32C6
S315080068C0FFF44BAF9DF80E20802AAEE7089BD90748
S315080068D004D5D9F800200999914212D19A0705D50D
S315080068E0BDF82810B9F8042091420AD15B070ED5E5
S315080068F0D8F80400B9F8042003680B999B689847F0
S3150800690028B9079B0137BB427FF60EAFC9E70027B8
S3150800691062E7A52760E700BF00000000000000004E
S3150800692000110020041100201601010000000000DB
S315080069302DE9F04F2DED028B884204460D46904610
S315080069401E4697B00AD1034601211D202E4A17B0CC
S31508006950BDEC028BBDE8F04F98F078BB9FED288B15
S315080069600DF10C092A21484605AF38F0D9FF99E8F8
S31508006970030087E80300DFF894A0DFF894B0BDF8B9
S315080069801400BDF81630834233D039F005F8337851
S3150800699081468DF824408DF825508DF826808DF88F
S315080069A028300BB173680B9309AB0893CDF81CA07C
S315080069B033F0ACFE00230E9310938DF851302A2342
S315080069C0ADF830904FF001090D930CAA6B4607A954
S315080069D08DED128B8DF850908AF086FD034620B116
S315080069E05A4649461D2098F031FB38468FF0C9FBB8
S315080069F0C5E717B0BDEC028BBDE8F08FAFF300809A
S31508006A00000000000000000078C40B0864C50B08ED
S31508006A10B8C40B08000000002DE9F04F2DED028BDD
S31508006A209FED2F8B9DB00DF108092A21054604AC70
S31508006A30484616461F46DDF8A48038F071FF99E8E7
S31508006A40030084E80300DFF8A0A0DFF8A0B0BDF8D3
S31508006A501000BDF8123083423DD038F09DFF289BC8
S31508006A6081461B78CDE90A6708958DF830301BB149
S31508006A70289B5B788DF8313098F800308DF83830DF
S31508006A801BB1D8E90223CDE9102308AB0793CDF84B
S31508006A9018A033F03BFE00232A2216938DF869309E
S31508006AA00223ADF848904FF00109CDE9132306A952
S31508006AB06B4612AA8DED188B8DF868908AF014FD36
S31508006AC0034620B15A4649461D2098F0BFFA20468B
S31508006AD08FF057FBBBE71DB0BDEC028BBDE8F08F0E
S31508006AE000000000000000008CC50B080FC50B084D
S31508006AF02DE9F04F2DED028B99460023CDB08DF888
S31508006B00C83049938DF828318D4B002700264FF65B
S31508006B10FF740C930123DFF834A2CDE92E67CDE983
S31508006B203067CDE93467054688461746CDF8D8A0BC
S31508006B30ADF820410D936AB1064600F53E74A642AB
S31508006B4000F0EF80304684F0B6FD002800F0EB80B8
S31508006B509836F4E792F0ACFC044630B9AC242046EB
S31508006B604DB0BDEC028BBDE8F08F05F53E7630469C
S31508006B708FF029F9B4F868308DF8C880ADF820315F
S31508006B8094ED028B6A3420212046A3F097FBCDE9C9
S31508006B900C406C4B4FF4C8710E93002309A8CDE93D
S31508006BA009330F930B93CDF870A087F095FE099BD8
S31508006BB053B90B240BA884F033FB0AA884F030FBE6
S31508006BC009A884F02DFBCAE74FF4C8710AA887F014
S31508006BD083FE0A9B002BECD04FF4C8710BA887F0F4
S31508006BE07BFE0B990029E4D0099B0A9A10934FF46F
S31508006BF0C8732846CDE91223CDE9141310AA4146D5
S31508006C00119392F0D5FC08B10446D3E741462846CD
S31508006C1012AA92F0AFFC0028F6D14146284614AADB
S31508006C2092F062FC0028EFD1109B0DF1B80A16937A
S31508006C30119B0DF1700B1793129B8DED008B18931A
S31508006C40139BCDE905AB1993149B1AAA1A93159BA6
S31508006C5018A91B9336AB079330AB049334AB039355
S31508006C600EAB029316A83CF007FD0028CCD10BA862
S31508006C7084F0D6FA0AA884F0D3FA09A884F0D0FAE0
S31508006C80B9F1000F13D1D5F89403002847D003684B
S31508006C909B689847D5F894331A68002837D0546902
S31508006CA041465A461846A04798B1044657E7D9F8C8
S31508006CB0003048465B699847036859465B6A9847B7
S31508006CC008B9C5244BE79DF86031CDF824918DF8B5
S31508006CD028315146304692F000FF0028E5D10CA92C
S31508006CE0304692F0B2FB0F9905F569703EF032FE18
S31508006CF0034620B101211120134A98F0A7F927B1BC
S31508006D0095F8B233013385F8B233002427E74146B4
S31508006D101846D26890470028DBD110241FE70324C1
S31508006D201DE70B241BE7BDF864319FED038BADF817
S31508006D3020318DF8C8802CE7000000000000000014
S31508006D4064550C0894050C0859050C08D41E0C0843
S31508006D502A2110B57248ADF5956D029144F030F8C8
S31508006D6008B1A3F099F8029002A96D4843F0D2FE43
S31508006D700028F6D1029B2A2BF3D167A3D3E9002377
S31508006D806848CDE9082344F037F80028E9D10022FD
S31508006D900023644808A9CDE9082343F0E3FE002848
S31508006DA0DFD1DDE9080240F6FA035F499A4208BFD7
S31508006DB08842D6D101215D488DF8071043F0E4FFDB
S31508006DC00028CED18DF807000DF10701574843F08A
S31508006DD075FE0028C5D19DF80730002BC1D0504854
S31508006DE043F038FE0028BCD14D4803A943F092FE73
S31508006DF040F20124A042B4D14D494E4899F0DDFD38
S31508006E000028AED140224B4804AB0AA943F0D6FE6F
S31508006E100028A6D1049B0E2BA3D10F2244490AA809
S31508006E20A3F0ACF800289CD14349424899F0C5FD27
S31508006E30002896D104AB40223E480AA943F0BEFE7C
S31508006E40049B03438DD19DF82810002989D1394820
S31508006E5099F0B3FD002884D14022364805AB1AA91B
S31508006E6043F0ACFEA0427FF47CAFF12233493448AC
S31508006E7043F0FCFF00287FF474AF4FF400723048EB
S31508006E8006AB2AA943F0ECFE00287FF46AAF069AFF
S31508006E90F12A7FF466AF29492AA8A3F06FF80246BB
S31508006EA000287FF45EAF0146254843F0DFFF00283F
S31508006EB07FF457AF4FF40072214807ABAAA943F0F5
S31508006EC0CFFEA0427FF44DAF164843F0CFFD002811
S31508006ED03FF447AF154843F0C9FD00283FF441AFDA
S31508006EE0174843F0C3FD00287FF43BAF44F01CF875
S31508006EF000287FF436AF0B4843F0B8FD00283FF46E
S31508006F0030AF0A4843F0B2FD00287FF42AAF0DF5EA
S31508006F10956D10BDAFF30080316EE595FA08000057
S31508006F200573080001720800316EE59506730800BE
S31508006F3032240C080273080031240C0840230C087C
S31508006F400272080000000000054B1868036899697A
S31508006F5001A3D3E90023084700E0373B015D03009E
S31508006F601C1200200000000070B505463E4C8AB091
S31508006F7020B100230088236056F090F93B48ACF016
S31508006F80BDF83B4E3B4B304633603B4B736056F087
S31508006F9061FB0021304661F0A3FA31A3D3E900234F
S31508006FA0A062C4E90623A6F01BFED4E9062319430A
S31508006FB010434FF0FF33C4E90601CDE900014FF055
S31508006FC0FF32A06AACF053F902224FF0FF31A06AF3
S31508006FD0ACF068F9012055F0A9FE4FF400730022C1
S31508006FE02649A06AACF0A6FAB0F5007F36D1002390
S31508006FF09422CDE9073309933C23CDE9033205935F
S315080070009623A06A03A9069361F086FE25B3287C19
S3150800701056F0DEFB0546E0B9A06AACF065FC56F012
S315080070207FFB55F065FE20B14FF48070002153F0C8
S3150800703003FA55F06DFE20B14FF40060002153F0BD
S31508007040FBF90120ABF0F9FD0D4A0E49A06AA6F03E
S31508007050BEFD28460AB070BDFF20D9E70725F8E728
S3150800706009D5015520000000B0190120690345EC37
S31508007070D0B00120F5D40508C4B00120C4AE012063
S3150800708077DB0A08B7DB0A0810B5054C237833B94D
S31508007090044B13B1044800E000BF0123237010BD60
S315080070A0081F01200000000004AF0C0808B5034BB8
S315080070B01BB10349034800E000BF08BD00000000FB
S315080070C00C1F012004AF0C08A3F5803A704700BFD7
S315080070D0174B002B08BF134B9D46FFF7F5FF002102
S315080070E08B460F461348144A121AA2F07EFF0E4B1F
S315080070F0002B00D098470D4B002B00D09847002056
S31508007100002104000D000D48002802D00C4800E0BC
S3150800711000BF4EF06BFA200029002CF025F94EF03E
S3150800712051F800BF00000800000000000000000041
S3150800713000100020C01900201828022000000000B6
S315080071400000000013B508206BF010FB4CF026FA7F
S3150800715001238DF8003090F836300F4C022B206052
S3150800716017D1006802F00CFF236820F07F4093F8DF
S31508007170353040EA8370019068466BF09AF902232D
S315080071808DF80030054B684601936BF092F902B012
S3150800719010BD0020E8E700BF241F0120006A181070
S315080071A0BFF34F8F0549064BCA6802F4E0621343E2
S315080071B0CB60BFF34F8F00BFFDE700BF00ED00E0D7
S315080071C00400FA054FF000639A6A02F17841B1F5B6
S315080071D0C04F03D21168074A914203D000230370B7
S315080071E083607047012202709A6A926842609B6ABD
S315080071F09B69F5E707B0CD5E08B54FF00053024A24
S315080072001A60FFF7CDFF00BF02020FF073B54D4BB2
S3150800721004461A781AB102221A7002B070BDCDE976
S3150800722000220028F9D001261E706BF026FC464D78
S31508007230464B186067F096FB2B785BB900F0EAFEC0
S3150800724040B943480823434A4349006860F0F2FBC3
S3150800725000B92E70414B5A6E22619B6E404A63619B
S315080072604FF4804393663F4B5968A1613E49996044
S31508007270196E2160596E6160196CA160596CE160E4
S315080072803A49086C1864496C5964012151661B6EA9
S315080072909C043FD5364AD368D807FCD4354B1A68C0
S315080072A0531C3CD04FF480139340334A136604238F
S315080072B0314C23664FF4007323666BF083F9013073
S315080072C00BD06BF07FF940F2011398421FBF4FF4C1
S315080072D0005323664FF4804323660823264C6846EA
S315080072E023664FF4805323664FF0006323664FF4FA
S315080072F0002301A963666BF00CF9009B2366019BCA
S3150800730063662B78002B88D0124B1A6822665B6856
S31508007310636682E7194AD368D907FCD4BEE7184BD7
S315080073201B78002BC3D14FF400720D4B5A6603F538
S31508007330A6235B68002BBAD14FF480120E4B1A664F
S31508007340B5E700BFE6B60120E4B601204C1F0120D0
S3150800735018100020441F012000710800008000500A
S31508007360009000500080004455CEAC0000C0005488
S31508007370000004400410002000900044000004505F
S31508007380E5B6012070B5204D04462E78012E02D0B0
S3150800739001232B7070BD0028FCD06BF013F9013067
S315080073A00BD06BF00FF940F20113984205D0174B3A
S315080073B0174A5E66D368DE07FCD42268154B1A6640
S315080073C062685A66A2681A64E2685A64A269D007B3
S315080073D044BF00229A60104B1A68013207D10F4A3F
S315080073E0127822B90E494968C90748BF1A60226946
S315080073F00C4B5A6662699A6667F0BCFA0A4B1868BB
S315080074006BF041FB0023C4E7E6B60120009000407C
S31508007410000004400080004404100020E5B6012066
S3150800742000C00550008000504C1F012070B54FF079
S315080074300064A36A03F17842B2F5C04F21D21A68F4
S31508007440124B9A421DD1124E337813F0FD0F1BD101
S315080074501048FFF7DBFE01254FF480330E4A0F492B
S31508007460C2F88051CB6015600D4A1361A36ADB69C7
S31508007470984704460748FFF785FF04B93570204644
S3150800748070BD4FF48174FAE70024F8E707B0CD5EC3
S31508007490E5B60120281F012000E100E000A0004415
S315080074A00090004413B51F4B1B7803B9FEE7002371
S315080074B01D4CCDE900336A4608231C49206860F054
S315080074C0B9FAF0B91A4AD2F84031D2F840211F2B3E
S315080074D04FF0010310D9203A9340019A13430193C0
S315080074E008236A461149206860F05AFA4FF000539B
S315080074F0104A1A60FFF754FE9340009A134300930C
S31508007500EEE70D4B9842F1D1094AD2F84031D2F84C
S3150800751040211F2B4FF0010302D9203A9340DEE7A2
S315080075209340ECE7E6B60120181000200071080029
S31508007530008000440B020FF00BE000F038B54FF066
S315080075400065AB6A044603F17842B2F5C04F12D221
S315080075501B6B03F17843B3F5C04F0CD20648FFF70F
S3150800756055FEAB6A20461B6B5B689847BDE83840FA
S315080075700148FFF707BF38BD501F012013B54FF06C
S3150800758000640190A36A03F17842B2F5C04F15D2A0
S315080075901B6B03F17843B3F5C04F0FD20948FFF7C9
S315080075A035FEA36A01211B6B01A89B69984704460F
S315080075B00448FFF7E7FE204602B010BD4FF4817479
S315080075C0F9E700BF501F012037B54FF00065CDE938
S315080075D00021AB6A044603F17840B0F5C04F12D2D9
S315080075E01B6B83B10948FFF711FEDDE90021AB6A81
S315080075F020461B6B5B6A984704460448FFF7C2FEA1
S31508007600204603B030BD4FF40174F9E7501F01203E
S3150800761037B54FF000650191AB6A044603F178422D
S31508007620B2F5C04F15D21B6B03F17843B3F5C04FC3
S315080076300FD20948FFF7EAFDAB6A20461B6B019992
S315080076409B6A984704460448FFF79CFE204603B009
S3150800765030BD4FF40174F9E7501F012037B54FF0DC
S315080076600065CDE90021AB6A044603F17840B0F520
S31508007670C04F16D21B6B03F17843B3F5C04F10D237
S315080076800948FFF7C3FDDDE90021AB6A20461B6BFD
S315080076909B6B984704460448FFF774FE204603B0E0
S315080076A030BD40F20114F9E7501F012037B54FF0FD
S315080076B000650191AB6A044603F17842B2F5C04F02
S315080076C015D21B6B03F17843B3F5C04F0FD20948A7
S315080076D0FFF79CFDAB6A20461B6B0199DB6B98474D
S315080076E004460448FFF74EFE204603B030BD40F27C
S315080076F00114F9E7501F012008B500F02DF8124BC8
S3150800770012498B4212D30020114B12498B4218D3CF
S31508007710FFF7DEFC186850F82240586840F8224007
S31508007720013298688242F5D30C33EAE70022F8E77B
S315080077301C6844F8220001325C68A242F8D3083378
S31508007740E4E70022F8E700BF0CAF0C0818AF0C08F6
S3150800775018AF0C0818AF0C084FF480414FF0FF30F3
S3150800776010B5114B114A9A60D3F8882042F470027A
S31508007770C3F888200E4A91660E4901F50052106634
S315080077800D4850660220C3F8D000BFF34F8FBFF3F1
S315080077906F8F01244FF440330848C0F88041D36006
S315080077A004600B6110BD00BF00ED00E0006000083A
S315080077B00090005000800044F7FF370000E100E029
S315080077C0014B1868704700BF0C100020014B186069
S315080077D0704700BF0C100020084B1B6F03F007030F
S315080077E0022B04D0032B05D0012B05D0FEE7044B52
S315080077F018687047034BFBE7034870470080005042
S315080078000C10002010100020002D310108B5FFF7DC
S31508007810E3FF054B1B6FC3F303330133B0FBF3F0F0
S31508007820024B186008BD00BF0080005008100020F9
S315080078300048704700B4C404014B1868704700BF7D
S3150800784010100020054B1860054B1B6F03F007034B
S31508007850032B01D1FFF7DABF704700BF10100020D5
S315080078600080005000487047002D31014FF0B443A6
S315080078709868C0F304400C2822D8DFE800F00921F4
S3150800788021212121071719211B1D1F000F487047A9
S315080078909B6803F04073B3F1807F13D0B3F1007F88
S315080078A012D00B4A002B08BF10467047094870478C
S315080078B0094870470948704709487047094870479A
S315080078C0002070470848704708487047405DC60062
S315080078D000093D000024F400C0EA210180BA8C01A9
S315080078E00048E801005A620280841E0040420F00E8
S315080078F0014B1868704700BF1410002010B40A68BE
S315080079001378022B11D014203023147913FB0403A7
S3150800791007481B585079C340DB4303F00103137033
S3150800792008465DF8044B2BF03FBD5DF8044B7047E5
S3150800793030C0035037B50468012105463A2001F0E6
S3150800794019FB002301226179207902F0D1FB142268
S315080079503023217913FB01230E4A9B586279D340C1
S31508007960DB4303F001032370A379022B0ED100F049
S31508007970D7FA2A460849607900F0FCFA012302463C
S3150800798061792079CDE9003302F05AFB002003B073
S3150800799030BD00BF30C00350FD7800080268137878
S315080079A0022B24D014213023107913FB001310491D
S315080079B05B585179CB40917903F00103012912D123
S315080079C0508843EA40034FF6E07063F03F039BB2EA
S315080079D0834202D11170538070474FF6DF718B4294
S315080079E0F9D10021F6E711B983F001031370704746
S315080079F030C0035010B501213A2001F0BBFA01232B
S31508007A0004220321002002F073FB00206BF0A5F886
S31508007A100122294B2949C3F844244FF40022A3F52F
S31508007A2050335A66D1F8FC20244C12F080721EBFDF
S31508007A30D1F8FC3023F08073C1F8FC302049D1F826
S31508007A40803023F0030343F00203C1F880302AB1E3
S31508007A50D4F8FC3043F08073C4F8FC304FF46070FF
S31508007A6001F0A4FAD4F8F030164A43F00103C4F83A
S31508007A70F030D4F8FC3000F5D52043F08073C4F814
S31508007A80FC30114B00F2FC401A60104B0222B0FB8E
S31508007A90F3F00F4B01381861C3F8F0204FF48072E9
S31508007AA0C3F804234FF060430A4A0020C3F8B02FF6
S31508007AB0094AC3F8802E10BD00D0035000ED00E03F
S31508007AC000800050FF030040001000E0F8590D0048
S31508007AD0000004E055CEACC5090001004FF0604334
S31508007AE030B5D3F8802ED20715D501240B4D844026
S31508007AF0D5F8FC2042F08072C5F8FC20D3F8002E99
S31508007B002243C3F8002E53F82020002AF0D003F8A9
S31508007B102010002030BD1120FCE700BF00ED00E07A
S31508007B202DE9F04F9A46554B85B01B7806460F4609
S31508007B301546DDF83C909DF844B0DDF85080002BE2
S31508007B4000F08C80072A00F28B800E9B002B00F039
S31508007B508780B9F1000F00F08380129BB3F5006FA0
S31508007B607EDC012802D1109B002B79D0444B03EB15
S31508007B7005131B7B002B75D0424C1022002168464A
S31508007B80A2F033FA04EB45141022002F58D13946D7
S31508007B902046A2F02AFA43F210036380BBF1000FD5
S31508007BA003D1E37843F00303E370364A0E9B02EBF6
S31508007BB0451CCCE90193129BCDF800A0013BC3F309
S31508007BC00A009DF84C30690103F003039B0643EA5B
S31508007BD0001E53582C48012E00EA03004EEA000303
S31508007BE0535041D113230CF1100ECCF80C309CE8FD
S31508007BF00F008EE80F006FF00301DCF81C20109BC5
S31508007C0061F39F02012FCCF81C20CCF8143003D165
S31508007C10CCF81890CCF804300027194A290102EB51
S31508007C20051342F80180159A28465A606946224685
S31508007C309F605E7302F0DCFA384605B0BDE8F08F47
S31508007C4000212046A2F0D1F94FF444736380BBF1BA
S31508007C50000FAAD1E37843F03003A5E70B48ECE719
S31508007C600B48EAE70B48E8E7B8F1000FD4D19CF8CF
S31508007C70023068F304138CF80230CDE7E7B601202A
S31508007C806C1F0120EC1F01200F80FFF3028000F01B
S31508007C90018000F0078000F038B5124B05461B78C6
S31508007CA0DBB1E0B16AF0E9FE0F4A00231146147B06
S31508007CB054B92B6001251A0101EB03131D738C506F
S31508007CC06AF0E1FE204638BD0133082B02F11002A6
S31508007CD0EDD16AF0D8FE0548F5E70548F3E705480B
S31508007CE0F1E700BFE7B601206C1F0120048000F011
S31508007CF0028000F0018000F0154B13B518680023C8
S31508007D0001908DF804306AF0B8FE124B1C7824B145
S31508007D106AF0B9FE104802B010BD01221A706AF066
S31508007D20B2FE0E4B01A81C731C7783F82C4083F80F
S31508007D303C4083F84C4083F85C4083F86C4083F8F9
S31508007D407C4008238DF8073002F020FA2046E2E747
S31508007D50E8410B08E7B60120038000F06C1F0120FC
S31508007D6008B50A4A12785AB107280BD8084A02EB0E
S31508007D7000131B7B43B1002102F0FAF9002008BD6D
S31508007D800448FCE70448FAE70448F8E7E7B60120A0
S31508007D906C1F0120028000F0018000F0078000F0CF
S31508007DA008B50A4A12785AB107280BD8084A02EBCE
S31508007DB000131B7B43B1012102F0DAF9002008BD4C
S31508007DC00448FCE70448FAE70448F8E7E7B6012060
S31508007DD06C1F0120028000F0018000F0078000F08F
S31508007DE00D4B1B7893B1072812D889B10B4B03EBBF
S31508007DF000131B7B73B10A4BDA6A012303FA00F0FE
S31508007E0010401ABF00200B7008707047054870476D
S31508007E100548704705487047E7B601206C1F0120E2
S31508007E2000000450028000F0018000F0078000F096
S31508007E3010B50B4A0C46127862B107280CD859B10E
S31508007E40084A02EB00131B7B43B102F043FA206099
S31508007E50002010BD0448FCE70448FAE70448F8E7A0
S31508007E60E7B601206C1F0120028000F0018000F0B7
S31508007E70078000F02DE9F843174B1F6D5B6D1F4017
S31508007E8000D5FEE701260025144CDFF85480DFF8FC
S31508007E905490374217D0C8F8506023689BB1A16840
S31508007EA0284601316268A1609847637B012B0AD195
S31508007EB048B909EB45131A7B60F341021A731A7F16
S31508007EC060F341021A770135082D4FEA460604F198
S31508007ED01004DED1BDE8F883000004506C1F0120B1
S31508007EE000200450EC1F012070B5044601250B4EF6
S31508007EF004B970BD94FAA4F0B0FA80F005FA00F35C
S31508007F0006EB001224EA03045368002BF0D0117B19
S31508007F1011B191689847EBE79847E9E7EC2001200B
S31508007F2008B5192001F00CFD28B14FF00072074B77
S31508007F30C3F880211A601A2001F002FD28B14FF01B
S31508007F408062024BC3F880211A6008BD00E100E098
S31508007F5038B505460C466AF090FD0022044B03EB43
S31508007F6005135C601A73BDE838406AF08CBD00BF23
S31508007F70EC200120F8B505460F4616466AF07DFD49
S31508007F80104B05F0FC02D3F824140023EC1804F077
S31508007F900304144321FA04FC1CF0010F07D0013333
S31508007FA0042BF3D1FF246AF06EFD2046F8BDFF2CA2
S31508007FB0F9D00122044B03EB0413C3E901761A73C3
S31508007FC0F1E700BF00C00350EC200120074BD3F8AF
S31508007FD02404D3F8202403F50053104000F055304C
S31508007FE020F05020C3F82004FFF77EBF00C00350DE
S31508007FF0074BD3F82404D3F8202403F50053104084
S3150800800000F0AA3020F0A020C3F82004FFF76CBFC8
S3150800801000C00350024B1968024B18685FF0EABBB0
S315080080201C1000201810002037B5920004460D4693
S315080080300192ACF0A1F8431C0BD060B92946204642
S31508008040019AA1F09BFF0028044808BF002003B04E
S3150800805030BD0348FBE70348F9E700BF10E000F02E
S3150800806021E000F024E000F013B5044601A802F070
S31508008070BFF99DF80630012223804FF48073002053
S315080080806380054B9B680A3303F01F0302FA03F368
S31508008090636002B010BD00BF0080E00F10B5044653
S315080080A0ACF072F8431C15D0B0B90C4B20469B684F
S315080080B00A3303F01F020123934023F003032344EA
S315080080C0984201D1002010BD50F8042B0132F7D098
S315080080D00348F8E70348F6E70348F4E70080E00FAB
S315080080E00EE000F021E000F024E000F008B56AF0A8
S315080080F0BDFC014B186008BD2C290120014B1868EE
S315080081006AF0B8BC2C29012038B141B1013AB2F560
S31508008110006F044838BF002070470348704701487D
S31508008120704700BF037000F0027000F038B50446CF
S315080081300D466AF0A2FCA3889BB223B92B606AF0AD
S31508008140A2FC064838BD142263889BB202FB03448E
S3150800815008342C606AF097FC0020F3E70B7000F0F7
S31508008160F8B5044616460F466AF087FCA388E288E7
S315080081709BB29A42054605D8002333606AF083FC11
S315080081801748F8BD1422238807F1100C9BB202FB8E
S3150800819003433A460833174603CF674518605960C4
S315080081A03A4603F10803F6D1142238681860238882
S315080081B028469BB202FB0343083333602388E288D0
S315080081C09BB20133B3FBF2F102FB11339BB223805E
S315080081D0A38801339BB2A3806AF055FC0020D0E740
S315080081E00A7000F090F83530022B0DD11422302396
S315080081F0417F90F8210013FB0123044A9B5823FA78
S3150800820000F000F0010070470020704730C00350AE
S31508008210002313B51D4A52F8044B94F821108142E5
S315080082200ED00133042BF6D102B010BD0028FBD1C5
S315080082309DF80730002BF7D0A068FFF791FDF3E70C
S3150800824094F83530022BEFD12046FFF7CBFF637E3B
S315080082502076022BE8D194F8323003F0FF02002B87
S31508008260E2D1A0680DF107018DF80720FFF7B8FDE8
S31508008270237E1BB194F83330002BD7D00023A06897
S3150800828084F83330FFF78CFDCEE700BFE0290120E4
S3150800829030B51049104A0B782BB9C2E90033C2E948
S315080082A0023301230B700C4C0023214651F8045B62
S315080082B0854208D00133042BF8D1002154F8043B39
S315080082C01BB942F82100002003E001310429F5D149
S315080082D0024830BDE8B60120E0290120027000F00E
S315080082E010B50446FFF708FD002104F10800FFF762
S315080082F0D3FC014620B904F10C00FFF7CDFC00B110
S31508008300004810BD0E7000F090F8363053B90421BD
S3150800831003790A4A03F239135B01D1500222036832
S315080083205A617047022B07D10068816C11F002016F
S3150800833018BF06216AF0F0BB704700BF00C00350A3
S3150800834090F836306BB9012203685A61026893695E
S31508008350D907FCD504210379074AB9335B01D15003
S315080083607047022B07D10068836C9B074CBF052119
S3150800837009216AF0D1BB704700C0035010B590F8C8
S31508008380363004466BB9042203685A610268936959
S315080083909907FCD523790C4AB9335B01102199500A
S315080083A010BD022BFCD10068836CDB074CBF05218E
S315080083B006216AF0B1FB237941F294425B0103F18D
S315080083C0A04303F57033E9E700C00350012370B5F5
S315080083D080F8303090F8363004460E4686B0A3B999
S315080083E00568243520466AF095FA0D4B32680393E2
S315080083F0002302937368616901930123E06800937F
S3150800840004942B466AF0BEF907E0022B02D10568F0
S315080084103C35E7E7002380F8303006B070BD00BF72
S3150800842055860008F8B507460D461646FFF76CFE52
S3150800843000286BD1152001F091FA0446FA6A938850
S315080084409BB213B197F83230E3B197F83630F3B9E7
S315080084503B689C6904F002041CB93846FFF78EFF96
S315080084600024012387F8343097F83630CBB92E44E8
S31508008470B542386810D183699A06FCD51CB3002426
S315080084802046F8BD002CDAD0FFF7F4FCD6E7022B1D
S31508008490E3D13B689C6CDDE715F8011B6AF0BFFB6E
S315080084A0E6E7022BEAD12E44B542386806D142F2F5
S315080084B02003826C33EA0202FBD1DFE715F8011BC1
S315080084C06AF02FFBF0E797F8363053B910213B795D
S315080084D00F4A03F239135B01D15008223B685A61EF
S315080084E0CEE7022BCCD13868836CDB074CBF092159
S315080084F021466AF011FB42F2944210213B795B0156
S3150800850003F1A04303F570339950B9E70446B7E77A
S3150800851000C0035010B5044680B190F832302BB92C
S31508008520FFF760FE10B9A068FFF71AFC002094F860
S3150800853032300133DBB284F8323010BD0048FCE734
S31508008540027000F010B50446A0B190F832309BB125
S3150800855090F83230012B05D1FFF744FE10B9A06818
S31508008560FFF71EFC002094F83230013BDBB284F89A
S31508008570323010BD0148FCE70148FAE7027000F006
S31508008580057000F037B590F835500446022D1DD118
S31508008590012290F82230457E817F9A403020164B82
S315080085A025B900FB013303F5015305E0012D07D179
S315080085B000FB013303F582531A60002003B030BD77
S315080085C0247E00FB0133002CF4D1ECE7012DF4D115
S315080085D0037E73B911238DF80730FFF79BFF2A46F0
S315080085E020460DF10701FFF71DFF2046FFF7AAFFFA
S315080085F0E3E71323EFE700BF00C00350F0B587B0E9
S3150800860005461646FFF780FD0446F0B90493104B5D
S31508008610CDE901166A46A86A01A903960593FFF7EC
S315080086209FFD044688B995F8303073B92846FFF798
S3150800863087FE28460099FFF7C9FE95F83530032BC3
S3150800864003D028462C76FFF79DFF204607B0F0BDDD
S31508008650017000F073B5906A01A91446FFF766FD2C
S31508008660054620466AF03CF93A4B9D4232D094F8CA
S315080086703610019B00293CD12068826C12F40072E6
S315080086802BD0354A99601A614FF40072236803F5B6
S3150800869000539A646AF0F1F901990646CD6835B136
S315080086A04A688B682046D31A0A680969A847A06AE7
S315080086B001A96AF048F9A06A8588ADB2002D3AD0BA
S315080086C001A9FFF733FD20460199FFF77FFE3046E3
S315080086D06AF0D9F9012002B070BD816CC80526D5AB
S315080086E01E499A60196123684FF4807203F5005396
S315080086F0CFE702291BD12168CA6C12F400720AD08E
S31508008700154A1A6100229A604FF40072236803F52D
S315080087100053DA64BEE7C96CC90508D50F499A60E3
S31508008720196123684FF4807203F50053F1E70022BC
S315080087301A619A60AEE7012320462376FFF722FFE7
S3150800874094F8353084F83050032BC0D02046FFF714
S31508008750DBFDBCE70B7000F00D7000F00C7000F04C
S315080087602DE9F04104468CB0884F04AE0D460FCF74
S315080087700FC697E80F0086E80F001022002168460A
S31508008780A1F033FC002C00F0FE8025B9804E30465F
S315080087900CB0BDE8F081602200212046A1F025FC3E
S315080087A02B6820462360022384F836302B7C2371FD
S315080087B0FFF76EFD06460028E9D12B7F754A84F837
S315080087C035302B68934240F0B88056236362724B6B
S315080087D023614FF4702363610123ADF8063000234B
S315080087E084F8316084F83060D5E90912A1620B80FB
S315080087F0A16A3A204B80A16A684E8B8084F8303093
S31508008800E2621380E26A01215380E26A938084F867
S31508008810313084F8333002238DF81D30AB68069367
S315080088206B8AADF82030AB8AADF81E30AB7D8DF87B
S315080088301C30AB690993CDF82CD000F09BFB0121C5
S31508008840606A00F097FB2B79002B00F081800121EC
S31508008850362000F08FFBD6F8203223F0070343F0CA
S3150800886003031022C6F820322B7C4D4F204607EB17
S315080088704313C3F89424A97B2B7C2A7B07EB431369
S3150800888042EA0142C3F8AC242B7CE97B6A7B253398
S3150800889042EA014207EB43135A602B7B0121E37638
S315080088A0AB7BE3776B7B2377EB7B84F820306B7F9E
S315080088B06377AB7F84F82130EB7FA37795F8203078
S315080088C084F8223069F09CFF064600287FF45FAFE3
S315080088D06AF0D3F82A7F8046032A40D141F29441B0
S315080088E002202B7C07EB431358502B7C95F820006D
S315080088F0E97F07EB431341EA004103F5A5531960E5
S31508008900297CA87F07EB411741F29C416B7F43EA1C
S3150800891000437B508DF8002006238DF810302B7904
S31508008920286804A963B36AF005F92046FFF7D8FC5E
S31508008930064640466AF0A7F829E71A4A93427FF4A2
S3150800894025AF57236362184B23614FF4801342E720
S31508008950D6F8203223F0070343F0010381E7022A01
S31508008960DAD194F821001149FFF7F2FAFFF7D8FA9D
S315080089704FF4007320462383A676FFF703FECBE762
S315080089806AF0D4F8D1E70A4E01E700BF2C420B087B
S31508008990037000F00000015B01000F00008000502A
S315080089A000C0035000000A500100100011820008A0
S315080089B0027000F0044BD3F88420D206FBD4D3F817
S315080089C08400C0F381107047004000502E4B984237
S315080089D04AD022D82D4B984240D014D82C4B9842D6
S315080089E039D00AD82B4B984232D02B4B98422FD0ED
S315080089F02A4B98422CD000207047294B9842FAD12E
S31508008A00284B186F7047284B98422AD0274B984214
S31508008A10F1D1244BD3F880007047254B98422BD0D0
S31508008A2009D8244B984223D0234B9842E3D11D4BB7
S31508008A30D3F88C007047214B984221D003F5740374
S31508008A4003F510539842D6D1164BD3F898007047C1
S31508008A50144B986D7047134B586E7047114B586FEF
S31508008A607047104B986F70470E4BD3F884007047C9
S31508008A700C4BD3F8880070470A4BD3F89000704720
S31508008A80084BD3F8940070470048E8010024F40026
S31508008A90C0CF6A0080841E0000093D0040420F00D6
S31508008AA0405DC6000080E00FC0EA210180BA8C0153
S31508008AB0007E560380D54302006CDC020090D0038A
S31508008AC038B5104B0546D3F880300C4603F003033F
S31508008AD0022B0BD0032B0DD0012B0FD1FEF77CFEFA
S31508008AE00E2305B1286004B1236038BDFEF7BEFE2B
S31508008AF00723F6E7FEF764FE0623F2E70023184687
S31508008B00EFE700BF0080005038B5174B0546D3F88D
S31508008B1020310C4603F00703013B052B20D8DFE87C
S31508008B2003F0030B130F171BFEF74AFE052305B1C7
S31508008B30286004B1236038BDFEF77EFE0323F6E7FE
S31508008B40FEF794FE0723F2E7FEF78CFE0223EEE714
S31508008B50FEF736FE0623EAE7FEF76EFE0423E6E78F
S31508008B6000231846E3E700BF0080005038B5174BCE
S31508008B700546D3F828310C4603F00703013B052BBD
S31508008B8020D8DFE803F003131B0F0B17FEF718FEB8
S31508008B90052305B1286004B1236038BDFEF710FE31
S31508008BA00623F6E7FEF762FE0723F2E7FEF744FE22
S31508008BB00323EEE7FEF740FE0423EAE7FEF752FE3C
S31508008BC00223E6E700231846E3E700BF00800050CB
S31508008BD073B50D460021114B0191D3F88041064625
S31508008BE004F00304022C13D0032C0CD0012C13D14F
S31508008BF001A8FFF789FF10240EB1019B336005B168
S31508008C002C6002B070BDFEF731FE07240190F3E731
S31508008C10FEF728FE0190EFE70C46EDE700800050CE
S31508008C20002337B50193154B0546D3F820320C4679
S31508008C3003F00703013B032B1ED8DFE803F0020EFF
S31508008C401318002101A8FFF791FF12230DB1019A0D
S31508008C502A6004B1236003B030BDFEF707FE072380
S31508008C600190F3E769F04EFD0A230190EEE7FEF75F
S31508008C703FFE09230190E9E70023E7E7008000505B
S31508008C8038B5104B0546D3F840310C4603F00303BC
S31508008C90022B0BD0032B0DD0012B0FD169F032FD1F
S31508008CA00A2305B1286004B1236038BDFEF720FE0B
S31508008CB00923F6E769F029FD0C23F2E70023184695
S31508008CC0EFE700BF00800050002337B50193164B2D
S31508008CD00546D3F860320C4603F00703013B032B25
S31508008CE01FD8DFE803F0020E1914002101A8FFF7C8
S31508008CF00BFF10230DB1019A2A6004B1236003B05B
S31508008D0030BD002101A8FFF7BBFF1123F2E7FEF7EC
S31508008D10ADFD07230190EDE7FEF7A4FD02230190C0
S31508008D20E8E70023E6E700BF00800050002337B5D8
S31508008D300193164B0546D3F894320C4603F0070305
S31508008D40013B032B1FD8DFE803F0020E191400219C
S31508008D5001A8FFF7D9FE10230DB1019A2A6004B1C4
S31508008D60236003B030BD002101A8FFF789FF112356
S31508008D70F2E7FEF77BFD07230190EDE7FEF772FDAC
S31508008D8002230190E8E70023E6E700BF00800050D1
S31508008D9038B5134B0546D3F800320C4603F00703E3
S31508008DA0013B032B18D8DFE803F0020A0E1269F01C
S31508008DB0A9FC0A2305B1286004B1236038BDFEF773
S31508008DC097FD0923F6E769F0A0FC0C23F2E7FEF706
S31508008DD01DFD0F23800AEDE700231846EAE700BFCA
S31508008DE00080005038B5134B0546D3F808320C46B8
S31508008DF003F00703013B032B18D8DFE803F0020A48
S31508008E000E1269F07FFC0A2305B1286004B12360BD
S31508008E1038BDFEF76DFD0923F6E769F076FC0C23ED
S31508008E20F2E7FEF7F3FC0F23800AEDE70023184666
S31508008E30EAE700BF0080005038B5104B0546D3F866
S31508008E4040320C4603F00303022B0BD0032B0DD044
S31508008E50012B0FD169F056FC0A2305B1286004B12D
S31508008E60236038BDFEF744FD0923F6E769F04DFC9B
S31508008E700C23F2E700231846EFE700BF00800050F6
S31508008E8038B5104B0546D3F860310C4603F003039A
S31508008E90022B0BD0032B0DD0012B0FD169F032FC1E
S31508008EA00A2305B1286004B1236038BDFEF720FD0A
S31508008EB00923F6E769F029FC0C23F2E70023184694
S31508008EC0EFE700BF00800050B0F5207F1FD009D81B
S31508008ED0B0F5007F15D003D868B1B0F5C07F0AD0C9
S31508008EE000200CE0B0F5607FFAD10B4BD3F8800078
S31508008EF0C0F3011003E0084B186FC0F303300130CC
S31508008F007047054BD3F89000C0F30460F7E7024BAF
S31508008F10186FC0F38020F2E70080005002464FF435
S31508008F208030104B10B598660020FFF7CDFF5043F0
S31508008F3041F671320C4BDC69DA635A6804F4803402
S31508008F4022F4401259B9094988428CBF4FF480105F
S31508008F500020104358600CB10022DA6310BD0449A2
S31508008F60F2E700BF0090005000000350005A62026A
S31508008F70002D3101430905D0012B0DD0022B094BD9
S31508008F8018BF002300F01F0041B103F580530122EA
S31508008F9002FA00F018607047034BF3E703F5005335
S31508008FA0F5E700BF68800050648000501FB50021B7
S31508008FB080280446CDE9001100F0998029D80028B8
S31508008FC000F09980A0F120043D2C35D83D2C33D8EB
S31508008FD0DFE804F091999199A8A8A8A8A899B23CA5
S31508008FE0C8603C9999993232323232323232999982
S31508008FF09968D2993232323232323232323232329F
S3150800900032A8919191CD3C3CD7774DAD3232323270
S315080090103288B0F5B06F00F08F802DD8B0F5207F7C
S3150800902071D00CD8B0F5C07F65D0B0F5007F65D09B
S31508009030B0F5807F00F08580009804B010BDB0F5CB
S31508009040607F6AD00DD8B0F5407FF5D1FEF7DEFB1C
S3150800905002464FF42070FFF737FFB2FBF0F04008E6
S3150800906047E0B0F5806F5DD0B0F5A06FE4D1002180
S315080090706846FFF7D5FDDFE7B0F5106F77D016D84D
S31508009080B0F5E06F78D00AD8B0F5C06F6AD0B0F501
S31508009090D06FD1D100216846FFF77AFECCE7B0F54C
S315080090A0F06FC9D100216846FFF7EAFEC4E7B0F5BC
S315080090B0406F3CD013D8B0F5206F62D0B0F5286F5A
S315080090C0BAD10021314B0391D3F8703203F0030370
S315080090D0012B02D103A8FFF7D3FD039B3BE0B0F5B4
S315080090E0486FA9D100216846FFF720FEA4E7FEF7DE
S315080090F073FB0090A0E7FEF789FBFAE7FEF76CFB27
S315080091000246204604E0FEF781FB02464FF4207033
S31508009110FFF7DAFEB2FBF0F0EBE701A8FFF7D0FCA9
S31508009120019AEEE700216846FFF7EEFC84E7002186
S315080091306846FFF71BFD7FE700216846FFF748FDF5
S315080091407AE74FF0E02302911B695B0705D5FEF726
S315080091505DFB0290029B00936EE703A902A8FFF746
S315080091608FFDF7E700216846FFF78AFD64E70021CF
S315080091706846FFF737FE5FE700216846FFF75CFEA3
S315080091805AE700216846FFF79FFD55E70080005023
S3150800919008B58020FFF70AFF034B98429EBF4FF49D
S315080091A08032024B1A6708BD005A620200A00050BE
S315080091B01FB50023B0F5807F019300F0C38064D803
S315080091C05D2855D84C2807D82D2847D823282BD8CA
S315080091D0019805B05DF804FB4D381028F8D801A3AE
S315080091E053F820F03B930008D1910008D19100086C
S315080091F0D1910008ED920008D1910008D19100089C
S31508009200C19300080B930008B1920008B7930008B1
S31508009210D1910008D1910008D1910008D191000898
S31508009220D1910008CB93000824380928D0D801A387
S3150800923053F820F03B9300083B9300083B93000843
S315080092403B9300083B930008D1910008319300082E
S31508009250D1910008CD920008719300083D2800F0CE
S3150800926082803E28B4D1002001A9FFF7E5FDAFE7CB
S315080092708028ADD15A4B1B6F03F00703013B032B24
S31508009280A6D8DFE803F05350878FB0F5F06F6AD0A1
S3150800929021D8B0F5B06F4BD00FD8B0F5607F00F08D
S315080092A0858095D3B0F5806F47D0B0F5A06F8FD184
S315080092B0002001A9FFF7B4FC8AE7B0F5D06F57D0B4
S315080092C0B0F5E06FCFD0B0F5C06F81D1002001A90D
S315080092D0FFF7D6FC7CE7B0F5206F71D00BD8B0F558
S315080092E0086F4AD0B0F5106F7FF472AF002001A95D
S315080092F0FFF778FD6CE7B0F5406F5CD0B0F5486FC6
S3150800930063D0B0F5286F7FF463AF0021344B039127
S31508009310D3F8703203F00303012B5BD0022B14BF82
S315080093200B46152300E00523019351E70223FBE7CB
S31508009330002001A9FFF74CFC4AE7002001A9FFF726
S31508009340E3FB45E702934FF0E0231B695B0705D56E
S31508009350FEF75CFA0D230393039BE5E703A902A82E
S31508009360FFF78EFCF8E7002001A9FFF789FD2FE734
S31508009370002001A9FFF70CFD2AE7194BD3F80031A5
S3150800938003F00303022B07D0032B09D0012B0BD1C3
S31508009390FEF752FA0323C7E7FEF7AAFA0923C3E73B
S315080093A069F0AEF90823BFE70123BDE7184601A90E
S315080093B0FFF786FB0CE7002001A9FFF7D7FB07E7B5
S315080093C0002001A9FFF780FC02E7002001A9FFF7AA
S315080093D0ADFCFDE603A8FFF753FC1123A4E700BF85
S315080093E00080005008B5FFF7E3FE092811D00A38B7
S315080093F0012811D84FF48002094B4FF6FF705A66C0
S3150800940003F5D8335B6A13F0010F18BF4FF4FA70EF
S3150800941008BD044B1888FBE74FF6FF70F8E700BF56
S3150800942000900050DC14002038B504468020FFF771
S31508009430BFFE032800F083804FF48012504B4FF094
S31508009440A0615A6645F60E034E4AC2F880304E4B66
S3150800945099624FF4803103F580539962916D11F446
S315080094608031FBD1D4E900031B0543EA0063E07BA6
S315080094700343207B43EA0043607B43EA0033A07B37
S3150800948043EA801313619069D4E904531B0643EA3F
S31508009490856300F000400343A07E0343207E43EA31
S315080094A00043607E43EA00239361136AE269E57E1E
S315080094B0002A0CBF0020082023F00F03134343EAB9
S315080094C08503304A03431362E369304D002B37D1D5
S315080094D094F82430916A94F82000DB000D4043EAA2
S315080094E0401394F821102B4343EA011343F48033C5
S315080094F09362274B916D33EA0101FBD14FF08071DE
S31508009500214881621369A56823F4700343EA055369
S3150800951013614FF00043836194F822300BB91D4B59
S31508009520996294F823301BB94FF48032194B9A622A
S3150800953094F825301BB1134B174AC3F8802038BD61
S31508009540022B08D11161154891614FF408524FF466
S315080095507F4169F052FA0B4994F822308A6A94F8E6
S3150800956020001B06154043EA401394F824202B4399
S3150800957043EAC20394F8232043EA02438B62D7E7FF
S31508009580009000500040005A0050005AC7FFFEFEE7
S31508009590030001000060005AF1A7FFFF3440005A9B
S315080095A0014B93F9000070473A1700204FF48002E8
S315080095B008B5184B5A660223174A5360936813F482
S315080095C08033FBD1012822D1FEF736F9134B984296
S315080095D015D003F5122303F5F863984213D0104B00
S315080095E000EB8002400AB3FBF0F0520A0A4BDA623B
S315080095F0012218635A620022074B5A6008BD45F6D5
S315080096007A10084AF2E745F61A00074AEEE7536267
S31508009610F1E700BF009000500040025000F04902F8
S3150800962064666666D8B80500BBCF0500B0F5207F2E
S3150800963010B50C4657D008D8B0F5007F48D003D8E7
S3150800964030B3B0F5C07F23D010BDB0F5607FFBD135
S3150800965029492A48D1F8FC2012F080721EBFD1F899
S31508009660FC3023F08073C1F8FC30D0F88030611EDE
S3150800967023F0300444EA0114C0F88040002AE3D0FD
S315080096801D4AD2F8FC3043F08073C2F8FC30DBE7A1
S3150800969069F0C4F969F0D0F94FF48031184B174ACC
S315080096A01967136F611E23F4704444EA0134146782
S315080096B0FEF7ACF80446FFF77DF9C0F10201204633
S315080096C069F0B4F900F02EF8BDE81040FFF760BD68
S315080096D00A4A0139D2F8903023F0F85444EA016472
S315080096E0C2F89040B0E7054B013C196F21F4806140
S315080096F041EA84241C67A7E700ED00E000800050DB
S315080097000090005008B50121022000F09BF969F08D
S3150800971085F969F091F94FF48032014B1A6708BD53
S315080097200090005008B54FF4C070FFF73FFCBDE845
S315080097300840044988428CBF022101214FF4207059
S31508009740FFF774BF80F0FA024FF4C02201212DE919
S31508009750F04105466A4B5A666A4A03F598335C68CF
S3150800976051605E6816F00206FBD1FFF723F901285F
S31508009770286805D1644B984202D90020BDE8F081DB
S31508009780624A002311461768B84202D35768B8429E
S3150800979005D90133192B02F11002F4D1002301EB8C
S315080097A00313D3E9028028B1FFF710F900F07F0010
S315080097B048EA00088020FFF7FBFC05285FD169F01E
S315080097C02DF969F039F94FF480324D4B4FF4C070DA
S315080097D01A67FFF779FB012806464CD102214FF498
S315080097E0C070FFF723FF01274948C16811F0060139
S315080097F0FBD1D0F808C0C0F80880836808F4F812CE
S3150800980003F4F8139A424ED1AA88EB8843EA024336
S31508009810404AD360AB68032B33D1A2F5A032D2F805
S31508009820003123F0030343F00103C2F800312B7D16
S31508009830287B002B6B7D14BF04220022002B18BF47
S3150800984040212B694FF0000843EA40031343314A8D
S315080098500B4393602868FDF7B9FF0722294B1A6165
S315080098600122A3F580535A60A3F580531C6914F0AE
S315080098700704FBD01EE0022801D10421AFE7002728
S31508009880B2E7092B07D1244AD2F8003123F00303A3
S3150800989043F00203C9E7082BC9D11F4AD2F80031A1
S315080098A043F00303C1E714F001044FF00108C0F8C0
S315080098B008C0D2D18020FFF77BFC052817D127B135
S315080098C031464FF4C070FFF7B1FEFDF79FFF05461E
S315080098D0FDF776FFFDF774FFFFF76CF8C0F102019C
S315080098E0284669F0A3F8FFF71DFFFFF751FCB8F10A
S315080098F0000F7FF442AF631E584258413EE700BF4F
S315080099000090005000E00150005A62024C420B08D9
S315080099100000015000C00150008000500028ABBF75
S3150800992000F16040054B00F5614000F00F00ACBF48
S3150800993090F80003185C0009704700BF14ED00E0BA
S31508009940054B420953F8223000F01F0023FA00F0B5
S31508009950C04300F00100704700E100E0014608B589
S31508009960EFF31083DB0702D50122104608BDFFF787
S31508009970E7FF02460028F7D10846FFF7CFFF014662
S31508009980EFF3118313B1B0EB131FEDD2074B5B68EE
S31508009990C3F30803002BE8D0103B58B2FFF7BEFF0D
S315080099A088428CBF00220122DFE700BF00ED00E0FD
S315080099B0024A536B0342FCD1704700BF004009506E
S315080099C0044A4178536F23F4407343EA01235367EB
S315080099D0704700BF0040005010B50A4A0446136994
S315080099E043F00403136105F04FFE69F04FF830BFEA
S315080099F069F04DF805F05CFE1CB9BDE81040FDF7AE
S31508009A0005BF10BD00ED00E010B5084A044613690D
S31508009A1043F00403136105F037FE30BF05F048FE36
S31508009A201CB9BDE81040FDF7F1BE10BD00ED00E021
S31508009A30034A0179D36E23F030030B43D36670478C
S31508009A4000400050F8B504461C4BD3F88420D106D4
S31508009A50FBD4D3F88430C3F381139C422CD0FDF792
S31508009A60BBFE012C064602D1214668F0DFFF68F0EE
S31508009A70FDFF4FF00072124B07465A66204669F002
S31508009A8009F84FF480630D4D621E93402B676B6E89
S31508009A909A0103D4D5F884309B060AD5384668F06F
S31508009AA0E9FF022C08D13046BDE8F840002168F0ED
S31508009AB0BDBFD5F88430EAE7F8BD00BF00400050C6
S31508009AC00060005007B518B90191FDF785FE0199A8
S31508009AD0064B1B7843B1064B984205D8012003B0C4
S31508009AE05DF804EBFFF7AEBF0220F8E7E9B6012000
S31508009AF0005A62020278034B012100201A70FFF710
S31508009B00E1BF00BFE9B601204FF00042154B10B582
S31508009B105A664AF6CD3314494C6C0B6404F00104BA
S31508009B2088B90120FFF744FF4B68DB0704D50F4BC4
S31508009B3058600B6BD807FCD514B10B4B0C4A1A644A
S31508009B40A9F0E3FB10BD0B6B1A07FCD42022074BC8
S31508009B509A620122A3F580535A60034A936A9B06C8
S31508009B60FCD5E9E700900050004009500060095014
S31508009B703254FFFF4FF0004270B5104B04465D6E3D
S31508009B8003F580535A664AF6CD330D4980204E6C4C
S31508009B900B64FFF70DFF0B6A23F4F85343EA04231B
S31508009BA00B62F30744BF074B0B64002DA2BF4FF0AF
S31508009BB00042054B5A66A9F0A8FB70BD008000500C
S31508009BC0004009503254FFFF00A0005010B568F05D
S31508009BD06CFF042300F5805100F500520B611361F8
S31508009BE00B6113610B6113610B611361202341F251
S31508009BF0020103610023C360836041614FF4A02121
S31508009C008361836541620549C36103628362C362F6
S31508009C1043630365D164036310BD00BFFF3F0D03B3
S31508009C20F8B505461446084641B9344B9D422FD02F
S31508009C30334B9D4208BF5720FFF7B8F9AB68DE07DC
S31508009C402ED5B0FBF4F46E68013C16F0010625D05B
S31508009C502821284668F025FFAB6C99071AD1AB6C0A
S31508009C60DA0719D4AB6C13F0020F0CBF00270627CE
S31508009C70284668F01AFF286920F07F4040EA046405
S31508009C802C61DEB139462846BDE8F84068F044BF85
S31508009C905620D1E70527EBE70927E9E73746EAE73C
S31508009CA06B68AB6DAF68DB0707F0E00748BF640079
S31508009CB0402F1BD003D8DFB1202F1BD0F8BD602F53
S31508009CC01AD0802FFAD1012604FB06F34101B1FB15
S31508009CD0F3F30C4A203B02EAC3022846012168F046
S31508009CE0E0FE2A63BDE8F84068F0DBBE0626EBE72F
S31508009CF01026E9E70826E7E70426E5E70000015B02
S31508009D0000000A50F8FF7F00F8B51E46436804466F
S31508009D100D4617461BB140F6FF7168F0C2FE204695
S31508009D20FFF754FFE9896B7B62690B43298A22F4A2
S31508009D304C520B4322F00F0213436361A368297B3D
S31508009D402A7E23F0804323F0E203114319436B690B
S31508009D501943A160AB681BB9A36843F00043A3602D
S31508009D60EA69002A6BD0A368127A43EA8253A36091
S31508009D70EA69A368927A43EA4243A360EB69A26858
S31508009D809B8803F4C0431343A360EA69A368527827
S31508009D9043EA8203A360EA69A368527B43EAC203E3
S31508009DA0A360EA69A368927B43EA0213A360EA699F
S31508009DB0A368927843EA8223A360EA69D379917902
S31508009DC05B0243EA8123E360EB69674A1B7803F089
S31508009DD0FD03012B02BFE36843F00403E360EB696C
S31508009DE01B78023B012B614B7AD8944276D0604AA5
S31508009DF094420CBF01224FF0FF3203EB421341F2AB
S31508009E00944202219950EB695A7A04F580539A6272
S31508009E10EB695B7A1BB1E36843F40063E360EB69C3
S31508009E20DB7A63B1E36843F40043E3604E4B9C423C
S31508009E3065D1EB694F4A1B7B03F00F0353673FB1AC
S31508009E4097F8203004F58050002B63D00123036275
S31508009E50002E30D02B7E04F5805013B14FF400430A
S31508009E60836596F82120404B102A434961D89C42C5
S31508009E705DD03F4B9C420CBF01234FF0FF330127B7
S31508009E80CF54768C3849B6F5006F3C4B5FD88C4278
S31508009E905BD037498C420CBF01214FF0FF310127B7
S31508009EA05F54A36D324323F4F95323F01E0313437F
S31508009EB0A365012383650521204668F010FEAA687C
S31508009EC012B16968FFF7ACFE2046297868F024FECF
S31508009ED0A36CDB4313F4405FFAD1F8BD00228CE78C
S31508009EE094420AD0224A94420CBF01224FF0FF3214
S31508009EF003EB421342F2944283E70022F8E71C4B35
S31508009F009C429CD1EB691B4A1B7B03F00F03C2F8EA
S31508009F10803094E7E36997F8221097F8212023F018
S31508009F2009030A431A4342F00102C26190E700237B
S31508009F30A5E79C4207D00E4B9C420CBF01234FF06D
S31508009F40FF3302279CE70023FBE70021A7E78C42A3
S31508009F5007D007498C420CBF01214FF0FF31022779
S31508009F609EE70021FBE700BF0000015B00C003502D
S31508009F7000000A5000900350ECB60120EAB6012012
S31508009F802C4B2DE9F0419842064612D02A488642C3
S31508009F900CBF57200020FFF709F8B16811F001013E
S31508009FA009D03169090E0131B0FBF1F10846BDE867
S31508009FB0F0815620EFE7326BB468204B04F0E004DA
S31508009FC0402C03EA020310D007D854B3202C2CD017
S31508009FD0B36DDB0748BF4908E8E7602C27D0802C1B
S31508009FE0F6D14FF480750C461CE080250C464FF0E0
S31508009FF0030803F5807308FB03F800234246194655
S3150800A0004AF024FF02FB04F100FB05F705FB0311E8
S3150800A010A2FB05050023424629444AF017FF3918D2
S3150800A020D6E710254FF00108E3E72546DBE740258C
S3150800A030D9E700BF0000015B00000A50F8FF7F0067
S3150800A040072AF7B501F0030614461F464FF0030129
S3150800A0502CD89500A94000FA05F21C48019168F031
S3150800A0606BFD01991A4806FA05F268F065FD194B69
S3150800A07019499DF82000002F08BF1946012303FA45
S3150800A08004F40C60154B1649002808BF0B461C60E3
S3150800A090144B1031C3F820449DF82400A3F6DC3392
S3150800A0A0002808BF0B461C6003B0F0BDA2F10805E6
S3150800A0B0AD00A94000FA05F20B48019168F03CFD95
S3150800A0C001990A4806FA05F2CFE700BF00C4035013
S3150800A0D008C4035010E4035010D4035014D403509A
S3150800A0E014E4035000E0035004C403500CC40350A6
S3150800A0F02DE9F04105460F461E4690464AB1012312
S3150800A1003022194C8B4002FB00443EB304F58254BE
S3150800A11023600F21072F05EB450388BFA7F1080425
S3150800A1204FEA0313114895BFBC00A40004330C334F
S3150800A13008FA04F2A140184468F0FEFCB8F1000FD2
S3150800A1400AD101213020084A01FA07F700FB052247
S3150800A1503EB102F582521760BDE8F08104F501545C
S3150800A160D6E702F50152F6E700C0035030C00350A7
S3150800A170044A054B002918BF1346012202FA00F0CB
S3150800A18018607047402004504010045010B5012153
S3150800A19004462020FEF7EEFE01212120FEF7EAFE06
S3150800A1A00122114B5A60227812069A606178A278C9
S3150800A1B042EA01429A61FF229A6200229A631A646D
S3150800A1C04FF000425A654FF0FF324FF4001103F585
S3150800A1D000531A65054AC2F88011E3781B01DBB201
S3150800A1E082F81533116010BD0000045000E100E04C
S3150800A1F070B50125C3B29D401E4B0C461D658300F4
S3150800A200096803F1A04303F58823596030211A4EE3
S3150800A210637B01FB00600366E37AA17A1B0543EAC8
S3150800A2200143217B22F0030243EA4153C3650267D7
S3150800A23068F023FC736D2B437365237A13B1336C73
S3150800A2402B433364637A13B1B36B2B43B36322791D
S3150800A250A37943EA0243074A93616179E37943EABA
S3150800A260014306498B61044B55639D64BDE8704004
S3150800A27068F009BC00200450000004500010045087
S3150800A28010B50124C0B2844068F0F7FB044B5A6D40
S3150800A29022EA04025A659C62BDE8104068F0F3BBE6
S3150800A2A00000045010B50124C0B2844068F0E5FBF4
S3150800A2B0074BDA6A224209D15B6B34EA03030CBF07
S3150800A2C00124002468F0DFFB204610BD0024F9E7CE
S3150800A2D000000450F8B50125C3B204469D4068F055
S3150800A2E0CCFB3022094B1E6D5F6B02FB04335C6EA0
S3150800A2F068F0C9FB3D4206D1C4F30A1008B93542D5
S3150800A30000D10130F8BD0020FCE700BF0000045072
S3150800A3104FF48032054B9A6641F6713203F51C33C9
S3150800A320DA63012203F50053DA60704700900050A3
S3150800A33041F671320121064BDA6303F50052D1600A
S3150800A3400022DA634FF48032A3F518339A66704711
S3150800A35000000350013831289ABF024B185C0020D0
S3150800A360704700BFDC430B08021E30B54FF00000F3
S3150800A3700CBF1025042547F60774084952B9831DF2
S3150800A38051F82330234023B101308542F6D14FF0EE
S3150800A390FF3030BD00F11603F2E700BF008003501E
S3150800A3A010B5C2F30623044602F0070241B942EA91
S3150800A3B003220B4B42F44022063443F8242010BDF6
S3150800A3C01846114668F0CAFB01461846FFF7C2FF51
S3150800A3D0034B41EA0020163443F82400EFE700BF98
S3150800A3E000800350014BD3F894007047004000509A
S3150800A3F04FF48032064B5A6603F5E6239B69C3F38E
S3150800A4008512827003F03F021B0B4270037070477F
S3150800A4100090005040F6B732064B5B689BB29342F9
S3150800A4209FBF4FF47A72B3FBF2F3034AD05C88BF3E
S3150800A430002070470080E00F0E440B08054B9A6811
S3150800A4409107FCD45A689207F9D4DA69002AF6D13A
S3150800A450704700BF00800A5008B5FFF7EFFF0122DA
S3150800A460024B03F580514A601A6108BD00800A5004
S3150800A470074B5A68012A0AD15A68D20702D5DA69FF
S3150800A480002AF9D102221A610122024B5A6070474A
S3150800A49000800A5000A00A5010B5064CFFF7CEFF00
S3150800A4A06368012B03D1FFF7E3FFFFF7C7FF0378C4
S3150800A4B0E36010BD00800A50E8B94A680B7812B10B
S3150800A4C0127843EAC2034A78002A14BF02220022FD
S3150800A4D013438A6812B1127843EA82138A78002AEB
S3150800A4E014BF042200221343CA6812B1127843EA41
S3150800A4F04223014A9364704700800A5008B9014B09
S3150800A5005964704700900A5008B9014B596470475E
S3150800A51000A00A5008B9014B1964704700A00A50F8
S3150800A52010B9024B186C70470020704700800A501B
S3150800A53048B911B1012903D07047044BD86C70474C
S3150800A540024B186D70470020704700BF00800A5004
S3150800A55040B911B1012903D07047034BDA6470473B
S3150800A560014B1A65704700BF00800A5038B504468B
S3150800A570054DA8F048FF0FCC0FC594E8030085E801
S3150800A5800300002038BD00BFF029012047F6FF73FD
S3150800A5909A42F0B567D0022967D8354DCF0015F82D
S3150800A5A0313005EBC100012B847813D10025C3781F
S3150800A5B01B1B9D4202D3E018C0B2F0BD591B46686A
S3150800A5C0A3EB510136F911609642D4BF0D4601F14D
S3150800A5D0FF33EEE740680028EFD0B0F90030934229
S3150800A5E004DBB0F902309342B8BF134682883D4473
S3150800A5F0FF2A19BFC8214FF0280CB0F90610B0F988
S3150800A60008C0A1EB03020CBF0126002692FBFCF250
S3150800A6106D78324412B2954201DD002A01DA6A1ECB
S3150800A62012B24FF47A7700EBC206F188B6680132A7
S3150800A63013FB016112B221EAE17101F5FA71954243
S3150800A640B1FBF7F104DD00EBC206B6888E42EAD20A
S3150800A65000EBC20232F8040C884228BF0846A04222
S3150800A66038BF2046A8E7FF20A7E70020A5E700BFD8
S3150800A670F02901200229F0B553D82B4800EBC10474
S3150800A68010F83110636801290FD1E078A478904258
S3150800A69094BFC4EB0001C4EB0201001BCAB282429C
S3150800A6A0C8BF002233F91200F0BD002B39D0A178BB
S3150800A6B0914202D3B3F90200F6E7E178B3F9000054
S3150800A6C09142F1D999886478A1F1FF06013C71425B
S3150800A6D003F10405E4B2714103F10C071FFA82FC89
S3150800A6E0CEB2B44216D805EBC1014FF47A756A4367
S3150800A6F0B1F902404968521A04EBD47102EB6102BF
S3150800A70092FBF4F29042CFDBB3F902009042CBDC25
S3150800A71010B2C9E737F831E04E1CE645E3D33146B7
S3150800A720DEE70248C0E700BFF02901200080FFFFEE
S3150800A7300148FFF71BBF00BF7C5B0C080048704749
S3150800A740DE1400207FB50222084B0949CDE9012312
S3150800A7504FF00073CDE90313052301A94FF0FF302D
S3150800A7600593A8F046FF07B05DF804FB006A1800D9
S3150800A770000204002DE9F84307F08EF90128074680
S3150800A78005D907F0BDF9061E02DA01241EE00026E7
S3150800A790DFF8808098F8003003F0FF0493BB4FF091
S3150800A7A05009194D05F110032846C5E90044AB6068
S3150800A7B0C5F80C9007F046FB286650B90124012F0E
S3150800A7C004D9304607F0BEF90028DEDB2046BDE88E
S3150800A7D0F8830E4D214605F110032A460120C5E9E6
S3150800A7E00044C5E9023907F0EDFB28660028E5D0E4
S3150800A7F03022074B83F8412302229A60012388F806
S3150800A8000030DCE70024DAE76C2A0120082A012058
S3150800A81000E100E0EEB6012008B507F03DF9022890
S3150800A8200FD1094B4FF0FF31186E07F04DFB00288A
S3150800A83014BF0120002003D14FF48062034B9A66AF
S3150800A84008BD0020F8E700BF6C2A012000900050E0
S3150800A8504FF4806208B5084B9A6607F01DF902287E
S3150800A86007D1064B186E07F05FFB003818BF0120AA
S3150800A87008BD0020F9E700BF00A000506C2A01209F
S3150800A88008B54FF098435B6CD90208D507F004F970
S3150800A8900238012803D8094B186E07F01FFC4FF041
S3150800A8A098435A6CD202FCD55B6D054A03F47023B3
S3150800A8B013600222034BC3F8882108BD082A012029
S3150800A8C03C10002000E100E038B5054600283AD0E3
S3150800A8D0FFF7A2FF0446002836D1284668F07FF91C
S3150800A8E095F8203043B94FF098435A6CD202FCD5FC
S3150800A8F05D6D05F470251BE04FF09842936D43F0AB
S3150800A9000203936507F0C8F802281AD1104B4FF0D6
S3150800A910FF31186E07F0ACFB4FF09842936D23F0A9
S3150800A9200203936590B94FF4A0220A4B1D681A607A
S3150800A930FFF78EFF04463DB12846BDE8384068F06B
S3150800A94079B92046E8E72124204638BD0124FBE7EB
S3150800A950082A01203C1000202DE9F0418CB08846D9
S3150800A960DDE912761D460446002847D0002945D061
S3150800A970002F43D0002E41D013F00F033ED12048BC
S3150800A9802049A360002A18BF0146E361C4E9001301
S3150800A990404609A968F0BEFA68BB2046099968F0DE
S3150800A9A015F92946204668F011F96946404600F02F
S3150800A9B0CBFF00BB6946204668F0F4F8404603A979
S3150800A9C068F076FBB8B9204603A968F0EBF8069755
S3150800A9D00127204645F0005506A90797089568F00F
S3150800A9E0E1F8204609A909960A970B9568F0E4F854
S3150800A9F02046FFF769FF0CB0BDE8F0812120FAE791
S3150800AA0000010104000100042DE9F04792B08846D0
S3150800AA10DDE91A571C460646DDF87090002864D012
S3150800AA20002962D0002F60D0B9F1000F5DD0002D4B
S3150800AA305BD013F00F0358D12D482E49B360002A76
S3150800AA4018BF0146F361C6E9001340460FA968F02E
S3150800AA5061FA002846D130460F9968F0B7F82146C2
S3150800AA60304668F0B3F86946404600F06DFF0028A6
S3150800AA7038D16946304668F095F8404603A968F02B
S3150800AA8017FB78BB4FF001083046DFF86CA003A926
S3150800AA9068F088F844F00054304606A90695CDF8C3
S3150800AAA01C80CDF820A00997CDF828800B9468F073
S3150800AAB079F8304609A968F075F830460CA9CDF83A
S3150800AAC03090CDF834800E940F95CDF84080CDF8AF
S3150800AAD044A068F071F830460FA968F06DF8304662
S3150800AAE0FFF7F2FE12B0BDE8F0872120FAE700BFB3
S3150800AAF00302010403020004100000202DE9F04FB0
S3150800AB0097B0894690461F460546DDF880A000287E
S3150800AB1000F0BD80002900F0BA803AB1229B002BD4
S3150800AB2000F0B580239B002B00F0B180BAF1000F2E
S3150800AB3000F0AD80219B002B00F0A98077B13C681E
S3150800AB400026229B43440293464509D3002F00F072
S3150800AB50A08000203C6017B0BDE8F08F3C46EFE7C8
S3150800AB605CB1229B219A9B5D125D01345340239A66
S3150800AB7004F00F0493550136E6E7A8EB060BBBF184
S3150800AB800F0F58D9444B4846C5E90034AC60EC6110
S3150800AB9013A968F0BFF90028DDD1284613992BF0D0
S3150800ABA00F0B68F013F85946284668F00FF8484620
S3150800ABB004A900F0C9FE0028CDD1284604A967F0EB
S3150800ABC0F1FF484607A968F073FA0028C3D128465A
S3150800ABD007A967F0E7FF01232299304ACDF828A094
S3150800ABE00B930C928A190D9228464BF000520AA92B
S3150800ABF00E9303920F9267F0D5FF28460DA967F0CA
S3150800AC00D1FF239B039A991901231091119312924C
S3150800AC10224A284610A9CDF84CA01493159267F03D
S3150800AC20CBFF284613A967F0C7FF2846FFF74CFE57
S3150800AC305E4400288FD1229B03EB060B239B1E4400
S3150800AC40029B5B4501D146467EE7ACB9219B22466D
S3150800AC50CDE900A3494610232846FFF77DFE0028C4
S3150800AC607FF479AF0AF1100212F8013D0133DBB225
S3150800AC7013700BB99245F7D1219A1BF8013B125D67
S3150800AC800134534006F8013B04F00F04D8E72120AD
S3150800AC9061E738465FE700BF0303000410000020A1
S3150800ACA02DE9F04F97B00F46144699468346209EE5
S3150800ACB0DDF88880DDF890A0269D002800F09F80AA
S3150800ACC0002900F09C801DB1259B002B00F0978081
S3150800ACD0B9F1000F00F09380B8F1000F03D0219B63
S3150800ACE0002B00F08C803CB1239B002B00F0878062
S3150800ACF0BAF1000F00F08380C6F10F02D2B2032A20
S3150800AD0005D80121D20001FA02F2A24277D9022D12
S3150800AD1075D0102D73D815F0010270D1F11F0629D0
S3150800AD206DD838490AEB0400884268D8364938464F
S3150800AD30CBE90012CBF80820CBF81C2013A968F041
S3150800AD40E9F8002858D15846139967F03FFF584646
S3150800AD5045EA064167F03AFF4146584667F036FF2E
S3150800AD602146584667F032FF384601A900F0ECFD47
S3150800AD70002841D1584601A967F014FF384604A9AE
S3150800AD8068F096F9002837D10127584604A967F0D4
S3150800AD9009FF239B48F000520793219B584644F02D
S3150800ADA000540DA946F00056089709940A930B9784
S3150800ADB00C92CDF834900E970F9667F0F3FE58462E
S3150800ADC00AA967F0EFFE584607A967F0EBFE259B30
S3150800ADD0584610A945F00055CDF840A01197129491
S3150800ADE013931497159567F0E7FE584613A967F06D
S3150800ADF0E3FE5846FFF768FD17B0BDE8F08F21203F
S3150800AE00FAE700BFFFFF0320000005042DE9F04F15
S3150800AE1099B00F4614469B468046229EDDF89890C8
S3150800AE20289D002800F0B280002900F0AF80279BFB
S3150800AE30002B00F0AB80BBF1000F00F0A780249B2D
S3150800AE401BB1239B002B00F0A1803CB1259B002B56
S3150800AE5000F09C80B9F1000F00F09880C6F10F034E
S3150800AE60DBB2032B06D80121DB0001FA03F3A34268
S3150800AE7040F28C80022D00F089806B1E0F2B00F2A9
S3150800AE80858015F0010A40F08180F31F062B7DD8D6
S3150800AE903F4B09EB0401994278D83E4B3846C8E93E
S3150800AEA0003AC8F808A0C8F81CA015A968F032F836
S3150800AEB00346002866D14046159967F087FE404646
S3150800AEC045EA064167F082FE4046249967F07EFE11
S3150800AED02146404667F07AFE384603A900F034FD5D
S3150800AEE0034600284ED1404603A967F05BFE384664
S3150800AEF006A968F0DDF80346002843D10127404635
S3150800AF0006A967F04FFE259B4046099344F0005377
S3150800AF100A9701930B93239B46F000560C93249BA8
S3150800AF200D9743F000510E910FA9CDF83CB010973C
S3150800AF30119667F037FE40460CA967F033FE404687
S3150800AF4009A967F02FFE019B404612A9CDF8489043
S3150800AF501397149367F030FE279B404615A945F0D2
S3150800AF60005515931697179567F01CFE4046FFF790
S3150800AF70ABFC034630B101902246514648469FF045
S3150800AF8034F8019B184619B0BDE8F08F2123F9E77C
S3150800AF90FFFF0320000006042DE9F0438DB0884624
S3150800AFA015461C460746DDF85090002850D0002963
S3150800AFB04ED0002A4CD0B9F1000F49D00B68103B8F
S3150800AFC0102B45D8012606FA03F303F0013323F0C4
S3150800AFD08073002B3CD000231E4A8360C0E90023FF
S3150800AFE0C36109A9404667F095FF70BB38460999C1
S3150800AFF067F0ECFD2146384667F0E8FD69464046AD
S3150800B00000F0A2FC08BB6946384667F0CBFD40460F
S3150800B01003A968F04DF8C0B9384603A967F0C2FD20
S3150800B02044F00054384606A906950796089467F032
S3150800B030B9FD094B384609A9CDF824900A960B9311
S3150800B04067F0BAFD3846FFF73FFC0DB0BDE8F08360
S3150800B0502120FAE70000040410000020F0B50C4691
S3150800B06017461E46054695B0002874D0002972D0AA
S3150800B070002A70D0002B6ED0036B0F2B5BD80023F1
S3150800B080364A3846C4E90023A360E36111A967F08C
S3150800B09041FF00285BD12046119967F097FD296B7F
S3150800B0A020460F2984BF01F00F01103167F08EFD8D
S3150800B0B0384602A900F048FC002848D1204602A9D3
S3150800B0C067F070FD384605A967F0F2FF00283ED103
S3150800B0D0204605A967F066FD0122214B08950992CD
S3150800B0E00A932B6B05F1100003F00F0141F0005194
S3150800B0F00B900F2B0C920D910E900F9243F000526D
S3150800B100109226D90A9B08A923F0005320460A93D1
S3150800B11067F048FD0BA9204667F044FD0123119608
S3150800B12012930F4B204611A9139367F045FD20464D
S3150800B130FFF7CAFB0BE000F1200301900093012200
S3150800B140102339462046FFF707FC002897D015B08C
S3150800B150F0BD0EA9DFE72120F9E700BF00000404CF
S3150800B160100000202DE9F04F9BB00D4691469846F9
S3150800B1700646DDF890A0002800F0B380002900F00C
S3150800B180B080002A00F0AD80002B00F0AA80026B88
S3150800B19002EB0A031B09B3EB121F02F00F0700F0BC
S3150800B1A098800023504A8B60C1E90023CB6148464A
S3150800B1B017A967F0AFFE0446002840F0868007EB23
S3150800B1C00A0323F00F0B28461799009367F0FEFC35
S3150800B1D05946284667F0FAFC484602A900F0B4FB2F
S3150800B1E00446002871D1284602A967F0DBFC4846C8
S3150800B1F005A967F05DFF0446002866D14FF00109EE
S3150800B200284605A967F0CEFC384A284608A90896B4
S3150800B210CDF824900A9267F0C5FC47F00051ABEBD5
S3150800B220070706F1100347F000570B93CDF8309047
S3150800B2300D91CDF83880CDF83C9010970D99284699
S3150800B24021F000510D910BA9019367F0ABFC28463C
S3150800B2500EA967F0A7FCABF11001244A41F0005192
S3150800B2601194CDF84890139106F120011491CDF868
S3150800B270549016921399284641F0804113911399D8
S3150800B28021F00051139111A967F096FC284614A9DC
S3150800B29067F092FC154A17A928461796CDF86090CC
S3150800B2A0199267F089FC2846FFF70EFB009B0446B7
S3150800B2B0ABEB0301A3EB0B02019B51441846414437
S3150800B2C09EF06CFE336B5344336320461BB0BDE8D7
S3150800B2D0F08F10305246414638449EF05FFE0024F7
S3150800B2E0F0E72124F1E700BF030200041000002064
S3150800B2F02DE9F0438DB08846DDE914591E46074608
S3150800B300002850D000294ED0002B4CD0B9F1000FA0
S3150800B31049D0531EDBB2042B45D82449CC5C169B76
S3150800B3209C4240D8224B09A903EB02220023026063
S3150800B330C0E90133C361404667F0ECFD80BB38467F
S3150800B340099967F043FC2946384667F03FFC694689
S3150800B350404600F0F9FA18BB6946384667F022FC01
S3150800B360404603A967F0A4FED0B9384603A967F09A
S3150800B37019FC06960126384606A945F00055079693
S3150800B38044F00054089567F00DFC384609A9CDF835
S3150800B39024900A960B9467F00FFC3846FFF794FA48
S3150800B3A00DB0BDE8F0832120FAE700BF11440B0871
S3150800B3B0000102032DE9FF4700230E4617460446FF
S3150800B3C0009300285BD00AB1002958D037F003084B
S3150800B3D007F0030A25D04FF000094FF0E063C4E9EF
S3150800B3E00039012301962046029301A948F000532B
S3150800B3F0C4F80890C4F81C90039367F0DDFB414637
S3150800B400204667F0E3FB2046FFF75EFA054640B1A3
S3150800B4104246494630469EF0E8FD284604B0BDE857
S3150800B420F0874FF00009BAF1000F2AD04FF0E06319
S3150800B430C4E900390123CDF804D00293124B204603
S3150800B44001A9C4F80890C4F81C90039367F0B4FBEC
S3150800B4500421204667F0BAFB2046FFF735FA054671
S3150800B46008B13A46D5E7034600994644DA0001335F
S3150800B47021FA02F29A4506F8012BF7D1CDE72125E4
S3150800B480CBE75546C9E700BF04000020F0B50446DF
S3150800B49008462178174601398DB0042945D8DFE8D2
S3150800B4A001F00330353A3F004025142620490C3474
S3150800B4B000225D43C0E90122C2610160294601906C
S3150800B4C067F084FB0123019846F0005606A945F06B
S3150800B4D000550397049305950694079308960994CF
S3150800B4E00A930B9667F05EFB019803A967F05AFB6F
